:020000040800F2
:1000000000300024E1030008E9670008F15300080C
:10001000E1670008E10A0008818D00080000000087
:10002000000000000000000000000000F181000856
:10003000E90A000800000000C16C000819820008ED
:10004000FF030008FF030008FF030008FF03000888
:10005000FF030008FF030008FF030008FF03000878
:10006000FF030008FF030008FF030008FF03000868
:10007000FF030008FF030008FF030008FF03000858
:10008000FF030008FF030008FF030008FF03000848
:10009000FF030008FF030008FF030008FF03000838
:1000A000FF030008FF030008FF030008FF03000828
:1000B00091840008FF030008FF030008FF03000805
:1000C000FF030008FF030008FF030008FF03000808
:1000D00001800008FF030008FF030008FF03000879
:1000E000FF030008FF03000800000000FF030008F2
:1000F000FF030008FF030008FF030008FF030008D8
:10010000FF030008FF030008FF030008FF030008C7
:10011000FF030008FF030008FF030008FF030008B7
:10012000FF030008FF030008FF030008FF030008A7
:10013000FF030008FF030008FF030008FF03000897
:1001400000000000000000000000000000000000AF
:10015000FF030008FF030008FF030008FF03000877
:10016000FF030008FF030008FF030008FF03000867
:10017000FF030008FF030008FF0300080000000061
:10018000FF030008FF030008FF030008FF03000847
:10019000FF030008FF030008FF030008FF03000837
:1001A000FF030008FF030008FF0300080000000031
:1001B000FF030008FF030008FF030008FF03000817
:1001C000FF030008FF03000800000000000000001B
:1001D0000000000000000000FF0300080000000015
:1001E000000000000000000000000000000000000F
:1001F0000000000000000000FF030008FF030008EB
:10020000FF030008FF03000800000000FF030008D0
:10021000FF030008FF030008FF030008FF030008B6
:10022000FF03000800000000FF03000800000000BA
:10023000FF030008FF03000800000000FF030008A0
:10024000FF030008FF030008FF030008FF03000886
:10025000FF030008FF030008FF030008FF03000876
:10026000FF030008FF030008FF030008FF03000866
:10027000FF030008FF030008FF0300080000000060
:10028000FF030008FF030008FF030008FF03000846
:1002900000000000FF030008FF030008000000004A
:1002A00000000000FF030008FF030008FF03000830
:1002B000FF030008FF030008FF030008FF03000816
:1002C000FF030008FF030008FF03000800F002F826
:1002D00000F076F814A696E8000CB244B344DA4570
:1002E00001D100F06DF8BAE80F000FA696E83000D3
:1002F000A5EB040504EB0607AAEB0704A7F1010729
:100300004FEA15154FEA3414A4F10104AC4201D3AD
:1003100000F056F813F0010F18BFFB1A43F0010369
:1003200000F001F8DBE7184724AD000054AD0000F1
:100330000A444FF0000C10F8013B13F0070408BF0B
:1003400010F8014B1D1108BF10F8015B641E05D0A9
:1003500010F8016B641E01F8016BF9D113F0080F5E
:100360001EBF10F8014BAD1C0C1B09D16D1E58BFF0
:1003700001F801CBFAD505E014F8016B01F8016B27
:100380006D1EF9D59142D6D370470000704700002A
:100390000023002400250026103A28BF78C1FBD88E
:1003A000520728BF30C148BF0B6070471FB50AF025
:1003B00020FE9DE8030000F0DFF81FBD10B510BD62
:1003C00000F06CF91146FFF7F1FF09F085F800F035
:1003D0008AF903B4FFF7F2FF03BC00F0BBF9000099
:1003E0000A4880470A4880470A480047FEE7FEE778
:1003F000FEE7FEE7FEE7FEE7FEE7FEE7FEE7FEE7D5
:1004000005480649064A074B70470000010B0008E3
:1004100029830008CD020008002A002400300024AF
:10042000002C0024002C002470B5064600F088F84B
:10043000056806F10B0020F00704B4429CBF0020C1
:1004400070BD2B466A68BAB11068A04210D304F19F
:10045000080188423CBF5068586007D351681019A2
:1004600041601168091B016058601460101D70BD67
:1004700013465268002AE7D12146284600F068F862
:100480000028DED170BD10B5203AC0F00B80B1E875
:100490001850A0E81850B1E81850A0E81850203AB9
:1004A000BFF4F5AF5FEA027C24BFB1E81850A0E8C2
:1004B000185044BF18C918C0BDE810405FEA827CDC
:1004C00024BF51F8043B40F8043B08BF7047D207F3
:1004D00028BF31F8023B48BF11F8012B28BF20F894
:1004E000023B48BF00F8012B70474FF0000200B5F7
:1004F000134694469646203922BFA0E80C50A0E847
:100500000C50B1F12001BFF4F7AF090728BFA0E8F4
:100510000C5048BF0CC05DF804EB890028BF40F8C0
:10052000042B08BF704748BF20F8022B11F0804F02
:1005300018BF00F8012B70477047704770470000E4
:10054000004870477001002470477047704770473B
:1005500038B504460A4600206946AFF300800028FB
:1005600008BF38BD02460099204600F075F801200A
:1005700038BD012000F08AB8F8B5AFF30080054619
:1005800000200C460C2000BF0646A819A0420DD939
:10059000324669460020AFF30080070008BF00F034
:1005A00075F80098A04218BF0546C419FFF7C8FFA8
:1005B00005600746F01D20F007004619284600F0A8
:1005C0000AF8B44208BFF8BDA21B31463868BDE83E
:1005D000F84000F041B800210160416070470C20F4
:1005E000704770B50446051FFFF7AAFF0068002C8E
:1005F00014BF446870BD002C18BFAC423CBF2046FD
:100600006468F8D301680A18AA4218BF456003D18C
:100610002A6805461144016028684119A1421CBF9F
:100620006C6070BD6168696021680844286070BDB5
:1006300010B500F00DF8006810BD10B5044600F0CC
:1006400007F8046010BD00000048704768010024EE
:100650000048704768010024034640688C46002823
:1006600018BF88423CBF03464068F8D31868184456
:10067000884207D00CF1030020F00700001D411A4A
:10068000521A0146081D0A60FFF7ABBF10B500F013
:1006900039F8BDE8104000F02FB870477546FFF7F5
:1006A000D3FFAE4605006946534620F00700854655
:1006B00018B020B5FFF7A4FEBDE820404FF00006BB
:1006C0004FF000074FF000084FF0000BAC46ACE8CD
:1006D000C009ACE8C009ACE8C009ACE8C00921F029
:1006E00007018D46704710B50446AFF300802046E1
:1006F000BDE81040FFF76DBE002801D000F02AB819
:100700007047000010B5012805D0002103A000F0BB
:1007100027F8012010BD09A1F8E70000534947520E
:10072000544D454D3A204F7574206F6620686561C1
:1007300070206D656D6F7279000000003A20486589
:100740006170206D656D6F727920636F7272757064
:100750007465640001491820ABBEFEE72600020064
:1007600070B505460C460A2000E06D1C00F011F83B
:1007700035B128780028F8D102E0641C00F009F8AF
:1007800014B120780028F8D1BDE870400A20AFF3FA
:10079000008008B569468DF800000320ABBE08BD97
:1007A00080B540F60000C5F602000122114600F0B7
:1007B00013FF80BD0000000080B540F60000C5F6C4
:1007C00002000121002200F007FF80BD00000000B0
:1007D00080B540F60000C5F602000821012200F0B5
:1007E000FBFE80BD0000000080B540F60000C5F6AD
:1007F00002000821002200F0EFFE80BD0000000092
:1008000080B584B00390002002900190FFF7D4FFE0
:10081000122001A90091062200F0CEF8FFF7C0FFD8
:100820009DF804009DF8051040EA01200399088412
:100830009DF806009DF8071040EA012003994884BE
:100840009DF808009DF8091040EA0120039988846A
:1008500040F20000C2F2004090ED000A0399B1F9A5
:10086000202001EE102AB8EEC11A20EE010A81ED17
:10087000010A90ED000A0399B1F9222001EE102A35
:10088000B8EEC11A20EE010A81ED020A90ED000ACD
:100890000398B0F9241001EE101AB8EEC11A20EE38
:1008A000010A80ED030AFFF787FF00992220022248
:1008B00000F082F8FFF774FF9DF804009DF8051022
:1008C000C00040EA5110039988850398B0F92C00C4
:1008D000B0F5806F06DBFFE70399888DA0F5006017
:1008E0008885FFE70398B0F92C1000EE101AB8EED7
:1008F000C01AB4EE002AB3EE070AA1EE020A80ED98
:10090000070AFFF771FF002001A9082200F054F840
:10091000FFF75EFF9DF804000F2819D1FFE79DF84F
:1009200006009DF8071040EA01200399C8849DF84D
:1009300008009DF8091040EA0120039908859DF8F8
:100940000A009DF80B1040EA012003994885FFE753
:1009500040F20400C2F2004090ED001A0399B1F990
:10096000262000EE102AB8EEC02A91ED0C0A91EE76
:10097000020A81ED040A90ED001A0399B1F92820CA
:1009800000EE102AB8EEC02A91ED0D0A91EE020A8F
:1009900081ED050A90ED001A0398B0F92A1000EED7
:1009A000101AB8EEC02A90ED0E0A91EE020A80ED00
:1009B000060A04B080BD000080B584B08DF80F0039
:1009C00002918DF807209DF80F0040F0800000F0A4
:1009D00017F8FFE79DF8070070B1FFE7552000F01A
:1009E0000FF8029908700298013002909DF80700F4
:1009F00001388DF80700EDE704B080BD000000006D
:100A000080B582B08DF8070000208DF80600694699
:100A10006420086042F23050C2F200400DF107013C
:100A20000DF10602012303F0D7FC9DF8060002B089
:100A300080BD00000000000080B582B08DED010A8D
:100A4000DDED010A42F2CC40C2F200409FED220AE5
:100A500005F01AFFFFE742F2CC40C2F2004090EDF1
:100A60000A0A90ED151AB4EE410AF1EE10FA07DD0C
:100A7000FFE742F2CC41C2F20041486D88621BE0C0
:100A800042F2CC40C2F2004090ED0A0A90ED151AF5
:100A9000B1EE411AB4EE410AF1EE10FA0BDAFFE7BB
:100AA00042F2CC40C2F2004090ED150AB1EE400A8D
:100AB00080ED0A0AFFE7FFE7FFE742F2CC40C2F20F
:100AC000004090ED0A0ABCEEC00A10EE100A04F0D5
:100AD00093FC02B080BD00BF000020420000000077
:100AE000FFE7FEE700000000704700000000000084
:100AF00081B0EFF3108072B60090FFE7FEE70000D0
:100B000044F60C01C5F60201086840F002000860D6
:100B1000FFE744F60400C5F60200006880040028E0
:100B200001D4FFE7F5E7704784B08DED030A9DED32
:100B3000030AB6EE001A20EE010A8DED020A0398B0
:100B4000019001980090009945F68620C5F637700F
:100B5000A0EB61000090009801909DED011A9DEDC1
:100B6000020A20EE012ABFEE080AA2EE010A20EED8
:100B7000410A8DED010A9DED010A04B070470000A5
:100B800080B586B00490049820B9FFE701208DF865
:100B9000170046E3049890F83500022807D0FFE7D5
:100BA00004998020486501208DF8170039E30498E6
:100BB000016801201022C4F202029142029000F06A
:100BC000A380FFE70498016801202822C4F20202F2
:100BD0009142029000F09880FFE70498016801209C
:100BE0004022C4F202029142029000F08D80FFE7A1
:100BF0000498016801205822C4F202029142029036
:100C000000F08280FFE70498016801207022C4F29E
:100C100002029142029077D0FFE704980168012018
:100C20008822C4F20202914202906DD0FFE704983C
:100C300001680120A022C4F202029142029063D016
:100C4000FFE7049801680120B822C4F20202914231
:100C5000029059D0FFE704980168012040F2104249
:100C6000C4F20202914202904ED0FFE7049801685C
:100C7000012040F22842C4F202029142029043D085
:100C8000FFE704980168012040F24042C4F20202EA
:100C90009142029038D0FFE704980168012040F2A9
:100CA0005842C4F20202914202902DD0FFE704980C
:100CB0000168012040F27042C4F2020291420290A7
:100CC00022D0FFE704980168012040F28842C4F274
:100CD00002029142029017D0FFE7049801680120B8
:100CE00040F2A042C4F20202914202900CD0FFE70F
:100CF000049800684FF64831CBF6FD710844B0FA0D
:100D000080F040090290FFE70298C007002800F039
:100D10009D80FFE70499042081F83500049800685D
:100D20001021C4F20201884200F08180FFE704989C
:100D300000682821C4F20201884278D0FFE70498B5
:100D400000684021C4F20201884270D0FFE7049895
:100D500000685821C4F20201884268D0FFE7049875
:100D600000687021C4F20201884260D0FFE7049855
:100D700000688821C4F20201884258D0FFE7049835
:100D80000068A021C4F20201884250D0FFE7049815
:100D90000068B821C4F20201884248D0FFE70498F5
:100DA000006840F21041C4F2020188423FD0FFE7E0
:100DB0000498006840F22841C4F20201884236D00B
:100DC000FFE70498006840F24041C4F20201884203
:100DD0002DD0FFE70498006840F25841C4F20201A8
:100DE000884224D0FFE70498006840F27041C4F2C2
:100DF000020188421BD0FFE70498006840F2884156
:100E0000C4F20201884212D0FFE70498006840F261
:100E1000A041C4F20201884209D0FFE704980068AB
:100E200040F2B841C4F20201884207D1FFE70498BA
:100E30000168086820F00100086006E00498016875
:100E4000086820F001000860FFE7E5E10498016808
:100E5000086820F00E000860049800681021C4F2B1
:100E60000201884200F08180FFE704980068282191
:100E7000C4F20201884278D0FFE70498006840215C
:100E8000C4F20201884270D0FFE70498006858213C
:100E9000C4F20201884268D0FFE70498006870211C
:100EA000C4F20201884260D0FFE7049800688821FC
:100EB000C4F20201884258D0FFE704980068A021DC
:100EC000C4F20201884250D0FFE704980068B821BC
:100ED000C4F20201884248D0FFE70498006840F25B
:100EE0001041C4F2020188423FD0FFE70498006835
:100EF00040F22841C4F20201884236D0FFE704984C
:100F0000006840F24041C4F2020188422DD0FFE760
:100F10000498006840F25841C4F20201884224D08B
:100F2000FFE70498006840F27041C4F20201884271
:100F30001BD0FFE70498006840F28841C4F2020128
:100F4000884212D0FFE70498006840F2A041C4F242
:100F50000201884209D0FFE70498006840F2B841D6
:100F6000C4F20201884207D1FFE7049801680868CB
:100F700020F00100086006E004980168086820F08D
:100F800001000860FFE70498016801201022C4F204
:100F900002029142019000F00381FFE7049801688A
:100FA00001202822C4F202029142019000F0F88050
:100FB000FFE70498016801204022C4F20202914236
:100FC000019000F0ED80FFE70498016801205822AD
:100FD000C4F202029142019000F0E280FFE704981F
:100FE000016801207022C4F202029142019000F0D7
:100FF000D780FFE70498016801208822C4F202022A
:101000009142019000F0CC80FFE704980168012034
:10101000A022C4F202029142019000F0C180FFE7D9
:10102000049801680120B822C4F2020291420190A2
:1010300000F0B680FFE704980168012040F21042FA
:10104000C4F202029142019000F0AA80FFE70498E6
:101050000168012040F22842C4F20202914201904C
:1010600000F09E80FFE704980168012040F24042B2
:10107000C4F202029142019000F09280FFE70498CE
:101080000168012040F25842C4F2020291420190EC
:1010900000F08680FFE704980168012040F270426A
:1010A000C4F20202914201907AD0FFE704980168ED
:1010B000012040F28842C4F20202914201906FD0B6
:1010C000FFE704980168012040F2A042C4F2020246
:1010D0009142019064D0FFE704980168012040F23A
:1010E000B842C4F202029142019059D0FFE704983D
:1010F0000168012045F20842C5F6020291420190C2
:101100004ED0FFE704980168012045F21C42C5F665
:1011100002029142019043D0FFE704980168012048
:1011200045F23042C5F602029142019038D0FFE705
:1011300004980168012045F24442C5F6020291423A
:1011400001902DD0FFE704980168012045F2584234
:10115000C5F602029142019022D0FFE7049801688F
:10116000012045F26C42C5F602029142019017D06F
:10117000FFE704980168012045F28042C5F60202AB
:10118000914201900CD0FFE7049800684AF66C3158
:10119000CAF2FD710844B0FA80F040090190FFE7FF
:1011A0000198C00728B3FFE70498016E086820F48F
:1011B000807008600498806D03900498C06D00F002
:1011C0001F0101208840039948600498416E806E99
:1011D00048600498C06E58B1FFE70498C16E086873
:1011E00020F4807008600498016F406F4860FFE74A
:1011F000FFE70499012081F83500FFE704990020FA
:1012000081F83400FFE70498006D20B1FFE70498EF
:10121000016D8847FFE7FFE7FFE700208DF8170023
:10122000FFE79DF8170006B080BD00000000000039
:101230008FB00E900D9100200C908020C5F600001C
:101240000990FFE70D9800680C99C840002800F04D
:10125000C181FFE70D9800680C9A01219140084078
:101260000B900B98002800F0B181FFE70D984068C3
:1012700000F00300012807D0FFE70D98406800F058
:10128000030002282FD1FFE70E9880680A900C987F
:101290004100032000FA01F10A9888430A900D9852
:1012A000C0680C99490000FA01F10A9808430A90B5
:1012B0000A980E9988600E9840680A900C9901204F
:1012C00000FA01F10A9888430A900D984068C0F32B
:1012D00000100C9900FA01F10A9808430A900A9844
:1012E0000E994860FFE70D98406800F0030003285E
:1012F00018D0FFE70E98C0680A900C9841000320B0
:1013000000FA01F10A9888430A900D9880680C99B8
:10131000490000FA01F10A9808430A900A980E99C8
:10132000C860FFE70D98406800F00300022826D14E
:10133000FFE70E980C996FF0030202EA510108448E
:10134000006A0A900C9800F0070081000F2000FA54
:1013500001F10A9888430A900D9800690C9901F0F0
:101360000701890000FA01F10A9808430A900A98D7
:101370000E990C9B02EA530211440862FFE70E9893
:1013800000680A900C984100032000FA01F10A98C5
:1013900088430A900D98406800F003000C994900BA
:1013A00000FA01F10A9808430A900A980E99086019
:1013B0000D9880798007002800F00781FFE7FFE79C
:1013C00044F2F440C5F60200016841F002010160F8
:1013D000006800F0020008900898FFE70C9820F0E1
:1013E000030040F20841C5F6000140580A900C98ED
:1013F00000F0030081000F2000FA01F10A988843F1
:101400000A900E980021C5F60201884203D1FFE739
:10141000002007906CE00E9840F20041C5F60201F2
:10142000884203D1FFE7012006905EE00E9840F667
:101430000001C5F60201884203D1FFE702200590B2
:1014400050E00E9840F60041C5F60201884203D1F3
:10145000FFE70320049042E00E9841F20001C5F638
:101460000201884203D1FFE70420039034E00E9884
:1014700041F20041C5F60201884203D1FFE7052091
:10148000029026E00E9841F60001C5F6020188425E
:1014900003D1FFE70620019018E00E9841F60041C5
:1014A000C5F60201884203D1FFE7072000900AE059
:1014B0000E9942F20042C5F602020A20914208BF8C
:1014C00009200090FFE700980190FFE70198029043
:1014D000FFE702980390FFE703980490FFE7049862
:1014E0000590FFE705980690FFE706980790FFE74D
:1014F00007980C9901F00301890000FA01F10A989C
:1015000008430A900A980C9921F0030140F208421E
:10151000C5F6000288504FF0B04000680A900B9961
:101520000A9888430A900D988079C006002805D54E
:10153000FFE70B990A9808430A90FFE70A984FF0D3
:10154000B04108600420C5F6000000680A900B99BD
:101550000A9888430A900D9880798006002805D55E
:10156000FFE70B990A9808430A90FFE70A980421BD
:10157000C5F600010860099840680A900B990A981E
:1015800088430A900D9880798007002805D5FFE7E9
:101590000B990A9808430A90FFE70A98099948604E
:1015A000099800680A900B990A9888430A900D9848
:1015B0008079C00728B1FFE70B990A9808430A9081
:1015C000FFE70A9809990860FFE7FFE70C980130E8
:1015D0000C9037E60FB0704782B00190ADF8021062
:1015E0008DF801209DF8010028B1FFE7BDF8020049
:1015F0000199886105E0BDF8020000040199886145
:10160000FFE702B07047000042F2F460C2F200400F
:10161000006870470000000040F25810C2F200401D
:10162000027842F2F461C2F2004108681044086096
:10163000704700000000000080B582B0032000F079
:1016400053F901F075FC44F21842C5F60202116824
:10165000C1F303234BF22801C0F60001CB5C03F079
:101660001F03D84000900098126802F00F02895CB6
:1016700001F01F01C84040F23811C2F20041086079
:10168000009840F23411C2F2004108600F2000F0CF
:1016900013F820B1FFE701208DF8070005E000F006
:1016A000E3F800208DF80700FFE79DF8070002B07F
:1016B00080BD00000000000080B590B00E900E9834
:1016C0000F2810D8FFE70E991C200090002200F090
:1016D000F3F8009800F0E4F80E9840F25C11C2F2C2
:1016E0000041086003E001208DF83F004CE0FFE777
:1016F00044F2E840C5F60200016841F001010160D2
:10170000006800F0010001900198FFE706A802A917
:1017100001F08AFB0B980490049820B9FFE701F0D0
:10172000F3FB059004E001F0EFFB40000590FFE7BC
:1017300005984DF68361C4F21B31A0FB01014FF007
:10174000FF3000EB9140039042F2B850C2F20040EB
:101750004FF08041016040F2E731C1600399416080
:1017600000210161816003F08FFA48B9FFE742F27E
:10177000B850C2F2004003F0DFFA8DF83F0003E0FA
:1017800001208DF83F00FFE79DF83F0010B080BDBD
:1017900010B581B00090009840784EF69851CEF286
:1017A000000108604EF6A051CEF20001086820F05A
:1017B00001000860009840684EF69C52CEF200028C
:1017C0001060DDF800E09EF80C0000079EF80B208A
:1017D00040EA02609EF800209EF808309EF809C09A
:1017E0009EF80A4040EAC4409EF80D4040EA84401A
:1017F0009EF80E4040EA44409EF80FE040EA0E405A
:1018000040EA0C2040EA43001043086001B010BDDC
:10181000BFF35F8F4EF62451CEF20001086820F42A
:10182000803008604EF69451CEF20001002008602E
:10183000704700000000000081B00090009840F068
:1018400001004EF69451CEF2000108604EF624518C
:10185000CEF20001086840F480300860BFF34F8F7B
:10186000BFF36F8F01B0704780B582B0FFE744F2DD
:10187000F440C5F60200016841F002010160006811
:1018800000F0020001900198FFE76FF001000F21C6
:10189000002200F011F802B080BD0000000000003E
:1018A00080B582B0ADF80600BDF9060007F088FAF1
:1018B00002B080BD0000000080B586B0ADF8160013
:1018C0000491039207F094FA0290BDF9160001907A
:1018D00002980499039A04F08BFF0146019807F0DF
:1018E0008FFA06B080BD000080B582B001900198EB
:1018F00007F0AAFA02B080BD80B584B0029044F629
:101900000C00C5F60200006800F004010020B0EBF6
:10191000910F13D1FFE744F60C00C5F602000068F2
:1019200000F007000299884204D0FFE701208DF8FB
:101930000F002EE000208DF80F002AE044F60C0185
:10194000C5F60201086820F00700029A10430860FB
:10195000FFF75AFE0190FFE744F60400C5F60200C7
:10196000006800F400510020B0EB513F0DD1FFE7BB
:10197000FFF74AFE0199401AB0F57A7F04D9FFE7D4
:1019800001208DF80F0004E0E6E700208DF80F003D
:10199000FFE79DF80F0004B080BD000000000000CC
:1019A00080B59AB0189000208DF857008DF8560039
:1019B0001898C0780007002848D5FFE71898406EAF
:1019C000149078B1FFE71498B0F5801F13D0FFE7AB
:1019D0001498B0F5001F16D0FFE71498B0F5401F1B
:1019E00019D019E044F22C41C5F60201086840F410
:1019F0000030086014E018980830022106F030F931
:101A00008DF857000CE018982830022106F010FAE3
:101A10008DF8570004E003E001208DF85700FFE740
:101A20009DF8570060B9FFE744F25041C5F6020146
:101A3000086820F44010189A526E1043086004E0C1
:101A40009DF857008DF85600FFE7FFE7189840789B
:101A5000C007002840D0FFE71898806D1390042835
:101A600020D81399DFE801F0030C141C1D0044F288
:101A70002C41C5F60201086840F40030086015E00A
:101A800018980830002106F0EBF88DF857000DE0AB
:101A900018982830002106F0CBF98DF8570005E0A2
:101AA00004E003E001208DF85700FFE79DF85700A0
:101AB00060B9FFE744F25041C5F60201086820F022
:101AC0000700189A926D1043086004E09DF85700D3
:101AD0008DF85600FFE7FFE7189840784007002888
:101AE00056D5FFE71898D0F8A4001290C8B1FFE7C8
:101AF0001298B0F5001F1DD0FFE71298B0F5800FC7
:101B000020D0FFE71298B0F5C00F23D0FFE712985E
:101B1000B0F5000F1FD0FFE71298B0F5200F1BD0D3
:101B20001BE044F22C41C5F60201086840F4003085
:101B3000086016E018980830002106F091F88DF83A
:101B400057000EE018982830002106F071F98DF842
:101B5000570006E005E004E003E001208DF857009F
:101B6000FFE79DF8570068B9FFE744F25841C5F612
:101B70000201086820F46000189AD2F8A4201043EB
:101B8000086004E09DF857008DF85600FFE7FFE776
:101B9000189840780007002856D5FFE71898D0F825
:101BA000A8001190C8B1FFE71198B0F1807F1DD057
:101BB000FFE71198B0F1007F20D0FFE71198B0F156
:101BC000407F23D0FFE71198B0F1806F1FD0FFE76F
:101BD0001198B0F1A06F1BD01BE044F22C41C5F668
:101BE0000201086840F40030086016E018980830D8
:101BF000002106F035F88DF857000EE018982830CF
:101C0000002106F015F98DF8570006E005E004E024
:101C100003E001208DF85700FFE79DF8570068B9F1
:101C2000FFE744F25841C5F60201086820F0E06081
:101C3000189AD2F8A8201043086004E09DF85700D5
:101C40008DF85600FFE7FFE71898C0788007002856
:101C50003ED5FFE71898C06C1090F0B1FFE71098E0
:101C6000102808D0FFE7109820280DD0FFE7109823
:101C7000302811D012E044F22C41C5F60201086868
:101C800040F4003008600DE018980830022105F09B
:101C9000E7FF8DF8570005E004E003E001208DF830
:101CA0005700FFE79DF8570060B9FFE744F24C4149
:101CB000C5F60201086820F03000189AD26C104373
:101CC000086004E09DF857008DF85600FFE7FFE735
:101CD00018984078C00600284ED5FFE71898C06DC8
:101CE0000F90A0B1FFE70F98B0F5805F18D0FFE725
:101CF0000F98B0F5005F1BD0FFE70F98B0F5405F7D
:101D00001ED0FFE70F98B0F5804F1AD01AE044F2CA
:101D10002C41C5F60201086840F40030086015E067
:101D200018980830002105F09BFF8DF857000DE052
:101D300018982830002106F07BF88DF8570005E050
:101D400004E003E001208DF85700FFE79DF85700FD
:101D500060B9FFE744F25041C5F60201086820F47B
:101D6000E040189AD26D1043086004E09DF85700D7
:101D70008DF85600FFE7FFE71898407880060028A6
:101D80004CD5FFE71898006E0E90C8B1FFE70E988B
:101D9000B0F5803F15D0FFE70E98B0F5003F18D0A2
:101DA000FFE70E98B0F5403F1BD0FFE70E98B0F567
:101DB000802F17D0FFE70E98B0F5A02F13D013E0B7
:101DC00016E018980830012105F04AFF8DF85700F9
:101DD0000EE018982830012106F02AF88DF85700F7
:101DE00006E005E004E003E001208DF85700FFE77E
:101DF0009DF8570060B9FFE744F25041C5F6020173
:101E0000086820F4E020189A126E1043086004E07D
:101E10009DF857008DF85600FFE7FFE718984078C7
:101E2000400600284ED5FFE71898D0F8AC000D907A
:101E3000C8B1FFE70D98B0F1805F15D0FFE70D98AE
:101E4000B0F1005F18D0FFE70D98B0F1405F1BD0F4
:101E5000FFE70D98B0F1804F17D0FFE70D98B0F174
:101E6000A04F13D013E016E018980830012105F0B8
:101E7000F7FE8DF857000EE018982830012105F084
:101E8000D7FF8DF8570006E005E004E003E00120ED
:101E90008DF85700FFE79DF8570068B9FFE744F257
:101EA0005841C5F60201086820F0E040189AD2F8BF
:101EB000AC201043086004E09DF857008DF85600F0
:101EC000FFE7FFE718984078000600283BD5FFE7BA
:101ED0001898C06E0C90D8B1FFE70C98B0F1805FF5
:101EE00005D0FFE70C98B0F1005F09D011E044F293
:101EF0002C41C5F60201086840F4003008600CE08F
:101F000018980830012105F0ABFE8DF8570004E069
:101F100003E001208DF85700FFE79DF8570060B9F6
:101F2000FFE744F25041C5F60201086820F0405036
:101F3000189AD26E1043086004E09DF857008DF89F
:101F40005600FFE7FFE71898C078C007002837D091
:101F5000FFE71898806C0B90032817D80B99DFE8DF
:101F600001F014020B1344F22C41C5F6020108687B
:101F700040F4003008600DE018980830022105F0A8
:101F80006FFE8DF8570005E004E003E001208DF8B6
:101F90005700FFE79DF8570060B9FFE744F24C4156
:101FA000C5F60201086820F00300189A926C1043ED
:101FB000086004E09DF857008DF85600FFE7FFE742
:101FC000189880784006002840F1B480FFE744F676
:101FD0000001C5F60201086840F480700860FFF750
:101FE00013FB1690FFE744F60000C5F602000068F8
:101FF000C00500280CD4FFE7FFF706FB1699401A2E
:10200000652804D3FFE703208DF8570000E0EAE7D6
:102010009DF85700002840F08780FFE744F27040A9
:10202000C5F60200006800F440701899D1F8B010AD
:1020300001F44071884213D0FFE744F27041C5F6C5
:102040000201086820F440701790086840F480305E
:102050000860086820F48030086017980860FFE77F
:102060001898D0F8B000B0F5807F1FD1FFE7FFF7D8
:10207000CBFA1690FFE744F27040C5F60200006804
:1020800000F002010020B0EB510F0ED1FFE7FFF787
:10209000BBFA1699401A41F28931884204D3FFE70E
:1020A00003208DF8570000E0E5E7FFE79DF85700B3
:1020B000A0BBFFE7FFE71898D0F8B00000F440702D
:1020C000B0F5407F13D1FFE744F21041C5F602019D
:1020D000086820F47C50189AD2F8B0204FF6F043EC
:1020E000C0F6FF731A4040EA1210086008E044F29C
:1020F0001041C5F60201086820F47C500860FFE733
:102100001898D0F8B0206FF31F3244F27041C5F632
:102110000201086810430860FFE704E09DF85700DB
:102120008DF85600FFE704E09DF857008DF8560043
:10213000FFE7FFE718980068C007002800F04C8010
:10214000FFE71898806F0A9028282BD80A99DFE8B3
:1021500001F0152929292929292916292929292977
:1021600029291E29292929292929262929292929ED
:1021700029292729292929292929280016E01898F9
:102180000830012105F06CFD8DF857000EE018981D
:102190002830012105F04CFE8DF8570006E005E0DF
:1021A00004E003E001208DF85700FFE79DF8570099
:1021B00060B9FFE744F25441C5F60201086820F017
:1021C0003800189A926F1043086004E09DF8570099
:1021D0008DF85600FFE7FFE7189800788007002881
:1021E00039D5FFE71898406F0990052819D8099943
:1021F000DFE801F003040C14151616E018980830F7
:10220000012105F02DFD8DF857000EE018982830BB
:10221000012105F00DFE8DF8570006E005E004E011
:1022200003E001208DF85700FFE79DF8570060B9E3
:10223000FFE744F25441C5F60201086820F00700A8
:10224000189A526F1043086004E09DF857008DF80B
:102250005600FFE7FFE718980078400700283BD5B5
:10226000FFE71898D0F890000890052819D8089929
:10227000DFE801F003040C14151616E01898083076
:10228000012105F0EDFC8DF857000EE0189828307C
:10229000012105F0CDFD8DF8570006E005E004E0D2
:1022A00003E001208DF85700FFE79DF8570068B95B
:1022B000FFE744F25841C5F60201086820F0070024
:1022C000189AD2F890201043086004E09DF8570057
:1022D0008DF85600FFE7FFE7189800788006002881
:1022E0004ED5FFE71898D0F88C000790C8B1FFE7EB
:1022F0000798B0F1805F15D0FFE70798B0F1005F55
:1023000018D0FFE70798B0F1405F1BD0FFE70798B0
:10231000B0F1804F17D0FFE70798B0F1A04F13D06E
:1023200013E016E018980830002105F099FC8DF8AC
:1023300057000EE018982830022105F079FD8DF83D
:10234000570006E005E004E003E001208DF85700A7
:10235000FFE79DF8570068B9FFE744F25441C5F61E
:102360000201086820F0E040189AD2F88C2010434F
:10237000086004E09DF857008DF85600FFE7FFE77E
:1023800018980078400600284ED5FFE71898D0F836
:1023900098000690C8B1FFE70698B0F5806F15D099
:1023A000FFE70698B0F5006F18D0FFE70698B0F584
:1023B000406F1BD0FFE70698B0F5805F17D0FFE7AE
:1023C0000698B0F5A05F13D013E016E01898083017
:1023D000002105F045FC8DF857000EE018982830D4
:1023E000022105F025FD8DF8570006E005E004E028
:1023F00003E001208DF85700FFE79DF8570068B90A
:10240000FFE744F25841C5F60201086820F4E050A5
:10241000189AD2F898201043086004E09DF85700FD
:102420008DF85600FFE7FFE71898007800060028AF
:102430004ED5FFE71898D0F89C000590C8B1FFE78B
:102440000598B0F5005F15D0FFE70598B0F5804F0F
:1024500018D0FFE70598B0F5C04F1BD0FFE70598EF
:10246000B0F5004F17D0FFE70598B0F5204F13D017
:1024700013E016E018980830002105F0F1FB8DF804
:1024800057000EE018982830022105F0D1FC8DF895
:10249000570006E005E004E003E001208DF8570056
:1024A000FFE79DF8570068B9FFE744F25841C5F6C9
:1024B0000201086820F46040189AD2F89C2010436A
:1024C000086004E09DF857008DF85600FFE7FFE72D
:1024D000189800780007002820D5FFE71898D0F852
:1024E0008000B0F5805F0CD1FFE7189828300221FA
:1024F00005F09EFC20B1FFE701208DF85600FFE7B4
:10250000FFE744F25441C5F60201086820F4405048
:10251000189AD2F8802010430860FFE718980078D6
:10252000C006002820D5FFE71898D0F89400B0F531
:10253000807F0CD1FFE718982830022105F078FC45
:1025400020B1FFE701208DF85600FFE7FFE744F2D6
:102550005841C5F60201086820F44070189AD2F874
:10256000942010430860FFE718988078000700283F
:102570003CD5FFE71898D0F8A000049050B1FFE7D1
:102580000498B0F5803F0DD0FFE70498B0F5003F08
:1025900010D010E018980830002105F061FB8DF88C
:1025A00057000CE018982830022105F041FC8DF806
:1025B000570004E003E001208DF85700FFE79DF885
:1025C000570068B9FFE744F25841C5F602010868B0
:1025D00020F44030189AD2F8A0201043086004E09C
:1025E0009DF857008DF85600FFE7FFE718988078B0
:1025F000400700283FD5FFE71898D0F884000390E3
:10260000B0F5801F0AD0FFE70398B0F5001F0ED089
:10261000FFE70398B0F5401F11D011E044F22C41C0
:10262000C5F60201086840F4003008600CE0189814
:102630002830012105F0FCFB8DF8570004E003E091
:1026400001208DF85700FFE79DF8570068B9FFE7B4
:1026500044F25441C5F60201086820F44010189A6B
:10266000D2F884201043086004E09DF857008DF8EC
:102670005600FFE7FFE718988078C007A8B3FFE788
:102680001898006D029028B1FFE70298B0F5803FDE
:1026900009D010E044F22C41C5F60201086840F46C
:1026A000003008600BE018980830022105F0D8FAD5
:1026B0008DF8570003E001208DF85700FFE79DF8E3
:1026C000570060B9FFE744F24C41C5F602010868C3
:1026D00020F48030189A126D1043086004E09DF8D1
:1026E00057008DF85600FFE7FFE71898C07880067E
:1026F00000280CD5FFE718982830022105F098FB38
:1027000020B1FFE701208DF85600FFE7FFE718989A
:102710008078800700283AD5FFE71898C06F0190AD
:10272000D0B1FFE70198B0F5807F0AD0FFE70198AC
:10273000B0F5007F0ED0FFE70198B0F5407F0AD0DA
:102740000BE044F22C41C5F60201086840F4003069
:10275000086006E005E004E003E001208DF8570082
:10276000FFE79DF8570060B9FFE744F25441C5F612
:102770000201086820F44070189AD26F1043086074
:1027800004E09DF857008DF85600FFE7FFE7189822
:102790008078C00600280CD5FFE744F25041C5F60A
:1027A0000201086820F00040189A126F1043086078
:1027B000FFE718988078800600280CD5FFE744F2E0
:1027C0005041C5F60201086820F08070189A926E98
:1027D00010430860FFE71898C0784006002811D51C
:1027E000FFE7FFE744F21041C5F60201086820F454
:1027F000004008601898D0F8B420086810430860BA
:10280000FFE7FFE71898C078000600280CD5FFE71F
:1028100044F24C41C5F60201086820F04050189A75
:10282000526D10430860FFE7189880780006002872
:102830000DD5FFE744F25441C5F60201086820F4C3
:102840004000189AD2F8882010430860FFE71898D3
:102850000079C00790B1FFE718980830002105F013
:10286000FFF98DF857009DF8570008B9FFE704E01D
:102870009DF857008DF85600FFE7FFE7189800799C
:102880008007002812D5FFE718980830012105F0CD
:10289000E7F98DF857009DF8570008B9FFE704E005
:1028A0009DF857008DF85600FFE7FFE7189800796C
:1028B0004007002812D5FFE718980830022105F0DC
:1028C000CFF98DF857009DF8570008B9FFE704E0ED
:1028D0009DF857008DF85600FFE7FFE7189800793C
:1028E0000007002812D5FFE718982830002105F0CE
:1028F0009FFA8DF857009DF8570008B9FFE704E0EC
:102900009DF857008DF85600FFE7FFE7189800790B
:10291000C006002812D5FFE718982830012105F0DD
:1029200087FA8DF857009DF8570008B9FFE704E0D3
:102930009DF857008DF85600FFE7FFE718980079DB
:102940008006002812D5FFE718982830022105F0EC
:102950006FFA8DF857009DF8570008B9FFE704E0BB
:102960009DF857008DF85600FFE7FFE79DF85600E9
:1029700020B9FFE700208DF8670003E001208DF803
:102980006700FFE79DF867001AB080BD00000000F7
:1029900080B586B004900391049820B9FFE7012028
:1029A0008DF817003CE2039842F20001C5F20021C5
:1029B000096801F00F01884216D9FFE742F20000D2
:1029C000C5F20020016821F00F01039A1143016054
:1029D000006800F00F000399884204D0FFE701204F
:1029E0008DF817001CE2FFE70498007840070028E4
:1029F00019D5FFE70498006944F21841C5F60201B1
:102A0000096801F0700188420CD9FFE744F21841CF
:102A1000C5F60201086820F07000049A126910439C
:102A20000860FFE7FFE7049800780007002819D541
:102A3000FFE70498406944F21C41C5F602010968A9
:102A400001F0700188420CD9FFE744F21C41C5F641
:102A50000201086820F07000049A5269104308606F
:102A6000FFE7FFE704980078C006002819D5FFE7C4
:102A70000498806944F21C41C5F60201096801F41A
:102A8000E06188420CD9FFE744F21C41C5F602011F
:102A9000086820F4E060049A926910430860FFE738
:102AA000FFE7049800788006002819D5FFE704980E
:102AB000C06944F22041C5F60201096801F07001C5
:102AC00088420CD9FFE744F22041C5F602010868AC
:102AD00020F07000049AD26910430860FFE7FFE716
:102AE000049800788007002819D5FFE70498C0688B
:102AF00044F21841C5F60201096801F00F0188424D
:102B00000CD9FFE744F21841C5F60201086820F02D
:102B10000F00049AD26810430860FFE7FFE70498AB
:102B20000078C007002800F08C80FFE744F21841CD
:102B3000C5F60201086820F47060049A9268104398
:102B4000086004984068022811D1FFE744F2004071
:102B5000C5F60200006800F400310020B0EB514FD0
:102B600004D1FFE701208DF8170059E13EE00498F9
:102B70004068032811D1FFE744F20040C5F6020087
:102B8000006800F000710020B0EB516F04D1FFE746
:102B900001208DF8170043E127E0049840680128E0
:102BA00011D1FFE744F20040C5F60200006800F4CE
:102BB00080710020B0EB112F04D1FFE701208DF8C8
:102BC00017002DE110E044F20040C5F60200006855
:102BD00000F004010020B0EB910F04D1FFE70120C9
:102BE0008DF817001CE1FFE7FFE7FFE744F2104113
:102BF000C5F60201086820F00700049A52681043E5
:102C00000860FEF701FD0190FFE744F21040C5F6B1
:102C10000200006800F0380004994968B0EBC10F69
:102C20000ED0FFE7FEF7F0FC0199401A41F289311E
:102C3000884204D3FFE703208DF81700F0E0E4E7B3
:102C4000FFE7049800788007002819D5FFE704986B
:102C5000C06844F21841C5F60201096801F00F018D
:102C600088420CD2FFE744F21841C5F60201086819
:102C700020F00F00049AD26810430860FFE7FFE7D6
:102C8000039842F20001C5F20021096801F00F012A
:102C9000884216D2FFE742F20000C5F20020016828
:102CA00021F00F01039A11430160006800F00F004A
:102CB0000399884204D0FFE701208DF81700AFE0A8
:102CC000FFE7049800784007002819D5FFE704982B
:102CD000006944F21841C5F60201096801F070016B
:102CE00088420CD2FFE744F21841C5F60201086899
:102CF00020F07000049A126910430860FFE7FFE7B4
:102D0000049800780007002819D5FFE70498406967
:102D100044F21C41C5F60201096801F070018842C5
:102D20000CD2FFE744F21C41C5F60201086820F00E
:102D30007000049A526910430860FFE7FFE70498A7
:102D40000078C006002819D5FFE70498806944F28E
:102D50001C41C5F60201096801F4E06188420CD209
:102D6000FFE744F21C41C5F60201086820F4E06068
:102D7000049A926910430860FFE7FFE7049800781F
:102D80008006002819D5FFE70498C06944F2204165
:102D9000C5F60201096801F0700188420CD2FFE714
:102DA00044F22041C5F60201086820F07000049A40
:102DB000D26910430860FFE7FFE700F0B9F844F27A
:102DC0001842C5F602021168C1F303234BF2280131
:102DD000C0F60001CB5C03F01F03D84000900098C0
:102DE000126802F00F02895C01F01F01C84040F236
:102DF0003811C2F200410860009840F23411C2F26A
:102E00000041086040F25C10C2F200400068FEF72A
:102E100053FC8DF80B009DF80B008DF81700FFE7B1
:102E20009DF8170006B080BD82B001900091019915
:102E30003F20086044F21040C5F60200006800F030
:102E400007000199486044F21840C5F60200016885
:102E500001F47061019A9160016801F00F01019A1B
:102E6000D160006800F070000199086144F21C40D4
:102E7000C5F60200016801F07001019A5161006815
:102E800000F4E0600199886144F22040C5F6020038
:102E9000006800F070000199C86142F20000C5F2BC
:102EA0000020006800F00F000099086002B0704731
:102EB00080B582B000F03CF844F21842C5F6020238
:102EC0001168C1F303234BF22801C0F60001CB5C6B
:102ED00003F01F03D84001900198126802F00F021E
:102EE000895C01F01F0120FA01F140F23810C2F2B2
:102EF00000400160019940F23412C2F200421160B8
:102F0000006802B080BD000080B5FFF7D1FF44F239
:102F10001C41C5F602010968C1F302124BF22801F7
:102F2000C0F60001895C01F01F01C84080BD0000AF
:102F30008AB044F21040C5F60200006800F0380084
:102F400001460191182800F269810199DFE811F02A
:102F50001900660166016601660166016601660187
:102F60003A00660166016601660166016601660156
:102F70004000660166016601660166016601660140
:102F8000460044F20040C5F60200006800F020014F
:102F90000020B0EB511F0ED0FFE744F20040C5F611
:102FA00002000068C0F3C10149F20000C0F2D03055
:102FB000C840029005E049F20000C0F2D030029013
:102FC000FFE731E140F60010C0F23D0002902BE136
:102FD00043F20060C0F26E10029025E144F22840F6
:102FE000C5F60200016801F0030108910068C0F312
:102FF0000510079044F22C40C5F60200006800F06E
:1030000001000690069844F23441C5F602010968B1
:1030100089B2C908484300EE100AB8EE400A8DEDA7
:10302000040A0798002800F0F580FFE70898009050
:1030300048B1FFE70098012869D0FFE7009802280F
:1030400000F08980ABE044F20040C5F60200006861
:1030500000F020010020B0EB511F33D0FFE744F215
:103060000040C5F602000068C0F3C10149F200004B
:10307000C0F2D030C84005909DED050AB8EE400A78
:103080009DED071AB8EE411A80EE010A44F2304075
:10309000C5F6020000686FF35F2001EE100AB8EE7B
:1030A000411A9DED042A9FED633A82EE032A31EE28
:1030B000021AB7EE002A31EE021A20EE010A8DED57
:1030C000030A23E09DED070AB8EE401A9FED5B0A64
:1030D00080EE010A44F23040C5F6020000686FF34A
:1030E0005F2001EE100AB8EE411A9DED042A9FED13
:1030F000513A82EE032A31EE021AB7EE002A31EE7F
:10310000021A20EE010A8DED030AFFE76BE09DED48
:10311000070AB8EE401A9FED480A80EE010A44F211
:103120003040C5F6020000686FF35F2001EE100A20
:10313000B8EE411A9DED042A9FED3E3A82EE032A35
:1031400031EE021AB7EE002A31EE021A20EE010A21
:103150008DED030A47E09DED070AB8EE401A9FED9A
:10316000340A80EE010A44F23040C5F602000068DD
:103170006FF35F2001EE100AB8EE411A9DED042AAC
:103180009FED2C3A82EE032A31EE021AB7EE002AA6
:1031900031EE021A20EE010A8DED030A23E09DEDC7
:1031A000070AB8EE401A9FED240A80EE010A44F2A5
:1031B0003040C5F6020000686FF35F2001EE100A90
:1031C000B8EE411A9DED042A9FED1A3A82EE032AC9
:1031D00031EE021AB7EE002A31EE021A20EE010A91
:1031E0008DED030AFFE744F23040C5F602000068A7
:1031F00081B2012000EB512009909DED030A9DED65
:10320000091AB8EE411A80EE010ABCEEC00A8DED33
:10321000020A02E000200290FFE705E040F60010FD
:10322000C0F23D000290FFE702980AB0704700BF6D
:10323000001BB74B000000460024744A0024744C65
:1032400080B58CB00A900A9828B9FFE701208DF864
:103250002F0000F001BD0A980078C007002800F098
:10326000B980FFE744F21040C5F60200006800F0A4
:103270003800069044F22840C5F602000068059028
:10328000069810280AD0FFE7069818281CD1FFE7F7
:10329000059800F00300022816D1FFE744F2004031
:1032A000C5F60200006800F400310020B0EB514F79
:1032B00009D0FFE70A98406828B9FFE701208DF898
:1032C0002F0000F0C9BC84E0FFE70A984068B0F521
:1032D000803F09D1FFE744F20041C5F602010868CA
:1032E00040F48030086032E00A98406868B9FFE72F
:1032F00044F20041C5F60201086820F480300860FD
:10330000086820F48020086020E00A984068B0F542
:10331000A02F0DD1FFE744F20041C5F60201086875
:1033200040F480200860086840F4803008600CE0B9
:1033300044F20041C5F60201086820F480300860BC
:10334000086820F480200860FFE7FFE7FFE7FFE759
:103350000A984068F0B1FFE7FEF756F90990FFE7D9
:1033600044F20040C5F60200006800F4003100207D
:10337000B0EB514F0DD1FFE7FEF746F90999401A1E
:10338000652805D3FFE703208DF82F0000F064BC0B
:10339000E6E71DE0FEF738F90990FFE744F2004048
:1033A000C5F60200006800F400310020B0EB514F78
:1033B0000DD0FFE7FEF728F90999401A652805D3D3
:1033C000FFE703208DF82F0000F046BCE6E7FFE79B
:1033D000FFE7FFE70A9800788007002840F1C580E2
:1033E000FFE744F21040C5F60200006800F0380024
:1033F000049044F22840C5F6020000680390049847
:1034000050B1FFE70498182850D1FFE79DF80C0051
:10341000800700284AD1FFE744F20040C5F60200C9
:10342000006800F004010020B0EB910F09D0FFE725
:103430000A98C06828B9FFE701208DF82F0000F036
:103440000BBC44F20041C5F60201086820F01900E7
:103450000A9AD26810430860FEF7D6F80990FFE791
:1034600044F20040C5F60200006800F004010020AC
:10347000B0EB910F0CD1FFE7FEF7C6F80999401A9F
:10348000032804D3FFE703208DF82F00E4E3E7E7E8
:1034900044F20441C5F60201086820F0FE400A9A91
:1034A000126940EA02600860FFE75DE00A98C068C0
:1034B000A0B3FFE744F20041C5F60201086820F01E
:1034C00019000A9AD26810430860FEF79DF8099027
:1034D000FFE744F20040C5F60200006800F0040176
:1034E0000020B0EB910F0CD1FFE7FEF78DF80999A2
:1034F000401A032804D3FFE703208DF82F00ABE325
:10350000E7E744F20441C5F60201086820F0FE40F6
:103510000A9A126940EA0260086024E044F200411D
:10352000C5F60201086820F001000860FEF76CF89B
:103530000990FFE744F20040C5F60200006800F081
:1035400004010020B0EB910F0CD0FFE7FEF75CF810
:103550000999401A032804D3FFE703208DF82F00B0
:103560007AE3E7E7FFE7FFE7FFE70A980078C0069E
:10357000002840F1A080FFE744F21040C5F60200A9
:10358000006800F03800029044F22840C5F60200BE
:1035900000680190029808280AD0FFE702981828CE
:1035A0002BD1FFE7019800F00300012825D1FFE7A8
:1035B00044F20040C5F60200006800F4807100206B
:1035C000B0EB112F09D0FFE70A98C069802804D01A
:1035D000FFE701208DF82F003EE3FFE744F20C41A6
:1035E000C5F60201086820F07C500A9A126A40EA87
:1035F00002600860FFE7FFE75CE00A98C06998B3E3
:10360000FFE744F20041C5F60201086840F080007F
:103610000860FDF7F9FF0990FFE744F20040C5F6A6
:103620000200006800F480710020B0EB112F0CD173
:10363000FFE7FDF7E9FF0999401A032804D3FFE7E4
:1036400003208DF82F0007E3E7E7FFE744F20C4182
:10365000C5F60201086820F07C500A9A126A40EA16
:1036600002600860FFE724E044F20041C5F6020171
:10367000086820F080000860FDF7C6FF0990FFE7AA
:1036800044F20040C5F60200006800F4807100209A
:10369000B0EB112F0CD0FFE7FDF7B6FF0999401AE8
:1036A000032804D3FFE703208DF82F00D4E2E7E7D7
:1036B000FFE7FFE7FFE70A980078000700284FD5EB
:1036C000FFE70A98406928B3FFE744F27441C5F662
:1036D0000201086840F001000860FDF795FF0990BD
:1036E000FFE744F27440C5F60200006800F00201F2
:1036F0000020B0EB510F0CD1FFE7FDF785FF0999D2
:10370000401A032804D3FFE703208DF82F00A3E21B
:10371000E7E724E044F27441C5F60201086820F0AE
:1037200001000860FDF770FF0990FFE744F2744064
:10373000C5F60200006800F002010020B0EB510F56
:103740000CD0FFE7FDF760FF0999401A032804D366
:10375000FFE703208DF82F007EE2E7E7FFE7FFE7B2
:103760000A980078800600284FD5FFE70A988069FC
:1037700028B3FFE744F20041C5F60201086840F4AF
:1037800080500860FDF740FF0990FFE744F20040D9
:10379000C5F60200006800F400510020B0EB513F74
:1037A0000CD1FFE7FDF730FF0999401A032804D335
:1037B000FFE703208DF82F004EE2E7E724E044F214
:1037C0000041C5F60201086820F480500860FDF74A
:1037D0001BFF0990FFE744F20040C5F602000068B5
:1037E00000F400510020B0EB513F0CD0FFE7FDF793
:1037F0000BFF0999401A032804D3FFE703208DF833
:103800002F0029E2E7E7FFE7FFE70A980078400783
:10381000002840F1A780FFE744F60001C5F6020149
:10382000086840F480700860FDF7EEFE0990FFE73D
:1038300044F60000C5F602000068C00500280CD45C
:10384000FFE7FDF7E1FE0999401A652804D3FFE779
:1038500003208DF82F00FFE1EAE7FFE70A98806870
:10386000012809D1FFE744F27041C5F6020108685A
:1038700040F00100086031E00A98806868B9FFE70D
:1038800044F27041C5F60201086820F001000860AA
:10389000086820F0040008601FE00A988068052886
:1038A0000DD1FFE744F27041C5F60201086840F00F
:1038B00004000860086840F0010008600CE044F271
:1038C0007041C5F60201086820F001000860086830
:1038D00020F004000860FFE7FFE7FFE7FFE70A9832
:1038E0008068F8B1FFE7FDF78FFE0990FFE744F22B
:1038F0007040C5F60200006800F002010020B0EB45
:10390000510F0ED1FFE7FDF77FFE0999401A41F2F2
:103910008931884204D3FFE703208DF82F009BE113
:10392000E5E71EE0FDF770FE0990FFE744F2704006
:10393000C5F60200006800F002010020B0EB510F54
:103940000ED0FFE7FDF760FE0999401A41F2893178
:10395000884204D3FFE703208DF82F007CE1E5E7E0
:10396000FFE7FFE70A98406A002800F07181FFE74F
:1039700044F21040C5F60200006800F03800182834
:1039800000F0E080FFE70A98406A022840F0B48027
:10399000FFE744F20041C5F60201086820F080709C
:1039A0000860FDF731FE0990FFE744F20040C5F6DC
:1039B0000200006800F000710020B0EB516F0CD0E5
:1039C000FFE7FDF721FE0999401A032804D3FFE71A
:1039D00003208DF82F003FE1E7E7FFE744F228419D
:1039E000C5F60201086840F2F33290430A9B9A6AD6
:1039F000DB6A42EA0312104308600A99086BD1F8A7
:103A000034C08B6BCA6B01386FF35F204FF60061D7
:103A1000CFF6FF7101EB4C2189B208440021CFF6AB
:103A2000FF7101EB034101F4FE0108444FF07F41B7
:103A300001EB026101F0FE41084444F23041C5F659
:103A400002010860FFE744F22C41C5F60201009133
:103A5000086820F00100086044F23442C5F6020212
:103A600010684FF6F87398430A9B9B6C40EAC300BA
:103A70001060086820F00C000A9A126C104308606D
:103A8000086820F002000A9A526C10430860086827
:103A900040F480300860086840F40030086008682E
:103AA00040F480200860086840F00100086044F29B
:103AB0000041C5F60201086840F080700860FDF71B
:103AC000A3FD0990FFE744F20040C5F6020000683C
:103AD00000F000710020B0EB516F0CD1FFE7FDF753
:103AE00093FD0999401A032804D3FFE703208DF8BA
:103AF0002F00B1E0E7E724E044F20041C5F60201FF
:103B0000086820F080700860FDF77EFD0990FFE7EF
:103B100044F20040C5F60200006800F00071002089
:103B2000B0EB516F0CD0FFE7FDF76EFD0999401A1D
:103B3000032804D3FFE703208DF82F008CE0E7E78C
:103B4000FFE784E044F22840C5F6020000680890D0
:103B500044F23040C5F60200006807900A98406AB7
:103B6000012837D0FFE7089800F003000A99896A16
:103B700088422FD1FFE7089800F47C710A98C06A48
:103B8000B0EB111F26D1FFE707986FF35F200A996A
:103B9000096B013988421DD1FFE7BDF81C100A9856
:103BA000406B0138B0EB512F14D1FFE7079800F4B8
:103BB000FE010A98806B0138B0EB114F0AD1FFE784
:103BC000079800F0FE410A98C06B0138B0EB116F06
:103BD00004D0FFE701208DF82F003DE044F234408F
:103BE000C5F60200006880B2C00808900A98806C90
:103BF0000899884229D0FFE744F22C41C5F602011A
:103C0000086820F001000860FDF7FEFC0990FFE75E
:103C1000FDF7FAFC0999401A08B9FFE7F8E744F202
:103C20003441C5F6020108684FF6F87290430A9ACB
:103C3000926C40EAC200086044F22C41C5F60201D1
:103C4000086840F001000860FFE7FFE7FFE7FFE7D3
:103C500000208DF82F00FFE79DF82F000CB080BDED
:103C600081B0009001B0704780B588B00790079888
:103C700000680069069007980068406905900698FA
:103C80000599084004900798006880680390002018
:103C90000290079890F881008DF807000798006857
:103CA000303000909DF815000007002810D5FFE780
:103CB0009DF81800000700280AD5FFE7079801685B
:103CC000886940F400608861079800F081FB91E109
:103CD0009DF810004006002815D4FFE79DF810005D
:103CE000800600280FD4FFE79DF810004007002849
:103CF00009D5FFE70798416F88470798016F884704
:103D000001200290FFE79DF810004006002811D422
:103D1000FFE79DF81000C00760B1FFE79DF81000B5
:103D20004007002806D4FFE70798016F8847012065
:103D30000290FFE79DF810008006002812D4FFE7EC
:103D40009DF81000800700280CD5FFE79DF81000B3
:103D50004007002806D4FFE70798416F88470120F5
:103D60000290FFE7029808B1FFE743E19DF81000D9
:103D70000007002840F18980FFE7079801688869FB
:103D800040F00800886107980168886940F01000D9
:103D9000886107980168886940F400608861079825
:103DA0000168086920F008000861079800688068C9
:103DB00010F4404F3AD1FFE7FFE70798B0F86A00E8
:103DC00098B3FFE70798C06810280BD3FFE7079860
:103DD0000068006B0799496E08600799486E0430C7
:103DE00048661BE00798C06808280AD3FFE70098D8
:103DF00000880799496E08800799486E0230486626
:103E00000BE00798006890F830000799496E087039
:103E10000799486E01304866FFE7FFE70799B1F858
:103E20006A000138A1F86A00C7E7FFE7079804F0C5
:103E3000EFF80799012081F881000798D0F88400F5
:103E400020B1FFE70798FFF70BFFD3E09DF80700CD
:103E5000052804D1FFE7079800F046FE14E09DF81E
:103E60000700042804D1FFE7079800F0ADFA0AE044
:103E70009DF80700032804D1FFE7079800F030FE03
:103E800000E0FFE7FFE7FFE7B4E0BDF8100010F443
:103E9000587F00F0AF80FFE79DF810004006002833
:103EA0000ED5FFE70799D1F8840040F00400C1F86F
:103EB000840007980168886940F040008861FFE746
:103EC0009DF81100800700280ED5FFE70799D1F86B
:103ED000840040F00100C1F88400079801688869F7
:103EE00040F400708861FFE79DF81100C00770B1D1
:103EF000FFE70799D1F8840040F00800C1F884007A
:103F000007980168886940F480708861FFE79DF830
:103F10001000800600280ED5FFE70799D1F884002D
:103F200040F08000C1F8840007980168886940F07B
:103F300020008861FFE70798D0F88400002858D057
:103F4000FFE707980168086820F0010008600798FB
:103F50000168086940F26B3290430861039800F4ED
:103F60004040B0F5404F3BD1FFE7079801688868B3
:103F700020F4404088600798C06FB0B1FFE7079811
:103F8000C16F48F22910C0F6000008650798C06F9D
:103F9000FCF7F6FD40B1FFE70799D1F8840040F047
:103FA0004000C1F88400FFE7FFE70798806FB0B1D9
:103FB000FFE70798816F48F22910C0F600000865F6
:103FC0000798806FFCF7DCFD40B1FFE70799D1F857
:103FD000840040F04000C1F88400FFE7FFE707E0FD
:103FE0000799012081F881000798FFF739FEFFE764
:103FF000FFE7FFE708B080BD80B586B00490049865
:1040000020B9FFE701208DF817003AE10498406AD3
:1040100008B9FFE7FFE70499002088620498006868
:1040200043F20001C4F2010188421BD0FFE704986B
:10403000006843F60001C4F20001884212D0FFE795
:104040000498006843F60041C4F20001884209D098
:10405000FFE70498C068102804D3FFE701208DF81B
:1040600017000EE1049804F077F8029004980068B5
:1040700043F20001C4F20101884216D0FFE7049820
:10408000006843F60001C4F2000188420DD0FFE74A
:104090000498006843F60041C4F20001884204D04D
:1040A000FFE7029808281FD8FFE70498006843F24A
:1040B0000001C4F20101884212D0FFE704980068B1
:1040C00043F60001C4F20001884209D0FFE70498DA
:1040D000006843F60041C4F20001884208D1FFE7BE
:1040E0000298112804D3FFE701208DF81700C8E0DB
:1040F000049890F8810040B9FFE70499002081F806
:104100008000049800F0C4F8FFE70499022081F8C9
:10411000810004980168086820F001000860049894
:104120000068806800F4F810039004988069B0F18A
:10413000806F1BD1FFE704984068B0F5800F04D171
:10414000FFE70498806B50B1FFE70498406868B9B6
:10415000FFE70498806BB0F1805F07D1FFE7049818
:104160000168086840F480500860FFE7049880798F
:104170004006002810D5FFE70498C06807280BD335
:10418000FFE704980068006820F48070049A1168C2
:10419000126D1043086006E004980168086820F476
:1041A00080700860FFE7049B1968DA68D869D3F863
:1041B00028C040EA0C00DDF80CC040EA0C00DB6BC4
:1041C000184310438860049A0192506B516A084367
:1041D000916B0843916908431168D2F804C0936851
:1041E000D2F810E040EA0E00D2F814E040EA0E00E7
:1041F000D2F820E040EA0E0040EA0C00D2F84CC0B1
:1042000040EA0C001843936C1843926D1043C86049
:104210000498406898B9FFE7049800688068012115
:1042200061F3CC200499096888600498006880686C
:10423000022161F34A20049909688860FFE7049825
:104240000168086D20F00100086504988079400637
:1042500000280BD5FFE704980068C06820F00040F4
:10426000049A1168526D1043C860FFE7049900205A
:10427000C1F88400049A012182F881108DF817009A
:10428000FFE79DF8170006B080BD000000000000A9
:1042900080B5BEB03D9000203C903B903A90399064
:1042A00038900AA8B821FCF720F93D98006843F639
:1042B0000001C4F20001884240F08180FFE7002045
:1042C0000B904FF480510A9118211491F02115910F
:1042D0000321169102211791189119904FF4007142
:1042E0001A911B904FF4005021900AA8FDF758FB3B
:1042F00018B1FFE7FCF7FCFBFFE7FFE744F2E840FB
:10430000C5F60200016841F480410160006800F4D4
:10431000804009900998FFE7FFE744F2E040C5F6C6
:104320000200016841F004010160006800F004002F
:1043300008900898FFE7FFE744F2E040C5F6020066
:10434000016841F002010160006800F0020007907E
:104350000798FFE70620389002200190399000204E
:1043600005903A90032002903B90052004903C90E9
:1043700040F60000C5F6020038A90391FCF758FF8B
:10438000DDF804C0029A03990498059B4FF4005E7F
:10439000CDF8E0E0CDF8E4C03A933B923C9040F297
:1043A0000040C5F60200FCF743FF0499059A24205B
:1043B0000690FDF781FA0698FDF772FAFFE73EB026
:1043C00080BD00000000000081B0009001B0704787
:1043D00081B0009001B0704780B590B0DDF848C062
:1043E0000E900D910C92ADF82E300E980068203092
:1043F0000A900E980068303009900E98C16B012029
:1044000000EB5110ADF81200FDF7FEF80890BDF872
:104410002E00ADF81600BDF82E00ADF814000E9871
:1044200090F88100012804D0FFE702208DF83F00BA
:1044300050E30D9838B1FFE70C9820B1FFE7BDF8C5
:104440002E0020B9FFE701208DF83F0042E3FFE78F
:104450000E9890F88000012804D1FFE702208DF823
:104460003F0037E30E99012081F88000FFE7FFE766
:104470000E99052081F881000E990020C1F8840072
:104480000C990E9A5166BDF82E100E9AA2F86A1079
:10449000BDF82E100E9AA2F868100D990E9AD165EB
:1044A000BDF82E100E9AA2F86210BDF82E100E9ACA
:1044B000A2F860100E9908670E9948670E98006878
:1044C000C06820F4C0200E990968C8600E98006882
:1044D00043F20001C4F20101884212D0FFE70E98B6
:1044E000006843F60001C4F20001884209D0FFE7EA
:1044F0000E98006843F60041C4F20001884203D1DF
:10450000FFE71020079002E008200790FFE70E98D1
:10451000006840684FF6FF718843BDF82E100844CC
:104520000E99096848600E980168086840F001001B
:1045300008600E984068B0F5800F07D1FFE70E982D
:104540000168086840F400700860FFE70E98C068D2
:104550001028C0F0B580FFE7079880080790FFE7B4
:10456000BDF816100120039039B9FFE7BDF814001B
:10457000002818BF01200390FFE70398C007002818
:1045800000F09D80FFE70E980068406980070028D2
:1045900022D5FFE7BDF81600F0B1FFE7BDF8140023
:1045A000BDF81610079A1144884215D2FFE70E98FD
:1045B0000168C06D006808620E99C86D0430C86556
:1045C0000E99B1F862000138A1F862000E98B0F8B7
:1045D0006200ADF81600FFE70E980068406906908B
:1045E000BDF81400002869D0FFE70E980068406904
:1045F000C007B0B1FFE70E980068006B0E99496ED6
:1046000008600E99486E043048660E99B1F86A0049
:104610000138A1F86A000E98B0F86A00ADF81400ED
:104620004BE0BDF81400BDF8121088421CDAFFE719
:104630009DF819000006002816D5FFE70E980068BF
:10464000006B0E99496E08600E99486E04304866FA
:104650000E99B1F86A000138A1F86A000E98B0F816
:104660006A00ADF8140027E0FCF7CEFF0899401A65
:104670001299884204D3FFE71298013018B9FFE776
:104680001298C0B9FFE70E9803F0C2FC0E99D1F85A
:10469000840040F48070C1F884000E99012081F8F4
:1046A0008100FFE70E99002081F88000FFE70320DA
:1046B0008DF83F000EE2FFE7FFE7FFE750E7DCE1A0
:1046C0000E98C0680828C0F0DE80FFE70798400811
:1046D0000790FFE7BDF816100120029039B9FFE7F7
:1046E000BDF81400002818BF01200290FFE70298CF
:1046F000C007002800F0C680FFE70E9800684069F8
:104700008007002822D5FFE7BDF81600F0B1FFE7CB
:10471000BDF81400BDF81610079A1144884215D24E
:10472000FFE70E98C06D00880A9908800E99C86D41
:104730000230C8650E99B1F862000138A1F8620034
:104740000E98B0F86200ADF81600FFE70E9800680A
:1047500040690690BDF81400002800F09280FFE741
:104760000E9800684069C007A8B1FFE70998008863
:104770000E99496E08800E99486E023048660E996F
:10478000B1F86A000138A1F86A000E98B0F86A0022
:10479000ADF8140074E0BDF81400BDF812108842A2
:1047A00024DAFFE79DF81900000600281ED5FFE770
:1047B000099800880E99496E08800E99486E02305B
:1047C0004866099800880E99496E08800E99486ECF
:1047D000023048660E99B1F86A000238A1F86A0002
:1047E0000E98B0F86A00ADF8140048E0BDF8140067
:1047F00001281BD1FFE79DF819008006002815D578
:10480000FFE7099800880E99496E08800E99486E56
:10481000023048660E99B1F86A000138A1F86A00C2
:104820000E98B0F86A00ADF8140027E0FCF7ECFE33
:104830000899401A1299884204D3FFE71298013070
:1048400018B9FFE71298C0B9FFE70E9803F0E0FB34
:104850000E99D1F8840040F48070C1F884000E995C
:10486000012081F88100FFE70E99002081F8800087
:10487000FFE703208DF83F002CE1FFE7FFE7FFE7AC
:10488000FFE727E7F8E0FFE7BDF8161001200190E9
:1048900039B9FFE7BDF81400002818BF01200190C6
:1048A000FFE70198C007002800F0E580FFE70E98B9
:1048B000006840698007002823D5FFE7BDF816008F
:1048C000F8B1FFE7BDF81400BDF81610079A1144BF
:1048D000884216D2FFE70E980168C06D007881F813
:1048E00020000E99C86D0130C8650E99B1F86200BC
:1048F0000138A1F862000E98B0F86200ADF8160019
:10490000FFE70E98006840690690BDF81400002883
:1049100000F0B080FFE70E9800684069C007B8B1AA
:10492000FFE70E98006890F830000E99496E087005
:104930000E99486E013048660E99B1F86A00013848
:10494000A1F86A000E98B0F86A00ADF8140090E083
:10495000BDF81400BDF8121088423EDAFFE79DF85A
:1049600019000006002838D5FFE70E98006890F877
:1049700030000E99496E08700E99486E01304866F5
:104980000E98006890F830000E99496E08700E99E4
:10499000486E013048660E98006890F830000E9915
:1049A000496E08700E99486E013048660E9800688E
:1049B00090F830000E99496E08700E99486E0130DB
:1049C00048660E99B1F86A000438A1F86A000E989A
:1049D000B0F86A00ADF814004AE0BDF814000328EE
:1049E0001DD8FFE79DF8190010F0600F17D0FFE702
:1049F0000E98006890F830000E99496E08700E9974
:104A0000486E013048660E99B1F86A000138A1F885
:104A10006A000E98B0F86A00ADF8140027E0FCF7C1
:104A2000F3FD0899401A1299884204D3FFE71298BF
:104A3000013018B9FFE71298C0B9FFE70E9803F0EC
:104A4000E7FA0E99D1F8840040F48070C1F8840030
:104A50000E99012081F88100FFE70E99002081F86E
:104A60008000FFE703208DF83F0033E0FFE7FFE71A
:104A7000FFE7FFE708E7FFE7FFE70E98129B0899BB
:104A80006A4611600821002203F07EFB40B1FFE777
:104A90000E99D1F8840040F02000C1F88400FFE7AF
:104AA0000E9803F0B5FA0E99012081F88100FFE716
:104AB0000E99002081F88000FFE70E98D0F884005E
:104AC00020B1FFE701208DF83F0003E000208DF8C2
:104AD0003F00FFE79DF83F0010B080BD00000000E0
:104AE00081B0009001B0704781B0009001B0704774
:104AF00081B0009001B0704781B0009001B0704764
:104B000081B0009001B0704785B003900291FFE73B
:104B1000039890F83C00012804D1FFE702208DF8AB
:104B20001300ABE00399012081F83C00FFE7FFE7A9
:104B30000399022081F83D000398006840680190C5
:104B40000398006880680090039800680021C4F210
:104B50000101884209D0FFE70398006840F2004154
:104B6000C4F2010188420AD1FFE7019820F47000E5
:104B7000019002984168019808430190FFE701986D
:104B800020F070000190029801680198084301909C
:104B90000198039909684860039800680021C4F2ED
:104BA000010188424ED0FFE703980068B0F1804FC2
:104BB00048D0FFE70398006840F20041C4F20001CA
:104BC00088423FD0FFE70398006840F60001C4F236
:104BD0000001884236D0FFE70398006840F60041A4
:104BE000C4F2000188422DD0FFE70398006840F22C
:104BF0000041C4F20101884224D0FFE70398006815
:104C000041F60001C4F2000188421BD0FFE703987F
:104C1000006844F20001C4F20101884212D0FFE7AB
:104C2000039800684EF20001C4F20001884209D0E6
:104C3000FFE7039800684EF20041C4F20001884289
:104C40000ED1FFE7009820F0800000900298816864
:104C50000098084300900098039909688860FFE76E
:104C60000399012081F83D00FFE70399002081F8B6
:104C70003C00FFE700208DF81300FFE79DF81300CC
:104C800005B070470000000080B582B00090009829
:104C900020B9FFE701208DF8070045E0009890F863
:104CA0003D0040B9FFE70099002081F83C000098E2
:104CB00000F03EF8FFE70099022081F83D000099DE
:104CC00051F8040B03F0ECFB0099012081F8480037
:104CD000FFE70099012081F83E00009981F83F002C
:104CE000009981F84000009981F84100009981F80D
:104CF0004200009981F84300FFE7FFE70099012097
:104D000081F84400009981F84500009981F8460037
:104D1000009981F84700FFE70099012081F83D00E4
:104D200000208DF80700FFE79DF8070002B080BD66
:104D300081B0009001B0704783B00190019890F865
:104D40003D00012804D0FFE701208DF80B0083E02F
:104D50000199022081F83D0001980168C86840F07F
:104D60000100C860019800680021C4F20101884276
:104D70004ED0FFE701980068B0F1804F48D0FFE7C0
:104D80000198006840F20041C4F2000188423FD01F
:104D9000FFE70198006840F60001C4F20001884274
:104DA00036D0FFE70198006840F60041C4F20001E8
:104DB00088422DD0FFE70198006840F20041C4F21C
:104DC0000101884224D0FFE70198006841F6000104
:104DD000C4F2000188421BD0FFE70198006844F24A
:104DE0000001C4F20101884212D0FFE70198006877
:104DF0004EF20001C4F20001884209D0FFE7019899
:104E000000684EF20041C4F20001884219D1FFE768
:104E10000198006880680721C0F2010108400090F5
:104E2000009806280CD0FFE70098B0F5803F07D027
:104E3000FFE701980168086840F001000860FFE79B
:104E400006E001980168086840F001000860FFE78B
:104E500000208DF80B00FFE79DF80B0003B07047B2
:104E600081B0009001B0704780B584B00390039882
:104E70000068C068029003980068006901909DF87E
:104E800004008007002824D5FFE79DF8080080076C
:104E900000281DD5FFE7039801686FF00200086144
:104EA000039901200877039800688069800720B182
:104EB000FFE70398FFF7D4FF06E0039800F030F90E
:104EC000039800F07DFAFFE7039900200877FFE7D9
:104ED000FFE79DF804004007002825D5FFE79DF86F
:104EE0000800400700281ED5FFE7039801686FF00F
:104EF000040008610399022008770398006880691C
:104F000010F4407F04D0FFE70398FFF7A9FF06E005
:104F1000039800F005F9039800F052FAFFE70399AF
:104F200000200877FFE7FFE79DF80400000700284E
:104F300024D5FFE79DF80800000700281DD5FFE7EE
:104F4000039801686FF0080008610399042008774E
:104F500003980068C069800720B1FFE70398FFF756
:104F60007FFF06E0039800F0DBF8039800F028FAD2
:104F7000FFE7039900200877FFE7FFE79DF80400AB
:104F8000C006002825D5FFE79DF80800C0060028C8
:104F90001ED5FFE7039801686FF0100008610399C0
:104FA0000820087703980068C06910F4407F04D097
:104FB000FFE70398FFF754FF06E0039800F0B0F80E
:104FC000039800F0FDF9FFE7039900200877FFE759
:104FD000FFE79DF80400C00778B1FFE79DF80800DF
:104FE000C00748B1FFE7039801686FF0010008614E
:104FF000039800F0E9F9FFE7FFE7019800F080006F
:10500000802806D0FFE79DF805008006002810D50F
:10501000FFE79DF808000006002809D5FFE7039880
:1050200001686FF4025008610398FFF765FDFFE720
:10503000FFE79DF80500C00780B1FFE79DF8080075
:105040000006002809D5FFE7039801686FF4807017
:1050500008610398FFF74CFDFFE7FFE79DF80400A8
:105060004006002810D5FFE79DF8080040060028FC
:1050700009D5FFE7039801686FF0400008610398C5
:1050800000F0B2F9FFE7FFE79DF804008006002872
:1050900010D5FFE79DF808008006002809D5FFE736
:1050A000039801686FF0200008610398FFF728FD5E
:1050B000FFE7FFE704B080BD80B588B0079000200F
:1050C000069005900490039002900798006840F2C3
:1050D0000041C4F2000188421ED1FFE7FFE744F21D
:1050E000E040C5F60200016841F00201016000687D
:1050F00000F0020001900198FFE702200290039067
:10510000002104910591069040F20040C5F602008E
:1051100002A9FCF78DF8FFE708B080BD0000000091
:1051200081B0009001B0704780B586B004900391C3
:10513000029200208DF80700FFE7049890F83C00E9
:10514000012804D1FFE702208DF81700C0E0049980
:10515000012081F83C00FFE7FFE702980090142847
:1051600000F2A7800099DFE801F00BA4A4A424A416
:10517000A4A43EA4A4A457A4A4A471A4A4A48A0093
:1051800004980068039903F06FFA0498016888692D
:1051900040F00800886104980168886920F00400E4
:1051A00088610398026904980168886910438861DE
:1051B00083E004980068039903F0FEFA04980168FC
:1051C000886940F40060886104980168886920F467
:1051D000806088610398026904980168886940EAE0
:1051E0000220886169E004980068039903F09CFB41
:1051F00004980168C86940F00800C8610498016813
:10520000C86920F00400C861039802690498016825
:10521000C8691043C86150E004980068039903F01E
:105220003BFC04980168C86940F40060C8610498B8
:105230000168C86920F48060C86103980269049815
:105240000168C86940EA0220C86136E00498006835
:10525000039903F091FC04980168486D40F0080040
:10526000486504980168486D20F00400486503987B
:10527000026904980168486D104348651DE0049870
:105280000068039903F0E0FC04980168486D40F45D
:105290000060486504980168486D20F480604865A6
:1052A0000398026904980168486D40EA0220486545
:1052B00003E001208DF80700FFE7FFE704990020D5
:1052C00081F83C00FFE79DF807008DF81700FFE725
:1052D0009DF8170006B080BD80B582B000900098A0
:1052E00020B9FFE701208DF8070045E0009890F80D
:1052F0003D0040B9FFE70099002081F83C0000988C
:1053000000F03EF8FFE70099022081F83D00009987
:1053100051F8040B03F0C4F80099012081F848000B
:10532000FFE70099012081F83E00009981F83F00D5
:10533000009981F84000009981F84100009981F8B6
:105340004200009981F84300FFE7FFE70099012040
:1053500081F84400009981F84500009981F84600E1
:10536000009981F84700FFE70099012081F83D008E
:1053700000208DF80700FFE79DF8070002B080BD10
:1053800082B001900198006840F20041C4F200012F
:10539000884210D1FFE7FFE744F2E840C5F602007B
:1053A000016841F002010160006800F00200009015
:1053B0000098FFE7FFE702B0704700000000000020
:1053C00081B0009001B0704780B582B00190019823
:1053D0000068B0F1804F03D1FFE7FCF71DF9FFE74C
:1053E00002B080BD0000000081B0009001B07047A5
:1053F000FFE7FEE70000000080B582B0ADF80600D0
:10540000BDF8062042F20460C2F200400C2103F015
:1054100087FC02B080BD000096B003A9009140F265
:10542000D020C2F200404268159282681492C2688D
:1054300013920269129291ED100A91ED0F1A21EE6A
:10544000013AA0EE003AB8EE002AB7EE000AB0EE3C
:10545000401AA3EE021A81ED0E1A91ED113A91ED68
:10546000104A91ED121A91ED0F5A21EE051A93EEA2
:10547000041A31EE011A81ED0D1A91ED113A91EDF8
:105480000F4A91ED121A91ED105A21EE051AA3EE72
:10549000041A31EE011A81ED0C1A91ED113A91EDD9
:1054A000104A91ED121A91ED0F5A21EE051AA3EE52
:1054B000041A31EE011A81ED0B1A91ED111A91EDDA
:1054C0000F3A23EE033AA1EE013AB0EE401AA3EEF2
:1054D000021A81ED0A1A91ED103A91ED0F4A91ED01
:1054E000121A91ED115A21EE051A93EE041A31EEBB
:1054F000011A81ED091A91ED113A91ED0F4A91EDE2
:10550000121A91ED105A21EE051A93EE041A31EE9B
:10551000011A81ED081A91ED103A91ED0F4A91EDC3
:10552000121A91ED115A21EE051AA3EE041A31EE6A
:10553000011A81ED071A91ED113A91ED101A21EE41
:10554000011AA3EE031AA1EE020A81ED060A40F247
:105550006422C2F20042536B0893936B0793D36BA0
:10556000069391ED0E1A91ED052A91ED0D0A91ED3C
:10557000043A20EE030AA1EE020A91ED0C1A91ED15
:10558000032AA1EE020A81ED020A91ED0B1A91EDB8
:10559000052A91ED0A0A91ED043A20EE030AA1EEE4
:1055A000020A91ED091A91ED032AA1EE020A81ED9A
:1055B000010A91ED081A91ED052A91ED070A91ED86
:1055C000043A20EE030AA1EE020A91ED061A91EDCB
:1055D000032AA1EE020A81ED000A91ED000A9FED77
:1055E000681A30EE010A81ED000A059911640499E8
:1055F00051640399916490ED620A0020B5EE400A6F
:10560000F1EE10FA019015DDFFE740F2D020C2F272
:10561000004090ED621AB7EE000A80EE010A9FED9D
:10562000591A0020B4EE410AF1EE10FAB8BF012079
:105630000190FFE7019800F001008DF80B009DF844
:105640000B00C00700285AD0FFE740F26420C2F2E6
:10565000004090ED130A9FED4D1A20EE010A80EDF7
:10566000130A90ED140A20EE010A80ED140A90ED61
:10567000150A20EE010A80ED150A90ED130AB0EE2E
:10568000C00A9FED411AB4EE410AF1EE10FA07DAB2
:10569000FFE740F26421C2F200410020C864FFE746
:1056A00040F26420C2F2004090ED140AB0EEC00A4D
:1056B0009FED351AB4EE410AF1EE10FA07DAFFE772
:1056C00040F26421C2F2004100200865FFE740F289
:1056D0006420C2F2004090ED150AB0EEC00A9FEDC2
:1056E0002A1AB4EE410AF1EE10FA07DAFFE740F2A7
:1056F0006421C2F2004100204865FFE71FE00099E5
:1057000091ED021A40F26420C2F2004090ED130ABB
:105710009FED1D2AA1EE020A80ED130A91ED011AF8
:1057200090ED140AA1EE020A80ED140A91ED001A20
:1057300090ED150AA1EE020A80ED150AFFE740F28E
:105740006420C2F2004090ED131A90ED160A9FED0E
:105750000E2AA1EE020A80ED160A90ED141A90EDC1
:10576000170AA1EE020A80ED170A90ED151A90EDC6
:10577000180AA1EE020A80ED180A16B0704700BFA1
:10578000EE7C1BC19A99993E6F12833A3333733F73
:1057900080B588B007900020069000F0EDF8FFE794
:1057A00003F042FF069040F2C810C2F2004002909F
:1057B000FBF726F8029890ED010A40F20420C2F2AD
:1057C0000040019000F060FE0198029940F26422CE
:1057D000C2F20042059282ED0D0A3432039291ED3D
:1057E000020A203000F050FE01980299059A82EDDD
:1057F0000E0A91ED030A403000F046FE0298039A2B
:10580000059B83ED0F0AD0F810C0194641F828CF48
:10581000D0F814C0C3F82CC08069186340F2D020BF
:10582000C2F2004004909FED4E0A01F0B9FD0499C8
:105830000598D1F89821D1F89C31D1F8A0C1C0F8D1
:1058400024C00362C26191ED680A9FED461A20EE02
:10585000010A80ED000A91ED660A20EE010A80ED52
:10586000010A91ED670A20EE010A80ED030A90ED2E
:10587000010A90ED191A30EE410A9FED3B1AB4EE81
:10588000410AF1EE10FA0ADAFFE740F26421C2F2AF
:105890000041B1F868000130A1F868001CE040F256
:1058A0006420C2F2004090ED010A90ED191A30EE2A
:1058B000410A9FED2E1AB4EE410AF1EE10FA0ADD0C
:1058C000FFE740F26421C2F20041B1F868000138FC
:1058D000A1F86800FFE7FFE740F26420C2F2004051
:1058E00000904168416690ED010AB0F9681001EE40
:1058F000101AB8EEC11A9FED1E2AA1EE020A80ED21
:10590000020A90ED0A0A9FED171A20EE010A80EDB7
:10591000040A90ED0C0A20EE010A80ED050A90EDD4
:105920000B0A20EE010A80ED060AFFF775FD0698C6
:105930004CF6CD41CCF6CC414843B0F1333F09D8C9
:10594000FFE740F2C810C2F2004090ED070AFBF7F3
:1059500073F8FFE706A8012103F056FE20E700BF19
:105960006F12833AE12E6542000034C300003443D5
:105970000000B4430000000080B582B040F2042073
:10598000C2F20040009040F20801C2F200410191D1
:1059900000F066FD00980199203000F061FD00984C
:1059A0000199403000F05CFD42F2CC40C2F2004070
:1059B00040F23C12C2F20042012101F005F940F22E
:1059C000D020C2F2004040F21401C2F2004140F285
:1059D000A402C2F20042B2EE040ADFED0B0A9FED10
:1059E0000B1A01F05DFC40F26421C2F2004100207C
:1059F00088644864086448650865C8640866C865C2
:105A0000886502B080BD00BF6F12833A00247449DC
:105A100080B584B003908DF80B108DF80A208DF8B6
:105A200009300399042008800399082048809DF8D4
:105A30000B0020B1FFE79DF8090028B9FFE70399A3
:105A4000FE2081F8C400FFE79DF80B000399087160
:105A50009DF80A00039948719DF80900039988711F
:105A6000039900200862039901F1180001F1200355
:105A700001220192114603F064FA039800889DF810
:105A800009104843FAF7D0FC0399C8600399C86825
:105A900009889DF809205143FAF727FD03980088EB
:105AA0009DF80B104843FAF7BFFC0399C1F8C800F2
:105AB0000399D1F8C80009889DF80B205143FAF7E3
:105AC00014FD019A039B03F12C001979D3F8C83017
:105AD00003F037FA039800889DF80B104843FAF753
