:020000040800F2
:1000000078700020290300086F480008F7380008BE
:100010006D480008150A0008095E0008000000008D
:10002000000000000000000000000000690200085D
:10003000610D000800000000C50200084D540008D2
:100040004303000843030008430300084303000878
:100050004303000843030008430300084303000868
:100060004303000843030008430300084303000858
:10007000B10C0008430300084303000843030008D1
:100080004303000843030008430300084303000838
:100090006D0A0008790A00084303000843030008BA
:1000A0004303000843030008430300084303000818
:1000B0004303000843030008430300084303000808
:1000C00043030008430300084303000843030008F8
:1000D000430300084303000843030008E55D0008EC
:1000E00043030008430300084303000843030008D8
:1000F00043030008430300084303000843030008C8
:1001000043030008430300084303000843030008B7
:1001100043030008430300080D550008430300088B
:100120004303000843030008430300084303000897
:100130004303000843030008430300084303000887
:10014000E10A0008ED0A0008430300084303000821
:10015000430300084303000843030008FD5D000853
:100160004303000843030008430300084303000857
:100170004303000843030008430300080000000095
:10018000430300084303000800F002F800F05CF8A5
:100190000AA090E8000C82448344AAF10107DA45E2
:1001A00001D100F051F8AFF2090EBAE80F0013F0D8
:1001B000010F18BFFB1A43F001031847C492000057
:1001C000E49200000A444FF0000C10F8013B13F0D9
:1001D000070408BF10F8014B1D1108BF10F8015BA0
:1001E000641E05D010F8016B641E01F8016BF9D193
:1001F00013F0080F1EBF10F8014BAD1C0C1B09D1EA
:100200006D1E58BF01F801CBFAD505E014F8016B5B
:1002100001F8016B6D1EF9D59142D6D370470000ED
:100220000023002400250026103A28BF78C1FBD8FF
:10023000520728BF30C148BF0B6070471FB509F097
:1002400054F81FBD10B510BD00F0E4F91146FFF7DA
:10025000F5FF06F0D9FB00F002FA03B4FFF7F2FF56
:1002600003BC00F005FA00002C4B19680868B0E8E0
:10027000F04F80F30988BFF36F8F4FF0000080F3D9
:10028000118870470000000008480068006880F38B
:1002900008884FF0000080F3148862B661B6BFF39F
:1002A0004F8FBFF36F8F00DF00BF00BF08ED00E08E
:1002B000DFF80C00016841F470010160704700BF75
:1002C00088ED00E0EFF30980BFF36F8F134B1A68DE
:1002D0001EF0100F08BF20ED108A20E9F04F1060CB
:1002E00009B44FF0500080F31188BFF34F8FBFF374
:1002F0006F8F07F071FD4FF0000080F3118809BC8B
:1003000019680868B0E8F04F1EF0100F08BFB0EC95
:10031000108A80F30988BFF36F8F70473000002088
:10032000EFF30580704700000948804709480047FF
:10033000FEE7FEE7FEE7FEE7FEE7FEE7FEE7FEE795
:10034000FEE7FEE704480549054A064B70470000F2
:10035000FD54000889010008786A002078700020A8
:10036000786C0020786C002053EA020C00F0698061
:100370002DE9F04B4FF00006002B1FBFB3FA83F5B9
:1003800003FA05F424FA05F65E4012BF1643B2FAEA
:1003900082F502FA05F4C5F120051EBF22FA05FC1C
:1003A00044EA0C04203556EA044C4FEA144418BFC2
:1003B000641C4FF000084FF00009904271EB030CF1
:1003C00039D3002919BFB1FA81F701FA07F6B0FA5B
:1003D00080F700FA07F6C7F120071EBF20FA07FCD6
:1003E00046EA0C062037B6FBF4FCA7EB0507103FE6
:1003F00007F01F0BCBF120060CFA0BFB2CFA06F6CC
:1004000044BFB3460026202FA4BF5E464FF0000B2A
:100410005BEA060C08BF4FF0010B19EB0B09ABFBB5
:10042000027C48EB0608C01B06FB02CC0BFB03CC8E
:1004300071EB0C01C1E70B46024641464846BDE858
:10044000F08B13B54FF000004FF00001AFF30080C8
:10045000BDE81C407047032A40F2308010F0030CC6
:1004600000F0158011F8013BBCF1020F624498BF07
:1004700011F801CB00F8013B38BF11F8013BA2F1A4
:10048000040298BF00F801CB38BF00F8013B11F01F
:10049000030300F06280083AC0F0088051F8043B82
:1004A000083A51F804CBA0E80810F5E7121D5CBF2C
:1004B00051F8043B40F8043BAFF30080D20724BF5F
:1004C00011F8013B11F801CB48BF11F8012B24BFF3
:1004D00000F8013B00F801CB48BF00F8012B704742
:1004E00002F0FF0343EA032242EA024200F069B845
:1004F0004FF0000200B5134694469646203922BFBD
:10050000A0E80C50A0E80C50B1F12001BFF4F7AF07
:10051000090728BFA0E80C5048BF0CC05DF804EBE9
:10052000890028BF40F8042B08BF704748BF20F857
:10053000022B11F0804F18BF00F8012B7047704755
:100540007047704710B500F05DF8006810BD10B539
:10055000044600F057F8046010BD10B5203AC0F012
:100560000B80B1E81850203AA0E81850B1E81850B4
:10057000A0E81850BFF4F5AF5FEA027C24BFB1E8F1
:100580001850A0E8185044BF18C918C0BDE8104062
:100590005FEA827C24BF51F8043B40F8043B08BF6B
:1005A0007047D20728BF31F8023B48BF11F8012B32
:1005B00028BF20F8023B48BF00F8012B70474FF0DE
:1005C00000020429C0F0128010F0030C3FF492AF37
:1005D000CCF1040CBCF1020F18BF00F8012BA8BF2E
:1005E00020F8022BA1EB0C01FFF784BF5FEAC17C6E
:1005F00024BF00F8012B00F8012B48BF00F8012BA5
:100600007047000000487047186A00200048704793
:10061000186A00207546FFF7F9FFAE4605006946E7
:10062000534620F00700854618B020B5FFF78AFE34
:10063000BDE820404FF000064FF000074FF00008E3
:100640004FF0000B21F00701AC46ACE8C009ACE864
:10065000C009ACE8C009ACE8C0098D46704710B5C8
:100660000446AFF300802046BDE81040FFF7F5BD1B
:1006700001491820ABBEFEE72600020070470000CB
:1006800010B52DED048BB0EE408AF0EE608A9FED40
:10069000150B9FED129B53EC102B51EC180B08F02F
:1006A0008FFB07D253EC192B51EC180B08F07CF997
:1006B00041EC180B53EC192B51EC180B08F028FAED
:1006C0009FED0A1B53EC112B08F0B6FB08F03AF92A
:1006D000BDEC048B00EE100A10BD0000000000000D
:1006E00000807640000000000000000000000000D4
:1006F00000FFBF4010B50021084600F0FFF80120C0
:1007000001F006F90021084600F0F8F81E2801D093
:10071000012010BD0022B6217E2000F053F93220C6
:1007200001F0F6F8002204217D2000F04BF90520AD
:1007300001F0EEF800221146412000F043F90022BA
:100740000A21402000F03EF90A2001F0E1F80020E3
:1007500010BD00007CB51C4D044600221021284627
:1007600001F0E0F90A23012218A1194802F06AF900
:100770000A2307226946164802F0BAF8012210211E
:10078000284601F0CFF9BDF90110BDF9030000EED4
:10079000101ABDF90520F8EEC00A9FED0E0A60EEB2
:1007A000800AC4ED000A00EE900AF8EEE00A60EE5E
:1007B000800AC4ED010A00EE902AF8EEE00A20EE6D
:1007C000800A84ED020A7CBD000002409200000015
:1007D000E80200209BFFBF3830B500242DED028BCE
:1007E00083B09FED0E8A4FF47A75684600F01CF8CE
:1007F0009DED020A012030EE088A01F089F8641CA0
:10080000AC42F2DB07489FED060AC8EE000AC0EDD5
:10081000080A03B0BDEC028B30BD000000000000F0
:1008200000007A44DC6900207CB51C4D044600229F
:100830000121284601F076F90A23012218A119485E
:1008400002F000F90A2306226946164802F050F821
:1008500001221146284601F065F9BDF90010BDF9E5
:10086000020000EE101ABDF90420F8EEC00A9FED58
:100870000E0A60EE800AC4ED000A00EE900AF8EE5F
:10088000E00A60EE800AC4ED010A00EE902AF8EE5C
:10089000E00A20EE800A84ED020A7CBD00040240DA
:1008A00082000000E8020020D6FF793D10B5FFF776
:1008B00021FF28B90121002000F020F80F2801D0E5
:1008C000012010BD0122B621142000F07BF8142075
:1008D00001F01EF801220021112000F073F801221E
:1008E00000210F2000F06EF801220221102000F0FC
:1008F00069F80A2001F00CF8002010BD2DE9F04144
:10090000124E134F0C0005464FF0000217D0012184
:100910004FEA070001F006F945F0800004F090FB73
:10092000FF2004F08DFB05464FF0010254B1012178
:100930004FEA070001F0F6F82846BDE8F0811021E3
:100940003046E7E710213046F4E70000000002409F
:10095000000402407CB5194E6D460224002210218D
:10096000304601F0DFF8A2208DF804000A230122AE
:1009700001A9134802F066F80A23224629461048C6
:1009800001F0B6FF01221021304601F0CBF89DF8AE
:1009900001009DF80010C00040EA5110B0F5806FD2
:1009A00001D3A0F5006000EE100AB4EE001AF8EED4
:1009B000C00AB3EE070A00EE810A7CBD00000240C7
:1009C000E80200202DE9F0411400104E104F884637
:1009D00005464FF0000213D00121384601F0A2F87D
:1009E00005F07F0004F02CFB404604F029FB4FF09B
:1009F000010244B101213846BDE8F04101F092B84E
:100A000010213046EAE710213046F5E700000240A9
:100A100000040240FEE7000010B58AB00020012467
:100A2000CDE906400590049044F2C000009044F2E5
:100A3000A00001904FF482400290089444F2E0003C
:100A400003906946084800F037FA44F2200000900D
:100A5000019005940290CDE903046946024800F034
:100A60002BFA0AB010BD000044020020014800F03B
:100A700024BB000044020020014800F01EBB00001F
:100A80004402002010B58AB001240020CDE90704FB
:100A90000E21CDE905140991049044F24000009024
:100AA00044F2200001904FF48140029044F2600033
:100AB00003906946094800F0FFF90F20CDE9044092
:100AC00044F2C00044F2A001CDE90001CDE90201E9
:100AD0006946024800F0F0F90AB010BD6C0200202F
:100AE000014800F0EABA00006C020020014800F062
:100AF000E4BA00006C02002030B589B0DDE90C5486
:100B0000029100210491059108210691110A8DF8A6
:100B100000108DF80120190A8DF80210290A8DF8AD
:100B200004108DF80550210A8DF806108DF8033059
:100B30008DF8074008AB6A4602A900F05FF909B0DA
:100B400030BD10B5044600F0F7FC0221204600F04D
:100B500043F908B100F005F91021204600F03CF9F6
:100B6000002803D0BDE8104000F0FBB810BD000025
:100B700070B506464FF6FF7000224AF201040FE0FE
:100B8000B35C58405FF0000310F0010F4FEA5000D3
:100B900000D060405B1CDBB2082BF5D3521CD2B2F4
:100BA0008A42EDD370BD0000F0EEC00A10EE900A4C
:100BB0000E499FED0D0AB2EE041A884206DA10EED5
:100BC000900A0B49884202DCB7EE000A704730EE0B
:100BD000C10A9FED081AC0EE010A9FED071AB7EE91
:100BE000000A00EEC10A70479A99193E000034428B
:100BF0000000204100000C429A99593F70B5264CE4
:100C0000264DA1F20123A04214D1191F042908D8AE
:100C1000C8B20B283FD2224B03EB401405EB001067
:100C200017E0032B37D8D9B2081DC0B20B2832D237
:100C30001C4B0AE01C4988422DD1052B2BD8D9B278
:100C4000481DC0B20B2826D2184B05EB001003EB51
:100C50004114017BB0F90E30002C1CD0A56945B9B8
:100C60001088002640BA208020812661012902D008
:100C7000A08211B108E0A38206E0322D04D2114611
:100C8000204605F0A9FE03E01146204605F070FE5F
:100C9000A069401CA06170BD44020020B00000208B
:100CA000DC4F0020DC4D00206C020020DC4E0020D8
:100CB000014800F0CFBC0000600400200168182348
:100CC000CAB2103AB2FBF3F2054B6FF30901032AE3
:100CD0009B5CC36500D9091D81650846704700000B
:100CE000E493000810B5014600208B698A6A4FF032
:100CF000C07453B1B3F5005F15D072B1012A0CD0A6
:100D0000022A0AD0032A09D104E01AB1012A06D026
:100D1000022A03D1C96AC90100D5012010BDC96AE0
:100D2000A142FAD010BD002AF7D0012AF2D0022A3F
:100D3000F3D0032AF3D010BD30B50468256825F43C
:100D400080252560046863608368402B036803D0B6
:100D500099600068C26030BD9A600068C16030BDB3
:100D6000704772B6FEE700002DE9F041174E184DAE
:100D7000184F00242DED028B9FED138A05EB4410D4
:100D800090ED040AB0EEC00A10EE101AB14212DB68
:100D9000D0ED050A07EB441090ED070A30EEC00ACB
:100DA00005F06EFEB0EEC00AB4EEC80AF1EE10FA1D
:100DB00001DDB0EE408A641C042CDFDBB0EE480A93
:100DC000BDEC028BBDE8F08100000000CDCC4C3DB5
:100DD000CC660020DC4F002090F82020012A07D0AC
:100DE000022A05D0416A41F4802141620120704706
:100DF000006842690A43426100207047F0B590F8EC
:100E000020500468A468012D05D0022D03D0416A4A
:100E100041F480214DE014F0406F01D1E50045D54B
:100E2000C4F301640125A5401D608D684FF4C073B3
:100E30009DB1CE6835434E6845EAC605066803EBAA
:100E40000417F5514FF4C275076805EB04150E69D8
:100E50007E51097D012905D009E00E88CD6845EA5B
:100E60004655EBE701684E5946F480764E511179AC
:100E7000D2F805504FF4C67641EA0521056806EB25
:100E80000416A9511178D2F801204FF4C47541EA33
:100E90000221026805EB04155151006803EB0411AF
:100EA000425842F0010242500020F0BD416A41F434
:100EB000001141620120F0BD10B590F82020012AF8
:100EC00007D0022A05D0416A41F480214162012005
:100ED00010BD3B48D0F8002242F00102C0F80022C9
:100EE000D0F8002222F47C52C0F80022D0F8002270
:100EF0004B6A42EA0322C0F800220A7D02F01F0377
:100F000001229A40D0F81C329343C0F81C32CB69BE
:100F1000B3B9D0F80C329343C0F80C328C894B68CB
:100F200064F31F434C6900EBC404C4F840320C89DD
:100F30000B6864F31F434C6900EBC404C4F84432EB
:100F4000CB69012B16D1D0F80C321343C0F80C3208
:100F50000C884B6864F31F434C6900EBC404C4F86D
:100F600040320C89CB6864F31F434C6900EBC40426
:100F7000C4F844328B69002BD0F804320ED01343EE
:100F8000C0F804320B69002BD0F8143208D0134398
:100F9000C0F81432096A012904D008E09343EFE74E
:100FA0009343F5E7D0F81C121143C0F81C12D0F897
:100FB000001221F00101C0F80012002010BD000055
:100FC00000640040704770B590F82040012C05D0B7
:100FD000022C03D0416A41F4802128E0046809B35F
:100FE0002469A40720D04FF4D874056804EB0114D9
:100FF0002D5915F00405956005682D591AD0ED0896
:10100000556005682C5904F00204D4604FF4DA747A
:10101000056804EB01142E5906F00F06082E0CD3B8
:1010200008250DE0E468DCE7416A41F40011416203
:10103000012070BD6D0D1560E3E72D5905F00F051A
:10104000156105682D59C5F30725956105682C596B
:10105000240C54614FF4DC72046802EB0112A458B2
:101060001C700468A458240A5C700468A458240CFA
:101070009C700468A258120EDA704FF4DE72046895
:1010800002EB0112A4581C710468A458240A5C7174
:101090000468A458240C9C710468A258120EDA71DA
:1010A000006829B1016941F020010161002070BD93
:1010B000C16841F02001C160F8E72DE9F05F054605
:1010C000006800244669D0F804908768D0F80CB016
:1010D000D0F810A0D0F81880F10748D0F90714D044
:1010E00001218160B80703D5284600F052FA0CE0D0
:1010F000780702D54FF4006407E0380702D54FF4B3
:10110000805402E0284600F043FAF80516D5296815
:101110004FF480708860B80503D5284600F03BFA8C
:101120000CE0780502D544F4005407E0380502D5F8
:1011300044F4804402E0284600F02CFAF80316D567
:1011400029684FF480308860B80303D5284600F042
:1011500024FA0CE0780302D544F4004407E0380395
:1011600002D544F4803402E0284600F015FA300736
:1011700007D55FEACB6004D52968102044F40074D9
:10118000C86070074FF0080707D55FEA0B7004D5F9
:101190002868C760284600F0A9F9B00706D5286876
:1011A000C068800702D0284600F0A1F9700607D574
:1011B0005FEACA6004D52968102044F4806408619D
:1011C000B00607D55FEA0A7004D52868076128468B
:1011D00000F09EF9F00606D528680069800702D065
:1011E000284600F096F9B00308D55FEAC96005D536
:1011F000296810204860284600F09CF9F00307D5C4
:101200005FEA097004D528684760284600F0C6F9EF
:10121000300446D55FEA497040D5F00504D55FEA51
:10122000C87001D044F00104B00504D55FEA8870AD
:1012300001D544F00204700504D55FEA487001D579
:1012400044F00404300529D518F0700F26D008F0BA
:101250007000402815D006DC102809D020280AD0BC
:10126000302816D10AE050280ED0602811D10EE0A7
:1012700044F008040DE044F010040AE044F02004B7
:1012800007E044F0400404E044F0800401E044F44A
:1012900080742868816921F07001816129680420C7
:1012A0004860002C05D0686A204368622846FFF732
:1012B00089FEBDE8F09F70B5040003D094F82000CB
:1012C00010B104E0012070BD204600F081F82068D4
:1012D000016841F00101016000F02AFC0546052685
:1012E00004E000F025FC401B0A2811D82068406863
:1012F000C007F6D02068016821F00201016000F00B
:1013000017FC05460BE000F013FC401B0A2806D929
:10131000606A40F40030606284F82060D2E72068A0
:1013200040688007EFD4207E0128206801683DD006
:1013300021F080010160607E01282068016838D0BA
:1013400021F040010160A07E01282068016833D0AF
:1013500021F020010160E07E0128206801682ED084
:1013600041F010010160207F01282068016829D028
:1013700021F008010160607F01282068016824D005
:1013800021F004010160D4E902010843D4E9041208
:10139000114308436168491E08432168C861002061
:1013A0006062012084F82000002070BD41F08001BF
:1013B000C0E741F04001C5E741F02001CAE721F054
:1013C0001001CFE741F00801D4E741F00401D9E76B
:1013D000F0B587B0044614216846FFF789F83E4B04
:1013E0003E48DFF8F0E01968D4F800C03B4A032516
:1013F0000226092710300024491CF4452AD119601F
:10140000012907D1016841F000710160006800F016
:1014100000700590106840F0080010601068CDE979
:10142000005600F00800CDE9047069462C48CDE96B
:10143000024500F07FFA00220521142000F0BEFED4
:10144000142000F0ADFE00220521152000F0B6FEAC
:1014500015203AE0DFF88CE0F44538D1D0F800C030
:101460004CF0806CC0F800C0D0F800C001290CF02E
:10147000806CCDF814C0196007D1016841F000718B
:101480000160006800F000700590106840F00200F4
:101490001060106802AB00F0020005906020CDE9FA
:1014A000000683E8B00069460F4800F043FA0022C6
:1014B0000521402000F082FE402000F071FE002255
:1014C0000521412000F07AFE412000F069FE07B0BE
:1014D000F0BD0000006400401C00002030380240D5
:1014E000000C02400068004000040240704710B544
:1014F0008AB0044607AB6A460021FFF764FD002866
:1015000004D107AA20460099FFF778FB0AB010BD66
:10151000704710B58AB0044607AB6A460121FFF751
:1015200052FD002804D107AA20460099FFF766FB68
:101530000AB010BD7047000070B5044690F8200056
:10154000012804D0606A40F40020606218E00220A4
:1015500084F820002068016821F00101016000F09A
:10156000E7FA05460EE000BF00F0E2FA401B0A2849
:1015700008D9606A40F400306062052084F82000D9
:10158000012070BD20684068C007EDD1606270BD69
:1015900070477047704770477047704770472DE934
:1015A000F0410446876D00F0C3FA064694F8350012
:1015B0000025022806D08020606584F83450012080
:1015C000BDE8F0812068016821F016010160206803
:1015D000416921F080014161206C08B9A06C20B103
:1015E0002068016821F0080101602068016821F08D
:1015F000010101600CE000F09BFA801B052807D96F
:1016000020206065032084F8350084F83450D7E743
:1016100020680068C007EED194F85C103F20884035
:10162000B860012084F8350084F834500020C7E702
:1016300090F83510022903D08021416501207047C0
:10164000052180F835100068016821F00101016072
:10165000002070472DE9F84304464FF00009CDF80B
:10166000009063484FF41651A56D0068B0FBF1F788
:101670002E6894F85C10082000FA01F131420FD076
:1016800021680A6852070BD50A6822F004020A6032
:1016900094F85C108840A860606D40F001006065BF
:1016A00094F85C104FF0010808FA01F0304208D0BD
:1016B00021684969090604D5A860606D40F0020000
:1016C000606594F85C1004208840304208D021689E
:1016D0000968890704D5A860606D40F00400606562
:1016E00094F85C1010208840304218D021680968B6
:1016F000090714D5A86020680168490304D500686B
:10170000000308D5A16C07E00168C90503D401688E
:1017100021F008010160216C09B12046884794F846
:101720005C1020208840304231D021680968C90609
:101730002DD5A86094F8350005282068016806D0EA
:10174000490347D5006800031DD4616C1CE021F0FB
:10175000160101602068416921F080014161206C1F
:1017600008B9A06C20B12068016821F0080101606F
:1017700094F85C103F208840A86084F8358084F895
:101780003490216D1FE0E16B09B120468847606D00
:1017900000282BD0606DC00714D0052084F83500D8
:1017A0002068016821F0010101600098401C009050
:1017B000B84203D820680068C007F6D184F83580A5
:1017C00084F83490E16C002910D001B02046BDE8C7
:1017D000F04308470168C905D5D4016821F010011C
:1017E000016084F8358084F83490CCE7BDE8F88354
:1017F0002C0000202DE9F041044600F099F906463E
:101800005CB1022084F83500002584F8345020684B
:10181000016821F0010101600DE00120BDE8F081C7
:1018200000F086F9801B052805D92020606503207B
:1018300084F83500F2E720680068C007F0D122681C
:10184000116820480140D4E901031843D4E9033664
:101850003343184363691843A3691843E369184382
:10186000236A18430843616A042903D1D4E90B139E
:1018700019430843106020684069666A20F0070138
:1018800030460E43012704280CD1A06A0643E06AC3
:1018900040B12046FFF726FA20B14020606584F869
:1018A0003570BAE7206846612046FFF707FA94F8DA
:1018B0005C203F2191408160656584F8357000208F
:1018C000ACE700003F8010F070B5044690F834009B
:1018D000002501280CD0012084F8340094F83560EC
:1018E0000020012E06D084F834000225284670BD61
:1018F000022070BD022684F8356060652046FFF73F
:101900001BFA2068016841F001010160EEE7000068
:1019100070B5044600F00CF90546601C02D004487E
:101920000078044400F004F9401BA042FAD370BDD3
:10193000200000202DE9F84FDFF8BCA1002201258E
:1019400003264FF00F090AF1040BAAF1040E00BFA1
:101950000B6805FA02F42340A34270D10F7907F017
:101960000307012F01D0022F16D187684FEA4208E2
:1019700006FA08FC27EA0C07D1F80CC00CFA08FCA0
:101980004CEA070CC0F808C04768A7430C79C4F3B9
:10199000001494403C4344600C79E443A4070AD00B
:1019A000C4684FEA420C06FA0CF7BC438F6807FA8A
:1019B0000CF72743C7600C7904F00304022C12D102
:1019C000D40800EB840CDCF820405707FF0E09FA1E
:1019D00007F824EA0804D1F8108008FA07F848EA62
:1019E0000408CCF8208004684FEA420C06FA0CF791
:1019F000BC430F7907F0030707FA0CF7274307608A
:101A00004C6814F4403F70D03C4C276847F4804742
:101A10002760246822F0030704F480440094384CC3
:101A200007EB040CDCF8084897074FEA177809FA27
:101A300008F7BC43334FB84202D1002724E054E0FA
:101A4000314FB84201D101271EE0304FB84201D1D9
:101A5000022719E02E4FB84201D1032714E02D4F81
:101A6000B84201D104270FE02B4FB84201D105271E
:101A70000AE02A4FB84201D1062705E0284FB842B4
:101A800001D1072700E0082707FA08F72743CCF819
:101A90000878DAF800405746D1F804C09C435FEA62
:101AA000CC2C00D51C433C60DBF800405F46D1F8ED
:101AB00004C09C435FEA8C2C00D51C433C60DEF8DC
:101AC00000407746D1F804C09C435FEA8C3C00D5C7
:101AD0001C433C60084F083F3C68D1F804C09C435D
:101AE0005FEACC3C00D51C433C60521C102AFFF43A
:101AF0002FAFBDE8F88F0000083C01404438024099
:101B00000030014000000240000402400008024092
:101B1000000C024000100240001402400018024075
:101B2000001C02400AB1816170470904FBE7000014
:101B300001488068704700002000002070B5040054
:101B400025D094F83D00002520B984F83C5020466B
:101B500000F052FA242084F83D002068016821F04A
:101B6000010101602068016841F4004101602068C2
:101B7000016821F40041016000F00CFC4D4A6168ED
:101B8000914201D84C4900E04C49884201D20120E1
:101B900070BD4B492368B0FBF1F15E6826F03F064B
:101BA0000E435E606368934206D94FF496735943BF
:101BB0004FF47A73B1FBF3F12368491C1E6A26F0D7
:101BC0003F06314319626168914210D84900401EB6
:101BD000B0FBF1F2521CC2F30B02042A01D2042022
:101BE00022E0B0FBF1F0401CC0F30B001CE0A26847
:101BF000F2B301EBC10303EB0116431EB3FBF6F393
:101C00005B1C43F480431B0549D092B301EBC10236
:101C100002EB0111401EB0FBF1F0401CC0F30B00C1
:101C200040F4804040F400402168CA694CF6FF73DC
:101C30009A431043C861D4E9071001432068026841
:101C400022F0C00211430160D4E90301014320687E
:101C5000826848F2FF339A4311438160D4E9050159
:101C600008432168CA6822F0FF021043C86001E0FF
:101C70000EE016E02068016841F001010160256472
:101C8000202084F83D00256384F83E50002070BD7C
:101C900001EB4106431EB3FBF6F35B1CB3E70120E7
:101CA000C2E701EB4101401EB0FBF1F0401CC0F364
:101CB0000B00B7E7A086010080841E0000093D00EC
:101CC00040420F002DE9FF4F83B09A46DDE91187AE
:101CD00093460446DDF84090FFF72AFF054694F846
:101CE0003D00202870D11923012274492046009517
:101CF00001F018FF0028F5D194F83C00012863D0CA
:101D0000012084F83C0020680168C90703D10168FC
:101D100041F0010101602068016821F40061016067
:101D2000222084F83D00402084F83E0000262664EE
:101D3000C4F82490A4F82A80608D20856048E06271
:101D4000CDE9007553465A462046049901F0ECFD52
:101D5000002879D1208DD0B1012821D00228206817
:101D600024D0416980690090208D032866D801281D
:101D70002BD0544902283B464FF00002009557D023
:101D80008846204601F0CEFE00285DD13AE020686A
:101D9000416981690091016841F4007101607DE051
:101DA0002068016821F480610160F0E7016821F496
:101DB000806101602068016841F400610160206871
:101DC00041698069009069E075E02A4639462046FD
:101DD00001F04EFF88BB54E02068016841F40071B7
:101DE000016020680069616A0870606A401C606276
:101DF000218D491E2185618D491E618521680969F2
:101E0000017042E02068016821F48061016020686F
:101E10000069616A0870606A401C6062208D401E23
:101E20002085608D401E60853B460022414600951E
:101E3000204601F077FE00B9CEE705E02A46394694
:101E4000204601F015FF18B1012007B0BDE8F08F62
:101E500020680069616A0870606A401C6062208DB9
:101E6000401E81B22185608D401E608520684269D8
:101E7000D243520712D4032903D1016821F48061AF
:101E8000016020680069616A0870606A401C6062D5
:101E9000208D401E2085608D401E6085208D00288D
:101EA0007FF462AF202084F83D0084F83E6084F81F
:101EB0003C600020C9E70220C7E7000002001000D4
:101EC0000000FFFF040001002DE9FF4F83B09A4698
:101ED000DDE9119793460446DDF84080FFF728FEC0
:101EE000054694F83D0020287FD11923012240495E
:101EF0002046009501F016FE002876D194F83C00AB
:101F0000012872D0012084F83C0020680168C907CC
:101F100003D1016841F0010101602068016821F4EA
:101F200000610160212084F83D00402084F83E00DB
:101F300000262664C4F82480A4F82A90608D2085A9
:101F40002C48E062CDE9007553465A462046049974
:101F500001F068FD70B930E02A463946204601F0AC
:101F6000BFFE58B1206C042804D12068016841F4F8
:101F700000710160012007B0BDE8F08F606A216840
:101F800000780861606A401C6062218D491E89B238
:101F90002185628D521E628522685369DB435B078F
:101FA0000BD469B100781061606A401C6062208DBA
:101FB000401E2085608D401E6085208D0028CBD17D
:101FC0002A463946204601F081FD0028CAD154F83E
:101FD0003D0B016841F400710160202004F81E09E6
:101FE000E67766770020C6E7FFE70220C3E7000038
:101FF000020010000000FFFFF0B587B00446142176
:102000006846FEF775FA1D492068884233D11C489E
:102010000024016841F004010160016801F004013D
:102020000591016841F0010101600068122500F08E
:10203000010005904FF40070CDE9000502AA0326C7
:10204000042782E8D00069460E48FFF773FCB80108
:10205000CDE9000502AA694682E8D0000A48FFF7E8
:1020600069FC07481030016841F400010160006814
:1020700000F40000059007B0F0BD0000005C0040D7
:1020800030380240000802400000024002488168E7
:102090000278114481607047200000200B4810B581
:1020A000016841F400710160016841F480610160E0
:1020B000016841F480710160032000F09FF8002066
:1020C00000F006F800F050F8002010BD003C02407F
:1020D00030B505461F4887B00024016841F0100163
:1020E0000160006806A900F01000009001A800F04F
:1020F00031F90498A8B100F04DF940001649174A8B
:10210000B0FBF1F11648491E026040F2E732C0E927
:102110000324C0E90114846100F0B4FE040003D07C
:1021200015E000F037F9E9E70D4800F035FF04004D
:102130000DD1362000F034F8102D07D200222946A8
:10214000362000F03BF80748056000E0012407B0A6
:10215000204630BD4038024040420F000010004091
:10216000C0040020240000200C4882B0016841F423
:1021700080410160006800F4804000900748001F23
:10218000016841F0805101600068002200F0805039
:1021900000900F21901E02B000F010B844380240A9
:1021A000002809DB00F01F02012191404009800056
:1021B00000F1E020C0F8001170470000F0B40E4BB1
:1021C0001B680C46C3F30223C3F10705042D00D995
:1021D0000425191D072901D2002300E0DB1E01267A
:1021E00006FA05F1491E214099409E40761E164090
:1021F0003143F0BC03F01CBE0CED00E0064900F0DA
:10220000070208684FF6FF03184040EA0220034A1D
:1022100010430860704700000CED00E00000FA0574
:102220002DE9F0470E46050065D0DFF81481D8F897
:102230000000F7B200F00700B04207D288F8007043
:10224000D8F8000000F00700B04254D128683D4C97
:10225000810712D5400703D5206840F4E050206084
:102260002878000703D5206840F46040206020688B
:10227000A96820F0F000084320602878C0072DD01E
:10228000304968680839012812D0022813D0032881
:1022900011D00968890700292DDA216821F003018E
:1022A00001432160FFF744FC814641F2883A0EE089
:1022B00009688903EFE709688901ECE7FFF738FC53
:1022C000A0EB0901514502D90320BDE8F087206841
:1022D000696800F00C00B0EB810FEFD1D8F8001066
:1022E000404601F00701B14207D90770006800F0CD
:1022F0000700B04201D00120E7E72878400705D564
:102300002068E96820F4E05008432060287800073E
:1023100006D52068296920F4604040EAC1002060A9
:1023200000F058F82168084AC1F30311515CC84015
:102330000649086006480068FFF7CAFE0020C4E7A7
:10234000003C024008380240EC9300082C000020BA
:10235000240000200F2202600C4A136803F00303DC
:102360004360136803F0F0038360136803F4E053E1
:10237000C36012684FF4E05303EAD20202610448DA
:10238000006800F00700086070470000083802404D
:10239000003C02400448054900680968044AC1F34A
:1023A0008221515CC84070472C0000200838024050
:1023B000FC9300080448054900680968044AC1F311
:1023C0004231515CC84070472C0000200838024060
:1023D000FC930008154810B5006810F00C02144872
:1023E00013D01449042A0FD0082A0ED10F4C241FF1
:1023F0002268236802F03F025B0207D52068C0F321
:102400008810A0FB010106E0084610BD2168C1F359
:102410008811A1FB00010023FDF7A6FF2168C1F38D
:102420000141491C4900B0FBF1F010BD08380240E1
:102430000024F400001BB7002DE9F84F04006ED013
:102440002078DFF84C93C007A9F104054AD009F1C0
:1024500004000168C1F38101012908D00068C0F3BC
:10246000810002280AD1D9F80000400206D5286868
:10247000800337D560680028E1D033E06068B0F5AC
:10248000803F10D0B0F5A02F286810D020F4803005
:102490002860286820F4802028606068A8B1FFF7D1
:1024A00047FB06460DE0286840F48030F4E740F42E
:1024B00080202860F7E700BFFFF73AFB801B642805
:1024C00073D828688003F7D50CE0FFF731FB064688
:1024D00005E000BFFFF72CFB801B6428F0D82868BC
:1024E0008003F7D42078DFF8AC8280074FF0000A31
:1024F0003ED5A748001D016811F00C0F08D00068F8
:10250000C0F3810002280BD1D9F80000400207D4A3
:102510002868800716D5E068012800D112E033E171
:10252000E068B8B10120C8F80000FFF701FB0646DB
:1025300005E000BFFFF7FCFA801B0228C0D828681E
:102540008007F7D52868216920F0F80040EAC1002B
:1025500028600DE0C8F800A0FFF7EAFA064604E09C
:10256000FFF7E6FA801B02281FD828688007F7D4F7
:102570002078000722D5864F87486169703771B18E
:1025800001210160FFF7D4FA064604E0FFF7D0FA14
:10259000801B022809D838688007F7D50EE0C0F8FC
:1025A00000A0FFF7C5FA064605E082E0FFF7C0FA93
:1025B000801B02287DD838688007F7D42078400730
:1025C00068D5DFF8CCB100270BF13C0BDBF800003D
:1025D000C0000BD4DBF8001041F08051CBF80010A4
:1025E000DBF80000012700F0805000906B4E30684F
:1025F000C00510D4306840F480703060FFF798FA5E
:10260000009005E0FFF794FA0099401A022850D88C
:102610003068C005F6D55E4EA0686C3601280FD034
:102620000528306810D020F001003060306820F0BC
:1026300004003060A068B8B1FFF77AFA00900FE0AC
:10264000306840F00100F4E740F004003060F7E744
:10265000FFF76EFA0099411A41F28830814266D83C
:1026600030688007F4D50EE0FFF762FA009007E0CB
:10267000FFF75EFA0099411A41F28830814256D83C
:1026800030688007F4D42FB1DBF8001021F08051BE
:10269000CBF80010A069C8B33D49091D0968C1F312
:1026A000810102294AD00228504607D0C8F86000AC
:1026B00000E03CE0FFF73CFA04463BE04746C8F840
:1026C0006000FFF735FA064605E000BFFFF730FA75
:1026D000801B02282BD828688001F7D4D4E9070191
:1026E0000843A16A2E4A490802EB0141626A41EAA5
:1026F0008211084394F82C1040EA0161C9F80010D7
:1027000001203866FFF714FA044606E03EE000BFF9
:10271000FFF70EFA001B022809D828688001F7D5B8
:1027200034E000BFFFF704FA001B022802D903209F
:10273000BDE8F88F28688001F4D427E00128F7D09D
:10274000D9F80000E26900F4800191421CD1226AAC
:1027500000F03F01914217D147F6C071626A014013
:10276000B1EB821F10D1A26A4FF0FF3300F4403169
:1027700003EB5202B1EB024F06D194F82C1000F09B
:102780007060B0EB016F01D00120D1E70020CFE7EE
:102790000438024000004742800E4742007000406B
:1027A0000000FFFF70B5040009D0606A002540B149
:1027B00025616561A56294F8510040B10CE00120EB
:1027C00070BD6068B0F5827FF4D0E561F2E784F80F
:1027D0005050204600F044F8022084F85100206850
:1027E000016821F040010160A088218900F4827015
:1027F00001F404410843A18901F400610843217CEC
:1028000001F002010843217D01F001010843218B01
:1028100001F400710843217F01F03801084394F866
:10282000201001F080010843218D01F4005108437C
:1028300021680860A069042101EA104094F824107E
:1028400001F010010843216848602068C16921F443
:102850000061C1616565012084F85100002070BDF0
:10286000F0B587B0044614216846FDF741FE1C49C7
:102870002068884232D11B480024016841F480510D
:102880000160006800F48050059016481438016813
:1028900041F002010160016801F002010591016847
:1028A00041F0010101600068022500F0010005907F
:1028B0001820CDE9000502AA0326052782E8D000EA
:1028C00069460948FFF736F88020CDE9000502AADD
:1028D000694682E8D0000548FFF72CF807B0F0BD44
:1028E0000030014044380240000402400000024031
:1028F0002DE9F84F044690F851001D4616460F4644
:10290000012838D1002F77D0002E75D060684FF0A5
:102910000408B0F5827F01D1A06810B3FFF708F971
:10292000824694F85000012825D04FF0010984F820
:10293000509084F851804FF00008C4F85480A76389
:10294000A687E687C4F83080A4F83480A4F83680DF
:10295000C4F84080C4F84480A068B0F5004F0CD0A3
:1029600015E084F85180009313460A46204600F093
:102970001CF9BDE8F88F0220FBE72068016821F010
:10298000400101602068016821F4804101602068F5
:102990000168490603D4016841F040010160E06824
:1029A000C0B134E020688168C90709D0007BA16B01
:1029B0000870A06B401CA063E08F401EE08709E018
:1029C000FFF7B6F8A0EB0A00A84202D3681C01D0BA
:1029D00032E085B3E08F0028E4D11BE020688168F5
:1029E000C9070AD0C068A16B0880A06B801CA063D7
:1029F000E08F401EE0870AE01BE0FFF799F8A0EBAC
:102A00000A00A84202D3681C01D015E09DB1E08FF6
:102A10000028E3D152462946204602F0ADFA08B11B
:102A20002020606584F8519084F85080606D002803
:102A30009FD001209DE7FFE784F8519084F85080F3
:102A4000032096E72DE9F84F984616468A46044635
:102A5000FFF76EF8814694F8510001281ED1BAF1B3
:102A6000000F73D0002E71D094F85000012815D0BB
:102A7000012784F85070032084F851000025656513
:102A8000C4F830A0A686E686A563A587E5876564B9
:102A90002564A068B0F5004F03D00CE00220BDE82B
:102AA000F88F2068016821F040010160206801680A
:102AB00041F48041016020680168490603D401683F
:102AC00041F040010160E068B0F5006F606803D03C
:102AD00048B3012E27D047E008B1012E1FD1206B4B
:102AE00021680088C86006E020688168890709D5E8
:102AF000216B0988C160206B801C2063E08E401E22
:102B0000E0860CE0FFF714F8A0EB0901414503D380
:102B1000B8F1FF3F03D035E0B8F1000F32D0E08EBE
:102B20000028E1D123E0206B21680078087306E0DB
:102B30002068816889070AD5216B09780173206BA9
:102B4000401C2063E08E401EE0860DE02BE0FEF787
:102B5000EFFFA0EB0901414503D3B8F1FF3F03D0DC
:102B600010E0B8F1000F0DD0E08E0028E0D14A4609
:102B70004146204602F02EFA08B120206065A06888
:102B800030B109E084F8517084F85050032086E792
:102B90002068C1688068009084F8517004F8505F24
:102BA00060680028F3D0012079E72DE9FF4F81B05C
:102BB0001D46934604464FF001090E9EFEF7B8FFEE
:102BC000074694F851006168012806D0B1F5827F6C
:102BD0003CD1A168C9BB042838D10298002871D023
:102BE000BBF1000FFBD0002DF9D094F85000012864
:102BF0002CD04FF0010A84F850A094F8510004281A
:102C000002D0052084F851004FF00008C4F8548029
:102C1000C4F838B0E587A58702992163E586A586C3
:102C2000C4F84080C4F8448020680168490603D491
:102C3000016841F040010160E068B0F5006F606834
:102C400008D0F0B3012D49D081E0FFE7022005B0A4
:102C5000BDE8F08F08B1012D39D1206B21680088C3
:102C6000C860206B801C2063E08E401EE0862EE052
:102C70002068816889070FD5E18E69B1B9F1010F2C
:102C80000AD1216B0988C160206B801C2063E08E13
:102C9000401EE0864FF0000920688168C9070CD00B
:102CA000E18F51B1C068A16B0880A06B801CA0634C
:102CB000E08F401EE0874FF00109FEF739FFC01B8F
:102CC00001E00BE067E0B04201D3701C50D1E08E10
:102CD0000028CDD1E08F0028CAD13EE0206B2168CA
:102CE00000780873206B401C2063E08E401EE08655
:102CF0002DE02068816889070FD5E18E69B1B9F1AF
:102D0000010F0AD1216B09780173206B401C2063ED
:102D1000E08E401EE0864FF0000920688168C907F8
:102D20000CD0E18F51B1C068A16B0870A06B401C42
:102D3000A063E08F401EE0874FF00109FEF7F8FE28
:102D4000C01BB04202D3701C01D011E086B1E08EEE
:102D50000028CED1E08F0028CBD13A46314620461C
:102D600002F038F950B12020606584F8508012E0FC
:102D700084F851A084F85080032068E7A06818B94F
:102D80002068C1688068009084F851A084F8508061
:102D9000606D0028F1D0012059E77047704710B5E9
:102DA00090F83C20012A22D0012280F83C20CA68F9
:102DB0008C6822F4407222434C6822F480622243E1
:102DC0000C6822F4006222430C6922F480522243F0
:102DD0004C6922F400522243C969002322F4804244
:102DE0000A4301684A6480F83C30002010BD02208C
:102DF00010BD000070B590F83C20012A32D00124AB
:102E000080F83C40022280F83D2003685A689D68A3
:102E100022F070060A6832435A60134B02689A42E5
:102E200014D0B2F1804F11D0104B9A420ED0104BFB
:102E30009A420BD00F4B9A4208D00F4B9A4205D0C2
:102E40000E4B9A4202D00E4B9A4204D1496825F0AB
:102E500080031943916080F83D40002180F83C10C8
:102E6000084670BD022070BD000001400004004013
:102E700000080040000C00400004014000400140F8
:102E80000018004010B5040003D094F83D0010B1C4
:102E900007E0012010BD002084F83C00204600F02F
:102EA0001FF8022084F83D00211D206802F034FB49
:102EB000012084F8460084F83E0084F83F0084F83E
:102EC000400084F8410084F8420084F8430084F80C
:102ED000440084F8450084F83D00002010BD000047
:102EE00008B50C4A01680C48914207D1016841F0CD
:102EF00001010160006800F0010009E0074A914209
:102F000007D1016841F002010160006800F0020091
:102F1000009008BD00000140443802400004014018
:102F200090F83D10012901D001207047022180F85E
:102F30003D1000681149884214D0B0F1804F11D083
:102F40000F4988420ED00F4988420BD00E49884263
:102F500008D00E49884205D00D49884202D00D495B
:102F6000884204D1816801F00701062903D0016875
:102F700041F00101016000207047000000000140A5
:102F80000004004000080040000C00400004014024
:102F9000004001400018004090F83D10012901D088
:102FA00001207047022180F83D100168CA6842F094
:102FB0000102CA6000681149884214D0B0F1804F04
:102FC00011D00F4988420ED00E4988420BD00E49CD
:102FD000884208D00D49884205D00D49884202D068
:102FE0000C49884204D1816801F00701062903D009
:102FF000016841F0010101600020704700000140BC
:103000000004004000080040000C004000040140A3
:10301000004001400018004070B5044690F83C00A4
:103020000025012817D0012684F83C60022084F88E
:103030003D002068826822F0770222F47F4282609D
:103040000868502838D00DDC20284FD005DC90B31C
:10305000102811D14AE0022070BD302846D0402807
:103060000AD13BE060282FD070280DD0B0F5805FEA
:1030700003D0B0F5005F12D0012584F83D60002038
:1030800084F83C00284670BDCB68D1E90121206856
:1030900002F0B7FA2068816841F0770109E0CB6857
:1030A000D1E90121206802F0ACFA2068816841F47E
:1030B00080418160E1E719E0CA684968206802F050
:1030C00075FB5021206806E0CA684968206802F054
:1030D0007EFB6021206802F09EFACEE7CA6849684C
:1030E000206802F063FB40212068F4E72268014673
:1030F0001046F0E770472DE9F04104460068C668C5
:1031000005694FF00007A90713D5B10711D5F91EBE
:10311000016101202077206880698007204602D065
:10312000FFF7E8FF04E000F0C3F8204600F055F98F
:103130002777680716D5700714D521686FF004004B
:103140000861022020772068806910F4407F2046C3
:1031500002D0FFF7CFFF04E000F0AAF8204600F00D
:103160003CF92777280715D5300713D521686FF06C
:1031700008000861042020772068C0698007204685
:1031800002D0FFF7B7FF04E000F092F8204600F00D
:1031900024F92777E80616D5F00614D521686FF0D4
:1031A00010000861082020772068C06910F4407F73
:1031B000204602D0FFF79EFF04E000F079F8204699
:1031C00000F00BF92777E80708D0F00706D0216850
:1031D0006FF001000861204600F064F9280608D568
:1031E000300606D521686FF0800008612046FFF7A1
:1031F000D4FD680608D5700606D521686FF040003A
:103200000861204600F058F9A8060AD5B00608D58E
:1032100021686FF0200008612046BDE8F041FFF70B
:10322000BDBDBDE8F081000010B586B00446142194
:103230006846FDF75DF92368184C00211848022202
:10324000A34212D1036843F010030360006800F04A
:10325000100005904FF420600090CDE9012101207D
:10326000CDE9031069460F4813E00F4CA34212D179
:10327000036843F480730360006800F48070059075
:1032800080200090CDE901210320CDE9031069469B
:103290000648FEF74FFB06B010BD000000000140DD
:1032A000303802400010024000040140002002407B
:1032B000704770B5044690F83C0000260D46012882
:1032C0000FD0012084F83C006AB1042A1DD0082ADE
:1032D0002FD00C2A3FD00126002084F83C00304635
:1032E00070BD022070BD206802F09EF920688169DF
:1032F00041F0080181612068816921F00401816148
:10330000206881692A69114311E0206802F0BCF944
:103310002068816941F4006181612068816921F43C
:1033200080618161206881692A6941EA02218161A5
:10333000D2E7206802F0DEF92068C16941F0080197
:10334000C1612068C16921F00401C1612068C169BF
:103350002A69114311E0206802F000FA2068C1696F
:1033600041F40061C1612068C16921F48061C161DB
:103370002068C1692A6941EA0221C161ACE710B540
:10338000040003D094F83D0010B107E0012010BD07
:10339000002084F83C00204600F01EF8022084F84B
:1033A0003D00211D206802F0B7F8012084F8460096
:1033B00084F83E0084F83F0084F8400084F841001F
:1033C00084F8420084F8430084F8440084F84500FF
:1033D00084F83D00002010BD7047704710B50446CA
:1033E000022249B104290ED0082913D094F84100D3
:1033F000012816D0012010BD94F83E000128F9D113
:1034000084F83E200FE094F83F000128F2D184F8C0
:103410003F2008E094F840000128EBD184F84020D8
:1034200001E084F841200122206802F0DDF816490D
:103430002068164A884201D0904203D1436C43F47D
:10344000004343642068884213D0B0F1804F10D00D
:103450000F4988420DD00F4988420AD00E49884250
:1034600007D0904205D00D49884202D00C498842CD
:1034700004D1816801F00701062903D0016841F0F9
:1034800001010160002010BD000001400004014066
:103490000004004000080040000C004000400140D3
:1034A0000018004000680349884201D1FEF7EEBDD4
:1034B00070470000001000407047704770470000E0
:1034C000F8B5016804460868CA684B6910F00F0F28
:1034D0004FF0000559D003F0010602F4907737430E
:1034E00065D0C10705D0D10503D5616C41F001015C
:1034F0006164410705D5D90703D0616C41F0020131
:103500006164810705D5D90703D0616C41F00401DE
:103510006164010707D502F02001314303D0616CDB
:1035200041F008016164616C00293AD0800604D53D
:10353000900602D5204602F051FB20684069616C7C
:10354000C0F38010090700D460B3204602F01FFBCF
:1035500020684069400621D52068143050E8001FDB
:1035600021F0400140E80012002AF5D1E06BA8B13B
:1035700072490165E06BFEF75BF8002811D0E06B43
:10358000016D01B0BDE8F040084783060FD59306F2
:103590000DD52046BDE8F84002F020BB2046FFF7DD
:1035A0008DFFF8BD2046FFF789FF6564F8BD266BE7
:1035B0002023012E7ED1C6067CD5D6067AD5086892
:1035C0004868009048694FF0020640064DD5E26B0E
:1035D000106840684FF480770004000C3AD0A18D49
:1035E000814237D9E085D069B8422DD020680C30AF
:1035F00050E8001F21F4807140E80012002AF5D144
:103600002068143050E8001F21F0010140E800124A
:10361000002AF5D12068143050E8001F21F0400145
:1036200040E80012002AF5D184F842302563206872
:103630000C3050E8001F21F0100140E80012002A71
:10364000F5D1E06BFDF7ABFF6663A08DE18D401A0D
:1036500081B206E0A18D8142A8D1D069B842A5D13E
:1036600066632046FFF729FFF8BDA08DE18D401A63
:1036700081B2E08D0028F7D00029F5D020680C3009
:1036800050E8002F22F4907240E80027002FF5D177
:103690002068143050E8002F22F0010240E8002793
:1036A000002FF5D184F84230256320680C3050E8B3
:1036B000002F00E006E022F0100240E80023002B7B
:1036C000F3D1CDE705062BD5150629D594F8410091
:1036D0002128C9D1A068B0F5805F01D12069B0B1BF
:1036E000206A411C2162216800784860E08C401EFD
:1036F0000004000CE084B7D12068C16821F080018B
:10370000C1602068C16841F04001C160F8BD206A15
:103710000088C0F308004860206A801C2062E5E74A
:103720004006F3D55006F1D5CA68204622F0400283
:10373000CA6084F8413000F0DDF8F8BD815B000814
:1037400070B5040004D094F84100002510B106E0E3
:10375000012070BD84F84050204600F023F824205A
:1037600084F841002068C16821F40051C1602046FE
:1037700002F096FA2068016921F490410161206805
:10378000416921F02A0141612068C16841F400517A
:10379000C1606564202084F8410084F842006563BC
:1037A000002070BD70B586B0064614216846FCF74F
:1037B0009FFE364C30680025354902230322A04283
:1037C0003AD133481030046844F48024046000681F
:1037D00000F480200590086840F004000860086844
:1037E000694600F00400059090028DE8290007204A
:1037F000CDE903202748FEF79DF8284C2648206095
:103800004FF00060C4E901054014C4E90350801082
:103810006561C4E90650256220466562FDF7EAFF4E
:1038200008B1FDF79EFAF463002205212720A66364
:10383000FEF7C4FC272025E0194CA04224D11448EF
:103840001430046844F020040460006800F0200094
:103850000590086840F0400008600868694600F07C
:10386000400005904FF484408DE829000820CDE900
:1038700003200C48FEF75EF8002205214720FEF7E2
:103880009DFC4720FEF78CFC06B070BD0048004050
:1038900030380240000802402860024060040020E6
:1038A000001401400018024090F84230202B01D053
:1038B0000220704721B11AB10023036302F076BAE7
:1038C0000120704710B50068074988420AD10748AF
:1038D000007803F0E1FEBDE81040012203490448EE
:1038E000FFF7E2BF10BD000000140140D30100202B
:1038F000180400207047FEE701684A69D243520568
:103900000FD46FF480624A61002140F8301F2022FA
:1039100042738173026942F0040202610173012063
:1039200070470020704700002DE9F84F04460068FA
:1039300089460B9D01689846174641F480610160F5
:103940002068016841F48071016000954FF0011B0F
:103950000022594620460A9B00F0E4F84FF4007A12
:1039600040B120680068C00501D5C4F840A003201C
:10397000BDE8F88F216809F0FE0008612B46284950
:1039800020460A9A00F016F9F0BB20684169806968
:1039900000902A4620460A9900F0A2F940B1206C16
:1039A00004283AD12068016841F40071016034E0D4
:1039B000FEB2B8F1010F09D02168380A08612A4621
:1039C00020460A9900F08CF90028E8D120680661A9
:1039D0002A4620460A9900F083F90028DFD12068A2
:1039E000016841F48071016000950022594620462B
:1039F0000A9B00F097F80028B3D1216809F0FF0076
:103A000040F00100086100E007E02B460449204631
:103A10000A9A00F0CFF80028AAD00120A8E70000F9
:103A2000020001002DE9F843044600680D46DDE977
:103A3000089701689846164641F4807101604B462C
:103A400000224FF001112046009700F06BF848B1BA
:103A500020680068C00502D54FF400702064032080
:103A6000BDE8F883216805F0FE0008613B464A4640
:103A70001549204600F09EF888B9206841698069A0
:103A800000903A464946204600F02AF948B1206C99
:103A9000042804D12068016841F40071016001200C
:103AA000DEE7F5B2B8F1010F09D02168300A0861EC
:103AB0003A464946204600F013F90028E7D120682D
:103AC00005610020CCE700000200010070B5164639
:103AD0000D4604461EE02046FFF70EFF08B1012008
:103AE00070BD681C16D0FEF723F8801BA84200D8D2
:103AF00085B920684069C04340070BD5002044F8D1
:103B0000300F20216173A073216941F020012161F0
:103B10002073E4E720684069C0434007DBD40020FD
:103B200070BD00002DE9F047984617460D46044643
:103B3000C1F30746DDF820902AE000BFB8F1FF3F4F
:103B400026D0FDF7F5FFA0EB0901414502D8B8F1F9
:103B5000000F1DD12068012E16D0806925EA0000D3
:103B60000004000C12D00020B84211D1002044F80B
:103B7000300F20216173A073216941F02001216180
:103B800020730120BDE8F0874069E7E70120EBE7FB
:103B90002068012E0AD0806925EA00000004000C8C
:103BA00006D00020B842C9D00020EBE74069F3E717
:103BB0000120F7E72DE9F047984616460D460446E2
:103BC0004FF000094FF0200AC1F3074723E02068B7
:103BD0004069C043400515D42068016841F4007174
:103BE000016021686FF480604861C4F8309084F807
:103BF0003DA084F83E90216C41F00401216484F8DA
:103C00003C9021E0701C06D0FDF792FFA0EB08006D
:103C1000B04203D816B1012F1FD021E02068012F38
:103C200015D0806925EA00000004000C18D000BF00
:103C300044F8309F84F80DA084F80E90216941F07B
:103C40002001216184F80C900120BDE8F0874069D3
:103C500025EA00000004000CEAD12068406901E078
:103C60002068806925EA00000004000CAFD1ECE771
:103C70002DE9F041002590460E460446202728E015
:103C80004069C043C0060CD454F8301B6FF01000DC
:103C9000486144F810596777A577206A2062257734
:103CA00014E0FDF745FFA0EB0800B04200D886B94C
:103CB00020684069C04340060BD544F8305F677305
:103CC000A573206940F02000206125730120BDE824
:103CD000F08120684169C9434906D1D40020F6E744
:103CE00070B516460D4604461EE02046FFF704FE5A
:103CF00008B1012070BD681C16D0FDF719FF801BAC
:103D0000A84200D885B920684069C04300060BD599
:103D1000002044F8300F20216173A073216941F025
:103D2000200121612073E4E720684069C043000658
:103D3000DBD4002070BD000038B5FCF7B7FD08B13A
:103D4000012038BD00F020F9FCF746FDFCF702FE2B
:103D5000104C684684ED0B0A9FED0F0A84ED0C0AA7
:103D600000F09EF838B19FED0D0A84ED090A84ED4C
:103D70000A0A002038BD9DED000ADFED090A84ED36
:103D8000090A20EE200ADFED070A80EE201A84EDF2
:103D90000A1AEEE7DC6900206F12033C0000000005
:103DA000DB0F49400000344310B535482DED028B40
:103DB00082B0B0EE408AFCF7CDFC31480C30FCF705
:103DC00033FDFCF7C7FD2E4C2E4984ED0D0AD4EDD2
:103DD0000B0A94ED081A30EE600AD4ED0C0A20EEBE
:103DE000800AD4ED050A70EEC10A30EEC00A84EDF7
:103DF0000E0AF0EEC00A10EE900A884201DA9FED3A
:103E0000220AD4ED090A40EE080AB0EE600A00F07A
:103E100045F884ED090A684600F042F8F8B994EDD7
:103E2000090ADDED000A30EEC00A00F037F8F0EEC6
:103E3000408AD4ED090A9FED150A48EE800AB0EEDB
:103E4000600A00F02BF8DFED120A84ED090A94ED08
:103E5000080A68EEA00A00EEC80A84ED080A94ED8C
:103E6000090ADFED0C0A20EE200ADFED0B0A80EED6
:103E7000201A84ED0A1A02B0BDEC028B10BD0000BE
:103E8000DC690020CDCC4C3D00000000CDCC4C3D89
:103E9000A69BC43BDB0F49400000344302F0F0BD59
:103EA00010B504462DED088B84B0684600F0A2F8EA
:103EB00020B1012004B0BDEC088B10BD2F499DED51
:103EC000009ADDED01AAD1ED019A91ED028A91ED02
:103ED00000AADDED028AF0EE480AB0EE690A01F0B0
:103EE000B7FFB0EE40BA29EEA90A08EE080A02F0C0
:103EF00027FBF0EE400AB1EE4A0A01F0A9FFB0EE4E
:103F000040AA02F0CDF860EE099AB0EE4A0A02F03B
:103F10004FFA48EE809AB0EE4B0A02F049FA20EED2
:103F2000098AB0EE4A0A02F043FA28EE008AB0EE9F
:103F30004B0A02F0B5F80AEE808AB0EE4B0A02F0A6
:103F400037FA60EE288AB0EE4A0A02F0A9F808EEC5
:103F5000C08AF0EE690AB0EE480A01F079FFDFEDA1
:103F6000080A9FED081A60EE200A80EE810AFFF72A
:103F700095FF84ED000A00209CE70000DC6900202A
:103F800000003443DB0F49401FB500248DF80C407E
:103F9000012240211548FDF7C5FD0A20FDF7B8FCB8
:103FA000012103A80A228DE807000B4622460E21B4
:103FB0000F48FDF787FE80B99DF80C0010280CD142
:103FC0000D21022000F058F838B90A20FDF7A0FCB6
:103FD0000121022000F050F810B1012004B010BD02
:103FE0000520FDF795FC0020F8E7000000180240CE
:103FF0009402002010B586B004460A22062103A8C8
:104000008DE80700012303220E211848FDF75AFE10
:1040100010B1012006B010BDBDF90C10BDF90E00A5
:1040200000EE101ABDF91020F8EEC00A9FED100A3C
:1040300080EE801ADFED0F0A21EE201A84ED001ABF
:1040400001EE100A0020F8EEC11A81EE801A21EE6E
:10405000201A84ED011A01EE102AB8EEC11AC1EE41
:10406000001A21EEA00A84ED020AD3E79402002090
:10407000333353400000C84203B583B00A23012202
:1040800004A98DE80E00134602460E210248FDF7F2
:104090001BFF05B000BD0000940200200F4810B5C2
:1040A0000D4901600321416000214FF4102281601D
:1040B000C0E903124FF40012426101764176817625
:1040C000C17601774177FDF7F6F8002803D0BDE807
:1040D0001040FCF746BE10BD0064004044020020C2
:1040E000104810B50E4901600321416000214FF4D2
:1040F00010228160C0E903124FF400124261017680
:10410000012242768176C27601774177FDF7D3F8B6
:10411000002803D0BDE81040FCF723BE10BD00000E
:10412000006800406C020020094808B5016841F4AD
:10413000001101600068002200F4001000900521C9
:104140000C20FEF73BF8BDE808400C20FEF728B82D
:104150003038024010B5194A1021012002F00AFD42
:10416000174C164A102160611832012002F002FD3E
:10417000124AA061B43A0021124802F027FD0F4A0A
:104180002060903A0021104802F020FD0B4A606048
:104190006C3A00210D4802F019FD084AA060483A27
:1041A00000210B4802F012FD044AE060243A00218D
:1041B000084802F00BFD206110BD0000B493000818
:1041C00000000020BB52000825580008F5590008DF
:1041D00075590008F55700082DE9F04F87B01421F4
:1041E0006846FCF785F959480025016841F002014D
:1041F0000160016801F002010591016841F0400190
:104200000160016801F040010591016841F0010180
:104210000160016801F001010591016841F00801A8
:104220000160016801F008010591016841F0040195
:104230000160016801F004010591016841F4807199
:104240000160016801F480710591016841F020016D
:104250000160016801F020010591016841F08001D1
:104260000160016801F080010591016841F01001D1
:1042700001600068DFF8D88000F01000059000228F
:1042800003214046FDF74EFCDFF8C8A00022402184
:104290005046FDF747FCDFF8C0904FF480560022EF
:1042A00031464846FDF73EFCDFF8B0B00122102150
:1042B0005846FDF737FC4FF460470022394628483E
:1042C000FDF730FC012211462548FDF72BFC0320A9
:1042D00001248DE83100694640460395FDF72AFB2D
:1042E00040208DE83100694650460394FDF722FBDB
:1042F0000096CDE90145694648460395FDF71AFB4E
:104300000820CDE90005694650460295FDF712FBED
:104310001020CDE900040226CDE902466946584640
:10432000FDF708FB0097CDE9014569460C48039568
:10433000FDF700FBCDE90246009469460848019468
:10434000FDF7F8FA07B0BDE8F08F00003038024002
:104350000014024000180240001C0240000002400D
:10436000000402400D4810B50B4901600C49416042
:1043700000214FF480428160C0E9031241618161F4
:10438000C1610162FDF7DAFB002803D0BDE81040EF
:10439000FCF7E7BC10BD0000005C00409402002068
:1043A000801A0600104810B50E4901604FF4827162
:1043B0004160002102228160C0E9031201224261B2
:1043C000520282612022C0E90721416281620A21F2
:1043D000C162FEF7E7F9002803D0BDE81040FCF702
:1043E000C0BC10BD00300140E802002010B596B0FE
:1043F00000240F9410941194129413941C21684675
:104400001494FCF775F8202107A8FCF771F82E48E2
:104410002C4901605321C0E9011444F61F61C0E931
:1044200003148021C0E90541FEF72CFD08B1FCF71B
:1044300098FC4FF480500F900FA92348FEF7ECFD35
:1044400008B1FCF78EFC2048FEF799FF08B1FCF795
:1044500088FC139413A91C481494FEF7CBFC08B1F4
:10446000FCF77FFC602000904FF4FA70CDE9010466
:104470000394049405940022694613480694FEF7B9
:1044800018FF08B1FCF76DFC042269460E48FEF7E0
:1044900010FF08B1FCF765FC0794089409944FF4E9
:1044A00000500A94CDE90B4007A907480E94FEF787
:1044B00076FC08B1FCF755FC0348FEF7B5FE16B0D4
:1044C00010BD0000000001404003002010B596B070
:1044D00000240F9410941194129413941C2108A892
:1044E0001494FCF705F820216846FCF701F82A48E7
:1044F00028490160A721C0E9011444F61F61C0E901
:1045000003148021C0E90541FEF7BCFC08B1FCF7AB
:1045100028FC4FF480500F900FA91F48FEF77CFD38
:1045200008B1FCF71EFC1C48FEF729FF08B1FCF798
:1045300018FC139413A918481494FEF75BFC08B1F7
:10454000FCF70FFC6020089040F20A50CDE9090406
:104550000B940C940D94082208A90F480E94FEF7B2
:10456000A8FE08B1FCF7FDFB00944FF40050CDE924
:104570000440029401940394694607480794FEF7A7
:104580000EFC08B1FCF7EDFB0348FEF74DFE16B03C
:1045900010BD000000040140880300200C4810B545
:1045A0000A4901600B494160002181600C22C16011
:1045B000C0E904128161C161FFF7C2F8002803D08D
:1045C000BDE81040FCF7CDBB10BD00000048004026
:1045D000D0030020A08601000C4810B50A490160F4
:1045E0004FF4E1314160002181600C22C160C0E9DB
:1045F00004128161C161FFF7A3F8002803D0BDE870
:104600001040FCF7AEBB10BD0014014018040020A0
:1046100070B52DED048BF0EE608AF0EE400A9FED50
:10462000278A9FED279A80EE880AF0EE490A02F069
:104630006DF810EE105A88EE880AF0EE490A02F082
:1046400065F8204CB5F13F4F02D99FED1F0A0CE0F1
:104650004FF07C518D4202DD9FED1C0A05E010EE0B
:10466000100A884203DD9FED1A0A84ED020A9FEDCD
:10467000198A4FF4FA760520F0EE480A94ED020A02
:1046800002F0E9FABDEEC00A10EE100A06FA80F553
:10469000F0EE480A062094ED020A02F0DCFABDEEC4
:1046A000C00A10EE100A06FA80F00B490D8148810D
:1046B00001200874BDEC048B70BD0000000025448F
:1046C000CDCCCC3DC00100200000000000003ECA5F
:1046D00000008CCAA69B443B2402002070B52DED3F
:1046E000048BF0EE608AF0EE400A9FED238A9FED86
:1046F000239A80EE880AF0EE490A02F007F810EEDD
:10470000105A88EE880AF0EE490A01F0FFFF1C4CAF
:104710004FF07C51B5F13F4F02D9DFED1A0A03E0AB
:104720008D4203DDDFED180AC4ED010AB5EEC00AC3
:104730000125F1EE10FA03D12570BDEC048B70BD9C
:1047400010EE100A8842F8DD20780128F5D1607853
:10475000012803D0A078022806D009E0012000F04B
:10476000F1FB0220607003E0002000F0EBFB6570BD
:1047700000202070E1E7000000002544CDCCCC3DB6
:10478000C001002000000000000068C870B52DEDD9
:10479000048BB0EE609AF0EE400A9FED2F8ADFEDB9
:1047A0002F9AF0EE418A80EE880AF0EE690A01F055
:1047B000ADFF10EE105A89EE080AF0EE690A01F01A
:1047C000A5FF10EE104A88EE880AF0EE690A01F0A3
:1047D0009DFF4FF07C562248B0EE408A4FF03F429A
:1047E000B54202DD4FF47A7103E0954203D940F2FD
:1047F0000A510068C1631B484FF40051B44201DD07
:10480000012202E0944202D90022FDF78BF9B5EEB5
:10481000C08A0125F1EE10FA134C03D1E570BDEC0E
:10482000048B70BD18EE100AB042F8DDE078012864
:10483000F5D1A078012802D0022806D009E0012095
:1048400000F08CFB0220A07003E0002000F086FB4B
:10485000A5700020E070E2E700002544CDCCCC3DFF
:104860008803002000040240C0010020FEE7FEE7AC
:1048700010B504462DED048BF0EE608AB0EE409A40
:1048800001F0B6FC10EE100A3149B0EE408A8842C1
:104890000ADA9FED300A84ED040A94ED020A84EDF1
:1048A000050ABDEC048B10BDF0EE490AB0EE680AB3
:1048B00001F0CEFA02F040FE02F0E2F8F0EE408A9B
:1048C0009FED250A38EE800A02F0DAF8F0EE409A01
:1048D000D4ED030AB0EE680A03F0B0FAB0EEC09A65
:1048E000D4ED030AB0EE690A03F0A8FA207FB0EE17
:1048F000C00AF2EE000A40B179EE200AF4EEC00AD6
:10490000F1EE10FA09D200200FE030EE200AB4EEEA
:10491000C90AF1EE10FA08D201202077C4ED059AF9
:10492000B1EE480A84ED040A04E02077C4ED058A5C
:1049300084ED048A606904F067FC41EC100BFBF71E
:104940009FFE84ED060A94ED050A84ED020AA8E7AD
:10495000CDCC4C3D000000000000344310B5B0EE5B
:10496000602A2DED048BF0EE418AB0EE408A0400FF
:104970009FEDA51A23D094ED120A72EE480A84ED39
:10498000130AD4ED111AF5EEC08AC4ED121A84EDA3
:10499000072AF1EE10FA84ED088AC4ED110A04D951
:1049A00018EE900AB0F17C5F01DDDFED988ADFED53
:1049B000989A9FED989A94F8580028B10FE0B0EEBD
:1049C000410ABDEC048B10BD84ED148A84ED152AD8
:1049D00084ED198A84ED1A1A012084F8580032EE09
:1049E000480A20788C49B0EEC00A30B1012853D073
:1049F00002287CD003287BD003E194ED012A62EEEB
:104A0000202AC4ED0A2ABCE094ED0B0A94ED021AA8
:104A100001EE200A84ED0B0A94ED061AB1EE412A4C
:104A2000B4EEC20AF1EE10FA7ED2B0EE420A00BF36
:104A300084ED0B0A02E000BF84ED0B1A94ED0F0A1F
:104A400084ED100A94ED0E0A84ED0F0A30EEE10AAF
:104A500084ED0E0AD4ED030A20EE800A84ED0C0AE0
:104A6000D4ED0B0A72EEA00A30EE800AD4ED050AEE
:104A7000B1EE601AB4EEC01AF1EE10FA02DDB0EE3B
:104A8000410A06E0F4EEC00AF1EE10FA01D2B0EEEF
:104A9000600A84ED090AB4E0F2EE042A94ED011AEA
:104AA00080EE222AB7EE000A21EE201A84ED0A1ABF
:104AB00072EE002A80EE222A94ED020A60EE202A8D
:104AC00094ED0B0A70EEE10A02EE820A84ED0B0A05
:104AD00094ED0F2A84ED102A94ED0E2A84ED0F2A0E
:104AE000C4ED0E0AD4ED031A61EEA01A01E02DE028
:104AF00056E0C4ED0C1AD4ED060AB4EEE00AF1EE6D
:104B000010FA06DCF1EE600AB4EEE00AF1EE10FAFB
:104B100001D2C4ED0B0A94ED0B0A31EE000A30EE1F
:104B2000210A84ED090A00E031E0D4ED050AB4EE73
:104B3000E00AF1EE10FA06DCF1EE600AB4EEE00AEB
:104B4000F1EE10FA5DD2C4ED090A5AE010EE900AB7
:104B5000B0F18B4F02DD30EEC90A06E010EE900A8C
:104B600010F16A5F03D930EE890A84ED110A94EDE1
:104B7000010AD4ED110A60EE202AB0EEE00AC4ED7D
:104B80000A2A10EE100A8842BFF656AF3CE7B4EE90
:104B9000C10AF1EE10FA7FF74BAFB0EE410A47E7DA
:104BA000F0EE491AB0EE691AF0EE680AB0EE420A69
:104BB000204602F07BFE94ED190AF0EE491A84EDCE
:104BC000070AB0EE691AF0EE680AB0EE480A20460D
:104BD00001F0EAFDD4ED050AB1EE601AB4EEC01A98
:104BE000F1EE10FA02DDB0EE410A06E0F4EEC00A82
:104BF000F1EE10FA01D2B0EE600A84ED090A84EDFC
:104C0000148A94ED090ADCE6000000000AD7233C70
:104C10000000804500000046000096432DE9F05F4B
:104C2000594E00252DED068BDFED588A9FED588AF1
:104C300006F568799FED579A06F5E86706F52E6A3E
:104C400006F5686BDFED549A06F591589FED53AA6F
:104C500005EB4500C0EB451406EB8400F0EE680A56
:104C6000B0EE480A4E4A012100F09EF84C4A09EB8A
:104C70008400F0EE490AB0EE480A1032002100F03C
:104C800093F8474A07EB8400F0EE680AB0EE480A52
:104C9000203A002100F088F8414A0AEB8400F0EE47
:104CA000490AB0EE480A103A002100F07DF83C4A6B
:104CB0000BEB8400F0EE480AB0EE690A20320321C3
:104CC00000F072F8364A08EB8400F0EE4A0AB0EEC3
:104CD000480A3032032100F067F86D1C042DB7DB61
:104CE000F0EE4AAA9FED2FAA04245E4604EB44008E
:104CF000C0EB44152448F0EE680A00EB8500B0EEE6
:104D0000480A274A012100F04FF8254A09EB85009F
:104D1000F0EE490AB0EE4A0A1032002100F044F8E1
:104D20001F4A07EB8500F0EE680AB0EE480A203A09
:104D3000002100F039F81A4A0AEB8500F0EE490A22
:104D4000B0EE4A0A103A002100F02EF8144A06EBA1
:104D50008500F0EE480AB0EE690A2032032100F027
:104D600023F80F4A08EB8500F0EE6A0AB0EE480A15
:104D70003032032100F018F8641C082CB6DBBDECBF
:104D8000068BBDE8F09F0000FC5000200080BB4572
:104D900000401C460000964300409C460000C8426C
:104DA0008001002000803B4500283ED0002A3CD0F6
:104DB000017092ED001A002180ED011A92ED011AA6
:104DC00080ED021A92ED021A80ED031A92ED031A99
:104DD00080ED041A80ED050A9FED140AC0ED060A65
:104DE00080ED1B0A9FED120A80ED1C0A9FED110A4F
:104DF00080ED100A80ED0F0A80ED0E0A80ED090AA1
:104E000080ED0C0A80ED0B0A80ED0A0A80ED130A92
:104E100080ED120A80ED110A80F858109FED060A05
:104E2000012180ED170A80F86010704700401C4691
:104E3000005043470000000000007A430D4910B5C0
:104E4000F0EE401A01EB4011B0EE601A11ED050AC8
:104E500000EB4001C1EB40110748B8EEC00A00EB7F
:104E60008104A4F17400F0EE610AFFF777FD14ED00
:104E7000140A10BDDC4E0020DC5B00200D4910B58B
:104E8000F0EE401A01EB4011B0EE601A11ED050A88
:104E900000EB4001C1EB40110748B8EEC00A00EB3F
:104EA0008104A4F17400F0EE610AFFF757FD14EDE0
:104EB000140A10BDDC4F00201C6300200E4910B501
:104EC00001EB4011F0EE401A31F91E1CB0EE601AF1
:104ED00000EE101A00EB4001C1EB40110748B8EE9C
:104EE000C00A00EB8104A4F17400F0EE610AFFF740
:104EF00035FD14ED140A10BDDC4E00203C58002096
:104F00000E4910B501EB4011F0EE401A31F91E1CAC
:104F1000B0EE601A00EE101A00EB4001C1EB401138
:104F20000748B8EEC00A00EB8104A4F17400F0EE6B
:104F3000610AFFF713FD14ED140A10BDDC4F0020C9
:104F40007C5F0020012804D0002202210248FCF7E7
:104F5000E9BD0122F9E7000000140240054B4FF4BF
:104F60004041012803D000221846FCF7DBBD012296
:104F7000FAE7000000040240F8B5044640684FF428
:104F80008273984221D1A0684FF48065B0F5004F3C
:104F900001D0A8420AD12068066826F040060660C3
:104FA0006068984211D1A068A8420ED000920B46CA
:104FB00000228021204600F053F8002804D0606DC4
:104FC00040F0200060650320F8BD00920B460022EF
:104FD0000121EFE7F8B515460E460B460092044650
:104FE0000122022100F03CF8A0B9134813490068DF
:104FF000B0FBF1F04FF47A71484300906068B0F56F
:10500000827F0DD13346002280212046009500F09A
:1050100027F870B1606D40F0200060650320F8BD96
:10502000009830B1401E009020688068C0430006A0
:10503000F6D50020F8BD00002C00002000366E01DF
:1050400001B582B00A200090012301AA02A90348F9
:10505000FDF7ABFD9DF804000EBD0000E802002046
:105060002DE9F8431E46914688460446089DFCF704
:105070005FFD401B351AFCF75BFD074626480068BC
:10508000C0F3CB3068430AE0701C09D0FCF750FD38
:10509000C01BA8420FD275B10098B8B3401E009053
:1050A0002068816838EA010033D000214945EBD1FE
:1050B0000020BDE8F8832068416821F0E0014160EC
:1050C0006068B0F5827F0BD1A068B0F5004F02D0C8
:1050D000B0F5806F04D12068016821F040010160C3
:1050E000A06AB0F5005F09D12068016821F4005181
:1050F00001602068016841F400510160012084F8DA
:105100005100002084F850000320D2E7FFE700257B
:10511000C6E70121CAE700002C0000207CB5054647
:10512000087C0C4600281DD0B4F90610B4F9040020
:10513000CDE90001B4F90230B4F9002028466169D4
:10514000FBF7DAFCB4F90E10B4F90C00CDE900015C
:10515000B4F90A30B4F908202846A169FBF7CCFC61
:10516000002020747CBD000010B504469FED100A9D
:10517000C4E9001280ED030A80ED020A80ED070AFF
:1051800080ED080A4FF4FA70208240F6C410608265
:10519000DFED080A84ED050AC4ED060A204600F09A
:1051A00027F8D4E90001BDE81040FEF717B9000068
:1051B000000000000000344310B5002209490A48ED
:1051C000FFF7D2FF0848042206492430FFF7CCFF3E
:1051D0000648FDF7A5FEBDE8104008210348FEF78C
:1051E000FDB80000400300205C6700208803002019
:1051F000D0ED050AF4EEC00AF1EE10FA01DDB0EED2
:10520000600A90ED061AB4EEC01AF1EE10FA01D25F
:10521000B0EE410A80ED020A428A018A30EE600A4D
:10522000531A01EE903A31EE601AF8EEE11A21EECF
:10523000800AC0EE010A00EE101AB8EE400A30EE05
:10524000800A00EE901AF8EE600AF4EEC00AF1EE61
:1052500010FA03DD00EE101AB8EE400A00EE902AB4
:10526000F8EE600AF4EEC00AF1EE10FA03D200EE96
:10527000102AB8EE400A80ED080A03C859B1042983
:1052800011D0BCEEC00A0829006810EE101A89B2CD
:1052900011D001647047BCEEC00A006810EE101A0D
:1052A00089B241637047BCEEC00A006810EE101A64
:1052B00089B281637047C1637047FEE72DE9F04111
:1052C000DFF86080184E194F00242DED028BB0EEF0
:1052D000408A00BF08EB4415F0EE480A95ED060A37
:1052E000601C01F0C9FCBDEEC00A10EE100A26F8E1
:1052F000140095ED040A01F075FBF0EE480A601CFD
:10530000FFF7DCFDBDEEC00A10EE100A27F814000E
:10531000641C042CDEDB012030743874BDEC028B7D
:10532000BDE8F081CC6600200402002024020020A9
:105330001748DFED160A9FED170AC0ED000A80ED51
:10534000010AC0ED080A9FED141ADFED140A80ED82
:10535000091AC0ED100A80ED111AC0ED180A80ED8F
:10536000190A00219FED0E0A0B4600BF00EB411207
:10537000491C82ED020A82ED040A82ED050A82EDE3
:10538000060A13770429F1DB70470000AE47E13EBF
:10539000CC6600200AD7E3BE0AD7E33EAE47E1BEA3
:1053A000000000000D489FED0C0A0C4A80ED000A39
:1053B00080ED010A80ED020A0020903A02F110010E
:1053C00002EB800383ED000A01EB4013401C83EDE8
:1053D000040A0428F4DB7047000000004C6700203A
:1053E00070B5194D00242DED048BF0EE418AB0EE1E
:1053F000408AB0EE609A00BF05EB441090ED010AC0
:10540000D0ED000A28EEC00A60EEA80A38EE000AC5
:1054100079EE200AFFF72CFA641CE4B2042CEBD3DB
:10542000FBF7A2FCFBF7C0FB5FF0000005EB4011AF
:10543000401CD1ED040A042860EE800AC1ED040A84
:10544000F4DBBDEC048B70BDCC66002010B54FF0D2
:10545000E020006903F0C0F8012803D0BDE8104047
:1054600002F080BD10BD000030B593B03021684619
:10547000FBF73EF814210CA8FBF73AF81D4800256D
:10548000016841F080510160006800F08050119087
:105490001948016841F4804101600068022400F469
:1054A0008040119001200090000401908001CDE91E
:1054B000064006200890A820CDE9090404200B909E
:1054C0006846FCF7B9FF08B172B6FEE70CA90F20D9
:1054D00081E831004FF4A0500F904FF480501090AD
:1054E00005210CA8FCF79CFE002801D072B6FEE74F
:1054F00013B030BD403802400070004002480168DF
:1055000041F470010160704788ED00E00148FDF74B
:10551000F2BD0000C0040020F0B50268274B284D02
:10552000284E294F294C4FF0804C984209D06045B5
:1055300007D0A84205D0B04203D0B84201D0A04263
:1055400004D122F0700E4A6842EA0E0298421BD043
:10555000604519D0A84217D0B04215D0B84213D038
:10556000A04211D01A4DA8420ED01A4DA8420BD01D
:10557000194DA84208D0194DA84205D0184DA8428F
:1055800002D0184DA84203D122F44075CA682A43BC
:105590004D6922F080022A438D68C5620D688562DC
:1055A000984201D0A04201D109690163016841F02C
:1055B00004010160012141610260F0BD0000014071
:1055C0000004004000080040000C004000040140BE
:1055D00000400140004401400048014000180040E4
:1055E000001C00400020004010B501F01F03012105
:1055F000046A99408C430462016A9A401143016233
:1056000010BD10B5846842EA032224F47F440A43A3
:105610002243826010BD826822F070020A4342F089
:105620000701816070470000F0B5036A026A22F04A
:105630000102026242688469124E24F073050C680C
:105640002C4323F002058B682B430D4DA84201D05B
:10565000B04205D123F00807CB683B4323F0040395
:10566000A84201D0B04205D14D6922F440721543E1
:105670008A692A4342608461496841630362F0BDDC
:105680000000014000040140F0B5026A036A23F003
:1056900010030362436884690D6824F4E64444EA15
:1056A00005248D6822F0200242EA05120F4D104EAB
:1056B000A84201D0B04206D1CF6822F0800242EA6F
:1056C000071222F04002A84201D0B04207D14D6932
:1056D00023F4406343EA85038D6943EA850343600D
:1056E0008461496881630262F0BD000000000140EE
:1056F00000040140F0B5026A036A23F48073036278
:105700004368C46922F4007224F073050C68124ED9
:105710002C438D6842EA05220E4DA84201D0B042CA
:1057200006D1CF6822F4006242EA072222F48062A6
:10573000A84201D0B04207D14D6923F4405343EA57
:1057400005138D6943EA05134360C4614968C16369
:105750000262F0BD000001400004014030B5046A5F
:10576000026A22F4805202624268C3690D6823F41F
:10577000E64343EA05238D6824F4005444EA0534E3
:10578000084DA84202D0084DA84204D14D6922F428
:10579000804242EA85124260C36149680164046242
:1057A00030BD0000000001400004014010B5036A54
:1057B000046A24F001040462846924F0F00444EAD9
:1057C000021423F00A020A438461026210BD10B57C
:1057D000036A046A24F010040462846923F0A003BD
:1057E00024F4704444EA023243EA01118261016206
:1057F00010BD000008B502F0FDFE00900649074804
:10580000FFF78CFC044906482031FFF787FC022192
:10581000684602F00DFAF1E704020020440200207D
:105820006C0200204FF0000845462DED028B2E46FD
:1058300086B04446374602F0DDFEDFF80C91DFF813
:105840000CA1DFF80CB19FED438A0490B0EE480A3A
:10585000FEF7AAFA00231A466946D9F8000001F0BB
:1058600057F918B9DDE90274DDE9005614F0FF00BC
:105870002BD004284FF0000034D037495A4600BFDF
:1058800002EB401393ED070A01EB4013401C83ED3C
:10589000030A0428F4DB00EE107A3048B1EE401A17
:1058A00000EE106AD0ED0A1AF1EE400A00EE105A2E
:1058B000B1EE400AFFF794FDB0EE480AFFF7FEFC98
:1058C000012104A802F0B4F9C0E7FFF76BFD002046
:1058D0005146424621F81020401C0428FADB8AF881
:1058E0001020EDE71C4A594601EB401393ED070ADF
:1058F00002EB4013401C83ED030A0428F4DB184834
:10590000017889B11749184A91ED000A82ED000A21
:10591000164A91ED010A82ED000A91ED020A14493E
:1059200081ED000A80F800800C48D0ED0A1A10487A
:1059300090ED001A0D4890ED000A0B48F1EE400A78
:1059400090ED000AB4E700001400002024020020BB
:10595000DC4F00206F12833ACC660020DC69002007
:10596000CF010020D0680020E0010020E4010020E9
:10597000E801002086B0002400940194029403946E
:1059800002F038FE194D049000231A466946286833
:1059900001F0BEF880B99DF8000001281ED0022851
:1059A0000FD0032814D00020FFF7CCFA0020FFF717
:1059B000D5FA0F4804810474032104A802F038F9D1
:1059C000E2E7DDED030A9DED020AFEF787FEF3E74D
:1059D00001A890EC030AFEF7D9FEEDE7DDED030A1E
:1059E0009DED010AFEF714FEE6E700001800002016
:1059F000040200202DED028B8AB000200690079053
:105A0000089005900190029003900546049002F0E2
:105A1000F1FD9FED568A564CDFED568A564E574F94
:105A20000990A07A022804D0032807D001280FD0BB
:105A300017E0E07A022814D1002512E0E07A03286A
:105A400002D0012802D00CE001250AE0032508E07D
:105A5000E07A032802D0012802D002E0022500E00B
:105A600004258DF820508DF80450012D20D0022DF2
:105A700046D0032D60D0042D09D0CDED078ACDEDA1
:105A8000068ACDED058ACDED028ACDED038A02238B
:105A9000002205A9306802F013FB0223002201A9AD
:105AA000386802F00DFB0A2109A802F0C1F8B8E736
:105AB000B4F900000021B5EE001AF0EE480AB0EE8D
:105AC000080A01F099FD8DED060AB4F902000121E2
:105AD000B5EE001AF0EE480AB0EE080A01F08CFDAF
