:020000040800F2
:1000000088A80024DD03000859C7000819AC0008BF
:1000100051C70008D1130008298901080000000019
:10002000000000000000000000000000714C01080A
:10003000D13800080000000031DD0008994F0108A8
:10004000FB030008FB030008FB030008FB03000898
:10005000FB030008FB030008FB030008FB03000888
:10006000FB030008FB030008FB030008E925000868
:10007000FB030008FB030008FB030008FB03000868
:10008000FB030008FB030008FB030008193B000802
:10009000C93B0008293B0008D93B0008FB030008C6
:1000A000FB030008FB030008FB030008FB03000838
:1000B0005951010869510108FB030008FB030008BE
:1000C000FB030008FB030008FB030008FB03000818
:1000D000FB03000891670108FB030008FB0300080D
:1000E000FB030008FB03000800000000FB030008FE
:1000F000FB030008FB030008FB030008FB030008E8
:10010000FB030008FB03000879510108FB0300080A
:10011000FB030008FB030008FB030008FB030008C7
:10012000FB030008FB030008FB030008FB030008B7
:10013000FB030008FB030008FB030008FB030008A7
:1001400000000000000000000000000000000000AF
:10015000FB030008FB030008FB030008FB03000887
:10016000FB030008FB030008FB030008FB03000877
:10017000FB030008E1C70008FB03000800000000C3
:10018000FB030008FB03000891570108A157010871
:10019000FB030008FB030008FB030008FB03000847
:1001A000FB030008FB030008FB030008000000003D
:1001B000FB030008FB030008FB030008FB03000827
:1001C000FB030008FB030008000000000000000023
:1001D0000000000000000000FB0300080000000019
:1001E000000000000000000000000000000000000F
:1001F0000000000000000000FB030008FB030008F3
:10020000FB030008FB03000800000000FB030008DC
:10021000FB030008FB030008FB030008FB030008C6
:10022000FB03000800000000FB03000800000000C2
:10023000FB030008FB03000800000000FB030008AC
:10024000FB030008FB030008FB030008FB03000896
:10025000FB030008FB030008FB030008FB03000886
:10026000FB030008FB030008FB030008FB03000876
:10027000FB030008FB030008FB030008000000006C
:10028000FB030008FB030008FB030008FB03000856
:1002900000000000FB030008FB0300080000000052
:1002A00000000000FB030008FB030008B157010831
:1002B00081670108FB030008FB030008E93B000815
:1002C000F93B0008FB030008FB03000800F002F8FC
:1002D00000F074F814A696E8000CB244B344DA4572
:1002E00001D100F06BF8BAE80F000FA696E83000D5
:1002F000A5EB040504EB0607AAEB0704A7F1010729
:100300004FEA15154FEA3414A4F10104AC4201D3AD
:1003100000F054F813F0010F18BFFB1A43F001036B
:1003200000F001F8DBE7184728C6010068C60100A5
:100330000A444FF0000C10F8013B13F0070408BF0B
:1003400010F8014B1D1108BF10F8015B641E05D0A9
:1003500010F8016B641E01F8016BF9D113F0080F5E
:100360001EBF10F8014BAD1C0C1B09D16D1E58BFF0
:1003700001F801CBFAD505E014F8016B01F8016B27
:100380006D1EF9D59142D6D370470000704700002A
:100390000023002400250026103A28BF78C1FBD88E
:1003A000520728BF30C148BF0B6070471FB51BF014
:1003B000BDF900F051F91FBD10B510BD00F076F980
:1003C0001146FFF7F3FF19F08BFA00F094F903B42C
:1003D000FFF7F2FF03BC00F097F900000A488047DE
:1003E0000A4880470A480047FEE7FEE7FEE7FEE7C7
:1003F000FEE7FEE7FEE7FEE7FEE7FEE70548064903
:10040000064A074B70470000693A0008815001080E
:10041000CD02000898A6002088A8002498A80020F3
:1004200088A4002453EA020C00F069802DE9F04B07
:100430004FF00006002B1FBFB3FA83F503FA05F453
:1004400024FA05F65E4012BF1643B2FA82F502FAAC
:1004500005F4C5F120051EBF22FA05FC44EA0C0490
:10046000203556EA044C4FEA144418BF641C4FF080
:1004700000084FF00009904271EB030C39D30029BA
:1004800019BFB1FA81F701FA07F6B0FA80F700FA5E
:1004900007F6C7F120071EBF20FA07FC46EA0C0644
:1004A0002037B6FBF4FCA7EB0507103F07F01F0B46
:1004B000CBF120062CFA06F60CFA0BFB44BFB34630
:1004C0000026202FA4BF5E464FF0000B5BEA060C0F
:1004D00008BF4FF0010B19EB0B0948EB0608ABFB0B
:1004E000027C06FB02CC0BFB03CCC01B71EB0C01A6
:1004F000C1E70B46024641464846BDE8F08B13B5BE
:10050000084318BF4FF0FF300146AFF30080BDE84D
:100510001C407047032A40F2308010F0030C00F0BA
:10052000158011F8013BBCF1020F624498BF11F82D
:1005300001CB00F8013B38BF11F8013BA2F10402E6
:1005400098BF00F801CB38BF00F8013B11F003035E
:1005500000F02580083AC0F0088051F8043B083AC2
:1005600051F804CBA0E80810F5E7121D5CBF51F864
:10057000043B40F8043BAFF30080D20724BF11F8DE
:10058000013B11F801CB48BF11F8012B24BF00F843
:10059000013B00F801CB48BF00F8012B704710B5B4
:1005A000203AC0F00B80B1E81850A0E81850B1E82C
:1005B0001850A0E81850203ABFF4F5AF5FEA027C6B
:1005C00024BFB1E81850A0E8185044BF18C918C09B
:1005D000BDE810405FEA827C24BF51F8043B40F83C
:1005E000043B08BF7047D20728BF31F8023B48BF21
:1005F00011F8012B28BF20F8023B48BF00F8012B5F
:1006000070474FF0000200B51346944696462039D5
:1006100022BFA0E80C50A0E80C50B1F12001BFF4BB
:10062000F7AF090728BFA0E80C5048BF0CC05DF821
:1006300004EB890028BF40F8042B08BF704748BF6F
:1006400020F8022B11F0804F18BF00F8012B7047E3
:10065000704770477047000008487CB578440090A8
:1006600007487844009C0546019004E02046016854
:1006700008448047241DAC42F8D17CBD30C3010042
:100680002EC3010010B500F009F8006810BD10B5C8
:10069000044600F003F8046010BD000000487047F5
:1006A0002002002400487047200200247546FFF70E
:1006B000F9FFAE4605006946534620F0070085461F
:1006C00018B020B5FFF79AFEBDE820404FF00006B5
:1006D0004FF000074FF000084FF0000BAC46ACE8BD
:1006E000C009ACE8C009ACE8C009ACE8C00921F019
:1006F00007018D46704710B50446AFF300802046D1
:10070000BDE81040FFF763BE01491820ABBEFEE70D
:10071000260002007047000070B58CB045F65C0101
:1007200044F6CC44C2F2000145F2585605468842D0
:10073000C2F20004C2F200460BD045F6FC00C2F241
:10074000000085421AD00020B54208BF04F17800AD
:1007500004468CB1E0680130E060204600F0B8F853
:1007600045B1284605F064FA606301A9284605F002
:1007700063FA38B1B5420DD00CB070BD3C34002CDA
:10078000E8D1F9E70198039984F8380084F8391022
:10079000B542F1D144F690402168C2F200000160F8
:1007A00061684160A1688160E168C160216901619F
:1007B00061694161A1698161E169C161216A016287
:1007C000616A4162A16A8162E16AC162216B01636F
:1007D000616B416394F8381080F8381094F8391040
:1007E00080F839100CB070BD70B58CB045F65C0364
:1007F00044F6CC44C2F2000345F2585605469842EE
:10080000C2F20004C2F200460BD045F6FC00C2F270
:100810000000854223D00020B54208BF04F17800D3
:100820000446D4B1204631B9606800F1010060602F
:1008300022B104F10800016801310160204600F096
:1008400047F845B1284605F0F3F9606301A9284649
:1008500005F0F2F938B1B5420DD00CB070BD3C34A2
:10086000002CDFD1F9E70198039984F8380084F867
:100870003910B542F1D144F690402168C2F200002F
:10088000016061684160A1688160E168C1602169BF
:10089000016161694161A1698161E169C161216AA7
:1008A0000162616A4162A16A8162E16AC162216B8F
:1008B0000163616B416394F8381080F8381094F844
:1008C000391080F839100CB070BD00000000000035
:1008D00010B5044606F08CF8216A39B3216A411A32
:1008E000B1F57A7F38BF10BD2268636AD21A4FF41F
:1008F0007A7C02FB0CF2B2FBF1F222616268A36A1D
:10090000D21A02FB0CF2B2FBF1F26261A268E36A56
:10091000D21A02FB0CF2B2FBF1F2A261E268236B85
:10092000D21A02FB0CF2B2FBF1F1E1612062206805
:1009300060626068A062A068E062E068206310BD49
:10094000A0B141F600010068C4F20101884211D053
:1009500041F20001C4F20101884209D047F600418A
:10096000C4F20001884201D101207047FF20704786
:10097000002070470220704746F6B8010228C2F2F4
:10098000000101EB401188BF0021084670470000BC
:10099000022801D90120704746F6B80C4201C2F284
:1009A000000C00230CEB40114CF802304BF6746243
:1009B000C0F60102CB618B6152F8200020224B610E
:1009C0000B61CB608B604B6009F0D2BA0000000075
:1009D00002280BD8002918BF002A07D04BF6746CE8
:1009E000C0F6010C5CF820000AF092B801207047B4
:1009F0002DE9F04F8BB044F63D60C2F20040017823
:100A0000002900F0B280EFF3108172B644F658412D
:100A1000C2F200010024D1E908320A920A68019268
:100A20004A6802928A680392CA6804920A69059227
:100A30004A6906928A690792C96909930891047004
:100A400001A862B6015D012903D00134082CF9D157
:100A5000FF2444F2ED5B44F6824744F6FC78C2F290
:100A6000004BC2F20007C2F200489DF80D009DF84D
:100A700011108BF8000044F6814A397044F6F8777B
:100A800088F810009DF80C00C2F20047C2F2000A7C
:100A900088F81400BDF80F009DF8122088F8111096
:100AA0009DF813309DF80E10A8F81600D8F818001D
:100AB0003A70DDF814908AF80030069F88F80040FC
:100AC000079EC8F804900130C8F80870C8F80C6098
:100AD00088F8122088F8133088F81510C8F8180024
:100AE00005F086FF48F2B402C8F82000C2F20042C6
:100AF000012088F81C00002188F82C1040F2040521
:100B0000117044F2EC539BF80020C2F20005C2F2CF
:100B10000043012A2A4604BF1A462B46107019705A
:100B20002878012824D101EE106A00EE907A00EEB8
:100B3000109A45F29400E1B2C2F200000FF024F8DE
:100B400044F682409AF80030C2F20000017844F680
:100B5000F870C2F20040027845F22830C2F200403C
:100B60000BB0BDE8F04F0FF003BC0BB0BDE8F08F49
:100B700045F29400C2F2000010F03AFE45F228302F
:100B8000C2F200400BB0BDE8F04F0FF0E9BC00002E
:100B90002DE9F041B6B00446007D98460E4648B3B4
:100BA000A1794BF694434BF68060C0F60103C0F682
:100BB0000100A2F11907012908BF1846042F19D313
:100BC00082B11E2A16D00E23012908BF0F23002C44
:100BD00008BF0E23934205D300EB421010F81C0C03
:100BE000022807D026B13046154610F001FE2A46ED
:100BF000002020751E2A22704FF000002071C4F8DA
:100C000020804FF4407160822075E0752183A062DE
:100C1000E06247D8DFE812F0960246004600460040
:100C20004600460046004600460046004600460094
:100C30004600460046004600460046004600460084
:100C400046004600460046001F001B019C0169004B
:100C5000C0001F00EE0000250135E8B20CF01CFEBC
:100C6000042DF9D1002204F14C000421CCF2F01241
:100C7000013940F8042FFBD146F25410C2F20000B3
:100C8000C16F2164D0F89800606446F23420C2F24B
:100C90000000C16FA164D0F89800E06400202066D5
:100CA00060664FE24FF00E001CB1A179012908BF28
:100CB0000F20904280F0A081162A40F043821EB19E
:100CC0000121304610F054FC00224FF48070A4F84B
:100CD00003000020A07604F14C000421CCF2F012B5
:100CE000013940F8042FFBD1C6E700215020CCF297
:100CF000F01100BF215004306028FBD146F254109F
:100D0000C2F20000C16F2164D0F89800606446F21E
:100D10003420C2F20000C16FA164D0F89800E064F2
:100D20004FF000002066606616B1304610F060FD9E
:100D3000684610F0D5F99DF81A0000281CBF9DF8F0
:100D40001D00002840F09E81002E00F0F581304605
:100D500010F06EFB00213046002510F009FC9FEDDD
:100D6000E60A3046B0EE401ADFEDE40A10F094FCDB
:100D700001202075684610F0B3F99DF81A0000288C
:100D80001CBF9DF81D00002840F08481207E0028B3
:100D900040F0D881012584E100215020CCF2F011EF
:100DA000215004306028FBD146F25410002EC2F2CC
:100DB0000000C16F2164D0F89800606446F23420CE
:100DC000C2F20000C16FA164D0F89800E0644FF057
:100DD00000002066606600F08280304610F008FD5A
:100DE000304610F025FB0421304610F0C1FBDFED4A
:100DF000DA0A58E000215020CCF2F01121500430E2
:100E00006028FBD146F25410002EC2F20000C16FE0
:100E10002164D0F89800606446F23420C2F20000E9
:100E2000C16FA164D0F89800E0644FF00000206624
:100E3000606654D0304610F0DBFC304610F0F8FA13
:100E40000421304610F094FBDFEDC50A2BE00021B1
:100E50005020CCF2F01100BF215004306028FBD1AB
:100E600046F25410C2F20000C16F2164D0F898001D
:100E7000606446F23420C2F20000C16FA164D0F871
:100E80009800E0644FF00000206660663EB3304694
:100E900010F0AEFC304610F0CBFA0421304610F0D2
:100EA00067FBDFEDAB0A9FEDAB0A3046B0EE401AB0
:100EB00010F0C6FA002800F03C81607931464246C5
:100EC00040F004006071204613F0BAFF002840F0A3
:100ED000398104222046314602F076FD32E1E07885
:100EE0006179002841F0040060712BD0A07E48BBDE
:100EF000E07E38BBA079012824D1013840F20111ED
:100F0000B0FA80F061830121A4F80310A17B4009AD
:100F10002077A071E0714FF000006071C4F81100FB
:100F2000A060207321B1E072A4F80D00E07360703E
:100F300000211D2220464346FFF72AFE207817286D
:100F400040F0008100210422204602F03DFDF9E03E
:100F500000215020CCF2F011215004306028FBD148
:100F600046F25410C2F20000C16F2164D0F898001C
:100F7000606446F23420C2F20000C16FA164D0F870
:100F80009800E0644FF000002066606616B13046BD
:100F900010F02EFC684610F0A3F89DF81800002809
:100FA0001CBF9DF81B00002870D1002E00F0C480EB
:100FB000304610F03DFA00213046002510F0D8FAF6
:100FC0009FED640A3046B0EE401ADFED640A10F07F
:100FD00063FB01202075684610F082F89DF8180028
:100FE00000281CBF9DF81B0000285ED1E07D002872
:100FF00040F0A88001255EE0A0794BF694414BF6C5
:101000008063C0F60101C0F60103012808BF0B464A
:101010009FED541ABBEE0E2A03EB421717F81A0C79
:1010200010F0030508BF032517F81C1C657617EDA3
:10103000060A17ED053A80FE410A17ED044A17ED3E
:10104000035A83FE413A84FE414A022985FE411A31
:1010500080FE020A83FE023A84ED140A84FE024AEC
:1010600084ED153A81FE020A84ED164A84ED170AD2
:1010700046D0012923D0002964D117F81B0C00F0B9
:1010800033FD5FE0029841285CDC5DE60098232890
:1010900058D38AE70298B0F1FF3F7FF777AE4FF061
:1010A00000082576C4F82C804CE00098B0F1FF3F92
:1010B0009CDD4FF00008E575C4F8288042E000F0A0
:1010C000FBFC46F25410C2F20000C16F2164D0F85C
:1010D0009800606446F23420C2F20000C16FA1643F
:1010E000D0F89800E06417ED020A657684ED180ADE
:1010F00084ED190A26E000BF000000000AD7A33DD6
:10110000D6B1304610F074FB304610F091F904214E
:10111000304610F02DFA9FED0F0A57ED020AB0EE9F
:10112000401A304610F08CF918B10423204631469D
:1011300005E00120207505E00021042320464246F9
:1011400011F082FF204617F053FB36B0BDE8F08166
:101150008FC2F53C000000000AD7A33B0AD7A33D8D
:10116000CDCC4CBE00008243002B08BF7047F0B5C9
:1011700081B00F460546B02118461C461646FFF7BB
:1011800040FA0020A0714CF6BA0045F6B401C0F652
:101190000100E0610120E0724FF24910C4F2B74152
:1011A000616600212770C4F2E74020664FF07E5050
:1011B000CBF68071C4E91A01C4E91C01A167E0679C
:1011C000BEB104F19E009E2172180231A6295288F8
:1011D00020F8022FF8D10020311822180230B1F87F
:1011E000A8300228A2F8A830B1F8AC10A2F8AC10D0
:1011F000F2D0002D00F0A3802878AE79AA78607034
:10120000E978A270E1704BF69443A988A671A18099
:10121000C0F601032989012E2181A97BD5F820C0C0
:10122000A1724BF68061C0F60101C4F810C008BF7E
:1012300019461E28D5F824E0C4F814E022D84CF64C
:10124000BA07C0F60107DFE800F03A1D1D1D1D1D9D
:101250001D1D1D1D1D1D1D1D1D1D1D1D1D1D1D1DBE
:101260001012282D14191B34320057A727E054A759
:1012700025E04CF61707C0F6010720E049A71EE05D
:1012800040A71CE00E23012E08BF0F23834212D279
:101290004CF60817C0F6010711E04CF27E67C0F665
:1012A00001070CE04CF26067C0F6010707E026A7D3
:1012B00005E02DA703E001EB401151F8207C002A46
:1012C00018BF0122B0F1170118BF01216B7EE76141
:1012D0001140E17113F0030108BF032116282173A7
:1012E00018BF002801D1E87C10B1AEEB0C0000E083
:1012F0000020A061002000BF2918221804308B6E46
:10130000136210280B6D1363096BC2F88010F3D1C0
:10131000002000BF2918221804308B6F1364D1F805
:1013200080309364D1F8883013650B6CC2F890302C
:1013300004280F6E9765896CC2F89810EAD001B046
:10134000BDE8F040704700BF5245434F5645525FDD
:10135000434841535349535F4241434B57415244E1
:101360005F323030000000005245434F5645525F17
:10137000414C4C5F4C4547535F4D494E55535F338D
:1013800030000000444F574E5F5052455041524587
:101390005F434841535349535F464F52574152446C
:1013A0005F350000444F574E5F4C415345525F41FB
:1013B0005050524F4143485F485F47545F363500B5
:1013C0004552524F52000000444F4E45000000006D
:1013D000FEE7000000000000AAB041F2883018F0DB
:1013E000BFFA40F2040A0DF1180BC2F2000A9FED99
:1013F000888AE9469FED879A9FED87AA7CE000BF27
:10140000B0EE480A01200CF06FFCBDEEC00A10EEF1
:10141000100AB0EE480AADF8000002200CF064FC9F
:10142000BDEEC00A10EE100AB0EE480AADF8020098
:1014300003200CF059FCBDEEC00A10EE100AB0EE0D
:10144000480AADF8040004200CF04EFCBDEEC00AC2
:1014500010EE100AB0EE480AADF8060005200CF0B8
:101460001FFCBDEEC00A10EE100AB0EE480AADF83F
:10147000080006200CF014FCBDEEC00A00260396FE
:1014800010EE100AB0EE480AADF80A0005200CF084
:101490002BFCBDEEC00A10EE100AB0EE480AADF803
:1014A000100006200CF020FCBDEEC00A059610EEE0
:1014B000100AADF81200384649460EF079FEBDF923
:1014C00008000022BDF90A10002302F0F1FABDF96C
:1014D0000000BDF90420BDF90210BDF9063002F08C
:1014E0002BFBBDF910000022BDF91210002302F001
:1014F00037FB012018F034FA18F02AFE9AF80000A1
:10150000012817D145F2940045F22831C2F20000BB
:101510009022C2F2004190ED3FBA90ED40EA90ED8A
:1015200041CA90ED42DA5846FFF739F84FF000080B
:1015300000272AE044F2EC50C2F200400078012873
:1015400018D145F2A41045F20401C2F20000902225
:10155000C2F2000190ED3FBA90ED40EA90ED41CA31
:1015600090ED42DA5846FFF71AF801274FF00008CD
:101570000BE000BF02274FF00108B0EE48EAB0EEE2
:1015800048CAB0EE48DAB0EE48BA18F009FEB8F131
:10159000000F05D000200021002200232DE000BF15
:1015A0008EEE090A01200CF07BFB8DEE091A022059
:1015B000BDEEC00A10EE104AB0EE410A0CF070FB0E
:1015C0008CEE0A1A0320BDEEC00A10EE105AB0EEDF
:1015D000410A0CF065FB8BEE0A1A0420BDEEC00A2E
:1015E00010EE106AB0EE410A0CF05AFBBDEEC00AD4
:1015F00020462946324610EE103A02F045FAB8F17C
:10160000000F7FF4FDAE584649460EF01DFB52E731
:1016100000000000226ED6B9226ED639000000000C
:10162000024600284FF0000018BF002900D1704783
:10163000F0B545F6247346F6241C45F6287E0020B6
:10164000C2F20043C2F2000CC2F2004E1D68DCF888
:101650000060B54207D01C681EF804401F680137BF
:101660006FF31F371F60B54205D0451C1454A942C3
:101670002846EBD10846BDE8F04070470000000066
:1016800046F63C1046F6A871C2F20000C2F20041D4
:1016900000680968401A40F6FF7138BF00F58050B5
:1016A000081A7047000000000122002818BF002916
:1016B00001D11046704770B546F63C1346F6A87245
:1016C000C2F20003C2F200421E681568761B40F6A3
:1016D000FF7538BF06F58056AE1BB14201D9002216
:1016E00054E0A9B146F6AC7CC2F2004C02E000BF67
:1016F00001390DD010F8015B1C68013416686FF3D6
:101700001F34B442F4D01E680CF806501C60EFE79A
:1017100045F28050C2F20000D0F8BC02A8B346F6F1
:10172000A476C2F20046316879BBD0F8140260BBDF
:1017300018681168441A38BF04F580542CB318682F
:101740001168884201D9186801E04FF4805011688F
:1017500045F28055401A46F6AC71A042C2F20041F3
:1017600038BF04461068C2F20005B4F5007F01449A
:1017700028BF4FF400742846224615F01DFA28466B
:1017800015F092FA002808BF34600122BDE87040CD
:101790001046704700000000212806D14FF4E130C8
:1017A00008600020888008208871002070470000B1
:1017B0000020704700000000B0B545F2805444F2AC
:1017C000EE51C2F20004C2F2004100222046002580
:1017D00015F0F2F944F248412046C2F2000115F03A
:1017E000DBF946F62410C2F20000056045F62470CD
:1017F000C2F20040056046F63C10C2F200000560EF
:1018000046F6A870C2F20040056046F6A470C2F227
:101810000040056046F62010C2F200000560204638
:1018200015F096F90020B0BDF0B581B00A68002A25
:10183000024626D046F6241345F6247C46F62014AC
:1018400045F6287E0020C2F20003C2F2004CC2F22C
:101850000004C2F2004E06E0256801352560013023
:101860000D68A8420DD2155C1E680136DCF80070C8
:101870006FF31F36BE42EFD01F680EF807501E6090
:10188000EDE745F280541146C2F20004204615F0FF
:1018900083F9204615F05CF9002001B0F0BD00008E
:1018A00070B546F6A87046F6A476C2F20040C2F2C1
:1018B00000460168326811446FF31F310160002156
:1018C000316045F28051C2F20001D1F8BC1209B179
:1018D00032680AB1002070BDD1F814120029F9D184
:1018E00046F63C11C2F200010A680368D41A38BFF8
:1018F00004F58054002CEDD00A6803689A4201D99F
:10190000096801E04FF48051026845F28055891A58
:10191000C2F20005A14238BF0C46006846F6AC7121
:10192000B4F5007FC2F2004128BF4FF400740144B7
:101930002846224615F040F9284615F0B5F900284A
:1019400008BF3460002070BD002808BF704745F60E
:101950007841C2F20041D1E901230260CA680969F5
:101960004360C0E9022145F6C841C2F200414A681D
:1019700002618A684261CA6882610969C16170470F
:1019800080B545F67840C2F200400CF045F845F6C7
:10199000C840C2F20040BDE880400CF03DB80000F5
:1019A00080B52DED028B96B001A8B0EE408A09F00B
:1019B00003FCF0EE480A45F6C8409DED0E0AC2F25F
:1019C00000400BF089FF16B0BDEC028B80BD00001B
:1019D000002808BF704710B545F6784145F6C84461
:1019E000C2F20041C2F20044D0E900234A6082689A
:1019F0008B60C368C1E90323026962604269A26027
:101A00008269C06920610846E2600CF005F8204652
:101A1000BDE810400CF000B880B52DED028B96B0FB
:101A200001A8B0EE408A09F0C7FB9DED0B0A78EEE5
:101A3000400A9FED1B0AF4EE400AF1EE10FA08DDB1
:101A40009FED181A70EE810AF4EE400AF1EE10FADA
:101A5000F8DC9FED150AF4EE400AF1EE10FA08DA10
:101A60009FED121A70EE810AF4EE400AF1EE10FAC0
:101A7000F8DB45F678409FED0E0AC2F200400BF00D
:101A80002BFFF0EE400A45F6C8409DED0E0AC2F26B
:101A900000400BF021FF16B0BDEC028B80BD00BFF3
:101AA000000034430000B4C3000034C30000B4435A
:101AB000000000000000000010B510F0030408BF93
:101AC0000324E00705D005200BF0C6FE06200BF02E
:101AD000C3FE022C38BF10BD05200BF0DDFE062032
:101AE000BDE810400BF0D8BEB0B50446002502E0BA
:101AF0000135042D08D024FA05F0C007F8D0681C81
:101B0000C0B20BF0C9FEF3E7B0BD0000000000005A
:101B100040F2040244F2EC51C2F20002C2F200416F
:101B20000128104604BF0846114601220270002019
:101B30000870704700000000A0B040F6B83017F001
:101B40000FFF0AF085FD45F6647044F65441C2F279
:101B50000000C2F20001012208F086FF0AF0F4F84A
:101B60009FEDC78A45F2940A40F28805B0EE480A14
:101B7000C2F2000AC2F20045504629460FF00CFCA2
:101B8000B0EE480A45F2A410C2F2000029460FF058
:101B900003FC45F22830C2F200400EF075F945F220
:101BA0000400C2F200000EF06FF944F63460C2F295
:101BB00000000CF0B5FA45F2C8200021C2F2000086
:101BC000C0E90011C0E90211C0E90411816110F0FF
:101BD00033FB18F08DFE46F6B401C2F20001086036
:101BE00045F2F850C2F2004007F0C2FBB7EE009A8F
:101BF000F5EE009AFDEE00AA45F2B83746F2541011
:101C000045F2B82645F2B424C2F20047C2F2000001
:101C10000DF1600BC2F20006C2F20004DFED998AFA
:101C20000DF17008DFED98BA103801900AE000BF9E
:101C30004AF2F4000023C2F20040011D00F1080244
:101C4000FEF7D6FE0120012118F0D6F90146012841
:101C50004FF0010098BF01465FE000BF46F6C0129A
:101C6000DAF8FC10C2F20002DAF8F0005446116013
:101C7000DAF800115160DAF804119160DAF808110D
:101C8000D1604AF2F402C2F20042DAF8F4101060B5
:101C9000DAF8F800C2E90110002245F2040145F229
:101CA0002830C2F20001C2F20040029DBA710FF06A
:101CB00093F994ED09DA94ED08CAB0EE4D0A94ED6B
:101CC00007BA87ED19BA87ED1ACA87ED1BDA18F043
:101CD0009BFFB0EE40EAB0EE4D0A19F06FFB20EE2C
:101CE0006D1AF0EE4C0A6DEE8E1AB0EE4A2AACEE8A
:101CF0008E1AECEE801AB0EE4B0A87ED151AC7ED7E
:101D0000161A09F0D1FA45F2940A45F2B424691E74
:101D1000C2F2000AC2F200048AD0029145F22841C0
:101D2000C2F200410D683D60681C086003A809F01C
:101D300043FA9DF850909DED06CA87ED18CAB9F197
:101D4000000F87F805900CD0B0EE4C0A504610F00A
:101D500097F9B0EE4C0A45F2A410C2F2000010F060
:101D60008FF900EE105A00200199B8EE400A20EEDB
:101D700008BA00BF51F81C2F4BF800203B1835580B
:101D8000043010289A609D61F4D1207800287DD01D
:101D9000002400BF5BF804003159451A284601F0C1
:101DA00007FE08EB040039190434102C80ED000AFA
:101DB0008D6281ED0E0AEDD19DED1C0A9DED1D1A7F
:101DC00030EE012A9DED1F4A30EE410A9DED1E1AAC
:101DD00040F2880045F2940A32EE013AC2F2004025
:101DE00030EE410AC2F2000A31EE421A33EE042A02
:101DF00090ED013A30EE040A31EE041A90ED024AF9
:101E000022EE2A2A504633EE043A20EE29DA21EE59
:101E100029EA87ED12DA82EE03FA87ED13EAB0EED3
:101E20004D0A6DEE2BCAF0EE4E0A6EEE2BDAB0EED6
:101E30004F1A2FEE2BAA87ED14FA87ED17AA10F090
:101E4000E7F845F2A415B0EE4D0AF0EE4E0AB0EEFA
:101E50004F1AC2F20005284610F0DAF8B9F1000F67
:101E600009D0B0EE4C0A504610F00AF9B0EE4C0A18
:101E7000284610F005F945F2B424C2F2000416E039
:101E80006F12833A0000000000007A4401202070A5
:101E900007F128003821FEF7B4FBB0EE68AAF0EE97
:101EA00068DAF0EE68CA45F2A415C2F2000520789F
:101EB000387118983060199870601A98B0601B9843
:101EC000F06015F059FE14F06BFC45F228442846EA
:101ED000C2F20044216810F067FAB0EE4B0A504697
:101EE0000FF0BEFCB0EE4B0A28460FF0B9FC45F2ED
:101EF00028302268C2F2004051460EF089FB45F2BC
:101F000004002268C2F2000029460EF081FB44F66C
:101F100034602168C2F200000DF076FA45F2C82C58
:101F2000D4F80090C2F2000C9CF80100CCF8149098
:101F3000022813D04CF260130128C0F6010340F0D0
:101F40001B829CF8000000215A5C824218D00C31A0
:101F50005429F9D10021A9B938E000BF9CF800004C
:101F60004CF260130021C0F6010300BF5A5C8242AC
:101F700058D00C315429F9D10021002954D15FE007
:101F8000194419B3BCF804200B899A421ED249683F
:101F900002EB420201EB4205DDB908284FF00301D4
:101FA0008CF801104FF000018CF8031000F07680DF
:101FB00045F2940A45F2A4150228C2F2000AC2F2C0
:101FC000000540F0D1810220D3E100BF0025002DA3
:101FD000E3D0A8880124012898BF20462978CCF8AE
:101FE0001090ACF80A00481E8CF8031009284FF036
:101FF0000001ACF80E1000F25981DFE810F00A0081
:10200000AC007D0083005B0016011E01A4002701C7
:102010006400697845F20400C2F200000EF0BCF8DA
:10202000002443E1194459B1BCF804200B899A42B9
:1020300006D2496802EB420201EB420323B986E172
:102040000023002B00F0838118780138092800F262
:102050001D81DCF810100FF20C0202EB8005A9EBD9
:102060000102AF4600F0A2B800F0B1B800F00EB81F
:1020700000F053B800F084B800F033B800F0F4B8C2
:1020800000F007B900F087B800F000B89008002110
:102090004A284FF0000088BF012128E145F2940A48
:1020A00045F2A41500208CF80C00C2F2000AC2F21E
:1020B000000561E1697845F20400C2F200000DF00C
:1020C000D7FF0024F2E09CF80C000138012800F250
:1020D000EB8001200021654600240CF041FD2C73AB
:1020E000E4E044F634630021C2F20003D878042807
:1020F00040F0F0800220FAE0687801210CF030FD19
:102100000024D3E044F63460C2F20000C078043802
:10211000B0FA80F040098400C8E044F63460C2F2AE
:102120000000C078011FA0F1040018BF0121B0FA1F
:1021300080F0C72A4FF000024FEA501088BF0122FA
:1021400080001140D3E045F20400C2F200000DF01F
:10215000E3FE0024AAE044F63464C2F200042078CE
:1021600010B920460BF074FEB5F902004A466978B2
:1021700000EE100A2046B8EEC00A0CF0E1F86EE05E
:1021800045F20401C2F200010878172800F08980A6
:102190000879097B13E044F63461C2F20001C87883
:1021A000042840F01C8100210220A0E045F2040137
:1021B000C2F200010878172873D00879C97CB1FAF7
:1021C00081F1C0B24909002818BF01208DE044F612
:1021D00034600021C2F20000C07804284FF00200F1
:1021E00000F0858049F63F45AA4245F2A415C2F2A7
:1021F000000500F28080642AC0F02581B0EE490A13
:10220000597844F63460C2F200000CF011F800284E
:1022100000F01B8145F2C82CC2F2000CBCF80E0085
:10222000632800F21981013014E144F63460C2F2EF
:1022300000000BF00DFE002438E0697845F2040040
:10224000C2F200000DF0B8FE00242FE09CF80D1043
:1022500044F63460C2F200004A460CF081FD0028CA
:1022600018BF0120440021E045F20401C2F2000140
:102270000878172815D0887B09790028C9B218BFBB
:102280000120002918BF012101402FE00021012079
:1022900031E045F20401C2F200010878172840F04D
:1022A000B8800021032022E0052400BF45F2A415D8
:1022B00045F2C820C2F20005C2F200001CB10421A0
:1022C0004170847001E00221417045F2940AC2F22B
:1022D000000A51E093F8220091087C294FF0000198
:1022E000B0FA80F088BF012140090140002045F28A
:1022F000A415C2F2000509B3BCF80800BCF80A1026
:102300000130ACF8080082B28A42DCF8181001F102
:102310000101CCF8181007D3BCF804000130ACF868
:1023200004000020CCF80800BCF80400BCF806103B
:1023300088420AD201208CF801001DE0E0B104219E
:102340008CF801108CF8020016E09CF800000828B8
:102350004FF003018CF801104FF000018CF80310CE
:1023600006D002283FF42FAE012805D1012000E05D
:1023700000208CF80C0000BF40F20400C2F2000004
:10238000007801283FF46AAC44F2EC50C2F20040FD
:102390000078012820D146F6C012D5F8FC10C2F210
:1023A0000002D5F8F0002C461160D5F800115160FC
:1023B000D5F804119160D5F80811D1604AF2F40201
:1023C000C2F20042D5F8F4101060D5F8F800C2E966
:1023D0000110012261E400BF022254465DE491F83D
:1023E000240045F2A415C2F2000500284FF00000B9
:1023F00027D191F83C109CF80D30C72A4FF000020D
:10240000A1EB0301B1FA81F188BF01224909114012
:1024100071E745F2A41516284FF00000C2F200053E
:102420000FD1C97800294FF000017FF464AF45F265
:102430000400C2F2000001790020002918BF012128
:1024400059E7002157E7002004E045F2C82C00209E
:10245000C2F2000CACF80E00BCF80E00002163289C
:102460004FF0000088BF012145E700000000000098
:1024700010B5B6B090F800E083794BF6944C4BF66B
:102480008062C0F6010CC0F60102AEF11804012B07
:1024900008BF6246062C3CD8DFE804F070040E2327
:1024A0000487040029B108460EF06EFF022800F0F0
:1024B00091804FF0000C8FE068460EF011FE9DF801
:1024C0001B109DF81800C9B2002818BF0120002970
:1024D00018BF0121009A232A4FF0000238BF0122C1
:1024E00013E068460EF0FCFD9DF81D109DF81A00E3
:1024F000C9B2002818BF0120002918BF0121029A83
:10250000412A4FF00002C8BF0122084000EA020C35
:1025100062E00E24012B08BF0F24BEF1000F4FF024
:10252000000C59D0744557D302EB4E1212F81C3CE4
:10253000022BB7D0012B52D0002B4DD1B0EE080AA0
:1025400012F81B1C503000234FF0010C04E000BFB8
:1025500001330430042B3FD021FA03F2D207F7D025
:1025600090ED001A90ED062A32EE411AB0EEC11A33
:10257000B4EE401AF1EE10FAEADD9AE7B0EE080A7E
:10258000002100BF421892ED141A92ED1A2A32EE81
:10259000411AB0EEC11AB4EE401AF1EE10FA3FF74C
:1025A00088AF04311029EDD114E0B0EE080A002103
:1025B000421892ED141A92ED1A2A32EE411AB0EE38
:1025C000C11AB4EE401AF1EE10FA3FF772AF0431BF
:1025D0001029EDD14FF0010C604636B010BD36B079
:1025E000BDE8104001F0ACB945F2E040C2F2004055
:1025F00002F006B80000000040F20F42D0F800C020
:10260000C4F20202944510DC6F22C4F20202944527
:1026100020DC3F22C4F20202944536DC1022C4F2D0
:102620000202944554D028224EE040F26F42C4F298
:10263000020294451ADC40F23F42C4F20202944581
:102640002ADC40F21042C4F20202944540D040F22B
:10265000284239E09F22C4F20202944525DC702210
:10266000C4F20202944533D088222DE040F29F420A
:10267000C4F2020294451FDC40F27042C4F202022E
:10268000944525D040F288421EE04022C4F2020266
:1026900094451DD0582217E040F24042C4F2020295
:1026A000944515D040F258420EE0A022C4F2020236
:1026B00094450DD0B82207E040F2B842C4F20202BD
:1026C000944505D040F2A042C4F20202944517D1CD
:1026D0000CF0F8024AF6AB23103ACAF6AA23A2FB82
:1026E000033109A35F2AC1F302115B5C40F2FF31A1
:1026F0002CEA0101C36588BF043181650846704733
:102700002CF0FF01F9E700BF0006101600061016B6
:1027100070B540F26F44D0F800C0C4F20204D0F8A3
:1027200058E0A44519DC9F25C4F20205AC4531DC14
:102730005725C4F20205AC4556DC1025C4F202054B
:10274000AC4500F092802825C4F20205AC4500F0AB
:102750008C804025C4F2020584E045F22F45C5F681
:102760000205AC452BDC40F2B745C4F20205AC458E
:1027700048DC40F27045C4F20205AC4575D040F229
:102780008845C4F20205AC456FD040F2A045C4F2C2
:10279000020567E040F22745C4F20205AC4540DC83
:1027A000A025C4F20205AC455FD0B825C4F20205ED
:1027B000AC455AD040F21045C4F2020552E045F251
:1027C0006B45C5F60205AC453CDC45F23045C5F627
:1027D0000205AC4549D045F24445C5F60205AC4575
:1027E00043D045F258453BE05825C4F20205AC45BC
:1027F0003BD07025C4F20205AC4536D08825C4F222
:1028000002052FE040F2B845C4F20205AC452CD0D9
:1028100045F20845C5F60205AC4526D045F21C45F3
:102820001EE040F22845C4F20205AC451DD040F23E
:102830004045C4F20205AC4517D040F25845C4F2F9
:1028400002050FE045F26C45C5F60205AC450CD01B
:1028500045F29445C5F60205AC4506D045F28045E3
:10286000C5F60205AC4540F0CC80456EC66E002E24
:10287000866E6E601CBFD0E91C566E60A44515DCE8
:102880009F24C4F20204A4452BDC5724C4F20204A2
:10289000A4454EDC1024C4F20204A44576D02824BA
:1028A000C4F20204A44571D040246BE045F22F44E9
:1028B000C5F60204A44527DC40F2B744C4F2020482
:1028C000A44542DC40F27044C4F20204A4455DD049
:1028D00040F28844C4F20204A44557D040F2A04418
:1028E00050E040F22744C4F20204A4453CDCA0249A
:1028F000C4F20204A44549D0B824C4F20204A44599
:1029000044D040F210443DE045F26B44C5F6020469
:10291000A44553DC45F23044C5F60204A4455FD01B
:1029200045F24444C5F60204A44559D045F2584442
:1029300052E05824C4F20204A44527D07024C4F203
:102940000204A44522D088241CE040F2B844C4F21A
:102950000204A4451AD045F20844C5F60204A44571
:102960003ED045F21C4437E040F22844C4F2020451
:10297000A4450BD040F24044C4F20204A44505D063
:1029800040F25844C4F20204A4453AD18468C06DB0
:1029900000F01F003F2505FA00F0CEF80800DCF833
:1029A0000000402C20F48020CCF80000CCF804304B
:1029B00023D1CCF80820CCF80C1070BD45F26C4443
:1029C000C5F60204A4450BD045F28044C5F60204C6
:1029D000A44505D045F29444C5F60204A44510D19F
:1029E000C46D012504F01F04806805FA04F4CEF8D4
:1029F00004404028CCF80430DBD0CCF80810CCF8E8
:102A00000C2070BD00000000F0B581B02DED048BEE
:102A10008AB01446103A00230593CDE903330D46DE
:102A200002930993002918BF0121B2FA82F20646E7
:102A30005209089311EA02070793069307D0286802
:102A4000069068680790A8680890E868099017F0F1
:102A50007FFB03F0CDFF46F66811C2F2000108606B
:102A600048F2C800C2F2004001680131016048F23A
:102A7000CC0046F65511C2F20040C2F200010670C9
:102A800046F66510C2F20000047048F2E000C2F29F
:102A900000400770002003E00A540130102807D0DE
:102AA000002D4FF00002F7D0A04238BF2A5CF3E7B8
:102AB00048F2D00200209FEDBD0A06A9C2F20042F2
:102AC000B0EE401A002F1CBF0B1893ED001A13181C
:102AD0000430102883ED001AF2D117F061FB682E44
:102AE00000F2FD85DFE816F08403BE03D502FB0586
:102AF000FB0569048C04FB05FB05FB05FB05FB05D9
:102B0000FB05FB05FB05FB051E03CD03D8031205E2
:102B1000C60411023503FB05FB05FB05FB05FB05A0
:102B2000FB05FB05FB05FB059202FC0140049C0034
:102B3000D2058900DE0122020C0441037A05AE02AF
:102B4000FB05FB05FB05FB05BC0142019C00FB05E9
:102B5000FB0589001203FB05FB05FB05FB05FB05D7
:102B6000FB05FB05FB05FB05FB05FB05FB05FB0565
:102B7000FB05FB056703A20573032101FB05FB05AC
:102B8000FB05FB05FB05FB056900EF006401B004D4
:102B90002D01690015016502AC031B06D400E30199
:102BA0002C0498043606FB0563040E01FB05E800BF
:102BB0005206310608010C05000614F0EF0F40F034
:102BC0008E8517F0C5FA45F2C820C2F200000FF05A
:102BD00013FB45F20400C2F20000007D28B145F26B
:102BE000A410C2F200000EF003FE45F20400C2F28F
:102BF00000000DF0B5FC00F0C1BD14F0EF0F40F087
:102C00006E8517F0A5FA45F2C820C2F200000FF059
:102C1000F3FA44F63460C2F200000CF075FB07E2F0
:102C2000002D00F05C85102C40F0598528686968FB
:102C30000290A8680391E968CDE9040144F2EC50E0
:102C4000C2F200400078002800F0498517F080FAB1
:102C50009DED020A9DED031ABCEEC00A9DED048AAB
:102C6000BCEEC11A9DED059A10EE104A11EE105AF5
:102C700003F0BEFEB0EE480AF0EE490A034644F601
:102C80003460C2F2000021462A460BF0E9FFCFE192
:102C900014F0EF0F40F0238544F2EC50C2F20040F4
:102CA0000078002800F01B8517F052FA14F030FF6E
:102CB00045F2040000210DE114F0EF0F40F00F8504
:102CC000042000F067BD14F0EF0F40F0088544F2D7
:102CD000EC50C2F200400078002800F0008517F0A8
:102CE00037FA45F204000121C2F20000002200235D
:102CF0000DF03EFB00F042BD14F0EF0F40F0EF840A
:102D000000F04ABD14F0EF0F40F0E984022000F01B
:102D100041BD14F0EF0F40F0E2840AB0BDEC048B2B
:102D200001B0BDE8F04009F0DFBD14F0EF0F40F056
:102D3000D6840AB0BDEC048B01B0BDE8F04009F0C8
:102D4000C3BE14F0EF0F40F0CA8444F2EC50C2F25C
:102D500000400078002800F0C28417F0F9F914F060
:102D6000D7FE45F20400002100F0EABC14F0EF0F9A
:102D700040F0B584102C07D102AA2846214615F050
:102D800087FB002800F0AB8444F2EC50C2F2004014
:102D90000078002800F0A38417F0DAF9102C40F036
:102DA00022859DED020A012174E000BF00000000B1
:102DB00002AA2846214615F06BFB002800F08F84FC
:102DC00044F2EC50C2F200400078002800F0878402
:102DD0009DED040ABCEEC00A10EE105A2C46002DE0
:102DE00018BF012417F0B4F99DED020ABCEEC00A29
:102DF00010EE100A58B945F20400C2F20000007D3E
:102E000028B145F2A410C2F200000EF0F1FC9DEDD5
:102E1000020A9DED031ABCEEC00A45F20400BCEEA6
:102E2000C11AC2F20000234610EE101A11EE102A49
:102E3000002918BF0121002A18BF01220DF098FABD
:102E40009DED020ABCEEC00A10EE100A002818BF61
:102E5000002D01D014F05CFE17F0A2F900F03FBC89
:102E600014F0EF0F40F03B84102C40F09D8402AA38
:102E70002846214615F00CFB002800F0308417F09E
:102E800067F945F2C820C2F200000FF0B5F99DEDD8
:102E9000020A0021BCEEC00A10EE100A0BF060FE20
:102EA00000F0A7BC14F0EF0F40F01984C2E014F05A
:102EB000EF0F40F0148444F2EC50C2F2004000786E
:102EC000002800F00C8417F043F914F021FE45F2BD
:102ED00004000121C2F200000DF0CAF800F04EBC5F
:102EE00014F0EF0F40F0FB8344F2EC50C2F20040CC
:102EF0000078002800F0F38317F02AF944F63460D4
:102F0000C2F200000AF0A4FF92E014F0EF0F40F0CC
:102F1000E68314F0FDFD17F01BF90FF085FD45F277
:102F2000C820C2F200000FF067F95AE114F0EF0F69
:102F300040F0D583102C07D102AA2846214615F06F
:102F4000A7FA002800F0CB8344F2EC50C2F2004014
:102F50000078002800F0C3839DED030A0020B5EE41
:102F6000400ABCEEC00AF1EE10FAC8BF012010EE14
:102F7000105A002110F0010008BF0546102C18BFA0
:102F80000D4617F0E5F8102C08D19DED020ABCEEB5
:102F9000C00A10EE100A002800F0888403F028FD13
:102FA000014644F63460C2F200002A460CF088F96B
:102FB00091E302AA2846214615F06AFA002800F09B
:102FC0008E8344F2EC50C2F200400078002800F0FA
:102FD000868317F0BDF845F20400C2F20000007DC0
:102FE00028B145F2A410C2F200000EF001FC9DEDE4
:102FF000020A45F20400BCEEC00AC2F2000010EE64
:10300000101A0DF0C9F817F0CBF868E314F0EF0FC1
:1030100040F0658317F09CF845F2C820C2F200002A
:103020000FF0EAF844F63460C2F200000AF0B4FE91
:1030300017F0B6F80AB0BDEC048B01B0BDE8F04063
:1030400009F0F2BB02AA2846214615F021FA002811
:1030500000F0458344F2EC50C2F2004000780028B2
:1030600000F03D8317F074F89DED020A9DED038A90
:10307000BCEEC00A10EE104A03F0BAFCB0EE480AEB
:10308000024644F634602146C2F200000BF058F9C3
:1030900021E302AA2846214615F0FAF9002800F09B
:1030A0001E839DED020ABCEEC00A10EE100A002835
:1030B00018BF0120FEF72CFD9DED020ABCEEC00AF0
:1030C00010EE100A002840F00A8314F021FD17F0DA
:1030D0003FF80FF0A9FC45F2C820C2F200000FF043
:1030E0008BF845F2A410C2F200000EF081FB45F20D
:1030F0000400C2F200000DF033FA44F63460C2F26C
:1031000000000AF049FE17F04BF8E8E214F0EF0F68
:1031100040F0E5820AB0BDEC048B01B0BDE8F040A0
:1031200009F0A2BC14F0EF0F40F0D98214F0F0FCCB
:1031300017F00EF80FF078FC45F2C820C2F200003C
:103140000FF05AF845F2A410C2F200000EF050FB46
:1031500070E014F0EF0F40F0C2820AB0BDEC048BB7
:1031600001B0BDE8F04009F08FBB02AA2846214615
:1031700015F08EF9002800F0B28244F2EC50C2F251
:1031800000400078002800F0AA8216F0E1FF9DEDD3
:10319000020ABCEEC00A10EE104A002C18BF01242F
:1031A00003F026FC024644F63460C2F200002146D9
:1031B0000BF0B6FA8FE214F0EF0F40F090820AB0F5
:1031C000BDEC048B01B0BDE8F04009F0BDBB14F0CC
:1031D000EF0F40F0848214F09BFC16F0B9FF0FF063
:1031E00023FC45F2A410C2F200000EF001FBC5E280
:1031F00014F0EF0F40F0738214F08AFC16F0A8FF71
:103200000FF012FC45F2C820C2F200000EF0F4FFED
:1032100045F2A410C2F200000EF0EAFA45F20400F2
:10322000C2F200000DF09CF944F63460C2F20000D6
:103230000AF0B2FD16F0B4FF40F2E010002127E0E2
:1032400014F0EF0F40F04B8244F2EC50C2F2004019
:103250000078002800F0438216F07AFF45F204005F
:10326000012102E114F0EF0F40F0398216F070FFF7
:1032700044F63460C2F200000AF0EAFD16F090FF56
:1032800003E014F0EF0F40F02A8240F2E010012139
:10329000C2F20000017022E202AA2846214615F07F
:1032A000F7F8002800F01B829DED020ABCEEC00A70
:1032B00010EE100A072800F2128244F2EC50C2F21B
:1032C00000400078002800F00A8240F2E010C2F2CC
:1032D00000000078002800F0028216F039FF0FF09D
:1032E000A3FB9DED020A45F2A410BCEEC00AC2F297
:1032F000000010EE101A0EF03BF916F051FFEEE14F
:1033000002AA2846214615F0C3F8002800F0E781FC
:1033100044F2EC50C2F200400078002800F0DF8157
:1033200016F016FF9DED028A03F062FBB0EE480A2C
:10333000014644F63460C2F200000BF095F9CAE190
:1033400014F0EF0F40F0CB8144F2EC50C2F2004099
:103350000078002800F0C38116F0FAFE14F0D8FBC4
:1033600045F2040000216AE002AA2846214615F031
:103370008FF8002800F0B38144F2EC50C2F2004014
:103380000078002800F0AB8116F0E2FE9DED020A05
:10339000BCEEC00A10EE104A03F02AFB024644F6C7
:1033A0003460C2F2000021460BF0DAFC93E114F025
:1033B000EF0F40F094810120ECE114F0EF0F40F0AA
:1033C0008E8114F0A5FB16F0C3FE0FF02DFB45F225
:1033D000C820C2F200000EF00FFF45F2A410C2F2A6
:1033E00000000EF005FA45F20400C2F200000DF0F4
:1033F000B7F844F63460C2F200000BF085FFBDE17F
:1034000014F0EF0F40F06B810AB0BDEC048B01B0FB
:10341000BDE8F04009F0C8BA14F0EF0F40F05F814A
:1034200044F2EC50C2F200400078002800F05781CE
:1034300016F08EFE14F06CFB45F204000121C2F27E
:1034400000000CF0B9FD99E114F0EF0F40F0478156
:1034500044F2EC50C2F200400078002800F03F81B6
:1034600016F076FE45F204000021C2F200000CF0D6
:103470004FFE83E102AA2846214615F009F80028EC
:1034800000F02D8145F2A41446F6D012C2F20004D9
:103490009DED048AC2F200029FEDE90A20780299AC
:1034A000039BC50744F2EC5000FE080AC2F200403C
:1034B000C2E9001382ED020A0078002800F00F81B3
:1034C00040F2E010C2F200000078002800F007810E
:1034D00016F03EFE0FF0A8FA002D40F0748120781F
:1034E0009FEDD80A28EE000A023810F0FA0F00F01B
:1034F000AB8145F2A410C2F200000EF071F8A9E110
:1035000014F0EF0F40F0EB80072043E102AA2846B9
:10351000214614F0BDFF002800F0E180B0EE000A63
:103520009DED021A9DED033AB8EE002A45F2A4146F
:103530009DED048A81FE401AC2F2000483FE403AE7
:10354000207881FE020A83FE021AC5078DED020A69
:103550008DED031A09D09FEDDB2A88FE422A9FEDEC
:10356000DA3A82FE032A8DED042A46F6D010002DA9
:10357000C2F200009DED042A9FEDD03A80ED000AD2
:1035800003FE020A80ED011A80ED020A44F2EC50BB
:10359000C2F200400078002800F0A18040F2E01064
:1035A000C2F200000078002800F0998016F0D0FDEB
:1035B0000FF03AFA002D40F00E8120789FEDC00AFE
:1035C00028EE000A023810F0FA0F00F0588145F298
:1035D000A410C2F200000EF003F856E102AA284639
:1035E000214614F055FF002879D044F2EC50C2F285
:1035F00000400078002872D016F0AAFD9DED020A66
:103600009DED031ABCEEC00ABCEEC11A10EE104AC2
:1036100011EE105A03F0ECF9034644F63460C2F29E
:10362000000021462A460BF0DFFA54E014F0EF0FB9
:1036300055D1102C06D102AA2846214614F028FFA5
:1036400000284CD044F2EC50C2F200400078002830
:1036500045D040F2E010C2F20000007800283ED0D1
:103660009DED020ABCEEC00A10EE104A16F070FD85
:1036700045F2A4102146C2F200000EF0E9FD044616
:1036800016F08EFD002C40F0F78028E002AA2846B4
:10369000214614F0FDFE10B344F2EC50C2F200409B
:1036A0000078E0B10298069003980790049808907B
:1036B00016F04EFD44F63464C2F2000494F85450FF
:1036C00094F8556003F094F906AB00902046294623
:1036D00032460BF001FB16F063FD09F0A5F80AB0C5
:1036E000BDEC048B01B0F0BD02AA2846214614F0BF
:1036F000CFFE0028F3D0B7EE001A9DED020A012597
:103700000124B4EE410AF1EE10FA7BD0B0EE001ABB
:10371000B4EE410AF1EE10FA73D1022472E014F013
:10372000EF0FDCD144F2EC50C2F2004000780028E8
:10373000D5D016F00DFD14F0EBF945F2040001218F
:10374000C2F200000CF0F4FB18E014F0EF0FC6D149
:1037500006201FE014F0EF0FC1D144F2EC50C2F28A
:10376000004000780028BAD016F0F2FC14F0D0F92E
:1037700045F20400C2F200000CF0CEFB0AB0BDEC32
:10378000048B01B0BDE8F04016F00ABD14F0EF0F55
:10379000A5D1052014F0B4FF0AB0BDEC048B01B034
:1037A000BDE8F04009F030B916F0D2FC45F2C8206F
:1037B000C2F200000EF020FD44F63460C2F20000B8
:1037C0000AF0EAFA15E002A890EC030A45F2A41008
:1037D000C2F2000048E002A890EC030A45F2A410EF
:1037E000C2F200005BE044F63460C2F200000AF06E
:1037F0002FFB16F0D5FC102C7FF46FAF09F034F9D5
:103800006DE7FF2414F084F916F0A2FC0120FEF706
:103810007FF940F2E010C2F2000005700FF004F9E9
:1038200003F0E6F8034645F2C820C2F20000082182
:1038300022460EF03DFC16F0B3FC09F0E5F84EE729
:103840000000000039FA8E3C45F2A410C2F20000DC
:103850000DF09AFF45F2A4109DED020ADDED030A7A
:10386000C2F200009FED151A0DF0EAFD044616F0B5
:1038700097FC002C7FF433AF14F04AF92FE745F2A0
:10388000A410C2F200000DF07FFF45F2A4109DEDE0
:10389000020ADDED030AC2F200009FED081A0DF0E6
:1038A000FBFE16F07DFC14F04BF918E744F634608B
:1038B000C2F200000BF064FD0DE700BF0000000045
:1038C00039FA8E3C7BD9203F7BD920BF0000000015
:1038D0007047000000000000B0B5044603F088F80F
:1038E000054600BF03F084F8401BA042FAD3B0BDE8
:1038F000B0B5B6B0044668460D460DF0F1FB9DF834
:103900001A0000281CBF9DF81D0000280AD1207E47
:1039100080B1E06A291A0020B1F57A7F88BF0120C2
:1039200036B0B0BD02980028F1D400202076E062C5
:1039300036B0B0BD01202076E562002036B0B0BDC3
:1039400030B1417E11F0030C08BF4FF0030C01E0D1
:103950004FF0030CB1EE040A00224FEACC7302E0F0
:103960000432042A21D16BB1811891ED181A91ED1E
:103970001E2A32EE411AB0EEC11AB4EE401AF1EE30
:1039800010FA10DCBCF1020FEAD3811891ED181A7D
:1039900091ED202A32EE411AB0EEC11AB4EE401A6F
:1039A000F1EE10FADCDD00207047012070470000C6
:1039B00000EE100A9FED031AB8EEC00A20EE010ACD
:1039C000704700BF40074936B0B515460446B9B147
:1039D000207D90B9207894F806E04BF6944C4BF695
:1039E0008062C0F6010CC0F60102A0F11903BEF11D
:1039F000010F08BF6246042B1CD208460DF0F8FEEA
:103A0000A07E627900212175002842EA05006071DC
:103A100001D1E17E11B140F0100060710020A4F8E6
:103A20000300A4F81100E074A076C4E90200172096
:103A30002080B0BD0028E3D01E28DED00E23BEF1CA
:103A4000010F08BF0F238342DAD302EB401010F8B6
:103A50001C0C0228D1D0D3E7EFF3108072B600BF60
:103A6000FEE700000000000044F60C00C5F602006E
:103A7000016841F00201016050F8081C8904FBD57F
:103A8000704700000000000080B582B08C4686467A
:103A900045F65C004FF40071C2F20000CDE900234E
:103AA0007246634600F09CF902B080BD0000000041
:103AB00080B582B08C46864645F65C0040F2FF1128
:103AC000C2F20000CDE900237246634600F088F997
:103AD00002B080BD0000000080B588B000206946BB
:103AE000CDE90600CDE900000220029001200390FC
:103AF0004FF4007004904FF4FE60059045F65C00B2
:103B0000C2F2000002F02CF808B1FFF7A5FF08B0E0
:103B100080BD00000000000045F65C00C2F200001D
:103B200002F08EB90000000045F65C00C2F2000011
:103B300002F086B90000000080B582B08C4686464F
:103B400045F6FC004FF40071C2F20000CDE90023FD
:103B50007246634600F044F902B080BD00000000E8
:103B600080B582B08C46864645F6FC0040F2FF11D7
:103B7000C2F20000CDE900237246634600F030F93E
:103B800002B080BD0000000080B588B0002069460A
:103B9000CDE90600CDE9000002200290012003904B
:103BA0004FF4007004904FF4FE60059045F6FC0061
:103BB000C2F2000001F0D4FF08B1FFF74DFF08B0DA
:103BC00080BD00000000000045F6FC00C2F20000CD
:103BD00002F036B90000000045F6FC00C2F2000019
:103BE00002F02EB90000000045F25850C2F2004029
:103BF00002F026B90000000045F25850C2F2004021
:103C000002F01EB9000000000FF0F6BD0000000039
:103C100010B58AB000210991CDE90711CDE9051150
:103C2000CDE90311029138B304460220CDE9021117
:103C3000CDE90400CDE9061102A9204601F090FF6C
:103C400008B1FFF709FF01210222012301200090A2
:103C5000204601F0C9FF08B1FFF7FEFE204602F042
:103C6000A7FD08B1FFF7F8FE10210022204601F061
:103C7000FFFE08B1FFF7F0FE0AB010BD0000000023
:103C8000F0B5D1E900C4D1F808E00D692CB14EEAD5
:103C90000C04254345F0804C03E045EA8C4444EA9B
:103CA0000E0C856ED0F88470D1E907466B438D69A0
:103CB00044EA0660D1F814E0CC68054307EB8300C2
:103CC00045EA0E0647F823C046EA04434360CB6842
:103CD000002B08BFF0BD4BF6744C083001320023B6
:103CE000C0F6010CD71857F8017CC750CF680433D1
:103CF0001CF80770BB42F5D3F0BD000000000000C7
:103D000080B545F65C00C2F2000002F051FD08B13A
:103D1000FFF7A2FE45F65C000121C2F2000000227E
:103D200001F0A6FE08B1FFF797FE45F6FC00C2F2CF
:103D3000000002F03DFD08B1FFF78EFE45F6FC00E5
:103D40000121C2F20000002201F092FE002808BF0B
:103D500080BDBDE88040FFF77FBE0000000000008E
:103D60002DE9F0438DB089464021054601F08CFFD6
:103D700088B34CF2FC7403AE01AF43F61C08CFF6D7
:103D8000FF7406E015F068FD4021284601F07CFF35
:103D900008B34021284632463B4601F081FFD0B9A6
:103DA0002846FCF7B9FC04980028EDD10398A0F24E
:103DB000092111F1080FE7D3C0EBC00009EB800126
:103DC0000859421CA1EB0800322A0A513946D9D8B9
:103DD00015F076FDD8E70DB0BDE8F08300000000D7
:103DE000F0B58BB088B304461D4616460F4602F068
:103DF0001BF860B300200821CDE90300CDE90510D0
:103E0000CDE90700CDE90900300A8DF80000280A45
:103E10008DF8020010988DF80500010A8DF8041045
:103E200011998DF80710080A8DF8060002A96A4654
:103E3000204602978DF801608DF8035001F054FE82
:103E400048B100210022002508E0002509E00021FA
:103E50000122002502E00121002201252046FCF775
:103E6000C3FC28460BB0F0BD40F600004FF46041A3
:103E7000C5F60200012202F0B3BD00000000000000
:103E80002DE9F041044602F0B3FD14B3054694F861
:103E90003500022820D140F20F472668C4F20207FD
:103EA00040F26F48BE426FF00E00C4F2020817DC09
:103EB0006F21C4F202018E4223DC3F21C4F20201D1
:103EC0008E4239DC1021C4F202018E4258D02821E2
:103ED00051E00120BDE8F08180206065012037E2DB
:103EE00046451ADC40F23F41C4F202018E422ADC10
:103EF00040F21041C4F202018E4241D040F228410A
:103F000039E09F21C4F202018E4225DC7021C4F207
:103F100002018E4234D088212DE040F29F41C4F24C
:103F200002018E421FDC40F27041C4F202018E4257
:103F300026D040F288411EE04021C4F202018E42A8
:103F40001ED0582117E040F24041C4F202018E42D7
:103F500016D040F258410EE0A021C4F202018E4278
:103F60000ED0B82107E040F2B841C4F202018E42FF
:103F700006D040F2A041C4F202018E42314607D180
:103F80003146306820F01E0041F8140B6FF08000BD
:103F90000A68464500EA0200086019DC9F20C4F266
:103FA0000200864231DC5720C4F20200864256DC11
:103FB0001020C4F20200864200F091802820C4F252
:103FC0000200864200F08B804020C4F2020084E0B0
:103FD00045F22F40C5F6020086422BDC40F2B74086
:103FE000C4F20200864248DC40F27040C4F2020093
:103FF000864274D040F28840C4F2020086426ED0FD
:1040000040F2A040C4F2020067E040F22740C4F250
:104010000200864240DCA020C4F2020086425ED04C
:10402000B820C4F20200864259D040F21040C4F2D7
:10403000020052E045F26B40C5F6020086423CDCCD
:1040400045F23040C5F60200864248D045F2444071
:10405000C5F60200864242D045F258403BE0582067
:10406000C4F2020086423AD07020C4F202008642B6
:1040700035D08820C4F202002FE040F2B840C4F2EC
:10408000020086422BD045F20840C5F60200864267
:1040900025D045F21C401EE040F22840C4F2020048
:1040A00086421CD040F24040C4F20200864216D044
:1040B00040F25840C4F202000FE045F26C40C5F6F1
:1040C000020086420BD045F29440C5F602008642BB
:1040D00005D045F28040C5F60200864204D1206E2C
:1040E000016821F480710160306820F001003060C7
:1040F0003068C0070BD002F07BFC401B0628F7D3CA
:1041000020206065032084F83500012020E120682C
:104110000821B8424FF03F0210DC6F23C4F20203C3
:1041200098421CDC3F23C4F20203984232DC102385
:10413000C4F20203984251D028234AE040451ADCD9
:1041400040F23F43C4F2020398422ADC40F210439B
:10415000C4F20203984241D040F2284339E09F2341
:10416000C4F20203984225DC7023C4F20203984291
:1041700034D088232DE040F29F43C4F202039842DA
:104180001FDC40F27043C4F20203984226D040F292
:1041900088431EE04023C4F2020398421ED05823F5
:1041A00017E040F24043C4F20203984216D040F2B6
:1041B00058430EE0A023C4F2020398420ED0B82365
:1041C00007E040F2A043C4F20203984206D040F256
:1041D000B843C4F20203984240F0BF80D4E91637D6
:1041E00007F01F07404502FA07F25A5019DC9F21D9
:1041F000C4F20201884231DC5721C4F20201884234
:1042000056DC1021C4F20201884200F0918028217E
:10421000C4F20201884200F08B804021C4F2020106
:1042200084E045F22F41C5F6020188422BDC40F2C2
:10423000B741C4F20201884248DC40F27041C4F246
:104240000201884274D040F28841C4F202018842DF
:104250006ED040F2A041C4F2020167E040F2274173
:10426000C4F20201884240DCA021C4F2020188426B
:104270005ED0B821C4F20201884259D040F2104108
:10428000C4F2020152E045F26B41C5F602018842D8
:104290003CDC45F23041C5F60201884248D045F287
:1042A0004441C5F60201884242D045F258413BE004
:1042B0005821C4F2020188423AD07021C4F20201AE
:1042C000884235D08821C4F202012FE040F2B84183
:1042D000C4F2020188422BD045F20841C5F6020122
:1042E000884225D045F21C411EE040F22841C4F22C
:1042F000020188421CD040F24041C4F202018842CF
:1043000016D040F25841C4F202010FE045F26C4170
:10431000C5F6020188420BD045F29441C5F6020170
:10432000884205D045F28041C5F6020188420BD192
:10433000616EA26EE06E4A6030B1016821F4807156
:104340000160D4E91C014160012084F8350000209F
:10435000002184F83410BDE8F081042101223DE7FA
:10436000F0B190F83510022918D180B540F20F4213
:104370000168C4F20202914214DC6F23C4F202030A
:10438000994224DC3F23C4F2020399423ADC102311
:10439000C4F20203994258D0282352E0802141659B
:1043A0000120704740F26F43C4F2020399421ADCC5
:1043B00040F23F43C4F2020399422ADC40F2104328
:1043C000C4F20203994240D040F2284339E09F23CF
:1043D000C4F20203994225DC7023C4F2020399421D
:1043E00033D088232DE040F29F43C4F20203994268
:1043F0001FDC40F27043C4F20203994225D040F220
:1044000088431EE04023C4F2020399421DD0582382
:1044100017E040F24043C4F20203994215D040F243
:1044200058430EE0A023C4F2020399420DD0B823F2
:1044300007E040F2B843C4F20203994205D040F2CB
:10444000A043C4F2020399426ED191424FF004029C
:1044500080F8352010DC6F20C4F20200814220DC9D
:104460003F20C4F20200814236DC1020C4F2020078
:10447000814253D028204EE040F26F40C4F2020047
:1044800081421ADC40F23F40C4F2020081422ADC41
:1044900040F21040C4F2020081423FD040F2284076
:1044A00039E09F20C4F20200814225DC7020C4F272
:1044B0000200814232D088202DE040F29F40C4F2B9
:1044C000020081421FDC40F27040C4F202008142CF
:1044D00024D040F288401EE04020C4F20200814215
:1044E0001CD0582017E040F24040C4F20200814244
:1044F00014D040F258400EE0A020C4F202008142E5
:104500000CD0B82007E040F2B840C4F2020081426B
:1045100004D040F2A040C4F202008142086820F0BA
:1045200001000860002080BD0A6822F00E020A60C7
:1045300045F25742C5F6020291420A6822F0010292
:104540000A600EDC45F22F42C5F60202914217DCEA
:1045500045F20842C5F60202914226D045F21C42BD
:104560001FE045F27F42C5F60202914211DC45F29E
:104570005842C5F60202914217D045F26C4210E053
:1045800045F23042C5F6020291420ED045F2444255
:1045900007E045F29442C5F60202914205D045F289
:1045A0008042C5F6020291421AD1D0E9181CD0E926
:1045B00016E30A6822F480720A6003F01F010122E8
:1045C00002FA01F1CEF80410816ECCF80410C16E2D
:1045D00031B10A6822F480720A60D0E91C124A6084
:1045E000012180F83510016D0022002980F8342067
:1045F00098D08847002080BD406D704700000000C3
:104600002DE9F04381B00021009140F2000148F211
:10461000B513C2F20001C1F64E33856D40F26F4909
:104620000A680168C4F202092E68A2FB0328494502
:104630002B6815DC9F22C4F2020291422BDC572228
:10464000C4F2020291424FDC1022C4F202029142F3
:1046500078D02822C4F20202914273D040226CE04A
:1046600045F22F42C5F60202914227DC40F2B742E2
:10467000C4F20202914243DC40F27042C4F20202F0
:1046800091425FD040F28842C4F20202914259D076
:1046900040F2A04251E040F22742C4F202029142AD
:1046A0003DDCA022C4F2020291424BD0B822C4F2F7
:1046B0000202914246D040F210423EE045F26B4287
:1046C000C5F60202914275DC45F23042C5F602029F
:1046D000914200F0828045F24442C5F602029142C6
:1046E0007BD045F2584273E05822C4F20202914254
:1046F00028D07022C4F20202914223D088221CE00A
:1047000040F2B842C4F2020291421BD045F2084284
:10471000C5F60202914260D045F21C4258E040F2D8
:104720002842C4F2020291420CD040F24042C4F24C
:104730000202914206D040F25842C4F20202914273
:1047400040F02D84C26D082302F01F0293403342D3
:1047500000F0168140F20F44C4F20204A1424FF06F
:10476000040413DC6F27C4F20207B94200F39180FE
:104770003F27C4F20207B94200F3D2801027C4F2E7
:104780000207B94200F0F0802827E8E0494500F32D
:104790008C8040F23F47C4F20207B94200F3C78061
:1047A00040F21047C4F20207B94200F0DD8040F247
:1047B0002847D4E045F26C42C5F6020291420CD083
:1047C00045F28042C5F60202914206D045F294427B
:1047D000C5F60202914240F0E2830E68C26D02F01B
:1047E0001F02042707FA02F41C4218BF16F0040740
:1047F0002CD1022707FA02F41C4218BF16F0020758
:1048000062D1D3401B0740F1CA8316F0080300F0C1
:10481000C68340F20F43C4F2020399426FF01C03B7
:1048200000F318836F27C4F20207B94200F35483E0
:104830003F27C4F20207B94200F3B4831027C4F241
:104840000207B94200F0D3832827CAE332046C6020
:104850005ED4B20600F1A18340F20F42C4F202021C
:1048600091426FF0080200F3E3826F23C4F2020367
:10487000994200F302833F23C4F20203994200F3FA
:1048800047831023C4F20203994200F08383282354
:104890007AE39F27C4F20207B94251DC7027C4F2C1
:1048A0000207B94260D0882759E040F29F47C4F21E
:1048B0000207B9424BDC40F27047C4F20207B9422A
:1048C00052D040F288474AE032046C6000F19C828A
:1048D000B20600F1CF8340F20F42C4F202029142CD
:1048E0006FF0140200F3D6826F23C4F202039942E0
:1048F00000F315833F23C4F20203994200F38C8333
:104900001023C4F20203994200F0AB832823A2E3F0
:10491000F10300F14283816C002940F079833EE38A
:104920004027C4F20207B9421ED0582717E040F2D0
:104930004047C4F20207B94216D040F258470EE091
:10494000A027C4F20207B9420ED0B82707E040F210
:10495000A047C4F20207B94206D040F2B847C4F2F9
:104960000207B94218BF08240F68274208D00F6811
:1049700027F004070F60AB60436D43F0010343650C
:104980000123934033426FD040F20F47C4F2020735
:10499000B94210DC6F27C4F20207B9421CDC3F2782
:1049A000C4F20207B94232DC1027C4F20207B9424E
:1049B00051D028274AE049451ADC40F23F47C4F26B
:1049C0000207B9422ADC40F21047C4F20207B9429A
:1049D00041D040F2284739E09F27C4F20207B9428C
:1049E00025DC7027C4F20207B94234D088272DE0B5
:1049F00040F29F47C4F20207B9421FDC40F2704701
:104A0000C4F20207B94226D040F288471EE0402790
:104A1000C4F20207B9421ED0582717E040F24047BF
:104A2000C4F20207B94216D040F258470EE0A02760
:104A3000C4F20207B9420ED0B82707E040F2B847E7
:104A4000C4F20207B94206D040F2A047C4F20207FE
:104A5000B94240F0E1814F6907F0800424B1AB60B6
:104A6000436D43F0020343650423934033426FD008
:104A700040F20F47C4F20207B94210DC6F27C4F2BC
:104A80000207B9421CDC3F27C4F20207B94232DCFC
:104A90001027C4F20207B94251D028274AE04945FD
:104AA0001ADC40F23F47C4F20207B9422ADC40F266
:104AB0001047C4F20207B94241D040F2284739E01A
:104AC0009F27C4F20207B94225DC7027C4F202070F
:104AD000B94234D088272DE040F29F47C4F2020744
:104AE000B9421FDC40F27047C4F20207B94226D037
:104AF00040F288471EE04027C4F20207B9421ED0A8
:104B0000582717E040F24047C4F20207B94216D0D6
:104B100040F258470EE0A027C4F20207B9420ED077
:104B2000B82707E040F2B847C4F20207B94206D0FE
:104B300040F2A047C4F20207B94240F073810F6807
:104B400007F0020424B1AB60436D43F004034365F6
:104B5000102303FA02F232427ED040F20F43C4F235
:104B6000020399424FF0080310DC6F27C4F20207DA
:104B7000B9421CDC3F27C4F20207B94232DC1027DD
:104B8000C4F20207B94251D028274AE049451ADC4D
:104B900040F23F47C4F20207B9422ADC40F2104714
:104BA000C4F20207B94241D040F2284739E09F27BA
:104BB000C4F20207B94225DC7027C4F20207B942E9
:104BC00034D088272DE040F29F47C4F20207B94253
:104BD0001FDC40F27047C4F20207B94226D040F20F
:104BE00088471EE04027C4F20207B9421ED058276A
:104BF00017E040F24047C4F20207B94216D040F233
:104C000058470EE0A027C4F20207B9420ED0B827D9
:104C100007E040F2A047C4F20207B94206D040F2D2
:104C2000B847C4F20207B94218BF04230F681F42F5
:104C300012D0AA600A6852030A6806D4D20506D4C4
:104C40000A6822F008020A6001E0110352D4016CE4
:104C500011B1044688472046C16D01F01F02202192
:104C600001FA02F3334200F0A68040F20F470168D8
:104C7000C4F202071026B94210DC6F27C4F2020703
:104C8000B9421CDC3F27C4F20207B94236DC1027C8
:104C9000C4F20207B94255D028274EE049451ADC34
:104CA00040F23F47C4F20207B9422EDC40F21047FF
:104CB000C4F20207B94245D040F228473DE09F27A1
:104CC000C4F20207B94229DC7027C4F20207B942D4
:104CD00038D0882731E040F29F47C4F20207B9423A
:104CE00023DC40F27047C4F20207B9422AD040F2F6
:104CF000884722E0816C0029ABD1ADE74027C4F2A0
:104D00000207B9421ED0582717E040F24047C4F2CC
:104D10000207B94216D040F258470EE0A027C4F26D
:104D20000207B9420ED0B82707E040F2A047C4F20C
:104D30000207B94206D040F2B847C4F20207B942AE
:104D400018BF02260F68374235D0AB6090F8353077
:104D5000042B0B6816D123F016030B604B6923F06C
:104D600080034B61036C0BB9836C1BB10B6823F0A0
:104D700008030B603F219140A960012180F83510A4
:104D8000016D3FE15A030A680CD4D2050ED40A68BB
:104D900022F010020A60012180F83510002180F80D
:104DA000341003E0110301D4416C00E0C16B11B178
:104DB000044688472046416D002900F0F080416D8F
:104DC000C9071CD0042180F8351001684FEA9822E9
:104DD0000B6823F001030B60009B013300939342A7
:104DE00002D80B68DB07F7D10968C9074FF0030148
:104DF00008BF012180F83510002180F83410C16C03
:104E0000002940F00581CAE0F10300F13381416CD3
:104E1000002940F0FD80C2E000240F68002C7FF4E0
:104E20001EAE21E600240F68002C7FF48CAE8FE6C6
:104E3000494542DC40F23F43C4F2020399427CDC24
:104E400040F21043C4F20203994200F0A38040F202
:104E5000284399E049454CDC40F23F47C4F2020741
:104E6000B94200F3A68040F21047C4F20207B942EB
:104E700000F0BD8040F22847B3E09F23C4F2020354
:104E8000994263DC7023C4F20203994200F08280ED
:104E9000882379E0494560DC40F23F43C4F20203D5
:104EA000994200F3C08040F21043C4F202039942D9
:104EB00000F0D78040F22843CDE040F29F43C4F297
:104EC0000203994258DC40F27043C4F20203994253
:104ED00060D040F2884357E09F27C4F20207B942EE
:104EE00070DC7027C4F20207B94200F08080882786
:104EF00077E040F29F47C4F20207B94269DC40F212
:104F00007047C4F20207B94271D040F2884768E0A6
:104F10004023C4F2020399423CD0582334E09F233B
:104F2000C4F20203994200F387807023C4F20203A3
:104F3000994200F0968088238DE040F24043C4F20D
:104F40000203994226D040F258431DE0A023C4F248
:104F5000020399421ED0B82316E040F29F43C4F2E8
:104F6000020399426FDC40F27043C4F2020399429B
:104F700077D040F288436EE040F2A043C4F20203CF
:104F8000994207D040F2B843C4F20203994218BFD5
:104F90006FF004020B681A400A60016CC1BB01B0DB
:104FA000BDE8F0834027C4F20207B9421FD058275A
:104FB00017E040F24047C4F20207B94217D040F26E
:104FC00058470EE0A027C4F20207B9420FD0B82715
:104FD00007E040F2A047C4F20207B94207D040F20E
:104FE000B847C4F20207B94218BF6FF00E030F684A
:104FF0003B400B60012101FA02F26A60416580F8D2
:105000003510C16C00294FF0000280F83420C6D062
:1050100001B0BDE8F04308474023C4F202039942BF
:105020001FD0582317E040F24043C4F202039942D4
:1050300017D040F258430EE0A023C4F20203994275
:105040000FD0B82307E040F2A043C4F20203994214
:1050500007D040F2B843C4F20203994218BF6FF080
:105060000A020B681A400A60012180F835100021FD
:1050700080F83410C16B0029CAD190E7000000000D
:105080002DE9F041044601F0B3FCECB140F26F4869
:1050900005462068C4F20208404518DC9F21C4F28E
:1050A000020188422EDC5721C4F20201884254DCFE
:1050B0001021C4F2020188427ED02821C4F20201EC
:1050C000884279D0402172E00120BDE8F08145F2AC
:1050D0002F41C5F60201884227DC40F2B741C4F2F5
:1050E0000201884245DC40F27041C4F2020188426C
:1050F00062D040F28841C4F2020188425CD040F2A2
:10510000A04154E040F22741C4F20201884240DC51
:10511000A021C4F2020188424ED0B821C4F202019B
:10512000884249D040F2104141E045F26B41C5F65A
:105130000201884200F3B88045F23041C5F6020111
:10514000884200F0C38045F24441C5F6020188421E
:1051500000F0BC8045F25841B4E05821C4F202018D
:10516000884229D07021C4F20201884224D08821CB
:105170001DE040F2B841C4F2020188421CD045F261
:105180000841C5F60201884200F0A08045F21C41AA
:1051900098E040F22841C4F2020188420CD040F26B
:1051A0004041C4F20201884206D040F25841C4F2A4
:1051B0000201884240F0CE80022184F8351000219F
:1051C00084F83410016821F0010101602068016851
:1051D000C9070CD001F00CFC401B0628F6D3202098
:1051E0006065032084F835000120BDE8F08148F2B5
:1051F0003F0204F108070168CFF6106211406669AA
:105200008CCF1143D4F818C01943E3693943276A96
:105210000E43616A3343042943EA070343EA0C035C
:1052200003D1D4E90B7637433B436568A5F12906E2
:10523000292E00F2A1800127DFE806F015151515CB
:1052400015159E9E9E9E9E9E9E9E9E9E9E9E9E9E90
:105250009E9E151515159E9E9E9E15159E9E9E9EA4
:105260009E9E15151515002F18BF43F480130429B1
:105270000360426922F0070241EA020140F0908097
:10528000D4E90A53002B41EA050100F08980BCF5FE
:10529000005F61D0BCF1000F6AD1022D74D0012DE6
:1052A00060D0002D70D072E045F26C41C5F602016D
:1052B00088420BD045F28041C5F60201884205D0F4
:1052C00045F29441C5F60201884243D104F1080E2B
:1052D000022184F83510002184F834100168A36994
:1052E0009EE80450A2F18005E769B5FA85F5666984
:1052F0006D09402A4FEA853543EA07026FF3101122
:1053000042EA060208BF102541EADC0142EA0E0229
:105310002943236A41EAD2014AF6F832CAF2FD7201
:105320004CF6CD470244CCF6CC4741EA1311A2FB20
:10533000072301606FF0030000EA9300E065204658
:10534000FDF75AF9E16D012201F01F0102FA01F1A6
:10535000416030E0402043E7032D18D8DFE805F036
:105360000A140A02A3F1C072B2FA82F252090FE0E3
:10537000032D08D201220BE025F00302743AB2FAA1
:1053800082F257096FE702D1C3F3006200E0002206
:1053900032B140206065012084F83500BDE8F0811D
:1053A00041612046FDF728F9E16D3F2201F01F0120
:1053B00002FA01F181602068404519DC9F21C4F2A6
:1053C0000201884231DC5721C4F20201884256DCD6
:1053D0001021C4F20201884200F092802821C4F218
:1053E0000201884200F08C804021C4F2020184E076
:1053F00045F22F41C5F6020188422BDC40F2B7414D
:10540000C4F20201884248DC40F27041C4F2020159
:10541000884275D040F28841C4F2020188426FD0C0
:1054200040F2A041C4F2020167E040F22741C4F219
:105430000201884240DCA021C4F2020188425FD010
:10544000B821C4F2020188425AD040F21041C4F29D
:10545000020152E045F26B41C5F6020188423CDC94
:1054600045F23041C5F60201884249D045F2444137
:10547000C5F60201884243D045F258413BE058212D
:10548000C4F2020188423BD07021C4F2020188427A
:1054900036D08821C4F202012FE040F2B841C4F2B4
:1054A000020188422CD045F20841C5F6020188422B
:1054B00026D045F21C411EE040F22841C4F2020110
:1054C00088421DD040F24041C4F20201884217D008
:1054D00040F25841C4F202010FE045F26C41C5F6BA
:1054E000020188420CD045F29441C5F6020188427F
:1054F00006D045F28041C5F60201884240F0D080D6
:1055000045F2574C45F6FC0EC5F6020CC5F6020EE8
:1055100060450EDC45F22F43C5F60203984217DCC6
:1055200045F20843C5F60203984226D045F21C43D3
:105530001FE045F27F43C5F60203984211DC45F2B5
:105540005843C5F60203984217D045F26C4310E069
:1055500045F23043C5F6020398420ED045F244436B
:1055600007E045F29443C5F60203984205D045F2A0
:105570008043C5F60203984250D100F0FC034CF67C
:10558000CD47083BCCF6CC47A3FB0737AEF1FC0573
:10559000AEF17C063B0905EB83022266A26803F0AC
:1055A0001F030127802A666607FA03F2A26601D16B
:1055B000002262606368A56ED4E91826DFB2591E26
:1055C00007291760756015D87E1E072E62D86045C2
:1055D0000EF1440213DC45F22F41C5F60201884268
:1055E0003CDC45F20841C5F6020188424BD045F249
:1055F0001C4144E000206067C4E91B0050E045F214
:105600007F41C5F60201884231DC45F25841C5F6BA
:105610000201884237D045F26C4130E000F0F803D7
:105620004AF6AB27103BCAF6AA27A3FB073740F27E
:105630000F43C4F2020308253E09984203F1AA026F
:10564000334688BF05EB171340F600059042C4F2BD
:10565000020528BF334605F180069CE745F230413C
:10566000C5F6020188420ED045F2444107E045F2FA
:105670008041C5F60201884205D045F29441C5F645
:105680000201884213D10EEB8300E06601202267FD
:10569000B040606704F16C02002307CA03604A60EF
:1056A00000206065012184F83510BDE8F08140F6E6
:1056B0000000C4F2020000F1FC0E00F5A072E2E767
:1056C00030B110B590F83440012C03D1022010BD48
:1056D00001207047012480F8344090F83540012CB7
:1056E0002BD1022480F8354000244465D0F800C056
:1056F000DCF8004024F00104CCF800400446FDF73B
:1057000007F840F20F4C2068C4F2020C40F26F41DF
:105710006045C4F2020118DC6F23C4F20203984210
:1057200024DC3F23C4F2020398423ADC1023C4F283
:105730000203984259D0282352E04FF4006141659A
:10574000002180F83410012010BD88421ADC40F29C
:105750003F43C4F2020398422ADC40F21043C4F2F1
:105760000203984241D040F2284339E09F23C4F21B
:105770000203984225DC7023C4F20203984234D01D
:1057800088232DE040F29F43C4F2020398421FDCBD
:1057900040F27043C4F20203984226D040F288439C
:1057A0001EE04023C4F2020398421ED0582317E0A3
:1057B00040F24043C4F20203984216D040F25843EC
:1057C0000EE0A023C4F2020398420ED0B82307E0F3
:1057D00040F2B843C4F20203984206D040F2A0431C
:1057E000C4F20203984240F0238103680B2262F363
:1057F00044030360226C1AB1082302681A43026052
:10580000884219DC9F22C4F20202904231DC572206
:10581000C4F20202904256DC1022C4F2020290420C
:1058200000F091802822C4F20202904200F08B80A6
:105830004022C4F2020284E045F22F42C5F6020281
:1058400090422BDC40F2B742C4F20202904248DCA4
:1058500040F27042C4F20202904274D040F2884298
:10586000C4F2020290426ED040F2A042C4F20202A0
:1058700067E040F22742C4F20202904240DCA022DC
:10588000C4F2020290425ED0B822C4F202029042F8
:1058900059D040F21042C4F2020252E045F26B428B
:1058A000C5F6020290423CDC45F23042C5F60202E7
:1058B000904248D045F24442C5F60202904242D09E
:1058C00045F258423BE05822C4F2020290423AD0DC
:1058D0007022C4F20202904235D08822C4F2020241
:1058E0002FE040F2B842C4F2020290422BD045F2BF
:1058F0000842C5F60202904225D045F21C421EE045
:1059000040F22842C4F2020290421CD040F24042CF
:10591000C4F20202904216D040F25842C4F202028F
:105920000FE045F26C42C5F6020290420BD045F200
:105930009442C5F60202904205D045F28042C5F677
:10594000020290426ED1236E1A68D20303D51A6800
:1059500042F480721A60E36E1BB11A6842F48072DE
:105960001A60604510DC6F21C4F2020188421CDC21
:105970003F21C4F20201884232DC1021C4F202014C
:1059800088424FD028214AE088421ADC40F23F4149
:10599000C4F2020188422ADC40F21041C4F2020142
:1059A00088423FD040F2284139E09F21C4F20201F1
:1059B000884225DC7021C4F20201884232D088215D
:1059C0002DE040F29F41C4F2020188421FDC40F208
:1059D0007041C4F20201884224D040F288411EE0A6
:1059E0004021C4F2020188421CD0582117E040F245
:1059F0004041C4F20201884214D040F258410EE006
:105A0000A021C4F2020188420CD0B82107E040F284
:105A1000B841C4F20201884204D040F2A041C4F26D
:105A200002018842016841F001010160002010BDBF
:105A30000268052363F343020260226C002A3FF4EC
:105A4000DFAE0423D9E60000B0B5044600F0D0FF75
:105A500040F218110546C2F20041621C097818BFD5
:105A60000C4400BF00F0C4FF401BA042FAD3B0BDFD
:105A700090F89830013B012B0BD80068836D0B42E6
:105A80000CD0836D0B408B420CD1C36D43F00203ED
:105A900009E000F19C010120022221E0C36D43F0E6
:105AA000010300E00323C3658B0504D5D0F8E03083
:105AB0001343C0F8E0304B0504D5D0F8E4301A4366
:105AC000C0F8E4204FF6FF72436DC3F6CF720A4070
:105AD0001A4342658A0F4AF614010020C4F20001FD
