:020000040800F2
:1000000020AA0024D9030008B1480108E91B01080F
:100010004948010871350008E9490208000000005C
:10002000000000000000000000000000E1A1010845
:100030002160000800000000715A0108E9BB0108B6
:10004000F7030008F7030008F7030008F7030008A8
:10005000F7030008F7030008F7030008F703000898
:10006000F7030008F7030008F7030008214700081A
:10007000F7030008F7030008F7030008F703000878
:10008000F7030008F7030008F7030008A963000856
:1000900061640008B963000871640008F703000890
:1000A000F7030008F7030008F7030008F703000848
:1000B00061BE010871BE0108F7030008F7030008DC
:1000C000F7030008F7030008F7030008F703000828
:1000D000F703000891000208F7030008F70300087F
:1000E000F7030008F703000800000000F70300080A
:1000F000F7030008F7030008F7030008F7030008F8
:10010000F7030008F7030008F7030008F7030008E7
:10011000F7030008F7030008F7030008F7030008D7
:10012000F7030008F7030008F7030008F7030008C7
:10013000F7030008F7030008F7030008F7030008B7
:1001400000000000000000000000000000000000AF
:10015000F7030008F7030008F7030008F703000897
:10016000F7030008F7030008F7030008F703000887
:10017000F7030008294A0108F703000800000000FF
:10018000F7030008F703000891DF0108A1DF010869
:10019000F7030008F7030008F7030008F703000857
:1001A000F7030008F7030008F70300080000000049
:1001B000F7030008F7030008F7030008F703000837
:1001C000F7030008F703000800000000000000002B
:1001D0000000000000000000F7030008000000001D
:1001E000000000000000000000000000000000000F
:1001F0000000000000000000F7030008F7030008FB
:10020000F7030008F703000800000000F7030008E8
:10021000F7030008F7030008F7030008F7030008D6
:10022000F703000800000000F703000800000000CA
:10023000F7030008F703000800000000F7030008B8
:10024000F7030008F7030008F7030008F7030008A6
:10025000F7030008F7030008F7030008F703000896
:10026000F7030008F7030008F7030008F703000886
:10027000F7030008F7030008F70300080000000078
:10028000F7030008F7030008F7030008F703000866
:1002900000000000F7030008F7030008000000005A
:1002A00000000000F7030008F7030008B1DF0108B1
:1002B00081000208F7030008F7030008D96400086A
:1002C000E9640008F7030008F703000800F002F8EB
:1002D00000F072F814A696E8000CB244B344DA4574
:1002E00001D100F069F8BAE80F000FA696E83000D7
:1002F000A5EB040504EB0607AAEB0704A7F1010729
:100300004FEA15154FEA3414A4F10104AC4201D3AD
:1003100000F052F813F0010F18BFFB1A43F001036D
:1003200000F001F8DBE71847948D0200D48D02003D
:100330000A444FF0000C10F8013B13F0070408BF0B
:1003400010F8014B1D1108BF10F8015B641E05D0A9
:1003500010F8016B641E01F8016BF9D113F0080F5E
:100360001EBF10F8014BAD1C0C1B09D16D1E58BFF0
:1003700001F801CBFAD505E014F8016B01F8016B27
:100380006D1EF9D59142D6D370470000704700002A
:100390000023002400250026103A28BF78C1FBD88E
:1003A000520728BF30C148BF0B6070471FB527F008
:1003B00083FF1FBD10B510BD00F080F91146FFF797
:1003C000F5FF25F0C1F900F09EF903B4FFF7F2FF45
:1003D00003BC00F0A1F900000A4880470A488047A2
:1003E0000A480047FEE7FEE7FEE7FEE7FEE7FEE716
:1003F000FEE7FEE7FEE7FEE705480649064A074B2B
:1004000070470000E9620008F9BC0108CD0200084D
:1004100018A8002020AA002418AA002020A6002442
:1004200053EA020C00F069802DE9F04B4FF0000612
:10043000002B1FBFB3FA83F503FA05F424FA05F67F
:100440005E4012BF1643B2FA82F502FA05F4C5F116
:1004500020051EBF22FA05FC44EA0C04203556EAAA
:10046000044C4FEA144418BF641C4FF000084FF0CE
:100470000009904271EB030C39D3002919BFB1FA7E
:1004800081F701FA07F6B0FA80F700FA07F6C7F12C
:1004900020071EBF20FA07FC46EA0C062037B6FBF1
:1004A000F4FCA7EB0507103F07F01F0BCBF120066C
:1004B0002CFA06F60CFA0BFB44BFB3460026202F9D
:1004C000A4BF5E464FF0000B5BEA060C08BF4FF07E
:1004D000010B19EB0B0948EB0608ABFB027C06FB92
:1004E00002CC0BFB03CCC01B71EB0C01C1E70B462C
:1004F000024641464846BDE8F08B13B5084318BF95
:100500004FF0FF300146AFF30080BDE81C4070475C
:10051000032A40F2308010F0030C00F0158011F82F
:10052000013BBCF1020F624498BF11F801CB00F807
:10053000013B38BF11F8013BA2F1040298BF00F85B
:1005400001CB38BF00F8013B11F0030300F0258018
:10055000083AC0F0088051F8043B083A51F804CB3F
:10056000A0E80810F5E7121D5CBF51F8043B40F805
:10057000043BAFF30080D20724BF11F8013B11F810
:1005800001CB48BF11F8012B24BF00F8013B00F854
:1005900001CB48BF00F8012B704710B5203AC0F0DE
:1005A0000B80B1E81850A0E81850B1E81850A0E846
:1005B0001850203ABFF4F5AF5FEA027C24BFB1E8DF
:1005C0001850A0E8185044BF18C918C0BDE8104022
:1005D0005FEA827C24BF51F8043B40F8043B08BF2B
:1005E0007047D20728BF31F8023B48BF11F8012BF2
:1005F00028BF20F8023B48BF00F8012B70474FF09E
:1006000000020429C0F0128010F0030C00F01B80DF
:10061000CCF1040CBCF1020F18BF00F8012BA8BFED
:1006200020F8022BA1EB0C0100F00DB85FEAC17CB1
:1006300024BF00F8012B00F8012B48BF00F8012B64
:1006400070474FF0000200B5134694469646203995
:1006500022BFA0E80C50A0E80C50B1F12001BFF47B
:10066000F7AF090728BFA0E80C5048BF0CC05DF8E1
:1006700004EB890028BF40F8042B08BF704748BF2F
:1006800020F8022B11F0804F18BF00F8012B7047A3
:1006900070477047704710B500F008F8006810BD4B
:1006A00010B5044600F002F8046010BD0048704721
:1006B0006002002400487047600200247546FFF77E
:1006C000F9FFAE4605006946534620F0070085460F
:1006D00018B020B5FFF790FEBDE820404FF00006AF
:1006E0004FF000074FF000084FF0000BAC46ACE8AD
:1006F000C009ACE8C009ACE8C009ACE8C00921F009
:1007000007018D46704710B50446AFF300802046C0
:10071000BDE81040FFF759BE01491820ABBEFEE707
:10072000260002007047000082B08DED010A9DEDA9
:10073000010AB5EE400AF1EE10FA07DAFFE79DED87
:10074000010AB1EE400A8DED000A04E09DED010AB8
:100750008DED000AFFE79DED000A02B07047000032
:1007600082B08DED010A9DED010AB5EE400AF1EE71
:1007700010FA07DAFFE79DED010AB1EE400A8DEDB0
:10078000000A04E09DED010A8DED000AFFE79DEDF2
:10079000000A02B07047000080B582B00090009857
:1007A00020B9FFE703208DF8070006E00098407E9F
:1007B00014F016F98DF80700FFE79DF8070002B066
:1007C00080BD00000000000080B586B003AA019241
:1007D0000246019805928DF8131080ED000A002062
:1007E0008DF80B00FFE79DF80B00032825D8FFE7E5
:1007F0009DF813009DF80B10C840C00708B9FFE72B
:1008000015E0019805999DF80B2001EB820191ED0F
:10081000190A90ED001A30EE010A03F029FC059840
:100820009DF80B1000EB810080ED130AFFE79DF8A7
:100830000B0001308DF80B00D5E706B080BD00003D
:1008400082B08DED000A9DED000A9FED111AB4EE05
:10085000410AF1EE10FA05DDFFE70020C4F2343062
:10086000019011E09DED000A9FED0A1AB4EE410AD5
:10087000F1EE10FA05DAFFE70020CCF234300190F7
:1008800002E000980190FFE79DED010A02B0704779
:1008900000003443000034C380B586B08DED040AF7
:1008A000CDED030A0290029820B1FFE702990020E3
:1008B0000870FFE79DED040A01A8694600F06CF995
:1008C00058B9FFE7029820B1FFE7029901200870AC
:1008D000FFE700208DF817002AE09DED030A9DED4B
:1008E000011A9FED152A31EE021AB4EE410AF1EE1B
:1008F00010FA0EDBFFE79DED030A9DED001A9FED58
:100900000F2A31EE021AB4EE410AF1EE10FA0BDDB5
:10091000FFE7029820B1FFE7029902200870FFE785
:1009200000208DF8170003E001208DF81700FFE785
:100930009DF8170006B080BDBD3786B5BD3786353A
:1009400080B58CB004A9029181ED060AC1ED050ABB
:1009500081ED041AC1ED031A0690069820B1FFE755
:10096000069900200870FFE7029890ED040A9FEDB9
:10097000551AB4EE410AF1EE10FA08DCFFE70298CE
:1009800090ED060AB0EEC00A80ED010A0EE0029872
:1009900090ED061A90ED050A20EE000AA1EE010A7C
:1009A00027F09AFB029880ED010AFFE7029890ED8C
:1009B000030A00F041FA029880ED000A90ED000A67
:1009C000B5EE400AF1EE10FA12DDFFE7029890ED65
:1009D000010AD0ED040A9FED3C1ADFED3C1A9FEDB1
:1009E0003C2ADFED3C2A24F0A7FC8DF80F0051E0F3
:1009F000029890ED000AB5EE400AF1EE10FA12DA14
:100A0000FFE7029890ED010AD0ED040A9FED321A3B
:100A1000DFED321A9FED322ADFED322A24F08CFC12
:100A20008DF80F0035E0029890ED010AD0ED040A30
:100A30009FED251ADFED251A9FED252ADFED252AEA
:100A400024F07AFC014602988DF80E1090ED010A10
:100A5000D0ED040A9FED201ADFED201A9FED202A29
:100A6000DFED202A24F068FC8DF80D009DF80E10B3
:100A70000020019039B1FFE79DF80D00002818BF54
:100A800001200190FFE7019800F001008DF80F00B0
:100A9000FFE7FFE79DF80F0058B9FFE7069820B180
:100AA000FFE7069903200870FFE700208DF82F006C
:100AB00003E001208DF82F00FFE79DF82F000CB018
:100AC00080BD00BF00007A43000048422364864393
:100AD0000F750543F1F805445E7C5A43C4220A446D
:100AE000A2A48FC23A69B04381B08DED000A9DED9A
:100AF000000A9FED051A20EE010A9FED041A80EE10
:100B0000010A01B0704700BFDB0F494000003443C9
:100B100083B0029001910092029830B1FFE70198F2
:100B200018B1FFE7009808B9FFE731E0019890F9A4
:100B3000100000EE100AB8EEC00A029890ED001AFC
:100B400020EE010A009880ED000A019890F9180043
:100B500000EE100AB8EEC00A029890ED011A20EEDD
:100B6000010A009880ED010A019890F9200000EE3A
:100B7000100AB8EEC00A029890ED021A20EE010A9F
:100B8000009880ED020A0298007B00990873FFE745
:100B900003B070470000000080B586B08DED040AF8
:100BA00003900291039818B1FFE7029820B9FFE77C
:100BB00000208DF817005FE09DED040A00F03CF97D
:100BC0008DED010A9DED010A9FED2D1AB4EE410A4B
:100BD000F1EE10FA0ADBFFE79DED010A9FED291AFD
:100BE000B4EE410AF1EE10FA04DDFFE700208DF8C3
:100BF000170041E09DED010AB5EE400AF1EE10FA52
:100C00000FDDFFE79FED220AFFF76EFF039880EDEF
:100C1000000A9FED1E0AFFF767FF029880ED000AA9
:100C200026E09DED010AB5EE400AF1EE10FA0FDA6A
:100C3000FFE79FED150AFFF757FF039880ED000AC5
:100C4000B2EE040AFFF750FF029880ED000A0EE0B2
:100C50009FED0D0AFFF748FF039880ED000A9FED16
:100C60000B0AFFF741FF029880ED000AFFE7FFE75C
:100C700001208DF81700FFE79DF8170006B080BD32
:100C8000000078C20000A04202EB7CC274C44C4257
:100C9000000000000000000082B00090009818B929
:100CA000FFE70020019003E0009824300190FFE767
:100CB000019802B070470000B0B584B00390029173
:100CC000039818B1FFE7029808B9FFE726E00398F8
:100CD0005C21FFF7B6FC03990091029B0193186811
:100CE0005A68D3F808C0D3F80CE01C695D694D61FF
:100CF0000C61C1F80CE0C1F808C04A60086098694E
:100D0000DA691B6A0B62CA6188610398243000F0BB
:100D1000A7F80399012081F85800FFE704B0B0BD9F
:100D200080B588B0DDF82CC0DDF828C08DED070A4D
:100D3000CDED060A8DED051A049003910292019300
:100D4000049878B1FFE7039860B1FFE7029848B1D3
:100D5000FFE7019830B1FFE70A9818B1FFE70B9859
:100D600008B9FFE72DE09DED070A049890ED001A01
:100D700030EE410A00F028F8019880ED000A9DED60
:100D8000060A039890ED001A30EE410A00F01CF8B4
:100D90000A9880ED000A9DED060A9DED051A30EED9
:100DA000010A039890ED001A029890ED002A31EEA6
:100DB000021A30EE410A00F007F80B9880ED000AA5
:100DC000FFE708B080BD000081B08DED000AFFE7AD
:100DD0009DED000A9FED141AB4EE410AF1EE10FAEF
:100DE00009DBFFE79DED000A9FED121A30EE010AC4
:100DF0008DED000AECE7FFE79DED000A9FED0B1A71
:100E0000B4EE410AF1EE10FA09DAFFE79DED000AAF
:100E10009FED071A30EE010A8DED000AECE79DED1B
:100E2000000A01B0704700BFDB0F4940DB0F49C02B
:100E3000DB0FC940DB0FC9C081B08DED000A9DED0D
:100E4000000A9FED051A20EE010A9FED041A80EEBC
:100E5000010A01B0704700BF00003443DB0F494076
:100E600080B582B00190019808B9FFE70AE00198C7
:100E70003421FFF7E6FB0199FE200870019900205C
:100E80004870FFE702B080BD10B59CB01A908DEDA0
:100E9000190ACDED180A8DED171ACDED161A1A980C
:100EA00020B9FFE7FF208DF86F00F3E11A9890F862
:100EB000580058B9FFE71A982430FFF7D1FF1A9964
:100EC000FB2081F824008DF86F00E3E11A982430AC
:100ED000FFF7C6FF19981A99C86218981A990863FB
:100EE00017981A9948631A9890ED010A9FEDEB1A2A
:100EF000B4EE410AF1EE10FA0BDDFFE71A9890ED1F
:100F0000020A9FEDE61AB4EE410AF1EE10FA07DC90
:100F1000FFE71A99FE2081F824008DF86F00B9E1EF
:100F20009DED170A9FEDDE1AB4EE410AF1EE10FABC
:100F300041DCFFE700201590189812909DED120AF1
:100F4000B0EEC00AB1EE041AB4EE410AF1EE10FAA6
:100F500013DDFFE71A99FC2081F824001A9A012179
:100F600082F826101A9A002182F827101A9A042172
:100F700082F825108DF86F008CE19DED190AB0EE16
:100F8000C00A9FEDC61AB4EE410AF1EE10FA11DA6A
:100F9000FFE79DED180AB0EEC00A9FEDC01AB4EE4F
:100FA000410AF1EE10FA05DAFFE71A99012081F8FB
:100FB0002800FFE728E09DED190AB0EEC00A9FED7A
:100FC000B71AB4EE410AF1EE10FA13DAFFE79DED1D
:100FD000180AB0EEC00A9FEDB11AB4EE410AF1EE64
:100FE00010FA07DAFFE7169815901A99012081F890
:100FF000280008E09DED180ADDED190A26F074FAC4
:101000008DED150AFFE7FFE79DED150AFFF7DCFE02
:101010008DED150A9DED150A26F0BCFB8DED0A0A33
:101020009DED190A8DED090A9DED150A26F08CFF3C
:101030009DED092A9DED0A1A9DED183A20EE030A4E
:10104000A1EE020A8DED110A9DED110AB1EE400AE2
:101050008DED100A9DED170A1A9890ED001A30EEEA
:10106000410A8DED0F0A9DED101A9DED0F0A20EE3D
:10107000000AA1EE010A1A9890ED011A90ED022AD9
:10108000A1EE410AA2EE420A31EE011A21EE021A45
:1010900080EE010A8DED0E0A9DED0E0A9FED811A7C
:1010A000B4EE410AF1EE10FA0ADBFFE79DED0E0AFD
:1010B0009FED7D1AB4EE410AF1EE10FA0BDDFFE769
:1010C0001A99FD2081F824001A9A002182F826102E
:1010D0008DF86F00DEE09DED0E0AFFEE000ACDED0B
:1010E000030AB7EE001A24F0CBF8B0EE401A9DEDDB
:1010F000030A8DED0E1A9DED0E1A91EE410A9FED39
:101100006B1A80FE010A26F0E7FF8DED0D0A9DEDBA
:101110000D0AB1EE400ADDED0E0A26F0E5F98DED7F
:10112000130A1A9890ED010A8DED050A90ED020A56
:101130008DED040A9DED130A26F02CFB9DED041A9B
:10114000B0EE402A9DED050AA1EE020A8DED0C0AD3
:101150001A9890ED020A8DED060A9DED130A26F00D
:10116000F3FEB0EE401A9DED060A20EE010A8DED69
:101170000B0A9DED100ADDED0F0A26F0B5F98DED95
:10118000070A9DED0B0ADDED0C0A26F0ADF9B0EE75
:10119000401A9DED070A30EE410A8DED140A9DEDCF
:1011A000150AFFF711FE8DED150A9DED140AFFF7E4
:1011B0000BFE8DED140A9DED130AFFF705FE8DED74
:1011C000130A1A990120089081F8260015991A9A95
:1011D000916314991A9AD16313991A9A11641A99FE
:1011E00081F844009DED150ADDED140A9DED131AFA
:1011F000DDF868E00EF10C000EF114010EF11C0296
:101200000EF148030EF14C0C0EF15004EE46CEF8F0
:101210000440CEF800C0FFF783FD08981A9981F8C2
:1012200054009DED140A1A98D0ED140A2530FFF7EA
:1012300033FB58B9FFE71A99FC2081F824001A9A69
:10124000002182F827108DF86F0023E09DED190A28
:10125000DDED180A9DED171ADDED141A1A982530E8
:10126000FFF76EFB58B9FFE71A99FC2081F82400BC
:101270001A9A002182F827108DF86F000AE01A9957
:10128000002081F824001A9A012182F827108DF895
:101290006F00FFE79DF96F001CB010BDBD378635AC
:1012A00000007A43540080BF5400803F00000000DB
:1012B00080B5AEB02A90ADF8A6102A9828B1FFE705
:1012C000BDF8A600382804D8FFE70020ADF8AE002E
:1012D0003BE1EFF310802C902C980390EFF31080FB
:1012E00072B62D9000F050FD014609A87C22FFF750
:1012F00054F944F68053C2F20003986BD96B1A6C10
:101300005B6C089307920691059046F2E000C2F2EA
:10131000004081788DF812100088ADF81000039815
:1013200010B9FFE762B6FFE79DED050AFFF784FD00
:101330008DED020A9DED060AFFF77EFD8DED010A97
:101340009DED070AFFF778FD8DED000A0020ADF84E
:10135000A4002A99BDF8A420501CADF8A400A52033
:101360008854BDF8A400ADF8A2002A99BDF8A420C5
:10137000501CADF8A400E12088549DF810002A9973
:10138000BDF8A420531CADF8A43088549DF811007A
:101390002A99BDF8A420531CADF8A43088549DF8B8
:1013A00012002A99BDF8A420531CADF8A43088542B
:1013B0009DF89C002A99BDF8A420531CADF8A430D8
:1013C00088549DF898002A99BDF8A420531CADF8C4
:1013D000A43088542A98BDF8A41008449DED090A49
:1013E00000F0FAF8BDF8A4000430ADF8A4002A9883
:1013F000BDF8A41008449DED0A0A00F0EDF8BDF810
:10140000A4000430ADF8A4002A98BDF8A410084444
:101410009DED0B0A00F0E0F8BDF8A4000430ADF833
:10142000A4002A98BDF8A41008449DED0C0A00F011
:10143000D3F8BDF8A4000430ADF8A4002A98BDF894
:10144000A41008449DED0D0A00F0C6F8BDF8A400F4
:101450000430ADF8A4002A98BDF8A41008449DED0E
:101460000E0A00F0B9F8BDF8A4000430ADF8A400ED
:101470002A98BDF8A41008449DED230A00F0ACF8AA
:10148000BDF8A4000430ADF8A4002A98BDF8A4105B
:1014900008449DED240A00F09FF8BDF8A400043034
:1014A000ADF8A4002A98BDF8A41008449DED250AC3
:1014B00000F092F8BDF8A4000430ADF8A4002A981A
:1014C000BDF8A41008449DED020A00F085F8BDF8AF
:1014D000A4000430ADF8A4002A98BDF8A410084474
:1014E0009DED010A00F078F8BDF8A4000430ADF8D5
:1014F000A4002A98BDF8A41008449DED000A00F04D
:101500006BF8BDF8A4000430ADF8A4002A98BDF82B
:10151000A2100844362100F01FF88DF8A1009DF8B4
:10152000A1002A99BDF8A420531CADF8A43088541A
:101530002A99BDF8A420501CADF8A4005A20885464
:10154000BDF8A400ADF8AE00FFE7BDF8AE002EB0C8
:1015500080BD00000000000085B00390ADF80A10C7
:1015600000200190039820B9FFE700208DF81300B8
:101570001CE00020ADF80200FFE7BDF80200BDF856
:101580000A1088420EDAFFE70398BDF80210415CAA
:10159000019808440190FFE7BDF802000130ADF862
:1015A0000200EAE701988DF81300FFE79DF81300A9
:1015B00005B070470000000046F6DD11C2F20001E0
:1015C000002008707047000046F6DD10C2F20000EF
:1015D000007870470000000082B001908DED000A95
:1015E000019808B9FFE703E0019900980860FFE758
:1015F00002B070470000000080B582B046F6DD10F2
:10160000C2F20000007820B1FFE700208DF807004B
:1016100035E046F6A410C2F200003921FFF748FE7B
:10162000ADF80400BDF8040020B9FFE700208DF8F4
:10163000070024E046F6DD11C2F200010120087027
:10164000BDF8042045F27050C2F2004046F6A411E5
:10165000C2F2000110F01CFA8DF803009DF803009F
:1016600048B1FFE746F6DD11C2F200010020087024
:101670008DF8070003E001208DF80700FFE79DF8D3
:10168000070002B080BD000046F6DD11C2F2000185
:10169000002008707047000080B584B00390039864
:1016A00008B9FFE755E044F63860C2F2004090F810
:1016B000780048B1FFE744F63860C2F2004090ED90
:1016C0001A0A8DED010A04E09FED230A8DED010A4F
:1016D000FFE79DED010A8DED020A039890ED000AE7
:1016E0009FED1E1AB4EE410AF1EE10FA0EDBFFE791
:1016F0009DED020AB5EE400AF1EE10FA06DAFFE7B8
:1017000003990020CCF23430086022E0039890ED79
:10171000000A9FED131AB4EE410AF1EE10FA0EDC46
:10172000FFE79DED020AB5EE400AF1EE10FA06DD84
:10173000FFE703990020C4F23430086008E0039802
:1017400090ED000A00F094F9039880ED000AFFE79D
:10175000FFE704B080BD00BF00000000BEFF3343C0
:10176000BEFF33C300000000B0B588B007900798F3
:1017700008B9FFE779E107984FF4B271FEF761FF0E
:1017800044F68050C2F20000039000F1240106915B
:10179000079A049201684368D0F808C0D0F80CE0BA
:1017A0000469456955611461C2F80CE0C2F808C0CB
:1017B000536011608169C369D0F820C0C2F820C0AD
:1017C000D361916190F85800079981F8240044F69C
:1017D0003863C2F20043059393F87800079981F8C3
:1017E000250006988078079981F826000698C07829
:1017F000079981F8270006980079079981F8280051
:1018000093F87900079981F8290093F87A000799ED
:1018100081F82A0046F69410C2F20000007B079976
:1018200081F82B0006980078079981F82C0006981B
:101830004078079981F82D00079918685A68D3F8FD
:1018400008C0C1F838C04A6308630799DDF818C0BA
:10185000DCF80800DCF80C20DCF810C0C1F844C04B
:101860000A64C8630799D8681A695B690B65CA641A
:1018700088640799DDF818C0DCF81400DCF818203B
:10188000DCF81C30DCF820C0C1F860C0CB658A658C
:101890004865079901F15400643100F0B5FA0799E1
:1018A000DDF818C0DCF82400DCF82820DCF82C3047
:1018B000DCF830C0C1F880C0CB678A6748670799F9
:1018C00001F17400843100F0CBFADDF814C00799FF
:1018D000DCF82800DCF82C20DCF83030DCF834C0F0
:1018E000C1F8A0C0C1F89C30C1F89820C1F894009C
:1018F000079901F19400A43100F086FA059890F858
:10190000780048B3FFE7079944F6386CC2F2004C00
:10191000CDF808C0DCF83800DCF83C20DCF84030BA
:10192000DCF844E0C1F8C0E0C1F8BC30C1F8B82030
:10193000C1F8B4000799DCF84800DCF84C20DCF86A
:101940005030DCF854C0C1F8E0C0C1F8DC30C1F858
:10195000D820C1F8D400FFE7079901F1B400C431E1
:1019600000F07EFA079944F6386CC2F2004CCDF8CC
:1019700004C0DCF86800DCF86C20DCF87030DCF8BF
:1019800074E0C1F8F0E0C1F8EC30C1F8E820C1F82B
:10199000E4000799DCF81800DCF81C20DCF82030A3
:1019A000DCF824C0C1F800C1C1F8FC30C1F8F8204F
:1019B000C1F8F400079901F1F40001F5827100F01B
:1019C00023FADDF804C00799DCF83800DCF83C2085
:1019D000DCF84030DCF844C0C1F820C1C1F81C314B
:1019E000C1F81821C1F81401079901F58A7001F5B1
:1019F000927100F035FADDF804C00799DCF8480070
:101A0000DCF84C20DCF85030DCF854E0C1F840E160
:101A1000C1F83C31C1F83821C1F834010799DCF82C
:101A20005800DCF85C20DCF86030DCF864C0C1F8F9
:101A300050C1C1F84C31C1F84821C1F8440107999F
:101A400046F6941CC2F2000CDCF80000DCF804201E
:101A5000DCF80830DCF80CC0C1F860C1C1F85C31BA
:101A6000C1F85821C1F85401FFE708B0B0BD00002B
:101A700082B08DED000A9DED000A9FED111AB4EEC3
:101A8000410AF1EE10FA05DDFFE70020C4F2343020
:101A9000019011E09DED000A9FED0A1AB4EE410A93
:101AA000F1EE10FA05DAFFE70020CCF234300190B5
:101AB00002E000980190FFE79DED010A02B0704737
:101AC00000003443000034C380B58AB00020019088
:101AD0000020C4F2A030029003909FED120AFFF79D
:101AE00003F88DED040A9FED100AFEF7FDFF8DED62
:101AF000060A9FED0E0AFEF7F7FF8DED080A01209A
:101B00008DF81400FF218DF81C108DF8240044F688
:101B10008050C2F2000001A9FFF7CEF800F0CCF926
:101B20000AB080BD000000000000A042000025C3F4
:101B300080B598B00BA8099080ED0C0AC0ED0B0A97
:101B400080ED0A1A179844F63861C2F20041086025
:101B50001698486015988860002028B9FFE7179804
:101B600023F0A2FA58B930E0099890ED0C0AB7EECC
:101B7000C00A51EC100B23F087FA30B3FFE70020C6
:101B800028B9FFE7169823F08FFA58B91DE0099895
:101B900090ED0B0AB7EEC00A51EC100B23F074FA6B
:101BA00098B1FFE7002028B9FFE7159823F07CFAE9
:101BB00028BB0AE0099890ED0A0AB7EEC00A51EC7A
:101BC000100B23F061FAD0B9FFE700F0EDF88DF8C3
:101BD0002B0044F63861C2F200410320089081F8DE
:101BE00079009DF82B0081F87A0000F011FB08982D
:101BF0009DF82B200023194600F0F2F9BDE009986A
:101C000090ED0C0AD0ED0B0A90ED0A1A44F68050C4
:101C1000C2F200000790DFED5A1AFFF735F90146CE
:101C200007988DF85310FFF737F813909DF953007C
:101C3000E8BBFFE71398243044F68051C2F200015C
:101C40000FAA0492FEF764FF04980BA9059100F017
:101C500007F90598FFF720FD099890ED000AFEF7B7
:101C600043FF09980499059A80ED040A90ED0C0A47
:101C7000D0ED0B0A90ED0A1A139800F031F900200C
:101C800006908DF82B0044F63861C2F2004181F8CD
:101C900079009DF82B0081F87A0000F0B9FA0699D6
:101CA0009DF82B20139B084600F09AF965E09DF9FA
:101CB00053000330D0B9FFE700F076F88DF82B0021
:101CC00044F63861C2F200410120039081F87900A6
:101CD0009DF82B0081F87A0000F09AFA03989DF89D
:101CE0002B20139B002100F07BF945E09DF9530068
:101CF000043030BBFFE700208DF82A00139828B18C
:101D0000FFE7139840788DF82A00FFE700F04CF8C1
:101D10008DF82B0044F63861C2F200410220029097
:101D200081F879009DF82B0081F87A0000F070FAB4
:101D300002989DF82A109DF82B20139B00F050F973
:101D400019E000F031F88DF82B0044F63861C2F24A
:101D500000410320019081F879009DF82B0081F863
:101D60007A0000F055FA01989DF82B20139B002172
:101D700000F036F9FFE7FFE7FFE718B080BD00BFCE
:101D8000000000000000000044F63860C2F200408D
:101D9000704700000000000080B500F039FA44F6FA
:101DA000B460C2F2004080BD82B044F63860C2F236
:101DB000004090F87800E8B1FFE744F63861C2F2DD
:101DC000004100918869CA690B6AD1F824C0C1F842
:101DD00034C00B63CA628862886DCA6D0B6ED1F81D
:101DE00064C0C1F874C00B67CA66886601208DF8AC
:101DF000070003E002208DF80700FFE79DF80700C9
:101E000002B070470000000080B582B001900091E0
:101E1000019818B1FFE7009808B9FFE71CE00198A6
:101E200090ED000AFFF708F8009880ED000A01988D
:101E300090ED010AFFF700F8009880ED010A019883
:101E400090ED020AFEF7F8FF009880ED020A019873
:101E5000007B00990873FFE702B080BD000000001E
:101E600080B582B001900091019818B1FFE7009809
:101E700008B9FFE71CE0019890ED000AFEF7DCFFCF
:101E8000009880ED000A019890ED010AFEF7D4FF5A
:101E9000009880ED010A019890ED020AFEF7CCFF50
:101EA000009880ED020A0198007B00990873FFE713
:101EB00002B080BD0000000080B544F63860C2F278
:101EC00000407C21FEF7BDFB46F69411C2F20001F2
:101ED0000020C86088604860086000F099F980BD03
:101EE00087B08DED060ACDED050A8DED041A03903D
:101EF00002910192039830B1FFE7029818B1FFE711
:101F0000019808B9FFE768E0069844F63861C2F224
:101F100000410091C8600598086104984861DDF8A7
:101F20000CC0DCF81400DCF81820DCF81C30DCF8FD
:101F300020C0C1F824C00B62CA618861DDF80CC002
:101F4000DCF82400DCF82820DCF82C30DCF830C089
:101F5000C1F844C00B64CA638863DDF808C0DCF8CC
:101F60000000DCF80420DCF80830DCF80CC0C1F814
:101F700054C00B65CA648864DDF804C0DCF8000056
:101F8000DCF80420DCF80830DCF80CC0C1F864C0D0
:101F90000B66CA658865DDF80CC0DCF81400DCF857
:101FA0001820DCF81C30DCF820C0C1F834C00B630A
:101FB000CA628862DDF804C0DCF80000DCF80420A6
:101FC000DCF80830DCF80CC0C1F874C00B67CA66D6
:101FD0008866012081F87800FFE707B070470000AD
:101FE00080B588B08DF81F008DF81E108DF81D206B
:101FF00006939DF81F008DF812009DF81E008DF8C5
:1020000013009DF81D008DF81400069848B1FFE7F5
:10201000069880788DF815000698C0788DF816001F
:1020200005E000208DF815008DF81600FFE744F656
:102030003860C2F2004090F878008DF817009020C8
:1020400001900DF1120102910622039200F010F8A6
:1020500001980299039A00F003F808B080BD0000CF
:1020600083B08DF80B000191ADF8022003B07047EA
:1020700080B584B08DF80F000291ADF806209DF870
:102080000F0002999DF8062019F0C6FA04B080BD31
:1020900080B584B001A981ED020AC1ED010A81ED8C
:1020A000001A8DF80300039846F69411C2F200015D
:1020B000086002984860019888609DF80300002835
:1020C00018BF0120087300F0A3F804B080BD000021
:1020D00080B5A0B01CAA019282ED020AC2ED010AED
:1020E00082ED001A1B901A911B9820B1FFE71B99F3
:1020F000FE200870FFE71A9820B1FFE71A99002028
:102100000870FFE7002028B9FFE71E9822F0CCFFF7
:1021100058B930E0019890ED020AB7EEC00A51ECD0
:10212000100B22F0B1FF30B3FFE7002028B9FFE722
:102130001D9822F0B9FF58B91DE0019890ED010AF1
:10214000B7EEC00A51EC100B22F09EFF98B1FFE7EA
:10215000002028B9FFE71C9822F0A6FF78B90AE012
:10216000019890ED000AB7EEC00A51EC100B22F076
:102170008BFF20B9FFE700208DF87F0041E044F697
:102180008050C2F2000090F8580058B9FFE71B9841
:1021900020B1FFE71B99FB200870FFE700208DF8B6
:1021A0007F002EE044F68051C2F2000103A80090A7
:1021B0005C22FEF7F2F90199009891ED020AD1ED47
:1021C000010A91ED001ADFED111AFEF75DFE8DF8A0
:1021D0000B001B9828B1FFE79DF80B001B990870B6
:1021E000FFE71A9828B1FFE79DF831001A990870A7
:1021F000FFE79DF90B00B0FA80F040098DF87F00F1
:10220000FFE79DF87F0020B080BD00BF0000000008
:1022100080B544F6B460C2F20040FFF7A5FA80BD75
:1022200080B586B08DF8170045F62000C2F2004058
:1022300090ED030AB8EEC00A9FED291A20EE010ABC
:102240008DED040A90ED0A0AB8EEC00A9FED251A3A
:1022500020EE010A8DED030A90ED110AB8EEC00AD6
:1022600020EE010A8DED020A9DED040A9FED1E1A73
:10227000B4EE410AF1EE10FA05DDFFE70020C4F2EA
:10228000343004900FE09DED040A9FED181AB4EE6F
:10229000410AF1EE10FA05DAFFE70020CCF2343003
:1022A0000490FFE7FFE79DF8172044F66C51C2F257
:1022B000000144F62860C2F20040012A08BF084627
:1022C000019024F0A5FA04980199086003980199F7
:1022D000486002980199886024F0C6FA06B080BD73
:1022E000402F81B974F7EF3900003443000034C344
:1022F00080B582B044F69050C2F2004090F90000E0
:10230000012818D0FFE746F65830C2F200000078E6
:1023100050B9FFE70020FFF783FF46F65831C2F2BD
:10232000000101200870FFE744F63C51C2F20001B1
:102330000020087094E044F63C50C2F2000000789F
:1023400008B9FFE78CE04AF21420C2F2004090ED99
:10235000000A44F63450C2F2000090ED001AB4EEC8
:10236000410AF1EE10FA36D1FFE746F68C30C2F2A0
:10237000000090ED000A44F68C50C2F2004090ED4F
:10238000001AB4EE410AF1EE10FA24D1FFE74AF246
:102390001C20C2F2004090ED000A44F63850C2F210
:1023A000000090ED001AB4EE410AF1EE10FA12D1DD
:1023B000FFE746F65830C2F20000007850B9FFE758
:1023C0000020FFF72DFF46F65831C2F20001012030
:1023D0000870FFE744E046F65831C2F200010020E1
:1023E000087044F63450C2F2000090ED000A44F642
:1023F0008C50C2F20040D0ED000A44F63850C2F2D0
:10240000000090ED001AFFF793FBFFF7BDFC019071
:10241000019890F8780010B3FFE70198806A45F2C0
:102420003071C2F2004108600198C06A48600198AA
:10243000006B88600198806E44F62861C2F200410A
:1024400008600198C06E48600198006F8860FFF7CF
:10245000BBF818B9FFE7FFF7CFF8FFE7FFE7FFE7A3
:1024600002B080BD0000000080B584B08DED030A8D
:10247000CDED020A8DED011A46F68830C2F2000059
:1024800090ED000A9DED031AB4EE410AF1EE10FA48
:1024900020D1FFE74AF21820C2F2004090ED000A76
:1024A0009DED021AB4EE410AF1EE10FA12D1FFE7E7
:1024B00046F69030C2F2000090ED000A9DED011A40
:1024C000B4EE410AF1EE10FA04D1FFE70120FFF764
:1024D000A7FE2FE09DED030ADDED020A9DED011A36
:1024E000FFF726FBFFF750FC0090009890F878006B
:1024F000F8B1FFE724F08CF90098806A45F6147172
:10250000C2F2000108600098C06A48600098006B41
:1025100088600098806E44F66C51C2F20001086039
:102520000098C06E48600098006F886024F09CF9A5
:10253000FFE7FFE704B080BD82B00090009820B9AB
:10254000FFE7FF208DF807002AE00098006841F2BD
:102550000001C4F20101884204D1FFE700208DF898
:1025600007001DE00098006847F60041C4F2000132
:10257000884204D1FFE701208DF8070010E00098A1
:10258000006841F60001C4F20101884204D1FFE76E
:1025900002208DF8070003E0FF208DF80700FFE719
:1025A0009DF8070002B0704780B582B08DF8030037
:1025B0009DF8030000F014F818B9FFE7002001901F
:1025C00009E09DF8031046F6E410C2F2000000EBAB
:1025D00041100190FFE7019802B080BD00000000AB
:1025E00081B08DF803009DF803100020032938BF47
:1025F000012001B07047000080B584B08DF80E0056
:102600009DF80E00FFF7ECFF20B9FFE701208DF8E1
:102610000F0026E09DF80E1048F66410C0F6020088
:1026200050F8210002909DF80E0046F6E411C2F227
:10263000000101EB4012430100200190C850D0611D
:10264000906150611061D0609060506002989DF878
:102650000E2001EB421120220EF0AEF88DF80F0093
:10266000FFE79DF80F0004B080BD000000000000EF
:1026700080B584B08DF80E000291ADF8062000936D
:102680009DF80E00FFF7ACFF38B1FFE7029820B1CC
:10269000FFE7BDF8060020B9FFE701208DF80F0025
:1026A00010E09DF80E1048F66410C0F6020050F8D5
:1026B00021000299BDF80620009B0FF04DF98DF81E
:1026C0000F00FFE79DF80F0004B080BD0000000080
:1026D000F0B5A1B00DF12C0CCDF824C01F901E91C7
:1026E0001D921C9344F63D50C2F20000007808B9D8
:1026F000FFE7A0E1EFF3108072B6209044F692510C
:10270000C2F2004112A82822FDF702FF44F63D5113
:10271000C2F200010020087062B6FF218DF8471058
:102720008DF82B00FFE79DF82B00072813D8FFE753
:102730009DF82B1012A8405C012805D1FFE79DF8F9
:102740002B008DF8470006E0FFE79DF82B000130D5
:102750008DF82B00E7E79DF8500044F69056C2F242
:102760000046089630709DF8510044F23155C2F28F
:10277000000528709DF852004AF22224C2F200445B
:1027800020709DF8530044F66851C2F20001069192
:1027900008709DF8540044F6D051C2F200410291F5
:1027A00008709DF8550044F66A51C2F20001039189
:1027B00008709DF8560044F6E851C2F200410491B9
:1027C00008709DF8570044F66951C2F20001059166
:1027D000087012A80190103023F06EFD019809993D
:1027E00081ED050A143023F067FD0198099981ED08
:1027F000040A183023F060FD0198099981ED030A5D
:102800001C3023F059FD0198099981ED020A20300E
:1028100023F052FD0198099981ED010A243023F03B
:102820004BFD0999DDF808C0039B049A0598DDF873
:1028300018E081ED000A9DF8477044F6EC51C2F2B1
:10284000004107910F70109F4F600F9F8F600E9F88
:10285000CF600D9F0F610C9F4F610B9F8F6136788A
:102860000E772D784D7724788C779EF800E081F8EC
:102870001FE09CF800C081F820C01B7881F821304F
:10288000127881F82220007881F82300486A01300C
:10289000486208F099FF079A01460898D162012121
:1028A00082F82810002182F8381048F28C12C2F207
:1028B0000042117044F63C52C2F20002117090F9CD
:1028C000000001283BD1FFE744F23150C2F2000082
:1028D0000078A0BBFFE7099890ED020AD0ED010A4D
:1028E00090ED001A00210846FFF7F2FBC8B1FFE7A0
:1028F0000D9844F63451C2F2000108600C9844F679
:102900008C51C2F2004108600B9844F63851C2F273
:102910000001086044F63C51C2F200010120087039
:102920000CE0099890ED020AD0ED010A90ED001A32
:10293000FFF7FEF80020FFF773FCFFE70AE044F61C
:102940009050C2F2004090F90000012801D0FFE74A
:10295000FFE7FFE744F23150C2F20000007801388F
:10296000B0FA80F0400901F0BFFC40F20800C2F26A
:1029700000400078012825D1FFE709989DF847100D
:1029800090ED050AD0ED040A90ED031A45F26C3083
:10299000C2F2004013F0A0F844F66A50C2F2000000
:1029A000017844F6E850C2F20040027844F66950DB
:1029B000C2F20000037844F65870C2F2000013F02F
:1029C00063FC0CE045F26C30C2F2004015F0ECF80C
:1029D00044F65870C2F2000013F0C2FCFFE740F268
:1029E0000800C2F200400078012824D1FFE74AF233
:1029F0002220C2F200400178002000901AF0B8FABC
:102A000000981AF0E5F844F66851C2F2000109781E
:102A1000002918BF01211AF05BFA00981AF0C4F8D7
:102A200044F6D051C2F200410978002918BF0121B3
:102A30001AF00AFAFFE721B0F0BD00000000000024
:102A400080B584B003908DF80B109DF80B0019F041
:102A5000A3FF8DF80A009DF80A0001F049FB0398D6
:102A600001F0CEF9039801909DF80B0019F0C8FF12
:102A700001989DF80A1018F0A7FE04B080BD000070
:102A800080B588B0079006918DF8172004930798B9
:102A900008B9FFE72AE20798007D90B1FFE70798A1
:102AA0009DF8171019F00CF858B9FFE7069820B1F7
:102AB000FFE7069815F078F8FFE7079900200875FA
:102AC000FFE79DF81700079908700799002002900A
:102AD00008710499079AD1610799C8740799887495
:102AE000079908750799C875079948620799087684
:102AF000079988620798032118F046FE9DF8170091
:102B0000182814D1FFE70F2001F01AFB0798BBEE3D
:102B10000E0A18F015FE079801F072F907989FED5C
:102B2000D30A18F045FE079821F046FEDEE19DF835
:102B300017001A2844D1FFE70798BBEE0E0A18F0D9
:102B4000FFFD079801F05CF907989FEDC80A18F09F
:102B50002FFE069820B1FFE7069815F025F8FFE74D
:102B600021F0A6FD40BBFFE7069860B9FFE7079993
:102B7000487940F00400487107990020C87007990F
:102B80001720087017E0069814F0DEFD0698002163
:102B900014F0EEFE0698DFEDB60A9FEDD51AB0EE02
:102BA000410A14F081FF07990120087507980499DC
:102BB00021F09EFDFFE7FFE7079821F0FDFD95E17D
:102BC0009DF817001B2844D1FFE70798BBEE0E0ABB
:102BD00018F0B6FD079801F013F907989FEDC40AA5
:102BE00018F0E6FD069820B1FFE7069814F0DCFF28
:102BF000FFE703F091FA40BBFFE7069860B9FFE7F3
:102C00000799487940F00400487107990020C8707E
:102C100007991720087017E0069814F095FD06989C
:102C2000002114F0A5FE0698DFEDB40A9FEDB01A5E
:102C3000B0EE410A14F038FF079901200875079893
:102C4000049903F005FAFFE7FFE7079821F0B4FDC8
:102C50004CE19DF817001C2846D1FFE70798BBEE12
:102C60000E0A18F06DFD079801F0CAF807989FED5D
:102C7000A00A18F09DFD069860B9FFE7079948790A
:102C800040F00400487107990020C8700799172088
:102C9000087025E0069814F087FF069814F054FD9C
:102CA0000698042114F064FE0698DFED930A9FED68
:102CB000901AB0EE410A14F057FD20B9FFE70799CA
:102CC000012008750BE00799487940F0040048712D
:102CD00007990020C870079917200870FFE7FFE7E1
:102CE000079821F069FD01E19DF81700192846D1E8
:102CF000FFE70798BBEE0E0A18F022FD079801F0D7
:102D00007FF807989FED7A0A18F052FD069860B98F
:102D1000FFE70799487940F00400487107990020BF
:102D2000C87007991720087025E0069814F03CFF3A
:102D3000069814F009FD0698042114F019FE06986F
:102D4000DFED6C0A9FED6A1AB0EE410A14F00CFD3B
:102D500020B9FFE70799012008750BE0079948792A
:102D600040F00400487107990020C87007991720A7
:102D70000870FFE7FFE7079821F01EFDB6E09DF819
:102D80001700002800F08A80FFE79DF817000190E7
:102D9000079801F0EDFB0146019888427ED8FFE7D5
:102DA000079801F0F9FB9DF8171000EB411020384F
:102DB000039007980399897918F0E6FC079803991E
:102DC00091ED020AD1ED030A91ED041AD1ED051A35
:102DD00018F026FD0398007928B9FFE70398407999
:102DE00001F0AEF956E00398007901280FD1FFE712
:102DF0000398807901F07CF9079801F001F80798B1
:102E0000039991ED060A897918F0DEFC41E00398F8
:102E1000007902283CD1FFE7069860B9FFE70799DF
:102E2000487940F00400487107990020C87007995C
:102E3000172008702BE0069814F0B6FE069814F0E0
:102E400083FC0698042114F093FD06980399D1EDB4
:102E5000060A9FED271AB0EE410A14F085FC48B926
:102E6000FFE707990120087510E000BF000000008F
:102E70000AD7A33D0799487940F0040048710799A3
:102E80000020C870079917200870FFE7FFE7FFE7E9
:102E9000FFE7FFE7079821F08FFC27E09DF8170078
:102EA00016281FD1FFE7069828B1FFE706980121F1
:102EB00014F05EFDFFE707990020C8700799012014
:102EC00008710798BBEE0E0A18F03AFC079800F05C
:102ED00097FF07989FED060A18F06AFC079821F003
:102EE0006BFC03E0079821F067FCFFE708B080BDAA
:102EF000000000008FC2F53C0AD7A33B0AD7A33DD0
:102F000080B58CB00B900A918DF8272008930B9810
:102F100008B9FFE795E10B9821F04EFC0B98007D76
:102F200058B1FFE70A9820B1FFE70A9814F03CFE79
:102F3000FFE70B9900200875FFE70B9901208870C7
:102F40000B990020C8700B9908730B9908720B99A4
:102F500048720B9988720B98807B30B1FFE70B9910
:102F60000020C8720B99487303E00B9801F0ACF88D
:102F7000FFE70B99002008700B99087108990B9ACC
:102F8000D1619DF827100B9A91740B9A0121D1748D
:102F90000B9908750B9948719DF827000138014677
:102FA0000691252800F23B810699DFE811F0260002
:102FB0002F003A004500450045004B0066007100B7
:102FC0007C007C007C00FE00190124012F014500DB
:102FD000450045007C007C007C0054005D0007013A
:102FE00010014500450045004500450045004500ED
:102FF000450045004500450045000F2001F0A0F8C0
:103000000B989FED920A18F09BFB16E10F2005909C
:1030100001F096F805990B98B2EE040AFDF7D4FB7F
:103020000BE10F20049001F08BF804990B98BAEE95
:10303000040AFDF7C9FB00E10B989DF82710FFF784
:10304000FFFCFAE0092001F07BF80B989FED7E0A67
:1030500018F0D2FBF1E0092001F072F80B989FED17
:103060007B0A18F0C9FBE8E0092001F069F80B9829
:10307000BBEE0E0A18F0C0FBDFE00920039001F060
:103080005FF803990B98B2EE040AFDF79DFBD4E0BC
:103090000920029001F054F802990B98BAEE040A44
:1030A000FDF792FBC9E0002007900A9860B9FFE79E
:1030B0000B99487940F0040048710B990020C874BE
:1030C0000B9917200870B8E00A9814F06DFD0A9863
:1030D00014F03AFB0A98042114F04AFC9DF82700EA
:1030E0000A2806D1FFE74CF6CD40C3F6CC50079036
:1030F0003BE09DF827000B2806D1FFE74CF6CD40BA
:10310000C3F64C5007902FE09DF827000C2806D1FD
:10311000FFE74CF6CD40CBF64C50079023E09DF8EE
:103120002700142806D1FFE74CF6CD40CBF6CC5053
:10313000079017E09DF82700152806D1FFE749F60C
:103140009A10C3F6996007900BE09DF827001628A7
:1031500006D1FFE749F69A10CBF699600790FFE792
:10316000FFE7FFE7FFE7FFE7FFE70A98DDED070A64
:103170009FED351AB0EE410A14F0F6FA20B9FFE7D8
:103180000B9901200875FFE70B98007D60B9FFE7F8
:103190000B99487940F0040048710B990020C874DD
:1031A0000B9917200870FFE747E0062000F0C8FFE2
:1031B0000B989FED250A18F05FFB3EE0062000F01B
:1031C000BFFF0B989FED210A18F056FB35E0062053
:1031D00000F0B6FF0B98BBEE0E0A18F04DFB2CE08A
:1031E0000620019000F0ACFF01990B98B2EE040AA2
:1031F000FDF7EAFA21E00620009000F0A1FF009917
:103200000B98BAEE040AFDF7DFFA16E00F2000F083
:1032100097FF0B989FED0C0A18F092FA0DE00B99AE
:10322000487940F0040048710B990020C8740B994C
:1032300088740B9917200870FFE70B9821F0BCFAEF
:10324000FFE70CB080BD00BF0000000000005C4341
:1032500080B586B005908DF8131003920293029802
:1032600008B9FFE77FE10298B021FDF7EAF99DF880
:10327000130002990870029800210091817108469C
:1032800018F046FB0299C86112F0EEFB0146009867
:10329000029AD172029A4FF24911C4F2E7411166C3
:1032A000029A45F6B401C4F2B74151668DF80700A1
:1032B000FFE79DF80700032813D8FFE79DF80720D4
:1032C00048F67010C0F6020050F82200029901EB97
:1032D00082018866FFE79DF8070001308DF807003E
:1032E000E7E700208DF80700FFE79DF807000128B9
:1032F00013D8FFE79DF8072048F65C10C0F60200DF
:1033000050F82200029901EB82018867FFE79DF8DF
:10331000070001308DF80700E7E7039800284BD03D
:10332000FFE700208DF80700FFE79DF8070003285E
:1033300015D8FFE703989DF8071000EB4100B0F89F
:10334000A00002999DF8072001EB4201A1F8A0001E
:10335000FFE79DF8070001308DF80700E5E7002042
:103360008DF80700FFE79DF80700012823D8FFE745
:1033700003989DF8071000EB4100B0F8A8000299EF
:103380009DF8072001EB4201A1F8A80003989DF8E1
:10339000071000EB4100B0F8AC0002999DF807203F
:1033A00001EB4201A1F8AC00FFE79DF807000130F6
:1033B0008DF80700D7E7FFE7059808B9FFE7D2E0E7
:1033C000059800780299487005988078029988706D
:1033D0000598C0780299C87005980079029908711B
:1033E0000598407902994871059880790299887109
:1033F0000598007A029908720598407A02994872F5
:103400000598807B029988720598C06902990861C5
:103410000598006A0299486105980178807918F04A
:1034200077FA0299C861059812F0B2FD0299C87145
:103430000598FDF7B1F9029908730598007828B14D
:10344000FFE705980078162808D1FFE70598C07CAB
:1034500020B9FFE702990020886106E00598C1695C
:10346000006A401A02998861FFE700208DF8070082
:10347000FFE79DF80700032826D8FFE705989DF889
:10348000072000EB8200406E029901EB8201086286
:1034900005989DF8072000EB8200C06C029901EBB3
:1034A0008201086305989DF8072000EB8200C06A3E
:1034B000029901EB8201C1F88000FFE79DF8070047
:1034C00001308DF80700D4E700208DF80700FFE7F2
:1034D0009DF80700012846D8FFE705989DF80720CA
:1034E00000EB8200406F029901EB820108640598AD
:1034F0009DF8072000EB8200C06F029901EB82016A
:10350000886405989DF8072000EB8200D0F88400BD
:10351000029901EB8201086505989DF8072000EBF0
:103520008200C06D029901EB8201886505989DF8C3
:10353000072000EB8200C06B029901EB8201C1F809
:10354000900005989DF8072000EB8200406C0299DE
:1035500001EB8201C1F89800FFE79DF807000130F8
:103560008DF80700B4E706B080BD00000000000041
:10357000FFE7FEE70000000080B5C4B038A90D9158
:10358000439041F2883022F03FF94FF2BB50C3F62E
:10359000EF10429045F69940C3F68110419046F6EF
:1035A0002260C3F6D6104090FFE700200C903F90B9
:1035B0003E903D903C903B903A90399038908DF8F9
:1035C0003B008DF83A0002208DF8390023F020F9F5
:1035D00040F20800C2F20040007801282BD1FFE73A
:1035E00045F26C33C2F20043D3F8FC00D3F800116B
:1035F000D3F80421D3F808313F933E923D913C909B
:1036000044F65871C2F2000115A88C22FCF7C5FFE0
:1036100044F62860C2F200400168399141683A914D
:1036200080683B9001208DF83B008DF83A00002027
:103630008DF8390032E044F23050C2F200000078D8
:1036400001282AD1FFE744F6E473C2F20003D3F85D
:10365000FC00D3F80011D3F80421D3F808313F93CC
:103660003E923D913C9045F2E021C2F2004115A806
:103670008C22FCF792FF44F66C50C2F20000016805
:10368000399141683A9180683B9001208DF83B0068
:103690008DF83A008DF83900FFE7FFE719F06CFA72
:1036A0000D9880ED000A23F0DFF89DF83B0000281C
:1036B00045D0FFE70D9890ED050AB1EE400A90ED78
:1036C000081A80EE010A012012F0EEF80D98BDEE06
:1036D000C00A10EE101A099190ED070AB1EE400AE7
:1036E00090ED081A80EE010A022012F0DDF80D9824
:1036F000BDEEC00A10EE101A0A9190ED060A90ED88
:10370000081A80EE010A032012F0CEF80D98BDEEE3
:10371000C00A10EE101A0B9190ED040A90ED081AF1
:1037200080EE010A042012F0BFF809980A990B9A5A
:10373000BDEEC00A10EE103A02F0EAFD06E00023EA
:10374000184619461A4602F0E3FDFFE79DF83A00D5
:1037500028B1FFE715A80FA912F05EFA75E09FEDFA
:103760006E0A8DED070A012012F0CAF8B0EE401A79
:103770009DED070ABDEEC11A11EE100AADF83C002E
:10378000022012F0BDF8B0EE401A9DED070ABDEE22
:10379000C11A11EE100AADF83E00032012F0B0F885
:1037A000B0EE401A9DED070ABDEEC11A11EE100AE7
:1037B000ADF84000042012F0A3F8B0EE401A9DEDE1
:1037C000070ABDEEC11A11EE100AADF8420005203D
:1037D000059012F069F8B0EE401A9DED070ABDEEB3
:1037E000C11A11EE100AADF844000620069012F03E
:1037F0005BF80598B0EE401A9DED070ABDEEC11AC0
:1038000011EE101AADF8461000210891ADF84810DD
:10381000ADF84A1012F074F80698B0EE401A9DED1B
:10382000070ABDEEC11A11EE101AADF84C1012F0D5
:1038300067F80898BDEEC00A10EE101AADF84E10E9
:10384000ADF85000ADF85200FFE79DF839000FA920
:1038500012F0B6FCBDF94400BDF9461000230093F8
:103860001A4602F075FDBDF93C00BDF93E10BDF9E8
:103870004020BDF9423002F0A7FD009BBDF94C008D
:10388000BDF94E101A4602F0BFFD0D9890ED010AE9
:10389000FCF7D6FF0D98B1EE400A90ED091A80EEC4
:1038A000010A0120049022F057F80D98BDEEC00ADD
:1038B00010EE101A019190ED020A90ED0A1A80EEB6
:1038C000010A022022F048F80D98BDEEC00A10EE61
:1038D000101A029190ED030A90ED0A1A80EE010A87
:1038E000032022F039F80D98BDEEC00A10EE101A30
:1038F000039190ED000A042022F02EF8019802991D
:10390000039ABDEEC00A10EE103A02F0B9FD049819
:1039100021F07AFF49E600BF00000000000000002F
:1039200080B586B00490039100200290049818B1ED
:10393000FFE7039818B9FFE70020059027E0FFE7AD
:103940000298039988421FD2FFE769460DF10700EC
:10395000086046F64820C2F2000046F2E801C2F2D2
:10396000004146F2EC02C2F200424FF4805314F0E0
:10397000CFFE08B9FFE707E09DF807000499029A17
:10398000531C02938854DBE702980590FFE70598E3
:1039900006B080BD0000000080B546F65020C2F29F
:1039A0000000006847F28011C2F2004109684FF43C
:1039B000805214F09DFE80BD80B584B045F2A830E1
:1039C000C2F20000D0F8BC0208B9FFE77AE045F285
:1039D000A830C2F20000D0F8BC02039047F27C107D
:1039E000C2F20040006808B1FFE76BE00398D0F82E
:1039F000140208B1FFE765E046F65020C2F200006D
:103A0000006847F28011C2F2004109684FF4805209
:103A100014F0EEFE0290029808B9FFE752E046F675
:103A20005020C2F20000006847F28011C2F200414B
:103A3000096888420DD9FFE746F65020C2F200001F
:103A4000006847F28011C2F200410968401A0190F3
:103A500008E047F28010C2F200400068C0F58050D4
:103A60000190FFE701980299884203D9FFE7029885
:103A70000190FFE70198B0F5007F04D9FFE74FF40C
:103A800000700190FFE747F28010C2F20040016829
:103A900047F28410C2F200400144BDF8042045F210
:103AA000A830C2F2000000901CF0FEFE00981DF04D
:103AB00007F838B9FFE7019847F27C11C2F20041DC
:103AC0000860FFE704B080BD80B586B00490039124
:103AD000049818B1FFE7039820B9FFE701208DF89B
:103AE00017003FE046F65020C2F20000006847F29F
:103AF0008011C2F2004109684FF4805214F0F8FDC1
:103B0000019003980199884204D9FFE700208DF8BD
:103B1000170027E000200290FFE7029803998842EF
:103B20001AD2FFE704980299405C6946086046F69D
:103B30005020C2F2000047F28011C2F2004147F269
:103B40008412C2F200424FF4805314F021FEFFE7CA
:103B5000029801300290E0E7FFF72EFF01208DF878
:103B60001700FFE79DF8170006B080BD00000000B9
:103B700084B08DF80F000291ADF80620FFE7012018
:103B800008B9FFE7FBE79DF80F00014600912328E5
:103B90002FD80099DFE801F012131415162D2D2DE2
:103BA0002D2D2D2D2D2D2D2D2D2D2D2D2D2D2D2D45
:103BB0002D2D2D2D2D2D2D2D17182B2C1AE019E024
:103BC00018E017E016E015E0029900200870029A4C
:103BD000C2215170029A012191700299C870029914
:103BE00008710299487102990820887102E001E089
:103BF00000E0FFE7002004B0704700000000000074
:103C0000002070470000000080B582B045F2A83067
:103C1000C2F20000009044F28C51C2F20041002236
:103C200001921CF041FE009844F23251C2F20001B0
:103C30001CF01AFE0199009846F64822C2F20002D2
:103C4000116046F2E802C2F20042116046F65022CC
:103C5000C2F20002116047F28012C2F2004211600B
:103C600047F27C12C2F20042116046F64422C2F2D0
:103C7000000211601CF09CFD019802B080BD0000A4
:103C800080B586B00590049100200390FFE703986B
:103C900004990968884224D2FFE705980399405C9B
:103CA0006946086046F64820C2F2000046F2E80184
:103CB000C2F2004146F2EC02C2F200424FF48053DD
:103CC00014F066FD40B9FFE746F64421C2F2000158
:103CD000086801300860FFE7FFE7039801300390B0
:103CE000D5E7059945F2A830C2F2000002901CF019
:103CF000BBFD02981CF05CFD002006B080BD0000FA
:103D000080B584B0039002918DF8072000208DF8D3
:103D1000060047F28013C2F200431A6847F27C1192
:103D2000C2F20041D1F800C062446FF31F321A6042
:103D30000860FFF741FE9DF9060004B080BD000059
:103D400084B00290ADF806104FF6FF70ADF8040095
:103D5000029820B1FFE7BDF8060028B9FFE7BDF8DB
:103D60000400ADF80E0047E00020ADF80200FFE7C8
:103D7000BDF80200BDF80610884238DAFFE7029865
:103D8000BDF80210415CBDF804004840ADF80400E5
:103D900000208DF80100FFE79DF8010007281FD8DB
:103DA000FFE7BDF80400C00768B1FFE7BDF80400F5
:103DB0004008ADF80400BDF804004AF20101484093
:103DC000ADF8040005E0BDF804004008ADF80400BB
:103DD000FFE7FFE79DF8010001308DF80100DBE708
:103DE000FFE7BDF802000130ADF80200C0E7BDF802
:103DF0000400ADF80E00FFE7BDF80E0004B07047F8
:103E000081B0009045F24070C2F20040C16F009A4C
:103E1000D163D0F898000099086445F62470C2F286
:103E20000000C16F009A5164D0F89800009988642E
:103E300001B070470000000082B0019000208DF8B2
:103E40000300FFE79DF80300032816D8FFE79DF85D
:103E50000320C2EBC20145F62470C2F2000000EB61
:103E60008100C068019901EB8201C862FFE79DF8FB
:103E7000030001308DF80300E4E702B07047000052
:103E800081B00090009808B9FFE720E046F29070FA
:103E9000C2F200004168009A11608168009A516086
:103EA000C168009A916000690099C86046F2880074
:103EB000C2F200404168009A11618168009A516124
:103EC000C168009A916100690099C861FFE701B07B
:103ED000704700000000000080B546F29070C2F20A
:103EE000000011F015FA46F28800C2F2004011F00D
:103EF0000FFA80BD0000000080B596B08DED150A68
:103F000068460EF0D1FC9DED0D0ADDED150A46F276
:103F10008800C2F2004011F0C7F816B080BD000062
:103F200080B582B00190019808B9FFE722E00198BE
:103F3000006846F29071C2F2000148600198406842
:103F4000886001988068C8600198C068086101981D
:103F5000006946F28801C2F2004148600198406958
:103F6000886001988069C8600198C0690861FFF79E
:103F7000B3FFFFE702B080BD80B598B08DED170AA2
:103F800002A80EF091FC9DED170A9DED0C1A30EE83
:103F9000410A8DED010A9DED010A02F011FE8DED41
:103FA000010ADDED010A46F29070C2F200009FEDB9
:103FB000090A11F079F88DED000A9DED0F0ADDED8B
:103FC000000A46F28800C2F2004011F06DF818B005
:103FD00080BD00BF0000000082B0ADF80400ADF865
:103FE0000210ADF80020BDF90400BDF902108842AE
:103FF0000BDBFFE7BDF90400BDF90010884204DCCB
:10400000FFE701208DF8070003E000208DF807008E
:10401000FFE79DF8070002B07047000000000000B5
:1040200084B08DED020ACDED010A8DED001A9DEDF3
:10403000020A9DED011AB4EE410AF1EE10FA03DA1C
:10404000FFE7019803900FE09DED020A9DED001A35
:10405000B4EE410AF1EE10FA03DDFFE70098039099
:1040600002E002980390FFE79DED030A04B0704759
:1040700082B08DED000A9DED000ABBEE0E1AB4EE83
:10408000410AF1EE10FA05DAFFE70020CCF2F01059
:10409000019011E09DED000A9FED091AB4EE410A6E
:1040A000F1EE10FA05DDFFE70020C4F28230019046
:1040B00002E000980190FFE79DED010A02B0704711
:1040C000000082430000000081B00090009808B911
:1040D000FFE70BE000990020C8720099487300992F
:1040E00088730099C87300994870FFE701B0704762
:1040F00080B582B08DF807009DF8070010F070FCC5
:104100008DF807009DF80700C00738B1FFE70520CC
:1041100010F072FF062010F06FFFFFE79DF8070018
:104120008007002807D5FFE7052010F091FF062043
:1041300010F08EFFFFE702B080BD0000000000001D
:1041400080B582B08DF8070000208DF80600FFE7EB
:104150009DF80600032816D8FFE79DF807009DF894
:104160000610C840C00738B1FFE79DF806000130CF
:10417000C0B210F06DFFFFE7FFE79DF806000130C9
:104180008DF80600E4E702B080BD000000000000EA
:1041900080B584B0029000208DF80600029820B906
:1041A000FFE700208DF80F002EE000208DF80700BB
:1041B000FFE79DF80700012821D8FFE702989DF846
:1041C000071000EB8100D0ED170A90ED210AB1EE47
:1041D000041A00F05DF858B1FFE79DF807100120C0
:1041E00000FA01F19DF8060008438DF80600FFE78C
:1041F000FFE79DF8070001308DF80700D9E79DF82B
:1042000006008DF80F00FFE79DF80F0004B080BD99
:1042100080B584B0029000208DF80600029820B985
:10422000FFE700208DF80F002EE000208DF807003A
:10423000FFE79DF80700032821D8FFE702989DF8C3
:10424000071000EB8100D0ED130A90ED190AB0EED3
:10425000081A00F01DF858B1FFE79DF8071001207B
:1042600000FA01F19DF8060008438DF80600FFE70B
:10427000FFE79DF8070001308DF80700D9E79DF8AA
:1042800006008DF80F00FFE79DF80F0004B080BD19
:1042900084B08DED030ACDED020A8DED011A9DED7E
:1042A000030A9DED021A30EE410A8DED000A9DEDE4
:1042B000000AB5EE400AF1EE10FA07DAFFE79DEDCD
:1042C000000AB1EE400A8DED000AFFE79DED000AFD
:1042D0009DED011A0020B4EE410AF1EE10FAD8BFAC
:1042E000012004B07047000080B582B08DF807004F
:1042F0009DF8070001280FD1FFE744F23051C2F2C8
:1043000000010120087040F20802C2F200420021C0
:10431000117018F03DFD0EE040F20801C2F20041BC
:104320000120087044F23051C2F2000100200870F0
:1043300018F02EFDFFE702B080BD00000000000075
:1043400080B584B0039041F2883021F05DFA10F01E
:104350006BF945F27050C2F2004044F69151C2F23E
:10436000004101220DF080FA0FF0D2FC45F26C30D2
:10437000C2F2004040F28C01C2F2004100919FED78
:104380002E0A8DED010A13F007F800999DED010A40
:1043900044F6E470C2F2000012F0FEFF44F65870DA
:1043A000C2F2000011F0C0FD45F2E020C2F2004070
:1043B00011F0BAFD14F020F8FDF786FB18F094FC1C
:1043C00022F0BEFE46F6E011C2F20001086045F29E
:1043D0002450C2F200400BF0C7FBFFE70121084662
:1043E00022F0CEF80290029818B9FFE7012002905F
:1043F000FFE7FFE7029830B1FFE712F04DFB0298AC
:1044000001380290F6E74AF23420C2F20040011D62
:1044100000F108020023FEF75BF918F0A5FC40F25A
:104420000800C2F200400078012803D1FFE7FDF741
:104430005FFFFFE7D2E700BF6F12833A0000000082
:1044400080B58AB08DF82700089107920020069069
:104450000590049003900898029008980630019007
:10446000042004909DF827005038014600910F2841
:1044700042D80099DFE801F01A081D1122272A2DE1
:1044800030333640404040393420069003200490B9
:1044900040200590012003902FE03D20069003204E
:1044A00004902E2005900120039026E030200690F5
:1044B00023E037200690032007901EE03A20069064
:1044C0000320079019E04120069016E04520069051
:1044D00013E04920069010E04D2006900DE0512099
:1044E00006900AE05520069007E048F28410C2F2D8
:1044F00000400068069000E038E00798032805D1E6
:10450000FFE70320049000200390FFE70498A8B180
:10451000FFE7069946F67400C2F2000000EB410086
:104520000299049A5200FBF7F3FF46F20C00C2F224
:1045300000000268069804999047FFE70398A8B125
:10454000FFE7059946F67400C2F2000000EB410057
:104550000199039A5200FBF7DBFF46F20C00C2F20E
:1045600000000268059803999047FFE70AB080BDF4
:1045700080B582B00190019820B1FFE70198807961
:10458000009002E000200090FFE70098C0B202F027
:10459000E7FA02B080BD000080B582B001900198BA
:1045A00020B1FFE701988079009002E000200090A0
:1045B000FFE70098C0B202F0E7FA02B080BD000049
:1045C00080B588B00690059106980078049006980A
:1045D000FFF7E2FF02900698FFF7CAFF01900698E6
:1045E0000078182807D1FFE706980F210FF050FB3D
:1045F0008DF81F0082E0069800781A2805D1FFE7A1
:1046000020F056F88DF81F0078E0069800781B28F7
:1046100005D1FFE701F080FD8DF81F006EE00698E0
:1046200000781C2811D1FFE7059850B1FFE70598E5
:1046300012F09EFE022804D1FFE701208DF81F0032
:104640005CE000208DF81F0058E0069800781928DB
:1046500011D1FFE7059850B1FFE7059812F088FEE9
:10466000022804D1FFE701208DF81F0046E000205A
:104670008DF81F0042E0049828B1FFE704980199E3
:10468000884204D9FFE700208DF81F0036E0029829
:10469000049900EB4110203803900398007940B949
:1046A000FFE70698039949790FF0F2FA8DF81F0099
:1046B00024E003980079012806D1FFE7069801F06D
:1046C0009BFD8DF81F0019E003980079022811D195
:1046D000FFE7059850B1FFE7059812F049FE022860
:1046E00004D1FFE701208DF81F0007E000208DF8BE
:1046F0001F0003E000208DF81F00FFE79DF81F005A
:1047000008B080BD0000000080B501F041FE01F05E
:104710009BFE01F0D5FE02F0D7F880BD000000003E
:1047200080B545F28460C2F2000003F009FB80BD51
:1047300083B002900298016801201022C4F20202A4
:104740009142009000F0A380FFE7029801680120E9
:104750002822C4F202029142009000F09880FFE704
:104760000298016801204022C4F2020291420090A6
:1047700000F08D80FFE70298016801205822C4F202
:1047800002029142009000F08280FFE702980168E7
:1047900001207022C4F202029142009077D0FFE71C
:1047A0000298016801208822C4F20202914200901E
:1047B0006DD0FFE7029801680120A022C4F2020236
:1047C0009142009063D0FFE7029801680120B8226F
:1047D000C4F202029142009059D0FFE702980168AA
:1047E000012040F21042C4F20202914200904ED0E9
:1047F000FFE702980168012040F22842C4F2020259
:104800009142009043D0FFE702980168012040F2F6
:104810004042C4F202029142009038D0FFE7029871
:104820000168012040F25842C4F202029142009015
:104830002DD0FFE702980168012040F27042C4F2D7
:1048400002029142009022D0FFE702980168012005
:1048500040F28842C4F202029142009017D0FFE772
:1048600002980168012040F2A042C4F20202914283
:1048700000900CD0FFE7029800684FF64831CBF665
:10488000FD710844B0FA80F040090090FFE70098FD
:10489000C00740B3FFE70298007810384AF6AB2112
:1048A000CAF6AA21A0FB011000090190019800F0AE
:1048B000070148F22C50C0F60200405C0299C8651E
:1048C0000198042807D3FFE702990868042262F3DD
:1048D0000900886506E00299086840F2FF329043BB
:1048E0008865FFE705E00299086820F0FF00886509
:1048F000FFE70298806D03B07047000000000000E1
:1049000084B0039003980068019003980168012027
:1049100045F20842C5F60202914200904ED0FFE7F0
:1049200003980168012045F21C42C5F6020291423B
:10493000009043D0FFE703980168012045F2304220
:10494000C5F602029142009038D0FFE70398016853
:10495000012045F24442C5F60202914200902DD05A
:10496000FFE703980168012045F25842C5F60202AC
:104970009142009022D0FFE703980168012045F2A0
:104980006C42C5F602029142009017D0FFE70398EF
:104990000168012045F28042C5F602029142009072
:1049A0000CD0FFE7039800684AF66C31CAF2FD713B
:1049B0000844B0FA80F040090090FFE70098C00773
:1049C00010B3FFE70398007808384CF6CD41CCF6D9
:1049D000CC41A0FB011000090290029945F60000AD
:1049E000C5F6020000EB810003990866039945F6BD
:1049F0008000C5F602004866029800F01F01012001
:104A000088400399886635E00398007810384AF6A4
:104A1000AB21CAF6AA21A0FB01100009029001985F
:104A200040F2B841C4F2020188420CD8FFE7019875
:104A300040F21041C4F20201884204D3FFE7029819
:104A400008300290FFE7029940F60000C4F202002D
:104A500000EB810003990866039940F68000C4F2D8
:104A600002004866029800F01F0101208840039967
:104A70008866FFE704B0704783B00290029800791F
:104A800001900198002800F08A80FFE7019808282B
:104A900000F28580FFE702980168012045F2084294
:104AA000C5F60202914200904ED0FFE702980168DD
:104AB000012045F21C42C5F602029142009043D00B
:104AC000FFE702980168012045F23042C5F6020274
:104AD0009142009038D0FFE702980168012045F22A
:104AE0004442C5F60202914200902DD0FFE70298A1
:104AF0000168012045F25842C5F602029142009039
:104B000022D0FFE702980168012045F26C42C5F609
:104B100002029142009017D0FFE70298016801203D
:104B200045F28042C5F60202914200900CD0FFE7A8
:104B3000029800684AF66C31CAF2FD710844B0FA76
:104B400080F040090090FFE70098C00780B1FFE7C0
:104B5000019945F6FC00C5F6020000EB81000299C0
:104B6000C866029945F64010C5F6020008670FE0D6
:104B7000019940F6FC00C4F2020000EB81000299AA
:104B8000C866029940F64010C4F202000867FFE7C9
:104B90000198411E0120884002994867FFE703B051
:104BA000704700000000000085B0049000208DF8E0
:104BB0000F000498806918BBFFE70498806A029090
:104BC00003281BD80299DFE801F0020D02180498AF
:104BD00090F82F00C00720B1FFE701208DF80F00EB
:104BE000FFE70CE00498C06AB0F1C07F04D1FFE792
:104BF00001208DF80F00FFE701E000E0FFE747E04C
:104C000004988069B0F5005F26D1FFE70498806AB8
:104C1000019003281ED80199DFE801F00206021175
:104C200001208DF80F0016E0049890F82F00C007BF
:104C300020B1FFE701208DF80F00FFE70BE004989B
:104C4000C06AB0F1C07F04D1FFE701208DF80F00EA
:104C5000FFE700E0FFE71AE00498806A009003286D
:104C600004D3FFE70098032804D00EE001208DF85C
:104C70000F000BE0049890F82F00C00720B1FFE769
:104C800001208DF80F00FFE700E0FFE7FFE7FFE7F7
:104C90009DF80F0005B0704789B008900791069203
:104CA00005930898806D04900898806D039008988B
:104CB000016801201022C4F202029142029000F029
:104CC0000381FFE70898016801202822C4F202024C
:104CD0009142029000F0F880FFE7089801680120F7
:104CE0004022C4F202029142029000F0ED80FFE700
:104CF0000898016801205822C4F2020291420290F1
:104D000000F0E280FFE70898016801207022C4F2F9
:104D100002029142029000F0D780FFE708980168F4
:104D200001208822C4F202029142029000F0CC805D
:104D3000FFE7089801680120A022C4F20202914214
:104D4000029000F0C180FFE7089801680120B822B6
:104D5000C4F202029142029000F0B680FFE7089888
:104D60000168012040F21042C4F202029142029016
:104D700000F0AA80FFE708980168012040F228426D
:104D8000C4F202029142029000F09E80FFE7089870
:104D90000168012040F24042C4F2020291420290B6
:104DA00000F09280FFE708980168012040F2584225
:104DB000C4F202029142029000F08680FFE7089858
:104DC0000168012040F27042C4F202029142029056
:104DD0007AD0FFE708980168012040F28842C4F2C7
:104DE0000202914202906FD0FFE70898016801200B
:104DF00040F2A042C4F202029142029064D0FFE766
:104E000008980168012040F2B842C4F202029142BF
:104E1000029059D0FFE708980168012045F2084246
:104E2000C5F60202914202904ED0FFE70898016851
:104E3000012045F21C42C5F602029142029043D085
:104E4000FFE708980168012045F23042C5F60202EA
:104E50009142029038D0FFE708980168012045F29E
:104E60004442C5F60202914202902DD0FFE7089815
:104E70000168012045F25842C5F6020291420290B3
:104E800022D0FFE708980168012045F26C42C5F680
:104E900002029142029017D0FFE7089801680120B2
:104EA00045F28042C5F60202914202900CD0FFE723
:104EB000089800684AF66C31CAF2FD710844B0FAED
:104EC00080F040090290FFE70298C00770B1FFE749
:104ED0000898416E806E48600898C06E28B1FFE760
:104EE0000898016F406F4860FFE7FFE70898016886
:104EF00001201022C4F202029142019000F0A3802E
:104F0000FFE70898016801202822C4F202029142BA
:104F1000019000F09880FFE7089801680120402286
:104F2000C4F202029142019000F08D80FFE70898E0
:104F3000016801205822C4F202029142019000F05F
:104F40008280FFE70898016801207022C4F2020203
:104F50009142019077D0FFE70898016801208822EC
:104F6000C4F20202914201906DD0FFE708980168F7
:104F70000120A022C4F202029142019063D0FFE717
:104F8000089801680120B822C4F2020291420190FF
:104F900059D0FFE708980168012040F21042C4F29E
:104FA0000202914201904ED0FFE70898016801206B
:104FB00040F22842C4F202029142019043D0FFE73E
:104FC00008980168012040F24042C4F20202914276
:104FD000019038D0FFE708980168012040F258425C
:104FE000C4F20202914201902DD0FFE708980168B7
:104FF000012040F27042C4F202029142019022D09C
:10500000FFE708980168012040F28842C4F20202DA
:105010009142019017D0FFE708980168012040F203
:10502000A042C4F20202914201900CD0FFE708981E
:1050300000684FF64831CBF6FD710844B0FA80F0B5
:1050400040090190FFE70198C00750B3FFE70898B7
:10505000C06D00F01F013F208840049988600898C7
:105060000168086820F4802008600598089909689C
:10507000486008988068402809D1FFE70698089999
:1050800009688860079808990968C86008E0079867
:10509000089909688860069808990968C860FFE758
:1050A00082E008980168012045F20842C5F6020234
:1050B000914200904ED0FFE708980168012045F228
:1050C0001C42C5F602029142009043D0FFE70898C7
:1050D0000168012045F23042C5F60202914200907B
:1050E00038D0FFE708980168012045F24442C5F630
:1050F0000202914200902DD0FFE70898016801203C
:1051000045F25842C5F602029142009022D0FFE7D4
:1051100008980168012045F26C42C5F602029142EE
:10512000009017D0FFE708980168012045F28042FF
:10513000C5F60202914200900CD0FFE70898006883
:105140004AF66C31CAF2FD710844B0FA80F04009A9
:105150000090FFE70098C00720B3FFE70898C06DF4
:1051600000F01F01012088400399486005980899C4
:105170000968486008988068402809D1FFE70698C8
:10518000089909688860079808990968C86008E064
:105190000798089909688860069808990968C8609E
:1051A000FFE700E0FFE7FFE709B0704700000000FD
:1051B00080B598B00DAB09938DF85F0016918DF80E
:1051C0005720002014901390129011908DF84300F6
:1051D00001208DF842009DF85F0016999DF8572038
:1051E0001DF042FD9DF85F0001460A915E2800F225
:1051F00014870A99DFE811F05F009C00B6001107E0
:105200001107FF00F300110711071107110711071C
:1052100011071107110711072801460156018D01D9
:105220004E02EB02030311071107110711071107C3
:1052300011071107110711070F032203110730038C
:1052400011077F038C0311071107110711071107BD
:1052500011071107110711079603AD03BB03ED03F7
:105260001C045204630411071107110711071107E9
:10527000110711071107110711071107110711076E
:10528000110711076D047704BB04D104110711073E
:105290001107110711071107DB04FB041805B605F8
:1052A000D105B6060707D606EE050906260643060B
:1052B00060067D069A069DF857001DF0E1FA10B9C8
:1052C000FFE700F0ABBE1DF09BFC1DF001FC1FF0E2
:1052D00077F921F09DFA13F0EBF944F6E470C2F28D
:1052E000000012F061FC45F2E020C2F2004011F033
:1052F00037F821F0B9FA01200890FCF791FF21F06E
:1053000087FA089817F0C4FC21F0AEFA40F2242185
:10531000C2F200010020087040F2C021C2F2004138
:10532000087044F22C31C2F20001087000F076BE21
:105330009DF857001DF0A4FA10B9FFE700F06EBE0B
:1053400040F22421C2F200010120087040F2C02185
:10535000C2F20041087044F22C31C2F20001087020
:1053600000F05CBE16989DF8571011AA1EF0E0FDE3
:1053700010B9FFE700F052BE099890ED040ABCEEA8
:10538000C00A10EE100A002818BF0120FEF7ACFF7B
:10539000099890ED040ABCEEC00A10EE100AE0B9BC
:1053A000FFE71DF02DFC1DF093FB1FF009F921F024
:1053B0002FFA13F07DF944F6E470C2F2000012F007
:1053C000F3FB45F2E020C2F2004010F0C9FF21F0EB
:1053D0004BFA0120FCF724FFFFE700F01FBE9DF809
:1053E00057001DF04DFA10B9FFE700F017BE0FF09F
:1053F0008FFD00F013BE9DF857001DF041FA10B963
:10540000FFE700F00BBE1DF0FBFB1DF061FB1FF082
:10541000D7F821F0FDF913F04BF944F6E470C2F22D
:10542000000012F0C1FB45F2E020C2F2004010F093
:1054300097FF0120079017F04BFE21F015FA07980F
:10544000FCF7EEFE00F0EABD9DF857001DF018FADB
:1054500010B9FFE700F0E2BD1DF0D2FB21F0D8F952
:1054600013F026F944F6E470C2F2000012F09CFB3F
:1054700021F0FAF940F22421C2F200010020087064
:1054800000F0CCBD9DF857001DF0FAF910B9FFE708
:1054900000F0C4BD40F22421C2F2000101200870D6
:1054A00000F0BCBD16989DF8571011AA1EF040FDE3
:1054B00010B9FFE700F0B2BD099890ED040ABCEE08
:1054C000C00A10EE100A8DF841009DF8410007282F
:1054D0001DD8FFE744F23050C2F200000078B0B1AE
:1054E000FFE740F22420C2F20000007878B1FFE725
:1054F00021F08EF913F0DCF89DF8411044F6E470C9
:10550000C2F2000012F034FA21F0AEF9FFE700F029
:1055100085BD16989DF8571011AA1EF009FD10B907
:10552000FFE700F07BBD44F6E470C2F200000078B3
:1055300011F0B2FF014609988DF8401013990F91B0
:1055400090ED040AF8EE000ACDED050AB0EE001A5F
:105550008DED061AFEF764FDDDED050A9DED061AD8
:10556000099880ED040A90ED050AFEF759FD0998A7
:1055700080ED050A9DF8400068B9FFE7099890EDB5
:10558000060ADFEDD50A9FEDD51AFEF749FD099809
:1055900080ED060AFFE7119846F6A831C2F2000135
:1055A0000860129848609DF8400028B1FFE79FED21
:1055B000CC0A8DED040A05E0099890ED060A8DED00
:1055C000040AFFE79DED040A46F6A830C2F2000087
:1055D00080ED020A44F23050C2F200000078002848
:1055E00056D0FFE740F22420C2F2000000780028E5
:1055F0004ED0FFE721F00CF913F05AF89DF8400067
:1056000098B3FFE744F6E470C2F20000007812F0AD
:1056100027F870B1FFE7099890ED020A9FEDB11AE3
:1056200020EE010A44F6E470C2F2000012F0A0FA83
:105630000DE0099890ED020A9FEDAA1A20EE010AEA
:1056400044F6E470C2F2000012F0FEF9FFE7099898
:1056500090ED040AD0ED050A44F6E470C2F20000B1
:105660009FED9F1A12F020FA0DE0099890ED040AC0
:10567000D0ED050A90ED061A44F6E470C2F200007F
:1056800012F012FAFFE721F0EFF81DF0D1FAFFE770
:1056900000F0C4BC16989DF8571011AA1EF048FCE3
:1056A00010B9FFE700F0BABC44F6E470C2F20000A3
:1056B000007811F0F1FE8DF83B0013980D901198D1
:1056C00046F6A831C2F200010860129848609DF8C1
:1056D0003B0028B1FFE79FED820A8DED030A05E04C
:1056E000099890ED060A8DED030AFFE79DED030A88
:1056F00046F6A830C2F2000080ED020A44F23050B3
:10570000C2F20000007800285FD0FFE740F22420BA
:10571000C2F200000078002857D0FFE721F078F8A7
:1057200012F0C6FF9DF83B00A8B3FFE744F6E47013
:10573000C2F20000007811F093FF70B1FFE7099802
:1057400090ED000A9FED671A20EE010A44F6E4701E
:10575000C2F2000012F00CFA0DE0099890ED000A78
:105760009FED601A20EE010A44F6E470C2F20000D8
:1057700012F06AF9FFE7099890ED040AD0ED050AE6
:1057800044F6E470C2F200009FED551A11F0ECFFF0
:105790008DF833000FE0099890ED040AD0ED050A6A
:1057A00090ED061A44F6E470C2F2000011F0DCFF3E
:1057B0008DF83300FFE721F057F89DF9330018B951
:1057C000FFE71DF01DFAFFE7FFE700F027BC9DF89B
:1057D00057001DF055F810B9FFE700F01FBC1DF091
:1057E0000FFA21F015F812F063FF44F6E470C2F2EC
:1057F000000012F0D9F921F037F800F00FBC9DF845
:1058000057001DF03DF810B9FFE700F007BC0FF09E
:1058100067FB00F003BC9DF857001DF031F808B994
:10582000FFE7FBE31DF054F90120FCF7F9FC40F21F
:10583000C021C2F2004100200870EFE39DF857003C
:105840001DF01EF808B9FFE7E8E340F2C021C2F2FC
:10585000004101200870E1E316989DF8571011AA45
:105860001EF066FB08B9FFE7D8E344F23050C2F2FD
:1058700000000078C0B3FFE740F2C020C2F2004051
:10588000007888B3FFE7099890ED040AD0ED050A87
:1058900090ED061A00210846FCF71AFC60B1FFE7FC
:1058A000099890ED040AD0ED050A90ED061AFCF770
:1058B000DBFD1DF025F90EE0099890ED040AD0ED0E
:1058C000050A90ED061AFCF733F90120FCF7A8FC55
:1058D0001DF0FEF8FFE70DE07BD920BF7BD9203F0C
:1058E0000000000039FA8E3C1DF0F2F80120FCF7B0
:1058F00097FCFFE792E39DF857001CF0C1FF08B941
:10590000FFE78BE31DF0E4F80120FCF789FC85E359
:105910009DF857001CF0B4FF08B9FFE77EE30FF0D5
:10592000D7FA7BE39DF857001CF0AAFF08B9FFE700
:1059300074E31EF045FE20F06BFF012017F0A8F97C
:1059400020F092FF44F22C31C2F2000100200870D6
:1059500064E39DF857001CF093FF08B9FFE75DE38F
:1059600044F22C31C2F200010120087056E316986F
:105970009DF8571011AA1EF0DBFA08B9FFE74DE3B6
:1059800044F23050C2F20000007838B1FFE744F230
:105990002C30C2F20000007808B9FFE73EE320F0A7
:1059A00037FF099890ED040ABCEEC00A10EE101AF9
:1059B0000120029017F0DCFA029817F01DF94AF264
:1059C0002021C2F20041087020F04EFF1EF0F8FDC9
:1059D00024E316989DF8571011AA1EF0A9FA08B9E9
:1059E000FFE71BE3099890ED040ABCEEC00A10EE35
:1059F000100A8DF8320044F23050C2F200000078F4
:105A000038B1FFE744F22C30C2F20000007808B948
:105A1000FFE703E320F0FCFE012017F0EDF89DF80E
:105A200032101EF0FDFC20F01FFF1EF0E1FDF5E23C
:105A300016989DF8571011AA1EF07AFA08B9FFE7D8
:105A4000ECE2099890ED040ABCEEC00A10EE101AC0
:105A50008DF8311090ED050ABCEEC00A10EE100A68
:105A60008DF8300044F23050C2F20000007838B1B6
:105A7000FFE744F22C30C2F20000007808B9FFE7DB
:105A8000CCE220F0C5FE9DF831009DF830101EF0EC
:105A9000C7FC20F0E9FE1EF0ABFDBFE29DF8570009
:105AA0001CF0EEFE08B9FFE7B8E21EF089FD20F019
:105AB000AFFE012017F00CFB20F0D6FEAEE29DF801
:105AC00057001CF0DDFE08B9FFE7A7E20FF028FA47
:105AD000A4E29DF857001CF0D3FE08B9FFE79DE251
