:020000040800F2
:10000000A0A90024D9030008414301088116010872
:10001000D942010851340008813002080000000074
:10002000000000000000000000000000E192010854
:10003000B15B000800000000C153010819A50108C8
:10004000F7030008F7030008F7030008F7030008A8
:10005000F7030008F7030008F7030008F703000898
:10006000F7030008F7030008F70300082945000814
:10007000F7030008F7030008F7030008F703000878
:10008000F7030008F7030008F7030008A95E00085B
:10009000615F0008B95E0008715F0008F70300089F
:1000A000F7030008F7030008F7030008F703000848
:1000B00091A70108A1A70108F7030008F7030008AA
:1000C000F7030008F7030008F7030008F703000828
:1000D000F703000869E80108F7030008F7030008C0
:1000E000F7030008F703000800000000F70300080A
:1000F000F7030008F7030008F7030008F7030008F8
:10010000F7030008F7030008F7030008F7030008E7
:10011000F7030008F7030008F7030008F7030008D7
:10012000F7030008F7030008F7030008F7030008C7
:10013000F7030008F7030008F7030008F7030008B7
:1001400000000000000000000000000000000000AF
:10015000F7030008F7030008F7030008F703000897
:10016000F7030008F7030008F7030008F703000887
:10017000F703000889440108F703000800000000A5
:10018000F7030008F703000869C7010879C70108E9
:10019000F7030008F7030008F7030008F703000857
:1001A000F7030008F7030008F70300080000000049
:1001B000F7030008F7030008F7030008F703000837
:1001C000F7030008F703000800000000000000002B
:1001D0000000000000000000F7030008000000001D
:1001E000000000000000000000000000000000000F
:1001F0000000000000000000F7030008F7030008FB
:10020000F7030008F703000800000000F7030008E8
:10021000F7030008F7030008F7030008F7030008D6
:10022000F703000800000000F703000800000000CA
:10023000F7030008F703000800000000F7030008B8
:10024000F7030008F7030008F7030008F7030008A6
:10025000F7030008F7030008F7030008F703000896
:10026000F7030008F7030008F7030008F703000886
:10027000F7030008F7030008F70300080000000078
:10028000F7030008F7030008F7030008F703000866
:1002900000000000F7030008F7030008000000005A
:1002A00000000000F7030008F703000889C70108F1
:1002B00059E80108F7030008F7030008D95F0008B0
:1002C000E95F0008F7030008F703000800F002F8F0
:1002D00000F072F814A696E8000CB244B344DA4574
:1002E00001D100F069F8BAE80F000FA696E83000D7
:1002F000A5EB040504EB0607AAEB0704A7F1010729
:100300004FEA15154FEA3414A4F10104AC4201D3AD
:1003100000F052F813F0010F18BFFB1A43F001036D
:1003200000F001F8DBE71847447202008472020013
:100330000A444FF0000C10F8013B13F0070408BF0B
:1003400010F8014B1D1108BF10F8015B641E05D0A9
:1003500010F8016B641E01F8016BF9D113F0080F5E
:100360001EBF10F8014BAD1C0C1B09D16D1E58BFF0
:1003700001F801CBFAD505E014F8016B01F8016B27
:100380006D1EF9D59142D6D370470000704700002A
:100390000023002400250026103A28BF78C1FBD88E
:1003A000520728BF30C148BF0B6070471FB526F009
:1003B000BFFA1FBD10B510BD00F080F91146FFF760
:1003C000F5FF23F00DFD00F09EF903B4FFF7F2FFF7
:1003D00003BC00F0A1F900000A4880470A488047A2
:1003E0000A480047FEE7FEE7FEE7FEE7FEE7FEE716
:1003F000FEE7FEE7FEE7FEE705480649064A074B2B
:1004000070470000295E000829A60108CD020008F7
:10041000A0A70020A0A90024A0A90020A0A5002436
:1004200053EA020C00F069802DE9F04B4FF0000612
:10043000002B1FBFB3FA83F503FA05F424FA05F67F
:100440005E4012BF1643B2FA82F502FA05F4C5F116
:1004500020051EBF22FA05FC44EA0C04203556EAAA
:10046000044C4FEA144418BF641C4FF000084FF0CE
:100470000009904271EB030C39D3002919BFB1FA7E
:1004800081F701FA07F6B0FA80F700FA07F6C7F12C
:1004900020071EBF20FA07FC46EA0C062037B6FBF1
:1004A000F4FCA7EB0507103F07F01F0BCBF120066C
:1004B0002CFA06F60CFA0BFB44BFB3460026202F9D
:1004C000A4BF5E464FF0000B5BEA060C08BF4FF07E
:1004D000010B19EB0B0948EB0608ABFB027C06FB92
:1004E00002CC0BFB03CCC01B71EB0C01C1E70B462C
:1004F000024641464846BDE8F08B13B5084318BF95
:100500004FF0FF300146AFF30080BDE81C4070475C
:10051000032A40F2308010F0030C00F0158011F82F
:10052000013BBCF1020F624498BF11F801CB00F807
:10053000013B38BF11F8013BA2F1040298BF00F85B
:1005400001CB38BF00F8013B11F0030300F0258018
:10055000083AC0F0088051F8043B083A51F804CB3F
:10056000A0E80810F5E7121D5CBF51F8043B40F805
:10057000043BAFF30080D20724BF11F8013B11F810
:1005800001CB48BF11F8012B24BF00F8013B00F854
:1005900001CB48BF00F8012B704710B5203AC0F0DE
:1005A0000B80B1E81850A0E81850B1E81850A0E846
:1005B0001850203ABFF4F5AF5FEA027C24BFB1E8DF
:1005C0001850A0E8185044BF18C918C0BDE8104022
:1005D0005FEA827C24BF51F8043B40F8043B08BF2B
:1005E0007047D20728BF31F8023B48BF11F8012BF2
:1005F00028BF20F8023B48BF00F8012B70474FF09E
:1006000000020429C0F0128010F0030C00F01B80DF
:10061000CCF1040CBCF1020F18BF00F8012BA8BFED
:1006200020F8022BA1EB0C0100F00DB85FEAC17CB1
:1006300024BF00F8012B00F8012B48BF00F8012B64
:1006400070474FF0000200B5134694469646203995
:1006500022BFA0E80C50A0E80C50B1F12001BFF47B
:10066000F7AF090728BFA0E80C5048BF0CC05DF8E1
:1006700004EB890028BF40F8042B08BF704748BF2F
:1006800020F8022B11F0804F18BF00F8012B7047A3
:1006900070477047704710B500F008F8006810BD4B
:1006A00010B5044600F002F8046010BD0048704721
:1006B0004002002400487047400200247546FFF7BE
:1006C000F9FFAE4605006946534620F0070085460F
:1006D00018B020B5FFF790FEBDE820404FF00006AF
:1006E0004FF000074FF000084FF0000BAC46ACE8AD
:1006F000C009ACE8C009ACE8C009ACE8C00921F009
:1007000007018D46704710B50446AFF300802046C0
:10071000BDE81040FFF759BE01491820ABBEFEE707
:10072000260002007047000082B08DED010A9DEDA9
:10073000010AB5EE400AF1EE10FA07DAFFE79DED87
:10074000010AB1EE400A8DED000A04E09DED010AB8
:100750008DED000AFFE79DED000A02B07047000032
:1007600082B08DED010A9DED010AB5EE400AF1EE71
:1007700010FA07DAFFE79DED010AB1EE400A8DEDB0
:10078000000A04E09DED010A8DED000AFFE79DEDF2
:10079000000A02B07047000080B586B003AA01923B
:1007A0000246019805928DF8131080ED000A002092
:1007B0008DF80B00FFE79DF80B00032825D8FFE715
:1007C0009DF813009DF80B10C840C00708B9FFE75B
:1007D00015E0019805999DF80B2001EB820191ED40
:1007E000150A90ED001A30EE010A03F079FB059826
:1007F0009DF80B1000EB810080ED0F0AFFE79DF8DC
:100800000B0001308DF80B00D5E706B080BD00006D
:1008100082B08DED000A9DED000A9FED111AB4EE35
:10082000410AF1EE10FA05DDFFE70020C4F2343092
:10083000019011E09DED000A9FED0A1AB4EE410A05
:10084000F1EE10FA05DAFFE70020CCF23430019027
:1008500002E000980190FFE79DED010A02B07047A9
:1008600000003443000034C380B586B08DED040A27
:10087000CDED030A0290029820B1FFE70299002013
:100880000870FFE79DED040A01A8694600F06CF9C5
:1008900058B9FFE7029820B1FFE7029901200870DC
:1008A000FFE700208DF817002AE09DED030A9DED7B
:1008B000011A9FED152A31EE021AB4EE410AF1EE4B
:1008C00010FA0EDBFFE79DED030A9DED001A9FED88
:1008D0000F2A31EE021AB4EE410AF1EE10FA0BDDE6
:1008E000FFE7029820B1FFE7029902200870FFE7B6
:1008F00000208DF8170003E001208DF81700FFE7B6
:100900009DF8170006B080BDBD3786B5BD3786356A
:1009100080B58CB004A9029181ED060AC1ED050AEB
:1009200081ED041AC1ED031A0690069820B1FFE785
:10093000069900200870FFE7029890ED040A9FEDE9
:10094000551AB4EE410AF1EE10FA08DCFFE70298FE
:1009500090ED060AB0EEC00A80ED010A0EE00298A2
:1009600090ED061A90ED050A20EE000AA1EE010AAC
:1009700025F0EEFE029880ED010AFFE7029890ED67
:10098000030A00F041FA029880ED000A90ED000A97
:10099000B5EE400AF1EE10FA12DDFFE7029890ED95
:1009A000010AD0ED040A9FED3C1ADFED3C1A9FEDE1
:1009B0003C2ADFED3C2A23F00BF88DF80F0051E0C4
:1009C000029890ED000AB5EE400AF1EE10FA12DA44
:1009D000FFE7029890ED010AD0ED040A9FED321A6C
:1009E000DFED321A9FED322ADFED322A22F0F0FFDE
:1009F0008DF80F0035E0029890ED010AD0ED040A61
:100A00009FED251ADFED251A9FED252ADFED252A1A
:100A100022F0DEFF014602988DF80E1090ED010ADB
:100A2000D0ED040A9FED201ADFED201A9FED202A59
:100A3000DFED202A22F0CCFF8DF80D009DF80E107E
:100A40000020019039B1FFE79DF80D00002818BF84
:100A500001200190FFE7019800F001008DF80F00E0
:100A6000FFE7FFE79DF80F0058B9FFE7069820B1B0
:100A7000FFE7069903200870FFE700208DF82F009C
:100A800003E001208DF82F00FFE79DF82F000CB048
:100A900080BD00BF00007A430000484223648643C3
:100AA0000F750543F1F805445E7C5A43C4220A449D
:100AB000A2A48FC23A69B04381B08DED000A9DEDCA
:100AC000000A9FED051A20EE010A9FED041A80EE40
:100AD000010A01B0704700BFDB0F494000003443FA
:100AE00083B0029001910092029830B1FFE7019823
:100AF00018B1FFE7009808B9FFE731E0019890F9D5
:100B0000100000EE100AB8EEC00A029890ED001A2C
:100B100020EE010A009880ED000A019890F9180073
:100B200000EE100AB8EEC00A029890ED011A20EE0D
:100B3000010A009880ED010A019890F9200000EE6A
:100B4000100AB8EEC00A029890ED021A20EE010ACF
:100B5000009880ED020A0298007B00990873FFE775
:100B600003B070470000000080B586B08DED040A28
:100B700003900291039818B1FFE7029820B9FFE7AC
:100B800000208DF817005FE09DED040A00F03CF9AD
:100B90008DED010A9DED010A9FED2D1AB4EE410A7B
:100BA000F1EE10FA0ADBFFE79DED010A9FED291A2D
:100BB000B4EE410AF1EE10FA04DDFFE700208DF8F3
:100BC000170041E09DED010AB5EE400AF1EE10FA82
:100BD0000FDDFFE79FED220AFFF76EFF039880ED20
:100BE000000A9FED1E0AFFF767FF029880ED000ADA
:100BF00026E09DED010AB5EE400AF1EE10FA0FDA9B
:100C0000FFE79FED150AFFF757FF039880ED000AF5
:100C1000B2EE040AFFF750FF029880ED000A0EE0E2
:100C20009FED0D0AFFF748FF039880ED000A9FED46
:100C30000B0AFFF741FF029880ED000AFFE7FFE78C
:100C400001208DF81700FFE79DF8170006B080BD62
:100C5000000078C20000A04202EB7CC274C44C4287
:100C6000000000000000000082B00090009818B959
:100C7000FFE70020019003E0009824300190FFE797
:100C8000019802B070470000B0B584B003900291A3
:100C9000039818B1FFE7029808B9FFE726E0039828
:100CA0005C21FFF7CEFC03990091029B0193186829
:100CB0005A68D3F808C0D3F80CE01C695D694D612F
:100CC0000C61C1F80CE0C1F808C04A60086098697E
:100CD000DA691B6A0B62CA6188610398243000F0EC
:100CE000A7F80399012081F85800FFE704B0B0BDD0
:100CF00080B588B0DDF82CC0DDF828C08DED070A7E
:100D0000CDED060A8DED051A049003910292019330
:100D1000049878B1FFE7039860B1FFE7029848B103
:100D2000FFE7019830B1FFE70A9818B1FFE70B9889
:100D300008B9FFE72DE09DED070A049890ED001A31
:100D400030EE410A00F028F8019880ED000A9DED90
:100D5000060A039890ED001A30EE410A00F01CF8E4
:100D60000A9880ED000A9DED060A9DED051A30EE09
:100D7000010A039890ED001A029890ED002A31EED6
:100D8000021A30EE410A00F007F80B9880ED000AD5
:100D9000FFE708B080BD000081B08DED000AFFE7DD
:100DA0009DED000A9FED141AB4EE410AF1EE10FA1F
:100DB00009DBFFE79DED000A9FED121A30EE010AF4
:100DC0008DED000AECE7FFE79DED000A9FED0B1AA1
:100DD000B4EE410AF1EE10FA09DAFFE79DED000AE0
:100DE0009FED071A30EE010A8DED000AECE79DED4C
:100DF000000A01B0704700BFDB0F4940DB0F49C05C
:100E0000DB0FC940DB0FC9C081B08DED000A9DED3D
:100E1000000A9FED051A20EE010A9FED041A80EEEC
:100E2000010A01B0704700BF00003443DB0F4940A6
:100E300080B582B00190019808B9FFE70AE00198F7
:100E40003421FFF7FEFB0199FE2008700199002074
:100E50004870FFE702B080BD10B59CB01A908DEDD0
:100E6000190ACDED180A8DED171ACDED161A1A983C
:100E700020B9FFE7FF208DF86F00F3E11A9890F892
:100E8000580058B9FFE71A982430FFF7D1FF1A9994
:100E9000FB2081F824008DF86F00E3E11A982430DC
:100EA000FFF7C6FF19981A99C86218981A9908632B
:100EB00017981A9948631A9890ED010A9FEDEB1A5A
:100EC000B4EE410AF1EE10FA0BDDFFE71A9890ED4F
:100ED000020A9FEDE61AB4EE410AF1EE10FA07DCC1
:100EE000FFE71A99FE2081F824008DF86F00B9E120
:100EF0009DED170A9FEDDE1AB4EE410AF1EE10FAED
:100F000041DCFFE700201590189812909DED120A21
:100F1000B0EEC00AB1EE041AB4EE410AF1EE10FAD6
:100F200013DDFFE71A99FC2081F824001A9A0121A9
:100F300082F826101A9A002182F827101A9A0421A2
:100F400082F825108DF86F008CE19DED190AB0EE46
:100F5000C00A9FEDC61AB4EE410AF1EE10FA11DA9A
:100F6000FFE79DED180AB0EEC00A9FEDC01AB4EE7F
:100F7000410AF1EE10FA05DAFFE71A99012081F82B
:100F80002800FFE728E09DED190AB0EEC00A9FEDAA
:100F9000B71AB4EE410AF1EE10FA13DAFFE79DED4D
:100FA000180AB0EEC00A9FEDB11AB4EE410AF1EE94
:100FB00010FA07DAFFE7169815901A99012081F8C0
:100FC000280008E09DED180ADDED190A24F0C8FD9F
:100FD0008DED150AFFE7FFE79DED150AFFF7DCFE33
:100FE0008DED150A9DED150A24F010FF8DED0A0A0E
:100FF0009DED190A8DED090A9DED150A25F0E0FA1F
:101000009DED092A9DED0A1A9DED183A20EE030A7E
:10101000A1EE020A8DED110A9DED110AB1EE400A12
:101020008DED100A9DED170A1A9890ED001A30EE1A
:10103000410A8DED0F0A9DED101A9DED0F0A20EE6D
:10104000000AA1EE010A1A9890ED011A90ED022A09
:10105000A1EE410AA2EE420A31EE011A21EE021A75
:1010600080EE010A8DED0E0A9DED0E0A9FED811AAC
:10107000B4EE410AF1EE10FA0ADBFFE79DED0E0A2D
:101080009FED7D1AB4EE410AF1EE10FA0BDDFFE799
:101090001A99FD2081F824001A9A002182F826105E
:1010A0008DF86F00DEE09DED0E0AFFEE000ACDED3B
:1010B000030AB7EE001A22F02FFCB0EE401A9DEDA5
:1010C000030A8DED0E1A9DED0E1A91EE410A9FED69
:1010D0006B1A80FE010A25F03BFB8DED0D0A9DED9C
:1010E0000D0AB1EE400ADDED0E0A24F039FD8DED5A
:1010F000130A1A9890ED010A8DED050A90ED020A87
:101100008DED040A9DED130A24F080FE9DED041A76
:10111000B0EE402A9DED050AA1EE020A8DED0C0A03
:101120001A9890ED020A8DED060A9DED130A25F03E
:1011300047FAB0EE401A9DED060A20EE010A8DED49
:101140000B0A9DED100ADDED0F0A24F009FD8DED6F
:10115000070A9DED0B0ADDED0C0A24F001FDB0EE4F
:10116000401A9DED070A30EE410A8DED140A9DEDFF
:10117000150AFFF711FE8DED150A9DED140AFFF714
:101180000BFE8DED140A9DED130AFFF705FE8DEDA4
:10119000130A1A990120089081F8260015991A9AC5
:1011A000916314991A9AD16313991A9A11641A992E
:1011B00081F844009DED150ADDED140A9DED131A2A
:1011C000DDF868E00EF10C000EF114010EF11C02C6
:1011D0000EF148030EF14C0C0EF15004EE46CEF821
:1011E0000440CEF800C0FFF783FD08981A9981F8F3
:1011F00054009DED140A1A98D0ED140A2530FFF71B
:1012000033FB58B9FFE71A99FC2081F824001A9A99
:10121000002182F827108DF86F0023E09DED190A58
:10122000DDED180A9DED171ADDED141A1A98253018
:10123000FFF76EFB58B9FFE71A99FC2081F82400EC
:101240001A9A002182F827108DF86F000AE01A9987
:10125000002081F824001A9A012182F827108DF8C5
:101260006F00FFE79DF96F001CB010BDBD378635DC
:1012700000007A43540080BF5400803F000000000B
:1012800080B5AEB02A90ADF8A6102A9828B1FFE735
:10129000BDF8A600382804D8FFE70020ADF8AE005E
:1012A0003BE1EFF310802C902C980390EFF310802B
:1012B00072B62D9000F050FD014609A87C22FFF780
:1012C0006CF944F67453C2F20003986BD96B1A6C34
:1012D0005B6C089307920691059046F26400C2F297
:1012E000004081788DF812100088ADF81000039846
:1012F00010B9FFE762B6FFE79DED050AFFF784FD31
:101300008DED020A9DED060AFFF77EFD8DED010AC7
:101310009DED070AFFF778FD8DED000A0020ADF87E
:10132000A4002A99BDF8A420501CADF8A400A52063
:101330008854BDF8A400ADF8A2002A99BDF8A420F5
:10134000501CADF8A400E12088549DF810002A99A3
:10135000BDF8A420531CADF8A43088549DF81100AA
:101360002A99BDF8A420531CADF8A43088549DF8E8
:1013700012002A99BDF8A420531CADF8A43088545B
:101380009DF89C002A99BDF8A420531CADF8A43008
:1013900088549DF898002A99BDF8A420531CADF8F4
:1013A000A43088542A98BDF8A41008449DED090A79
:1013B00000F0FAF8BDF8A4000430ADF8A4002A98B3
:1013C000BDF8A41008449DED0A0A00F0EDF8BDF840
:1013D000A4000430ADF8A4002A98BDF8A410084475
:1013E0009DED0B0A00F0E0F8BDF8A4000430ADF864
:1013F000A4002A98BDF8A41008449DED0C0A00F042
:10140000D3F8BDF8A4000430ADF8A4002A98BDF8C4
:10141000A41008449DED0D0A00F0C6F8BDF8A40024
:101420000430ADF8A4002A98BDF8A41008449DED3E
:101430000E0A00F0B9F8BDF8A4000430ADF8A4001D
:101440002A98BDF8A41008449DED230A00F0ACF8DA
:10145000BDF8A4000430ADF8A4002A98BDF8A4108B
:1014600008449DED240A00F09FF8BDF8A400043064
:10147000ADF8A4002A98BDF8A41008449DED250AF3
:1014800000F092F8BDF8A4000430ADF8A4002A984A
:10149000BDF8A41008449DED020A00F085F8BDF8DF
:1014A000A4000430ADF8A4002A98BDF8A4100844A4
:1014B0009DED010A00F078F8BDF8A4000430ADF805
:1014C000A4002A98BDF8A41008449DED000A00F07D
:1014D0006BF8BDF8A4000430ADF8A4002A98BDF85C
:1014E000A2100844362100F01FF88DF8A1009DF8E5
:1014F000A1002A99BDF8A420531CADF8A43088544B
:101500002A99BDF8A420501CADF8A4005A20885494
:10151000BDF8A400ADF8AE00FFE7BDF8AE002EB0F8
:1015200080BD00000000000085B00390ADF80A10F7
:1015300000200190039820B9FFE700208DF81300E8
:101540001CE00020ADF80200FFE7BDF80200BDF886
:101550000A1088420EDAFFE70398BDF80210415CDA
:10156000019808440190FFE7BDF802000130ADF892
:101570000200EAE701988DF81300FFE79DF81300D9
:1015800005B070470000000046F66511C2F2000188
:10159000002008707047000046F66510C2F2000097
:1015A000007870470000000082B001908DED000AC5
:1015B000019808B9FFE703E0019900980860FFE788
:1015C00002B070470000000080B582B046F665109A
:1015D000C2F20000007820B1FFE700208DF807007C
:1015E00035E046F62C10C2F200003921FFF748FE24
:1015F000ADF80400BDF8040020B9FFE700208DF825
:10160000070024E046F66511C2F2000101200870CF
:10161000BDF8042045F6AC40C2F2000046F62C119D
:10162000C2F200010FF080FF8DF803009DF8030067
:1016300048B1FFE746F66511C2F2000100200870CC
:101640008DF8070003E001208DF80700FFE79DF803
:10165000070002B080BD000046F66511C2F200012D
:10166000002008707047000080B584B00390039894
:1016700008B9FFE755E044F60060C2F2004090F878
:10168000780048B1FFE744F60060C2F2004090EDF8
:101690001A0A8DED010A04E09FED230A8DED010A7F
:1016A000FFE79DED010A8DED020A039890ED000A17
:1016B0009FED1E1AB4EE410AF1EE10FA0EDBFFE7C1
:1016C0009DED020AB5EE400AF1EE10FA06DAFFE7E8
:1016D00003990020CCF23430086022E0039890EDAA
:1016E000000A9FED131AB4EE410AF1EE10FA0EDC77
:1016F000FFE79DED020AB5EE400AF1EE10FA06DDB5
:10170000FFE703990020C4F23430086008E0039832
:1017100090ED000A00F094F9039880ED000AFFE7CD
:10172000FFE704B080BD00BF00000000BEFF3343F0
:10173000BEFF33C300000000B0B588B00790079823
:1017400008B9FFE779E107984FF4B271FEF779FF26
:1017500044F67450C2F20000039000F12401069197
:10176000079A049201684368D0F808C0D0F80CE0EA
:101770000469456955611461C2F80CE0C2F808C0FB
:10178000536011608169C369D0F820C0C2F820C0DD
:10179000D361916190F85800079981F8240044F6CC
:1017A0000063C2F20043059393F87800079981F82B
:1017B000250006988078079981F826000698C07859
:1017C000079981F8270006980079079981F8280081
:1017D00093F87900079981F8290093F87A0007991E
:1017E00081F82A0046F61C10C2F20000007B07991F
:1017F00081F82B0006980078079981F82C0006984C
:101800004078079981F82D00079918685A68D3F82D
:1018100008C0C1F838C04A6308630799DDF818C0EA
:10182000DCF80800DCF80C20DCF810C0C1F844C07B
:101830000A64C8630799D8681A695B690B65CA644A
:1018400088640799DDF818C0DCF81400DCF818206B
:10185000DCF81C30DCF820C0C1F860C0CB658A65BC
:101860004865079901F15400643100F0B5FA079911
:10187000DDF818C0DCF82400DCF82820DCF82C3077
:10188000DCF830C0C1F880C0CB678A674867079929
:1018900001F17400843100F0CBFADDF814C007992F
:1018A000DCF82800DCF82C20DCF83030DCF834C020
:1018B000C1F8A0C0C1F89C30C1F89820C1F89400CC
:1018C000079901F19400A43100F086FA059890F888
:1018D000780048B3FFE7079944F6006CC2F2004C69
:1018E000CDF808C0DCF83800DCF83C20DCF84030EB
:1018F000DCF844E0C1F8C0E0C1F8BC30C1F8B82061
:10190000C1F8B4000799DCF84800DCF84C20DCF89A
:101910005030DCF854C0C1F8E0C0C1F8DC30C1F888
:10192000D820C1F8D400FFE7079901F1B400C43111
:1019300000F07EFA079944F6006CC2F2004CCDF834
:1019400004C0DCF86800DCF86C20DCF87030DCF8EF
:1019500074E0C1F8F0E0C1F8EC30C1F8E820C1F85B
:10196000E4000799DCF81800DCF81C20DCF82030D3
:10197000DCF824C0C1F800C1C1F8FC30C1F8F8207F
:10198000C1F8F400079901F1F40001F5827100F04B
:1019900023FADDF804C00799DCF83800DCF83C20B5
:1019A000DCF84030DCF844C0C1F820C1C1F81C317B
:1019B000C1F81821C1F81401079901F58A7001F5E1
:1019C000927100F035FADDF804C00799DCF84800A0
:1019D000DCF84C20DCF85030DCF854E0C1F840E191
:1019E000C1F83C31C1F83821C1F834010799DCF85D
:1019F0005800DCF85C20DCF86030DCF864C0C1F82A
:101A000050C1C1F84C31C1F84821C1F844010799CF
:101A100046F61C1CC2F2000CDCF80000DCF80420C6
:101A2000DCF80830DCF80CC0C1F860C1C1F85C31EA
:101A3000C1F85821C1F85401FFE708B0B0BD00005B
:101A400082B08DED000A9DED000A9FED111AB4EEF3
:101A5000410AF1EE10FA05DDFFE70020C4F2343050
:101A6000019011E09DED000A9FED0A1AB4EE410AC3
:101A7000F1EE10FA05DAFFE70020CCF234300190E5
:101A800002E000980190FFE79DED010A02B0704767
:101A900000003443000034C380B58AB000200190B8
:101AA0000020C4F2A030029003909FED120AFFF7CD
:101AB00003F88DED040A9FED100AFEF7FDFF8DED92
:101AC000060A9FED0E0AFEF7F7FF8DED080A0120CA
:101AD0008DF81400FF218DF81C108DF8240044F6B9
:101AE0007450C2F2000001A9FFF7CEF800F0CCF963
:101AF0000AB080BD000000000000A042000025C325
:101B000080B598B00BA8099080ED0C0AC0ED0B0AC7
:101B100080ED0A1A179844F60061C2F2004108608D
:101B20001698486015988860002028B9FFE7179834
:101B300021F006FE58B930E0099890ED0C0AB7EE96
:101B4000C00A51EC100B21F0EBFD30B3FFE7002091
:101B500028B9FFE7169821F0F3FD58B91DE0099860
:101B600090ED0B0AB7EEC00A51EC100B21F0D8FD36
:101B700098B1FFE7002028B9FFE7159821F0E0FDB4
:101B800028BB0AE0099890ED0A0AB7EEC00A51ECAA
:101B9000100B21F0C5FDD0B9FFE700F0EDF88DF88E
:101BA0002B0044F60061C2F200410320089081F846
:101BB00079009DF82B0081F87A0000F011FB08985D
:101BC0009DF82B200023194600F0F2F9BDE009989A
:101BD00090ED0C0AD0ED0B0A90ED0A1A44F6745001
:101BE000C2F200000790DFED5A1AFFF735F90146FF
:101BF00007988DF85310FFF737F813909DF95300AD
:101C0000E8BBFFE71398243044F67451C2F2000198
:101C10000FAA0492FEF764FF04980BA9059100F047
:101C200007F90598FFF720FD099890ED000AFEF7E7
:101C300043FF09980499059A80ED040A90ED0C0A77
:101C4000D0ED0B0A90ED0A1A139800F031F900203C
:101C500006908DF82B0044F60061C2F2004181F835
:101C600079009DF82B0081F87A0000F0B9FA069906
:101C70009DF82B20139B084600F09AF965E09DF92A
:101C800053000330D0B9FFE700F076F88DF82B0051
:101C900044F60061C2F200410120039081F879000E
:101CA0009DF82B0081F87A0000F09AFA03989DF8CD
:101CB0002B20139B002100F07BF945E09DF9530098
:101CC000043030BBFFE700208DF82A00139828B1BC
:101CD000FFE7139840788DF82A00FFE700F04CF8F2
:101CE0008DF82B0044F60061C2F200410220029000
:101CF00081F879009DF82B0081F87A0000F070FAE5
:101D000002989DF82A109DF82B20139B00F050F9A3
:101D100019E000F031F88DF82B0044F60061C2F2B2
:101D200000410320019081F879009DF82B0081F893
:101D30007A0000F055FA01989DF82B20139B0021A2
:101D400000F036F9FFE7FFE7FFE718B080BD00BFFE
:101D5000000000000000000044F60060C2F20040F5
:101D6000704700000000000080B500F039FA44F62A
:101D70007C60C2F2004080BD82B044F60060C2F2D6
:101D8000004090F87800E8B1FFE744F60061C2F245
:101D9000004100918869CA690B6AD1F824C0C1F872
:101DA00034C00B63CA628862886DCA6D0B6ED1F84D
:101DB00064C0C1F874C00B67CA66886601208DF8DC
:101DC000070003E002208DF80700FFE79DF80700F9
:101DD00002B070470000000080B582B00190009111
:101DE000019818B1FFE7009808B9FFE71CE00198D7
:101DF00090ED000AFFF708F8009880ED000A0198BE
:101E000090ED010AFFF700F8009880ED010A0198B3
:101E100090ED020AFEF7F8FF009880ED020A0198A3
:101E2000007B00990873FFE702B080BD000000004E
:101E300080B582B001900091019818B1FFE7009839
:101E400008B9FFE71CE0019890ED000AFEF7DCFFFF
:101E5000009880ED000A019890ED010AFEF7D4FF8A
:101E6000009880ED010A019890ED020AFEF7CCFF80
:101E7000009880ED020A0198007B00990873FFE743
:101E800002B080BD0000000080B544F60060C2F2E0
:101E900000407C21FEF7D5FB46F61C11C2F2000182
:101EA0000020C86088604860086000F099F980BD33
:101EB00087B08DED060ACDED050A8DED041A03906D
:101EC00002910192039830B1FFE7029818B1FFE741
:101ED000019808B9FFE768E0069844F60061C2F28D
:101EE00000410091C8600598086104984861DDF8D8
:101EF0000CC0DCF81400DCF81820DCF81C30DCF82E
:101F000020C0C1F824C00B62CA618861DDF80CC032
:101F1000DCF82400DCF82820DCF82C30DCF830C0B9
:101F2000C1F844C00B64CA638863DDF808C0DCF8FC
:101F30000000DCF80420DCF80830DCF80CC0C1F844
:101F400054C00B65CA648864DDF804C0DCF8000086
:101F5000DCF80420DCF80830DCF80CC0C1F864C000
:101F60000B66CA658865DDF80CC0DCF81400DCF887
:101F70001820DCF81C30DCF820C0C1F834C00B633A
:101F8000CA628862DDF804C0DCF80000DCF80420D6
:101F9000DCF80830DCF80CC0C1F874C00B67CA6606
:101FA0008866012081F87800FFE707B070470000DD
:101FB00080B588B08DF81F008DF81E108DF81D209B
:101FC00006939DF81F008DF812009DF81E008DF8F5
:101FD00013009DF81D008DF81400069848B1FFE726
:101FE000069880788DF815000698C0788DF8160050
:101FF00005E000208DF815008DF81600FFE744F687
:102000000060C2F2004090F878008DF81700902030
:1020100001900DF1120102910622039200F010F8D6
:1020200001980299039A00F003F808B080BD0000FF
:1020300083B08DF80B000191ADF8022003B070471A
:1020400080B584B08DF80F000291ADF806209DF8A0
:102050000F0002999DF8062017F0E2FF04B080BD42
:1020600080B584B001A981ED020AC1ED010A81EDBC
:10207000001A8DF80300039846F61C11C2F2000105
:10208000086002984860019888609DF80300002865
:1020900018BF0120087300F0A3F804B080BD000051
:1020A00080B5A0B01CAA019282ED020AC2ED010A1D
:1020B00082ED001A1B901A911B9820B1FFE71B9923
:1020C000FE200870FFE71A9820B1FFE71A99002058
:1020D0000870FFE7002028B9FFE71E9821F030FBC9
:1020E00058B930E0019890ED020AB7EEC00A51EC01
:1020F000100B21F015FB30B3FFE7002028B9FFE7F4
:102100001D9821F01DFB58B91DE0019890ED010AC2
:10211000B7EEC00A51EC100B21F002FB98B1FFE7BB
:10212000002028B9FFE71C9821F00AFB78B90AE0E3
:10213000019890ED000AB7EEC00A51EC100B21F0A7
:10214000EFFA20B9FFE700208DF87F0041E044F668
:102150007450C2F2000090F8580058B9FFE71B987D
:1021600020B1FFE71B99FB200870FFE700208DF8E6
:102170007F002EE044F67451C2F2000103A80090E3
:102180005C22FEF70AFA0199009891ED020AD1ED5E
:10219000010A91ED001ADFED111AFEF75DFE8DF8D0
:1021A0000B001B9828B1FFE79DF80B001B990870E6
:1021B000FFE71A9828B1FFE79DF831001A990870D7
:1021C000FFE79DF90B00B0FA80F040098DF87F0021
:1021D000FFE79DF87F0020B080BD00BF0000000039
:1021E00080B544F67C60C2F20040FFF7A5FA80BDDE
:1021F00080B586B08DF8170045F2A470C2F2004099
:1022000090ED030AB8EEC00A9FED291A20EE010AEC
:102210008DED040A90ED0A0AB8EEC00A9FED251A6A
:1022200020EE010A8DED030A90ED110AB8EEC00A06
:1022300020EE010A8DED020A9DED040A9FED1E1AA3
:10224000B4EE410AF1EE10FA05DDFFE70020C4F21A
:10225000343004900FE09DED040A9FED181AB4EE9F
:10226000410AF1EE10FA05DAFFE70020CCF2343033
:102270000490FFE7FFE79DF8172044F66051C2F293
:10228000000144F6F050C2F20040012A08BF08469F
:10229000019022F0F9FD04980199086003980199D2
:1022A000486002980199886022F01AFE06B080BD4D
:1022B000402F81B974F7EF3900003443000034C374
:1022C00080B582B044F67050C2F2004090F9000030
:1022D000012818D0FFE746F6E020C2F2000000789F
:1022E00050B9FFE70020FFF783FF46F6E021C2F276
:1022F000000101200870FFE744F61C51C2F2000102
:102300000020087094E044F61C50C2F200000078EF
:1023100008B9FFE78CE04AF29810C2F2004090ED55
:10232000000A44F61450C2F2000090ED001AB4EE18
:10233000410AF1EE10FA36D1FFE746F61430C2F248
:10234000000090ED000A44F66C50C2F2004090ED9F
:10235000001AB4EE410AF1EE10FA24D1FFE74AF276
:10236000A010C2F2004090ED000A44F61850C2F2EC
:10237000000090ED001AB4EE410AF1EE10FA12D10D
:10238000FFE746F6E020C2F20000007850B9FFE710
:102390000020FFF72DFF46F6E021C2F200010120E8
:1023A0000870FFE744E046F6E021C2F20001002099
:1023B000087044F61450C2F2000090ED000A44F692
:1023C0006C50C2F20040D0ED000A44F61850C2F240
:1023D000000090ED001AFFF793FBFFF7BDFC0190A2
:1023E000019890F8780010B3FFE70198806A45F2F1
:1023F000B461C2F2004108600198C06A4860019867
:10240000006B88600198806E44F6F051C2F2004182
:1024100008600198C06E48600198006F8860FFF7FF
:10242000BBF818B9FFE7FFF7CFF8FFE7FFE7FFE7D3
:1024300002B080BD0000000080B584B08DED030ABD
:10244000CDED020A8DED011A46F61030C2F2000001
:1024500090ED000A9DED031AB4EE410AF1EE10FA78
:1024600020D1FFE74AF29C10C2F2004090ED000A32
:102470009DED021AB4EE410AF1EE10FA12D1FFE717
:1024800046F61830C2F2000090ED000A9DED011AE8
:10249000B4EE410AF1EE10FA04D1FFE70120FFF794
:1024A000A7FE2FE09DED030ADDED020A9DED011A66
:1024B000FFF726FBFFF750FC0090009890F878009B
:1024C000F8B1FFE722F0E0FC0098806A45F69C61D5
:1024D000C2F2000108600098C06A48600098006B72
:1024E00088600098806E44F66051C2F20001086076
:1024F0000098C06E48600098006F886022F0F0FC81
:10250000FFE7FFE704B080BD82B00090009820B9DB
:10251000FFE7FF208DF807002AE00098006841F2ED
:102520000001C4F20101884204D1FFE700208DF8C8
:1025300007001DE00098006847F60041C4F2000162
:10254000884204D1FFE701208DF8070010E00098D1
:10255000006841F60001C4F20101884204D1FFE79E
:1025600002208DF8070003E0FF208DF80700FFE749
:102570009DF8070002B0704780B582B08DF8030067
:102580009DF8030000F014F818B9FFE7002001904F
:1025900009E09DF8031046F66C10C2F2000000EB53
:1025A00041100190FFE7019802B080BD00000000DB
:1025B00081B08DF803009DF803100020032938BF77
:1025C000012001B07047000080B584B08DF80E0086
:1025D0009DF80E00FFF7ECFF20B9FFE701208DF812
:1025E0000F0026E09DF80E1046F65C70C0F6020063
:1025F00050F8210002909DF80E0046F66C11C2F2D0
:10260000000101EB4012430100200190C850D0614D
:10261000906150611061D0609060506002989DF8A8
:102620000E2001EB421120220DF012FE8DF80F005A
:10263000FFE79DF80F0004B080BD0000000000001F
:1026400080B584B08DF80E000291ADF8062000939D
:102650009DF80E00FFF7ACFF38B1FFE7029820B1FC
:10266000FFE7BDF8060020B9FFE701208DF80F0055
:1026700010E09DF80E1046F65C70C0F6020050F8AF
:1026800021000299BDF80620009B0EF0B1FE8DF8E6
:102690000F00FFE79DF80F0004B080BD00000000B0
:1026A000F0B5A1B00DF12C0CCDF824C01F901E91F7
:1026B0001D921C9344F61D50C2F20000007808B928
:1026C000FFE7A0E1EFF3108072B6209044F672515C
:1026D000C2F2004112A82822FDF71AFF44F61D514C
:1026E000C2F200010020087062B6FF218DF8471089
:1026F0008DF82B00FFE79DF82B00072813D8FFE784
:102700009DF82B1012A8405C012805D1FFE79DF829
:102710002B008DF8470006E0FFE79DF82B00013005
:102720008DF82B00E7E79DF8500044F67056C2F292
:102730000046089630709DF8510044F21155C2F2DF
:10274000000528709DF852004AF2A614C2F2004417
:1027500020709DF8530044F65C51C2F200010691CE
:1027600008709DF8540044F6B051C2F20041029145
:1027700008709DF8550044F65E51C2F200010391C5
:1027800008709DF8560044F6B151C2F20041049120
:1027900008709DF8570044F65D51C2F200010591A2
:1027A000087012A80190103022F0C2F8019809991F
:1027B00081ED050A143022F0BBF80198099981EDEA
:1027C000040A183022F0B4F80198099981ED030A3F
:1027D0001C3022F0ADF80198099981ED020A2030F1
:1027E00022F0A6F80198099981ED010A243022F01F
:1027F0009FF80999DDF808C0039B049A0598DDF855
:1028000018E081ED000A9DF8477044F6B451C2F219
:10281000004107910F70109F4F600F9F8F600E9FB8
:10282000CF600D9F0F610C9F4F610B9F8F613678BA
:102830000E772D784D7724788C779EF800E081F81C
:102840001FE09CF800C081F820C01B7881F821307F
:10285000127881F82220007881F82300486A01303C
:10286000486208F0FDFC079A01460898D1620121F0
:1028700082F82810002182F8381048F21012C2F2B3
:102880000042117044F61C52C2F20002117090F91D
:10289000000001283BD1FFE744F21150C2F20000D2
:1028A0000078A0BBFFE7099890ED020AD0ED010A7D
:1028B00090ED001A00210846FFF7F2FBC8B1FFE7D0
:1028C0000D9844F61451C2F2000108600C9844F6C9
:1028D0006C51C2F2004108600B9844F61851C2F2E4
:1028E0000001086044F61C51C2F20001012008708A
:1028F0000CE0099890ED020AD0ED010A90ED001A63
:10290000FFF7FEF80020FFF773FCFFE70AE044F64C
:102910007050C2F2004090F90000012801D0FFE79A
:10292000FFE7FFE744F21150C2F2000000780138DF
:10293000B0FA80F0400901F0DBFB40F20800C2F27F
:1029400000400078012825D1FFE709989DF847103D
:1029500090ED050AD0ED040A90ED031A45F2EC2043
:10296000C2F2004012F060FD44F65E50C2F2000078
:10297000017844F6B150C2F20040027844F65D504E
:10298000C2F20000037845F28020C2F2004012F04B
:102990008BFF0CE045F2EC20C2F2004014F0A8F9E5
:1029A00045F28020C2F2004012F0EAFFFFE740F259
:1029B0000800C2F200400078012824D1FFE74AF263
:1029C000A610C2F2004001780020009018F0D8FE56
:1029D000009818F005FD44F65C51C2F20001097838
:1029E000002918BF012118F07BFE009818F0E4FCC4
:1029F00044F6B051C2F200410978002918BF012104
:102A000018F02AFEFFE721B0F0BD00000000000032
:102A100080B588B0079006918DF817200493079829
:102A200008B9FFE714E20798407B90B1FFE70798E9
:102A30009DF8171017F0E4FC58B9FFE7069820B18D
:102A4000FFE7069814F054F9FFE707990020487350
:102A5000FFE79DF81700079908700799002002907A
:102A6000C8700499079A5161079908730799C87249
:102A700007994873079908740799C86107994874BA
:102A8000079908629DF81700182814D1FFE70F2056
:102A900001F05AFA0798BAEE040A17F055FB0798A6
:102AA00001F0F2F807989FEDCF0A17F071FB079835
:102AB00020F06EFACCE19DF817001A2844D1FFE708
:102AC0000798BAEE040A17F03FFB079801F0DCF80C
:102AD00007989FEDC40A17F05BFB069820B1FFE74B
:102AE000069814F005F9FFE720F0CEF940BBFFE7A8
:102AF000069860B9FFE70799087940F0040008716B
:102B000007990020887007991720087017E0069829
:102B100013F022FF0698002114F032F80698DFED3A
:102B2000D10A9FEDCC1AB0EE410A14F065F807996E
:102B3000012048730798049920F0C6F9FFE7FFE7E2
:102B4000079820F025FA83E19DF817001B2844D14F
:102B5000FFE70798BAEE040A17F0F6FA079801F0B3
:102B600093F807989FEDBB0A17F012FB069820B167
:102B7000FFE7069814F0BCF8FFE703F095F840BBB8
:102B8000FFE7069860B9FFE70799087940F004006D
:102B9000087107990020887007991720087017E0BE
:102BA000069813F0D9FE0698002113F0E9FF069865
:102BB000DFEDAB0A9FEDA71AB0EE410A14F01CF846
:102BC0000799012048730798049903F009F8FFE773
:102BD000FFE7079820F0DCF93AE19DF817001C2880
:102BE00046D1FFE70798BAEE040A17F0ADFA079846
:102BF00001F04AF807989FED970A17F0C9FA06986E
:102C000060B9FFE70799087940F004000871079957
:102C10000020887007991720087025E0069814F0A6
:102C200067F8069813F098FE0698042113F0A8FFA1
:102C30000698DFED8A0A9FED871AB0EE410A13F07D
:102C40009BFE20B9FFE70799012048730BE0079925
:102C5000087940F0040008710799002088700799EE
:102C600017200870FFE7FFE7079820F091F9EFE0E1
:102C70009DF81700192846D1FFE70798BAEE040A15
:102C800017F062FA079800F0FFFF07989FED710AAE
:102C900017F07EFA069860B9FFE70799087940F0C7
:102CA00004000871079900208870079917200870A0
:102CB00025E0069814F01CF8069813F04DFE0698CF
:102CC000042113F05DFF0698DFED630A9FED611AA2
:102CD000B0EE410A13F050FE20B9FFE7079901203A
:102CE00048730BE00799087940F0040008710799D0
:102CF00000208870079917200870FFE7FFE7079802
:102D000020F046F9A4E09DF81700002800F080802C
:102D1000FFE79DF817000190079801F02DFB014691
:102D20000198884274D8FFE7079801F039FB9DF8B5
:102D3000171000EB4110203803900798039991ED8C
:102D4000020AD1ED030A91ED041AD1ED051A17F02C
:102D50003FFA0398007928B9FFE70398407901F01A
:102D6000F3F851E00398007901280CD1FFE701F056
:102D7000E3F8079800F088FF0798039991ED060A99
:102D800017F006FA3FE00398007902283AD1FFE7EE
:102D9000069860B9FFE70799087940F004000871C8
:102DA00007990020887007991720087029E0069875
:102DB00013F09EFF069813F0CFFD0698042113F040
:102DC000DFFE06980399D1ED060A9FED221AB0EEB8
:102DD000410A13F0D1FD38B9FFE707990120487384
:102DE0000EE000BF000000000799087940F00400E1
:102DF0000871079900208870079917200870FFE76D
:102E0000FFE7FFE7FFE7FFE7079820F0C1F81FE0C3
:102E10009DF81700162817D1FFE707990020887042
:102E200007990120C8700798BAEE040A17F08CF9C8
:102E3000079800F029FF07989FED060A17F0A8F9F8
:102E4000079820F0A5F803E0079820F0A1F8FFE725
:102E500008B080BD000000008FC2F53C0AD7A3BBBC
:102E60000AD7A3BD0AD7A33D80B58CB00B900A91B9
:102E70008DF8272008930B9808B9FFE789E10B9894
:102E800020F086F80B98407B58B1FFE70A9820B1F4
:102E9000FFE70A9813F02CFFFFE70B990020487317
:102EA000FFE70B98012141700B9A002090700B9A5C
:102EB000D0710B9A10720B9A10700B9AD070089AFE
:102EC0000B9B5A619DF827200B9BDA720B9A1173AA
:102ED0000B9948730B9908719DF82700013801463A
:102EE0000691152800F243810699DFE811F01600DB
:102EF0001F002A00350040004B00770080008B0047
:102F0000960096009600180121012C013701560009
:102F100061006C009600960096000F2001F014F8F6
:102F20000B989FEDA00A17F00FF92EE10F200590E6
:102F300001F00AF805990B98B2EE040AFDF72CFC93
:102F400023E10F20049000F0FFFF04990B98BAEEE4
:102F5000040AFDF721FC18E100F0EEFF0B9800F0E9
:102F600093FE0B98B3EE0E0A17F012F90DE100F084
:102F7000E3FF0B9800F088FE0B98B2EE040A17F0FE
:102F800007F902E100F0D8FF0B9800F07DFE0B98E6
:102F9000BAEE040A17F0FCF8F7E000F0CDFF0B984A
:102FA00000F072FE0B98BBEE0E0A17F0F1F8ECE0A1
:102FB00000F0C2FF0B9800F067FE0B989FED780AB7
:102FC00017F0E6F8E1E000F0B7FF0B9800F05CFEC8
:102FD0000B989FED720A17F0DBF8D6E0092000F09D
:102FE000B3FF0B989FED6C0A17F0DEF8CDE00920D7
:102FF000039000F0A9FF03990B98B2EE040AFDF7C5
:10300000CBFBC2E00920029000F09EFF02990B98D2
:10301000BAEE040AFDF7C0FBB7E0002007900A985B
:1030200060B9FFE70B99087940F0040008710B992B
:10303000002008730B9917200870A6E00A9813F077
:1030400057FE0A9813F088FC0A98042113F098FDA3
:103050009DF827000A2806D1FFE74CF6CD40C3F6BD
:10306000CC5007903BE09DF827000B2806D1FFE7E6
:103070004CF6CD40C3F64C5007902FE09DF827004A
:103080000C2806D1FFE74CF6CD40CBF64C5007900C
:1030900023E09DF82700142806D1FFE74CF6CD4029
:1030A000CBF6CC50079017E09DF82700152806D1E5
:1030B000FFE749F69A10C3F6996007900BE09DF878
:1030C0002700162806D1FFE749F69A10CBF699603B
:1030D0000790FFE7FFE7FFE7FFE7FFE7FFE70A9853
:1030E000DDED070A9FED2C1AB0EE410A13F044FC07
:1030F00020B9FFE70B9901204873FFE70B98407B4D
:1031000060B9FFE70B99087940F0040008710B994A
:10311000002008730B9917200870FFE735E00620A0
:1031200000F012FF0B989FED1C0A17F07DF82CE0C1
:103130000620019000F008FF01990B98B2EE040AF6
:10314000FDF72AFB21E00620009000F0FDFE00992B
:103150000B98BAEE040AFDF71FFB16E00F2000F0F3
:10316000F3FE0B989FED0C0A16F0EEFF0DE00B99A5
:10317000087940F0040008710B99002008730B993E
:10318000C8720B9917200870FFE70B981FF000FF1B
:10319000FFE70CB080BD00BF000000000000FAC3D4
:1031A0000000FA4300005C4380B586B005908DF8BE
:1031B000131003920293029808B9FFE745E10298C1
:1031C0009021FDF73EFA9DF81300029908700298CD
:1031D000002100918171084617F03AF80299886140
:1031E00012F0EAF801460098029A9172029A4FF2A0
:1031F0004911C4F2E741D164029A45F6B401C4F220
:10320000B74111658DF80700FFE79DF80700032817
:1032100013D8FFE79DF8072046F66870C0F6020055
:1032200050F82200029901EB82014865FFE79DF802
:10323000070001308DF80700E7E700208DF8070050
:10324000FFE79DF80700012813D8FFE79DF8072046
:1032500046F65470C0F6020050F82200029901EBC5
:1032600082014866FFE79DF8070001308DF80700EE
:10327000E7E70398E8B3FFE700208DF80700FFE7D2
:103280009DF80700032815D8FFE703989DF807105D
:1032900000EB4100B0F8840002999DF8072001EB93
:1032A0004201A1F88400FFE79DF8070001308DF886
:1032B0000700E5E700208DF80700FFE79DF807000D
:1032C000012815D8FFE703989DF8071000EB41008F
:1032D000B0F88C0002999DF8072001EB4201A1F89B
:1032E0008C00FFE79DF8070001308DF80700E5E747
:1032F000FFE7059808B9FFE7A7E00598007802996D
:1033000048700598407802998870059880780299ED
:10331000C8700598C07802990871059800790299DB
:10332000487105984079029988710598C079029989
:1033300008720598007A02994872059840690299C6
:10334000C8600598806902990861059801784079FC
:1033500016F07EFF02998861059812F0D5F902995E
:10336000C8710598007828B1FFE7059800781628FD
:1033700008D1FFE70598007B20B9FFE702990020FC
:10338000486106E0059841698069401A02994861E0
:10339000FFE700208DF80700FFE79DF807000328EE
:1033A00025D8FFE705989DF8072000EB8200406DC7
:1033B000029901EB8201C86105989DF8072000EB96
:1033C0008200C06B029901EB8201C86205989DF8EA
:1033D000072000EB8200406A029901EB8201C86677
:1033E000FFE79DF8070001308DF80700D5E70020C2
:1033F0008DF80700FFE79DF80700012825D8FFE7B3
:1034000005989DF8072000EB8200406E029901EBC1
:103410008201C86305989DF8072000EB8200C06C0C
:10342000029901EB8201486405989DF8072000EBA2
:103430008200406B029901EB8201C867FFE79DF8AB
:10344000070001308DF80700D5E706B080BD000009
:10345000FFE7FEE70000000080B5B6B02AA9099199
:10346000359041F2883020F01BFD4FF2BB50C3F67F
:10347000EF10349045F69940C3F68110339046F62C
:103480002260C3F6D6103290FFE7002008903190FA
:1034900030902F902E902D902C902B902A908DF87C
:1034A0002B008DF82A0002208DF8290021F0ECFC79
:1034B00040F20800C2F20040007801282BD1FFE75B
:1034C00045F2EC23C2F20043D3F8F400D3F8F8102D
:1034D000D3F8FC20D3F80031319330922F912E9005
:1034E00045F28021C2F200410FA86C22FDF755F889
:1034F00044F6F050C2F2004001682B9141682C91D3
:1035000080682D9001208DF82B008DF82A00002076
:103510008DF8290032E044F21050C2F20000007829
:1035200001282AD1FFE744F68073C2F20003D3F8E2
:10353000F400D3F8F810D3F8FC20D3F8003131931D
:1035400030922F912E9044F61471C2F200010FA810
:103550006C22FDF722F844F66050C2F200000168C8
:103560002B9141682C9180682D9001208DF82B00C3
:103570008DF82A008DF82900FFE7FFE717F004FF18
:10358000099880ED000A21F0ABFC9DF82B00002883
:1035900045D0FFE7099890ED050AB1EE400A90ED9D
:1035A000081A80EE010A012011F026FE0998BDEEEE
:1035B000C00A10EE101A059190ED070AB1EE400A0C
:1035C00090ED081A80EE010A022011F015FE09980C
:1035D000BDEEC00A10EE101A069190ED060A90EDAD
:1035E000081A80EE010A032011F006FE0998BDEECC
:1035F000C00A10EE101A079190ED040A90ED081A17
:1036000080EE010A042011F0F7FD05980699079A4B
:10361000BDEEC00A10EE103A02F01AFC06E00023DC
:10362000184619461A4602F013FCFFE79DF82A00D7
:1036300028B1FFE70FA80BA911F056FF53E09FED4B
:10364000580A8DED040A012011F002FEB0EE401A76
:103650009DED040ABDEEC11A11EE100AADF82C0062
:10366000022011F0F5FDB0EE401A9DED040ABDEE0A
:10367000C11A11EE100AADF82E00032011F0E8FD7A
:10368000B0EE401A9DED040ABDEEC11A11EE100A0B
:10369000ADF83000042011F0DBFDB0EE401A9DEDD6
:1036A000040ABDEEC11A11EE100AADF83200052071
:1036B00011F0CEFDB0EE401A9DED040ABDEEC11A28
:1036C00011EE100AADF83400062011F0C1FDBDEE78
:1036D000C00A10EE100AADF836000020ADF8380030
:1036E000ADF83A00FFE79DF829000BA912F07CF82D
:1036F000BDF92C00BDF92E10BDF93020BDF93230D6
:1037000002F0E2FBBDF93400BDF9361000231A4681
:1037100002F0FAFB099890ED010AFDF779F8099893
:10372000B1EE400A90ED091A80EE010A01200390E3
:1037300020F04EFC0998BDEEC00A10EE101A009160
:1037400090ED020A90ED0A1A80EE010A022020F0A4
:103750003FFC0998BDEEC00A10EE101A019190EDE1
:10376000030A90ED0A1A80EE010A032020F030FCD3
:103770000998BDEEC00A10EE101A029190ED000AF1
:10378000042020F025FC00980199029ABDEEC00AA1
:1037900010EE103A02F0F4FB039820F081FB74E67F
:1037A000000000000000000080B586B00490039186
:1037B00000200290049818B1FFE7039818B9FFE7BA
:1037C0000020059027E0FFE70298039988421FD266
:1037D000FFE769460DF10700086046F6D010C2F217
:1037E000000046F26C01C2F2004146F27002C2F2E1
:1037F00000424FF4805314F027F808B9FFE707E0C0
:103800009DF807000499029A531C02938854DBE741
:1038100002980590FFE7059806B080BD0000000003
:1038200080B546F6D810C2F20000006847F20411D5
:10383000C2F2004109684FF4805213F0F5FF80BDD9
:1038400080B584B045F23C30C2F20000D0F8BC0232
:1038500008B9FFE77AE045F23C30C2F20000D0F848
:10386000BC02039047F20010C2F20040006808B1A9
:10387000FFE76BE00398D0F8140208B1FFE765E0BA
:1038800046F6D810C2F20000006847F20411C2F2F6
:10389000004109684FF4805214F046F802900298F3
:1038A00008B9FFE752E046F6D810C2F200000068FF
:1038B00047F20411C2F20041096888420DD9FFE7BE
:1038C00046F6D810C2F20000006847F20411C2F2B6
:1038D00000410968401A019008E047F20410C2F262
:1038E00000400068C0F580500190FFE70198029900
:1038F000884203D9FFE702980190FFE70198B0F5ED
:10390000007F04D9FFE74FF400700190FFE747F212
:103910000410C2F20040016847F20810C2F20040F1
:103920000144BDF8042045F23C30C2F20000009092
:103930001BF0A6FB00981BF0AFFC38B9FFE701981D
:1039400047F20011C2F200410860FFE704B080BDF9
:1039500080B586B004900391049818B1FFE70398EE
:1039600020B9FFE701208DF817003FE046F6D81098
:10397000C2F20000006847F20411C2F20041096877
:103980004FF4805213F050FF019003980199884240
:1039900004D9FFE700208DF8170027E000200290EF
:1039A000FFE70298039988421AD2FFE70498029928
:1039B000405C6946086046F6D810C2F2000047F243
:1039C0000411C2F2004147F20812C2F200424FF461
:1039D000805313F079FFFFE7029801300290E0E78F
:1039E000FFF72EFF01208DF81700FFE79DF8170065
:1039F00006B080BD0000000084B08DF80F00029179
:103A0000ADF80620FFE7012008B9FFE7FBE79DF8C6
:103A10000F000146009123282FD80099DFE801F01C
:103A200012131415162D2D2D2D2D2D2D2D2D2D2D43
:103A30002D2D2D2D2D2D2D2D2D2D2D2D2D2D2D2DB6
:103A400017182B2C1AE019E018E017E016E015E023
:103A5000029900200870029AC2215170029A012135
:103A600091700299C870029908710299487102997F
:103A70000820887102E001E000E0FFE7002004B0C8
:103A800070470000000000000020704700000000A8
:103A900080B582B045F23C30C2F20000009044F2A2
:103AA0006C51C2F20041002201921BF0E9FA009829
:103AB00044F21251C2F200011BF0C2FA01990098BF
:103AC00046F6D012C2F20002116046F26C02C2F257
:103AD0000042116046F6D812C2F20002116047F2AD
:103AE0000412C2F20042116047F20012C2F2004218
:103AF000116046F6CC12C2F2000211601BF044FACB
:103B0000019802B080BD000080B586B00590049198
:103B100000200390FFE7039804990968884224D2A3
:103B2000FFE705980399405C6946086046F6D010A7
:103B3000C2F2000046F26C01C2F2004146F270028D
:103B4000C2F200424FF4805313F0BEFE40B9FFE7CB
:103B500046F6CC11C2F20001086801300860FFE7A8
:103B6000FFE7039801300390D5E7059945F23C3013
:103B7000C2F2000002901BF063FA02981BF004FAF4
:103B8000002006B080BD000080B584B00390029193
:103B90008DF8072000208DF8060047F20413C2F2CA
:103BA00000431A6847F20011C2F20041D1F800C088
:103BB00062446FF31F321A600860FFF741FE9DF9FF
:103BC000060004B080BD000084B00290ADF806107D
:103BD0004FF6FF70ADF80400029820B1FFE7BDF882
:103BE000060028B9FFE7BDF80400ADF80E0047E075
:103BF0000020ADF80200FFE7BDF80200BDF8061096
:103C0000884238DAFFE70298BDF80210415CBDF83F
:103C100004004840ADF8040000208DF80100FFE7E3
:103C20009DF8010007281FD8FFE7BDF80400C00772
:103C300068B1FFE7BDF804004008ADF80400BDF826
:103C400004004AF201014840ADF8040005E0BDF867
:103C500004004008ADF80400FFE7FFE79DF801000D
:103C600001308DF80100DBE7FFE7BDF8020001300D
:103C7000ADF80200C0E7BDF80400ADF80E00FFE7A4
:103C8000BDF80E0004B0704781B0009045F6AC60FE
:103C9000C2F20000C16F009A5163D0F898000099F9
:103CA000886301B07047000082B0019000208DF859
:103CB0000300FFE79DF80300032816D8FFE79DF8EF
:103CC0000320C2EBC20145F6AC60C2F2000000EB7B
:103CD0008100C068019901EB82014862FFE79DF80D
:103CE000030001308DF80300E4E702B070470000E4
:103CF00081B00090009808B9FFE720E046F2187004
:103D0000C2F200004168009A11608168009A516017
:103D1000C168009A916000690099C86046F20C0081
:103D2000C2F200404168009A11618168009A5161B5
:103D3000C168009A916100690099C861FFE701B00C
:103D4000704700000000000080B546F21870C2F213
:103D5000000010F0E1FF46F20C00C2F2004010F04B
:103D6000DBFF80BD0000000080B596B08DED150A28
:103D700068460EF0E5FA9DED0D0ADDED150A46F2F6
:103D80000C00C2F2004010F093FE16B080BD00009F
:103D900080B582B00190019808B9FFE722E0019850
:103DA000006846F21871C2F200014860019840684C
:103DB000886001988068C8600198C06808610198AF
:103DC000006946F20C01C2F2004148600198406966
:103DD000886001988069C8600198C0690861FFF730
:103DE000B3FFFFE702B080BD80B598B08DED170A34
:103DF00002A80EF0A5FA9DED170A9DED0C1A30EE03
:103E0000410A8DED010A9DED010A02F059FC8DED8C
:103E1000010ADDED010A46F21870C2F200009FEDC2
:103E2000090A10F045FE8DED000A9DED0F0ADDED4B
:103E3000000A46F20C00C2F2004010F039FE18B041
:103E400080BD00BF0000000082B0ADF80400ADF8F6
:103E50000210ADF80020BDF90400BDF9021088423F
:103E60000BDBFFE7BDF90400BDF90010884204DC5C
:103E7000FFE701208DF8070003E000208DF8070020
:103E8000FFE79DF8070002B0704700000000000047
:103E900084B08DED020ACDED010A8DED001A9DED85
:103EA000020A9DED011AB4EE410AF1EE10FA03DAAE
:103EB000FFE7019803900FE09DED020A9DED001AC7
:103EC000B4EE410AF1EE10FA03DDFFE7009803902B
:103ED00002E002980390FFE79DED030A04B07047EB
:103EE00082B08DED000A9DED000ABAEE041AB4EE20
:103EF000410AF1EE10FA05DAFFE70020CCF22010BB
:103F0000019011E09DED000A9FED091AB4EE410AFF
:103F1000F1EE10FA05DDFFE70020C4F270300190E9
:103F200002E000980190FFE79DED010A02B07047A2
:103F3000000070430000000080B5052010F08CFDEB
:103F4000062010F089FD80BD80B582B08DF8070095
:103F500000208DF80600FFE79DF80600032816D81C
:103F6000FFE79DF807009DF80610C840C00738B16C
:103F7000FFE79DF806000130C0B210F06DFDFFE7CD
:103F8000FFE79DF8060001308DF80600E4E702B077
:103F900080BD00000000000080B584B002900020C9
:103FA0008DF80600029820B9FFE700208DF80F0079
:103FB0002EE000208DF80700FFE79DF8070001289C
:103FC00021D8FFE702989DF8071000EB8100D0EDA3
:103FD000130A90ED190AB1EE041A00F05DF858B119
:103FE000FFE79DF80710012000FA01F19DF8060097
:103FF00008438DF80600FFE7FFE79DF80700013052
:104000008DF80700D9E79DF806008DF80F00FFE74F
:104010009DF80F0004B080BD80B584B002900020F0
:104020008DF80600029820B9FFE700208DF80F00F8
:104030002EE000208DF80700FFE79DF80700032819
:1040400021D8FFE702989DF8071000EB8100D0ED22
:104050000F0A90ED150AB0EE081A00F01DF858B1DD
:10406000FFE79DF80710012000FA01F19DF8060016
:1040700008438DF80600FFE7FFE79DF807000130D1
:104080008DF80700D9E79DF806008DF80F00FFE7CF
:104090009DF80F0004B080BD84B08DED030ACDED16
:1040A000020A8DED011A9DED030A9DED021A30EE14
:1040B000410A8DED000A9DED000AB5EE400AF1EED1
:1040C00010FA07DAFFE79DED000AB1EE400A8DED28
:1040D000000AFFE79DED000A9DED011A0020B4EEF5
:1040E000410AF1EE10FAD8BF012004B07047000079
:1040F00080B582B08DF807009DF8070001280FD128
:10410000FFE744F21051C2F200010120087040F2B2
:104110000802C2F200420021117017F041FA0EE0CD
:1041200040F20801C2F200410120087044F210512F
:10413000C2F200010020087017F032FAFFE702B067
:1041400080BD00000000000080B584B0039041F203
:1041500088301FF0A5FE0FF0AFFF45F6AC40C2F26D
:10416000000044F67151C2F2004101220DF0C8F87E
:104170000FF016FB45F2EC20C2F2004040F28C0139
:10418000C2F2004100919FED2E0A8DED010A12F05E
:10419000B3FA00999DED010A44F68070C2F2000066
:1041A00012F0AAFA45F28020C2F2004011F07CFA27
:1041B00044F61470C2F2000011F076FA13F0B8F968
:1041C000FDF76AFC17F098F921F0F6FA46F6681147
:1041D000C2F20001086045F23C50C2F200400BF010
:1041E0000FFAFFE70121084620F006FD0290029831
:1041F00018B9FFE701200290FFE7FFE7029830B10E
:10420000FFE711F065FE029801380290F6E74AF2E6
:10421000B810C2F20040011D00F108020023FEF7B1
:104220003FFA17F0A9F940F20800C2F20040007806
:10423000012803D1FFE7FEF743F8FFE7D2E700BF0D
:104240006F12833A0000000080B58AB08DF8270015
:10425000089107920020069005900490039008981A
:104260000290089806300190042004909DF82700E1
:104270005038014600910F2842D80099DFE801F03C
:104280001A081D1122272A2D30333640404040396C
:1042900034200690032004904020059001200390D4
:1042A0002FE03D200690032004902E200590012051
:1042B000039026E03020069023E03720069003206C
:1042C00007901EE03A2006900320079019E0412055
:1042D000069016E04520069013E04920069010E075
:1042E0004D2006900DE0512006900AE055200690E2
:1042F00007E048F20810C2F200400068069000E0B3
:1043000038E00798032805D1FFE703200490002038
:104310000390FFE70498A8B1FFE7069946F2FC7006
:10432000C2F2000000EB41000299049A5200FCF72F
:10433000EFF845F69470C2F20000026806980499FE
:104340009047FFE70398A8B1FFE7059946F2FC7094
:10435000C2F2000000EB41000199039A5200FCF701
:10436000D7F845F69470C2F20000026805980399E8
:104370009047FFE70AB080BD80B582B001900198F8
:1043800020B1FFE701984079009002E00020009002
:10439000FFE70098C0B202F063F902B080BD0000F0
:1043A00080B582B00190019820B1FFE70198407973
:1043B000009002E000200090FFE70098C0B202F0F9
:1043C00063F902B080BD000080B588B00690059109
:1043D0000698007804900698FFF7E2FF029006988E
:1043E000FFF7CAFF019006980078182807D1FFE769
:1043F00006980F210FF094F98DF81F0082E00698BF
:1044000000781A2805D1FFE71EF03EFD8DF81F0049
:1044100078E0069800781B2805D1FFE701F044FCFE
:104420008DF81F006EE0069800781C2811D1FFE778
:10443000059850B1FFE7059812F04AF9022804D117
:10444000FFE701208DF81F005CE000208DF81F00C1
:1044500058E006980078192811D1FFE7059850B167
:10446000FFE7059812F034F9022804D1FFE7012094
:104470008DF81F0046E000208DF81F0042E00498F0
:1044800028B1FFE704980199884204D9FFE700208A
:104490008DF81F0036E00298049900EB4110203897
:1044A00003900398007940B9FFE70698039949798A
:1044B0000FF036F98DF81F0024E0039800790128E9
:1044C00006D1FFE7069801F05FFC8DF81F0019E0A8
:1044D00003980079022811D1FFE7059850B1FFE752
:1044E000059812F0F5F8022804D1FFE701208DF8B5
:1044F0001F0007E000208DF81F0003E000208DF86A
:104500001F00FFE79DF81F0008B080BD00000000FD
:1045100080B501F0BDFC01F017FD01F051FD01F087
:1045200053FF80BD0000000080B545F21860C2F264
:10453000000003F055F980BD83B002900298016835
:1045400001201022C4F202029142009000F0A380E8
:10455000FFE70298016801202822C4F2020291427A
:10456000009000F09880FFE7029801680120402247
:10457000C4F202029142009000F08D80FFE70298A1
:10458000016801205822C4F202029142009000F01A
:104590008280FFE70298016801207022C4F20202C3
:1045A0009142009077D0FFE70298016801208822AD
:1045B000C4F20202914200906DD0FFE702980168B8
:1045C0000120A022C4F202029142009063D0FFE7D2
:1045D000029801680120B822C4F2020291420090C0
:1045E00059D0FFE702980168012040F21042C4F25E
:1045F0000202914200904ED0FFE70298016801202C
:1046000040F22842C4F202029142009043D0FFE7F8
:1046100002980168012040F24042C4F20202914235
:10462000009038D0FFE702980168012040F258421C
:10463000C4F20202914200902DD0FFE70298016877
:10464000012040F27042C4F202029142009022D056
:10465000FFE702980168012040F28842C4F202029A
:104660009142009017D0FFE702980168012040F2C4
:10467000A042C4F20202914200900CD0FFE70298DF
:1046800000684FF64831CBF6FD710844B0FA80F06F
:1046900040090090FFE70098C00740B3FFE7029889
:1046A000007810384AF6AB21CAF6AA21A0FB011007
:1046B00000090190019800F0070146F6A430C0F609
:1046C0000200405C0299C8650198042807D3FFE7FF
:1046D00002990868042262F30900886506E00299DD
:1046E000086840F2FF3290438865FFE705E00299D1
:1046F000086820F0FF008865FFE70298806D03B02E
:10470000704700000000000084B003900398006828
:10471000019003980168012045F20842C5F60202A3
:10472000914200904ED0FFE703980168012045F2C6
:104730001C42C5F602029142009043D0FFE7039865
:104740000168012045F23042C5F602029142009014
:1047500038D0FFE703980168012045F24442C5F6CE
:104760000202914200902DD0FFE7039801680120DA
:1047700045F25842C5F602029142009022D0FFE76E
:1047800003980168012045F26C42C5F6020291428D
:10479000009017D0FFE703980168012045F280429E
:1047A000C5F60202914200900CD0FFE70398006822
:1047B0004AF66C31CAF2FD710844B0FA80F0400943
:1047C0000090FFE70098C00710B3FFE70398007858
:1047D00008384CF6CD41CCF6CC41A0FB01100009C5
:1047E0000290029945F60000C5F6020000EB810038
:1047F00003990866039945F68000C5F602004866ED
:10480000029800F01F01012088400399886635E076
:104810000398007810384AF6AB21CAF6AA21A0FB0B
:10482000011000090290019840F2B841C4F202015F
:1048300088420CD8FFE7019840F21041C4F202010F
:10484000884204D3FFE7029808300290FFE70299FC
:1048500040F60000C4F2020000EB810003990866F4
:10486000039940F68000C4F202004866029800F006
:104870001F010120884003998866FFE704B0704754
:1048800083B002900298007901900198002800F00E
:104890008A80FFE70198082800F28580FFE70298E8
:1048A0000168012045F20842C5F6020291420090DB
:1048B0004ED0FFE702980168012045F21C42C5F680
:1048C00002029142009043D0FFE702980168012064
:1048D00045F23042C5F602029142009038D0FFE71F
:1048E00002980168012045F24442C5F60202914255
:1048F00000902DD0FFE702980168012045F2584250
:10490000C5F602029142009022D0FFE702980168AA
:10491000012045F26C42C5F602029142009017D088
:10492000FFE702980168012045F28042C5F60202C5
:10493000914200900CD0FFE7029800684AF66C3173
:10494000CAF2FD710844B0FA80F040090090FFE718
:104950000098C00780B1FFE7019945F6FC00C5F655
:10496000020000EB81000299C866029945F64010EA
:10497000C5F6020008670FE0019940F6FC00C4F29A
:10498000020000EB81000299C866029940F64010CF
:10499000C4F202000867FFE70198411E0120884029
:1049A00002994867FFE703B070470000000000006D
:1049B00085B0049000208DF80F000498806918BB22
:1049C000FFE70498806A029003281BD80299DFE869
:1049D00001F0020D0218049890F82F00C00720B1D2
:1049E000FFE701208DF80F00FFE70CE00498C06A94
:1049F000B0F1C07F04D1FFE701208DF80F00FFE781
:104A000001E000E0FFE747E004988069B0F5005F4F
:104A100026D1FFE70498806A019003281ED80199E7
:104A2000DFE801F00206021101208DF80F0016E008
:104A3000049890F82F00C00720B1FFE701208DF8FF
:104A40000F00FFE70BE00498C06AB0F1C07F04D10B
:104A5000FFE701208DF80F00FFE700E0FFE71AE015
:104A60000498806A0090032804D3FFE70098032885
:104A700004D00EE001208DF80F000BE0049890F8B0
:104A80002F00C00720B1FFE701208DF80F00FFE7DE
:104A900000E0FFE7FFE7FFE79DF80F0005B0704774
:104AA00089B008900791069205930898806D04904C
:104AB0000898806D03900898016801201022C4F2C4
:104AC00002029142029000F00381FFE7089801681A
:104AD00001202822C4F202029142029000F0F880E4
:104AE000FFE70898016801204022C4F202029142C7
:104AF000029000F0ED80FFE708980168012058223D
:104B0000C4F202029142029000F0E280FFE70898AE
:104B1000016801207022C4F202029142029000F06A
:104B2000D780FFE70898016801208822C4F20202BA
:104B30009142029000F0CC80FFE7089801680120C4
:104B4000A022C4F202029142029000F0C180FFE76D
:104B5000089801680120B822C4F202029142029032
:104B600000F0B680FFE708980168012040F210428B
:104B7000C4F202029142029000F0AA80FFE7089876
:104B80000168012040F22842C4F2020291420290E0
:104B900000F09E80FFE708980168012040F2404243
:104BA000C4F202029142029000F09280FFE708985E
:104BB0000168012040F25842C4F202029142029080
:104BC00000F08680FFE708980168012040F27042FB
:104BD000C4F20202914202907AD0FFE7089801687D
:104BE000012040F28842C4F20202914202906FD04A
:104BF000FFE708980168012040F2A042C4F20202D7
:104C00009142029064D0FFE708980168012040F2C9
:104C1000B842C4F202029142029059D0FFE70898CC
:104C20000168012045F20842C5F602029142029055
:104C30004ED0FFE708980168012045F21C42C5F6F6
:104C400002029142029043D0FFE7089801680120D8
:104C500045F23042C5F602029142029038D0FFE799
:104C600008980168012045F24442C5F602029142CB
:104C700002902DD0FFE708980168012045F25842C4
:104C8000C5F602029142029022D0FFE7089801681F
:104C9000012045F26C42C5F602029142029017D003
:104CA000FFE708980168012045F28042C5F602023C
:104CB000914202900CD0FFE7089800684AF66C31E8
:104CC000CAF2FD710844B0FA80F040090290FFE793
:104CD0000298C00770B1FFE70898416E806E486087
:104CE0000898C06E28B1FFE70898016F406F4860D0
:104CF000FFE7FFE70898016801201022C4F20202D2
:104D00009142019000F0A380FFE70898016801201C
:104D10002822C4F202029142019000F09880FFE73D
:104D20000898016801204022C4F2020291420190D9
:104D300000F08D80FFE70898016801205822C4F236
:104D400002029142019000F08280FFE7089801681A
:104D500001207022C4F202029142019077D0FFE755
:104D60000898016801208822C4F202029142019051
:104D70006DD0FFE7089801680120A022C4F202026A
:104D80009142019063D0FFE7089801680120B822A2
:104D9000C4F202029142019059D0FFE708980168DD
:104DA000012040F21042C4F20202914201904ED022
:104DB000FFE708980168012040F22842C4F202028D
:104DC0009142019043D0FFE708980168012040F22A
:104DD0004042C4F202029142019038D0FFE70898A5
:104DE0000168012040F25842C4F20202914201904F
:104DF0002DD0FFE708980168012040F27042C4F20C
:104E000002029142019022D0FFE708980168012038
:104E100040F28842C4F202029142019017D0FFE7AB
:104E200008980168012040F2A042C4F202029142B7
:104E300001900CD0FFE7089800684FF64831CBF698
:104E4000FD710844B0FA80F040090190FFE7019835
:104E5000C00750B3FFE70898C06D00F01F013F2066
:104E600088400499886008980168086820F48020C8
:104E70000860059808990968486008988068402883
:104E800009D1FFE70698089909688860079808998A
:104E90000968C86008E0079808990968886006985A
:104EA00008990968C860FFE782E008980168012056
:104EB00045F20842C5F60202914200904ED0FFE74B
:104EC00008980168012045F21C42C5F60202914291
:104ED000009043D0FFE708980168012045F2304276
:104EE000C5F602029142009038D0FFE708980168A9
:104EF000012045F24442C5F60202914200902DD0B5
:104F0000FFE708980168012045F25842C5F6020201
:104F10009142009022D0FFE708980168012045F2F5
:104F20006C42C5F602029142009017D0FFE7089844
:104F30000168012045F28042C5F6020291420090CC
:104F40000CD0FFE7089800684AF66C31CAF2FD7190
:104F50000844B0FA80F040090090FFE70098C007CD
:104F600020B3FFE70898C06D00F01F0101208840C2
:104F7000039948600598089909684860089880680E
:104F8000402809D1FFE706980899096888600798C2
:104F900008990968C86008E0079808990968886056
:104FA000069808990968C860FFE700E0FFE7FFE797
:104FB00009B070470000000080B594B00DAB0893B5
:104FC0008DF84F0012918DF84720002010900F901F
:104FD0000E900D908DF8330001208DF832009DF871
:104FE0004F0012999DF847201CF02AFA9DF84F00B7
:104FF00001460991592800F2D8850999DFE811F096
:105000005A009700B100D505D505FA00EE00D50588
:10501000D505D505D505D505D505D505D505D505C0
:105020002301410151018801050244025A02D505BC
:10503000D505D505D505D505D505D505D505D505A0
:1050400064027702D5058502D505CC02D902D505C3
:10505000D505D505D505D505D505D505D505D50580
:10506000E302FA0208033A037003A603B703D50567
:10507000D505D505D505D505D505D505D505D50560
:10508000D505D505D505D505D505D505C103CB0372
:105090000F042504D505D505D505D505D505D505B8
:1050A0002F044F046C040A0525057A05CB059A05E3
:1050B00042055D059DF847001BF0CEFF10B9FFE7E4
:1050C00000F074BD1CF088F91CF0EEF81DF064FED1
:1050D0001FF0DAFE12F088FB44F68070C2F2000086
:1050E00011F006FE44F61470C2F2000010F048FC05
:1050F0001FF0F6FE01200790FDF77AF81FF0C4FEBE
:10510000079816F0CDF91FF0EBFE40F20421C2F231
:1051100000010020087040F2A021C2F20041087096
:1051200044F20C31C2F20001087000F03FBD9DF85E
:1051300047001BF091FF10B9FFE700F037BD40F2C8
:105140000421C2F200010120087040F2A021C2F245
:105150000041087044F20C31C2F20001087000F006
:1051600025BD12989DF847100DAA1DF0CDFA10B973
:10517000FFE700F01BBD089890ED000ABCEEC00AE6
:1051800010EE100A002818BF0120FEF7B1FF0898A2
:1051900090ED000ABCEEC00A10EE100AE0B9FFE77D
:1051A0001CF01AF91CF080F81DF0F6FD1FF06CFEE3
:1051B00012F01AFB44F68070C2F2000011F098FD64
:1051C00044F61470C2F2000010F0DAFB1FF088FE03
:1051D0000120FDF70DF8FFE700F0E8BC9DF847005F
:1051E0001BF03AFF10B9FFE700F0E0BC0FF0C0FB86
:1051F00000F0DCBC9DF847001BF02EFF10B9FFE764
:1052000000F0D4BC1CF0E8F81CF04EF81DF0C4FD12
:105210001FF03AFE12F0E8FA44F68070C2F2000085
:1052200011F066FD44F61470C2F2000010F0A8FB05
:105230000120069016F054FB1FF052FE0698FCF772
:10524000D7FF00F0B3BC9DF847001BF005FF10B975
:10525000FFE700F0ABBC1CF0BFF81FF015FE12F02A
:10526000C3FA44F68070C2F2000011F041FD1FF055
:1052700037FE40F20421C2F200010020087000F065
:1052800095BC9DF847001BF0E7FE10B9FFE700F062
:105290008DBC40F20421C2F200010120087000F030
:1052A00085BC12989DF847100DAA1DF02DFA10B973
:1052B000FFE700F07BBC089890ED000ABCEEC00A46
:1052C00010EE100A8DF831009DF8310007281DD826
:1052D000FFE744F21050C2F200000078B0B1FFE7DF
:1052E00040F20420C2F20000007878B1FFE71FF01E
:1052F000CBFD12F079FA9DF8311044F68070C2F2BD
:10530000000011F03DFC1FF0EBFDFFE700F04EBC8C
:1053100012989DF847100DAA1DF0F6F910B9FFE795
:1053200000F044BC089890ED000AF8EE000ACDEDBC
:10533000040AB0EE001A8DED051AFEF7A9FDDDEDA9
:10534000040A9DED051A089880ED000A90ED010A07
:10535000FEF79EFD089880ED010A90ED020ADFED50
:10536000CA0A9FEDCA1AFEF793FD089880ED020A5B
:105370000D9846F63031C2F2000108600E98486080
:105380000F98886044F21050C2F200000078D8B341
:10539000FFE740F20420C2F200000078A0B3FFE76C
:1053A0001FF072FD12F020FA44F68070C2F2000085
:1053B0000078022808D0FFE744F68070C2F20000AF
:1053C000007806280ED1FFE7089890ED030A9FEDBC
:1053D000B01A20EE010A44F68070C2F2000011F00B
:1053E0006FFCFFE7089890ED000AD0ED010A90ED00
:1053F000021A44F68070C2F2000011F0FDFB1FF0AB
:105400006FFD1CF001F8FFE7D0E312989DF84710FC
:105410000DAA1DF079F908B9FFE7C7E30D9846F624
:105420003031C2F2000108600E9848600F98886021
:1054300044F21050C2F20000007820B3FFE740F2BF
:105440000420C2F200000078E8B1FFE71FF01CFD65
:1054500012F0CAF9089890ED000AD0ED010A90ED1B
:10546000021A44F68070C2F2000011F085FA8DF83D
:1054700030001FF035FD9DF9300018B9FFE71BF033
:10548000ABFFFFE7FFE791E39DF847001BF0E4FD6A
:1054900008B9FFE78AE31BF09FFF1FF0F5FC12F04D
:1054A000A3F944F68070C2F2000011F021FC1FF055
:1054B00017FD7BE39DF847001BF0CEFD08B9FFE721
:1054C00074E30FF03DFA71E39DF847001BF0C4FD53
:1054D00008B9FFE76AE31BF0E7FE0120FCF788FE4E
:1054E00040F2A021C2F20041002008705EE39DF866
:1054F00047001BF0B1FD08B9FFE757E340F2A021D8
:10550000C2F200410120087050E312989DF8471044
:105510000DAA1DF0F9F808B9FFE747E344F210506F
:10552000C2F20000007880B3FFE740F2A020C2F290
:105530000040007848B3FFE7089890ED000AD0EDEE
:10554000010A90ED021A00210846FCF7A9FD60B19E
:10555000FFE7089890ED000AD0ED010A90ED021ADD
:10556000FCF76AFF1BF0B8FE0EE0089890ED000A09
:10557000D0ED010A90ED021AFCF7C2FA0120FCF707
:1055800037FE1BF091FEFFE705E01BF08DFE0120CA
:10559000FCF72EFEFFE709E39DF847001BF05CFDDA
:1055A00008B9FFE702E31BF07FFE0120FCF720FEB5
:1055B000FCE29DF847001BF04FFD08B9FFE7F5E25C
:1055C0000FF0B6F9F2E29DF847001BF045FD08B96F
:1055D000FFE7EBE21DF0E0FB1FF056FC012015F0A9
:1055E0005FFF1FF07DFC44F20C31C2F2000100208D
:1055F0000870DBE29DF847001BF02EFD08B9FFE7BD
:10560000D4E244F20C31C2F2000101200870CDE274
:1056100012989DF847100DAA1DF076F808B9FFE71B
:10562000C4E244F21050C2F20000007838B1FFE743
:1056300044F20C30C2F20000007808B9FFE7B5E28E
:105640001FF022FC089890ED000ABCEEC00A10EE94
:10565000101A0120039016F093F8039815F0D4FE69
:105660004AF2A411C2F2004108701FF039FC1DF08B
:1056700093FB9BE212989DF847100DAA1DF044F889
:1056800040B9FFE792E200BF7BD920BF7BD9203F22
:1056900039FA8E3C089890ED000ABCEEC00A10EE74
:1056A000100A8DF82F0044F21050C2F2000000786A
:1056B00038B1FFE744F20C30C2F20000007808B9BC
:1056C000FFE773E21FF0E0FB012015F09DFE9DF85F
:1056D0002F101DF091FA1FF003FC1DF075FB65E221
:1056E00012989DF847100DAA1DF00EF808B9FFE7B3
:1056F0005CE2089890ED000ABCEEC00A10EE101AA9
:105700008DF82E1090ED010ABCEEC00A10EE100AC2
:105710008DF82D0044F21050C2F20000007838B12C
:10572000FFE744F20C30C2F20000007808B9FFE74E
:105730003CE21FF0A9FB9DF82E009DF82D101DF0F6
:105740005BFA1FF0CDFB1DF03FFB2FE29DF84700F9
:105750001BF082FC08B9FFE728E21DF01DFB1FF0DB
:1057600093FB012016F0BCF81FF0BAFB1EE29DF877
:1057700047001BF071FC08B9FFE717E20FF000F9D2
:1057800014E29DF847001BF067FC08B9FFE70DE243
:105790000FF0E6F80AE29DF847001BF05DFC08B93F
:1057A000FFE703E29DF8470010280AD1FFE71298AF
:1057B0009DF847100DAA1CF0A7FF08B9FFE7F5E117
:1057C000FFE744F21050C2F20000007830B3FFE768
:1057D00040F20420C2F200000078F8B1FFE7089818
:1057E00090ED000ABCEEC00A10EE100A8DF82C00F5
:1057F0001FF04AFB9DF82C1044F68070C2F20000A6
:1058000011F0AAFE8DF82B001FF06AFB9DF82B000B
:1058100018B1FFE71BF0E0FDFFE7FFE7C6E19DF8E9
:1058200047001BF019FC08B9FFE7BFE11BF0D4FDEE
:105830001FF02AFB11F0D8FF44F68070C2F200007E
:1058400011F056FA1FF04CFBB0E19DF847001BF039
:1058500003FC08B9FFE7A9E10FF09AF8A6E19DF86B
:1058600047001BF0F9FB08B9FFE79FE11FF00CFBB5
:1058700044F61470C2F20000407B38B1FFE744F6F2
:105880008070C2F2000011F033FAFFE744F61470A2
:10589000C2F2000010F074F81FF022FB86E19DF8C0
:1058A00047001BF0D9FB08B9FFE77FE144F2105035
:1058B000C2F20000007870B1FFE71FF0E5FA44F68D
:1058C0001470C2F20000012100231A460FF0ECFF11
:1058D0001FF006FBFFE769E112989DF847100DAA3B
:1058E0001CF012FF08B9FFE760E144F21050C2F269
:1058F00000000078002800F08C80FFE7089890ED09
:10590000020ABCEEC00A10EE100A002818BF0120DF
:105910008DF8330001208DF832001FF0B5FA089899
:1059200090ED000ABCEEC00A10EE100A70B9FFE755
:1059300044F61470C2F20000407B38B1FFE744F631
:105940008070C2F2000011F0D3F9FFE7089890EDE3
:10595000000ABCEEC00A10EE100A38B3FFE79DF84B
:10596000330018B3FFE744F61470C2F20000C07BA6
:10597000E0B9FFE79DF83200C0B9FFE7089890ED65
:10598000010ABCEEC00A10EE102A002A18BF01223C
:1059900044F61470C2F2000001900121029100232C
:1059A0000FF082FF01990298C8732FE0089890EDDC
:1059B000001A90ED010ABCEEC11A11EE101A00296E
:1059C00018BF0121BCEEC00A10EE102A002A18BF31
:1059D00001229DF8333044F61470C2F200000FF03B
:1059E00063FF089890ED000ABCEEC00A10EE100AA2
:1059F00058B1FFE79DF8330038B1FFE79DF832005A
:105A000018B1FFE71BF0E8FCFFE7FFE71FF068FABB
:105A1000FFE7CBE09DF847001BF01EFB08B9FFE74E
:105A2000C4E044F21050C2F20000007860B1FFE719
:105A30001FF02AFA44F61470C2F2000000210FF0A1
:105A40009FFE1FF04DFAFFE7B0E09DF847001BF006
:105A500003FB08B9FFE7A9E044F21050C2F20000CE
:105A6000007870B1FFE71FF00FFA1BF0B5FC44F6A9
:105A70001470C2F2000000210FF072FE1FF030FA25
:105A8000FFE793E09DF847001BF0E6FA08B9FFE74F
:105A90008CE044F21050C2F20000007860B1FFE7E1
:105AA0001FF0F2F944F61470C2F2000001210FF069
:105AB00067FE1FF015FAFFE778E09DF847001BF03E
:105AC000CBFA08B9FFE771E044F21050C2F20000CF
:105AD000007870B1FFE71FF0D7F91BF07DFC44F6AA
