:020000040800F2
:10000000188E0024F5030008C1BB0008D9B1000810
:10001000B9BB0008911E0008413C01080000000027
:10002000000000000000000000000000D1CD00082A
:100030009927000800000000F1C40008D1CF000893
:100040001304000813040008130400081304000834
:100050001304000813040008130400081304000824
:100060001304000813040008130400081304000814
:100070001304000813040008130400081304000804
:100080001304000813040008130400088128000862
:1000900021290008912800083129000813040008CC
:1000A00013040008130400081304000813040008D4
:1000B00049D2000859D200081304000813040008AC
:1000C00013040008130400081304000813040008B4
:1000D00013040008130400081304000813040008A4
:1000E00013040008130400080000000013040008B3
:1000F0001304000813040008130400081304000884
:100100001304000813040008130400081304000873
:100110001304000813040008130400081304000863
:100120001304000813040008130400081304000853
:100130001304000813040008130400081304000843
:1001400000000000000000000000000000000000AF
:100150001304000813040008130400081304000823
:100160001304000813040008130400081304000813
:100170001304000839BC0008130400080000000044
:10018000130400081304000841DD000813040008EC
:1001900013040008130400081304000813040008E3
:1001A00013040008130400081304000800000000F2
:1001B00013040008130400081304000813040008C3
:1001C00013040008130400080000000000000000F1
:1001D0000000000000000000130400080000000000
:1001E000000000000000000000000000000000000F
:1001F00000000000000000001304000813040008C1
:100200001304000813040008000000001304000891
:100210001304000813040008130400081304000862
:100220001304000800000000130400080000000090
:100230001304000813040008000000001304000861
:100240001304000813040008130400081304000832
:100250001304000813040008130400081304000822
:100260001304000813040008130400081304000812
:100270001304000813040008130400080000000021
:1002800013040008130400081304000813040008F2
:100290000000000013040008130400080000000020
:1002A00000000000130400081304000813040008F1
:1002B000D1FA00081304000813040008C12900083B
:1002C000D1290008130400081304000800F002F804
:1002D00000F080F814A696E8000CB244B344DA4566
:1002E00001D100F077F8BAE80F000FA696E83000C9
:1002F000A5EB040504EB0607AAEB0704A7F1010729
:100300004FEA15154FEA3414A4F10104AC4201D3AD
:1003100000F060F813F0010F18BFFB1A43F001035F
:1003200000F001F8DBE71847D0630100106401001A
:100330000A444FF0000C10F8013B13F0070408BF0B
:1003400010F8014B1D1108BF10F8015B641E05D0A9
:1003500010F8016B641E01F8016BF9D113F0080F5E
:100360001EBF10F8014BAD1C0C1B09D16D1E58BFF0
:1003700001F801CBFAD505E014F8016B01F8016B27
:100380006D1EF9D59142D6D370470000103A24BFB4
:1003900078C878C1FAD8520724BF30C830C144BFEA
:1003A00004680C60704700007047000000230024C0
:1003B00000250026103A28BF78C1FBD8520728BF75
:1003C00030C148BF0B6070471FB515F0B1FF1FBDAE
:1003D00010B510BD00F05EF91146FFF7F5FF13F000
:1003E000FFFF00F07CF903B4FFF7F2FF03BC00F05D
:1003F0007FF900000A4880470A4880470A480047BA
:10040000FEE7FEE7FEE7FEE7FEE7FEE7FEE7FEE7C4
:10041000FEE7FEE705480649064A074B704700001D
:10042000D9270008E1D00008CD0200081888002470
:10043000188E0024188A0024188A002453EA020C1B
:1004400000F069802DE9F04B4FF00006002B1FBF34
:10045000B3FA83F503FA05F424FA05F65E4012BFF9
:100460001643B2FA82F502FA05F4C5F120051EBF63
:1004700022FA05FC44EA0C04203556EA044C4FEA03
:10048000144418BF641C4FF000084FF0000990425C
:1004900071EB030C39D3002919BFB1FA81F701FAC6
:1004A00007F6B0FA80F700FA07F6C7F120071EBF7B
:1004B00020FA07FC46EA0C062037B6FBF4FCA7EB53
:1004C0000507103F07F01F0BCBF120062CFA06F6AC
:1004D0000CFA0BFB44BFB3460026202FA4BF5E4698
:1004E0004FF0000B5BEA060C08BF4FF0010B19EB55
:1004F0000B0948EB0608ABFB027C06FB02CC0BFBAE
:1005000003CCC01B71EB0C01C1E70B460246414610
:100510004846BDE8F08B13B5084318BF4FF0FF30D5
:100520000146AFF30080BDE81C407047032A40F24B
:10053000308010F0030C00F0158011F8013BBCF185
:10054000020F624498BF11F801CB00F8013B38BF9D
:1005500011F8013BA2F1040298BF00F801CB38BFAB
:1005600000F8013B11F0030300F02580083AC0F0C9
:10057000088051F8043B083A51F804CBA0E8081071
:10058000F5E7121D5CBF51F8043B40F8043BAFF3A4
:100590000080D20724BF11F8013B11F801CB48BFFE
:1005A00011F8012B24BF00F8013B00F801CB48BF34
:1005B00000F8012B704710B5203AC0F00B80B1E86D
:1005C0001850A0E81850B1E81850A0E81850203A88
:1005D000BFF4F5AF5FEA027C24BFB1E81850A0E891
:1005E000185044BF18C918C0BDE810405FEA827CAB
:1005F00024BF51F8043B40F8043B08BF7047D207C2
:1006000028BF31F8023B48BF11F8012B28BF20F862
:10061000023B48BF00F8012B70474FF0000200B5C5
:10062000134694469646203922BFA0E80C50A0E815
:100630000C50B1F12001BFF4F7AF090728BFA0E8C3
:100640000C5048BF0CC05DF804EB890028BF40F88F
:10065000042B08BF704748BF20F8022B11F0804FD1
:1006600018BF00F8012B704770477047704710B5EE
:1006700000F008F8006810BD10B5044600F002F85C
:10068000046010BD004870475C00002000487047BF
:100690005C0000207546FFF7F9FFAE46050069468D
:1006A000534620F00700854618B020B5FFF7B2FE8C
:1006B000BDE820404FF000064FF000074FF0000863
:1006C0004FF0000BAC46ACE8C009ACE8C009ACE8A0
:1006D000C009ACE8C00921F007018D46704710B58C
:1006E0000446AFF300802046BDE81040FFF77BBE14
:1006F00001491820ABBEFEE726000200704700004B
:1007000080B586B08DED040ACDED030A0290029803
:1007100020B1FFE7029900200870FFE79DED040A71
:1007200001A8694600F098F858B9FFE7029820B18F
:10073000FFE7029901200870FFE700208DF81700FD
:100740002AE09DED030A9DED011A9FED152A31EE79
:10075000021AB4EE410AF1EE10FA0EDBFFE79DED4E
:10076000030A9DED001A9FED0F2A31EE021AB4EE36
:10077000410AF1EE10FA0BDDFFE7029820B1FFE726
:10078000029902200870FFE700208DF8170003E0AF
:1007900001208DF81700FFE79DF8170006B080BD17
:1007A000BD3786B5BD37863581B08DED000A9DED2C
:1007B000000A9FED051A20EE010A9FED041A80EE53
:1007C000010A01B0704700BFDB0F4940000034430D
:1007D00083B0029001910092029830B1FFE7019836
:1007E00018B1FFE7009808B9FFE731E0019890F9E8
:1007F000100000EE100AB8EEC00A029890ED001A40
:1008000020EE010A009880ED000A019890F9180086
:1008100000EE100AB8EEC00A029890ED011A20EE20
:10082000010A009880ED010A019890F9200000EE7D
:10083000100AB8EEC00A029890ED021A20EE010AE2
:10084000009880ED020A0298007B00990873FFE788
:1008500003B070470000000080B586B08DED040A3B
:1008600003900291039818B1FFE7029820B9FFE7BF
:1008700000208DF817005FE09DED040A00F03CF9C0
:100880008DED010A9DED010A9FED2D1AB4EE410A8E
:10089000F1EE10FA0ADBFFE79DED010A9FED291A40
:1008A000B4EE410AF1EE10FA04DDFFE700208DF806
:1008B000170041E09DED010AB5EE400AF1EE10FA95
:1008C0000FDDFFE79FED220AFFF76EFF039880ED33
:1008D000000A9FED1E0AFFF767FF029880ED000AED
:1008E00026E09DED010AB5EE400AF1EE10FA0FDAAE
:1008F000FFE79FED150AFFF757FF039880ED000A09
:100900009FED130AFFF750FF029880ED000A0EE0FA
:100910009FED0D0AFFF748FF039880ED000A9FED59
:100920000B0AFFF741FF029880ED000AFFE7FFE79F
:1009300001208DF81700FFE79DF8170006B080BD75
:10094000000078C200008C42817592C274C42442B7
:10095000000000000000000082B00090009818B96C
:10096000FFE70020019003E0009824300190FFE7AA
:10097000019802B070470000B0B584B003900291B6
:10098000039818B1FFE7029808B9FFE726E003983B
:100990005C21FFF742FE03990091029B01931868C6
:1009A0005A68D3F808C0D3F80CE01C695D694D6142
:1009B0000C61C1F80CE0C1F808C04A600860986991
:1009C000DA691B6A0B62CA6188610398243000F0FF
:1009D000A7F80399012081F85800FFE704B0B0BDE3
:1009E00080B588B0DDF82CC0DDF828C08DED070A91
:1009F000CDED060A8DED051A049003910292019344
:100A0000049878B1FFE7039860B1FFE7029848B116
:100A1000FFE7019830B1FFE70A9818B1FFE70B989C
:100A200008B9FFE72DE09DED070A049890ED001A44
:100A300030EE410A00F028F8019880ED000A9DEDA3
:100A4000060A039890ED001A30EE410A00F01CF8F7
:100A50000A9880ED000A9DED060A9DED051A30EE1C
:100A6000010A039890ED001A029890ED002A31EEE9
:100A7000021A30EE410A00F007F80B9880ED000AE8
:100A8000FFE708B080BD000081B08DED000AFFE7F0
:100A90009DED000A9FED141AB4EE410AF1EE10FA32
:100AA00009DBFFE79DED000A9FED121A30EE010A07
:100AB0008DED000AECE7FFE79DED000A9FED0B1AB4
:100AC000B4EE410AF1EE10FA09DAFFE79DED000AF3
:100AD0009FED071A30EE010A8DED000AECE79DED5F
:100AE000000A01B0704700BFDB0F4940DB0F49C06F
:100AF000DB0FC940DB0FC9C081B08DED000A9DED51
:100B0000000A9FED051A20EE010A9FED041A80EEFF
:100B1000010A01B0704700BF00003443DB0F4940B9
:100B200080B582B00190019808B9FFE70AE001980A
:100B30003421FFF772FD0199FE2008700199002011
:100B40004870FFE702B080BD10B59AB018908DEDE7
:100B5000170ACDED160A8DED151ACDED141A189859
:100B600020B9FFE7FF208DF867008EE1189890F814
:100B7000580058B9FFE718982430FFF7D1FF1899AB
:100B8000FB2081F824008DF867007EE1189824305E
:100B9000FFF7C6FF17981899C86216981899086346
:100BA000159818994863189890ED010A9FEDB91AA5
:100BB000B4EE410AF1EE10FA0BDDFFE7189890ED64
:100BC000020A9FEDB41AB4EE410AF1EE10FA07DC06
:100BD000FFE71899FE2081F824008DF8670054E1A2
:100BE0009DED170AB0EEC00A9FEDAA1AB4EE410AB5
:100BF000F1EE10FA13DAFFE79DED160AB0EEC00A27
:100C00009FEDA41AB4EE410AF1EE10FA07DAFFE7FD
:100C1000149813901899012081F8280008E09DEDA0
:100C2000160ADDED170A14F0DFFF8DED130AFFE75A
:100C30009DED130AFFF728FF8DED130A9DED130AB2
:100C400015F028F98DED090A9DED170A8DED080ABA
:100C50009DED130A15F0C6F99DED082A9DED091AC0
:100C60009DED163A20EE030AA1EE020A8DED100A60
:100C70009DED100AB1EE400A8DED0F0A9DED150AAB
:100C8000189890ED001A30EE410A8DED0E0A9DED98
:100C90000F1A9DED0E0A20EE000AA1EE010A189827
:100CA00090ED011A90ED022AA1EE410AA2EE420A4D
:100CB00031EE011A21EE021A80EE010A8DED0D0AC5
:100CC0009DED0D0A9FED741AB4EE410AF1EE10FA93
:100CD0000ADBFFE79DED0D0A9FED701AB4EE410AA5
:100CE000F1EE10FA0BDDFFE71899FD2081F82400E2
:100CF000189A002182F826108DF86700C5E09DED56
:100D00000D0AFFEE000ACDED020AB7EE001A13F04D
:100D1000DFF9B0EE401A9DED020A8DED0D1A9DED42
:100D20000D1A91EE410A9FED5E1A80FE010A15F040
:100D300021FA8DED0C0A9DED0C0AB1EE400ADDEDB5
:100D40000D0A14F051FF8DED110A189890ED010A6B
:100D50008DED040A90ED020A8DED030A9DED110A56
:100D600015F098F89DED031AB0EE402A9DED040AA7
:100D7000A1EE020A8DED0B0A189890ED020A8DED96
:100D8000050A9DED110A15F02DF9B0EE401A9DED02
:100D9000050A20EE010A8DED0A0A9DED0F0ADDED30
:100DA0000E0A14F021FF8DED060A9DED0A0ADDED15
:100DB0000B0A14F019FFB0EE401A9DED060A30EE52
:100DC000410A8DED120A9DED130AFFF75DFE8DEDD0
:100DD000130A9DED120AFFF757FE8DED120A9DEDE5
:100DE000110AFFF751FE8DED110A189901200790A5
:100DF00081F826001399189A91631299189AD16371
:100E00001199189A1164189981F844009DED130AFC
:100E1000DDED120A9DED111ADDF860E00EF10C0017
:100E20000EF114010EF11C020EF148030EF14C0CF0
:100E30000EF15004EE46CEF80440CEF800C0FFF7A5
:100E4000CFFD0798189981F854009DED120A189863
:100E5000D0ED140A2530FFF753FC58B9FFE7189975
:100E6000FC2081F82400189A002182F827108DF8C0
:100E700067000AE01899002081F82400189A0121DF
:100E800082F827108DF86700FFE79DF967001AB018
:100E900010BD00BFBD378635540080BF5400803F71
:100EA000000000000000000080B5AEB02A90ADF850
:100EB000A6102A9828B1FFE7BDF8A600382804D864
:100EC000FFE70020ADF8AE003BE1EFF310802C907F
:100ED0002C980390EFF3108072B62D9000F0A0FADA
:100EE000014609A87C22FFF766FB42F6E433C2F212
:100EF0000003986BD96B1A6C5B6C08930792069190
:100F0000059043F6F040C2F2000081788DF812108F
:100F10000088ADF81000039810B9FFE762B6FFE74C
:100F20009DED050AFFF7E8FD8DED020A9DED060A2D
:100F3000FFF7E2FD8DED010A9DED070AFFF7DCFDED
:100F40008DED000A0020ADF8A4002A99BDF8A42078
:100F5000501CADF8A400A5208854BDF8A400ADF83D
:100F6000A2002A99BDF8A420501CADF8A400E120ED
:100F700088549DF810002A99BDF8A420531CADF8A0
:100F8000A43088549DF811002A99BDF8A420531C60
:100F9000ADF8A43088549DF812002A99BDF8A42019
:100FA000531CADF8A43088549DF89C002A99BDF8D4
:100FB000A420531CADF8A43088549DF898002A99B9
:100FC000BDF8A420531CADF8A43088542A98BDF86D
:100FD000A41008449DED090A00F0FAF8BDF8A40039
:100FE0000430ADF8A4002A98BDF8A41008449DED83
:100FF0000A0A00F0EDF8BDF8A4000430ADF8A40032
:101000002A98BDF8A41008449DED0B0A00F0E0F802
:10101000BDF8A4000430ADF8A4002A98BDF8A410CF
:1010200008449DED0C0A00F0D3F8BDF8A40004308C
:10103000ADF8A4002A98BDF8A41008449DED0D0A4F
:1010400000F0C6F8BDF8A4000430ADF8A4002A985A
:10105000BDF8A41008449DED0E0A00F0B9F8BDF8E3
:10106000A4000430ADF8A4002A98BDF8A4100844E8
:101070009DED230A00F0ACF8BDF8A4000430ADF8F3
:10108000A4002A98BDF8A41008449DED240A00F09D
:101090009FF8BDF8A4000430ADF8A4002A98BDF86C
:1010A000A41008449DED250A00F092F8BDF8A400B4
:1010B0000430ADF8A4002A98BDF8A41008449DEDB2
:1010C000020A00F085F8BDF8A4000430ADF8A400D1
:1010D0002A98BDF8A41008449DED010A00F078F8A4
:1010E000BDF8A4000430ADF8A4002A98BDF8A410FF
:1010F00008449DED000A00F06BF8BDF8A400043030
:10110000ADF8A4002A98BDF8A2100844362100F0DA
:101110001FF88DF8A1009DF8A1002A99BDF8A42020
:10112000531CADF8A43088542A99BDF8A420501C53
:10113000ADF8A4005A208854BDF8A400ADF8AE0064
:10114000FFE7BDF8AE002EB080BD0000000000003B
:1011500085B00390ADF80A1000200190039820B9E3
:10116000FFE700208DF813001CE00020ADF802001E
:10117000FFE7BDF80200BDF80A1088420EDAFFE76B
:101180000398BDF80210415C019808440190FFE704
:10119000BDF802000130ADF80200EAE701988DF8D1
:1011A0001300FFE79DF8130005B070470000000032
:1011B00043F62C51C2F20001002008707047000075
:1011C00043F62C50C2F20000007870470000000087
:1011D00082B001908DED000A019808B9FFE703E0A5
:1011E000019900980860FFE702B070470000000016
:1011F00080B582B043F62C50C2F20000007820B1D6
:10120000FFE700208DF8070035E043F6F340C2F217
:1012100000003921FFF748FEADF80400BDF80400D6
:1012200020B9FFE700208DF8070024E043F62C5199
:10123000C2F2000101200870BDF8042043F23850CA
:10124000C2F2000043F6F341C2F2000109F018FFB8
:101250008DF803009DF8030048B1FFE743F62C51D9
:10126000C2F20001002008708DF8070003E00120A1
:101270008DF80700FFE79DF8070002B080BD000071
:1012800043F62C51C2F200010020087070470000A4
:1012900080B58AB0002001900020C4F2A0300290F6
:1012A00003909FED120AFFF77FFA8DED040A9FED80
:1012B000100AFFF779FA8DED060A9FED0E0AFFF787
:1012C00073FA8DED080A01208DF81400FF218DF8C6
:1012D0001C108DF8240042F6E430C2F2000001A98F
:1012E000FFF74AFB00F000F90AB080BD00000000E3
:1012F00000008C42000011C380B592B00FA802908C
:1013000080ED020AC0ED010A80ED001A119944F641
:10131000E432C2F200421160109951600F9991605D
:1013200090ED020AD0ED010A90ED001A42F6E43089
:10133000C2F200000390DFED391AFFF705FC014609
:1013400003988DF83B10FFF707FB0D909DF93B00CC
:1013500028BBFFE70D98243042F6E431C2F20001C9
:1013600009AA0092FFF734FA009805A9019100F04C
:101370008FF802980099019A90ED020AD0ED010AC7
:1013800090ED001A0D9800F0BBF800218DF81310B5
:101390009DF813200D9B084600F032F93BE09DF9C3
:1013A0003B00033060B9FFE700F042F88DF813000E
:1013B0009DF813200D9B0120002100F021F929E068
:1013C0009DF93B000430C0B9FFE700208DF8120002
:1013D0000D9828B1FFE70D9840788DF81200FFE7CF
:1013E00000F026F88DF813009DF812109DF81320D8
:1013F0000D9B022000F004F90BE000F019F88DF8C5
:1014000013009DF813200D9B0320002100F0F8F835
:10141000FFE7FFE7FFE712B080BD00BF000000005C
:1014200044F6E430C2F200407047000000000000C3
:1014300082B044F6E430C2F2004090F87800E8B19F
:10144000FFE744F6E431C2F2004100918869CA69BD
:101450000B6AD1F824C0C1F834C00B63CA62886239
:10146000886DCA6D0B6ED1F864C0C1F874C00B678B
:10147000CA66886601208DF8070003E002208DF817
:101480000700FFE79DF8070002B07047000000006A
:1014900080B582B001900091019818B1FFE70098E3
:1014A00008B9FFE71CE0019890ED000AFFF724FB64
:1014B000009880ED000A019890ED010AFFF71CFBEF
:1014C000009880ED010A019890ED020AFFF714FBE5
:1014D000009880ED020A0198007B00990873FFE7ED
:1014E00002B080BD0000000080B544F6E430C2F2D6
:1014F00000407C21FFF791F880BD00000000000053
:1015000087B08DED060ACDED050A8DED041A039026
:1015100002910192039830B1FFE7029818B1FFE7FA
:10152000019808B9FFE768E0069844F6E431C2F292
:1015300000410091C8600598086104984861DDF891
:101540000CC0DCF81400DCF81820DCF81C30DCF8E7
:1015500020C0C1F824C00B62CA618861DDF80CC0EC
:10156000DCF82400DCF82820DCF82C30DCF830C073
:10157000C1F844C00B64CA638863DDF808C0DCF8B6
:101580000000DCF80420DCF80830DCF80CC0C1F8FE
:1015900054C00B65CA648864DDF804C0DCF8000040
:1015A000DCF80420DCF80830DCF80CC0C1F864C0BA
:1015B0000B66CA658865DDF80CC0DCF81400DCF841
:1015C0001820DCF81C30DCF820C0C1F834C00B63F4
:1015D000CA628862DDF804C0DCF80000DCF8042090
:1015E000DCF80830DCF80CC0C1F874C00B67CA66C0
:1015F0008866012081F87800FFE707B07047000097
:1016000080B588B08DF81F008DF81E108DF81D2054
:1016100006939DF81F008DF812009DF81E008DF8AE
:1016200013009DF81D008DF81400069848B1FFE7DF
:10163000069880788DF815000698C0788DF8160009
:1016400005E000208DF815008DF81600FFE744F640
:10165000E430C2F2004090F878008DF81700902036
:1016600001900DF1120102910622039200F010F890
:1016700001980299039A00F003F808B080BD0000B9
:1016800083B08DF80B000191ADF8022003B07047D4
:1016900080B584B08DF80F000291ADF806209DF85A
:1016A0000F0002999DF806200BF0FEFB04B080BDF0
:1016B00080B582B048F24C70C2F2004090ED000A52
:1016C00042F69C30C2F2000090ED001AB4EE410ADE
:1016D000F1EE10FA44D1FFE744F64C60C2F200008C
:1016E00090ED000A44F6B030C2F2004090ED001ACE
:1016F000B4EE410AF1EE10FA32D1FFE748F254702D
:10170000C2F2004090ED000A42F6A030C2F20000A2
:1017100090ED001AB4EE410AF1EE10FA20D1FFE785
:1017200043F2A461C2F200010020086044F6106197
:10173000C2F20041086043F2A861C2F200010860F1
:1017400044F6D831C2F20041086042F6E031C2F2FC
:101750000001086044F6DC31C2F20041086058E044
:1017600042F69C30C2F2000090ED000A44F6B03020
:10177000C2F20040D0ED000A42F6A030C2F20000F2
:1017800090ED001AFFF7B8FDFFF74AFE01900198AF
:1017900090F87800E0B3FFE744F6B430C2F20040BE
:1017A00090F9000001281BD1FFE70198806A43F2FD
:1017B0009461C2F2000108600198C06A4860019813
:1017C000006B88600198806E44F6C831C2F2004117
:1017D00008600198C06E48600198006F88600FE053
:1017E00043F29461C2F20001002008604860886002
:1017F00044F6C831C2F20041086048608860FFE7E3
:10180000FFF7DEFC18B9FFE7FFF7F2FCFFE7FFE7A1
:10181000FFE702B080BD000080B584B08DED030A03
:10182000CDED020A8DED011A44F64860C2F20000C7
:1018300090ED000A9DED031AB4EE410AF1EE10FAA4
:101840002CD1FFE748F25070C2F2004090ED000A40
:101850009DED021AB4EE410AF1EE10FA1ED1FFE737
:1018600044F65060C2F2000090ED000A9DED011AAE
:10187000B4EE410AF1EE10FA10D1FFE744F6006130
:10188000C2F20041002008604860886042F6D03112
:10189000C2F200010860486088602BE09DED030AF9
:1018A000DDED020A9DED011AFFF726FDFFF7B8FDF9
:1018B0000090009890F87800D8B1FFE70098806A0F
:1018C00044F60061C2F2004108600098C06A4860B6
:1018D0000098006B88600098806E42F6D031C2F2AA
:1018E000000108600098C06E48600098006F886032
:1018F000FFE7FFE704B080BD80B598B01690159162
:1019000014921393169830B1FFE7159818B1FFE7BA
:10191000149808B9FFE7A1E244F6C530C2F20040CE
:10192000007808B9FFE799E2EFF3108072B61790DC
:1019300044F6B533C2F20043186859689A68DB6808
:101940001293119210910F9044F6C531C2F20041EA
:101950000020087062B69DF93C0000EE100AB8EE57
:10196000C00A9FEDE22A80EE020A9FEDE11A20EE06
:10197000010A169880ED000A9DF93D0000EE100A5C
:10198000B8EEC00A80EE020A20EE010A159880ED3A
:10199000000A9DF93E0000EE100AB8EEC00A80EE83
:1019A000020A20EE010A149880ED000A9DF93F001A
:1019B00000EE100AB8EEC00A80EE020A9FEDCD1AC2
:1019C00020EE010A44F6F450C2F2004080ED000A15
:1019D0009DF9401000EE101AB8EEC00A80EE020A1F
:1019E00020EE010A43F28C61C2F2000181ED000A8F
:1019F0009DF9411000EE101AB8EEC00A80EE020AFE
:101A00009FEDBD2A20EE020A44F6F051C2F20041D9
:101A100081ED000A90ED000AB0EEC00AB4EE410A72
:101A2000F1EE10FA12DBFFE744F6F451C2F2004186
:101A300091ED000A0FF22C40021DB5EE400AF1EEC6
:101A400010FAC8BF104600680860FFE743F28C60D8
:101A5000C2F2000090ED000AB0EEC00A9FEDA51A98
:101A6000B4EE410AF1EE10FA12DBFFE743F28C61AB
:101A7000C2F2000191ED000A0FF2E830021DB5EE4E
:101A8000400AF1EE10FAC8BF104600680860FFE790
:101A900044F6F050C2F2004090ED000AB0EEC00AE9
:101AA0009FED951AB4EE410AF1EE10FA12DBFFE752
:101AB00044F6F051C2F2004191ED000A0FF2AC3051
:101AC000021DB5EE400AF1EE10FAC8BF10460068DC
:101AD0000860FFE79DF8420043F28861C2F200010E
:101AE00008709DF8430044F6B431C2F200410D91F4
:101AF00008709DF844008DF83B009DF845008DF876
:101B00003A009DF846008DF839009DF93B006FF0D2
:101B10007E0103917F2204920BF0CAF80399049A84
:101B20008DF83B009DF93A000BF0C2F88DF83A00B1
:101B30009DF93900322178220BF0BAF88DF839007E
:101B40009DF93B0000EE100AB8EEC00ADFEDC90AAD
:101B5000CDED050A9FEDC81A8DED061ADFEDC71A07
:101B6000CDED081A9FEDC62A8DED0B2A0BF0C8F8B3
:101B7000DDED050A9DED061ADDED081A9DED0B2A37
:101B800044F6F850C2F20040079080ED000A9DF93B
:101B90003A0000EE100AB8EEC00A0BF0B1F89DED65
:101BA0000B2A43F29060C2F20000099080ED000A17
:101BB0009DF9390000EE100AB8EEC00A9FEDB11A87
:101BC000DFEDB11ACDED0A1AF0EE610A0BF098F8CC
:101BD0000798DDED080A9DED0B1A44F6FC51C2F2A0
:101BE00000410C9181ED000A90ED000A0BF038F8ED
:101BF0000799DDED080A09989DED0B1A81ED000AA1
:101C000090ED000A0BF02CF80999DDED0A0A9DED24
:101C10000B1A0C9881ED000A90ED000A0BF020F8E9
:101C20000C990D9881ED000A90F9000001281FD150
:101C3000FFE744F6F850C2F20040006842F69C31DB
:101C4000C2F20001086043F29060C2F20000006836
:101C500044F6B031C2F20041086044F6FC50C2F2D2
:101C60000040006842F6A031C2F20001086010E0B6
:101C700042F69C31C2F200010020086044F6B03107
:101C8000C2F20041086042F6A031C2F200010860D1
:101C9000FFE79DF8471044F2AD30C2F200400170FA
:101CA0000078D8B9FFE742F27811C2F200010120B2
:101CB000087044F2AC30C2F2004000210291017081
:101CC00042F6BC30C2F2000013F01EF9029942F64F
:101CD000A830C2F2000013F0EBF8FFE744F2AD3099
:101CE000C2F200400078012823D107E00000004341
:101CF0001F856B400000344300005C4244F2AC306E
:101D0000C2F2004001210191017042F27812C2F248
:101D100000020020107042F6BC30C2F2000013F046
:101D2000F3F8019942F6A830C2F2000013F0C0F8AF
:101D3000FFE79DF8480043F6E041C2F20001087059
:101D40009DF9490000EE100AB8EEC00A9FED441A52
:101D500080EE010A9FED4D1A20EE010A43F6E440A1
:101D6000C2F2000080ED000A9DF84A1048F2587057
:101D7000C2F2004001709DF84B1044F65462C2F26A
:101D800000021170007880BBFFE744F65460C2F295
:101D90000000007878B9FFE742F6A830C2F20000F0
:101DA000007840B1FFE742F6A830C2F200000021FF
:101DB00013F0D6F818E044F65460C2F20000007840
:101DC000012810D1FFE742F6A830C2F200000078E7
:101DD000012808D0FFE742F6A830C2F20000012136
:101DE00013F0BEF8FFE7FFE738E048F25870C2F2A0
:101DF00000400078012830D1FFE744F65460C2F279
:101E00000000007878B9FFE742F6BC30C2F200006B
:101E1000007840B1FFE742F6BC30C2F2000000217A
:101E200013F0D2F818E044F65460C2F200000078D3
:101E3000012810D1FFE742F6BC30C2F20000007862
:101E4000012808D0FFE742F6BC30C2F200000121B1
:101E500013F0BAF8FFE7FFE7FFE7FFE718B080BD30
:101E600000000043000034C30000344300005CC2A3
:101E700000005C420000FEC20000FE420000FAC307
:101E80000000FA430000F042000048420000004514
:101E9000FFE7FEE70000000080B586B0059041F244
:101EA000883000F07DFC4FF2BB50C3F6EF10049079
:101EB00045F69940C3F68110039046F62260C3F6BA
:101EC000D6100290FFE764230093184619461A467D
:101ED00000F096FC009B184619461A4600F0E0FCFC
:101EE000009B184619461A4600F02AFD0120019071
:101EF00000F056FC019812F0C7FAE4E70000000079
:101F000080B586B00490039100200290049818B127
:101F1000FFE7039818B9FFE70020059027E0FFE7E7
:101F20000298039988421FD2FFE769460DF1070026
:101F3000086046F2DC60C2F2004043F63051C2F263
:101F4000000145F2DC62C2F200424FF480530AF015
:101F500013FB08B9FFE707E09DF807000499029A10
:101F6000531C02938854DBE702980590FFE705981D
:101F700006B080BD0000000080B546F2E060C2F20D
:101F80000040006843F63851C2F2000109684FF47E
:101F900080520AF0E1FA80BD80B584B042F640403C
:101FA000C2F20000D0F8BC0208B9FFE77AE042F6BE
:101FB0004040C2F20000D0F8BC02039043F6345017
:101FC000C2F20000006808B1FFE76BE00398D0F8A8
:101FD000140208B1FFE765E046F2E060C2F200409B
:101FE000006843F63851C2F2000109684FF480528C
:101FF0000AF032FB0290029808B9FFE752E046F27D
:10200000E060C2F20040006843F63851C2F20001BD
:10201000096888420DD9FFE746F2E060C2F200404D
:10202000006843F63851C2F200010968401A019075
:1020300008E043F63850C2F200000068C0F5805056
:102040000190FFE701980299884203D9FFE70298BF
:102050000190FFE70198B0F5007F04D9FFE74FF446
:1020600000700190FFE743F63850C2F200000168AB
:1020700043F63C50C2F200000144BDF8042042F691
:102080004040C2F2000000900EF0D2F800980EF02E
:10209000DBF938B9FFE7019843F63451C2F2000189
:1020A0000860FFE704B080BD80B586B0049003915E
:1020B000049818B1FFE7039820B9FFE701208DF8D5
:1020C00017003FE046F2E060C2F20040006843F6CD
:1020D0003851C2F2000109684FF480520AF03CFA0C
:1020E000019003980199884204D9FFE700208DF8F8
:1020F000170027E000200290FFE70298039988422A
:102100001AD2FFE704980299405C6946086046F2DB
:10211000E060C2F2004043F63851C2F2000143F6DB
:102120003C52C2F200024FF480530AF065FAFFE716
:10213000029801300290E0E7FFF72EFF01208DF8B2
:102140001700FFE79DF8170006B080BD00000000F3
:1021500084B08DF80F000291ADF80620FFE7012052
:1021600008B9FFE7FBE79DF80F000146009123281F
:102170002FD80099DFE801F012131415162D2D2D1C
:102180002D2D2D2D2D2D2D2D2D2D2D2D2D2D2D2D7F
:102190002D2D2D2D2D2D2D2D17182B2C1AE019E05E
:1021A00018E017E016E015E0029900200870029A86
:1021B000C2215170029A012191700299C87002994E
:1021C00008710299487102990820887102E001E0C3
:1021D00000E0FFE7002004B07047000000000000AE
:1021E000002070470000000080B582B042F64040F9
:1021F000C2F20000009044F2AE31C2F2004100226F
:1022000001920EF015F8009842F29C31C2F20001E2
:102210000DF0EEFF0199009846F2DC62C2F2004236
:10222000116043F63052C2F20002116046F2E062E1
:10223000C2F20042116043F63852C2F2000211604D
:1022400043F63452C2F20002116045F2D862C2F283
:10225000004211600DF070FF019802B080BD0000D7
:1022600080B586B00590049100200390FFE70398A5
:1022700004990968884224D2FFE705980399405CD5
:102280006946086046F2DC60C2F2004043F6305115
:10229000C2F2000145F2DC62C2F200424FF4805308
:1022A0000AF0AAF940B9FFE745F2D861C2F200414D
:1022B000086801300860FFE7FFE7039801300390EA
:1022C000D5E7059942F64040C2F2000002900DF0B9
:1022D0008FFF02980DF030FF002006B080BD000097
:1022E00083B0029001918DF8032000208DF8020048
:1022F0009DF9020003B0704784B00290ADF806105B
:102300004FF6FF70ADF80400029820B1FFE7BDF86A
:10231000060028B9FFE7BDF80400ADF80E0047E05D
:102320000020ADF80200FFE7BDF80200BDF806107E
:10233000884238DAFFE70298BDF80210415CBDF828
:1023400004004840ADF8040000208DF80100FFE7CC
:102350009DF8010007281FD8FFE7BDF80400C0075B
:1023600068B1FFE7BDF804004008ADF80400BDF80F
:1023700004004AF201014840ADF8040005E0BDF850
:1023800004004008ADF80400FFE7FFE79DF80100F6
:1023900001308DF80100DBE7FFE7BDF802000130F6
:1023A000ADF80200C0E7BDF80400ADF80E00FFE78D
:1023B000BDF80E0004B0704780B545F2D440C2F2BB
:1023C000004009F051FF43F69040C2F2000009F0CE
:1023D0004BFF80BD0000000080B582B08DED010A8A
:1023E00043F26060C2F2000090ED050ADDED010AE3
:1023F00043F69040C2F2000009F002FE02B080BD38
:1024000080B584B08DED030A9DED030A43F2606050
:10241000C2F20000009090ED081A30EE410A8DEDF6
:10242000020A9DED020A00F02FFD8DED020ADDED9E
:10243000020A45F2D440C2F200409FED090A09F0B9
:10244000DFFD00988DED010A90ED050ADDED010A32
:1024500043F69040C2F2000009F0D2FD04B080BD06
:10246000000000000000000080B582B0019041F241
:10247000883012F009F809F06FFA43F23850C2F2CE
:10248000000042F6A431C2F20001012208F064FD0E
:1024900008F0E6FEFEF7FCFE42F6BC30C2F2000099
:1024A00011F092FE42F6A830C2F2000011F038FEA0
:1024B000FFE744F66860C2F20000011D00F1080267
:1024C0000023FFF719FA42F27810C2F200000078F8
:1024D000012818D1FFE742F6A830C2F2000011F03F
:1024E0003BFE42F6BC30C2F2000011F089FE09F05A
:1024F00047FB0120009011F0C7FFFFF7D9F80098C3
:1025000011F0C2FFFFE7012011F0BEFFD1E700008C
:1025100080B58AB08DF827000891079200200690B8
:102520000590049003900898029008980630019056
:10253000042004909DF827005038014600910F2890
:1025400042D80099DFE801F01A081D1122272A2D30
:102550003033364040404039342006900320049008
:1025600040200590012003902FE03D20069003209D
:1025700004902E2005900120039026E03020069044
:1025800023E037200690032007901EE03A200690B3
:102590000320079019E04120069016E045200690A0
:1025A00013E04920069010E04D2006900DE05120E8
:1025B00006900AE05520069007E046F2E460C2F279
:1025C00000400068069000E038E00798032805D135
:1025D000FFE70320049000200390FFE70498A8B1D0
:1025E000FFE7069945F2B850C2F2004000EB410007
:1025F0000299049A5200FDF799FF43F28C70C2F2DF
:1026000000000268069804999047FFE70398A8B174
:10261000FFE7059945F2B850C2F2004000EB4100D7
:102620000199039A5200FDF781FF43F28C70C2F2C8
:1026300000000268059803999047FFE70AB080BD43
:1026400080B500F0FDF844F66040C2F2004002F0B0
:10265000F7FE00F045F942F61C70C2F2000002F0ED
:10266000EFFE00F08DF944F60050C2F2004002F097
:10267000E7FE09F01DFE80BD80B584B08DF80F0027
:1026800002918DF807209DF80F0001460091342833
:1026900000F27E800099DFE801F0211B272D337BBB
:1026A0007B7B7B7B7B7B7B7B7B7B3F397B51577B46
:1026B0007B7B7B7B454B7B7B7B7B7B7B7B7B7B7BD0
:1026C0007B7B7B7B7B7B7B7B7B7B635D696F75002F
:1026D00002989DF807100FF02BFD5AE002989DF824
:1026E00007100FF009FD54E002989DF807100FF055
:1026F00043FD4EE002989DF807100FF051FD48E0B1
:1027000002989DF807100FF02FFD42E002989DF807
:10271000071010F039FE3CE002989DF8071010F009
:1027200027FE36E002989DF8071010F041FE30E0D9
:1027300002989DF8071010F0C7FE2AE002989DF855
:10274000071010F04DFF24E002989DF8071010F0DC
:1027500027FE1EE002989DF807100FF041FD18E0DB
:1027600002989DF807100FF02FFD12E002989DF8D7
:1027700007100FF049FD0CE002989DF807100FF0CC
:10278000CBFD06E002989DF807100FF035FD00E044
:10279000FFE704B080BD00007047000000000000AB
:1027A00080B582B0019003F0A3F80090FFE703F03A
:1027B0009FF80099401A0199884201D2FFE7F6E795
:1027C00002B080BD0000000081B0EFF3108072B64F
:1027D0000090FFE7FEE7000044F60C01C5F6020199
:1027E000086840F002000860FFE744F60400C5F600
:1027F000020000688004002801D4FFE7F5E7704775
:1028000080B584B0ADF80E00ADF80C10ADF80A201C
:10281000ADF80830BDF90E20BDF90C30BDF90A0045
:10282000BDF908C06946C1F804C0086044F66040BC
:10283000C2F200404FF4007100F092FA04B080BD83
:1028400080B588B000200090019002210291012102
:1028500003910490059044F66040C2F2004069463E
:1028600001F0AEFC18B1FFE7FFF7AEFFFFE744F65B
:102870006040C2F2004000F0BFFA08B080BD000026
:1028800080B544F66040C2F2004001F0B1FE80BD68
:1028900080B544F66040C2F2004001F0A9FE80BD60
:1028A00080B584B0ADF80E00ADF80C10ADF80A207C
:1028B000ADF80830BDF90E20BDF90C30BDF90A00A5
:1028C000BDF908C06946C1F804C0086042F61C7032
:1028D000C2F200004FF4007100F042FA04B080BD73
:1028E00080B588B00020009007210191022102915B
:1028F00003910490059042F61C70C2F200006946F4
:1029000001F05EFC18B1FFE7FFF75EFFFFE742F65C
:102910001C70C2F2000000F06FFA08B080BD000029
:1029200080B542F61C70C2F2000001F061FE80BD6D
:1029300080B542F61C70C2F2000001F059FE80BD65
:1029400080B584B0ADF80E00ADF80C10ADF80A20DB
:10295000ADF80830BDF90E20BDF90C30BDF90A0004
:10296000BDF908C06946C1F804C0086044F60050CB
:10297000C2F200404FF4007100F0F2F904B080BDE3
:1029800080B588B0002000900E21019102210291B3
:1029900003910490059044F60050C2F2004069464D
:1029A00001F00EFC18B1FFE7FFF70EFFFFE744F65A
:1029B0000050C2F2004000F01FFA08B080BD0000D5
:1029C00080B544F60050C2F2004001F011FE80BD17
:1029D00080B544F60050C2F2004001F009FE80BD0F
:1029E00084B002900298406B009002980068D0F882
:1029F00084004FF6FC718843009940EA81000299F7
:102A00000968C1F8840002980068D0F8840020F4B6
:102A10007F00029A1168926B40EA0240C1F884007C
:102A20000298816B00980844009002980068D0F8E2
:102A300088006FF38F00009940EA810002990968CD
:102A4000C1F8880002980068D0F8880020F4FE00E1
:102A5000029A1168D26B40EA0240C1F888000298DD
:102A6000C16B009800EB4100009002980068D0F81C
:102A7000A0006FF38F00009940EA81000299096875
:102A8000C1F8A00002980068D0F8A00020F4FE0071
:102A9000029A1168126C40EA0240C1F8A000029943
:102AA000086C496C009A00FB0120009002980068B5
:102AB000D0F8B0006FF38F00009940EA81000299CE
:102AC0000968C1F8B00002980068D0F8B00020F49E
:102AD000FE00029A1168926C40EA0240C1F8B00010
:102AE0000299886CC96C009A00FB01200090029842
:102AF0000068D0F8AC006FF38F00009940EA8100C5
:102B000002990968C1F8AC000299086D496D009AF4
:102B100000FB0120009002980068D0F8F0006FF3ED
:102B20008F00009940EA810002990968C1F8F0001D
:102B300002980068D0F8F00020F47C10029A116826
:102B4000926D40EA0240C1F8F0000298816D009851
:102B500000EB4100009002980068D0F8C0006FF3CD
:102B60008F00009940EA810002990968C1F8C0000D
:102B700002980068D0F8C00020F47C10029A116816
:102B8000D26D40EA0240C1F8C00002980068D0F857
:102B9000C00020F07C50029A1168126E40EA026078
:102BA000C1F8C00002994A6B4AF60040C4F2000026
:102BB00000EB8200C86602998A6BC86E00EB820047
:102BC00008670299CA6B086F00EBC2004867029958
:102BD0000A6C4B6C486F5A4300EB8200886702997D
:102BE0008A6CCB6C886F5A4300EB8200C8670299ED
:102BF0000A6D4B6DC86F5A4300EB8200C1F880002C
:102C000002998A6DD1F8800000EBC200C1F88400FF
:102C10000299CA6D8B6ED1F884005A4300EB820092
:102C2000C1F8880002990A6E8B6ED1F888005A4369
:102C300000EB8200C1F890000298D0F890004DF2AD
:102C4000FD31C4F2000188420FD3FFE70299D1F8A9
:102C50009C0040F02000C1F89C000299032081F8FC
:102C6000980001208DF80F0017E00298C06E0190C7
:102C7000FFE701980299D1F89010884208D2FFE747
:102C8000019900200860FFE7019804300190F0E707
:102C9000FFE700208DF80F00FFE79DF80F0004B05C
:102CA000704700000000000088B007900691059270
:102CB00004930698406848B9FFE70698016882685F
:102CC0000069104340EA8140039009E006980168DA
:102CD000826800691043084340F080400390FFE79A
:102CE0000698D0F820C0C16842698369C06940EA8B
:102CF0000C601843104340EA014002900798826E2E
:102D0000D0F884000499514300EB810001900398AE
:102D100001990860019804300190029801990860B7
:102D200001980430019000200090FFE70098069978
:102D3000CA6846F23841C0F60101895C88420DD26A
:102D4000FFE7059800994058019908600198043000
:102D50000190FFE7009804300090E7E708B0704763
:102D600010B590B08C46864613981299CDF83CE089
:102D7000ADF83AC0ADF83820ADF83630ADF83410C3
:102D8000ADF83200BDF83A000390002004900590A1
:102D9000082106910790089009900A900B909DF8E1
:102DA00039008DF80400BDF838008DF805009DF855
:102DB00037008DF80600BDF836008DF807009DF845
:102DC00035008DF80800BDF834008DF809009DF835
:102DD00033008DF80A00BDF832008DF80B000F9813
:102DE00003A901AA01F07CF908B1FFE7FFE710B0E1
:102DF00010BD00000000000080B582B00190019875
:102E000002F01EFB18B1FFE7FFF7DEFCFFE70198B9
:102E100044F66041C2F2004188420BD1FFE70198BD
:102E20000121002201F0DCF818B1FFE7FFF7CCFC2C
:102E3000FFE7FFE7019842F61C71C2F200018842E9
:102E40000BD1FFE701981021002201F0C9F818B159
:102E5000FFE7FFF7B9FCFFE7FFE7019844F60051F1
:102E6000C2F2004188420BD1FFE7019810210022F5
:102E700001F0B6F818B1FFE7FFF7A6FCFFE7FFE7A0
:102E800002B080BD0000000081B08DED000AFFE7B8
:102E90009DED000A9FED141AB4EE410AF1EE10FA0E
:102EA00009DDFFE79DED000A9FED121A30EE010AE1
:102EB0008DED000AECE7FFE79DED000A9FED0B1A90
:102EC000B4EE410AF1EE10FA09DAFFE79DED000ACF
:102ED0009FED071A30EE010A8DED000AECE79DED3B
:102EE000000A01B0704700BF00003443000034C343
:102EF0000000B4430000B4C380B584B04EF60000B7
:102F0000C1F6F170006803904EF60400C1F6F1704E
:102F1000006802904EF60800C1F6F170006801905A
:102F20000199039808440390039888B1FFE7039838
:102F300040F2B801C2F2004100910231082208F0CB
:102F40004FF9009902981231042208F049F9FFE77D
:102F500004B080BD0000000080B540F60000C5F65A
:102F600002004FF46041012202F0AAFC80BD000083
:102F700080B58AB0089002F0BBFC0490089828B98C
:102F8000FFE701208DF8270000F0AABC089890F810
:102F9000350002280ED0FFE7089980204865FFE73A
:102FA0000899002081F83400FFE701208DF8270000
:102FB00000F096BC0898016801201022C4F20202B9
:102FC0009142039000F0A380FFE708980168012078
:102FD0002822C4F202029142039000F09880FFE799
:102FE0000898016801204022C4F202029142039035
:102FF00000F08D80FFE70898016801205822C4F294
:1030000002029142039000F08280FFE70898016875
:1030100001207022C4F202029142039077D0FFE7B0
:103020000898016801208822C4F2020291420390AC
:103030006DD0FFE7089801680120A022C4F20202C7
:103040009142039063D0FFE7089801680120B822FD
:10305000C4F202029142039059D0FFE70898016838
:10306000012040F21042C4F20202914203904ED07D
:10307000FFE708980168012040F22842C4F20202EA
:103080009142039043D0FFE708980168012040F285
:103090004042C4F202029142039038D0FFE7089800
:1030A0000168012040F25842C4F2020291420390AA
:1030B0002DD0FFE708980168012040F27042C4F269
:1030C00002029142039022D0FFE708980168012094
:1030D00040F28842C4F202029142039017D0FFE707
:1030E00008980168012040F2A042C4F20202914215
:1030F00003900CD0FFE7089800684FF64831CBF6F4
:10310000FD710844B0FA80F040090390FFE703988E
:10311000C00780B1FFE708980168086820F01E002A
:10312000086008980168486920F0800048610898A4
:103130000068059009E008980168086820F00E0012
:103140000860089800680590FFE70898016801206A
:103150001022C4F202029142029000F00381FFE7C4
:103160000898016801202822C4F2020291420290CC
:1031700000F0F880FFE70898016801204022C4F2BF
:1031800002029142029000F0ED80FFE7089801688A
:1031900001205822C4F202029142029000F0E28023
:1031A000FFE70898016801207022C4F202029142F0
:1031B000029000F0D780FFE708980168012088227C
:1031C000C4F202029142029000F0CC80FFE708981E
:1031D00001680120A022C4F202029142029000F094
:1031E000C180FFE7089801680120B822C4F20202FA
:1031F0009142029000F0B680FFE708980168012034
:1032000040F21042C4F202029142029000F0AA8001
:10321000FFE708980168012040F22842C4F2020248
:103220009142029000F09E80FFE70898016801201B
:1032300040F24042C4F202029142029000F09280B9
:10324000FFE708980168012040F25842C4F20202E8
:103250009142029000F08680FFE708980168012003
:1032600040F27042C4F20202914202907AD0FFE72B
:1032700008980168012040F28842C4F2020291429B
:1032800002906FD0FFE708980168012040F2A04249
:10329000C4F202029142029064D0FFE708980168EC
:1032A000012040F2B842C4F202029142029059D089
:1032B000FFE708980168012045F20842C5F60202BE
:1032C000914202904ED0FFE708980168012045F234
:1032D0001C42C5F602029142029043D0FFE70898D3
:1032E0000168012045F23042C5F602029142029087
:1032F00038D0FFE708980168012045F24442C5F63E
:103300000202914202902DD0FFE708980168012047
:1033100045F25842C5F602029142029022D0FFE7E0
:1033200008980168012045F26C42C5F602029142FC
:10333000029017D0FFE708980168012045F280420B
:10334000C5F60202914202900CD0FFE7089800688F
:103350004AF66C31CAF2FD710844B0FA80F04009B7
:103360000290FFE70298C00738B1FFE70898016EA6
:10337000086820F480700860FFE708980068102152
:10338000C4F20201884200F08180FFE708980068DB
:103390002821C4F20201884278D0FFE7089800682B
:1033A0004021C4F20201884270D0FFE7089800680B
:1033B0005821C4F20201884268D0FFE708980068EB
:1033C0007021C4F20201884260D0FFE708980068CB
:1033D0008821C4F20201884258D0FFE708980068AB
:1033E000A021C4F20201884250D0FFE7089800688B
:1033F000B821C4F20201884248D0FFE7089800686B
:1034000040F21041C4F2020188423FD0FFE7089821
:10341000006840F22841C4F20201884236D0FFE73A
:103420000898006840F24041C4F2020188422DD061
:10343000FFE70898006840F25841C4F20201884250
:1034400024D0FFE70898006840F27041C4F20201FE
:1034500088421BD0FFE70898006840F28841C4F218
:103460000201884212D0FFE70898006840F2A041AC
:10347000C4F20201884209D0FFE70898006840F2D0
:10348000B841C4F20201884207D1FFE708980168F9
:10349000086820F00100086006E0089801680868E4
:1034A00020F001000860FFE7FFE705980068C0070B
:1034B000C8B1FFE702F01CFA0499401A062811D39C
:1034C000FFE70899202048650899032081F8350016
:1034D000FFE70899002081F83400FFE701208DF80C
:1034E0002700FDE1E1E70898016801201022C4F2FD
:1034F00002029142019000F0A380FFE70898016862
:1035000001202822C4F202029142019000F098802A
:10351000FFE70898016801204022C4F202029142AC
:10352000019000F08D80FFE7089801680120582283
:10353000C4F202029142019000F08280FFE70898F5
:10354000016801207022C4F202029142019077D0FA
:10355000FFE70898016801208822C4F20202914224
:1035600001906DD0FFE7089801680120A022C4F205
:1035700002029142019063D0FFE7089801680120A0
:10358000B822C4F202029142019059D0FFE7089894
:103590000168012040F21042C4F2020291420190FF
:1035A0004ED0FFE708980168012040F22842C4F29B
:1035B00002029142019043D0FFE708980168012080
:1035C00040F24042C4F202029142019038D0FFE73B
:1035D00008980168012040F25842C4F20202914268
:1035E00001902DD0FFE708980168012040F2704259
:1035F000C4F202029142019022D0FFE708980168CC
:10360000012040F28842C4F202029142019017D098
:10361000FFE708980168012040F2A042C4F20202CC
:10362000914201900CD0FFE7089800684FF64831AE
:10363000CBF6FD710844B0FA80F040090190FFE735
:103640000198C00760B1FFE70898806D079008985F
:10365000C06D00F01F013F208840079988600BE093
:103660000898806D06900898C06D00F01F01012039
:10367000884006994860FFE70898016801201022F9
:10368000C4F202029142009000F00381FFE7089823
:10369000016801202822C4F202029142009000F049
:1036A000F880FFE70898016801204022C4F2020276
:1036B0009142009000F0ED80FFE70898016801203A
:1036C0005822C4F202029142009000F0E280FFE72B
:1036D0000898016801207022C4F202029142009011
:1036E00000F0D780FFE70898016801208822C4F223
:1036F00002029142009000F0CC80FFE70898016838
:103700000120A022C4F202029142009000F0C18088
:10371000FFE7089801680120B822C4F20202914232
:10372000009000F0B680FFE708980168012040F2A1
:103730001042C4F202029142009000F0AA80FFE71A
:1037400008980168012040F22842C4F20202914226
:10375000009000F09E80FFE708980168012040F289
:103760004042C4F202029142009000F09280FFE7D2
:1037700008980168012040F25842C4F202029142C6
:10378000009000F08680FFE708980168012040F271
:103790007042C4F20202914200907AD0FFE708988A
:1037A0000168012040F28842C4F202029142009076
:1037B0006FD0FFE708980168012040F2A042C4F2F0
:1037C00002029142009064D0FFE70898016801204E
:1037D00040F2B842C4F202029142009059D0FFE791
:1037E00008980168012045F20842C5F6020291429C
:1037F00000904ED0FFE708980168012045F21C4276
:10380000C5F602029142009043D0FFE70898016894
:10381000012045F23042C5F602029142009038D0B4
:10382000FFE708980168012045F24442C5F602020C
:10383000914200902DD0FFE708980168012045F2E1
:103840005842C5F602029142009022D0FFE7089844
:103850000168012045F26C42C5F6020291420090D7
:1038600017D0FFE708980168012045F28042C5F6AD
:103870000202914200900CD0FFE7089800684AF6D7
:103880006C31CAF2FD710844B0FA80F04009009032
:10389000FFE70098C007A0B1FFE70898416E806E6F
:1038A00048600898C06E58B1FFE70898C16E086874
:1038B00020F4807008600898016F406F4860FFE74F
:1038C000FFE70899012081F83500FFE708990020FB
:1038D00081F83400FFE7FFE700208DF82700FFE7BD
:1038E0009DF827000AB080BD80B586B0049004988A
:1038F00020B9FFE701208DF8170046E3049890F8FF
:103900003500022807D0FFE7049980204865012090
:103910008DF8170039E30498016801201022C4F2E1
:1039200002029142029000F0A380FFE70498016830
:1039300001202822C4F202029142029000F09880F5
:10394000FFE70498016801204022C4F2020291427C
:10395000029000F08D80FFE7049801680120582252
:10396000C4F202029142029000F08280FFE70498C4
:10397000016801207022C4F202029142029077D0C5
:10398000FFE70498016801208822C4F202029142F4
:1039900002906DD0FFE7049801680120A022C4F2D4
:1039A00002029142029063D0FFE70498016801206F
:1039B000B822C4F202029142029059D0FFE7049863
:1039C0000168012040F21042C4F2020291420290CA
:1039D0004ED0FFE704980168012040F22842C4F26B
:1039E00002029142029043D0FFE70498016801204F
:1039F00040F24042C4F202029142029038D0FFE706
:103A000004980168012040F25842C4F20202914237
:103A100002902DD0FFE704980168012040F2704227
:103A2000C4F202029142029022D0FFE7049801689A
:103A3000012040F28842C4F202029142029017D063
:103A4000FFE704980168012040F2A042C4F202029C
:103A5000914202900CD0FFE7049800684FF648317D
:103A6000CBF6FD710844B0FA80F040090290FFE700
:103A70000298C007002800F09D80FFE70499042009
:103A800081F83500049800681021C4F202018842D0
:103A900000F08180FFE7049800682821C4F2020149
:103AA000884278D0FFE7049800684021C4F2020100
:103AB000884270D0FFE7049800685821C4F20201E0
:103AC000884268D0FFE7049800687021C4F20201C0
:103AD000884260D0FFE7049800688821C4F20201A0
:103AE000884258D0FFE704980068A021C4F2020180
:103AF000884250D0FFE704980068B821C4F2020160
:103B0000884248D0FFE70498006840F21041C4F2B0
:103B1000020188423FD0FFE70498006840F2284144
:103B2000C4F20201884236D0FFE70498006840F2F0
:103B30004041C4F2020188422DD0FFE7049800689A
:103B400040F25841C4F20201884224D0FFE70498B1
:103B5000006840F27041C4F2020188421BD0FFE7C6
:103B60000498006840F28841C4F20201884212D0F1
:103B7000FFE70498006840F2A041C4F202018842C5
:103B800009D0FFE70498006840F2B841C4F202018E
:103B9000884207D1FFE704980168086820F0010017
:103BA000086006E004980168086820F001000860D9
:103BB000FFE7E5E104980168086820F00E0008605E
:103BC000049800681021C4F20201884200F081804C
:103BD000FFE7049800682821C4F20201884278D0E7
:103BE000FFE7049800684021C4F20201884270D0C7
:103BF000FFE7049800685821C4F20201884268D0A7
:103C0000FFE7049800687021C4F20201884260D086
:103C1000FFE7049800688821C4F20201884258D066
:103C2000FFE704980068A021C4F20201884250D046
:103C3000FFE704980068B821C4F20201884248D026
:103C4000FFE70498006840F21041C4F20201884284
:103C50003FD0FFE70498006840F22841C4F2020117
:103C6000884236D0FFE70498006840F24041C4F231
:103C7000020188422DD0FFE70498006840F25841C5
:103C8000C4F20201884224D0FFE70498006840F2A1
:103C90007041C4F2020188421BD0FFE7049800681B
:103CA00040F28841C4F20201884212D0FFE7049832
:103CB000006840F2A041C4F20201884209D0FFE747
:103CC0000498006840F2B841C4F20201884207D16A
:103CD000FFE704980168086820F00100086006E02A
:103CE00004980168086820F001000860FFE7049864
:103CF000016801201022C4F202029142019000F0FA
:103D00000381FFE70498016801202822C4F202021F
:103D10009142019000F0F880FFE7049801680120CB
:103D20004022C4F202029142019000F0ED80FFE7D0
:103D30000498016801205822C4F2020291420190C5
:103D400000F0E280FFE70498016801207022C4F2CD
:103D500002029142019000F0D780FFE704980168C9
:103D600001208822C4F202029142019000F0CC802E
:103D7000FFE7049801680120A022C4F202029142E8
:103D8000019000F0C180FFE7049801680120B8228B
:103D9000C4F202029142019000F0B680FFE704985D
:103DA0000168012040F21042C4F2020291420190E7
:103DB00000F0AA80FFE704980168012040F2284241
:103DC000C4F202029142019000F09E80FFE7049845
:103DD0000168012040F24042C4F202029142019087
:103DE00000F09280FFE704980168012040F25842F9
:103DF000C4F202029142019000F08680FFE704982D
:103E00000168012040F27042C4F202029142019026
:103E10007AD0FFE704980168012040F28842C4F29A
:103E20000202914201906FD0FFE7049801680120DF
:103E300040F2A042C4F202029142019064D0FFE736
:103E400004980168012040F2B842C4F20202914293
:103E5000019059D0FFE704980168012045F208421B
:103E6000C5F60202914201904ED0FFE70498016826
:103E7000012045F21C42C5F602029142019043D056
:103E8000FFE704980168012045F23042C5F60202BE
:103E90009142019038D0FFE704980168012045F273
:103EA0004442C5F60202914201902DD0FFE70498EA
:103EB0000168012045F25842C5F602029142019084
:103EC00022D0FFE704980168012045F26C42C5F654
:103ED00002029142019017D0FFE704980168012087
:103EE00045F28042C5F60202914201900CD0FFE7F4
:103EF000049800684AF66C31CAF2FD710844B0FAC1
:103F000080F040090190FFE70198C00728B3FFE760
:103F10000498016E086820F4807008600498806D31
:103F200003900498C06D00F01F01012088400399A0
:103F300048600498416E806E48600498C06E58B125
:103F4000FFE70498C16E086820F480700860049848
:103F5000016F406F4860FFE7FFE70499012081F897
:103F60003500FFE70499002081F83400FFE704984A
:103F7000006D20B1FFE70498016D8847FFE7FFE778
:103F8000FFE700208DF81700FFE79DF8170006B047
:103F900080BD00000000000080B584B0039001F0F7
:103FA000A7FC0290039801900198013048B1FFE707
:103FB00040F23410C2F200400178019808440190A8
:103FC000FFE7FFE701F094FC0299401A019988424B
:103FD00001D2FFE7F6E704B080BD0000000000005A
:103FE00085B0039002910192039890F898008DF8A3
:103FF00003009DF80300012805D0FFE79DF80300AA
:1040000002285DD1FFE7029803990968896D08428B
:1040100007D1FFE703980168C86D40F00100C8654B
:1040200015E0029803990968896D08400299884251
:1040300007D1FFE703980168C86D40F00200C8652A
:1040400004E0039801680320C865FFE7FFE79DF8D7
:1040500009008007002809D5FFE7019A0398016845
:10406000D1F8E0001043C1F8E000FFE79DF8090037
:104070004007002809D5FFE7019A03980168D1F8A5
:10408000E4001043C1F8E400FFE7FFE702984FF6B1
:10409000FF71C3F6CF7100EA010203980168486D11
:1040A00010434865029A4AF61401C4F200010868F8
:1040B00040EA92700860FFE700208DF813000AE0E4
:1040C0000399D1F89C0040F00200C1F89C00012047
:1040D0008DF81300FFE79DF8130005B0704700004E
:1040E00080B586B00490039102920398406808B9A5
:1040F000FFE700E0FFE7049890F89800022845D118
:10410000FFE704980068D0F8C00010F07C5F0BD186
:10411000FFE70499D1F89C0040F02000C1F89C0012
:1041200001208DF817003CE004980068D0F8C40026
:10413000800200280BD5FFE70499D1F89C0040F4D9
:104140000070C1F89C0001208DF8170029E0049848
:104150000068D0F8C400C0F30440019004980399AB
:10416000029A019BFEF7A0FD0199012000FA01F1DE
:10417000049A1268C2F8D010019988400499C1F8D5
:104180009400FFE700208DF817000AE00499D1F8A9
:104190009C0040F00800C1F89C0001208DF8170039
:1041A000FFE79DF8170006B080BD0000000000008A
:1041B00082B00190009102B0704700000000000042
:1041C00087B005900491059890F898008DF8030049
:1041D0009DF80300012805D0FFE79DF803000228A1
:1041E0006AD1FFE70498C068072801D1FFE7FFE71D
:1041F0000498006878BBFFE70498C068072801D0DE
:10420000FFE7FFE70498C06807280CD1FFE7049A8E
:1042100010699169D269000440EA0220084340F025
:10422000605003900CE004998868CB680A6949697A
:10423000800740EAC36040EA024008430390FFE77A
:104240000598C06E0499496800EB810001900398BD
:10425000019908602CE00498C068072801D0FFE7A6
:10426000FFE70498C168006940EA41700390049830
:10427000C068072804D1FFE704988069029006E02F
:1042800004988168406940EA81700290FFE70598D0
:10429000006F0499496800EBC100019003980199EF
:1042A0000860019804300190029801990860FFE7C6
:1042B00000208DF81B000AE00599D1F89C0040F021
:1042C0000200C1F89C0001208DF81B00FFE79DF85B
:1042D0001B0007B07047000081B0009001B070472C
:1042E00082B00190009102B0704700000000000011
:1042F0008AB00890079106920593002001900898D3
:1043000090F898008DF803009DF80300022840F013
:104310005C81FFE70798402851D1FFE708980068C3
:10432000D0F8A00010F4FE0F0BD1FFE70899D1F8E8
:104330009C0040F02000C1F89C0001208DF827006F
:104340004EE108980068D0F8A400400658B9FFE78D
:104350000899D1F89C0040F48070C1F89C000120BD
:104360008DF827003CE108980068D0F8A40000F020
:1043700080710120B0EB116F0DD1FFE70898006844
:10438000D0F8A0100120B0EBD17F03D1FFE70120CE
:104390000190FFE7FFE708980068D0F8A40000F458
:1043A0007C51019800EB112001900898426C406FFD
:1043B0000199514300EB81000490FFE770E00798FA
:1043C000412851D1FFE708980068D0F8B00010F4F8
:1043D000FE0F0BD1FFE70899D1F89C0040F02000B8
:1043E000C1F89C0001208DF82700F9E008980068CA
:1043F000D0F8B400400658B9FFE70899D1F89C00FE
:1044000040F48070C1F89C0001208DF82700E7E09F
:1044100008980068D0F8B40000F080710120B0EB7B
:10442000116F0DD1FFE708980068D0F8B010012097
:10443000B0EBD17F03D1FFE701200190FFE7FFE759
:1044400008980068D0F8B40000F47C51019800EBA3
:10445000112001900898C26C806F0199514300EBC4
:1044600081000490FFE71AE007980899096D8842D7
:104470000BD3FFE70899D1F89C0040F02000C1F869
:104480009C0001208DF82700AAE00898426DC06FBB
:104490000799514300EB81000490FFE7FFE7FFE736
:1044A0000498006800F080400699486006984068CB
:1044B00038B9FFE704980068C0F38A40069908609D
:1044C00006E00498006820F0604006990860FFE765
:1044D0000498006800F0005006998860049800680D
:1044E00000F0004006990861049804300490049894
:1044F00000880699C86104980068C0F303400699D3
:10450000C8600498006800F4801006994861049817
:10451000006800F400100699886104980068C0F3F0
:1045200006600699086204980068C00F0699486200
:104530000498043004900498039000200290FFE750
:1045400002980699CA6846F23841C0F60101895CB2
:1045500088420AD2FFE70398029A805C0599885442
:10456000FFE7029801300290EAE70798402806D159
:10457000FFE7019808990968C1F8A80021E00798A9
:10458000412806D1FFE7019808990968C1F8B800E9
:1045900016E007981F2808D8FFE7079901208840F0
:1045A00008990968C1F8980009E0079800F01F0110
:1045B0000120884008990968C1F89C00FFE7FFE7DF
:1045C000FFE700208DF827000AE00899D1F89C0049
:1045D00040F00800C1F89C0001208DF82700FFE79B
:1045E0009DF827000AB0704781B0009001B0704775
:1045F00080B594B013904AF61000C4F20000006831
:10460000800712904AF61400C4F200000168129864
:1046100000EA8170129013980068006D00F47040F9
:10462000119013980068416D1198084011901398EB
:104630000068006D00F00F00109013980068416D45
:1046400010980840109013980068006D00F0F0007A
:104650000F9013980068416D0F9808400F901398C1
:104660000068006D00F071500E9013980068416D65
:104670000E9808400E9013980068006D00F060706E
:104680000D9013980068416D0D9808400D90139897
:104690000068406D039013980068006D01909DF8CC
:1046A0000D00C007B8B1FFE79DF80500C00788B14D
:1046B000FFE7FFE7139801684FF4807008654AF63A
:1046C0001001C4F2000100200860FFE71398FFF713
:1046D0008BFFFFE7FFE79DF80D0000F004010020CD
:1046E000B0EB910F28D0FFE79DF8050000F0040122
:1046F0000020B0EB910F1ED0FFE713980068D0F8B0
:10470000DC000B9013980068D0F8E4100B98084078
:104710000B90FFE7139801684FF4806008654AF634
:104720001001C4F2000100200860FFE713980B9904
:1047300000F0D6FEFFE7FFE71298B8B1FFE7FFE70A
:1047400012984FF6FF71C3F6CF71084013990968AC
:1047500008651298800F4AF61001C4F20001086043
:10476000FFE713981299FFF723FDFFE71198B8B1FF
:10477000FFE7FFE711984FF6FF71C3F6CF710840CE
:104780001399096808651198800F4AF61001C4F260
:1047900000010860FFE71398119900F0B1FEFFE7F0
:1047A0001098B8B1FFE7FFE710984FF6FF71C3F616
:1047B000CF7108401399096808651098800F4AF670
:1047C0001001C4F200010860FFE71398109900F08F
:1047D00043FDFFE70F98B8B1FFE7FFE70F984FF6EB
:1047E000FF71C3F6CF7108401399096808650F98E7
:1047F000800F4AF61001C4F200010860FFE7139829
:104800000F9900F07DFDFFE79DF80D0000F0080115
:104810000020B0EBD10F1BD0FFE79DF8050000F0A2
:1048200008010020B0EBD10F11D0FFE7FFE713988C
:1048300001684FF4006008654AF61001C4F20001F7
:1048400000200860FFE7139800F062FEFFE7FFE733
:104850009DF80D0000F002010020B0EB510F28D0B0
:10486000FFE79DF8050000F002010020B0EB510FBA
:104870001ED0FFE713980068D0F8D8000C9013986A
:104880000068D0F8E0100C9808400C90FFE71398EF
:1048900001684FF4007008654AF61001C4F2000187
:1048A00000200860FFE713980C9900F021FEFFE755
:1048B000FFE79DF80E0000F008010020B0EBD10FDB
:1048C0001BD0FFE79DF8060000F008010020B0EBC8
:1048D000D10F11D0FFE7FFE7139801684FF40020D4
:1048E00008654AF61001C4F2000100200860FFE7E5
:1048F000139800F0ADFCFFE7FFE79DF80E00C0073E
:10490000B8B1FFE79DF80600C00788B1FFE7FFE7F1
:10491000139801684FF4803008654AF61001C4F21C
:10492000000100200860FFE7139800F0D5FDFFE7C5
:10493000FFE79DF80E0000F004010020B0EB910F9E
:104940001BD0FFE79DF8060000F004010020B0EB4B
:10495000910F11D0FFE7FFE7139801684FF4802013
:1049600008654AF61001C4F2000100200860FFE764
:10497000139800F0ADFDFFE7FFE79DF80E0000F093
:1049800002010020B0EB510F1FD0FFE79DF8060099
:1049900000F002010020B0EB510F15D0FFE7FFE758
:1049A000139801684FF4003008654AF61001C4F20C
:1049B000000100200860FFE71399D1F89C0040F047
:1049C0008000C1F89C00FFE7FFE70D98B8B1FFE752
:1049D000FFE70D984FF6FF71C3F6CF7108401399AA
:1049E000096808650D98800F4AF61001C4F20001AD
:1049F0000860FFE713980D99FFF772FCFFE70E9828
:104A0000D0B1FFE7FFE70E984FF6FF71C3F6CF7105
:104A100008401399096808650E98800F4AF610013E
:104A2000C4F200010860FFE70E9A1399D1F89C00C8
:104A30001043C1F89C00FFE7139800684AF2000198
:104A4000C4F20001884240F0B980FFE71398406843
:104A500080688007002800F0B080FFE71398406866
:104A6000006A00F00F000A9013984068416A0A98A3
:104A700008400A9013984068006A00F030000990DE
:104A800013984068416A0998084009901398406853
:104A9000006A00F4C070089013984068416A089852
:104AA0000840089013984068006A00F4FC400790A2
:104AB00013984068416A0798084007901398406827
:104AC000006A00F4F020069013984068416A069846
:104AD0000840069013984068406A02901398406816
:104AE000006A00900A9848B1FFE70A98139949684C
:104AF000086213980A9900F0D3FCFFE7099848B1BF
:104B0000FFE709981399496808621398099900F01A
:104B1000D7FCFFE79DF8080000F040010020B0EB53
:104B2000911F1FD0FFE79DF8000000F0400100201A
:104B3000B0EB911F15D0FFE713984068C06B000CD5
:104B4000059013984068C06B00F03F0004901398E4
:104B500041684020086213980599049A00F0A8FC67
:104B6000FFE7FFE7089848B1FFE7089813994968FD
:104B700008621398089900F08BFCFFE7079860B172
:104B8000FFE70798139949680862079A1399D1F8C3
:104B90009C001043C1F89C00FFE7069860B1FFE756
:104BA0000698139949680862069A1399D1F89C00EF
:104BB0001043C1F89C00FFE7FFE7FFE71398D0F828
:104BC0009C0020B1FFE71398FFF786FBFFE714B0C6
:104BD00080BD00000000000080B598B0169046F23D
:104BE0006C31C0F6010101A84C22FBF7E4FC1698D9
:104BF00020B9FFE701208DF85F00D9E11698006821
:104C00004AF20001C4F20001884206D1FFE716997A
:104C1000086800F580704860FFE716988068B0F576
:104C2000407F01D1FFE7FFE71698006C08B1FFE76E
:104C3000FFE71698806C08B1FFE7FFE71698006D54
:104C400008B1FFE7FFE71698006E08B1FFE7FFE73E
:104C50001699C86D096E084408B1FFE7FFE716987A
:104C600090F8980040B9FFE71699002081F8990064
:104C7000169800F0A1F9FFE716980168886920F0FE
:104C80001000886100F034FE1590FFE71698006868
:104C900080690007002817D5FFE700F029FE159965
:104CA000401A0B280FD3FFE71699D1F89C0040F06B
:104CB0000100C1F89C001699032081F8980001209A
:104CC0008DF85F0074E1E1E716980168886940F0AB
:104CD0000100886100F00CFE1590FFE7169800684F
:104CE0008069C007B8B9FFE700F002FE1599401AC5
:104CF0000B280FD3FFE71699D1F89C0040F0010074
:104D0000C1F89C001699032081F8980001208DF8C5
:104D10005F004DE1E2E716980168886940F0020003
:104D200088611698007C012807D1FFE71698016872
:104D3000886920F04000886106E01698016888695B
:104D400040F040008861FFE71698407C012807D1B9
:104D5000FFE716980168886940F48040886106E0A2
:104D600016980168886920F480408861FFE71698EA
:104D7000807C012807D1FFE716980168886920F434
:104D80008050886106E016980168886940F4805078
:104D90008861FFE716980068806920F44070169AD1
:104DA000116892681043886116980168886920F03C
:104DB000A400886116980168086920F01000086155
:104DC0001698C068012807D1FFE71698016888691E
:104DD00040F0040088612BE01698C06830B3FFE70C
:104DE0001698C068022819D0FFE7169801688869EC
:104DF00040F08000886116980168086940F0100052
:104E000008611698C068032807D1FFE71698016863
:104E1000886940F020008861FFE706E01698016885
:104E2000886940F020008861FFE700E0FFE7FFE7C6
:104E3000169A116853699069D2F81CE0A0F1010C30
:104E40006FF0FF0000EB0E2040EA4C60126A013A5E
:104E500010430022CFF6FF7202EB03421043C861F9
:104E600016988068B0F5407F1CD1FFE7169A11684C
:104E7000536A906AD2F82CE001386FF0FF0C0CEB0B
:104E80000E2C40EA0C00D2F830C06FF00F0202EB9B
:104E90000C1210430022CFF6FF7202EB03421043C4
:104EA000C860FFE71698006E48B1FFE716980168E2
:104EB000426ED1F8C0001043C1F8C000FFE7169958
:104EC000C86D096E084480B1FFE716980068D0F8F5
:104ED000C80020F00700169A1168936E01AA52F8D4
:104EE00023201043C1F8C800FFE71698006C80B17A
:104EF000FFE716980068D0F8BC0020F00700169A6B
:104F00001168536C01AA52F823201043C1F8BC0069
:104F1000FFE71698806C88B1FFE716980068D0F814
:104F2000BC0020F07000169A1168D36C01AA52F8E8
:104F3000232040EA0210C1F8BC00FFE71698006D7C
:104F400088B1FFE716980068D0F8BC0020F4E06054
:104F5000169A1168536D01AA52F8232040EA0220E4
:104F6000C1F8BC00FFE7169800684AF20001C4F2DD
:104F70000001884207D1FFE716984168886820F051
:104F800003008860FFE716990020C1F89400169985
:104F9000C1F89C001699012081F898001698FDF739
:104FA0001FFD8DF853009DF853008DF85F00FFE75B
:104FB0009DF85F0018B080BD80B5C6B04590002058
:104FC0004490439042904190409012A8B821FBF742
:104FD00024FB459800684AF20001C4F200018842AF
:104FE0005FD1FFE7002013904FF4004012904FF084
:104FF00080502D9012A802F0DFFA18B1FFE7FDF7FC
:10500000E3FBFFE740F2C400C2F200000168013197
:1050100001600068012810D1FFE7FFE744F2EC408F
:10502000C5F60200016841F480710160006800F477
:10503000807011901198FFE7FFE7FFE744F2E0402E
:10504000C5F60200016841F008010160006800F047
:10505000080010901098FFE7032040900220419034
:1050600000200A90429043900920449040F600406E
:10507000C5F6020040A900F04FFA0A9A13200890E2
:105080000521099100F08CFD089800F07DFD09993B
:105090000A9A15200B9000F083FD0B9800F074FD28
:1050A000D2E0459800684AF20041C4F2000188420B
:1050B0005FD1FFE7002013904FF4004012904FF0B3
:1050C00080502D9012A802F077FA18B1FFE7FDF793
:1050D0007BFBFFE740F2C400C2F20000016801312F
:1050E00001600068012810D1FFE7FFE744F2EC40BF
:1050F000C5F60200016841F480710160006800F4A7
:1051000080700F900F98FFE7FFE7FFE744F2E04061
:10511000C5F60200016841F002010160006800F07C
:1051200002000E900E98FFE7602040900220419010
:1051300000200690429043900920449040F20040A5
:10514000C5F6020040A900F0E7F9069A1420049081
:105150000521059100F024FD049800F015FD059946
:10516000069A1620079000F01BFD079800F00CFD32
:1051700069E0459800684DF20041C4F200018842A0
:1051800060D1FFE7002013904FF4004012904FF0E1
:1051900080502D9012A802F00FFA18B1FFE7FDF72A
:1051A00013FBFFE740F2C400C2F2000001680131C6
:1051B00001600068012810D1FFE7FFE744F2EC40EE
:1051C000C5F60200016841F480710160006800F4D6
:1051D00080700D900D98FFE7FFE7FFE744F2E04095
:1051E000C5F60200016841F008010160006800F0A6
:1051F00008000C900C98FFE74FF4405040900220BC
:1052000041900020029042904390052001904490EC
:1052100040F60040C5F6020040A900F07DF9019972
:10522000029A9F20009000F0BBFC009800F0ACFCBC
:105230000199029AA020039000F0B2FC039800F0BC
:10524000A3FCFFE7FFE7FFE746B080BD00000000DA
:1052500081B0009001B0704780B590B00F900E9172
:105260000F9844F66041C2F20041884245D1FFE701
:105270009DF83800C00700283ED0FFE70F98402176
:1052800004AA02ABFFF734F808B1FFE735E0049851
:10529000B0F5007F2ED9FFE70498C008402829D830
:1052A000FFE7049801388DF80700002000909DF872
:1052B0000700C0EBC00144F61460C2F2004000EBEE
:1052C000810000900098A0B1FFE700998869013043
:1052D000886100988069322805D8FFE7009802A904
:1052E0000FF06EF804E0009802A90FF021F8FFE734
:1052F000FFE700E0FFE7FFE7FFE710B080BD000039
:1053000080B592B011901091119842F61C71C2F2C2
:105310000001884245D1FFE79DF84000C006002803
:105320003ED5FFE71198412106AA04ABFEF7E0FF46
:1053300008B1FFE782E00698B0F5007F2ED9FFE7BD
:105340000698C008402829D8FFE7069801388DF84C
:105350000F00002002909DF80F00C0EBC00144F642
:10536000F460C2F2004000EB810002900298A0B10C
:10537000FFE70299886901308861029880693228C4
:1053800005D8FFE7029804A90FF01AF804E0029884
:1053900004A90EF0CDFFFFE7FFE700E0FFE7FFE71E
:1053A000FFE7119844F60051C2F20041884245D10E
:1053B000FFE79DF84000C00600283ED5FFE71198A2
:1053C000412106AA04ABFEF793FF08B1FFE735E0E1
:1053D0000698B0F5007F2ED9FFE70698C008402850
:1053E00029D8FFE7069801388DF8070000200090C3
:1053F0009DF80700C0EBC00143F2AC60C2F20000B0
:1054000000EB810000900098A0B1FFE70099886947
:105410000130886100988069322805D8FFE700983C
:1054200004A90EF0CDFF04E0009804A90EF080FF5F
:10543000FFE7FFE700E0FFE7FFE7FFE712B080BD0F
:1054400082B00090009890F89800012811D1FFE7F1
:105450000099022081F8980000980168886920F07E
:105460000100886100990020C1F89C008DF80700B8
:105470000AE00099D1F89C0040F00400C1F89C00BB
:1054800001208DF80700FFE79DF8070002B0704784
:1054900082B00190009102B070470000000000004F
:1054A00082B00190009102B070470000000000003F
:1054B00083B002900191009203B070470000000099
:1054C00082B00190009102B070470000000000001F
:1054D00081B0009001B0704781B0009001B070477A
:1054E00082B00190009102B07047000000000000FF
:1054F00082B00190009102B07047000000000000EF
:1055000082B00190009102B07047000000000000DE
:1055100081B0009001B070478FB00E900D910020C7
:105520000C908020C5F600000990FFE70D980068F8
:105530000C99C840002800F0C181FFE70D98006871
:105540000C9A0121914008400B900B98002800F024
:10555000B181FFE70D98406800F00300012807D0F3
:10556000FFE70D98406800F0030002282FD1FFE705
:105570000E9880680A900C984100032000FA01F10F
:105580000A9888430A900D98C0680C99490000FA5F
:1055900001F10A9808430A900A980E9988600E98BB
:1055A00040680A900C99012000FA01F10A9888439A
:1055B0000A900D984068C0F300100C9900FA01F1B0
:1055C0000A9808430A900A980E994860FFE70D98D8
:1055D000406800F00300032818D0FFE70E98C06869
:1055E0000A900C984100032000FA01F10A988843C0
:1055F0000A900D9880680C99490000FA01F10A9808
:1056000008430A900A980E99C860FFE70D98406811
:1056100000F00300022826D1FFE70E980C996FF0E6
:10562000030202EA51010844006A0A900C9800F053
:10563000070081000F2000FA01F10A9888430A90C0
:105640000D9800690C9901F00701890000FA01F139
:105650000A9808430A900A980E990C9B02EA530292
:1056600011440862FFE70E9800680A900C98410008
:10567000032000FA01F10A9888430A900D984068C7
:1056800000F003000C99490000FA01F10A98084360
:105690000A900A980E9908600D9880798007002872
:1056A00000F00781FFE7FFE744F2F440C5F602008F
:1056B000016841F002010160006800F002000890FA
:1056C0000898FFE70C9820F0030040F20841C5F667
:1056D000000140580A900C9800F0030081000F2050
:1056E00000FA01F10A9888430A900E980021C5F645
:1056F0000201884203D1FFE7002007906CE00E987A
:1057000040F20041C5F60201884203D1FFE70120C3
:1057100006905EE00E9840F60001C5F60201884250
:1057200003D1FFE70220059050E00E9840F60041BB
:10573000C5F60201884203D1FFE70320049042E04E
:105740000E9841F20001C5F60201884203D1FFE73D
:105750000420039034E00E9841F20041C5F60201A6
:10576000884203D1FFE70520029026E00E9841F61B
:105770000001C5F60201884203D1FFE7062001902F
:1057800018E00E9841F60041C5F60201884203D1A7
:10579000FFE7072000900AE00E9942F20042C5F6AA
:1057A00002020A20914208BF09200090FFE70098FA
:1057B0000190FFE701980290FFE702980390FFE74E
:1057C00003980490FFE704980590FFE7059806907A
:1057D000FFE706980790FFE707980C9901F003018F
:1057E000890000FA01F10A9808430A900A980C9976
:1057F00021F0030140F20842C5F6000288504FF044
:10580000B04000680A900B990A9888430A900D9856
:105810008079C006002805D5FFE70B990A98084350
:105820000A90FFE70A984FF0B04108600420C5F6DF
:10583000000000680A900B990A9888430A900D9816
:1058400080798006002805D5FFE70B990A98084360
:105850000A90FFE70A980421C5F60001086009983C
:1058600040680A900B990A9888430A900D988079AD
:105870008007002805D5FFE70B990A9808430A908E
:10588000FFE70A9809994860099800680A900B99FF
:105890000A9888430A900D988079C00728B1FFE7DD
:1058A0000B990A9808430A90FFE70A98099908603B
:1058B000FFE7FFE70C9801300C9037E60FB0704718
:1058C00082B00190ADF802108DF801209DF8010022
:1058D00028B1FFE7BDF802000199886105E0BDF835
:1058E0000200000401998861FFE702B070470000E0
:1058F00048F6A830C2F200000068704700000000BF
:1059000040F23410C2F20040027848F6A831C2F2E8
:1059100000010868104408607047000000000000A3
:1059200080B582B0032000F053F903F021F944F26E
:105930001842C5F602021168C1F3032346F228415A
:10594000C0F60101CB5C03F01F03D8400090009823
:10595000126802F00F02895C01F01F01C84040F29A
:105960002401C2F200010860009840F20401C2F272
:10597000004108600F2000F013F820B1FFE701207C
:105980008DF8070005E000F0E3F800208DF807002F
:10599000FFE79DF8070002B080BD00000000000096
:1059A00080B590B00E900E980F2810D8FFE70E9992
:1059B0001C200090002200F0F3F8009800F0E4F8BA
:1059C0000E9840F23811C2F20041086003E0012055
:1059D0008DF83F004CE0FFE744F2E840C5F60200D6
:1059E000016841F001010160006800F001000190D0
:1059F0000198FFE706A802A903F022F80B9804908B
:105A0000049820B9FFE703F08BF8059004E003F059
:105A100087F840000590FFE705984DF68361C4F2D2
:105A20001B31A0FB01014FF0FF3000EB91400390D0
:105A300043F2EC40C2F200004FF08041016040F2BE
:105A4000E731C1600399416000210161816004F088
:105A50008BF848B9FFE743F2EC40C2F2000004F0D3
:105A600017F98DF83F0003E001208DF83F00FFE7B4
:105A70009DF83F0010B080BD10B581B00090009837
:105A800040784EF69851CEF2000108604EF6A051D3
:105A9000CEF20001086820F001000860009840681C
:105AA0004EF69C52CEF200021060DDF800E09EF847
:105AB0000C0000079EF80B2040EA02609EF80020D0
:105AC0009EF808309EF809C09EF80A4040EAC4409B
:105AD0009EF80D4040EA84409EF80E4040EA444063
