:020000040800F2
:10000000A0A90024D9030008F93B0108190F010831
:10001000913B010831320008D91F0208000000009E
:1000200000000000000000000000000091870108AF
:100030001956000800000000E14B0108499701082B
:10004000F7030008F7030008F7030008F7030008A8
:10005000F7030008F7030008F7030008F703000898
:10006000F7030008F7030008F7030008B940000889
:10007000F7030008F7030008F7030008F703000878
:10008000F7030008F7030008F70300080158000809
:10009000B958000811580008C9580008F7030008AB
:1000A000F7030008F7030008F7030008F703000848
:1000B000C1990108D1990108F7030008F703000866
:1000C000F7030008F7030008F7030008F703000828
:1000D000F703000851D90108F7030008F7030008E7
:1000E000F7030008F703000800000000F70300080A
:1000F000F7030008F7030008F7030008F7030008F8
:10010000F7030008F7030008F7030008F7030008E7
:10011000F7030008F7030008F7030008F7030008D7
:10012000F7030008F7030008F7030008F7030008C7
:10013000F7030008F7030008F7030008F7030008B7
:1001400000000000000000000000000000000000AF
:10015000F7030008F7030008F7030008F703000897
:10016000F7030008F7030008F7030008F703000887
:10017000F7030008A93C0108F7030008000000008D
:10018000F7030008F703000851B8010861B8010837
:10019000F7030008F7030008F7030008F703000857
:1001A000F7030008F7030008F70300080000000049
:1001B000F7030008F7030008F7030008F703000837
:1001C000F7030008F703000800000000000000002B
:1001D0000000000000000000F7030008000000001D
:1001E000000000000000000000000000000000000F
:1001F0000000000000000000F7030008F7030008FB
:10020000F7030008F703000800000000F7030008E8
:10021000F7030008F7030008F7030008F7030008D6
:10022000F703000800000000F703000800000000CA
:10023000F7030008F703000800000000F7030008B8
:10024000F7030008F7030008F7030008F7030008A6
:10025000F7030008F7030008F7030008F703000896
:10026000F7030008F7030008F7030008F703000886
:10027000F7030008F7030008F70300080000000078
:10028000F7030008F7030008F7030008F703000866
:1002900000000000F7030008F7030008000000005A
:1002A00000000000F7030008F703000871B8010818
:1002B00041D90108F7030008F70300083159000885
:1002C00041590008F7030008F703000800F002F89E
:1002D00000F072F814A696E8000CB244B344DA4574
:1002E00001D100F069F8BAE80F000FA696E83000D7
:1002F000A5EB040504EB0607AAEB0704A7F1010729
:100300004FEA15154FEA3414A4F10104AC4201D3AD
:1003100000F052F813F0010F18BFFB1A43F001036D
:1003200000F001F8DBE71847C8600200086102002E
:100330000A444FF0000C10F8013B13F0070408BF0B
:1003400010F8014B1D1108BF10F8015B641E05D0A9
:1003500010F8016B641E01F8016BF9D113F0080F5E
:100360001EBF10F8014BAD1C0C1B09D16D1E58BFF0
:1003700001F801CBFAD505E014F8016B01F8016B27
:100380006D1EF9D59142D6D370470000704700002A
:100390000023002400250026103A28BF78C1FBD88E
:1003A000520728BF30C148BF0B6070471FB525F00A
:1003B0006BFA1FBD10B510BD00F080F91146FFF7B4
:1003C000F5FF22F0B9FC00F09EF903B4FFF7F2FF4D
:1003D00003BC00F0A1F900000A4880470A488047A2
:1003E0000A480047FEE7FEE7FEE7FEE7FEE7FEE716
:1003F000FEE7FEE7FEE7FEE705480649064A074B2B
:10040000704700008157000859980108CD02000884
:1004100098A70020A0A9002498A90020A0A5002446
:1004200053EA020C00F069802DE9F04B4FF0000612
:10043000002B1FBFB3FA83F503FA05F424FA05F67F
:100440005E4012BF1643B2FA82F502FA05F4C5F116
:1004500020051EBF22FA05FC44EA0C04203556EAAA
:10046000044C4FEA144418BF641C4FF000084FF0CE
:100470000009904271EB030C39D3002919BFB1FA7E
:1004800081F701FA07F6B0FA80F700FA07F6C7F12C
:1004900020071EBF20FA07FC46EA0C062037B6FBF1
:1004A000F4FCA7EB0507103F07F01F0BCBF120066C
:1004B0002CFA06F60CFA0BFB44BFB3460026202F9D
:1004C000A4BF5E464FF0000B5BEA060C08BF4FF07E
:1004D000010B19EB0B0948EB0608ABFB027C06FB92
:1004E00002CC0BFB03CCC01B71EB0C01C1E70B462C
:1004F000024641464846BDE8F08B13B5084318BF95
:100500004FF0FF300146AFF30080BDE81C4070475C
:10051000032A40F2308010F0030C00F0158011F82F
:10052000013BBCF1020F624498BF11F801CB00F807
:10053000013B38BF11F8013BA2F1040298BF00F85B
:1005400001CB38BF00F8013B11F0030300F0258018
:10055000083AC0F0088051F8043B083A51F804CB3F
:10056000A0E80810F5E7121D5CBF51F8043B40F805
:10057000043BAFF30080D20724BF11F8013B11F810
:1005800001CB48BF11F8012B24BF00F8013B00F854
:1005900001CB48BF00F8012B704710B5203AC0F0DE
:1005A0000B80B1E81850A0E81850B1E81850A0E846
:1005B0001850203ABFF4F5AF5FEA027C24BFB1E8DF
:1005C0001850A0E8185044BF18C918C0BDE8104022
:1005D0005FEA827C24BF51F8043B40F8043B08BF2B
:1005E0007047D20728BF31F8023B48BF11F8012BF2
:1005F00028BF20F8023B48BF00F8012B70474FF09E
:1006000000020429C0F0128010F0030C00F01B80DF
:10061000CCF1040CBCF1020F18BF00F8012BA8BFED
:1006200020F8022BA1EB0C0100F00DB85FEAC17CB1
:1006300024BF00F8012B00F8012B48BF00F8012B64
:1006400070474FF0000200B5134694469646203995
:1006500022BFA0E80C50A0E80C50B1F12001BFF47B
:10066000F7AF090728BFA0E80C5048BF0CC05DF8E1
:1006700004EB890028BF40F8042B08BF704748BF2F
:1006800020F8022B11F0804F18BF00F8012B7047A3
:1006900070477047704710B500F008F8006810BD4B
:1006A00010B5044600F002F8046010BD0048704721
:1006B0004002002400487047400200247546FFF7BE
:1006C000F9FFAE4605006946534620F0070085460F
:1006D00018B020B5FFF790FEBDE820404FF00006AF
:1006E0004FF000074FF000084FF0000BAC46ACE8AD
:1006F000C009ACE8C009ACE8C009ACE8C00921F009
:1007000007018D46704710B50446AFF300802046C0
:10071000BDE81040FFF759BE01491820ABBEFEE707
:10072000260002007047000082B08DED010A9DEDA9
:10073000010AB5EE400AF1EE10FA07DAFFE79DED87
:10074000010AB1EE400A8DED000A04E09DED010AB8
:100750008DED000AFFE79DED000A02B07047000032
:1007600082B08DED010A9DED010AB5EE400AF1EE71
:1007700010FA07DAFFE79DED010AB1EE400A8DEDB0
:10078000000A04E09DED010A8DED000AFFE79DEDF2
:10079000000A02B07047000080B586B003AA01923B
:1007A0000246019805928DF8131080ED000A002092
:1007B0008DF80B00FFE79DF80B00032825D8FFE715
:1007C0009DF813009DF80B10C840C00708B9FFE75B
:1007D00015E0019805999DF80B2001EB820191ED40
:1007E000120A90ED001A30EE010A03F069FA05983A
:1007F0009DF80B1000EB810080ED0C0AFFE79DF8DF
:100800000B0001308DF80B00D5E706B080BD00006D
:1008100082B08DED000A9DED000A9FED111AB4EE35
:10082000410AF1EE10FA05DDFFE70020C4F2343092
:10083000019011E09DED000A9FED0A1AB4EE410A05
:10084000F1EE10FA05DAFFE70020CCF23430019027
:1008500002E000980190FFE79DED010A02B07047A9
:1008600000003443000034C380B586B08DED040A27
:10087000CDED030A0290029820B1FFE70299002013
:100880000870FFE79DED040A01A8694600F06CF9C5
:1008900058B9FFE7029820B1FFE7029901200870DC
:1008A000FFE700208DF817002AE09DED030A9DED7B
:1008B000011A9FED152A31EE021AB4EE410AF1EE4B
:1008C00010FA0EDBFFE79DED030A9DED001A9FED88
:1008D0000F2A31EE021AB4EE410AF1EE10FA0BDDE6
:1008E000FFE7029820B1FFE7029902200870FFE7B6
:1008F00000208DF8170003E001208DF81700FFE7B6
:100900009DF8170006B080BDBD3786B5BD3786356A
:1009100080B58CB004A9029181ED060AC1ED050AEB
:1009200081ED041AC1ED031A0690069820B1FFE785
:10093000069900200870FFE7029890ED040A9FEDE9
:10094000551AB4EE410AF1EE10FA08DCFFE70298FE
:1009500090ED060AB0EEC00A80ED010A0EE00298A2
:1009600090ED061A90ED050A20EE000AA1EE010AAC
:1009700024F09AFE029880ED010AFFE7029890EDBC
:10098000030A00F041FA029880ED000A90ED000A97
:10099000B5EE400AF1EE10FA12DDFFE7029890ED95
:1009A000010AD0ED040A9FED3C1ADFED3C1A9FEDE1
:1009B0003C2ADFED3C2A21F0B7FF8DF80F0051E013
:1009C000029890ED000AB5EE400AF1EE10FA12DA44
:1009D000FFE7029890ED010AD0ED040A9FED321A6C
:1009E000DFED321A9FED322ADFED322A21F09CFF33
:1009F0008DF80F0035E0029890ED010AD0ED040A61
:100A00009FED251ADFED251A9FED252ADFED252A1A
:100A100021F08AFF014602988DF80E1090ED010A30
:100A2000D0ED040A9FED201ADFED201A9FED202A59
:100A3000DFED202A21F078FF8DF80D009DF80E10D3
:100A40000020019039B1FFE79DF80D00002818BF84
:100A500001200190FFE7019800F001008DF80F00E0
:100A6000FFE7FFE79DF80F0058B9FFE7069820B1B0
:100A7000FFE7069903200870FFE700208DF82F009C
:100A800003E001208DF82F00FFE79DF82F000CB048
:100A900080BD00BF00007A430000484223648643C3
:100AA0000F750543F1F805445E7C5A43C4220A449D
:100AB000A2A48FC23A69B04381B08DED000A9DEDCA
:100AC000000A9FED051A20EE010A9FED041A80EE40
:100AD000010A01B0704700BFDB0F494000003443FA
:100AE00083B0029001910092029830B1FFE7019823
:100AF00018B1FFE7009808B9FFE731E0019890F9D5
:100B0000100000EE100AB8EEC00A029890ED001A2C
:100B100020EE010A009880ED000A019890F9180073
:100B200000EE100AB8EEC00A029890ED011A20EE0D
:100B3000010A009880ED010A019890F9200000EE6A
:100B4000100AB8EEC00A029890ED021A20EE010ACF
:100B5000009880ED020A0298007B00990873FFE775
:100B600003B070470000000080B586B08DED040A28
:100B700003900291039818B1FFE7029820B9FFE7AC
:100B800000208DF817005FE09DED040A00F03CF9AD
:100B90008DED010A9DED010A9FED2D1AB4EE410A7B
:100BA000F1EE10FA0ADBFFE79DED010A9FED291A2D
:100BB000B4EE410AF1EE10FA04DDFFE700208DF8F3
:100BC000170041E09DED010AB5EE400AF1EE10FA82
:100BD0000FDDFFE79FED220AFFF76EFF039880ED20
:100BE000000A9FED1E0AFFF767FF029880ED000ADA
:100BF00026E09DED010AB5EE400AF1EE10FA0FDA9B
:100C0000FFE79FED150AFFF757FF039880ED000AF5
:100C1000B2EE040AFFF750FF029880ED000A0EE0E2
:100C20009FED0D0AFFF748FF039880ED000A9FED46
:100C30000B0AFFF741FF029880ED000AFFE7FFE78C
:100C400001208DF81700FFE79DF8170006B080BD62
:100C5000000078C20000A04202EB7CC274C44C4287
:100C6000000000000000000082B00090009818B959
:100C7000FFE70020019003E0009824300190FFE797
:100C8000019802B070470000B0B584B003900291A3
:100C9000039818B1FFE7029808B9FFE726E0039828
:100CA0005C21FFF7CEFC03990091029B0193186829
:100CB0005A68D3F808C0D3F80CE01C695D694D612F
:100CC0000C61C1F80CE0C1F808C04A60086098697E
:100CD000DA691B6A0B62CA6188610398243000F0EC
:100CE000A7F80399012081F85800FFE704B0B0BDD0
:100CF00080B588B0DDF82CC0DDF828C08DED070A7E
:100D0000CDED060A8DED051A049003910292019330
:100D1000049878B1FFE7039860B1FFE7029848B103
:100D2000FFE7019830B1FFE70A9818B1FFE70B9889
:100D300008B9FFE72DE09DED070A049890ED001A31
:100D400030EE410A00F028F8019880ED000A9DED90
:100D5000060A039890ED001A30EE410A00F01CF8E4
:100D60000A9880ED000A9DED060A9DED051A30EE09
:100D7000010A039890ED001A029890ED002A31EED6
:100D8000021A30EE410A00F007F80B9880ED000AD5
:100D9000FFE708B080BD000081B08DED000AFFE7DD
:100DA0009DED000A9FED141AB4EE410AF1EE10FA1F
:100DB00009DBFFE79DED000A9FED121A30EE010AF4
:100DC0008DED000AECE7FFE79DED000A9FED0B1AA1
:100DD000B4EE410AF1EE10FA09DAFFE79DED000AE0
:100DE0009FED071A30EE010A8DED000AECE79DED4C
:100DF000000A01B0704700BFDB0F4940DB0F49C05C
:100E0000DB0FC940DB0FC9C081B08DED000A9DED3D
:100E1000000A9FED051A20EE010A9FED041A80EEEC
:100E2000010A01B0704700BF00003443DB0F4940A6
:100E300080B582B00190019808B9FFE70AE00198F7
:100E40003421FFF7FEFB0199FE2008700199002074
:100E50004870FFE702B080BD10B59CB01A908DEDD0
:100E6000190ACDED180A8DED171ACDED161A1A983C
:100E700020B9FFE7FF208DF86F00F3E11A9890F892
:100E8000580058B9FFE71A982430FFF7D1FF1A9994
:100E9000FB2081F824008DF86F00E3E11A982430DC
:100EA000FFF7C6FF19981A99C86218981A9908632B
:100EB00017981A9948631A9890ED010A9FEDEB1A5A
:100EC000B4EE410AF1EE10FA0BDDFFE71A9890ED4F
:100ED000020A9FEDE61AB4EE410AF1EE10FA07DCC1
:100EE000FFE71A99FE2081F824008DF86F00B9E120
:100EF0009DED170A9FEDDE1AB4EE410AF1EE10FAED
:100F000041DCFFE700201590189812909DED120A21
:100F1000B0EEC00AB1EE041AB4EE410AF1EE10FAD6
:100F200013DDFFE71A99FC2081F824001A9A0121A9
:100F300082F826101A9A002182F827101A9A0421A2
:100F400082F825108DF86F008CE19DED190AB0EE46
:100F5000C00A9FEDC61AB4EE410AF1EE10FA11DA9A
:100F6000FFE79DED180AB0EEC00A9FEDC01AB4EE7F
:100F7000410AF1EE10FA05DAFFE71A99012081F82B
:100F80002800FFE728E09DED190AB0EEC00A9FEDAA
:100F9000B71AB4EE410AF1EE10FA13DAFFE79DED4D
:100FA000180AB0EEC00A9FEDB11AB4EE410AF1EE94
:100FB00010FA07DAFFE7169815901A99012081F8C0
:100FC000280008E09DED180ADDED190A23F074FDF4
:100FD0008DED150AFFE7FFE79DED150AFFF7DCFE33
:100FE0008DED150A9DED150A23F0BCFE8DED0A0A64
:100FF0009DED190A8DED090A9DED150A24F08CFA74
:101000009DED092A9DED0A1A9DED183A20EE030A7E
:10101000A1EE020A8DED110A9DED110AB1EE400A12
:101020008DED100A9DED170A1A9890ED001A30EE1A
:10103000410A8DED0F0A9DED101A9DED0F0A20EE6D
:10104000000AA1EE010A1A9890ED011A90ED022A09
:10105000A1EE410AA2EE420A31EE011A21EE021A75
:1010600080EE010A8DED0E0A9DED0E0A9FED811AAC
:10107000B4EE410AF1EE10FA0ADBFFE79DED0E0A2D
:101080009FED7D1AB4EE410AF1EE10FA0BDDFFE799
:101090001A99FD2081F824001A9A002182F826105E
:1010A0008DF86F00DEE09DED0E0AFFEE000ACDED3B
:1010B000030AB7EE001A21F0DBFBB0EE401A9DEDFB
:1010C000030A8DED0E1A9DED0E1A91EE410A9FED69
:1010D0006B1A80FE010A24F0E7FA8DED0D0A9DEDF2
:1010E0000D0AB1EE400ADDED0E0A23F0E5FC8DEDB0
:1010F000130A1A9890ED010A8DED050A90ED020A87
:101100008DED040A9DED130A23F02CFE9DED041ACB
:10111000B0EE402A9DED050AA1EE020A8DED0C0A03
:101120001A9890ED020A8DED060A9DED130A24F03F
:10113000F3F9B0EE401A9DED060A20EE010A8DED9E
:101140000B0A9DED100ADDED0F0A23F0B5FC8DEDC5
:10115000070A9DED0B0ADDED0C0A23F0ADFCB0EEA5
:10116000401A9DED070A30EE410A8DED140A9DEDFF
:10117000150AFFF711FE8DED150A9DED140AFFF714
:101180000BFE8DED140A9DED130AFFF705FE8DEDA4
:10119000130A1A990120089081F8260015991A9AC5
:1011A000916314991A9AD16313991A9A11641A992E
:1011B00081F844009DED150ADDED140A9DED131A2A
:1011C000DDF868E00EF10C000EF114010EF11C02C6
:1011D0000EF148030EF14C0C0EF15004EE46CEF821
:1011E0000440CEF800C0FFF783FD08981A9981F8F3
:1011F00054009DED140A1A98D0ED140A2530FFF71B
:1012000033FB58B9FFE71A99FC2081F824001A9A99
:10121000002182F827108DF86F0023E09DED190A58
:10122000DDED180A9DED171ADDED141A1A98253018
:10123000FFF76EFB58B9FFE71A99FC2081F82400EC
:101240001A9A002182F827108DF86F000AE01A9987
:10125000002081F824001A9A012182F827108DF8C5
:101260006F00FFE79DF96F001CB010BDBD378635DC
:1012700000007A43540080BF5400803F000000000B
:1012800080B5AEB02A90ADF8A6102A9828B1FFE735
:10129000BDF8A600382804D8FFE70020ADF8AE005E
:1012A0003BE1EFF310802C902C980390EFF310802B
:1012B00072B62D9000F050FD014609A87C22FFF780
:1012C0006CF944F66C53C2F20003986BD96B1A6C3C
:1012D0005B6C089307920691059046F6FC00C2F2FB
:1012E000000081788DF812100088ADF81000039886
:1012F00010B9FFE762B6FFE79DED050AFFF784FD31
:101300008DED020A9DED060AFFF77EFD8DED010AC7
:101310009DED070AFFF778FD8DED000A0020ADF87E
:10132000A4002A99BDF8A420501CADF8A400A52063
:101330008854BDF8A400ADF8A2002A99BDF8A420F5
:10134000501CADF8A400E12088549DF810002A99A3
:10135000BDF8A420531CADF8A43088549DF81100AA
:101360002A99BDF8A420531CADF8A43088549DF8E8
:1013700012002A99BDF8A420531CADF8A43088545B
:101380009DF89C002A99BDF8A420531CADF8A43008
:1013900088549DF898002A99BDF8A420531CADF8F4
:1013A000A43088542A98BDF8A41008449DED090A79
:1013B00000F0FAF8BDF8A4000430ADF8A4002A98B3
:1013C000BDF8A41008449DED0A0A00F0EDF8BDF840
:1013D000A4000430ADF8A4002A98BDF8A410084475
:1013E0009DED0B0A00F0E0F8BDF8A4000430ADF864
:1013F000A4002A98BDF8A41008449DED0C0A00F042
:10140000D3F8BDF8A4000430ADF8A4002A98BDF8C4
:10141000A41008449DED0D0A00F0C6F8BDF8A40024
:101420000430ADF8A4002A98BDF8A41008449DED3E
:101430000E0A00F0B9F8BDF8A4000430ADF8A4001D
:101440002A98BDF8A41008449DED230A00F0ACF8DA
:10145000BDF8A4000430ADF8A4002A98BDF8A4108B
:1014600008449DED240A00F09FF8BDF8A400043064
:10147000ADF8A4002A98BDF8A41008449DED250AF3
:1014800000F092F8BDF8A4000430ADF8A4002A984A
:10149000BDF8A41008449DED020A00F085F8BDF8DF
:1014A000A4000430ADF8A4002A98BDF8A4100844A4
:1014B0009DED010A00F078F8BDF8A4000430ADF805
:1014C000A4002A98BDF8A41008449DED000A00F07D
:1014D0006BF8BDF8A4000430ADF8A4002A98BDF85C
:1014E000A2100844362100F01FF88DF8A1009DF8E5
:1014F000A1002A99BDF8A420531CADF8A43088544B
:101500002A99BDF8A420501CADF8A4005A20885494
:10151000BDF8A400ADF8AE00FFE7BDF8AE002EB0F8
:1015200080BD00000000000085B00390ADF80A10F7
:1015300000200190039820B9FFE700208DF81300E8
:101540001CE00020ADF80200FFE7BDF80200BDF886
:101550000A1088420EDAFFE70398BDF80210415CDA
:10156000019808440190FFE7BDF802000130ADF892
:101570000200EAE701988DF81300FFE79DF81300D9
:1015800005B070470000000046F63811C2F20001B5
:10159000002008707047000046F63810C2F20000C4
:1015A000007870470000000082B001908DED000AC5
:1015B000019808B9FFE703E0019900980860FFE788
:1015C00002B070470000000080B582B046F63810C7
:1015D000C2F20000007820B1FFE700208DF807007C
:1015E00035E046F6FF00C2F200003921FFF748FE61
:1015F000ADF80400BDF8040020B9FFE700208DF825
:10160000070024E046F63811C2F2000101200870FC
:10161000BDF8042045F69040C2F2000046F6FF01F6
:10162000C2F200010FF0CCFB8DF803009DF803001F
:1016300048B1FFE746F63811C2F2000100200870F9
:101640008DF8070003E001208DF80700FFE79DF803
:10165000070002B080BD000046F63811C2F200015A
:10166000002008707047000080B584B00390039894
:1016700008B9FFE755E044F61060C2F2004090F868
:10168000780048B1FFE744F61060C2F2004090EDE8
:101690001A0A8DED010A04E09FED230A8DED010A7F
:1016A000FFE79DED010A8DED020A039890ED000A17
:1016B0009FED1E1AB4EE410AF1EE10FA0EDBFFE7C1
:1016C0009DED020AB5EE400AF1EE10FA06DAFFE7E8
:1016D00003990020CCF23430086022E0039890EDAA
:1016E000000A9FED131AB4EE410AF1EE10FA0EDC77
:1016F000FFE79DED020AB5EE400AF1EE10FA06DDB5
:10170000FFE703990020C4F23430086008E0039832
:1017100090ED000A00F094F9039880ED000AFFE7CD
:10172000FFE704B080BD00BF00000000BEFF3343F0
:10173000BEFF33C300000000B0B588B00790079823
:1017400008B9FFE779E107984FF4B271FEF779FF26
:1017500044F66C50C2F20000039000F1240106919F
:10176000079A049201684368D0F808C0D0F80CE0EA
:101770000469456955611461C2F80CE0C2F808C0FB
:10178000536011608169C369D0F820C0C2F820C0DD
:10179000D361916190F85800079981F8240044F6CC
:1017A0001063C2F20043059393F87800079981F81B
:1017B000250006988078079981F826000698C07859
:1017C000079981F8270006980079079981F8280081
:1017D00093F87900079981F8290093F87A0007991E
:1017E00081F82A0046F28000C2F20040007B07998F
:1017F00081F82B0006980078079981F82C0006984C
:101800004078079981F82D00079918685A68D3F82D
:1018100008C0C1F838C04A6308630799DDF818C0EA
:10182000DCF80800DCF80C20DCF810C0C1F844C07B
:101830000A64C8630799D8681A695B690B65CA644A
:1018400088640799DDF818C0DCF81400DCF818206B
:10185000DCF81C30DCF820C0C1F860C0CB658A65BC
:101860004865079901F15400643100F0B5FA079911
:10187000DDF818C0DCF82400DCF82820DCF82C3077
:10188000DCF830C0C1F880C0CB678A674867079929
:1018900001F17400843100F0CBFADDF814C007992F
:1018A000DCF82800DCF82C20DCF83030DCF834C020
:1018B000C1F8A0C0C1F89C30C1F89820C1F89400CC
:1018C000079901F19400A43100F086FA059890F888
:1018D000780048B3FFE7079944F6106CC2F2004C59
:1018E000CDF808C0DCF83800DCF83C20DCF84030EB
:1018F000DCF844E0C1F8C0E0C1F8BC30C1F8B82061
:10190000C1F8B4000799DCF84800DCF84C20DCF89A
:101910005030DCF854C0C1F8E0C0C1F8DC30C1F888
:10192000D820C1F8D400FFE7079901F1B400C43111
:1019300000F07EFA079944F6106CC2F2004CCDF824
:1019400004C0DCF86800DCF86C20DCF87030DCF8EF
:1019500074E0C1F8F0E0C1F8EC30C1F8E820C1F85B
:10196000E4000799DCF81800DCF81C20DCF82030D3
:10197000DCF824C0C1F800C1C1F8FC30C1F8F8207F
:10198000C1F8F400079901F1F40001F5827100F04B
:1019900023FADDF804C00799DCF83800DCF83C20B5
:1019A000DCF84030DCF844C0C1F820C1C1F81C317B
:1019B000C1F81821C1F81401079901F58A7001F5E1
:1019C000927100F035FADDF804C00799DCF84800A0
:1019D000DCF84C20DCF85030DCF854E0C1F840E191
:1019E000C1F83C31C1F83821C1F834010799DCF85D
:1019F0005800DCF85C20DCF86030DCF864C0C1F82A
:101A000050C1C1F84C31C1F84821C1F844010799CF
:101A100046F2800CC2F2004CDCF80000DCF8042036
:101A2000DCF80830DCF80CC0C1F860C1C1F85C31EA
:101A3000C1F85821C1F85401FFE708B0B0BD00005B
:101A400082B08DED000A9DED000A9FED111AB4EEF3
:101A5000410AF1EE10FA05DDFFE70020C4F2343050
:101A6000019011E09DED000A9FED0A1AB4EE410AC3
:101A7000F1EE10FA05DAFFE70020CCF234300190E5
:101A800002E000980190FFE79DED010A02B0704767
:101A900000003443000034C380B58AB000200190B8
:101AA0000020C4F2A030029003909FED120AFFF7CD
:101AB00003F88DED040A9FED100AFEF7FDFF8DED92
:101AC000060A9FED0E0AFEF7F7FF8DED080A0120CA
:101AD0008DF81400FF218DF81C108DF8240044F6B9
:101AE0006C50C2F2000001A9FFF7CEF800F0CCF96B
:101AF0000AB080BD000000000000A042000025C325
:101B000080B598B00BA8099080ED0C0AC0ED0B0AC7
:101B100080ED0A1A179844F61061C2F2004108607D
:101B20001698486015988860002028B9FFE7179834
:101B300020F0B2FD58B930E0099890ED0C0AB7EEEC
:101B4000C00A51EC100B20F097FD30B3FFE70020E6
:101B500028B9FFE7169820F09FFD58B91DE00998B5
:101B600090ED0B0AB7EEC00A51EC100B20F084FD8B
:101B700098B1FFE7002028B9FFE7159820F08CFD09
:101B800028BB0AE0099890ED0A0AB7EEC00A51ECAA
:101B9000100B20F071FDD0B9FFE700F0EDF88DF8E3
:101BA0002B0044F61061C2F200410320089081F836
:101BB00079009DF82B0081F87A0000F011FB08985D
:101BC0009DF82B200023194600F0F2F9BDE009989A
:101BD00090ED0C0AD0ED0B0A90ED0A1A44F66C5009
:101BE000C2F200000790DFED5A1AFFF735F90146FF
:101BF00007988DF85310FFF737F813909DF95300AD
:101C0000E8BBFFE71398243044F66C51C2F20001A0
:101C10000FAA0492FEF764FF04980BA9059100F047
:101C200007F90598FFF720FD099890ED000AFEF7E7
:101C300043FF09980499059A80ED040A90ED0C0A77
:101C4000D0ED0B0A90ED0A1A139800F031F900203C
:101C500006908DF82B0044F61061C2F2004181F825
:101C600079009DF82B0081F87A0000F0B9FA069906
:101C70009DF82B20139B084600F09AF965E09DF92A
:101C800053000330D0B9FFE700F076F88DF82B0051
:101C900044F61061C2F200410120039081F87900FE
:101CA0009DF82B0081F87A0000F09AFA03989DF8CD
:101CB0002B20139B002100F07BF945E09DF9530098
:101CC000043030BBFFE700208DF82A00139828B1BC
:101CD000FFE7139840788DF82A00FFE700F04CF8F2
:101CE0008DF82B0044F61061C2F2004102200290F0
:101CF00081F879009DF82B0081F87A0000F070FAE5
:101D000002989DF82A109DF82B20139B00F050F9A3
:101D100019E000F031F88DF82B0044F61061C2F2A2
:101D200000410320019081F879009DF82B0081F893
:101D30007A0000F055FA01989DF82B20139B0021A2
:101D400000F036F9FFE7FFE7FFE718B080BD00BFFE
:101D5000000000000000000044F61060C2F20040E5
:101D6000704700000000000080B500F039FA44F62A
:101D70008C60C2F2004080BD82B044F61060C2F2B6
:101D8000004090F87800E8B1FFE744F61061C2F235
:101D9000004100918869CA690B6AD1F824C0C1F872
:101DA00034C00B63CA628862886DCA6D0B6ED1F84D
:101DB00064C0C1F874C00B67CA66886601208DF8DC
:101DC000070003E002208DF80700FFE79DF80700F9
:101DD00002B070470000000080B582B00190009111
:101DE000019818B1FFE7009808B9FFE71CE00198D7
:101DF00090ED000AFFF708F8009880ED000A0198BE
:101E000090ED010AFFF700F8009880ED010A0198B3
:101E100090ED020AFEF7F8FF009880ED020A0198A3
:101E2000007B00990873FFE702B080BD000000004E
:101E300080B582B001900091019818B1FFE7009839
:101E400008B9FFE71CE0019890ED000AFEF7DCFFFF
:101E5000009880ED000A019890ED010AFEF7D4FF8A
:101E6000009880ED010A019890ED020AFEF7CCFF80
:101E7000009880ED020A0198007B00990873FFE743
:101E800002B080BD0000000080B544F61060C2F2D0
:101E900000407C21FEF7D5FB46F28001C2F20041F2
:101EA0000020C86088604860086000F099F980BD33
:101EB00087B08DED060ACDED050A8DED041A03906D
:101EC00002910192039830B1FFE7029818B1FFE741
:101ED000019808B9FFE768E0069844F61061C2F27D
:101EE00000410091C8600598086104984861DDF8D8
:101EF0000CC0DCF81400DCF81820DCF81C30DCF82E
:101F000020C0C1F824C00B62CA618861DDF80CC032
:101F1000DCF82400DCF82820DCF82C30DCF830C0B9
:101F2000C1F844C00B64CA638863DDF808C0DCF8FC
:101F30000000DCF80420DCF80830DCF80CC0C1F844
:101F400054C00B65CA648864DDF804C0DCF8000086
:101F5000DCF80420DCF80830DCF80CC0C1F864C000
:101F60000B66CA658865DDF80CC0DCF81400DCF887
:101F70001820DCF81C30DCF820C0C1F834C00B633A
:101F8000CA628862DDF804C0DCF80000DCF80420D6
:101F9000DCF80830DCF80CC0C1F874C00B67CA6606
:101FA0008866012081F87800FFE707B070470000DD
:101FB00080B588B08DF81F008DF81E108DF81D209B
:101FC00006939DF81F008DF812009DF81E008DF8F5
:101FD00013009DF81D008DF81400069848B1FFE726
:101FE000069880788DF815000698C0788DF8160050
:101FF00005E000208DF815008DF81600FFE744F687
:102000001060C2F2004090F878008DF81700902020
:1020100001900DF1120102910622039200F010F8D6
:1020200001980299039A00F003F808B080BD0000FF
:1020300083B08DF80B000191ADF8022003B070471A
:1020400080B584B08DF80F000291ADF806209DF8A0
:102050000F0002999DF8062017F08EF904B080BD9C
:1020600080B584B001A981ED020AC1ED010A81EDBC
:10207000001A8DF80300039846F28001C2F2004175
:10208000086002984860019888609DF80300002865
:1020900018BF0120087300F0A3F804B080BD000051
:1020A00080B5A0B01CAA019282ED020AC2ED010A1D
:1020B00082ED001A1B901A911B9820B1FFE71B9923
:1020C000FE200870FFE71A9820B1FFE71A99002058
:1020D0000870FFE7002028B9FFE71E9820F0DCFA1F
:1020E00058B930E0019890ED020AB7EEC00A51EC01
:1020F000100B20F0C1FA30B3FFE7002028B9FFE74A
:102100001D9820F0C9FA58B91DE0019890ED010A18
:10211000B7EEC00A51EC100B20F0AEFA98B1FFE711
:10212000002028B9FFE71C9820F0B6FA78B90AE039
:10213000019890ED000AB7EEC00A51EC100B20F0A8
:102140009BFA20B9FFE700208DF87F0041E044F6BC
:102150006C50C2F2000090F8580058B9FFE71B9885
:1021600020B1FFE71B99FB200870FFE700208DF8E6
:102170007F002EE044F66C51C2F2000103A80090EB
:102180005C22FEF70AFA0199009891ED020AD1ED5E
:10219000010A91ED001ADFED111AFEF75DFE8DF8D0
:1021A0000B001B9828B1FFE79DF80B001B990870E6
:1021B000FFE71A9828B1FFE79DF831001A990870D7
:1021C000FFE79DF90B00B0FA80F040098DF87F0021
:1021D000FFE79DF87F0020B080BD00BF0000000039
:1021E00080B544F68C60C2F20040FFF7A5FA80BDCE
:1021F00080B586B08DF8170045F2BC70C2F2004081
:1022000090ED030AB8EEC00A9FED291A20EE010AEC
:102210008DED040A90ED0A0AB8EEC00A9FED251A6A
:1022200020EE010A8DED030A90ED110AB8EEC00A06
:1022300020EE010A8DED020A9DED040A9FED1E1AA3
:10224000B4EE410AF1EE10FA05DDFFE70020C4F21A
:10225000343004900FE09DED040A9FED181AB4EE9F
:10226000410AF1EE10FA05DAFFE70020CCF2343033
:102270000490FFE7FFE79DF8172044F6FC51C2F2F7
:10228000004144F65050C2F20000012A08BF08463F
:10229000019021F0A5FD0498019908600398019927
:1022A000486002980199886021F0C6FD06B080BDA3
:1022B000402F81B974F7EF3900003443000034C374
:1022C00080B584B044F67C50C2F2004090F9000022
:1022D00001282FD0FFE745F2D461C2F2004100206F
:1022E0000290086045F68C61C2F20001086045F278
:1022F000D861C2F20041086044F66051C2F20001A8
:10230000086044F60C61C2F20041086044F6645172
:10231000C2F20001086045F67C61C2F2000108606B
:102320004860886044F65051C2F20001086048607D
:102330008860C5E044F60C50C2F20000007808B98D
:10234000FFE7BDE046F6FC20C2F2000090ED000A77
:1023500044F67450C2F2004090ED001AB4EE410A07
:10236000F1EE10FA53D1FFE74AF2A810C2F2004092
:1023700090ED000A44F60850C2F2000090ED001AF9
:10238000B4EE410AF1EE10FA41D1FFE746F604300F
:10239000C2F2000090ED000A44F67850C2F200400C
:1023A00090ED001AB4EE410AF1EE10FA2FD1FFE7DA
:1023B00045F2D461C2F2004100200190086045F668
:1023C0008C61C2F20001086045F2D861C2F200419E
:1023D000086044F66051C2F20001086044F60C61E6
:1023E000C2F20041086044F66451C2F20001086084
:1023F00045F67C61C2F2000108604860886044F6DE
:102400005051C2F2000108604860886058E044F60C
:102410007450C2F2004090ED000A44F60850C2F237
:102420000000D0ED000A44F67850C2F2004090ED72
:10243000001AFFF765FBFFF78FFC0390039890F8F5
:102440007800E0B3FFE744F67C50C2F2004090F918
:10245000000001281BD1FFE70398806A45F67C61E4
:10246000C2F2000108600398C06A48600398006BDC
:1024700088600398806E44F65051C2F200010860F3
:102480000398C06E48600398006F88600FE045F6BF
:102490007C61C2F20001002008604860886044F658
:1024A0005051C2F20001086048608860FFE7FFF702
:1024B00073F818B9FFE7FFF787F8FFE7FFE7FFE7D3
:1024C00004B080BD0000000080B584B08DED030A2B
:1024D000CDED020A8DED011A4AF2A410C2F20040BD
:1024E00090ED000A9DED031AB4EE410AF1EE10FAE8
:1024F00030D1FFE746F60030C2F2000090ED000A4E
:102500009DED021AB4EE410AF1EE10FA22D1FFE776
:102510004AF2AC10C2F2004090ED000A9DED011AA3
:10252000B4EE410AF1EE10FA14D1FFE721F058FCA5
:1025300045F2C461C2F20041002008604860886032
:1025400044F6FC51C2F2004108604860886021F006
:1025500073FC2FE09DED030ADDED020A9DED011AEB
:10256000FFF7CEFAFFF7F8FB0090009890F878009C
:10257000F8B1FFE721F034FC0098806A45F2C461AD
:10258000C2F2004108600098C06A48600098006B81
:1025900088600098806E44F6FC51C2F200410860E9
:1025A0000098C06E48600098006F886021F044FC7D
:1025B000FFE7FFE704B080BD82B00090009820B92B
:1025C000FFE7FF208DF807002AE00098006841F23D
:1025D0000001C4F20101884204D1FFE700208DF818
:1025E00007001DE00098006847F60041C4F20001B2
:1025F000884204D1FFE701208DF8070010E0009821
:10260000006841F60001C4F20101884204D1FFE7ED
:1026100002208DF8070003E0FF208DF80700FFE798
:102620009DF8070002B0704780B582B08DF80300B6
:102630009DF8030000F014F818B9FFE7002001909E
:1026400009E09DF8031046F63A10C2F2000000EBD4
:1026500041100190FFE7019802B080BD000000002A
:1026600081B08DF803009DF803100020032938BFC6
:10267000012001B07047000080B584B08DF80E00D5
:102680009DF80E00FFF7ECFF20B9FFE701208DF861
:102690000F0026E09DF80E1045F65450C0F60200DB
:1026A00050F8210002909DF80E0046F63A11C2F251
:1026B000000101EB4012430100200190C850D0619D
:1026C000906150611061D0609060506002989DF8F8
:1026D0000E2001EB421120220DF006FA8DF80F00BA
:1026E000FFE79DF80F0004B080BD0000000000006F
:1026F00080B584B08DF80E000291ADF806200093ED
:102700009DF80E00FFF7ACFF38B1FFE7029820B14B
:10271000FFE7BDF8060020B9FFE701208DF80F00A4
:1027200010E09DF80E1045F65450C0F6020050F827
:1027300021000299BDF80620009B0EF0A5FA8DF845
:102740000F00FFE79DF80F0004B080BD00000000FF
:1027500070B5A2B020901F911E921D9344F60D50AB
:10276000C2F20000007808B9FFE7E1E1EFF3108062
:1027700072B6219044F67E51C2F200410DF14D0037
:102780002722FDF7C5FE44F60D51C2F200010020DC
:10279000087062B6FF218DF84C108DF83300FFE70A
:1027A0009DF83300072814D8FFE79DF833100DF18A
:1027B0004D00405C012805D1FFE79DF833008DF8FE
:1027C0004C0006E0FFE79DF8330001308DF8330040
:1027D000E6E79DF8550044F67C55C2F200450995A0
:1027E00028709DF8560044F20554C2F2000420708F
:1027F0009DF857004AF2B111C2F2004107910870EA
:102800009DF8580046F60A31C2F2000103910870A3
:102810009DF8590044F6BD51C2F200410491087080
:102820009DF85A0044F64C51C2F20001059108701F
:102830009DF85B0044F6BC51C2F20041069108705D
:102840000DF14D0002900F3021F01EF802988DED31
:10285000120A133021F018F802988DED110A173082
:1028600021F012F802988DED100A1B3021F00CF8BF
:1028700002988DED0F0A1F3021F006F802988DEDB9
:102880000E0A233021F000F8DDF80CC0049B059AF5
:102890000698DDF81CE08DED0D0A9DF84C6044F6BD
:1028A000C051C2F2004108910E70129E4E60119EFE
:1028B0008E60109ECE600F9E0E610E9E4E610D9E2C
:1028C0008E612D780D7724784C779EF800E081F8A2
:1028D0001EE09CF800C081F81FC01B7881F82030F2
:1028E000127881F82120007881F82200486A0130AE
:1028F000486208F001F9089A01460998D16201215D
:1029000082F82810002182F8381046F6C822C2F258
:102910000002117044F60C52C2F20002117090F9DC
:102920000000012836D1FFE744F20550C2F2000052
:10293000007878BBFFE79DED0F0ADDED0E0A9DEDF7
:102940000D1A00210846FFF7ABFBC8B1FFE70F984F
:1029500044F67451C2F2004108600E9844F60851E2
:10296000C2F2000108600D9844F67851C2F20041AD
:10297000086044F60C51C2F200010120087008E022
:102980009DED0F0ADDED0E0A9DED0D1AFFF7B8F86B
:10299000FFE71AE044F67C50C2F2004090F90000D4
:1029A000012811D0FFE744F67451C2F20041002023
:1029B000086044F60851C2F20001086044F67851FC
:1029C000C2F200410860FFE7FFE744F20550C2F29F
:1029D000000000780138B0FA80F0400901F0CCF92D
:1029E00040F20800C2F200400078012824D1FFE73D
:1029F0009DF84C109DED120ADDED110A9DED101AA7
:102A000045F2F020C2F2004012F01EF944F6BD502B
:102A1000C2F20040017844F64C50C2F20000027845
:102A200044F6BC50C2F20040037845F29020C2F256
:102A3000004012F015FB0CE045F2F020C2F200401D
:102A400013F01EFC45F29020C2F2004012F074FB1D
:102A5000FFE740F20800C2F200400078012867D189
:102A6000FFE74AF2B110C2F2004001900178002065
:102A700017F022FF01980078012828D1FFE70020F5
:102A800017F096FD0B9046F60A30C2F2000000786F
:102A900048B9FFE70B98007828B1FFE70B980021B1
:102AA00020F0CEFF12E046F60A30C2F200000078B5
:102AB00001280AD1FFE70B980078012805D0FFE72D
:102AC0000B98012120F0BCFFFFE7FFE72FE04AF25F
:102AD000B110C2F20040007840BBFFE7002017F0C1
:102AE0007BFD0A9046F60A30C2F20000007848B931
:102AF000FFE70A98007828B1FFE70A98002120F044
:102B0000E3FF12E046F60A30C2F200000078012826
:102B10000AD1FFE70A980078012805D0FFE70A9854
:102B2000012120F0D1FFFFE7FFE7FFE7FFE7FFE725
:102B300022B070BD0000000080B586B00590049101
:102B40008DF80F200293059808B9FFE7C0E00598BB
:102B5000C07A88B1FFE79DF80F0016F089FD58B9DB
:102B6000FFE7049820B1FFE7049813F089FBFFE723
:102B700005990020C872FFE79DF80F0005990870BD
:102B800005990020C8700299059A1161059988720B
:102B9000059948720599C8729DF80F00002877D0F2
:102BA000FFE79DF80F00152872D8FFE79DF80F107A
:102BB00045F67050C0F6020000EB4110203801903D
:102BC0000598019991ED020AD1ED030A91ED041ADD
:102BD000D1ED051A16F0A8FC0198007928B9FFE795
:102BE0000198407901F0A0F84EE0019800790128A1
:102BF0000CD1FFE701F090F8059800F035FF05983B
:102C0000019991ED060A16F06FFC3CE001980079FD
:102C1000022837D1FFE7049860B9FFE705990879E2
:102C200040F004000871059900208870059917206C
:102C3000087026E0049813F023FB049813F068F959
:102C40000498042113F078FA04980199D1ED060A4A
:102C50009FED201AB0EE410A13F06AF920B9FFE7A0
:102C600005990120C8720BE00599087940F004002D
:102C70000871059900208870059917200870FFE7F2
:102C8000FFE7FFE7FFE7FFE705981FF02DF91FE0DB
:102C90009DF80F00162817D1FFE7059900208870CE
:102CA00005990120C8700598BAEE040A16F0F8FBE1
:102CB000059800F0D9FE05989FED060A16F014FC61
:102CC00005981FF011F903E005981FF00DF9FFE7D3
:102CD00006B080BD0000000080B58CB00B900A915A
:102CE0008DF8272008930B9808B9FFE745E10B986A
:102CF0001FF0FAF80B98C07A58B1FFE70A9820B194
:102D0000FFE70A9813F0BCFAFFE70B990020C8729E
:102D1000FFE70B98012141700B9A002090700B9AED
:102D200050710B9A90710B9A10700B9AD070089A90
:102D30000B9B1A619DF827200B9B5A720B9A91727C
:102D40000B99C8720B9908719DF82700013801464C
:102D500007910F2800F2FF800799DFE811F01000BB
:102D6000190024002F003A0045005000590064006B
:102D70006F006F006F00D400DD00E800F3000F204B
:102D800000F0D2FF0B989FED820A16F089FBF0E06D
:102D90000F20069000F0C8FF06990B98B2EE040AC7
:102DA000FDF7FAFCE5E00F20059000F0BDFF059966
:102DB0000B98BAEE040AFDF7EFFCDAE000F0ACFF86
:102DC0000B9800F051FE0B98B3EE0E0A16F08CFB38
:102DD000CFE000F0A1FF0B9800F046FE0B98B2EE9A
:102DE000040A16F081FBC4E000F096FF0B9800F097
:102DF0003BFE0B98BAEE040A16F076FBB9E0092008
:102E000000F092FF0B989FED5E0A16F079FBB0E0A0
:102E10000920049000F088FF04990B98B2EE040A90
:102E2000FDF7BAFCA5E00920039000F07DFF0399AF
:102E30000B98BAEE040AFDF7AFFC9AE00A9860B965
:102E4000FFE70B99087940F0040008710B99002006
:102E500088720B99172008708BE00A9813F010FA0B
:102E60000A9813F055F80A98042113F065F99DF8B3
:102E700027000A2810D1FFE70A98DFED440A9FEDEA
:102E8000401AB0EE410A13F053F820B9FFE70B994E
:102E90000120C872FFE725E09DF827000B2810D11C
:102EA000FFE70A98DFED380A9FED351AB0EE410AC8
:102EB00013F03EF820B9FFE70B990120C872FFE735
:102EC0000FE00A98DFED2F0A9FED2D1AB0EE410AB0
:102ED00013F02EF820B9FFE70B990120C872FFE725
:102EE000FFE7FFE70B98C07A60B9FFE70B99087915
:102EF00040F0040008710B99002088720B9917208C
:102F00000870FFE735E0062000F00EFF0B989FEDFC
:102F10001C0A16F035FB2CE00620029000F004FF9E
:102F200002990B98B2EE040AFDF736FC21E0062068
:102F3000019000F0F9FE01990B98BAEE040AFDF732
:102F40002BFC16E00F2000F0EFFE0B989FED0C0A13
:102F500016F0A6FA0DE00B99087940F0040008710C
:102F60000B99002088720B9948720B9917200870F2
:102F7000FFE70B981EF0B8FFFFE70CB080BD00BF65
:102F800000000000CDCC4CBDCDCC4C3DCDCCCC3DDB
:102F900000005C430000000080B586B005908DF80D
:102FA000131003920293029808B9FFE73DE10298DB
:102FB0009021FDF746FB9DF8130002990870002050
:102FC000009016F0F1FA0299886111F005FE0146B1
:102FD0000098029A5172029A4FF24911C4F2E741E5
:102FE000D164029A45F6B401C4F2B74111658DF877
:102FF0000700FFE79DF80700032813D8FFE79DF8B7
:10300000072045F66050C0F6020050F822000299F1
:1030100001EB82014865FFE79DF8070001308DF85C
:103020000700E7E700208DF80700FFE79DF807009D
:10303000012813D8FFE79DF8072045F64C50C0F64D
:10304000020050F82200029901EB82014866FFE776
:103050009DF8070001308DF80700E7E70398E8B313
:10306000FFE700208DF80700FFE79DF80700032821
:1030700015D8FFE703989DF8071000EB4100B0F862
:10308000840002999DF8072001EB4201A1F8840019
:10309000FFE79DF8070001308DF80700E5E7002005
:1030A0008DF80700FFE79DF80700012815D8FFE716
:1030B00003989DF8071000EB4100B0F88C000299CE
:1030C0009DF8072001EB4201A1F88C00FFE79DF875
:1030D000070001308DF80700E5E7FFE7059808B91C
:1030E000FFE7A2E0059800780299487005984078BB
:1030F00002998870059880780299C8700598C07800
:1031000002990871059800790299487105984079EB
:103110000299C8710598807902990872059800692A
:103120000299C8600598406902990861059800787D
:1031300016F03AFA02998861059811F0D1FE0299C9
:1031400088710598007828B1FFE70598007816285F
:1031500008D1FFE70598807A20B9FFE7029900209F
:10316000486106E0059801694069401A0299486182
:10317000FFE700208DF80700FFE79DF80700032810
:1031800025D8FFE705989DF8072000EB8200806CAA
:10319000029901EB8201C86105989DF8072000EBB8
:1031A0008200006B029901EB8201C86205989DF8CC
:1031B000072000EB82008069029901EB8201C8665A
:1031C000FFE79DF8070001308DF80700D5E70020E4
:1031D0008DF80700FFE79DF80700012825D8FFE7D5
:1031E00005989DF8072000EB8200806D029901EBA5
:1031F0008201C86305989DF8072000EB8200006CEF
:10320000029901EB8201486405989DF8072000EBC4
:103210008200806A029901EB8201C867FFE79DF88E
:10322000070001308DF80700D5E706B080BD00002B
:10323000FFE7FEE70000000080B5B4B028A90A91BE
:10324000339041F288301FF0D7FD4FF2BB50C3F6E8
:10325000EF10329045F69940C3F68110319046F652
:103260002260C3F6D6103090FFE7002009902F901F
:103270002E902D902C902B902A90299028908DF8AC
:103280002F008DF82E0002208DF82D0020F0A8FDD3
:1032900040F20800C2F20040007801282BD1FFE77D
:1032A00045F2F023C2F20043D3F8F400D3F8F8104B
:1032B000D3F8FC20D3F800312F932E922D912C902F
:1032C00045F29021C2F2004110A86022FDF765F995
:1032D00044F65050C2F200000168299141682A91D9
:1032E00080682B9001208DF82F008DF82E00002093
:1032F0008DF82D0032E044F20450C2F20000007854
:1033000001282AD1FFE744F66C73C2F20003D3F818
:10331000F400D3F8F810D3F8FC20D3F800312F9341
:103320002E922D912C9044F60C71C2F2000110A83F
:103330006022FDF732F944F6FC50C2F20040016809
:10334000299141682A9180682B9001208DF82F00E7
:103350008DF82E008DF82D00FFE7FFE717F010F92C
:103360000A9880ED000A20F067FD9DF82F000028E4
:1033700045D0FFE70A9890ED050AB1EE400A90EDBE
:10338000081A80EE010A012011F046FB0A98BDEEF2
:10339000C00A10EE101A069190ED070AB1EE400A2D
:1033A00090ED081A80EE010A022011F035FB0A9810
:1033B000BDEEC00A10EE101A079190ED060A90EDCE
:1033C000081A80EE010A032011F026FB0A98BDEED0
:1033D000C00A10EE101A089190ED040A90ED081A38
:1033E00080EE010A042011F017FB06980799089A4D
:1033F000BDEEC00A10EE103A02F0D6F906E0002346
:10340000184619461A4602F0CFF9FFE79DF82E003C
:1034100028B1FFE710A80CA911F056FC53E09FED6E
:10342000580A8DED050A012011F022FBB0EE401A7A
:103430009DED050ABDEEC11A11EE100AADF830007F
:10344000022011F015FBB0EE401A9DED050ABDEE0D
:10345000C11A11EE100AADF83200032011F008FB7A
:10346000B0EE401A9DED050ABDEEC11A11EE100A2C
:10347000ADF83400042011F0FBFAB0EE401A9DEDD7
:10348000050ABDEEC11A11EE100AADF8360005208E
:1034900011F0EEFAB0EE401A9DED050ABDEEC11A2C
:1034A00011EE100AADF83800062011F0E1FABDEE79
:1034B000C00A10EE100AADF83A000020ADF83C004A
:1034C000ADF83E00FFE79DF82D000CA911F068FD56
:1034D000BDF93000BDF93210BDF93420BDF93630E8
:1034E00002F09EF9BDF93800BDF93A1000231A46E2
:1034F00002F0B6F90A9890ED010AFDF789F90A98E9
:10350000B1EE400A90ED091A80EE010A0120049004
:103510001FF00AFD0A98BDEEC00A10EE101A0191C4
:1035200090ED020A90ED0A1A80EE010A02201FF0C7
:10353000FBFC0A98BDEEC00A10EE101A029190ED45
:10354000030A90ED0A1A80EE010A03201FF0ECFC3A
:103550000A98BDEEC00A10EE101A039190ED000A11
:1035600004201FF0E1FC01980299039ABDEEC00A05
:1035700010EE103A02F0B0F904981FF03DFC74E62A
:10358000000000000000000080B586B004900391A8
:1035900000200290049818B1FFE7039818B9FFE7DC
:1035A0000020059027E0FFE70298039988421FD288
:1035B000FFE769460DF10700086047F29C00C2F280
:1035C000004046F69C11C2F2000146F29C02C2F293
:1035D00000424FF4805313F007FC08B9FFE707E0FF
:1035E0009DF807000499029A531C02938854DBE764
:1035F00002980590FFE7059806B080BD0000000026
:1036000080B548F21810C2F20040006846F6BC11BE
:10361000C2F2000109684FF4805213F0D5FB80BD5F
:1036200080B584B045F22030C2F20000D0F8BC0270
:1036300008B9FFE77AE045F22030C2F20000D0F886
:10364000BC02039046F6B810C2F20000006808B150
:10365000FFE76BE00398D0F8140208B1FFE765E0DC
:1036600048F21810C2F20040006846F6BC11C2F2DF
:10367000000109684FF4805213F026FC0290029872
:1036800008B9FFE752E048F21810C2F200400068A3
:1036900046F6BC11C2F20001096888420DD9FFE765
:1036A00048F21810C2F20040006846F6BC11C2F29F
:1036B00000010968401A019008E046F6BC10C2F209
:1036C00000000068C0F580500190FFE70198029962
:1036D000884203D9FFE702980190FFE70198B0F50F
:1036E000007F04D9FFE74FF400700190FFE746F632
:1036F000BC10C2F20000016847F21810C2F200408C
:103700000144BDF8042045F22030C2F200000090D0
:103710001AF02AFD00981AF033FE38B9FFE7019835
:1037200046F6B811C2F200010860FFE704B080BDA0
:1037300080B586B004900391049818B1FFE7039810
:1037400020B9FFE701208DF817003FE048F218107C
:10375000C2F20040006846F6BC11C2F200010968DE
:103760004FF4805213F030FB019003980199884286
:1037700004D9FFE700208DF8170027E00020029011
:10378000FFE70298039988421AD2FFE7049802994A
:10379000405C6946086048F21810C2F2004046F6E4
:1037A000BC11C2F2000147F21812C2F200424FF4FB
:1037B000805313F059FBFFE7029801300290E0E7D5
:1037C000FFF72EFF01208DF81700FFE79DF8170087
:1037D00006B080BD0000000084B08DF80F0002919B
:1037E000ADF80620FFE7012008B9FFE7FBE79DF8E9
:1037F0000F000146009123282FD80099DFE801F03F
:1038000012131415162D2D2D2D2D2D2D2D2D2D2D65
:103810002D2D2D2D2D2D2D2D2D2D2D2D2D2D2D2DD8
:1038200017182B2C1AE019E018E017E016E015E045
:10383000029900200870029AC2215170029A012157
:1038400091700299C87002990871029948710299A1
:103850000820887102E001E000E0FFE7002004B0EA
:1038600070470000000000000020704700000000CA
:1038700080B582B045F22030C2F20000009044F2E0
:103880007451C2F20041002201921AF06DFC0098BE
:1038900044F20651C2F200011AF046FC0199009868
:1038A00047F29C02C2F20042116046F69C12C2F23C
:1038B0000002116048F21812C2F20042116046F68E
:1038C000BC12C2F20002116046F6B812C2F2000247
:1038D000116046F29802C2F2004211601AF0C8FB71
:1038E000019802B080BD000080B586B005900491BB
:1038F00000200390FFE7039804990968884224D2C6
:10390000FFE705980399405C6946086047F29C0010
:10391000C2F2004046F69C11C2F2000146F29C023F
:10392000C2F200424FF4805313F09EFA40B9FFE711
:1039300046F29801C2F20041086801300860FFE7D2
:10394000FFE7039801300390D5E7059945F2203051
:10395000C2F2000002901AF0E7FB02981AF088FB0E
:10396000002006B080BD000080B584B003900291B5
:103970008DF8072000208DF8060046F6BC13C2F231
:1039800000031A6846F6B811C2F20001D1F800C06F
:1039900062446FF31F321A600860FFF741FE9DF921
:1039A000060004B080BD000084B00290ADF806109F
:1039B0004FF6FF70ADF80400029820B1FFE7BDF8A4
:1039C000060028B9FFE7BDF80400ADF80E0047E097
:1039D0000020ADF80200FFE7BDF80200BDF80610B8
:1039E000884238DAFFE70298BDF80210415CBDF862
:1039F00004004840ADF8040000208DF80100FFE706
:103A00009DF8010007281FD8FFE7BDF80400C00794
:103A100068B1FFE7BDF804004008ADF80400BDF848
:103A200004004AF201014840ADF8040005E0BDF889
:103A300004004008ADF80400FFE7FFE79DF801002F
:103A400001308DF80100DBE7FFE7BDF8020001302F
:103A5000ADF80200C0E7BDF80400ADF80E00FFE7C6
:103A6000BDF80E0004B0704781B0009045F690603C
:103A7000C2F20000C16F009A9162D0F898000099DC
:103A8000C86201B07047000082B0019000208DF83C
:103A90000300FFE79DF80300032816D8FFE79DF811
:103AA0000320C2EBC20145F69060C2F2000000EBB9
:103AB0008100C068019901EB82018861FFE79DF8F0
:103AC000030001308DF80300E4E702B07047000006
:103AD00081B00090009808B9FFE720E046F2F86056
:103AE000C2F200004168009A11608168009A51603A
:103AF000C168009A916000690099C86046F2280088
:103B0000C2F200404168009A11618168009A5161D7
:103B1000C168009A916100690099C861FFE701B02E
:103B2000704700000000000080B546F2F860C2F265
:103B3000000010F001FD46F22800C2F2004010F033
:103B4000FBFC80BD0000000080B596B08DED150A2D
:103B500068460EF041F89DED0D0ADDED150A46F2BE
:103B60002800C2F2004010F0B3FB16B080BD000088
:103B700080B582B00190019808B9FFE722E0019872
:103B8000006846F2F861C2F200014860019840689E
:103B9000886001988068C8600198C06808610198D1
:103BA000006946F22801C2F200414860019840696C
:103BB000886001988069C8600198C0690861FFF752
:103BC000B3FFFFE702B080BD80B598B08DED170A56
:103BD00002A80EF001F89DED170A9DED0C1A30EECB
:103BE000410A8DED010A9DED010A02F0B5F98DED56
:103BF000010ADDED010A46F2F860C2F200009FED15
:103C0000090A10F065FB8DED000A9DED0F0ADDED50
:103C1000000A46F22800C2F2004010F059FB18B02A
:103C200080BD00BF0000000082B0ADF80400ADF818
:103C30000210ADF80020BDF90400BDF90210884261
:103C40000BDBFFE7BDF90400BDF90010884204DC7E
:103C5000FFE701208DF8070003E000208DF8070042
:103C6000FFE79DF8070002B0704700000000000069
:103C700084B08DED020ACDED010A8DED001A9DEDA7
:103C8000020A9DED011AB4EE410AF1EE10FA03DAD0
:103C9000FFE7019803900FE09DED020A9DED001AE9
:103CA000B4EE410AF1EE10FA03DDFFE7009803904D
:103CB00002E002980390FFE79DED030A04B070470D
:103CC00082B08DED000A9DED000ABAEE041AB4EE42
:103CD000410AF1EE10FA05DAFFE70020CCF22010DD
:103CE000019011E09DED000A9FED091AB4EE410A22
:103CF000F1EE10FA05DDFFE70020C4F26630019016
:103D000002E000980190FFE79DED010A02B07047C4
:103D1000000066430000000080B5052010F0ACFAFA
:103D2000062010F0A9FA80BD80B582B08DF807009A
:103D300000208DF80600FFE79DF80600032816D83E
:103D4000FFE79DF807009DF80610C840C00738B18E
:103D5000FFE79DF806000130C0B210F08DFAFFE7D2
:103D6000FFE79DF8060001308DF80600E4E702B099
:103D700080BD00000000000080B582B08DF8070013
:103D80009DF8070001280FD1FFE744F20451C2F269
:103D900000010120087040F20802C2F20042002136
:103DA000117016F0F9FC0EE040F20801C2F2004179
:103DB0000120087044F20451C2F200010020087092
:103DC00016F0EAFCFFE702B080BD00000000000032
:103DD00080B584B0039041F288301FF00DF80FF0E9
:103DE000BFFD45F69040C2F2000044F67D51C2F29C
:103DF000004101220CF0D0FE0FF026F945F2F02030
:103E0000C2F2004040F24811C2F2000100919FED61
:103E10002E0A8DED010A11F093FF00999DED010A24
:103E200044F66C70C2F2000011F08AFF45F2902057
:103E3000C2F2004011F028F844F60C70C2F2000003
:103E400011F022F812F038FEFDF726FE16F050FCB5
:103E500020F05EFC46F29001C2F20041086045F29B
:103E60004850C2F200400BF017F8FFE70121084666
:103E70001FF06EFE0290029818B9FFE70120029031
:103E8000FFE7FFE7029830B1FFE711F099FB0298D6
:103E900001380290F6E746F61C30C2F20000011D20
:103EA00000F108020023FEF753FC16F061FC40F21B
:103EB0000800C2F200400078012803D1FFE7FEF7B6
:103EC000FFF9FFE7D2E700BF6F12833A000000005E
:103ED00080B58AB08DF827000891079200200690DF
:103EE000059004900390089802900898063001907D
:103EF000042004909DF827005038014600910F28B7
:103F000042D80099DFE801F01A081D1122272A2D56
:103F1000303336404040403934200690032004902E
:103F200040200590012003902FE03D2006900320C3
:103F300004902E2005900120039026E0302006906A
:103F400023E037200690032007901EE03A200690D9
:103F50000320079019E04120069016E045200690C6
:103F600013E04920069010E04D2006900DE051200E
:103F700006900AE05520069007E046F6C020C2F2FF
:103F800000000068069000E038E00798032805D19B
:103F9000FFE70320049000200390FFE70498A8B1F6
:103FA000FFE7069946F2DC70C2F2000000EB410028
:103FB0000299049A5200FCF7ABFA45F6A400C2F24B
:103FC00000400268069804999047FFE70398A8B15B
:103FD000FFE7059946F2DC70C2F2000000EB4100F9
:103FE0000199039A5200FCF793FA45F6A400C2F235
:103FF00000400268059803999047FFE70AB080BD2A
:1040000080B586B0049003910498007802900298DD
:1040100020B1FFE70298162804D3FFE700208DF8AF
:10402000170039E0029945F67050C0F6020000EB27
:104030004110203801900198007940B9FFE70498B9
:10404000019949790EF0C0FF8DF8170024E001981E
:104050000079012806D1FFE7049801F041FB8DF8B3
:10406000170019E001980079022811D1FFE70398A1
:1040700050B1FFE7039811F04FFE022804D1FFE78B
:1040800001208DF8170007E000208DF8170003E0ED
:1040900000208DF81700FFE79DF8170006B080BDDF
:1040A00080B501F0A1FB01F0FBFB01F035FC01F054
:1040B00037FE80BD0000000080B545F2FC50C2F222
:1040C000000002F0D9FF80BD83B002900298016821
:1040D00001201022C4F202029142009000F0A3805D
:1040E000FFE70298016801202822C4F202029142EF
:1040F000009000F09880FFE70298016801204022BC
:10410000C4F202029142009000F08D80FFE7029815
:10411000016801205822C4F202029142009000F08E
:104120008280FFE70298016801207022C4F2020237
:104130009142009077D0FFE7029801680120882221
:10414000C4F20202914200906DD0FFE7029801682C
:104150000120A022C4F202029142009063D0FFE746
:10416000029801680120B822C4F202029142009034
:1041700059D0FFE702980168012040F21042C4F2D2
:104180000202914200904ED0FFE7029801680120A0
:1041900040F22842C4F202029142009043D0FFE76D
:1041A00002980168012040F24042C4F202029142AA
:1041B000009038D0FFE702980168012040F2584291
:1041C000C4F20202914200902DD0FFE702980168EC
:1041D000012040F27042C4F202029142009022D0CB
:1041E000FFE702980168012040F28842C4F202020F
:1041F0009142009017D0FFE702980168012040F239
:10420000A042C4F20202914200900CD0FFE7029853
:1042100000684FF64831CBF6FD710844B0FA80F0E3
:1042200040090090FFE70098C00740B3FFE70298FD
:10423000007810384AF6AB21CAF6AA21A0FB01107B
:1042400000090190019800F0070145F6FC20C0F636
:104250000200405C0299C8650198042807D3FFE773
:1042600002990868042262F30900886506E0029951
:10427000086840F2FF3290438865FFE705E0029945
:10428000086820F0FF008865FFE70298806D03B0A2
:10429000704700000000000084B00390039800689D
:1042A000019003980168012045F20842C5F6020218
:1042B000914200904ED0FFE703980168012045F23B
:1042C0001C42C5F602029142009043D0FFE70398DA
:1042D0000168012045F23042C5F602029142009089
:1042E00038D0FFE703980168012045F24442C5F643
:1042F0000202914200902DD0FFE70398016801204F
:1043000045F25842C5F602029142009022D0FFE7E2
:1043100003980168012045F26C42C5F60202914201
:10432000009017D0FFE703980168012045F2804212
:10433000C5F60202914200900CD0FFE70398006896
:104340004AF66C31CAF2FD710844B0FA80F04009B7
:104350000090FFE70098C00710B3FFE703980078CC
:1043600008384CF6CD41CCF6CC41A0FB0110000939
:104370000290029945F60000C5F6020000EB8100AC
:1043800003990866039945F68000C5F60200486661
:10439000029800F01F01012088400399886635E0EB
:1043A0000398007810384AF6AB21CAF6AA21A0FB80
:1043B000011000090290019840F2B841C4F20201D4
:1043C00088420CD8FFE7019840F21041C4F2020184
:1043D000884204D3FFE7029808300290FFE7029971
:1043E00040F60000C4F2020000EB81000399086669
:1043F000039940F68000C4F202004866029800F07B
:104400001F010120884003998866FFE704B07047C8
:1044100083B002900298007901900198002800F082
:104420008A80FFE70198082800F28580FFE702985C
:104430000168012045F20842C5F60202914200904F
:104440004ED0FFE702980168012045F21C42C5F6F4
:1044500002029142009043D0FFE7029801680120D8
:1044600045F23042C5F602029142009038D0FFE793
:1044700002980168012045F24442C5F602029142C9
:1044800000902DD0FFE702980168012045F25842C4
:10449000C5F602029142009022D0FFE7029801681F
:1044A000012045F26C42C5F602029142009017D0FD
:1044B000FFE702980168012045F28042C5F602023A
:1044C000914200900CD0FFE7029800684AF66C31E8
:1044D000CAF2FD710844B0FA80F040090090FFE78D
:1044E0000098C00780B1FFE7019945F6FC00C5F6CA
:1044F000020000EB81000299C866029945F640105F
:10450000C5F6020008670FE0019940F6FC00C4F20E
:10451000020000EB81000299C866029940F6401043
:10452000C4F202000867FFE70198411E012088409D
:1045300002994867FFE703B07047000000000000E1
:1045400085B0049000208DF80F000498806918BB96
:10455000FFE70498806A029003281BD80299DFE8DD
:1045600001F0020D0218049890F82F00C00720B146
:10457000FFE701208DF80F00FFE70CE00498C06A08
:10458000B0F1C07F04D1FFE701208DF80F00FFE7F5
:1045900001E000E0FFE747E004988069B0F5005FC4
:1045A00026D1FFE70498806A019003281ED801995C
:1045B000DFE801F00206021101208DF80F0016E07D
:1045C000049890F82F00C00720B1FFE701208DF874
:1045D0000F00FFE70BE00498C06AB0F1C07F04D180
:1045E000FFE701208DF80F00FFE700E0FFE71AE08A
:1045F0000498806A0090032804D3FFE700980328FA
:1046000004D00EE001208DF80F000BE0049890F824
:104610002F00C00720B1FFE701208DF80F00FFE752
:1046200000E0FFE7FFE7FFE79DF80F0005B07047E8
:1046300089B008900791069205930898806D0490C0
:104640000898806D03900898016801201022C4F238
:1046500002029142029000F00381FFE7089801688E
:1046600001202822C4F202029142029000F0F88058
:10467000FFE70898016801204022C4F2020291423B
:10468000029000F0ED80FFE70898016801205822B1
:10469000C4F202029142029000F0E280FFE7089823
:1046A000016801207022C4F202029142029000F0DF
:1046B000D780FFE70898016801208822C4F202022F
:1046C0009142029000F0CC80FFE708980168012039
:1046D000A022C4F202029142029000F0C180FFE7E2
:1046E000089801680120B822C4F2020291420290A7
:1046F00000F0B680FFE708980168012040F2104200
:10470000C4F202029142029000F0AA80FFE70898EA
:104710000168012040F22842C4F202029142029054
:1047200000F09E80FFE708980168012040F24042B7
:10473000C4F202029142029000F09280FFE70898D2
:104740000168012040F25842C4F2020291420290F4
:1047500000F08680FFE708980168012040F270426F
:10476000C4F20202914202907AD0FFE708980168F1
:10477000012040F28842C4F20202914202906FD0BE
:10478000FFE708980168012040F2A042C4F202024B
:104790009142029064D0FFE708980168012040F23E
:1047A000B842C4F202029142029059D0FFE7089841
:1047B0000168012045F20842C5F6020291420290CA
:1047C0004ED0FFE708980168012045F21C42C5F66B
:1047D00002029142029043D0FFE70898016801204D
:1047E00045F23042C5F602029142029038D0FFE70E
:1047F00008980168012045F24442C5F60202914240
:1048000002902DD0FFE708980168012045F2584238
:10481000C5F602029142029022D0FFE70898016893
:10482000012045F26C42C5F602029142029017D077
:10483000FFE708980168012045F28042C5F60202B0
:10484000914202900CD0FFE7089800684AF66C315C
:10485000CAF2FD710844B0FA80F040090290FFE707
:104860000298C00770B1FFE70898416E806E4860FB
:104870000898C06E28B1FFE70898016F406F486044
:10488000FFE7FFE70898016801201022C4F2020246
:104890009142019000F0A380FFE708980168012091
:1048A0002822C4F202029142019000F09880FFE7B2
:1048B0000898016801204022C4F20202914201904E
:1048C00000F08D80FFE70898016801205822C4F2AB
:1048D00002029142019000F08280FFE7089801688F
:1048E00001207022C4F202029142019077D0FFE7CA
:1048F0000898016801208822C4F2020291420190C6
:104900006DD0FFE7089801680120A022C4F20202DE
:104910009142019063D0FFE7089801680120B82216
:10492000C4F202029142019059D0FFE70898016851
:10493000012040F21042C4F20202914201904ED096
:10494000FFE708980168012040F22842C4F2020201
:104950009142019043D0FFE708980168012040F29E
:104960004042C4F202029142019038D0FFE7089819
:104970000168012040F25842C4F2020291420190C3
:104980002DD0FFE708980168012040F27042C4F280
:1049900002029142019022D0FFE7089801680120AD
:1049A00040F28842C4F202029142019017D0FFE720
:1049B00008980168012040F2A042C4F2020291422C
:1049C00001900CD0FFE7089800684FF64831CBF60D
:1049D000FD710844B0FA80F040090190FFE70198AA
:1049E000C00750B3FFE70898C06D00F01F013F20DB
:1049F00088400499886008980168086820F480203D
:104A000008600598089909684860089880684028F7
:104A100009D1FFE7069808990968886007980899FE
:104A20000968C86008E007980899096888600698CE
:104A300008990968C860FFE782E0089801680120CA
:104A400045F20842C5F60202914200904ED0FFE7BF
:104A500008980168012045F21C42C5F60202914205
:104A6000009043D0FFE708980168012045F23042EA
:104A7000C5F602029142009038D0FFE7089801681D
:104A8000012045F24442C5F60202914200902DD029
:104A9000FFE708980168012045F25842C5F6020276
:104AA0009142009022D0FFE708980168012045F26A
:104AB0006C42C5F602029142009017D0FFE70898B9
:104AC0000168012045F28042C5F602029142009041
:104AD0000CD0FFE7089800684AF66C31CAF2FD7105
:104AE0000844B0FA80F040090090FFE70098C00742
:104AF00020B3FFE70898C06D00F01F010120884037
:104B00000399486005980899096848600898806882
:104B1000402809D1FFE70698089909688860079836
:104B200008990968C86008E00798089909688860CA
:104B3000069808990968C860FFE700E0FFE7FFE70B
:104B400009B070470000000080B592B00BAB059330
:104B50008DF8470010918DF83F2000200E900D90A9
:104B60000C900B909DF8470010999DF83F201BF08A
:104B7000DBFC9DF8470001460691572800F2478567
:104B80000699DFE811F058009500AF004405440590
:104B9000F800EC004405440544054405440544057B
:104BA00044054405440521013F014D018201FE01F8
:104BB0003D025302440544054405440544054405AB
:104BC0004405440544055D02700244057E02440527
:104BD000C202CF024405440544054405440544058A
:104BE000440544054405D902F002FE023B03440596
:104BF000AB03BC0344054405440544054405440592
:104C0000440544054405440544054405440544055C
:104C10004405C603D00308041E04440544054405A6
:104C2000440544054405280448046504B504CF043C
:104C3000E9043A0509059DF83F001BF081FA10B917
:104C4000FFE700F0E5BC1BF03BFC1BF0A1FB1DF0F7
:104C5000D3F81FF0C5F812F097F844F66C70C2F262
:104C6000000011F00DFB44F60C70C2F2000010F0D1
:104C700063FA1FF0E1F801200490FDF7B9FA1FF084
:104C8000AFF8049815F008FD1FF0D6F840F2F021B7
:104C9000C2F200410020087040F2F811C2F2000197
:104CA000087044F25031C2F20041087000F0B0BC0C
:104CB0009DF83F001BF044FA10B9FFE700F0A8BCD4
:104CC00040F2F021C2F200410120087040F2F811D8
:104CD000C2F20001087044F25031C2F20041087083
:104CE00000F096BC10989DF83F100BAA1CF080FDB8
:104CF00010B9FFE700F08CBC059890ED000ABCEEFF
:104D0000C00A10EE100A002818BF0120FFF734F87F
:104D1000059890ED000ABCEEC00A10EE100AE0B94A
:104D2000FFE71BF0CDFB1BF033FB1DF065F81FF018
:104D300057F812F029F844F66C70C2F2000011F036
:104D40009FFA44F60C70C2F2000010F0F5F91FF063
:104D500073F80120FDF74CFAFFE700F059BC9DF80D
:104D60003F001BF0EDF910B9FFE700F051BC0FF068
:104D70000FFA00F04DBC9DF83F001BF0E1F910B9AF
:104D8000FFE700F045BC1BF09BFB1BF001FB1DF097
:104D900033F81FF025F811F0F7FF44F66C70C2F2FB
:104DA000000011F06DFA44F60C70C2F2000010F031
:104DB000C3F90120039015F02FFE1FF03DF8039872
:104DC000FDF716FA00F024BC9DF83F001BF0B8F97F
:104DD00010B9FFE700F01CBC1BF072FB1FF000F8DD
:104DE00011F0D2FF44F66C70C2F2000011F048FAE4
:104DF0001FF022F840F2F021C2F2004100200870BA
:104E000000F006BC9DF83F001BF09AF908B9FFE7D7
:104E1000FEE340F2F021C2F2004101200870F7E306
:104E200010989DF83F100BAA1CF0E2FC08B9FFE7B0
:104E3000EEE3059890ED000ABCEEC00A10EE100AF1
:104E40008DF82B009DF82B0007281DD8FFE744F2B2
:104E50000450C2F200000078B0B1FFE740F2F02049
:104E6000C2F20040007878B1FFE71EF0B9FF11F000
:104E70008BFF9DF82B1044F66C70C2F2000011F00D
:104E80005BF91EF0D9FFFFE7C2E310989DF83F10D1
:104E90000BAA1CF0ADFC08B9FFE7B9E3059890ED4B
:104EA000000ADFEDC40ACDED010A9FEDC31A8DEDB6
:104EB000021AFEF7DDFEDDED010A9DED021A0598EE
:104EC00080ED000A90ED010AFEF7D2FE059880ED14
:104ED000010A90ED020ADFEDB90A9FEDB91AFEF75B
:104EE000C7FE059880ED020A0B984AF2C411C2F27F
:104EF000004108600C9848600D98886044F20450A6
:104F0000C2F200000078D8B3FFE740F2F020C2F20E
:104F100000400078A0B3FFE71EF062FF11F034FFFD
:104F200044F66C70C2F200000078022808D0FFE757
:104F300044F66C70C2F20000007806280ED1FFE73C
:104F4000059890ED030A9FED9F1A20EE010A44F6A2
:104F50006C70C2F2000011F07BF9FFE7059890ED4C
:104F6000000AD0ED010A90ED021A44F66C70C2F20C
:104F7000000011F01DF91EF05FFF1BF0B9FAFFE70A
:104F800046E310989DF83F100BAA1CF031FC08B9BD
:104F9000FFE73DE30B984AF2C411C2F200410860FA
:104FA0000C9848600D98886044F20450C2F20000EA
:104FB000007820B3FFE740F2F020C2F20040007812
:104FC000E8B1FFE71EF00CFF11F0DEFE059890ED52
:104FD000000AD0ED010A90ED021A44F66C70C2F29C
:104FE000000010F0A5FF8DF82A001EF025FF9DF9A6
:104FF0002A0018B9FFE71BF063FAFFE7FFE707E3B2
:105000009DF83F001BF09CF808B9FFE700E31BF098
:1050100057FA1EF0E5FE11F0B7FE44F66C70C2F2CE
:10502000000011F02DF91EF007FFF1E29DF83F009E
:105030001BF086F808B9FFE7EAE20FF091F8E7E223
:105040009DF83F001BF07CF808B9FFE7E0E21BF099
:105050009FF90120FDF7CCF840F2F811C2F20001EF
:1050600000200870D4E29DF83F001BF069F808B9F1
:10507000FFE7CDE240F2F811C2F200010120087012
:10508000C6E210989DF83F100BAA1CF0B1FB08B9BE
:10509000FFE7BDE244F20450C2F20000007868B3BA
:1050A000FFE740F2F810C2F20000007830B3FFE7EB
:1050B000059890ED000AD0ED010A90ED021A00214A
:1050C0000846FCF7EDFF60B1FFE7059890ED000A98
:1050D000D0ED010A90ED021AFDF7F6F91BF070F918
:1050E0000BE0059890ED000AD0ED010A90ED021A50
:1050F000FDF7EAF91BF04CF9FFE705E01BF048F972
:105100000120FDF775F8FFE782E29DF83F001BF0F4
:1051100017F808B9FFE77BE21BF03AF90120FDF729
:1051200067F875E29DF83F001BF00AF808B9FFE741
:105130006EE20FF00DF86BE29DF83F001BF000F8F7
:1051400008B9FFE764E21CF057FE1EF049FE01209B
:1051500015F0A2FA1EF070FE44F25031C2F2004186
:105160000020087054E29DF83F001AF0E9FF08B9EA
:10517000FFE74DE244F25031C2F2004101200870D5
:1051800046E210989DF83F100BAA1CF031FB08B9BD
:10519000FFE73DE244F20450C2F20000007838B16B
:1051A000FFE744F25030C2F20040007860B9FFE7F8
:1051B0002EE200BF7F946BC07F946B407BD9A0BE72
:1051C0007BD9A03E39FA8E3C1EF00AFE059890ED80
:1051D000000ABCEEC00A10EE101A0120009015F073
:1051E0006BFB009815F00CFA46F60831C2F200018C
:1051F00008701EF021FE1CF0FFFD09E210989DF8DA
:105200003F100BAA1CF0F4FA08B9FFE700E205987A
:1052100090ED000ABCEEC00A10EE100A8DF82900CD
:1052200044F20450C2F20000007838B1FFE744F2C3
:105230005030C2F20040007808B9FFE7E8E11EF004
:10524000CFFD012015F0DCF9012821D1FFE7012075
:1052500015F0AEF909909DF8290048B9FFE70998C3
:10526000007828B1FFE7099800211EF0E9FBFFE76D
:105270009DF8290001280AD1FFE709980078012844
:1052800005D0FFE7099801211EF0DAFBFFE720E0D7
:10529000012015F0A1F908909DF8290048B9FFE711
:1052A0000898007828B1FFE7089800211EF00CFC50
:1052B000FFE79DF8290001280AD1FFE70898007848
:1052C000012805D0FFE7089801211EF0FDFBFFE74C
:1052D000FFE71EF0B1FD1CF0A7FD99E19DF83F002E
:1052E0001AF02EFF08B9FFE792E11CF085FD1EF0D1
:1052F00077FD012015F090FB1EF09EFD88E19DF8E2
:105300003F001AF01DFF08B9FFE781E10EF048FFEA
:105310007EE19DF83F001AF013FF08B9FFE777E13F
:105320000EF02EFF74E19DF83F001AF009FF08B956
:10533000FFE76DE19DF83F00102805D1FFE71098C9
:105340000BA91CF001FAFFE744F20450C2F200007E
:105350000078F8B1FFE740F2F020C2F20040007898
:10536000C0B1FFE7059890ED000ABCEEC00A10EE50
:10537000100A8DF81F001BF0A3F81EF031FD9DF8F8
:105380001F1044F66C70C2F2000011F0A9FB1EF071
:1053900053FDFFE73CE19DF83F001AF0D1FE08B94C
:1053A000FFE735E11BF08CF81EF01AFD11F0ECFC64
:1053B00044F66C70C2F2000010F062FF1EF03CFD7B
:1053C00026E19DF83F001AF0BBFE08B9FFE71FE198
:1053D0000EF0EEFE1CE19DF83F001AF0B1FE08B998
:1053E000FFE715E11EF0FCFC44F60C70C2F2000071
:1053F000C07A38B1FFE744F66C70C2F2000010F0DA
:105400003FFFFFE744F60C70C2F200000FF094FE7D
:105410001EF012FDFCE09DF83F001AF091FE08B965
:10542000FFE7F5E044F20450C2F20000007870B1EA
:10543000FFE71EF0D5FC44F60C70C2F2000001211B
:1054400000231A460FF00CFE1EF0F6FCFFE7DFE02B
:1054500010989DF83F100BAA1CF0CAF908B9FFE795
:10546000D6E044F20450C2F20000007800283ED09A
:10547000FFE71EF0B5FC059890ED000ABCEEC00AEF
:1054800010EE100A70B9FFE744F60C70C2F200008B
:10549000C07A38B1FFE744F66C70C2F2000010F039
:1054A000EFFEFFE7059890ED002A90ED011A90EDD0
:1054B000020ABCEEC22A12EE101A002918BF0121FE
:1054C000BCEEC11A11EE102A002A18BF0122BCEE50
:1054D000C00A10EE103A002B18BF012344F60C70DE
:1054E000C2F200000FF0BCFD1EF0A6FCFFE78FE04B
:1054F0009DF83F001AF024FE08B9FFE788E044F267
:105500000450C2F20000007858B1FFE71EF068FCBA
:1055100044F60C70C2F200000FF016FD1EF08CFC79
:10552000FFE775E09DF83F001AF00AFE08B9FFE7B3
:105530006EE044F20450C2F20000007858B1FFE778
:105540001EF04EFC44F60C70C2F200000FF0E8FCB6
:105550001EF072FCFFE75BE09DF83F001AF0F0FDE3
:1055600008B9FFE754E01EF03BFC44F60C70C2F2B1
:105570000000C07A38B1FFE744F66C70C2F2000058
:1055800010F07EFEFFE744F60C70C2F200000FF050
:10559000D3FD1EF051FC3BE010989DF83F100BAA84
:1055A0001CF026F908B9FFE732E044F20450C2F2D9
:1055B0000000007800B3FFE71EF012FC44F60C7008
:1055C000C2F20000C07A38B1FFE744F66C70C2F254
:1055D000000010F055FEFFE7059890ED000ABCEEC4
:1055E000C00A10EE101A44F60C70C2F200000FF060
:1055F000BFFC1EF021FCFFE70AE09DF83F001AF017
:105600009FFD08B9FFE703E00EF0B2FD00E0FFE701
:1056100012B080BD000000007047000000000000D4
:1056200080B582B0019005F067FA0090FFE705F0C1
:1056300063FA0099401A0199884201D2FFE7F6E720
:1056400002B080BD0000000082B08DF806009DF819
:10565000060000900098022808D3FFE7009815285C
:1056600004D8FFE701208DF8070003E000208DF843
:105670000700FFE79DF8070002B070470000000038
:1056800080B584B003908DF80B109FED140A13F0D1
:10569000AFF88DED010A03989DF80B1000EB810027
:1056A00090ED0A0A90ED102AB8EEC00A45F64C506B
:1056B000C0F6020000EB810090ED001A21EE021A04
:1056C0009DED012AA1EE020A8DED000A9DED000A72
:1056D000BDEEC00A10EE100A04B080BDB458B74445
:1056E00080B582B00090009890ED101A90ED160AE7
:1056F00030EE410AFBF734F8B1EE041AB4EE410A79
:10570000F1EE10FA04DDFFE700208DF8070018E045
:10571000009890ED111A90ED170A30EE410AFBF750
:105720001FF8B1EE041AB4EE410AF1EE10FA04DDEE
:10573000FFE700208DF8070003E001208DF8070047
:10574000FFE79DF8070002B080BD000000000000E8
:1057500081B000909DED000AB8EEC00A9FED021ADC
:1057600020EE010A01B070474007493600000000F2
:1057700081B0EFF3108072B60090FFE7FEE7000003
:1057800044F60C01C5F60201086840F0020008600A
:10579000FFE744F60400C5F6020000688004002814
:1057A00001D4FFE7F5E7704780B584B0ADF80E008F
:1057B000ADF80C10ADF80A20ADF80830BDF90E2098
:1057C000BDF90C30BDF90A00BDF908C06946C1F841
:1057D00004C0086045F20840C2F200404FF4007176
:1057E00000F006FB04B080BD80B545F20840C2F26F
:1057F0000040012100F06CFA80BD000000000000B4
:1058000080B545F20840C2F2004004F09DF880BD2A
:1058100080B545F20840C2F2004004F095F880BD22
:1058200080B584B0ADF80E00ADF80C10ADF80A20CC
:10583000ADF80830BDF90E20BDF90C30BDF90A00F5
:10584000BDF908C06946C1F804C0086045F274603B
:10585000C2F200004FF4007100F0CAFA04B080BD3B
:1058600080B584B0ADF80E00ADF80C10ADF80A208C
:10587000ADF80830BDF90E20BDF90C30BDF90A00B5
:10588000BDF908C06946C1F804C0086045F27460FB
:10589000C2F2000040F2FF1100F0AAFA04B080BD8D
:1058A00080B545F27460C2F20000022100F010FAE7
:1058B00080BD00000000000080B545F27460C2F2B7
:1058C000000004F041F880BD80B545F27460C2F27A
:1058D000000004F039F880BD80B584B0ADF80E004A
:1058E000ADF80C10ADF80A20ADF80830BDF90E2067
:1058F000BDF90C30BDF90A00BDF908C06946C1F810
:1059000004C0086045F2A840C2F200404FF40071A4
:1059100000F06EFA04B080BD80B545F2A840C2F236
:105920000040022100F0D4F980BD0000000000001A
:1059300080B545F2A840C2F2004004F005F880BDF1
:1059400080B545F2A840C2F2004003F0FDFF80BDE3
:1059500084B002900298406B009002980068D0F8E2
:1059600084004FF6FC718843009940EA8100029957
:105970000968C1F8840002980068D0F8840020F417
:105980007F00029A1168926B40EA0240C1F88400DD
:105990000298816B00980844009002980068D0F843
:1059A00088006FF38F00009940EA8100029909682E
:1059B000C1F8880002980068D0F8880020F4FE0042
:1059C000029A1168D26B40EA0240C1F8880002983E
:1059D000C16B009800EB4100009002980068D0F87D
:1059E000A0006FF38F00009940EA810002990968D6
:1059F000C1F8A00002980068D0F8A00020F4FE00D2
:105A0000029A1168126C40EA0240C1F8A0000299A3
:105A1000086C496C009A00FB012000900298006815
:105A2000D0F8B0006FF38F00009940EA810002992E
:105A30000968C1F8B00002980068D0F8B00020F4FE
:105A4000FE00029A1168926C40EA0240C1F8B00070
:105A50000299886CC96C009A00FB012000900298A2
:105A60000068D0F8AC006FF38F00009940EA810025
:105A700002990968C1F8AC000299086D496D009A55
:105A800000FB0120009002980068D0F8F0006FF34E
:105A90008F00009940EA810002990968C1F8F0007E
:105AA00002980068D0F8F00020F47C10029A116887
:105AB000926D40EA0240C1F8F0000298816D0098B2
:105AC00000EB4100009002980068D0F8C0006FF32E
:105AD0008F00009940EA810002990968C1F8C0006E
