:020000040800F2
:10000000A8A90024D9030008D94401081918010837
:1000100071440108A1340008B9350208000000004D
:10002000000000000000000000000000D19701085F
:10003000495D0008000000006155010809AA010897
:10004000F7030008F7030008F7030008F7030008A8
:10005000F7030008F7030008F7030008F703000898
:10006000F7030008F7030008F703000879450008C4
:10007000F7030008F7030008F7030008F703000878
:10008000F7030008F7030008F703000841600008C1
:10009000F96000085160000809610008F7030008D2
:1000A000F7030008F7030008F7030008F703000848
:1000B00081AC010891AC0108F7030008F7030008C0
:1000C000F7030008F7030008F7030008F703000828
:1000D000F7030008A1ED0108F7030008F703000883
:1000E000F7030008F703000800000000F70300080A
:1000F000F7030008F7030008F7030008F7030008F8
:10010000F7030008F7030008F7030008F7030008E7
:10011000F7030008F7030008F7030008F7030008D7
:10012000F7030008F7030008F7030008F7030008C7
:10013000F7030008F7030008F7030008F7030008B7
:1001400000000000000000000000000000000000AF
:10015000F7030008F7030008F7030008F703000897
:10016000F7030008F7030008F7030008F703000887
:10017000F703000821460108F7030008000000000B
:10018000F7030008F7030008A1CC0108B1CC01086F
:10019000F7030008F7030008F7030008F703000857
:1001A000F7030008F7030008F70300080000000049
:1001B000F7030008F7030008F7030008F703000837
:1001C000F7030008F703000800000000000000002B
:1001D0000000000000000000F7030008000000001D
:1001E000000000000000000000000000000000000F
:1001F0000000000000000000F7030008F7030008FB
:10020000F7030008F703000800000000F7030008E8
:10021000F7030008F7030008F7030008F7030008D6
:10022000F703000800000000F703000800000000CA
:10023000F7030008F703000800000000F7030008B8
:10024000F7030008F7030008F7030008F7030008A6
:10025000F7030008F7030008F7030008F703000896
:10026000F7030008F7030008F7030008F703000886
:10027000F7030008F7030008F70300080000000078
:10028000F7030008F7030008F7030008F703000866
:1002900000000000F7030008F7030008000000005A
:1002A00000000000F7030008F7030008C1CC0108B4
:1002B00091ED0108F7030008F703000871610008D9
:1002C00081610008F7030008F703000800F002F856
:1002D00000F072F814A696E8000CB244B344DA4574
:1002E00001D100F069F8BAE80F000FA696E83000D7
:1002F000A5EB040504EB0607AAEB0704A7F1010729
:100300004FEA15154FEA3414A4F10104AC4201D3AD
:1003100000F052F813F0010F18BFFB1A43F001036D
:1003200000F001F8DBE718477C770200BC77020099
:100330000A444FF0000C10F8013B13F0070408BF0B
:1003400010F8014B1D1108BF10F8015B641E05D0A9
:1003500010F8016B641E01F8016BF9D113F0080F5E
:100360001EBF10F8014BAD1C0C1B09D16D1E58BFF0
:1003700001F801CBFAD505E014F8016B01F8016B27
:100380006D1EF9D59142D6D370470000704700002A
:100390000023002400250026103A28BF78C1FBD88E
:1003A000520728BF30C148BF0B6070471FB526F009
:1003B0005BFD1FBD10B510BD00F080F91146FFF7C1
:1003C000F5FF23F0A9FF00F09EF903B4FFF7F2FF59
:1003D00003BC00F0A1F900000A4880470A488047A2
:1003E0000A480047FEE7FEE7FEE7FEE7FEE7FEE716
:1003F000FEE7FEE7FEE7FEE705480649064A074B2B
:1004000070470000C15F000819AB0108CD02000869
:10041000A8A70020A8A90024A8A90020A8A5002416
:1004200053EA020C00F069802DE9F04B4FF0000612
:10043000002B1FBFB3FA83F503FA05F424FA05F67F
:100440005E4012BF1643B2FA82F502FA05F4C5F116
:1004500020051EBF22FA05FC44EA0C04203556EAAA
:10046000044C4FEA144418BF641C4FF000084FF0CE
:100470000009904271EB030C39D3002919BFB1FA7E
:1004800081F701FA07F6B0FA80F700FA07F6C7F12C
:1004900020071EBF20FA07FC46EA0C062037B6FBF1
:1004A000F4FCA7EB0507103F07F01F0BCBF120066C
:1004B0002CFA06F60CFA0BFB44BFB3460026202F9D
:1004C000A4BF5E464FF0000B5BEA060C08BF4FF07E
:1004D000010B19EB0B0948EB0608ABFB027C06FB92
:1004E00002CC0BFB03CCC01B71EB0C01C1E70B462C
:1004F000024641464846BDE8F08B13B5084318BF95
:100500004FF0FF300146AFF30080BDE81C4070475C
:10051000032A40F2308010F0030C00F0158011F82F
:10052000013BBCF1020F624498BF11F801CB00F807
:10053000013B38BF11F8013BA2F1040298BF00F85B
:1005400001CB38BF00F8013B11F0030300F0258018
:10055000083AC0F0088051F8043B083A51F804CB3F
:10056000A0E80810F5E7121D5CBF51F8043B40F805
:10057000043BAFF30080D20724BF11F8013B11F810
:1005800001CB48BF11F8012B24BF00F8013B00F854
:1005900001CB48BF00F8012B704710B5203AC0F0DE
:1005A0000B80B1E81850A0E81850B1E81850A0E846
:1005B0001850203ABFF4F5AF5FEA027C24BFB1E8DF
:1005C0001850A0E8185044BF18C918C0BDE8104022
:1005D0005FEA827C24BF51F8043B40F8043B08BF2B
:1005E0007047D20728BF31F8023B48BF11F8012BF2
:1005F00028BF20F8023B48BF00F8012B70474FF09E
:1006000000020429C0F0128010F0030C00F01B80DF
:10061000CCF1040CBCF1020F18BF00F8012BA8BFED
:1006200020F8022BA1EB0C0100F00DB85FEAC17CB1
:1006300024BF00F8012B00F8012B48BF00F8012B64
:1006400070474FF0000200B5134694469646203995
:1006500022BFA0E80C50A0E80C50B1F12001BFF47B
:10066000F7AF090728BFA0E80C5048BF0CC05DF8E1
:1006700004EB890028BF40F8042B08BF704748BF2F
:1006800020F8022B11F0804F18BF00F8012B7047A3
:1006900070477047704710B500F008F8006810BD4B
:1006A00010B5044600F002F8046010BD0048704721
:1006B0004002002400487047400200247546FFF7BE
:1006C000F9FFAE4605006946534620F0070085460F
:1006D00018B020B5FFF790FEBDE820404FF00006AF
:1006E0004FF000074FF000084FF0000BAC46ACE8AD
:1006F000C009ACE8C009ACE8C009ACE8C00921F009
:1007000007018D46704710B50446AFF300802046C0
:10071000BDE81040FFF759BE01491820ABBEFEE707
:10072000260002007047000082B08DED010A9DEDA9
:10073000010AB5EE400AF1EE10FA07DAFFE79DED87
:10074000010AB1EE400A8DED000A04E09DED010AB8
:100750008DED000AFFE79DED000A02B07047000032
:1007600082B08DED010A9DED010AB5EE400AF1EE71
:1007700010FA07DAFFE79DED010AB1EE400A8DEDB0
:10078000000A04E09DED010A8DED000AFFE79DEDF2
:10079000000A02B07047000080B586B003AA01923B
:1007A0000246019805928DF8131080ED000A002092
:1007B0008DF80B00FFE79DF80B00032825D8FFE715
:1007C0009DF813009DF80B10C840C00708B9FFE75B
:1007D00015E0019805999DF80B2001EB820191ED40
:1007E000150A90ED001A30EE010A03F0A1FB0598FE
:1007F0009DF80B1000EB810080ED0F0AFFE79DF8DC
:100800000B0001308DF80B00D5E706B080BD00006D
:1008100082B08DED000A9DED000A9FED111AB4EE35
:10082000410AF1EE10FA05DDFFE70020C4F2343092
:10083000019011E09DED000A9FED0A1AB4EE410A05
:10084000F1EE10FA05DAFFE70020CCF23430019027
:1008500002E000980190FFE79DED010A02B07047A9
:1008600000003443000034C380B586B08DED040A27
:10087000CDED030A0290029820B1FFE70299002013
:100880000870FFE79DED040A01A8694600F06CF9C5
:1008900058B9FFE7029820B1FFE7029901200870DC
:1008A000FFE700208DF817002AE09DED030A9DED7B
:1008B000011A9FED152A31EE021AB4EE410AF1EE4B
:1008C00010FA0EDBFFE79DED030A9DED001A9FED88
:1008D0000F2A31EE021AB4EE410AF1EE10FA0BDDE6
:1008E000FFE7029820B1FFE7029902200870FFE7B6
:1008F00000208DF8170003E001208DF81700FFE7B6
:100900009DF8170006B080BDBD3786B5BD3786356A
:1009100080B58CB004A9029181ED060AC1ED050AEB
:1009200081ED041AC1ED031A0690069820B1FFE785
:10093000069900200870FFE7029890ED040A9FEDE9
:10094000551AB4EE410AF1EE10FA08DCFFE70298FE
:1009500090ED060AB0EEC00A80ED010A0EE00298A2
:1009600090ED061A90ED050A20EE000AA1EE010AAC
:1009700026F08AF9029880ED010AFFE7029890EDCF
:10098000030A00F041FA029880ED000A90ED000A97
:10099000B5EE400AF1EE10FA12DDFFE7029890ED95
:1009A000010AD0ED040A9FED3C1ADFED3C1A9FEDE1
:1009B0003C2ADFED3C2A23F0A7FA8DF80F0051E026
:1009C000029890ED000AB5EE400AF1EE10FA12DA44
:1009D000FFE7029890ED010AD0ED040A9FED321A6C
:1009E000DFED321A9FED322ADFED322A23F08CFA46
:1009F0008DF80F0035E0029890ED010AD0ED040A61
:100A00009FED251ADFED251A9FED252ADFED252A1A
:100A100023F07AFA014602988DF80E1090ED010A43
:100A2000D0ED040A9FED201ADFED201A9FED202A59
:100A3000DFED202A23F068FA8DF80D009DF80E10E6
:100A40000020019039B1FFE79DF80D00002818BF84
:100A500001200190FFE7019800F001008DF80F00E0
:100A6000FFE7FFE79DF80F0058B9FFE7069820B1B0
:100A7000FFE7069903200870FFE700208DF82F009C
:100A800003E001208DF82F00FFE79DF82F000CB048
:100A900080BD00BF00007A430000484223648643C3
:100AA0000F750543F1F805445E7C5A43C4220A449D
:100AB000A2A48FC23A69B04381B08DED000A9DEDCA
:100AC000000A9FED051A20EE010A9FED041A80EE40
:100AD000010A01B0704700BFDB0F494000003443FA
:100AE00083B0029001910092029830B1FFE7019823
:100AF00018B1FFE7009808B9FFE731E0019890F9D5
:100B0000100000EE100AB8EEC00A029890ED001A2C
:100B100020EE010A009880ED000A019890F9180073
:100B200000EE100AB8EEC00A029890ED011A20EE0D
:100B3000010A009880ED010A019890F9200000EE6A
:100B4000100AB8EEC00A029890ED021A20EE010ACF
:100B5000009880ED020A0298007B00990873FFE775
:100B600003B070470000000080B586B08DED040A28
:100B700003900291039818B1FFE7029820B9FFE7AC
:100B800000208DF817005FE09DED040A00F03CF9AD
:100B90008DED010A9DED010A9FED2D1AB4EE410A7B
:100BA000F1EE10FA0ADBFFE79DED010A9FED291A2D
:100BB000B4EE410AF1EE10FA04DDFFE700208DF8F3
:100BC000170041E09DED010AB5EE400AF1EE10FA82
:100BD0000FDDFFE79FED220AFFF76EFF039880ED20
:100BE000000A9FED1E0AFFF767FF029880ED000ADA
:100BF00026E09DED010AB5EE400AF1EE10FA0FDA9B
:100C0000FFE79FED150AFFF757FF039880ED000AF5
:100C1000B2EE040AFFF750FF029880ED000A0EE0E2
:100C20009FED0D0AFFF748FF039880ED000A9FED46
:100C30000B0AFFF741FF029880ED000AFFE7FFE78C
:100C400001208DF81700FFE79DF8170006B080BD62
:100C5000000078C20000A04202EB7CC274C44C4287
:100C6000000000000000000082B00090009818B959
:100C7000FFE70020019003E0009824300190FFE797
:100C8000019802B070470000B0B584B003900291A3
:100C9000039818B1FFE7029808B9FFE726E0039828
:100CA0005C21FFF7CEFC03990091029B0193186829
:100CB0005A68D3F808C0D3F80CE01C695D694D612F
:100CC0000C61C1F80CE0C1F808C04A60086098697E
:100CD000DA691B6A0B62CA6188610398243000F0EC
:100CE000A7F80399012081F85800FFE704B0B0BDD0
:100CF00080B588B0DDF82CC0DDF828C08DED070A7E
:100D0000CDED060A8DED051A049003910292019330
:100D1000049878B1FFE7039860B1FFE7029848B103
:100D2000FFE7019830B1FFE70A9818B1FFE70B9889
:100D300008B9FFE72DE09DED070A049890ED001A31
:100D400030EE410A00F028F8019880ED000A9DED90
:100D5000060A039890ED001A30EE410A00F01CF8E4
:100D60000A9880ED000A9DED060A9DED051A30EE09
:100D7000010A039890ED001A029890ED002A31EED6
:100D8000021A30EE410A00F007F80B9880ED000AD5
:100D9000FFE708B080BD000081B08DED000AFFE7DD
:100DA0009DED000A9FED141AB4EE410AF1EE10FA1F
:100DB00009DBFFE79DED000A9FED121A30EE010AF4
:100DC0008DED000AECE7FFE79DED000A9FED0B1AA1
:100DD000B4EE410AF1EE10FA09DAFFE79DED000AE0
:100DE0009FED071A30EE010A8DED000AECE79DED4C
:100DF000000A01B0704700BFDB0F4940DB0F49C05C
:100E0000DB0FC940DB0FC9C081B08DED000A9DED3D
:100E1000000A9FED051A20EE010A9FED041A80EEEC
:100E2000010A01B0704700BF00003443DB0F4940A6
:100E300080B582B00190019808B9FFE70AE00198F7
:100E40003421FFF7FEFB0199FE2008700199002074
:100E50004870FFE702B080BD10B59CB01A908DEDD0
:100E6000190ACDED180A8DED171ACDED161A1A983C
:100E700020B9FFE7FF208DF86F00F3E11A9890F892
:100E8000580058B9FFE71A982430FFF7D1FF1A9994
:100E9000FB2081F824008DF86F00E3E11A982430DC
:100EA000FFF7C6FF19981A99C86218981A9908632B
:100EB00017981A9948631A9890ED010A9FEDEB1A5A
:100EC000B4EE410AF1EE10FA0BDDFFE71A9890ED4F
:100ED000020A9FEDE61AB4EE410AF1EE10FA07DCC1
:100EE000FFE71A99FE2081F824008DF86F00B9E120
:100EF0009DED170A9FEDDE1AB4EE410AF1EE10FAED
:100F000041DCFFE700201590189812909DED120A21
:100F1000B0EEC00AB1EE041AB4EE410AF1EE10FAD6
:100F200013DDFFE71A99FC2081F824001A9A0121A9
:100F300082F826101A9A002182F827101A9A0421A2
:100F400082F825108DF86F008CE19DED190AB0EE46
:100F5000C00A9FEDC61AB4EE410AF1EE10FA11DA9A
:100F6000FFE79DED180AB0EEC00A9FEDC01AB4EE7F
:100F7000410AF1EE10FA05DAFFE71A99012081F82B
:100F80002800FFE728E09DED190AB0EEC00A9FEDAA
:100F9000B71AB4EE410AF1EE10FA13DAFFE79DED4D
:100FA000180AB0EEC00A9FEDB11AB4EE410AF1EE94
:100FB00010FA07DAFFE7169815901A99012081F8C0
:100FC000280008E09DED180ADDED190A25F064F807
:100FD0008DED150AFFE7FFE79DED150AFFF7DCFE33
:100FE0008DED150A9DED150A25F0ACF98DED0A0A77
:100FF0009DED190A8DED090A9DED150A25F07CFD80
:101000009DED092A9DED0A1A9DED183A20EE030A7E
:10101000A1EE020A8DED110A9DED110AB1EE400A12
:101020008DED100A9DED170A1A9890ED001A30EE1A
:10103000410A8DED0F0A9DED101A9DED0F0A20EE6D
:10104000000AA1EE010A1A9890ED011A90ED022A09
:10105000A1EE410AA2EE420A31EE011A21EE021A75
:1010600080EE010A8DED0E0A9DED0E0A9FED811AAC
:10107000B4EE410AF1EE10FA0ADBFFE79DED0E0A2D
:101080009FED7D1AB4EE410AF1EE10FA0BDDFFE799
:101090001A99FD2081F824001A9A002182F826105E
:1010A0008DF86F00DEE09DED0E0AFFEE000ACDED3B
:1010B000030AB7EE001A22F0CBFEB0EE401A9DED07
:1010C000030A8DED0E1A9DED0E1A91EE410A9FED69
:1010D0006B1A80FE010A25F0D7FD8DED0D0A9DEDFE
:1010E0000D0AB1EE400ADDED0E0A24F0D5FF8DEDBC
:1010F000130A1A9890ED010A8DED050A90ED020A87
:101100008DED040A9DED130A25F01CF99DED041ADE
:10111000B0EE402A9DED050AA1EE020A8DED0C0A03
:101120001A9890ED020A8DED060A9DED130A25F03E
:10113000E3FCB0EE401A9DED060A20EE010A8DEDAB
:101140000B0A9DED100ADDED0F0A24F0A5FF8DEDD1
:10115000070A9DED0B0ADDED0C0A24F09DFFB0EEB1
:10116000401A9DED070A30EE410A8DED140A9DEDFF
:10117000150AFFF711FE8DED150A9DED140AFFF714
:101180000BFE8DED140A9DED130AFFF705FE8DEDA4
:10119000130A1A990120089081F8260015991A9AC5
:1011A000916314991A9AD16313991A9A11641A992E
:1011B00081F844009DED150ADDED140A9DED131A2A
:1011C000DDF868E00EF10C000EF114010EF11C02C6
:1011D0000EF148030EF14C0C0EF15004EE46CEF821
:1011E0000440CEF800C0FFF783FD08981A9981F8F3
:1011F00054009DED140A1A98D0ED140A2530FFF71B
:1012000033FB58B9FFE71A99FC2081F824001A9A99
:10121000002182F827108DF86F0023E09DED190A58
:10122000DDED180A9DED171ADDED141A1A98253018
:10123000FFF76EFB58B9FFE71A99FC2081F82400EC
:101240001A9A002182F827108DF86F000AE01A9987
:10125000002081F824001A9A012182F827108DF8C5
:101260006F00FFE79DF96F001CB010BDBD378635DC
:1012700000007A43540080BF5400803F000000000B
:1012800080B5AEB02A90ADF8A6102A9828B1FFE735
:10129000BDF8A600382804D8FFE70020ADF8AE005E
:1012A0003BE1EFF310802C902C980390EFF310802B
:1012B00072B62D9000F050FD014609A87C22FFF780
:1012C0006CF944F67453C2F20003986BD96B1A6C34
:1012D0005B6C089307920691059046F26C00C2F28F
:1012E000004081788DF812100088ADF81000039846
:1012F00010B9FFE762B6FFE79DED050AFFF784FD31
:101300008DED020A9DED060AFFF77EFD8DED010AC7
:101310009DED070AFFF778FD8DED000A0020ADF87E
:10132000A4002A99BDF8A420501CADF8A400A52063
:101330008854BDF8A400ADF8A2002A99BDF8A420F5
:10134000501CADF8A400E12088549DF810002A99A3
:10135000BDF8A420531CADF8A43088549DF81100AA
:101360002A99BDF8A420531CADF8A43088549DF8E8
:1013700012002A99BDF8A420531CADF8A43088545B
:101380009DF89C002A99BDF8A420531CADF8A43008
:1013900088549DF898002A99BDF8A420531CADF8F4
:1013A000A43088542A98BDF8A41008449DED090A79
:1013B00000F0FAF8BDF8A4000430ADF8A4002A98B3
:1013C000BDF8A41008449DED0A0A00F0EDF8BDF840
:1013D000A4000430ADF8A4002A98BDF8A410084475
:1013E0009DED0B0A00F0E0F8BDF8A4000430ADF864
:1013F000A4002A98BDF8A41008449DED0C0A00F042
:10140000D3F8BDF8A4000430ADF8A4002A98BDF8C4
:10141000A41008449DED0D0A00F0C6F8BDF8A40024
:101420000430ADF8A4002A98BDF8A41008449DED3E
:101430000E0A00F0B9F8BDF8A4000430ADF8A4001D
:101440002A98BDF8A41008449DED230A00F0ACF8DA
:10145000BDF8A4000430ADF8A4002A98BDF8A4108B
:1014600008449DED240A00F09FF8BDF8A400043064
:10147000ADF8A4002A98BDF8A41008449DED250AF3
:1014800000F092F8BDF8A4000430ADF8A4002A984A
:10149000BDF8A41008449DED020A00F085F8BDF8DF
:1014A000A4000430ADF8A4002A98BDF8A4100844A4
:1014B0009DED010A00F078F8BDF8A4000430ADF805
:1014C000A4002A98BDF8A41008449DED000A00F07D
:1014D0006BF8BDF8A4000430ADF8A4002A98BDF85C
:1014E000A2100844362100F01FF88DF8A1009DF8E5
:1014F000A1002A99BDF8A420531CADF8A43088544B
:101500002A99BDF8A420501CADF8A4005A20885494
:10151000BDF8A400ADF8AE00FFE7BDF8AE002EB0F8
:1015200080BD00000000000085B00390ADF80A10F7
:1015300000200190039820B9FFE700208DF81300E8
:101540001CE00020ADF80200FFE7BDF80200BDF886
:101550000A1088420EDAFFE70398BDF80210415CDA
:10156000019808440190FFE7BDF802000130ADF892
:101570000200EAE701988DF81300FFE79DF81300D9
:1015800005B070470000000046F66D11C2F2000180
:10159000002008707047000046F66D10C2F200008F
:1015A000007870470000000082B001908DED000AC5
:1015B000019808B9FFE703E0019900980860FFE788
:1015C00002B070470000000080B582B046F66D1092
:1015D000C2F20000007820B1FFE700208DF807007C
:1015E00035E046F63410C2F200003921FFF748FE1C
:1015F000ADF80400BDF8040020B9FFE700208DF825
:10160000070024E046F66D11C2F2000101200870C7
:10161000BDF8042045F6B440C2F2000046F634118D
:10162000C2F2000110F04CF88DF803009DF80300A1
:1016300048B1FFE746F66D11C2F2000100200870C4
:101640008DF8070003E001208DF80700FFE79DF803
:10165000070002B080BD000046F66D11C2F2000125
:10166000002008707047000080B584B00390039894
:1016700008B9FFE755E044F60060C2F2004090F878
:10168000780048B1FFE744F60060C2F2004090EDF8
:101690001A0A8DED010A04E09FED230A8DED010A7F
:1016A000FFE79DED010A8DED020A039890ED000A17
:1016B0009FED1E1AB4EE410AF1EE10FA0EDBFFE7C1
:1016C0009DED020AB5EE400AF1EE10FA06DAFFE7E8
:1016D00003990020CCF23430086022E0039890EDAA
:1016E000000A9FED131AB4EE410AF1EE10FA0EDC77
:1016F000FFE79DED020AB5EE400AF1EE10FA06DDB5
:10170000FFE703990020C4F23430086008E0039832
:1017100090ED000A00F094F9039880ED000AFFE7CD
:10172000FFE704B080BD00BF00000000BEFF3343F0
:10173000BEFF33C300000000B0B588B00790079823
:1017400008B9FFE779E107984FF4B271FEF779FF26
:1017500044F67450C2F20000039000F12401069197
:10176000079A049201684368D0F808C0D0F80CE0EA
:101770000469456955611461C2F80CE0C2F808C0FB
:10178000536011608169C369D0F820C0C2F820C0DD
:10179000D361916190F85800079981F8240044F6CC
:1017A0000063C2F20043059393F87800079981F82B
:1017B000250006988078079981F826000698C07859
:1017C000079981F8270006980079079981F8280081
:1017D00093F87900079981F8290093F87A0007991E
:1017E00081F82A0046F62410C2F20000007B079917
:1017F00081F82B0006980078079981F82C0006984C
:101800004078079981F82D00079918685A68D3F82D
:1018100008C0C1F838C04A6308630799DDF818C0EA
:10182000DCF80800DCF80C20DCF810C0C1F844C07B
:101830000A64C8630799D8681A695B690B65CA644A
:1018400088640799DDF818C0DCF81400DCF818206B
:10185000DCF81C30DCF820C0C1F860C0CB658A65BC
:101860004865079901F15400643100F0B5FA079911
:10187000DDF818C0DCF82400DCF82820DCF82C3077
:10188000DCF830C0C1F880C0CB678A674867079929
:1018900001F17400843100F0CBFADDF814C007992F
:1018A000DCF82800DCF82C20DCF83030DCF834C020
:1018B000C1F8A0C0C1F89C30C1F89820C1F89400CC
:1018C000079901F19400A43100F086FA059890F888
:1018D000780048B3FFE7079944F6006CC2F2004C69
:1018E000CDF808C0DCF83800DCF83C20DCF84030EB
:1018F000DCF844E0C1F8C0E0C1F8BC30C1F8B82061
:10190000C1F8B4000799DCF84800DCF84C20DCF89A
:101910005030DCF854C0C1F8E0C0C1F8DC30C1F888
:10192000D820C1F8D400FFE7079901F1B400C43111
:1019300000F07EFA079944F6006CC2F2004CCDF834
:1019400004C0DCF86800DCF86C20DCF87030DCF8EF
:1019500074E0C1F8F0E0C1F8EC30C1F8E820C1F85B
:10196000E4000799DCF81800DCF81C20DCF82030D3
:10197000DCF824C0C1F800C1C1F8FC30C1F8F8207F
:10198000C1F8F400079901F1F40001F5827100F04B
:1019900023FADDF804C00799DCF83800DCF83C20B5
:1019A000DCF84030DCF844C0C1F820C1C1F81C317B
:1019B000C1F81821C1F81401079901F58A7001F5E1
:1019C000927100F035FADDF804C00799DCF84800A0
:1019D000DCF84C20DCF85030DCF854E0C1F840E191
:1019E000C1F83C31C1F83821C1F834010799DCF85D
:1019F0005800DCF85C20DCF86030DCF864C0C1F82A
:101A000050C1C1F84C31C1F84821C1F844010799CF
:101A100046F6241CC2F2000CDCF80000DCF80420BE
:101A2000DCF80830DCF80CC0C1F860C1C1F85C31EA
:101A3000C1F85821C1F85401FFE708B0B0BD00005B
:101A400082B08DED000A9DED000A9FED111AB4EEF3
:101A5000410AF1EE10FA05DDFFE70020C4F2343050
:101A6000019011E09DED000A9FED0A1AB4EE410AC3
:101A7000F1EE10FA05DAFFE70020CCF234300190E5
:101A800002E000980190FFE79DED010A02B0704767
:101A900000003443000034C380B58AB000200190B8
:101AA0000020C4F2A030029003909FED120AFFF7CD
:101AB00003F88DED040A9FED100AFEF7FDFF8DED92
:101AC000060A9FED0E0AFEF7F7FF8DED080A0120CA
:101AD0008DF81400FF218DF81C108DF8240044F6B9
:101AE0007450C2F2000001A9FFF7CEF800F0CCF963
:101AF0000AB080BD000000000000A042000025C325
:101B000080B598B00BA8099080ED0C0AC0ED0B0AC7
:101B100080ED0A1A179844F60061C2F2004108608D
:101B20001698486015988860002028B9FFE7179834
:101B300022F0A2F858B930E0099890ED0C0AB7EEFF
:101B4000C00A51EC100B22F087F830B3FFE70020F9
:101B500028B9FFE7169822F08FF858B91DE00998C8
:101B600090ED0B0AB7EEC00A51EC100B22F074F89E
:101B700098B1FFE7002028B9FFE7159822F07CF81C
:101B800028BB0AE0099890ED0A0AB7EEC00A51ECAA
:101B9000100B22F061F8D0B9FFE700F0EDF88DF8F6
:101BA0002B0044F60061C2F200410320089081F846
:101BB00079009DF82B0081F87A0000F011FB08985D
:101BC0009DF82B200023194600F0F2F9BDE009989A
:101BD00090ED0C0AD0ED0B0A90ED0A1A44F6745001
:101BE000C2F200000790DFED5A1AFFF735F90146FF
:101BF00007988DF85310FFF737F813909DF95300AD
:101C0000E8BBFFE71398243044F67451C2F2000198
:101C10000FAA0492FEF764FF04980BA9059100F047
:101C200007F90598FFF720FD099890ED000AFEF7E7
:101C300043FF09980499059A80ED040A90ED0C0A77
:101C4000D0ED0B0A90ED0A1A139800F031F900203C
:101C500006908DF82B0044F60061C2F2004181F835
:101C600079009DF82B0081F87A0000F0B9FA069906
:101C70009DF82B20139B084600F09AF965E09DF92A
:101C800053000330D0B9FFE700F076F88DF82B0051
:101C900044F60061C2F200410120039081F879000E
:101CA0009DF82B0081F87A0000F09AFA03989DF8CD
:101CB0002B20139B002100F07BF945E09DF9530098
:101CC000043030BBFFE700208DF82A00139828B1BC
:101CD000FFE7139840788DF82A00FFE700F04CF8F2
:101CE0008DF82B0044F60061C2F200410220029000
:101CF00081F879009DF82B0081F87A0000F070FAE5
:101D000002989DF82A109DF82B20139B00F050F9A3
:101D100019E000F031F88DF82B0044F60061C2F2B2
:101D200000410320019081F879009DF82B0081F893
:101D30007A0000F055FA01989DF82B20139B0021A2
:101D400000F036F9FFE7FFE7FFE718B080BD00BFFE
:101D5000000000000000000044F60060C2F20040F5
:101D6000704700000000000080B500F039FA44F62A
:101D70007C60C2F2004080BD82B044F60060C2F2D6
:101D8000004090F87800E8B1FFE744F60061C2F245
:101D9000004100918869CA690B6AD1F824C0C1F872
:101DA00034C00B63CA628862886DCA6D0B6ED1F84D
:101DB00064C0C1F874C00B67CA66886601208DF8DC
:101DC000070003E002208DF80700FFE79DF80700F9
:101DD00002B070470000000080B582B00190009111
:101DE000019818B1FFE7009808B9FFE71CE00198D7
:101DF00090ED000AFFF708F8009880ED000A0198BE
:101E000090ED010AFFF700F8009880ED010A0198B3
:101E100090ED020AFEF7F8FF009880ED020A0198A3
:101E2000007B00990873FFE702B080BD000000004E
:101E300080B582B001900091019818B1FFE7009839
:101E400008B9FFE71CE0019890ED000AFEF7DCFFFF
:101E5000009880ED000A019890ED010AFEF7D4FF8A
:101E6000009880ED010A019890ED020AFEF7CCFF80
:101E7000009880ED020A0198007B00990873FFE743
:101E800002B080BD0000000080B544F60060C2F2E0
:101E900000407C21FEF7D5FB46F62411C2F200017A
:101EA0000020C86088604860086000F099F980BD33
:101EB00087B08DED060ACDED050A8DED041A03906D
:101EC00002910192039830B1FFE7029818B1FFE741
:101ED000019808B9FFE768E0069844F60061C2F28D
:101EE00000410091C8600598086104984861DDF8D8
:101EF0000CC0DCF81400DCF81820DCF81C30DCF82E
:101F000020C0C1F824C00B62CA618861DDF80CC032
:101F1000DCF82400DCF82820DCF82C30DCF830C0B9
:101F2000C1F844C00B64CA638863DDF808C0DCF8FC
:101F30000000DCF80420DCF80830DCF80CC0C1F844
:101F400054C00B65CA648864DDF804C0DCF8000086
:101F5000DCF80420DCF80830DCF80CC0C1F864C000
:101F60000B66CA658865DDF80CC0DCF81400DCF887
:101F70001820DCF81C30DCF820C0C1F834C00B633A
:101F8000CA628862DDF804C0DCF80000DCF80420D6
:101F9000DCF80830DCF80CC0C1F874C00B67CA6606
:101FA0008866012081F87800FFE707B070470000DD
:101FB00080B588B08DF81F008DF81E108DF81D209B
:101FC00006939DF81F008DF812009DF81E008DF8F5
:101FD00013009DF81D008DF81400069848B1FFE726
:101FE000069880788DF815000698C0788DF8160050
:101FF00005E000208DF815008DF81600FFE744F687
:102000000060C2F2004090F878008DF81700902030
:1020100001900DF1120102910622039200F010F8D6
:1020200001980299039A00F003F808B080BD0000FF
:1020300083B08DF80B000191ADF8022003B070471A
:1020400080B584B08DF80F000291ADF806209DF8A0
:102050000F0002999DF8062018F05AFA04B080BDCE
:1020600080B584B001A981ED020AC1ED010A81EDBC
:10207000001A8DF80300039846F62411C2F20001FD
:10208000086002984860019888609DF80300002865
:1020900018BF0120087300F0A3F804B080BD000051
:1020A00080B5A0B01CAA019282ED020AC2ED010A1D
:1020B00082ED001A1B901A911B9820B1FFE71B9923
:1020C000FE200870FFE71A9820B1FFE71A99002058
:1020D0000870FFE7002028B9FFE71E9821F0CCFD2B
:1020E00058B930E0019890ED020AB7EEC00A51EC01
:1020F000100B21F0B1FD30B3FFE7002028B9FFE756
:102100001D9821F0B9FD58B91DE0019890ED010A24
:10211000B7EEC00A51EC100B21F09EFD98B1FFE71D
:10212000002028B9FFE71C9821F0A6FD78B90AE045
:10213000019890ED000AB7EEC00A51EC100B21F0A7
:102140008BFD20B9FFE700208DF87F0041E044F6C9
:102150007450C2F2000090F8580058B9FFE71B987D
:1021600020B1FFE71B99FB200870FFE700208DF8E6
:102170007F002EE044F67451C2F2000103A80090E3
:102180005C22FEF70AFA0199009891ED020AD1ED5E
:10219000010A91ED001ADFED111AFEF75DFE8DF8D0
:1021A0000B001B9828B1FFE79DF80B001B990870E6
:1021B000FFE71A9828B1FFE79DF831001A990870D7
:1021C000FFE79DF90B00B0FA80F040098DF87F0021
:1021D000FFE79DF87F0020B080BD00BF0000000039
:1021E00080B544F67C60C2F20040FFF7A5FA80BDDE
:1021F00080B586B08DF8170045F2AC70C2F2004091
:1022000090ED030AB8EEC00A9FED291A20EE010AEC
:102210008DED040A90ED0A0AB8EEC00A9FED251A6A
:1022200020EE010A8DED030A90ED110AB8EEC00A06
:1022300020EE010A8DED020A9DED040A9FED1E1AA3
:10224000B4EE410AF1EE10FA05DDFFE70020C4F21A
:10225000343004900FE09DED040A9FED181AB4EE9F
:10226000410AF1EE10FA05DAFFE70020CCF2343033
:102270000490FFE7FFE79DF8172044F66051C2F293
:10228000000144F6F050C2F20040012A08BF08469F
:10229000019023F095F8049801990860039801993A
:1022A000486002980199886023F0B6F806B080BDB6
:1022B000402F81B974F7EF3900003443000034C374
:1022C00080B582B044F67050C2F2004090F9000030
:1022D000012818D0FFE746F6E820C2F20000007897
:1022E00050B9FFE70020FFF783FF46F6E821C2F26E
:1022F000000101200870FFE744F61C51C2F2000102
:102300000020087094E044F61C50C2F200000078EF
:1023100008B9FFE78CE04AF2A010C2F2004090ED4D
:10232000000A44F61450C2F2000090ED001AB4EE18
:10233000410AF1EE10FA36D1FFE746F61C30C2F240
:10234000000090ED000A44F66C50C2F2004090ED9F
:10235000001AB4EE410AF1EE10FA24D1FFE74AF276
:10236000A810C2F2004090ED000A44F61850C2F2E4
:10237000000090ED001AB4EE410AF1EE10FA12D10D
:10238000FFE746F6E820C2F20000007850B9FFE708
:102390000020FFF72DFF46F6E821C2F200010120E0
:1023A0000870FFE744E046F6E821C2F20001002091
:1023B000087044F61450C2F2000090ED000A44F692
:1023C0006C50C2F20040D0ED000A44F61850C2F240
:1023D000000090ED001AFFF793FBFFF7BDFC0190A2
:1023E000019890F8780010B3FFE70198806A45F2F1
:1023F000BC61C2F2004108600198C06A486001985F
:10240000006B88600198806E44F6F051C2F2004182
:1024100008600198C06E48600198006F8860FFF7FF
:10242000BBF818B9FFE7FFF7CFF8FFE7FFE7FFE7D3
:1024300002B080BD0000000080B584B08DED030ABD
:10244000CDED020A8DED011A46F61830C2F20000F9
:1024500090ED000A9DED031AB4EE410AF1EE10FA78
:1024600020D1FFE74AF2A410C2F2004090ED000A2A
:102470009DED021AB4EE410AF1EE10FA12D1FFE717
:1024800046F62030C2F2000090ED000A9DED011AE0
:10249000B4EE410AF1EE10FA04D1FFE70120FFF794
:1024A000A7FE2FE09DED030ADDED020A9DED011A66
:1024B000FFF726FBFFF750FC0090009890F878009B
:1024C000F8B1FFE722F07CFF0098806A45F6A4612E
:1024D000C2F2000108600098C06A48600098006B72
:1024E00088600098806E44F66051C2F20001086076
:1024F0000098C06E48600098006F886022F08CFFE2
:10250000FFE7FFE704B080BD82B00090009820B9DB
:10251000FFE7FF208DF807002AE00098006841F2ED
:102520000001C4F20101884204D1FFE700208DF8C8
:1025300007001DE00098006847F60041C4F2000162
:10254000884204D1FFE701208DF8070010E00098D1
:10255000006841F60001C4F20101884204D1FFE79E
:1025600002208DF8070003E0FF208DF80700FFE749
:102570009DF8070002B0704780B582B08DF8030067
:102580009DF8030000F014F818B9FFE7002001904F
:1025900009E09DF8031046F67410C2F2000000EB4B
:1025A00041100190FFE7019802B080BD00000000DB
:1025B00081B08DF803009DF803100020032938BF77
:1025C000012001B07047000080B584B08DF80E0086
:1025D0009DF80E00FFF7ECFF20B9FFE701208DF812
:1025E0000F0026E09DF80E1047F29440C0F602005E
:1025F00050F8210002909DF80E0046F67411C2F2C8
:10260000000101EB4012430100200190C850D0614D
:10261000906150611061D0609060506002989DF8A8
:102620000E2001EB421120220DF0DEFE8DF80F008E
:10263000FFE79DF80F0004B080BD0000000000001F
:1026400080B584B08DF80E000291ADF8062000939D
:102650009DF80E00FFF7ACFF38B1FFE7029820B1FC
:10266000FFE7BDF8060020B9FFE701208DF80F0055
:1026700010E09DF80E1047F29440C0F6020050F8AA
:1026800021000299BDF80620009B0EF07DFF8DF819
:102690000F00FFE79DF80F0004B080BD00000000B0
:1026A000F0B5A1B00DF12C0CCDF824C01F901E91F7
:1026B0001D921C9344F61D50C2F20000007808B928
:1026C000FFE7A0E1EFF3108072B6209044F672515C
:1026D000C2F2004112A82822FDF71AFF44F61D514C
:1026E000C2F200010020087062B6FF218DF8471089
:1026F0008DF82B00FFE79DF82B00072813D8FFE784
:102700009DF82B1012A8405C012805D1FFE79DF829
:102710002B008DF8470006E0FFE79DF82B00013005
:102720008DF82B00E7E79DF8500044F67056C2F292
:102730000046089630709DF8510044F21155C2F2DF
:10274000000528709DF852004AF2AE14C2F200440F
:1027500020709DF8530044F65C51C2F200010691CE
:1027600008709DF8540044F6B051C2F20041029145
:1027700008709DF8550044F65E51C2F200010391C5
:1027800008709DF8560044F6B151C2F20041049120
:1027900008709DF8570044F65D51C2F200010591A2
:1027A000087012A80190103022F05EFB0198099980
:1027B00081ED050A143022F057FB0198099981ED4B
:1027C000040A183022F050FB0198099981ED030AA0
:1027D0001C3022F049FB0198099981ED020A203052
:1027E00022F042FB0198099981ED010A243022F080
:1027F0003BFB0999DDF808C0039B049A0598DDF8B6
:1028000018E081ED000A9DF8477044F6B451C2F219
:10281000004107910F70109F4F600F9F8F600E9FB8
:10282000CF600D9F0F610C9F4F610B9F8F613678BA
:102830000E772D784D7724788C779EF800E081F81C
:102840001FE09CF800C081F820C01B7881F821307F
:10285000127881F82220007881F82300486A01303C
:10286000486208F0C9FD079A01460898D162012123
:1028700082F82810002182F8381048F21812C2F2AB
:102880000042117044F61C52C2F20002117090F91D
:10289000000001283BD1FFE744F21150C2F20000D2
:1028A0000078A0BBFFE7099890ED020AD0ED010A7D
:1028B00090ED001A00210846FFF7F2FBC8B1FFE7D0
:1028C0000D9844F61451C2F2000108600C9844F6C9
:1028D0006C51C2F2004108600B9844F61851C2F2E4
:1028E0000001086044F61C51C2F20001012008708A
:1028F0000CE0099890ED020AD0ED010A90ED001A63
:10290000FFF7FEF80020FFF773FCFFE70AE044F64C
:102910007050C2F2004090F90000012801D0FFE79A
:10292000FFE7FFE744F21150C2F2000000780138DF
:10293000B0FA80F0400901F003FC40F20800C2F256
:1029400000400078012825D1FFE709989DF847103D
:1029500090ED050AD0ED040A90ED031A45F2EC2043
:10296000C2F2004012F030FE44F65E50C2F20000A7
:10297000017844F6B150C2F20040027844F65D504E
:10298000C2F20000037845F28020C2F2004013F04A
:102990009BF80CE045F2EC20C2F2004014F018FC69
:1029A00045F28020C2F2004013F0FAF8FFE740F24F
:1029B0000800C2F200400078012824D1FFE74AF263
:1029C000AE10C2F2004001780020009019F058F9D2
:1029D000009818F085FF44F65C51C2F200010978B6
:1029E000002918BF012119F0FBF8009818F064FFC6
:1029F00044F6B051C2F200410978002918BF012104
:102A000019F0AAF8FFE721B0F0BD000000000000B7
:102A100080B588B0079006918DF817200493079829
:102A200008B9FFE714E20798407B90B1FFE70798E9
:102A30009DF8171017F05CFF58B9FFE7069820B112
:102A4000FFE7069814F0C4FBFFE7079900204873DE
:102A5000FFE79DF81700079908700799002002907A
:102A6000C8700499079A5161079908730799C87249
:102A700007994873079908740799C86107994874BA
:102A8000079908629DF81700182814D1FFE70F2056
:102A900001F082FA0798BAEE040A17F0CDFD079804
:102AA00001F01AF907989FEDCF0A17F0E9FD079892
:102AB00020F00AFDCCE19DF817001A2844D1FFE769
:102AC0000798BAEE040A17F0B7FD079801F004F969
:102AD00007989FEDC40A17F0D3FD069820B1FFE7D1
:102AE000069814F075FBFFE720F06AFC40BBFFE797
:102AF000069860B9FFE70799087940F0040008716B
:102B000007990020887007991720087017E0069829
:102B100014F02EF90698002114F03EFA0698DFED25
:102B2000D10A9FEDCC1AB0EE410A14F0D1FA079900
:102B3000012048730798049920F062FCFFE7FFE743
:102B4000079820F0C1FC83E19DF817001B2844D1B1
:102B5000FFE70798BAEE040A17F06EFD079801F038
:102B6000BBF807989FEDBB0A17F08AFD069820B1C5
:102B7000FFE7069814F02CFBFFE703F061F940BB78
:102B8000FFE7069860B9FFE70799087940F004006D
:102B9000087107990020887007991720087017E0BE
:102BA000069814F0E5F80698002114F0F5F9069857
:102BB000DFEDAB0A9FEDA71AB0EE410A14F088FAD8
:102BC0000799012048730798049903F0D5F8FFE7A7
:102BD000FFE7079820F078FC3AE19DF817001C28E1
:102BE00046D1FFE70798BAEE040A17F025FD0798CB
:102BF00001F072F807989FED970A17F041FD0698CB
:102C000060B9FFE70799087940F004000871079957
:102C10000020887007991720087025E0069814F0A6
:102C2000D7FA069814F0A4F80698042114F0B4F921
:102C30000698DFED8A0A9FED871AB0EE410A14F07C
:102C4000A7F820B9FFE70799012048730BE007991F
:102C5000087940F0040008710799002088700799EE
:102C600017200870FFE7FFE7079820F02DFCEFE042
:102C70009DF81700192846D1FFE70798BAEE040A15
:102C800017F0DAFC079801F027F807989FED710A12
:102C900017F0F6FC069860B9FFE70799087940F04D
:102CA00004000871079900208870079917200870A0
:102CB00025E0069814F08CFA069814F059F8069856
:102CC000042114F069F90698DFED630A9FED611A9B
:102CD000B0EE410A14F05CF820B9FFE70799012033
:102CE00048730BE00799087940F0040008710799D0
:102CF00000208870079917200870FFE7FFE7079802
:102D000020F0E2FBA4E09DF81700002800F080808E
:102D1000FFE79DF817000190079801F055FB014669
:102D20000198884274D8FFE7079801F061FB9DF88D
:102D3000171000EB4110203803900798039991ED8C
:102D4000020AD1ED030A91ED041AD1ED051A17F02C
:102D5000B7FC0398007928B9FFE70398407901F0A0
:102D60001BF951E00398007901280CD1FFE701F02D
:102D70000BF9079800F0B0FF0798039991ED060A48
:102D800017F07EFC3FE00398007902283AD1FFE774
:102D9000069860B9FFE70799087940F004000871C8
:102DA00007990020887007991720087029E0069875
:102DB00014F00EFA069813F0DBFF0698042114F0C5
:102DC000EBF806980399D1ED060A9FED221AB0EEB2
:102DD000410A13F0DDFF38B9FFE707990120487376
:102DE0000EE000BF000000000799087940F00400E1
:102DF0000871079900208870079917200870FFE76D
:102E0000FFE7FFE7FFE7FFE7079820F05DFB1FE024
:102E10009DF81700162817D1FFE707990020887042
:102E200007990120C8700798BAEE040A17F004FC4D
:102E3000079800F051FF07989FED060A17F020FC55
:102E4000079820F041FB03E0079820F03DFBFFE7E7
:102E500008B080BD000000008FC2F53C0AD7A3BBBC
:102E60000AD7A3BD0AD7A33D80B58CB00B900A91B9
:102E70008DF8272008930B9808B9FFE7B1E10B986C
:102E800020F022FB0B98407B58B1FFE70A9820B155
:102E9000FFE70A9814F09CF9FFE70B9900204873AC
:102EA000FFE70B98012141700B9A002090700B9A5C
:102EB000D0710B9A10720B9A10700B9AD070089AFE
:102EC0000B9B5A619DF827200B9BDA720B9A1173AA
:102ED0000B9948730B9908719DF82700013801463A
:102EE0000691192800F26B810699DFE811F01A00AB
:102EF00023002E00390044004F007B009600A10003
:102F0000AC00AC00AC002E01490154015F015A0035
:102F100065007000AC00AC00AC0084008D0037018F
:102F200040010F2001F038F80B989FEDB00A17F020
:102F300083FB52E10F20059001F02EF805990B98C4
:102F4000B2EE040AFDF728FC47E10F20049001F0DF
:102F500023F804990B98BAEE040AFDF71DFC3CE136
:102F600001F012F80B9800F0B7FE0B98B3EE0E0AC2
:102F700017F086FB31E101F007F80B9800F0ACFE8A
:102F80000B98B2EE040A17F07BFB26E100F0FCFF81
:102F90000B9800F0A1FE0B98BAEE040A17F070FB34
:102FA0001BE100F0F1FF0B9800F096FE0B98BBEED2
:102FB0000E0A17F065FB10E100F0E6FF0B9800F039
:102FC0008BFE0B989FED8B0A17F05AFB05E100F082
:102FD000DBFF0B9800F080FE0B989FED850A17F041
:102FE0004FFBFAE0092000F0D7FF0B989FED7E0A17
:102FF00017F052FBF1E0092000F0CEFF0B989FED97
:103000007B0A17F049FBE8E0092000F0C5FF0B98A8
:10301000BAEE040A17F040FBDFE00920039000F04D
:10302000BBFF03990B98B2EE040AFDF7B5FBD4E0A1
:103030000920029000F0B0FF02990B98BAEE040A42
:10304000FDF7AAFBC9E0002007900A9860B9FFE7E6
:103050000B99087940F0040008710B99002008735F
:103060000B9917200870B8E00A9814F0B1F80A9884
:1030700013F07EFE0A98042113F08EFF9DF82700BE
:103080000A2806D1FFE74CF6CD40C3F6CC50079096
:103090003BE09DF827000B2806D1FFE74CF6CD401A
:1030A000C3F64C5007902FE09DF827000C2806D15E
:1030B000FFE74CF6CD40CBF64C50079023E09DF84F
:1030C0002700142806D1FFE74CF6CD40CBF6CC50B4
:1030D000079017E09DF82700152806D1FFE749F66D
:1030E0009A10C3F6996007900BE09DF82700162808
:1030F00006D1FFE749F69A10CBF699600790FFE7F3
:10310000FFE7FFE7FFE7FFE7FFE70A98DDED070AC4
:103110009FED351AB0EE410A13F03AFE20B9FFE7F1
:103120000B9901204873FFE70B98407B60B9FFE7DC
:103130000B99087940F0040008710B99002008737E
:103140000B9917200870FFE747E0062000F024FFE6
:103150000B989FED250A17F0DFFA3EE0062000F0FD
:103160001BFF0B989FED210A17F0D6FA35E00620D9
:1031700000F012FF0B98BAEE040A17F0CDFA2CE01B
:103180000620019000F008FF01990B98B2EE040AA6
:10319000FDF702FB21E00620009000F0FDFE009903
:1031A0000B98BAEE040AFDF7F7FA16E00F2000F0CC
:1031B000F3FE0B989FED0C0A17F03EFA0DE00B9909
:1031C000087940F0040008710B99002008730B99EE
:1031D000C8720B9917200870FFE70B9820F074F95C
:1031E000FFE70CB080BD00BF0000000000005C43A2
:1031F0000000FAC30000FA4380B586B005908DF850
:10320000131003920293029808B9FFE745E1029870
:103210009021FDF716FA9DF81300029908700298A4
:10322000002100918171084617F08AFA029988619D
:1032300012F08EF901460098029A9172029A4FF2AA
:103240004911C4F2E741D164029A45F6B401C4F2CF
:10325000B74111658DF80700FFE79DF807000328C7
:1032600013D8FFE79DF8072047F2A040C0F6020000
:1032700050F82200029901EB82014865FFE79DF8B2
:10328000070001308DF80700E7E700208DF8070000
:10329000FFE79DF80700012813D8FFE79DF80720F6
:1032A00047F28C40C0F6020050F82200029901EB70
:1032B00082014866FFE79DF8070001308DF807009E
:1032C000E7E70398E8B3FFE700208DF80700FFE782
:1032D0009DF80700032815D8FFE703989DF807100D
:1032E00000EB4100B0F8840002999DF8072001EB43
:1032F0004201A1F88400FFE79DF8070001308DF836
:103300000700E5E700208DF80700FFE79DF80700BC
:10331000012815D8FFE703989DF8071000EB41003E
:10332000B0F88C0002999DF8072001EB4201A1F84A
:103330008C00FFE79DF8070001308DF80700E5E7F6
:10334000FFE7059808B9FFE7A7E00598007802991C
:10335000487005984078029988700598807802999D
:10336000C8700598C078029908710598007902998B
:10337000487105984079029988710598C079029939
:1033800008720598007A0299487205984069029976
:10339000C8600598806902990861059801784079AC
:1033A00017F0CEF902998861059812F0BDFA0299DA
:1033B000C8710598007828B1FFE7059800781628AD
:1033C00008D1FFE70598007B20B9FFE702990020AC
:1033D000486106E0059841698069401A0299486190
:1033E000FFE700208DF80700FFE79DF8070003289E
:1033F00025D8FFE705989DF8072000EB8200406D77
:10340000029901EB8201C86105989DF8072000EB45
:103410008200C06B029901EB8201C86205989DF899
:10342000072000EB8200406A029901EB8201C86626
:10343000FFE79DF8070001308DF80700D5E7002071
:103440008DF80700FFE79DF80700012825D8FFE762
:1034500005989DF8072000EB8200406E029901EB71
:103460008201C86305989DF8072000EB8200C06CBC
:10347000029901EB8201486405989DF8072000EB52
:103480008200406B029901EB8201C867FFE79DF85B
:10349000070001308DF80700D5E706B080BD0000B9
:1034A000FFE7FEE70000000080B5B6B02AA9099149
:1034B000359041F2883020F08FFF4FF2BB50C3F6B9
:1034C000EF10349045F69940C3F68110339046F6DC
:1034D0002260C3F6D6103290FFE7002008903190AA
:1034E00030902F902E902D902C902B902A908DF82C
:1034F0002B008DF82A0002208DF8290021F060FFB2
:1035000040F20800C2F20040007801282BD1FFE70A
:1035100045F2EC23C2F20043D3F8FC00D3F80011CB
:10352000D3F80421D3F80831319330922F912E90A3
:1035300045F28021C2F200410FA86C22FDF72DF860
:1035400044F6F050C2F2004001682B9141682C9182
:1035500080682D9001208DF82B008DF82A00002026
:103560008DF8290032E044F21050C2F200000078D9
:1035700001282AD1FFE744F68073C2F20003D3F892
:10358000FC00D3F80011D3F80421D3F808313193AB
:1035900030922F912E9044F61471C2F200010FA8C0
:1035A0006C22FCF7FAFF44F66050C2F2000001689A
:1035B0002B9141682C9180682D9001208DF82B0073
:1035C0008DF82A008DF82900FFE7FFE718F05CF975
:1035D000099880ED000A21F01FFF9DF82B000028BC
:1035E00045D0FFE7099890ED050AB1EE400A90ED4D
:1035F000081A80EE010A012011F0CAFE0998BDEEFA
:10360000C00A10EE101A059190ED070AB1EE400ABB
:1036100090ED081A80EE010A022011F0B9FE099817
:10362000BDEEC00A10EE101A069190ED060A90ED5C
:10363000081A80EE010A032011F0AAFE0998BDEED7
:10364000C00A10EE101A079190ED040A90ED081AC6
:1036500080EE010A042011F09BFE05980699079A56
:10366000BDEEC00A10EE103A02F0BEFC06E00023E8
:10367000184619461A4602F0B7FCFFE79DF82A00E3
:1036800028B1FFE70FA80BA912F03EF853E09FED19
:10369000580A8DED040A012011F0A6FEB0EE401A82
:1036A0009DED040ABDEEC11A11EE100AADF82C0012
:1036B000022011F099FEB0EE401A9DED040ABDEE15
:1036C000C11A11EE100AADF82E00032011F08CFE85
:1036D000B0EE401A9DED040ABDEEC11A11EE100ABB
:1036E000ADF83000042011F07FFEB0EE401A9DEDE1
:1036F000040ABDEEC11A11EE100AADF83200052021
:1037000011F072FEB0EE401A9DED040ABDEEC11A32
:1037100011EE100AADF83400062011F065FEBDEE82
:10372000C00A10EE100AADF836000020ADF83800DF
:10373000ADF83A00FFE79DF829000BA912F064F9F3
:10374000BDF92C00BDF92E10BDF93020BDF9323085
:1037500002F086FCBDF93400BDF9361000231A468C
:1037600002F09EFC099890ED010AFDF751F80998C6
:10377000B1EE400A90ED091A80EE010A0120039093
:1037800020F0C2FE0998BDEEC00A10EE101A00919A
:1037900090ED020A90ED0A1A80EE010A022020F054
:1037A000B3FE0998BDEEC00A10EE101A019190ED1B
:1037B000030A90ED0A1A80EE010A032020F0A4FE0D
:1037C0000998BDEEC00A10EE101A029190ED000AA1
:1037D000042020F099FE00980199029ABDEEC00ADB
:1037E00010EE103A02F098FC039820F0F5FD74E614
:1037F000000000000000000080B586B00490039136
:1038000000200290049818B1FFE7039818B9FFE769
:103810000020059027E0FFE70298039988421FD215
:10382000FFE769460DF10700086046F6D810C2F2BE
:10383000000046F27401C2F2004146F27802C2F280
:1038400000424FF4805314F077FA08B9FFE707E01D
:103850009DF807000499029A531C02938854DBE7F1
:1038600002980590FFE7059806B080BD00000000B3
:1038700080B546F6E010C2F20000006847F20C1175
:10388000C2F2004109684FF4805214F045FA80BD3D
:1038900080B584B045F24430C2F20000D0F8BC02DA
:1038A00008B9FFE77AE045F24430C2F20000D0F8F0
:1038B000BC02039047F20810C2F20040006808B151
:1038C000FFE76BE00398D0F8140208B1FFE765E06A
:1038D00046F6E010C2F20000006847F20C11C2F296
:1038E000004109684FF4805214F096FA0290029851
:1038F00008B9FFE752E046F6E010C2F200000068A7
:1039000047F20C11C2F20041096888420DD9FFE765
:1039100046F6E010C2F20000006847F20C11C2F255
:1039200000410968401A019008E047F20C10C2F209
:1039300000400068C0F580500190FFE701980299AF
:10394000884203D9FFE702980190FFE70198B0F59C
:10395000007F04D9FFE74FF400700190FFE747F2C2
:103960000C10C2F20040016847F21010C2F2004091
:103970000144BDF8042045F24430C2F2000000903A
:103980001BF01AFE00981BF023FF38B9FFE70198DF
:1039900047F20811C2F200410860FFE704B080BDA1
:1039A00080B586B004900391049818B1FFE703989E
:1039B00020B9FFE701208DF817003FE046F6E01040
:1039C000C2F20000006847F20C11C2F2004109681F
:1039D0004FF4805214F0A0F90190039801998842A5
:1039E00004D9FFE700208DF8170027E0002002909F
:1039F000FFE70298039988421AD2FFE704980299D8
:103A0000405C6946086046F6E010C2F2000047F2EA
:103A10000C11C2F2004147F21012C2F200424FF400
:103A2000805314F0C9F9FFE7029801300290E0E7F3
:103A3000FFF72EFF01208DF81700FFE79DF8170014
:103A400006B080BD0000000084B08DF80F00029128
:103A5000ADF80620FFE7012008B9FFE7FBE79DF876
:103A60000F000146009123282FD80099DFE801F0CC
:103A700012131415162D2D2D2D2D2D2D2D2D2D2DF3
:103A80002D2D2D2D2D2D2D2D2D2D2D2D2D2D2D2D66
:103A900017182B2C1AE019E018E017E016E015E0D3
:103AA000029900200870029AC2215170029A0121E5
:103AB00091700299C870029908710299487102992F
:103AC0000820887102E001E000E0FFE7002004B078
:103AD0007047000000000000002070470000000058
:103AE00080B582B045F24430C2F20000009044F24A
:103AF0006C51C2F20041002201921BF05DFD009862
:103B000044F21251C2F200011BF036FD01990098F7
:103B100046F6D812C2F20002116046F27402C2F2F6
:103B20000042116046F6E012C2F20002116047F254
:103B30000C12C2F20042116047F20812C2F20042B7
:103B4000116046F6D412C2F2000211601BF0B8FCFC
:103B5000019802B080BD000080B586B00590049148
:103B600000200390FFE7039804990968884224D253
:103B7000FFE705980399405C6946086046F6D8104F
:103B8000C2F2000046F27401C2F2004146F278022D
:103B9000C2F200424FF4805314F00EF940B9FFE72F
:103BA00046F6D411C2F20001086801300860FFE750
:103BB000FFE7039801300390D5E7059945F24430BB
:103BC000C2F2000002901BF0D7FC02981BF078FCB8
:103BD000002006B080BD000080B584B00390029143
:103BE0008DF8072000208DF8060047F20C13C2F272
:103BF00000431A6847F20811C2F20041D1F800C030
:103C000062446FF31F321A600860FFF741FE9DF9AE
:103C1000060004B080BD000084B00290ADF806102C
:103C20004FF6FF70ADF80400029820B1FFE7BDF831
:103C3000060028B9FFE7BDF80400ADF80E0047E024
:103C40000020ADF80200FFE7BDF80200BDF8061045
:103C5000884238DAFFE70298BDF80210415CBDF8EF
:103C600004004840ADF8040000208DF80100FFE793
:103C70009DF8010007281FD8FFE7BDF80400C00722
:103C800068B1FFE7BDF804004008ADF80400BDF8D6
:103C900004004AF201014840ADF8040005E0BDF817
:103CA00004004008ADF80400FFE7FFE79DF80100BD
:103CB00001308DF80100DBE7FFE7BDF802000130BD
:103CC000ADF80200C0E7BDF80400ADF80E00FFE754
:103CD000BDF80E0004B0704781B0009045F6B460A6
:103CE000C2F20000C16F009A5163D0F898000099A9
:103CF000886301B07047000082B0019000208DF809
:103D00000300FFE79DF80300032816D8FFE79DF89E
:103D10000320C2EBC20145F6B460C2F2000000EB22
:103D20008100C068019901EB82014862FFE79DF8BC
:103D3000030001308DF80300E4E702B07047000093
:103D400081B00090009808B9FFE720E046F22070AB
:103D5000C2F200004168009A11608168009A5160C7
:103D6000C168009A916000690099C86046F2140029
:103D7000C2F200404168009A11618168009A516165
:103D8000C168009A916100690099C861FFE701B0BC
:103D9000704700000000000080B546F22070C2F2BB
:103DA000000011F085F846F21400C2F2004011F054
:103DB0007FF880BD0000000080B596B08DED150A3B
:103DC00068460EF089FB9DED0D0ADDED150A46F201
:103DD0001400C2F2004010F037FF16B080BD0000A2
:103DE00080B582B00190019808B9FFE722E0019800
:103DF000006846F22071C2F20001486001984068F4
:103E0000886001988068C8600198C068086101985E
:103E1000006946F21401C2F200414860019840690D
:103E2000886001988069C8600198C0690861FFF7DF
:103E3000B3FFFFE702B080BD80B598B08DED170AE3
:103E400002A80EF049FB9DED170A9DED0C1A30EE0D
:103E5000410A8DED010A9DED010A02F0FDFC8DED98
:103E6000010ADDED010A46F22070C2F200009FED6A
:103E7000090A10F0E9FE8DED000A9DED0F0ADDED57
:103E8000000A46F21400C2F2004010F0DDFE18B045
:103E900080BD00BF0000000082B0ADF80400ADF8A6
:103EA0000210ADF80020BDF90400BDF902108842EF
:103EB0000BDBFFE7BDF90400BDF90010884204DC0C
:103EC000FFE701208DF8070003E000208DF80700D0
:103ED000FFE79DF8070002B07047000000000000F7
:103EE00084B08DED020ACDED010A8DED001A9DED35
:103EF000020A9DED011AB4EE410AF1EE10FA03DA5E
:103F0000FFE7019803900FE09DED020A9DED001A76
:103F1000B4EE410AF1EE10FA03DDFFE700980390DA
:103F200002E002980390FFE79DED030A04B070479A
:103F300082B08DED000A9DED000ABAEE041AB4EECF
:103F4000410AF1EE10FA05DAFFE70020CCF220106A
:103F5000019011E09DED000A9FED091AB4EE410AAF
:103F6000F1EE10FA05DDFFE70020C4F27030019099
:103F700002E000980190FFE79DED010A02B0704752
:103F8000000070430000000080B5052010F030FEF6
:103F9000062010F02DFE80BD80B582B08DF80700A0
:103FA00000208DF80600FFE79DF80600032816D8CC
:103FB000FFE79DF807009DF80610C840C00738B11C
:103FC000FFE79DF806000130C0B210F011FEFFE7D8
:103FD000FFE79DF8060001308DF80600E4E702B027
:103FE00080BD00000000000080B584B00290002079
:103FF0008DF80600029820B9FFE700208DF80F0029
:104000002EE000208DF80700FFE79DF8070001284B
:1040100021D8FFE702989DF8071000EB8100D0ED52
:10402000130A90ED190AB1EE041A00F05DF858B1C8
:10403000FFE79DF80710012000FA01F19DF8060046
:1040400008438DF80600FFE7FFE79DF80700013001
:104050008DF80700D9E79DF806008DF80F00FFE7FF
:104060009DF80F0004B080BD80B584B002900020A0
:104070008DF80600029820B9FFE700208DF80F00A8
:104080002EE000208DF80700FFE79DF807000328C9
:1040900021D8FFE702989DF8071000EB8100D0EDD2
:1040A0000F0A90ED150AB0EE081A00F01DF858B18D
:1040B000FFE79DF80710012000FA01F19DF80600C6
:1040C00008438DF80600FFE7FFE79DF80700013081
:1040D0008DF80700D9E79DF806008DF80F00FFE77F
:1040E0009DF80F0004B080BD84B08DED030ACDEDC6
:1040F000020A8DED011A9DED030A9DED021A30EEC4
:10410000410A8DED000A9DED000AB5EE400AF1EE80
:1041100010FA07DAFFE79DED000AB1EE400A8DEDD7
:10412000000AFFE79DED000A9DED011A0020B4EEA4
:10413000410AF1EE10FAD8BF012004B07047000028
:1041400080B582B08DF807009DF8070001280FD1D7
:10415000FFE744F21051C2F200010120087040F262
:104160000802C2F200420021117017F099FC0EE023
:1041700040F20801C2F200410120087044F21051DF
:10418000C2F200010020087017F08AFCFFE702B0BD
:1041900080BD00000000000080B584B0039041F2B3
:1041A000883020F019F910F053F845F6B440C2F207
:1041B000000044F67151C2F2004101220DF06CF989
:1041C0000FF0BAFB45F2EC20C2F2004040F28C0145
:1041D000C2F2004100919FED2E0A8DED010A12F00E
:1041E00007FC00999DED010A44F68070C2F20000C0
:1041F00012F0FEFB45F28020C2F2004011F064FB99
:1042000044F61470C2F2000011F05EFB13F008FCDB
:10421000FDF742FC17F0F0FB21F06AFD46F6701145
:10422000C2F20001086045F24450C2F200400BF0B7
:10423000B3FAFFE70121084620F07AFF02900298C6
:1042400018B9FFE701200290FFE7FFE7029830B1BD
:10425000FFE711F04DFF029801380290F6E74AF2AD
:10426000C010C2F20040011D00F108020023FEF759
:1042700017FA17F001FC40F20800C2F20040007883
:10428000012803D1FFE7FEF71BF8FFE7D2E700BFE5
:104290006F12833A0000000080B58AB08DF82700C5
:1042A00008910792002006900590049003900898CA
:1042B0000290089806300190042004909DF8270091
:1042C0005038014600910F2842D80099DFE801F0EC
:1042D0001A081D1122272A2D30333640404040391C
:1042E0003420069003200490402005900120039084
:1042F0002FE03D200690032004902E200590012001
:10430000039026E03020069023E03720069003201B
:1043100007901EE03A2006900320079019E0412004
:10432000069016E04520069013E04920069010E024
:104330004D2006900DE0512006900AE05520069091
:1043400007E048F21010C2F200400068069000E05A
:1043500038E00798032805D1FFE7032004900020E8
:104360000390FFE70498A8B1FFE7069946F604001A
:10437000C2F2000000EB41000299049A5200FCF7DF
:10438000C7F845F69C70C2F20000026806980499CE
:104390009047FFE70398A8B1FFE7059946F60400A8
:1043A000C2F2000000EB41000199039A5200FCF7B1
:1043B000AFF845F69C70C2F20000026805980399B8
:1043C0009047FFE70AB080BD80B582B001900198A8
:1043D00020B1FFE701984079009002E000200090B2
:1043E000FFE70098C0B202F007FA02B080BD0000FB
:1043F00080B582B00190019820B1FFE70198407923
:10440000009002E000200090FFE70098C0B202F0A8
:1044100007FA02B080BD000080B588B00690059113
:104420000698007804900698FFF7E2FF029006983D
:10443000FFF7CAFF019006980078182807D1FFE718
:1044400006980F210FF038FA8DF81F0082E00698C9
:1044500000781A2805D1FFE71EF0B2FF8DF81F0083
:1044600078E0069800781B2805D1FFE701F0E8FC0A
:104470008DF81F006EE0069800781C2811D1FFE728
:10448000059850B1FFE7059812F09EFA022804D172
:10449000FFE701208DF81F005CE000208DF81F0071
:1044A00058E006980078192811D1FFE7059850B117
:1044B000FFE7059812F088FA022804D1FFE70120EF
:1044C0008DF81F0046E000208DF81F0042E00498A0
:1044D00028B1FFE704980199884204D9FFE700203A
:1044E0008DF81F0036E00298049900EB4110203847
:1044F00003900398007940B9FFE70698039949793A
:104500000FF0DAF98DF81F0024E0039800790128F4
:1045100006D1FFE7069801F003FD8DF81F0019E0B2
:1045200003980079022811D1FFE7059850B1FFE701
:10453000059812F049FA022804D1FFE701208DF80E
:104540001F0007E000208DF81F0003E000208DF819
:104550001F00FFE79DF81F0008B080BD00000000AD
:1045600080B501F061FD01F0BBFD01F0F5FD01F04A
:10457000F7FF80BD0000000080B545F22060C2F268
:10458000000003F0F9F980BD83B002900298016841
:1045900001201022C4F202029142009000F0A38098
:1045A000FFE70298016801202822C4F2020291422A
:1045B000009000F09880FFE70298016801204022F7
:1045C000C4F202029142009000F08D80FFE7029851
:1045D000016801205822C4F202029142009000F0CA
:1045E0008280FFE70298016801207022C4F2020273
:1045F0009142009077D0FFE702980168012088225D
:10460000C4F20202914200906DD0FFE70298016867
:104610000120A022C4F202029142009063D0FFE781
:10462000029801680120B822C4F20202914200906F
:1046300059D0FFE702980168012040F21042C4F20D
:104640000202914200904ED0FFE7029801680120DB
:1046500040F22842C4F202029142009043D0FFE7A8
:1046600002980168012040F24042C4F202029142E5
:10467000009038D0FFE702980168012040F25842CC
:10468000C4F20202914200902DD0FFE70298016827
:10469000012040F27042C4F202029142009022D006
:1046A000FFE702980168012040F28842C4F202024A
:1046B0009142009017D0FFE702980168012040F274
:1046C000A042C4F20202914200900CD0FFE702988F
:1046D00000684FF64831CBF6FD710844B0FA80F01F
:1046E00040090090FFE70098C00740B3FFE7029839
:1046F000007810384AF6AB21CAF6AA21A0FB0110B7
:1047000000090190019800F0070147F2DC00C0F6B3
:104710000200405C0299C8650198042807D3FFE7AE
:1047200002990868042262F30900886506E002998C
:10473000086840F2FF3290438865FFE705E0029980
:10474000086820F0FF008865FFE70298806D03B0DD
:10475000704700000000000084B0039003980068D8
:10476000019003980168012045F20842C5F6020253
:10477000914200904ED0FFE703980168012045F276
:104780001C42C5F602029142009043D0FFE7039815
:104790000168012045F23042C5F6020291420090C4
:1047A00038D0FFE703980168012045F24442C5F67E
:1047B0000202914200902DD0FFE70398016801208A
:1047C00045F25842C5F602029142009022D0FFE71E
:1047D00003980168012045F26C42C5F6020291423D
:1047E000009017D0FFE703980168012045F280424E
:1047F000C5F60202914200900CD0FFE703980068D2
:104800004AF66C31CAF2FD710844B0FA80F04009F2
:104810000090FFE70098C00710B3FFE70398007807
:1048200008384CF6CD41CCF6CC41A0FB0110000974
:104830000290029945F60000C5F6020000EB8100E7
:1048400003990866039945F68000C5F6020048669C
:10485000029800F01F01012088400399886635E026
:104860000398007810384AF6AB21CAF6AA21A0FBBB
:10487000011000090290019840F2B841C4F202010F
:1048800088420CD8FFE7019840F21041C4F20201BF
:10489000884204D3FFE7029808300290FFE70299AC
:1048A00040F60000C4F2020000EB810003990866A4
:1048B000039940F68000C4F202004866029800F0B6
:1048C0001F010120884003998866FFE704B0704704
:1048D00083B002900298007901900198002800F0BE
:1048E0008A80FFE70198082800F28580FFE7029898
:1048F0000168012045F20842C5F60202914200908B
:104900004ED0FFE702980168012045F21C42C5F62F
:1049100002029142009043D0FFE702980168012013
:1049200045F23042C5F602029142009038D0FFE7CE
:1049300002980168012045F24442C5F60202914204
:1049400000902DD0FFE702980168012045F25842FF
:10495000C5F602029142009022D0FFE7029801685A
:10496000012045F26C42C5F602029142009017D038
:10497000FFE702980168012045F28042C5F6020275
:10498000914200900CD0FFE7029800684AF66C3123
:10499000CAF2FD710844B0FA80F040090090FFE7C8
:1049A0000098C00780B1FFE7019945F6FC00C5F605
:1049B000020000EB81000299C866029945F640109A
:1049C000C5F6020008670FE0019940F6FC00C4F24A
:1049D000020000EB81000299C866029940F640107F
:1049E000C4F202000867FFE70198411E01208840D9
:1049F00002994867FFE703B070470000000000001D
:104A000085B0049000208DF80F000498806918BBD1
:104A1000FFE70498806A029003281BD80299DFE818
:104A200001F0020D0218049890F82F00C00720B181
:104A3000FFE701208DF80F00FFE70CE00498C06A43
:104A4000B0F1C07F04D1FFE701208DF80F00FFE730
:104A500001E000E0FFE747E004988069B0F5005FFF
:104A600026D1FFE70498806A019003281ED8019997
:104A7000DFE801F00206021101208DF80F0016E0B8
:104A8000049890F82F00C00720B1FFE701208DF8AF
:104A90000F00FFE70BE00498C06AB0F1C07F04D1BB
:104AA000FFE701208DF80F00FFE700E0FFE71AE0C5
:104AB0000498806A0090032804D3FFE70098032835
:104AC00004D00EE001208DF80F000BE0049890F860
:104AD0002F00C00720B1FFE701208DF80F00FFE78E
:104AE00000E0FFE7FFE7FFE79DF80F0005B0704724
:104AF00089B008900791069205930898806D0490FC
:104B00000898806D03900898016801201022C4F273
:104B100002029142029000F00381FFE708980168C9
:104B200001202822C4F202029142029000F0F88093
:104B3000FFE70898016801204022C4F20202914276
:104B4000029000F0ED80FFE70898016801205822EC
:104B5000C4F202029142029000F0E280FFE708985E
:104B6000016801207022C4F202029142029000F01A
:104B7000D780FFE70898016801208822C4F202026A
:104B80009142029000F0CC80FFE708980168012074
:104B9000A022C4F202029142029000F0C180FFE71D
:104BA000089801680120B822C4F2020291420290E2
:104BB00000F0B680FFE708980168012040F210423B
:104BC000C4F202029142029000F0AA80FFE7089826
:104BD0000168012040F22842C4F202029142029090
:104BE00000F09E80FFE708980168012040F24042F3
:104BF000C4F202029142029000F09280FFE708980E
:104C00000168012040F25842C4F20202914202902F
:104C100000F08680FFE708980168012040F27042AA
:104C2000C4F20202914202907AD0FFE7089801682C
:104C3000012040F28842C4F20202914202906FD0F9
:104C4000FFE708980168012040F2A042C4F2020286
:104C50009142029064D0FFE708980168012040F279
:104C6000B842C4F202029142029059D0FFE708987C
:104C70000168012045F20842C5F602029142029005
:104C80004ED0FFE708980168012045F21C42C5F6A6
:104C900002029142029043D0FFE708980168012088
:104CA00045F23042C5F602029142029038D0FFE749
:104CB00008980168012045F24442C5F6020291427B
:104CC00002902DD0FFE708980168012045F2584274
:104CD000C5F602029142029022D0FFE708980168CF
:104CE000012045F26C42C5F602029142029017D0B3
:104CF000FFE708980168012045F28042C5F60202EC
:104D0000914202900CD0FFE7089800684AF66C3197
:104D1000CAF2FD710844B0FA80F040090290FFE742
:104D20000298C00770B1FFE70898416E806E486036
:104D30000898C06E28B1FFE70898016F406F48607F
:104D4000FFE7FFE70898016801201022C4F2020281
:104D50009142019000F0A380FFE7089801680120CC
:104D60002822C4F202029142019000F09880FFE7ED
:104D70000898016801204022C4F202029142019089
:104D800000F08D80FFE70898016801205822C4F2E6
:104D900002029142019000F08280FFE708980168CA
:104DA00001207022C4F202029142019077D0FFE705
:104DB0000898016801208822C4F202029142019001
:104DC0006DD0FFE7089801680120A022C4F202021A
:104DD0009142019063D0FFE7089801680120B82252
:104DE000C4F202029142019059D0FFE7089801688D
:104DF000012040F21042C4F20202914201904ED0D2
:104E0000FFE708980168012040F22842C4F202023C
:104E10009142019043D0FFE708980168012040F2D9
:104E20004042C4F202029142019038D0FFE7089854
:104E30000168012040F25842C4F2020291420190FE
:104E40002DD0FFE708980168012040F27042C4F2BB
:104E500002029142019022D0FFE7089801680120E8
:104E600040F28842C4F202029142019017D0FFE75B
:104E700008980168012040F2A042C4F20202914267
:104E800001900CD0FFE7089800684FF64831CBF648
:104E9000FD710844B0FA80F040090190FFE70198E5
:104EA000C00750B3FFE70898C06D00F01F013F2016
:104EB00088400499886008980168086820F4802078
:104EC0000860059808990968486008988068402833
:104ED00009D1FFE70698089909688860079808993A
:104EE0000968C86008E0079808990968886006980A
:104EF00008990968C860FFE782E008980168012006
:104F000045F20842C5F60202914200904ED0FFE7FA
:104F100008980168012045F21C42C5F60202914240
:104F2000009043D0FFE708980168012045F2304225
:104F3000C5F602029142009038D0FFE70898016858
:104F4000012045F24442C5F60202914200902DD064
:104F5000FFE708980168012045F25842C5F60202B1
:104F60009142009022D0FFE708980168012045F2A5
:104F70006C42C5F602029142009017D0FFE70898F4
:104F80000168012045F28042C5F60202914200907C
:104F90000CD0FFE7089800684AF66C31CAF2FD7140
:104FA0000844B0FA80F040090090FFE70098C0077D
:104FB00020B3FFE70898C06D00F01F010120884072
:104FC00003994860059808990968486008988068BE
:104FD000402809D1FFE70698089909688860079872
:104FE00008990968C86008E0079808990968886006
:104FF000069808990968C860FFE700E0FFE7FFE747
:1050000009B070470000000080B598B00DAB09935F
:105010008DF85F0016918DF85720002014901390A2
:10502000129011908DF8430001208DF842009DF8F8
:105030005F0016999DF857201CF09EFC9DF85F00BC
:1050400001460A91592800F27A860A99DFE811F0A0
:105050005A009700B10077067706FA00EE0077064F
:105060007706770677067706770677067706770658
:1050700023014101510188014902E502FB02770643
:105080007706770677067706770677067706770638
:105090000503180377062603770675038203770650
:1050A0007706770677067706770677067706770618
:1050B0008C03A303B103E3031204480459047706E5
:1050C00077067706770677067706770677067706F8
:1050D00077067706770677067706770663046D040A
:1050E000B104C70477067706770677067706770652
:1050F000D104F1040E05AC05C7051C066D063C067F
:10510000E405FF059DF857001CF042FA10B9FFE7CF
:1051100000F016BE1CF0FCFB1CF062FB1EF0D8F881
:1051200020F04EF912F0D8FD44F68070C2F2000073
:1051300012F04EF844F61470C2F2000010F030FD88
:1051400020F06AF901200890FDF752F820F038F9B4
:10515000089816F025FC20F05FF940F20421C2F215
:1051600000010020087040F2A021C2F20041087046
:1051700044F20C31C2F20001087000F0E1BD9DF86C
:1051800057001CF005FA10B9FFE700F0D9BD40F256
:105190000421C2F200010120087040F2A021C2F2F5
:1051A0000041087044F20C31C2F20001087000F0B6
:1051B000C7BD16989DF8571011AA1DF041FD10B9F2
:1051C000FFE700F0BDBD099890ED040ABCEEC00AEF
:1051D00010EE100A002818BF0120FEF7B1FF099851
:1051E00090ED040ABCEEC00A10EE100AE0B9FFE729
:1051F0001CF08EFB1CF0F4FA1EF06AF820F0E0F8C8
:1052000012F06AFD44F68070C2F2000011F0E0FF77
:1052100044F61470C2F2000010F0C2FC20F0FCF85A
:105220000120FCF7E5FFFFE700F08ABD9DF857007D
:105230001CF0AEF910B9FFE700F082BD0FF064FC7E
:1052400000F07EBD9DF857001CF0A2F910B9FFE7F1
:1052500000F076BD1CF05CFB1CF0C2FA1EF038F8C2
:1052600020F0AEF812F038FD44F68070C2F2000073
:1052700011F0AEFF44F61470C2F2000010F090FC82
:105280000120079016F0ACFD20F0C6F80798FCF757
:10529000AFFF00F055BD9DF857001CF079F910B92B
:1052A000FFE700F04DBD1CF033FB20F089F812F051
:1052B00013FD44F68070C2F2000011F089FF20F067
:1052C000ABF840F20421C2F200010020087000F0A7
:1052D00037BD9DF857001CF05BF910B9FFE700F0EF
:1052E0002FBD40F20421C2F200010120087000F03D
:1052F00027BD16989DF8571011AA1DF0A1FC10B9F2
:10530000FFE700F01DBD099890ED040ABCEEC00A4D
:1053100010EE100A8DF841009DF8410007281DD8B5
:10532000FFE744F21050C2F200000078B0B1FFE78E
:1053300040F20420C2F20000007878B1FFE720F0CC
:105340003FF812F0C9FC9DF8411044F68070C2F29B
:10535000000011F021FE20F05FF8FFE700F0F0BC44
:1053600016989DF8571011AA1DF06AFC10B9FFE7B6
:1053700000F0E6BC44F68070C2F20000007811F044
:10538000B7FB014609988DF8401013990F9190EDE5
:10539000040AF8EE000ACDED050AB0EE001A8DED14
:1053A000061AFEF79DFDDDED050A9DED061A09982A
:1053B00080ED040A90ED050AFEF792FD099880ED54
:1053C000050A9DF8400068B9FFE7099890ED060AC4
:1053D000DFEDD20A9FEDD21AFEF782FD099880ED2B
:1053E000060AFFE7119846F63831C2F2000108605C
:1053F000129848609DF8400028B1FFE79FEDC90A68
:105400008DED040A05E0099890ED060A8DED040A79
:10541000FFE79DED040A46F63830C2F2000080ED49
:10542000020A44F21050C2F200000078002856D060
:10543000FFE740F20420C2F20000007800284ED0BE
:10544000FFE71FF0BDFF12F047FC9DF8400098B346
:10545000FFE744F68070C2F20000007811F014FCFF
:1054600070B1FFE7099890ED020A9FEDAF1A20EEA8
:10547000010A44F68070C2F2000011F08DFE0DE0CA
:10548000099890ED020A9FEDA81A20EE010A44F651
:105490008070C2F2000011F0EBFDFFE7099890ED7B
:1054A000040AD0ED050A44F68070C2F200009FEDB8
:1054B0009D1A11F00DFE0DE0099890ED040AD0ED53
:1054C000050A90ED061A44F68070C2F2000011F051
:1054D000FFFDFFE71FF0A0FF1CF032FAFFE700F02E
:1054E0002FBC16989DF8571011AA1DF0A9FB10B9F2
:1054F000FFE700F025BC44F68070C2F2000000789F
:1055000011F0F6FA8DF83B0013980D90119846F6BD
:105510003831C2F200010860129848609DF83B00E3
:1055200028B1FFE79FED7F0A8DED030A05E009989A
:1055300090ED060A8DED030AFFE79DED030A46F69E
:105540003830C2F2000080ED020A44F21050C2F27C
:105550000000007800285FD0FFE740F20420C2F28C
:1055600000000078002857D0FFE71FF029FF12F055
:10557000B3FB9DF83B00A8B3FFE744F68070C2F28E
:105580000000007811F080FB70B1FFE7099890ED02
:10559000000A9FED651A20EE010A44F68070C2F2FF
:1055A000000011F0F9FD0DE0099890ED000A9FED63
:1055B0005E1A20EE010A44F68070C2F2000011F07B
:1055C00057FDFFE7099890ED040AD0ED050A44F66F
:1055D0008070C2F200009FED531A11F0D9FB8DF8D4
:1055E00033000FE0099890ED040AD0ED050A90ED24
:1055F000061A44F68070C2F2000011F0C9FB8DF863
:105600003300FFE71FF008FF9DF9330018B9FFE7EB
:105610001CF07EF9FFE7FFE792E39DF857001BF0CF
:10562000B7FF08B9FFE78BE31CF072F91FF0C8FE63
:1056300012F052FB44F68070C2F2000011F0C8FD77
:105640001FF0EAFE7CE39DF857001BF0A1FF08B9AC
:10565000FFE775E30FF040FA72E39DF857001BF087
:1056600097FF08B9FFE76BE31CF0BAF80120FCF7DD
:10567000BFFD40F2A021C2F20041002008705FE3AC
:105680009DF857001BF084FF08B9FFE758E340F28C
:10569000A021C2F200410120087051E316989DF844
:1056A000571011AA1DF0CCFA08B9FFE748E344F2FD
:1056B0001050C2F200000078C0B3FFE740F2A02013
:1056C000C2F20040007888B3FFE7099890ED040A21
:1056D000D0ED050A90ED061A00210846FCF7E0FC23
:1056E00060B1FFE7099890ED040AD0ED050A90ED4E
:1056F000061AFCF7A1FE1CF08BF80EE0099890ED5D
:10570000040AD0ED050A90ED061AFCF7F9F901201C
:10571000FCF76EFD1CF064F8FFE70DE07BD920BFBD
:105720007BD9203F0000000039FA8E3C1CF058F86D
:105730000120FCF75DFDFFE702E39DF857001BF039
:1057400027FF08B9FFE7FBE21CF04AF80120FCF74D
:105750004FFDF5E29DF857001BF01AFF08B9FFE76F
:10576000EEE20FF0B1F9EBE29DF857001BF010FFED
:1057700008B9FFE7E4E21DF0ABFD1FF021FE0120B8
:1057800016F00EF91FF048FE44F20C31C2F200018F
:1057900000200870D4E29DF857001BF0F9FE08B90C
:1057A000FFE7CDE244F20C31C2F2000101200870A3
:1057B000C6E216989DF8571011AA1DF041FA08B9D3
:1057C000FFE7BDE244F21050C2F20000007838B1A9
:1057D000FFE744F20C30C2F20000007808B9FFE79E
:1057E000AEE21FF0EDFD099890ED040ABCEEC00A90
:1057F00010EE101A0120029016F042FA029816F0EC
:1058000083F84AF2AC11C2F2004108701FF004FEA6
:105810001DF05EFD94E216989DF8571011AA1DF038
:105820000FFA08B9FFE78BE2099890ED040ABCEE85
:10583000C00A10EE100A8DF8320044F21050C2F285
:105840000000007838B1FFE744F20C30C2F20000EB
:10585000007808B9FFE773E21FF0B2FD012016F0EF
:1058600053F89DF832101DF063FC1FF0D5FD1DF0BC
:1058700047FD65E216989DF8571011AA1DF0E0F952
:1058800008B9FFE75CE2099890ED040ABCEEC00A93
:1058900010EE101A8DF8311090ED050ABCEEC00A1A
:1058A00010EE100A8DF8300044F21050C2F20000E1
:1058B000007838B1FFE744F20C30C2F20000007803
:1058C00008B9FFE73CE21FF07BFD9DF831009DF831
:1058D00030101DF02DFC1FF09FFD1DF011FD2FE27B
:1058E0009DF857001BF054FE08B9FFE728E21DF0B1
:1058F000EFFC1FF065FD012016F072FA1FF08CFD21
:105900001EE29DF857001BF043FE08B9FFE717E2BF
:105910000FF002F914E29DF857001BF039FE08B9A8
:10592000FFE70DE20FF0E8F80AE29DF857001BF0E0
:105930002FFE08B9FFE703E29DF8570010280AD1AF
:10594000FFE716989DF8571011AA1DF079F908B9CC
:10595000FFE7F5E1FFE744F21050C2F200000078E3
:1059600030B3FFE740F20420C2F200000078F8B143
:10597000FFE7099890ED040ABCEEC00A10EE100A89
:105980008DF82F001FF01CFD9DF82F1044F680703D
:10599000C2F2000012F058F88DF82E001FF03CFD06
:1059A0009DF82E0018B1FFE71BF0B2FFFFE7FFE7FD
:1059B000C6E19DF857001BF0EBFD08B9FFE7BFE11A
:1059C0001BF0A6FF1FF0FCFC12F086F944F6807075
:1059D000C2F2000011F0FCFB1FF01EFDB0E19DF8CB
:1059E00057001BF0D5FD08B9FFE7A9E10FF09CF8BF
:1059F000A6E19DF857001BF0CBFD08B9FFE79FE13A
:105A00001FF0DEFC44F61470C2F20000407B38B197
:105A1000FFE744F68070C2F2000011F0D9FBFFE707
:105A200044F61470C2F2000010F0BAF81FF0F4FC53
:105A300086E19DF857001BF0ABFD08B9FFE77FE159
:105A400044F21050C2F20000007870B1FFE71FF07E
:105A5000B7FC44F61470C2F20000012100231A467C
:105A600010F032F81FF0D8FCFFE769E116989DF8B6
:105A7000571011AA1DF0E4F808B9FFE760E144F2FD
:105A80001050C2F200000078002800F08C80FFE780
:105A9000099890ED060ABCEEC00A10EE100A002824
:105AA00018BF01208DF8430001208DF842001FF03F
:105AB00087FC099890ED040ABCEEC00A10EE100AAB
:105AC00070B9FFE744F61470C2F20000407B38B1B1
:105AD000FFE744F68070C2F2000011F079FBFFE7A7
