:020000040800F2
:10000000A0A90024D9030008313E010861110108AC
:10001000C93D0108D1320008992302080000000000
:10002000000000000000000000000000D18A01086C
:100030009157000800000000414E0108D19A0108C4
:10004000F7030008F7030008F7030008F7030008A8
:10005000F7030008F7030008F7030008F703000898
:10006000F7030008F7030008F7030008B941000888
:10007000F7030008F7030008F7030008F703000878
:10008000F7030008F7030008F70300088959000880
:10009000415A000899590008515A0008F70300080E
:1000A000F7030008F7030008F7030008F703000848
:1000B000499D0108599D0108F7030008F70300084E
:1000C000F7030008F7030008F7030008F703000828
:1000D000F703000811DD0108F7030008F703000823
:1000E000F7030008F703000800000000F70300080A
:1000F000F7030008F7030008F7030008F7030008F8
:10010000F7030008F7030008F7030008F7030008E7
:10011000F7030008F7030008F7030008F7030008D7
:10012000F7030008F7030008F7030008F7030008C7
:10013000F7030008F7030008F7030008F7030008B7
:1001400000000000000000000000000000000000AF
:10015000F7030008F7030008F7030008F703000897
:10016000F7030008F7030008F7030008F703000887
:10017000F7030008093F0108F7030008000000002A
:10018000F7030008F703000811BC010821BC0108AF
:10019000F7030008F7030008F7030008F703000857
:1001A000F7030008F7030008F70300080000000049
:1001B000F7030008F7030008F7030008F703000837
:1001C000F7030008F703000800000000000000002B
:1001D0000000000000000000F7030008000000001D
:1001E000000000000000000000000000000000000F
:1001F0000000000000000000F7030008F7030008FB
:10020000F7030008F703000800000000F7030008E8
:10021000F7030008F7030008F7030008F7030008D6
:10022000F703000800000000F703000800000000CA
:10023000F7030008F703000800000000F7030008B8
:10024000F7030008F7030008F7030008F7030008A6
:10025000F7030008F7030008F7030008F703000896
:10026000F7030008F7030008F7030008F703000886
:10027000F7030008F7030008F70300080000000078
:10028000F7030008F7030008F7030008F703000866
:1002900000000000F7030008F7030008000000005A
:1002A00000000000F7030008F703000831BC010854
:1002B00001DD0108F7030008F7030008B95A000838
:1002C000C95A0008F7030008F703000800F002F815
:1002D00000F072F814A696E8000CB244B344DA4574
:1002E00001D100F069F8BAE80F000FA696E83000D7
:1002F000A5EB040504EB0607AAEB0704A7F1010729
:100300004FEA15154FEA3414A4F10104AC4201D3AD
:1003100000F052F813F0010F18BFFB1A43F001036D
:1003200000F001F8DBE7184790670200D067020091
:100330000A444FF0000C10F8013B13F0070408BF0B
:1003400010F8014B1D1108BF10F8015B641E05D0A9
:1003500010F8016B641E01F8016BF9D113F0080F5E
:100360001EBF10F8014BAD1C0C1B09D16D1E58BFF0
:1003700001F801CBFAD505E014F8016B01F8016B27
:100380006D1EF9D59142D6D370470000704700002A
:100390000023002400250026103A28BF78C1FBD88E
:1003A000520728BF30C148BF0B6070471FB525F00A
:1003B0004BFC1FBD10B510BD00F080F91146FFF7D2
:1003C000F5FF22F099FE00F09EF903B4FFF7F2FF6B
:1003D00003BC00F0A1F900000A4880470A488047A2
:1003E0000A480047FEE7FEE7FEE7FEE7FEE7FEE716
:1003F000FEE7FEE7FEE7FEE705480649064A074B2B
:100400007047000009590008E19B0108CD0200086F
:1004100098A70020A0A9002498A90020A0A5002446
:1004200053EA020C00F069802DE9F04B4FF0000612
:10043000002B1FBFB3FA83F503FA05F424FA05F67F
:100440005E4012BF1643B2FA82F502FA05F4C5F116
:1004500020051EBF22FA05FC44EA0C04203556EAAA
:10046000044C4FEA144418BF641C4FF000084FF0CE
:100470000009904271EB030C39D3002919BFB1FA7E
:1004800081F701FA07F6B0FA80F700FA07F6C7F12C
:1004900020071EBF20FA07FC46EA0C062037B6FBF1
:1004A000F4FCA7EB0507103F07F01F0BCBF120066C
:1004B0002CFA06F60CFA0BFB44BFB3460026202F9D
:1004C000A4BF5E464FF0000B5BEA060C08BF4FF07E
:1004D000010B19EB0B0948EB0608ABFB027C06FB92
:1004E00002CC0BFB03CCC01B71EB0C01C1E70B462C
:1004F000024641464846BDE8F08B13B5084318BF95
:100500004FF0FF300146AFF30080BDE81C4070475C
:10051000032A40F2308010F0030C00F0158011F82F
:10052000013BBCF1020F624498BF11F801CB00F807
:10053000013B38BF11F8013BA2F1040298BF00F85B
:1005400001CB38BF00F8013B11F0030300F0258018
:10055000083AC0F0088051F8043B083A51F804CB3F
:10056000A0E80810F5E7121D5CBF51F8043B40F805
:10057000043BAFF30080D20724BF11F8013B11F810
:1005800001CB48BF11F8012B24BF00F8013B00F854
:1005900001CB48BF00F8012B704710B5203AC0F0DE
:1005A0000B80B1E81850A0E81850B1E81850A0E846
:1005B0001850203ABFF4F5AF5FEA027C24BFB1E8DF
:1005C0001850A0E8185044BF18C918C0BDE8104022
:1005D0005FEA827C24BF51F8043B40F8043B08BF2B
:1005E0007047D20728BF31F8023B48BF11F8012BF2
:1005F00028BF20F8023B48BF00F8012B70474FF09E
:1006000000020429C0F0128010F0030C00F01B80DF
:10061000CCF1040CBCF1020F18BF00F8012BA8BFED
:1006200020F8022BA1EB0C0100F00DB85FEAC17CB1
:1006300024BF00F8012B00F8012B48BF00F8012B64
:1006400070474FF0000200B5134694469646203995
:1006500022BFA0E80C50A0E80C50B1F12001BFF47B
:10066000F7AF090728BFA0E80C5048BF0CC05DF8E1
:1006700004EB890028BF40F8042B08BF704748BF2F
:1006800020F8022B11F0804F18BF00F8012B7047A3
:1006900070477047704710B500F008F8006810BD4B
:1006A00010B5044600F002F8046010BD0048704721
:1006B0004002002400487047400200247546FFF7BE
:1006C000F9FFAE4605006946534620F0070085460F
:1006D00018B020B5FFF790FEBDE820404FF00006AF
:1006E0004FF000074FF000084FF0000BAC46ACE8AD
:1006F000C009ACE8C009ACE8C009ACE8C00921F009
:1007000007018D46704710B50446AFF300802046C0
:10071000BDE81040FFF759BE01491820ABBEFEE707
:10072000260002007047000082B08DED010A9DEDA9
:10073000010AB5EE400AF1EE10FA07DAFFE79DED87
:10074000010AB1EE400A8DED000A04E09DED010AB8
:100750008DED000AFFE79DED000A02B07047000032
:1007600082B08DED010A9DED010AB5EE400AF1EE71
:1007700010FA07DAFFE79DED010AB1EE400A8DEDB0
:10078000000A04E09DED010A8DED000AFFE79DEDF2
:10079000000A02B07047000080B586B003AA01923B
:1007A0000246019805928DF8131080ED000A002092
:1007B0008DF80B00FFE79DF80B00032825D8FFE715
:1007C0009DF813009DF80B10C840C00708B9FFE75B
:1007D00015E0019805999DF80B2001EB820191ED40
:1007E000120A90ED001A30EE010A03F0B9FA0598EA
:1007F0009DF80B1000EB810080ED0C0AFFE79DF8DF
:100800000B0001308DF80B00D5E706B080BD00006D
:1008100082B08DED000A9DED000A9FED111AB4EE35
:10082000410AF1EE10FA05DDFFE70020C4F2343092
:10083000019011E09DED000A9FED0A1AB4EE410A05
:10084000F1EE10FA05DAFFE70020CCF23430019027
:1008500002E000980190FFE79DED010A02B07047A9
:1008600000003443000034C380B586B08DED040A27
:10087000CDED030A0290029820B1FFE70299002013
:100880000870FFE79DED040A01A8694600F06CF9C5
:1008900058B9FFE7029820B1FFE7029901200870DC
:1008A000FFE700208DF817002AE09DED030A9DED7B
:1008B000011A9FED152A31EE021AB4EE410AF1EE4B
:1008C00010FA0EDBFFE79DED030A9DED001A9FED88
:1008D0000F2A31EE021AB4EE410AF1EE10FA0BDDE6
:1008E000FFE7029820B1FFE7029902200870FFE7B6
:1008F00000208DF8170003E001208DF81700FFE7B6
:100900009DF8170006B080BDBD3786B5BD3786356A
:1009100080B58CB004A9029181ED060AC1ED050AEB
:1009200081ED041AC1ED031A0690069820B1FFE785
:10093000069900200870FFE7029890ED040A9FEDE9
:10094000551AB4EE410AF1EE10FA08DCFFE70298FE
:1009500090ED060AB0EEC00A80ED010A0EE00298A2
:1009600090ED061A90ED050A20EE000AA1EE010AAC
:1009700025F07AF8029880ED010AFFE7029890EDE1
:10098000030A00F041FA029880ED000A90ED000A97
:10099000B5EE400AF1EE10FA12DDFFE7029890ED95
:1009A000010AD0ED040A9FED3C1ADFED3C1A9FEDE1
:1009B0003C2ADFED3C2A22F097F98DF80F0051E038
:1009C000029890ED000AB5EE400AF1EE10FA12DA44
:1009D000FFE7029890ED010AD0ED040A9FED321A6C
:1009E000DFED321A9FED322ADFED322A22F07CF958
:1009F0008DF80F0035E0029890ED010AD0ED040A61
:100A00009FED251ADFED251A9FED252ADFED252A1A
:100A100022F06AF9014602988DF80E1090ED010A55
:100A2000D0ED040A9FED201ADFED201A9FED202A59
:100A3000DFED202A22F058F98DF80D009DF80E10F8
:100A40000020019039B1FFE79DF80D00002818BF84
:100A500001200190FFE7019800F001008DF80F00E0
:100A6000FFE7FFE79DF80F0058B9FFE7069820B1B0
:100A7000FFE7069903200870FFE700208DF82F009C
:100A800003E001208DF82F00FFE79DF82F000CB048
:100A900080BD00BF00007A430000484223648643C3
:100AA0000F750543F1F805445E7C5A43C4220A449D
:100AB000A2A48FC23A69B04381B08DED000A9DEDCA
:100AC000000A9FED051A20EE010A9FED041A80EE40
:100AD000010A01B0704700BFDB0F494000003443FA
:100AE00083B0029001910092029830B1FFE7019823
:100AF00018B1FFE7009808B9FFE731E0019890F9D5
:100B0000100000EE100AB8EEC00A029890ED001A2C
:100B100020EE010A009880ED000A019890F9180073
:100B200000EE100AB8EEC00A029890ED011A20EE0D
:100B3000010A009880ED010A019890F9200000EE6A
:100B4000100AB8EEC00A029890ED021A20EE010ACF
:100B5000009880ED020A0298007B00990873FFE775
:100B600003B070470000000080B586B08DED040A28
:100B700003900291039818B1FFE7029820B9FFE7AC
:100B800000208DF817005FE09DED040A00F03CF9AD
:100B90008DED010A9DED010A9FED2D1AB4EE410A7B
:100BA000F1EE10FA0ADBFFE79DED010A9FED291A2D
:100BB000B4EE410AF1EE10FA04DDFFE700208DF8F3
:100BC000170041E09DED010AB5EE400AF1EE10FA82
:100BD0000FDDFFE79FED220AFFF76EFF039880ED20
:100BE000000A9FED1E0AFFF767FF029880ED000ADA
:100BF00026E09DED010AB5EE400AF1EE10FA0FDA9B
:100C0000FFE79FED150AFFF757FF039880ED000AF5
:100C1000B2EE040AFFF750FF029880ED000A0EE0E2
:100C20009FED0D0AFFF748FF039880ED000A9FED46
:100C30000B0AFFF741FF029880ED000AFFE7FFE78C
:100C400001208DF81700FFE79DF8170006B080BD62
:100C5000000078C20000A04202EB7CC274C44C4287
:100C6000000000000000000082B00090009818B959
:100C7000FFE70020019003E0009824300190FFE797
:100C8000019802B070470000B0B584B003900291A3
:100C9000039818B1FFE7029808B9FFE726E0039828
:100CA0005C21FFF7CEFC03990091029B0193186829
:100CB0005A68D3F808C0D3F80CE01C695D694D612F
:100CC0000C61C1F80CE0C1F808C04A60086098697E
:100CD000DA691B6A0B62CA6188610398243000F0EC
:100CE000A7F80399012081F85800FFE704B0B0BDD0
:100CF00080B588B0DDF82CC0DDF828C08DED070A7E
:100D0000CDED060A8DED051A049003910292019330
:100D1000049878B1FFE7039860B1FFE7029848B103
:100D2000FFE7019830B1FFE70A9818B1FFE70B9889
:100D300008B9FFE72DE09DED070A049890ED001A31
:100D400030EE410A00F028F8019880ED000A9DED90
:100D5000060A039890ED001A30EE410A00F01CF8E4
:100D60000A9880ED000A9DED060A9DED051A30EE09
:100D7000010A039890ED001A029890ED002A31EED6
:100D8000021A30EE410A00F007F80B9880ED000AD5
:100D9000FFE708B080BD000081B08DED000AFFE7DD
:100DA0009DED000A9FED141AB4EE410AF1EE10FA1F
:100DB00009DBFFE79DED000A9FED121A30EE010AF4
:100DC0008DED000AECE7FFE79DED000A9FED0B1AA1
:100DD000B4EE410AF1EE10FA09DAFFE79DED000AE0
:100DE0009FED071A30EE010A8DED000AECE79DED4C
:100DF000000A01B0704700BFDB0F4940DB0F49C05C
:100E0000DB0FC940DB0FC9C081B08DED000A9DED3D
:100E1000000A9FED051A20EE010A9FED041A80EEEC
:100E2000010A01B0704700BF00003443DB0F4940A6
:100E300080B582B00190019808B9FFE70AE00198F7
:100E40003421FFF7FEFB0199FE2008700199002074
:100E50004870FFE702B080BD10B59CB01A908DEDD0
:100E6000190ACDED180A8DED171ACDED161A1A983C
:100E700020B9FFE7FF208DF86F00F3E11A9890F892
:100E8000580058B9FFE71A982430FFF7D1FF1A9994
:100E9000FB2081F824008DF86F00E3E11A982430DC
:100EA000FFF7C6FF19981A99C86218981A9908632B
:100EB00017981A9948631A9890ED010A9FEDEB1A5A
:100EC000B4EE410AF1EE10FA0BDDFFE71A9890ED4F
:100ED000020A9FEDE61AB4EE410AF1EE10FA07DCC1
:100EE000FFE71A99FE2081F824008DF86F00B9E120
:100EF0009DED170A9FEDDE1AB4EE410AF1EE10FAED
:100F000041DCFFE700201590189812909DED120A21
:100F1000B0EEC00AB1EE041AB4EE410AF1EE10FAD6
:100F200013DDFFE71A99FC2081F824001A9A0121A9
:100F300082F826101A9A002182F827101A9A0421A2
:100F400082F825108DF86F008CE19DED190AB0EE46
:100F5000C00A9FEDC61AB4EE410AF1EE10FA11DA9A
:100F6000FFE79DED180AB0EEC00A9FEDC01AB4EE7F
:100F7000410AF1EE10FA05DAFFE71A99012081F82B
:100F80002800FFE728E09DED190AB0EEC00A9FEDAA
:100F9000B71AB4EE410AF1EE10FA13DAFFE79DED4D
:100FA000180AB0EEC00A9FEDB11AB4EE410AF1EE94
:100FB00010FA07DAFFE7169815901A99012081F8C0
:100FC000280008E09DED180ADDED190A23F054FF12
:100FD0008DED150AFFE7FFE79DED150AFFF7DCFE33
:100FE0008DED150A9DED150A24F09CF88DED0A0A89
:100FF0009DED190A8DED090A9DED150A24F06CFC92
:101000009DED092A9DED0A1A9DED183A20EE030A7E
:10101000A1EE020A8DED110A9DED110AB1EE400A12
:101020008DED100A9DED170A1A9890ED001A30EE1A
:10103000410A8DED0F0A9DED101A9DED0F0A20EE6D
:10104000000AA1EE010A1A9890ED011A90ED022A09
:10105000A1EE410AA2EE420A31EE011A21EE021A75
:1010600080EE010A8DED0E0A9DED0E0A9FED811AAC
:10107000B4EE410AF1EE10FA0ADBFFE79DED0E0A2D
:101080009FED7D1AB4EE410AF1EE10FA0BDDFFE799
:101090001A99FD2081F824001A9A002182F826105E
:1010A0008DF86F00DEE09DED0E0AFFEE000ACDED3B
:1010B000030AB7EE001A21F0BBFDB0EE401A9DED19
:1010C000030A8DED0E1A9DED0E1A91EE410A9FED69
:1010D0006B1A80FE010A24F0C7FC8DED0D0A9DED10
:1010E0000D0AB1EE400ADDED0E0A23F0C5FE8DEDCE
:1010F000130A1A9890ED010A8DED050A90ED020A87
:101100008DED040A9DED130A24F00CF89DED041AF0
:10111000B0EE402A9DED050AA1EE020A8DED0C0A03
:101120001A9890ED020A8DED060A9DED130A24F03F
:10113000D3FBB0EE401A9DED060A20EE010A8DEDBC
:101140000B0A9DED100ADDED0F0A23F095FE8DEDE3
:10115000070A9DED0B0ADDED0C0A23F08DFEB0EEC3
:10116000401A9DED070A30EE410A8DED140A9DEDFF
:10117000150AFFF711FE8DED150A9DED140AFFF714
:101180000BFE8DED140A9DED130AFFF705FE8DEDA4
:10119000130A1A990120089081F8260015991A9AC5
:1011A000916314991A9AD16313991A9A11641A992E
:1011B00081F844009DED150ADDED140A9DED131A2A
:1011C000DDF868E00EF10C000EF114010EF11C02C6
:1011D0000EF148030EF14C0C0EF15004EE46CEF821
:1011E0000440CEF800C0FFF783FD08981A9981F8F3
:1011F00054009DED140A1A98D0ED140A2530FFF71B
:1012000033FB58B9FFE71A99FC2081F824001A9A99
:10121000002182F827108DF86F0023E09DED190A58
:10122000DDED180A9DED171ADDED141A1A98253018
:10123000FFF76EFB58B9FFE71A99FC2081F82400EC
:101240001A9A002182F827108DF86F000AE01A9987
:10125000002081F824001A9A012182F827108DF8C5
:101260006F00FFE79DF96F001CB010BDBD378635DC
:1012700000007A43540080BF5400803F000000000B
:1012800080B5AEB02A90ADF8A6102A9828B1FFE735
:10129000BDF8A600382804D8FFE70020ADF8AE005E
:1012A0003BE1EFF310802C902C980390EFF310802B
:1012B00072B62D9000F050FD014609A87C22FFF780
:1012C0006CF944F66C53C2F20003986BD96B1A6C3C
:1012D0005B6C089307920691059046F6FC00C2F2FB
:1012E000000081788DF812100088ADF81000039886
:1012F00010B9FFE762B6FFE79DED050AFFF784FD31
:101300008DED020A9DED060AFFF77EFD8DED010AC7
:101310009DED070AFFF778FD8DED000A0020ADF87E
:10132000A4002A99BDF8A420501CADF8A400A52063
:101330008854BDF8A400ADF8A2002A99BDF8A420F5
:10134000501CADF8A400E12088549DF810002A99A3
:10135000BDF8A420531CADF8A43088549DF81100AA
:101360002A99BDF8A420531CADF8A43088549DF8E8
:1013700012002A99BDF8A420531CADF8A43088545B
:101380009DF89C002A99BDF8A420531CADF8A43008
:1013900088549DF898002A99BDF8A420531CADF8F4
:1013A000A43088542A98BDF8A41008449DED090A79
:1013B00000F0FAF8BDF8A4000430ADF8A4002A98B3
:1013C000BDF8A41008449DED0A0A00F0EDF8BDF840
:1013D000A4000430ADF8A4002A98BDF8A410084475
:1013E0009DED0B0A00F0E0F8BDF8A4000430ADF864
:1013F000A4002A98BDF8A41008449DED0C0A00F042
:10140000D3F8BDF8A4000430ADF8A4002A98BDF8C4
:10141000A41008449DED0D0A00F0C6F8BDF8A40024
:101420000430ADF8A4002A98BDF8A41008449DED3E
:101430000E0A00F0B9F8BDF8A4000430ADF8A4001D
:101440002A98BDF8A41008449DED230A00F0ACF8DA
:10145000BDF8A4000430ADF8A4002A98BDF8A4108B
:1014600008449DED240A00F09FF8BDF8A400043064
:10147000ADF8A4002A98BDF8A41008449DED250AF3
:1014800000F092F8BDF8A4000430ADF8A4002A984A
:10149000BDF8A41008449DED020A00F085F8BDF8DF
:1014A000A4000430ADF8A4002A98BDF8A4100844A4
:1014B0009DED010A00F078F8BDF8A4000430ADF805
:1014C000A4002A98BDF8A41008449DED000A00F07D
:1014D0006BF8BDF8A4000430ADF8A4002A98BDF85C
:1014E000A2100844362100F01FF88DF8A1009DF8E5
:1014F000A1002A99BDF8A420531CADF8A43088544B
:101500002A99BDF8A420501CADF8A4005A20885494
:10151000BDF8A400ADF8AE00FFE7BDF8AE002EB0F8
:1015200080BD00000000000085B00390ADF80A10F7
:1015300000200190039820B9FFE700208DF81300E8
:101540001CE00020ADF80200FFE7BDF80200BDF886
:101550000A1088420EDAFFE70398BDF80210415CDA
:10156000019808440190FFE7BDF802000130ADF892
:101570000200EAE701988DF81300FFE79DF81300D9
:1015800005B070470000000046F63811C2F20001B5
:10159000002008707047000046F63810C2F20000C4
:1015A000007870470000000082B001908DED000AC5
:1015B000019808B9FFE703E0019900980860FFE788
:1015C00002B070470000000080B582B046F63810C7
:1015D000C2F20000007820B1FFE700208DF807007C
:1015E00035E046F6FF00C2F200003921FFF748FE61
:1015F000ADF80400BDF8040020B9FFE700208DF825
:10160000070024E046F63811C2F2000101200870FC
:10161000BDF8042045F69040C2F2000046F6FF01F6
:10162000C2F200010FF0F0FC8DF803009DF80300FA
:1016300048B1FFE746F63811C2F2000100200870F9
:101640008DF8070003E001208DF80700FFE79DF803
:10165000070002B080BD000046F63811C2F200015A
:10166000002008707047000080B584B00390039894
:1016700008B9FFE755E044F61060C2F2004090F868
:10168000780048B1FFE744F61060C2F2004090EDE8
:101690001A0A8DED010A04E09FED230A8DED010A7F
:1016A000FFE79DED010A8DED020A039890ED000A17
:1016B0009FED1E1AB4EE410AF1EE10FA0EDBFFE7C1
:1016C0009DED020AB5EE400AF1EE10FA06DAFFE7E8
:1016D00003990020CCF23430086022E0039890EDAA
:1016E000000A9FED131AB4EE410AF1EE10FA0EDC77
:1016F000FFE79DED020AB5EE400AF1EE10FA06DDB5
:10170000FFE703990020C4F23430086008E0039832
:1017100090ED000A00F094F9039880ED000AFFE7CD
:10172000FFE704B080BD00BF00000000BEFF3343F0
:10173000BEFF33C300000000B0B588B00790079823
:1017400008B9FFE779E107984FF4B271FEF779FF26
:1017500044F66C50C2F20000039000F1240106919F
:10176000079A049201684368D0F808C0D0F80CE0EA
:101770000469456955611461C2F80CE0C2F808C0FB
:10178000536011608169C369D0F820C0C2F820C0DD
:10179000D361916190F85800079981F8240044F6CC
:1017A0001063C2F20043059393F87800079981F81B
:1017B000250006988078079981F826000698C07859
:1017C000079981F8270006980079079981F8280081
:1017D00093F87900079981F8290093F87A0007991E
:1017E00081F82A0046F28000C2F20040007B07998F
:1017F00081F82B0006980078079981F82C0006984C
:101800004078079981F82D00079918685A68D3F82D
:1018100008C0C1F838C04A6308630799DDF818C0EA
:10182000DCF80800DCF80C20DCF810C0C1F844C07B
:101830000A64C8630799D8681A695B690B65CA644A
:1018400088640799DDF818C0DCF81400DCF818206B
:10185000DCF81C30DCF820C0C1F860C0CB658A65BC
:101860004865079901F15400643100F0B5FA079911
:10187000DDF818C0DCF82400DCF82820DCF82C3077
:10188000DCF830C0C1F880C0CB678A674867079929
:1018900001F17400843100F0CBFADDF814C007992F
:1018A000DCF82800DCF82C20DCF83030DCF834C020
:1018B000C1F8A0C0C1F89C30C1F89820C1F89400CC
:1018C000079901F19400A43100F086FA059890F888
:1018D000780048B3FFE7079944F6106CC2F2004C59
:1018E000CDF808C0DCF83800DCF83C20DCF84030EB
:1018F000DCF844E0C1F8C0E0C1F8BC30C1F8B82061
:10190000C1F8B4000799DCF84800DCF84C20DCF89A
:101910005030DCF854C0C1F8E0C0C1F8DC30C1F888
:10192000D820C1F8D400FFE7079901F1B400C43111
:1019300000F07EFA079944F6106CC2F2004CCDF824
:1019400004C0DCF86800DCF86C20DCF87030DCF8EF
:1019500074E0C1F8F0E0C1F8EC30C1F8E820C1F85B
:10196000E4000799DCF81800DCF81C20DCF82030D3
:10197000DCF824C0C1F800C1C1F8FC30C1F8F8207F
:10198000C1F8F400079901F1F40001F5827100F04B
:1019900023FADDF804C00799DCF83800DCF83C20B5
:1019A000DCF84030DCF844C0C1F820C1C1F81C317B
:1019B000C1F81821C1F81401079901F58A7001F5E1
:1019C000927100F035FADDF804C00799DCF84800A0
:1019D000DCF84C20DCF85030DCF854E0C1F840E191
:1019E000C1F83C31C1F83821C1F834010799DCF85D
:1019F0005800DCF85C20DCF86030DCF864C0C1F82A
:101A000050C1C1F84C31C1F84821C1F844010799CF
:101A100046F2800CC2F2004CDCF80000DCF8042036
:101A2000DCF80830DCF80CC0C1F860C1C1F85C31EA
:101A3000C1F85821C1F85401FFE708B0B0BD00005B
:101A400082B08DED000A9DED000A9FED111AB4EEF3
:101A5000410AF1EE10FA05DDFFE70020C4F2343050
:101A6000019011E09DED000A9FED0A1AB4EE410AC3
:101A7000F1EE10FA05DAFFE70020CCF234300190E5
:101A800002E000980190FFE79DED010A02B0704767
:101A900000003443000034C380B58AB000200190B8
:101AA0000020C4F2A030029003909FED120AFFF7CD
:101AB00003F88DED040A9FED100AFEF7FDFF8DED92
:101AC000060A9FED0E0AFEF7F7FF8DED080A0120CA
:101AD0008DF81400FF218DF81C108DF8240044F6B9
:101AE0006C50C2F2000001A9FFF7CEF800F0CCF96B
:101AF0000AB080BD000000000000A042000025C325
:101B000080B598B00BA8099080ED0C0AC0ED0B0AC7
:101B100080ED0A1A179844F61061C2F2004108607D
:101B20001698486015988860002028B9FFE7179834
:101B300020F092FF58B930E0099890ED0C0AB7EE0A
:101B4000C00A51EC100B20F077FF30B3FFE7002004
:101B500028B9FFE7169820F07FFF58B91DE00998D3
:101B600090ED0B0AB7EEC00A51EC100B20F064FFA9
:101B700098B1FFE7002028B9FFE7159820F06CFF27
:101B800028BB0AE0099890ED0A0AB7EEC00A51ECAA
:101B9000100B20F051FFD0B9FFE700F0EDF88DF801
:101BA0002B0044F61061C2F200410320089081F836
:101BB00079009DF82B0081F87A0000F011FB08985D
:101BC0009DF82B200023194600F0F2F9BDE009989A
:101BD00090ED0C0AD0ED0B0A90ED0A1A44F66C5009
:101BE000C2F200000790DFED5A1AFFF735F90146FF
:101BF00007988DF85310FFF737F813909DF95300AD
:101C0000E8BBFFE71398243044F66C51C2F20001A0
:101C10000FAA0492FEF764FF04980BA9059100F047
:101C200007F90598FFF720FD099890ED000AFEF7E7
:101C300043FF09980499059A80ED040A90ED0C0A77
:101C4000D0ED0B0A90ED0A1A139800F031F900203C
:101C500006908DF82B0044F61061C2F2004181F825
:101C600079009DF82B0081F87A0000F0B9FA069906
:101C70009DF82B20139B084600F09AF965E09DF92A
:101C800053000330D0B9FFE700F076F88DF82B0051
:101C900044F61061C2F200410120039081F87900FE
:101CA0009DF82B0081F87A0000F09AFA03989DF8CD
:101CB0002B20139B002100F07BF945E09DF9530098
:101CC000043030BBFFE700208DF82A00139828B1BC
:101CD000FFE7139840788DF82A00FFE700F04CF8F2
:101CE0008DF82B0044F61061C2F2004102200290F0
:101CF00081F879009DF82B0081F87A0000F070FAE5
:101D000002989DF82A109DF82B20139B00F050F9A3
:101D100019E000F031F88DF82B0044F61061C2F2A2
:101D200000410320019081F879009DF82B0081F893
:101D30007A0000F055FA01989DF82B20139B0021A2
:101D400000F036F9FFE7FFE7FFE718B080BD00BFFE
:101D5000000000000000000044F61060C2F20040E5
:101D6000704700000000000080B500F039FA44F62A
:101D70008C60C2F2004080BD82B044F61060C2F2B6
:101D8000004090F87800E8B1FFE744F61061C2F235
:101D9000004100918869CA690B6AD1F824C0C1F872
:101DA00034C00B63CA628862886DCA6D0B6ED1F84D
:101DB00064C0C1F874C00B67CA66886601208DF8DC
:101DC000070003E002208DF80700FFE79DF80700F9
:101DD00002B070470000000080B582B00190009111
:101DE000019818B1FFE7009808B9FFE71CE00198D7
:101DF00090ED000AFFF708F8009880ED000A0198BE
:101E000090ED010AFFF700F8009880ED010A0198B3
:101E100090ED020AFEF7F8FF009880ED020A0198A3
:101E2000007B00990873FFE702B080BD000000004E
:101E300080B582B001900091019818B1FFE7009839
:101E400008B9FFE71CE0019890ED000AFEF7DCFFFF
:101E5000009880ED000A019890ED010AFEF7D4FF8A
:101E6000009880ED010A019890ED020AFEF7CCFF80
:101E7000009880ED020A0198007B00990873FFE743
:101E800002B080BD0000000080B544F61060C2F2D0
:101E900000407C21FEF7D5FB46F28001C2F20041F2
:101EA0000020C86088604860086000F099F980BD33
:101EB00087B08DED060ACDED050A8DED041A03906D
:101EC00002910192039830B1FFE7029818B1FFE741
:101ED000019808B9FFE768E0069844F61061C2F27D
:101EE00000410091C8600598086104984861DDF8D8
:101EF0000CC0DCF81400DCF81820DCF81C30DCF82E
:101F000020C0C1F824C00B62CA618861DDF80CC032
:101F1000DCF82400DCF82820DCF82C30DCF830C0B9
:101F2000C1F844C00B64CA638863DDF808C0DCF8FC
:101F30000000DCF80420DCF80830DCF80CC0C1F844
:101F400054C00B65CA648864DDF804C0DCF8000086
:101F5000DCF80420DCF80830DCF80CC0C1F864C000
:101F60000B66CA658865DDF80CC0DCF81400DCF887
:101F70001820DCF81C30DCF820C0C1F834C00B633A
:101F8000CA628862DDF804C0DCF80000DCF80420D6
:101F9000DCF80830DCF80CC0C1F874C00B67CA6606
:101FA0008866012081F87800FFE707B070470000DD
:101FB00080B588B08DF81F008DF81E108DF81D209B
:101FC00006939DF81F008DF812009DF81E008DF8F5
:101FD00013009DF81D008DF81400069848B1FFE726
:101FE000069880788DF815000698C0788DF8160050
:101FF00005E000208DF815008DF81600FFE744F687
:102000001060C2F2004090F878008DF81700902020
:1020100001900DF1120102910622039200F010F8D6
:1020200001980299039A00F003F808B080BD0000FF
:1020300083B08DF80B000191ADF8022003B070471A
:1020400080B584B08DF80F000291ADF806209DF8A0
:102050000F0002999DF8062017F03AFB04B080BDEE
:1020600080B584B001A981ED020AC1ED010A81EDBC
:10207000001A8DF80300039846F28001C2F2004175
:10208000086002984860019888609DF80300002865
:1020900018BF0120087300F0A3F804B080BD000051
:1020A00080B5A0B01CAA019282ED020AC2ED010A1D
:1020B00082ED001A1B901A911B9820B1FFE71B9923
:1020C000FE200870FFE71A9820B1FFE71A99002058
:1020D0000870FFE7002028B9FFE71E9820F0BCFC3D
:1020E00058B930E0019890ED020AB7EEC00A51EC01
:1020F000100B20F0A1FC30B3FFE7002028B9FFE768
:102100001D9820F0A9FC58B91DE0019890ED010A36
:10211000B7EEC00A51EC100B20F08EFC98B1FFE72F
:10212000002028B9FFE71C9820F096FC78B90AE057
:10213000019890ED000AB7EEC00A51EC100B20F0A8
:102140007BFC20B9FFE700208DF87F0041E044F6DA
:102150006C50C2F2000090F8580058B9FFE71B9885
:1021600020B1FFE71B99FB200870FFE700208DF8E6
:102170007F002EE044F66C51C2F2000103A80090EB
:102180005C22FEF70AFA0199009891ED020AD1ED5E
:10219000010A91ED001ADFED111AFEF75DFE8DF8D0
:1021A0000B001B9828B1FFE79DF80B001B990870E6
:1021B000FFE71A9828B1FFE79DF831001A990870D7
:1021C000FFE79DF90B00B0FA80F040098DF87F0021
:1021D000FFE79DF87F0020B080BD00BF0000000039
:1021E00080B544F68C60C2F20040FFF7A5FA80BDCE
:1021F00080B586B08DF8170045F2BC70C2F2004081
:1022000090ED030AB8EEC00A9FED291A20EE010AEC
:102210008DED040A90ED0A0AB8EEC00A9FED251A6A
:1022200020EE010A8DED030A90ED110AB8EEC00A06
:1022300020EE010A8DED020A9DED040A9FED1E1AA3
:10224000B4EE410AF1EE10FA05DDFFE70020C4F21A
:10225000343004900FE09DED040A9FED181AB4EE9F
:10226000410AF1EE10FA05DAFFE70020CCF2343033
:102270000490FFE7FFE79DF8172044F6FC51C2F2F7
:10228000004144F65050C2F20000012A08BF08463F
:10229000019021F085FF0498019908600398019945
:1022A000486002980199886021F0A6FF06B080BDC1
:1022B000402F81B974F7EF3900003443000034C374
:1022C00080B584B044F67C50C2F2004090F9000022
:1022D00001282FD0FFE745F2D461C2F2004100206F
:1022E0000290086045F68C61C2F20001086045F278
:1022F000D861C2F20041086044F66051C2F20001A8
:10230000086044F60C61C2F20041086044F6645172
:10231000C2F20001086045F67C61C2F2000108606B
:102320004860886044F65051C2F20001086048607D
:102330008860C5E044F60C50C2F20000007808B98D
:10234000FFE7BDE046F6FC20C2F2000090ED000A77
:1023500044F67450C2F2004090ED001AB4EE410A07
:10236000F1EE10FA53D1FFE74AF2A810C2F2004092
:1023700090ED000A44F60850C2F2000090ED001AF9
:10238000B4EE410AF1EE10FA41D1FFE746F604300F
:10239000C2F2000090ED000A44F67850C2F200400C
:1023A00090ED001AB4EE410AF1EE10FA2FD1FFE7DA
:1023B00045F2D461C2F2004100200190086045F668
:1023C0008C61C2F20001086045F2D861C2F200419E
:1023D000086044F66051C2F20001086044F60C61E6
:1023E000C2F20041086044F66451C2F20001086084
:1023F00045F67C61C2F2000108604860886044F6DE
:102400005051C2F2000108604860886058E044F60C
:102410007450C2F2004090ED000A44F60850C2F237
:102420000000D0ED000A44F67850C2F2004090ED72
:10243000001AFFF765FBFFF78FFC0390039890F8F5
:102440007800E0B3FFE744F67C50C2F2004090F918
:10245000000001281BD1FFE70398806A45F67C61E4
:10246000C2F2000108600398C06A48600398006BDC
:1024700088600398806E44F65051C2F200010860F3
:102480000398C06E48600398006F88600FE045F6BF
:102490007C61C2F20001002008604860886044F658
:1024A0005051C2F20001086048608860FFE7FFF702
:1024B00073F818B9FFE7FFF787F8FFE7FFE7FFE7D3
:1024C00004B080BD0000000080B584B08DED030A2B
:1024D000CDED020A8DED011A4AF2A410C2F20040BD
:1024E00090ED000A9DED031AB4EE410AF1EE10FAE8
:1024F00030D1FFE746F60030C2F2000090ED000A4E
:102500009DED021AB4EE410AF1EE10FA22D1FFE776
:102510004AF2AC10C2F2004090ED000A9DED011AA3
:10252000B4EE410AF1EE10FA14D1FFE721F038FEC3
:1025300045F2C461C2F20041002008604860886032
:1025400044F6FC51C2F2004108604860886021F006
:1025500053FE2FE09DED030ADDED020A9DED011A09
:10256000FFF7CEFAFFF7F8FB0090009890F878009C
:10257000F8B1FFE721F014FE0098806A45F2C461CB
:10258000C2F2004108600098C06A48600098006B81
:1025900088600098806E44F6FC51C2F200410860E9
:1025A0000098C06E48600098006F886021F024FE9B
:1025B000FFE7FFE704B080BD82B00090009820B92B
:1025C000FFE7FF208DF807002AE00098006841F23D
:1025D0000001C4F20101884204D1FFE700208DF818
:1025E00007001DE00098006847F60041C4F20001B2
:1025F000884204D1FFE701208DF8070010E0009821
:10260000006841F60001C4F20101884204D1FFE7ED
:1026100002208DF8070003E0FF208DF80700FFE798
:102620009DF8070002B0704780B582B08DF80300B6
:102630009DF8030000F014F818B9FFE7002001909E
:1026400009E09DF8031046F63A10C2F2000000EBD4
:1026500041100190FFE7019802B080BD000000002A
:1026600081B08DF803009DF803100020032938BFC6
:10267000012001B07047000080B584B08DF80E00D5
:102680009DF80E00FFF7ECFF20B9FFE701208DF861
:102690000F0026E09DF80E1046F2D420C0F602008E
:1026A00050F8210002909DF80E0046F63A11C2F251
:1026B000000101EB4012430100200190C850D0619D
:1026C000906150611061D0609060506002989DF8F8
:1026D0000E2001EB421120220DF02AFB8DF80F0095
:1026E000FFE79DF80F0004B080BD0000000000006F
:1026F00080B584B08DF80E000291ADF806200093ED
:102700009DF80E00FFF7ACFF38B1FFE7029820B14B
:10271000FFE7BDF8060020B9FFE701208DF80F00A4
:1027200010E09DF80E1046F2D420C0F6020050F8DA
:1027300021000299BDF80620009B0EF0C9FB8DF820
:102740000F00FFE79DF80F0004B080BD00000000FF
:1027500070B5A2B020901F911E921D9344F60D50AB
:10276000C2F20000007808B9FFE7E1E1EFF3108062
:1027700072B6219044F67E51C2F200410DF14D0037
:102780002722FDF7C5FE44F60D51C2F200010020DC
:10279000087062B6FF218DF84C108DF83300FFE70A
:1027A0009DF83300072814D8FFE79DF833100DF18A
:1027B0004D00405C012805D1FFE79DF833008DF8FE
:1027C0004C0006E0FFE79DF8330001308DF8330040
:1027D000E6E79DF8550044F67C55C2F200450995A0
:1027E00028709DF8560044F20554C2F2000420708F
:1027F0009DF857004AF2B111C2F2004107910870EA
:102800009DF8580046F60A31C2F2000103910870A3
:102810009DF8590044F6BD51C2F200410491087080
:102820009DF85A0044F64C51C2F20001059108701F
:102830009DF85B0044F6BC51C2F20041069108705D
:102840000DF14D0002900F3021F0FEF902988DED50
:10285000120A133021F0F8F902988DED110A1730A1
:1028600021F0F2F902988DED100A1B3021F0ECF9FD
:1028700002988DED0F0A1F3021F0E6F902988DEDD8
:102880000E0A233021F0E0F9DDF80CC0049B059A14
:102890000698DDF81CE08DED0D0A9DF84C6044F6BD
:1028A000C051C2F2004108910E70129E4E60119EFE
:1028B0008E60109ECE600F9E0E610E9E4E610D9E2C
:1028C0008E612D780D7724784C779EF800E081F8A2
:1028D0001EE09CF800C081F81FC01B7881F82030F2
:1028E000127881F82120007881F82200486A0130AE
:1028F000486208F025FA089A01460998D162012138
:1029000082F82810002182F8381046F6C822C2F258
:102910000002117044F60C52C2F20002117090F9DC
:102920000000012836D1FFE744F20550C2F2000052
:10293000007878BBFFE79DED0F0ADDED0E0A9DEDF7
:102940000D1A00210846FFF7ABFBC8B1FFE70F984F
:1029500044F67451C2F2004108600E9844F60851E2
:10296000C2F2000108600D9844F67851C2F20041AD
:10297000086044F60C51C2F200010120087008E022
:102980009DED0F0ADDED0E0A9DED0D1AFFF7B8F86B
:10299000FFE71AE044F67C50C2F2004090F90000D4
:1029A000012811D0FFE744F67451C2F20041002023
:1029B000086044F60851C2F20001086044F67851FC
:1029C000C2F200410860FFE7FFE744F20550C2F29F
:1029D000000000780138B0FA80F0400901F01CFADC
:1029E00040F20800C2F200400078012824D1FFE73D
:1029F0009DF84C109DED120ADDED110A9DED101AA7
:102A000045F2F020C2F2004012F04EFA44F6BD50FA
:102A1000C2F20040017844F64C50C2F20000027845
:102A200044F6BC50C2F20040037845F29020C2F256
:102A3000004012F059FC0CE045F2F020C2F20040D8
:102A400013F066FD45F29020C2F2004012F0B8FC8F
:102A5000FFE740F20800C2F200400078012867D189
:102A6000FFE74AF2B110C2F2004001900178002065
:102A700018F002F901980078012828D1FFE700201A
:102A800017F076FF0B9046F60A30C2F2000000788D
:102A900048B9FFE70B98007828B1FFE70B980021B1
:102AA00021F0AEF912E046F60A30C2F200000078DA
:102AB00001280AD1FFE70B980078012805D0FFE72D
:102AC0000B98012121F09CF9FFE7FFE72FE04AF284
:102AD000B110C2F20040007840BBFFE7002017F0C1
:102AE0005BFF0A9046F60A30C2F20000007848B94F
:102AF000FFE70A98007828B1FFE70A98002121F043
:102B0000C3F912E046F60A30C2F20000007801284C
:102B10000AD1FFE70A980078012805D0FFE70A9854
:102B2000012121F0B1F9FFE7FFE7FFE7FFE7FFE74A
:102B300022B070BD0000000080B586B00590049101
:102B40008DF80F200293059808B9FFE7C6E00598B5
:102B5000407B90B1FFE705989DF80F1016F044FFF9
:102B600058B9FFE7049820B1FFE7049813F0D0FCB0
:102B7000FFE7059900204873FFE79DF80F000599CE
:102B8000087005990020C8700299059A116105998D
:102B900008730599C872059948739DF80F000028BD
:102BA0007CD0FFE79DF80F000090059801F078FABF
:102BB00001460098884271D8FFE7059801F084FA31
:102BC0009DF80F1000EB41102038019005980199F5
:102BD00091ED020AD1ED030A91ED041AD1ED051A27
:102BE00016F04EFE0198007928B9FFE70198407968
:102BF00001F0EAF84EE00198007901280CD1FFE7D6
:102C000001F0DAF8059800F07FFF0598019991ED41
:102C1000060A16F015FE3CE001980079022837D12B
:102C2000FFE7049860B9FFE70599087940F00400D0
:102C3000087105990020887005991720087026E012
:102C4000049813F065FC049813F0AAFA0498042180
:102C500013F0BAFB04980199D1ED060A9FED201AF2
:102C6000B0EE410A13F0ACFA20B9FFE70599012054
:102C700048730BE00599087940F004000871059944
:102C800000208870059917200870FFE7FFE7FFE72D
:102C9000FFE7FFE705981FF007FB1FE09DF80F0017
:102CA000162817D1FFE705990020887005990120A3
:102CB000C8700598BAEE040A16F09EFD059800F05B
:102CC00023FF05989FED060A16F0BAFD05981FF040
:102CD000EBFA03E005981FF0E7FAFFE706B080BDC6
:102CE000000000000000000080B58CB00B900A913D
:102CF0008DF8272008930B9808B9FFE789E10B9816
:102D00001FF0D2FA0B98407B58B1FFE70A9820B128
:102D1000FFE70A9813F0FCFBFFE70B9900204873CC
:102D2000FFE70B98012141700B9A002090700B9ADD
:102D3000D0710B9A10720B9A10700B9AD070089A7F
:102D40000B9B1A619DF827200B9BDA720B9A11736B
:102D50000B9948730B9908719DF8270001380146BB
:102D60000691152800F243810699DFE811F016005C
:102D70001F002A00350040004B00770080008B00C8
:102D8000960096009600180121012C01370156008B
:102D900061006C009600960096000F2001F014F878
:102DA0000B989FEDA00A16F027FD2EE10F2005904D
:102DB00001F00AF805990B98B2EE040AFDF7ECFC55
:102DC00023E10F20049000F0FFFF04990B98BAEE66
:102DD000040AFDF7E1FC18E100F0EEFF0B9800F0AB
:102DE00093FE0B98B3EE0E0A16F02AFD0DE100F0EB
:102DF000E3FF0B9800F088FE0B98B2EE040A16F081
:102E00001FFD02E100F0D8FF0B9800F07DFE0B984B
:102E1000BAEE040A16F014FDF7E000F0CDFF0B98AF
:102E200000F072FE0B98BBEE0E0A16F009FDECE006
:102E300000F0C2FF0B9800F067FE0B989FED780A38
:102E400016F0FEFCE1E000F0B7FF0B9800F05CFE2E
:102E50000B989FED720A16F0F3FCD6E0092000F003
:102E6000B3FF0B989FED6C0A16F0F6FCCDE009203D
:102E7000039000F0A9FF03990B98B2EE040AFDF746
:102E80008BFCC2E00920029000F09EFF02990B9893
:102E9000BAEE040AFDF780FCB7E0002007900A981C
:102EA00060B9FFE70B99087940F0040008710B99AD
:102EB000002008730B9917200870A6E00A9813F0F9
:102EC00027FB0A9813F06CF90A98042113F07CFA96
:102ED0009DF827000A2806D1FFE74CF6CD40C3F63F
:102EE000CC5007903BE09DF827000B2806D1FFE768
:102EF0004CF6CD40C3F64C5007902FE09DF82700CC
:102F00000C2806D1FFE74CF6CD40CBF64C5007908D
:102F100023E09DF82700142806D1FFE74CF6CD40AA
:102F2000CBF6CC50079017E09DF82700152806D166
:102F3000FFE749F69A10C3F6996007900BE09DF8F9
:102F40002700162806D1FFE749F69A10CBF69960BC
:102F50000790FFE7FFE7FFE7FFE7FFE7FFE70A98D4
:102F6000DDED070A9FED2C1AB0EE410A13F028F9A7
:102F700020B9FFE70B9901204873FFE70B98407BCE
:102F800060B9FFE70B99087940F0040008710B99CC
:102F9000002008730B9917200870FFE735E0062022
:102FA00000F012FF0B989FED1C0A16F095FC2CE028
:102FB0000620019000F008FF01990B98B2EE040A78
:102FC000FDF7EAFB21E00620009000F0FDFE0099ED
:102FD0000B98BAEE040AFDF7DFFB16E00F2000F0B5
:102FE000F3FE0B989FED0C0A16F006FC0DE00B9912
:102FF000087940F0040008710B99002008730B99C0
:10300000C8720B9917200870FFE70B981FF04CF956
:10301000FFE70CB080BD00BF000000000000FAC355
:103020000000FA4300005C4380B586B005908DF83F
:10303000131003920293029808B9FFE745E1029842
:103040009021FDF7FEFA9DF813000299087002988E
:10305000002100918171084616F052FC02998861A6
:1030600011F0EAFE01460098029A9172029A4FF21C
:103070004911C4F2E741D164029A45F6B401C4F2A1
:10308000B74111658DF80700FFE79DF80700032899
:1030900013D8FFE79DF8072046F2E020C0F60200B3
:1030A00050F82200029901EB82014865FFE79DF884
:1030B000070001308DF80700E7E700208DF80700D2
:1030C000FFE79DF80700012813D8FFE79DF80720C8
:1030D00046F2CC20C0F6020050F82200029901EB23
:1030E00082014866FFE79DF8070001308DF8070070
:1030F000E7E70398E8B3FFE700208DF80700FFE754
:103100009DF80700032815D8FFE703989DF80710DE
:1031100000EB4100B0F8840002999DF8072001EB14
:103120004201A1F88400FFE79DF8070001308DF807
:103130000700E5E700208DF80700FFE79DF807008E
:10314000012815D8FFE703989DF8071000EB410010
:10315000B0F88C0002999DF8072001EB4201A1F81C
:103160008C00FFE79DF8070001308DF80700E5E7C8
:10317000FFE7059808B9FFE7A7E0059800780299EE
:10318000487005984078029988700598807802996F
:10319000C8700598C078029908710598007902995D
:1031A000487105984079029988710598C07902990B
:1031B00008720598007A0299487205980069029988
:1031C000C8600598406902990861059801784079BE
:1031D00016F096FB02998861059811F0B5FF0299E7
:1031E000C8710598007828B1FFE70598007816287F
:1031F00008D1FFE70598007B20B9FFE7029900207E
:10320000486106E0059801694069401A02994861E1
:10321000FFE700208DF80700FFE79DF8070003286F
:1032200025D8FFE705989DF8072000EB8200806C09
:10323000029901EB8201C86105989DF8072000EB17
:103240008200006B029901EB8201C86205989DF82B
:10325000072000EB82008069029901EB8201C866B9
:10326000FFE79DF8070001308DF80700D5E7002043
:103270008DF80700FFE79DF80700012825D8FFE734
:1032800005989DF8072000EB8200806D029901EB04
:103290008201C86305989DF8072000EB8200006C4E
:1032A000029901EB8201486405989DF8072000EB24
:1032B0008200806A029901EB8201C867FFE79DF8EE
:1032C000070001308DF80700D5E706B080BD00008B
:1032D000FFE7FEE70000000080B5B4B028A90A911E
:1032E000339041F288301FF067FF4FF2BB50C3F6B6
:1032F000EF10329045F69940C3F68110319046F6B2
:103300002260C3F6D6103090FFE7002009902F907E
:103310002E902D902C902B902A90299028908DF80B
:103320002F008DF82E0002208DF82D0020F038FFA0
:1033300040F20800C2F20040007801282BD1FFE7DC
:1033400045F2F023C2F20043D3F8F400D3F8F810AA
:10335000D3F8FC20D3F800312F932E922D912C908E
:1033600045F29021C2F2004110A86022FDF715F944
:1033700044F65050C2F200000168299141682A9138
:1033800080682B9001208DF82F008DF82E000020F2
:103390008DF82D0032E044F20450C2F200000078B3
:1033A00001282AD1FFE744F66C73C2F20003D3F878
:1033B000F400D3F8F810D3F8FC20D3F800312F93A1
:1033C0002E922D912C9044F60C71C2F2000110A89F
:1033D0006022FDF7E2F844F6FC50C2F200400168BA
:1033E000299141682A9180682B9001208DF82F0047
:1033F0008DF82E008DF82D00FFE7FFE717F0A0FAFB
:103400000A9880ED000A20F0F7FE9DF82F000028B2
:1034100045D0FFE70A9890ED050AB1EE400A90ED1D
:10342000081A80EE010A012011F026FC0A98BDEE70
:10343000C00A10EE101A069190ED070AB1EE400A8C
:1034400090ED081A80EE010A022011F015FC0A988E
:10345000BDEEC00A10EE101A079190ED060A90ED2D
:10346000081A80EE010A032011F006FC0A98BDEE4E
:10347000C00A10EE101A089190ED040A90ED081A97
:1034800080EE010A042011F0F7FB06980799089ACC
:10349000BDEEC00A10EE103A02F04AFA06E0002330
:1034A000184619461A4602F043FAFFE79DF82E0027
:1034B00028B1FFE710A80CA911F036FD53E09FEDED
:1034C000580A8DED050A012011F002FCB0EE401AF9
:1034D0009DED050ABDEEC11A11EE100AADF83000DF
:1034E000022011F0F5FBB0EE401A9DED050ABDEE8D
:1034F000C11A11EE100AADF83200032011F0E8FBFA
:10350000B0EE401A9DED050ABDEEC11A11EE100A8B
:10351000ADF83400042011F0DBFBB0EE401A9DED55
:10352000050ABDEEC11A11EE100AADF836000520ED
:1035300011F0CEFBB0EE401A9DED050ABDEEC11AAA
:1035400011EE100AADF83800062011F0C1FBBDEEF7
:10355000C00A10EE100AADF83A000020ADF83C00A9
:10356000ADF83E00FFE79DF82D000CA911F05CFEC0
:10357000BDF93000BDF93210BDF93420BDF9363047
:1035800002F012FABDF93800BDF93A1000231A46CC
:1035900002F02AFA0A9890ED010AFDF739F90A9823
:1035A000B1EE400A90ED091A80EE010A0120049064
:1035B0001FF09AFE0A98BDEEC00A10EE101A019193
:1035C00090ED020A90ED0A1A80EE010A02201FF027
:1035D0008BFE0A98BDEEC00A10EE101A029190ED13
:1035E000030A90ED0A1A80EE010A03201FF07CFE08
:1035F0000A98BDEEC00A10EE101A039190ED000A71
:1036000004201FF071FE01980299039ABDEEC00AD2
:1036100010EE103A02F024FA04981FF0CDFD74E683
:10362000000000000000000080B586B00490039107
:1036300000200290049818B1FFE7039818B9FFE73B
:103640000020059027E0FFE70298039988421FD2E7
:10365000FFE769460DF10700086047F29C00C2F2DF
:10366000004046F69C11C2F2000146F29C02C2F2F2
:1036700000424FF4805313F0FFFC08B9FFE707E066
:103680009DF807000499029A531C02938854DBE7C3
:1036900002980590FFE7059806B080BD0000000085
:1036A00080B548F21810C2F20040006846F6BC111E
:1036B000C2F2000109684FF4805213F0CDFC80BDC6
:1036C00080B584B045F22030C2F20000D0F8BC02D0
:1036D00008B9FFE77AE045F22030C2F20000D0F8E6
:1036E000BC02039046F6B810C2F20000006808B1B0
:1036F000FFE76BE00398D0F8140208B1FFE765E03C
:1037000048F21810C2F20040006846F6BC11C2F23E
:10371000000109684FF4805213F01EFD02900298D8
:1037200008B9FFE752E048F21810C2F20040006802
:1037300046F6BC11C2F20001096888420DD9FFE7C4
:1037400048F21810C2F20040006846F6BC11C2F2FE
:1037500000010968401A019008E046F6BC10C2F268
:1037600000000068C0F580500190FFE701980299C1
:10377000884203D9FFE702980190FFE70198B0F56E
:10378000007F04D9FFE74FF400700190FFE746F691
:10379000BC10C2F20000016847F21810C2F20040EB
:1037A0000144BDF8042045F22030C2F20000009030
:1037B0001AF0BAFE00981AF0C3FF38B9FFE7019873
:1037C00046F6B811C2F200010860FFE704B080BD00
:1037D00080B586B004900391049818B1FFE7039870
:1037E00020B9FFE701208DF817003FE048F21810DC
:1037F000C2F20040006846F6BC11C2F2000109683E
:103800004FF4805213F028FC0190039801998842EC
:1038100004D9FFE700208DF8170027E00020029070
:10382000FFE70298039988421AD2FFE704980299A9
:10383000405C6946086048F21810C2F2004046F643
:10384000BC11C2F2000147F21812C2F200424FF45A
:10385000805313F051FCFFE7029801300290E0E73B
:10386000FFF72EFF01208DF81700FFE79DF81700E6
:1038700006B080BD0000000084B08DF80F000291FA
:10388000ADF80620FFE7012008B9FFE7FBE79DF848
:103890000F000146009123282FD80099DFE801F09E
:1038A00012131415162D2D2D2D2D2D2D2D2D2D2DC5
:1038B0002D2D2D2D2D2D2D2D2D2D2D2D2D2D2D2D38
:1038C00017182B2C1AE019E018E017E016E015E0A5
:1038D000029900200870029AC2215170029A0121B7
:1038E00091700299C8700299087102994871029901
:1038F0000820887102E001E000E0FFE7002004B04A
:103900007047000000000000002070470000000029
:1039100080B582B045F22030C2F20000009044F23F
:103920007451C2F20041002201921AF0FDFD00988C
:1039300044F20651C2F200011AF0D6FD0199009836
:1039400047F29C02C2F20042116046F69C12C2F29B
:103950000002116048F21812C2F20042116046F6ED
:10396000BC12C2F20002116046F6B812C2F20002A6
:10397000116046F29802C2F2004211601AF058FD3E
:10398000019802B080BD000080B586B0059004911A
:1039900000200390FFE7039804990968884224D225
:1039A000FFE705980399405C6946086047F29C0070
:1039B000C2F2004046F69C11C2F2000146F29C029F
:1039C000C2F200424FF4805313F096FB40B9FFE778
:1039D00046F29801C2F20041086801300860FFE732
:1039E000FFE7039801300390D5E7059945F22030B1
:1039F000C2F2000002901AF077FD02981AF018FD4A
:103A0000002006B080BD000080B584B00390029114
:103A10008DF8072000208DF8060046F6BC13C2F290
:103A200000031A6846F6B811C2F20001D1F800C0CE
:103A300062446FF31F321A600860FFF741FE9DF980
:103A4000060004B080BD000084B00290ADF80610FE
:103A50004FF6FF70ADF80400029820B1FFE7BDF803
:103A6000060028B9FFE7BDF80400ADF80E0047E0F6
:103A70000020ADF80200FFE7BDF80200BDF8061017
:103A8000884238DAFFE70298BDF80210415CBDF8C1
:103A900004004840ADF8040000208DF80100FFE765
:103AA0009DF8010007281FD8FFE7BDF80400C007F4
:103AB00068B1FFE7BDF804004008ADF80400BDF8A8
:103AC00004004AF201014840ADF8040005E0BDF8E9
:103AD00004004008ADF80400FFE7FFE79DF801008F
:103AE00001308DF80100DBE7FFE7BDF8020001308F
:103AF000ADF80200C0E7BDF80400ADF80E00FFE726
:103B0000BDF80E0004B0704781B0009045F690609B
:103B1000C2F20000C16F009A9162D0F8980000993B
:103B2000C86201B07047000082B0019000208DF89B
:103B30000300FFE79DF80300032816D8FFE79DF870
:103B40000320C2EBC20145F69060C2F2000000EB18
:103B50008100C068019901EB82018861FFE79DF84F
:103B6000030001308DF80300E4E702B07047000065
:103B700081B00090009808B9FFE720E046F2F860B5
:103B8000C2F200004168009A11608168009A516099
:103B9000C168009A916000690099C86046F22800E7
:103BA000C2F200404168009A11618168009A516137
:103BB000C168009A916100690099C861FFE701B08E
:103BC000704700000000000080B546F2F860C2F2C5
:103BD000000010F0E1FD46F22800C2F2004010F0B3
:103BE000DBFD80BD0000000080B596B08DED150AAC
:103BF00068460EF015F99DED0D0ADDED150A46F249
:103C00002800C2F2004010F093FC16B080BD000006
:103C100080B582B00190019808B9FFE722E00198D1
:103C2000006846F2F861C2F20001486001984068FD
:103C3000886001988068C8600198C0680861019830
:103C4000006946F22801C2F20041486001984069CB
:103C5000886001988069C8600198C0690861FFF7B1
:103C6000B3FFFFE702B080BD80B598B08DED170AB5
:103C700002A80EF0D5F89DED170A9DED0C1A30EE56
:103C8000410A8DED010A9DED010A02F089FA8DEDE0
:103C9000010ADDED010A46F2F860C2F200009FED74
:103CA000090A10F045FC8DED000A9DED0F0ADDEDCF
:103CB000000A46F22800C2F2004010F039FC18B0A9
:103CC00080BD00BF0000000082B0ADF80400ADF878
:103CD0000210ADF80020BDF90400BDF902108842C1
:103CE0000BDBFFE7BDF90400BDF90010884204DCDE
:103CF000FFE701208DF8070003E000208DF80700A2
:103D0000FFE79DF8070002B07047000000000000C8
:103D100084B08DED020ACDED010A8DED001A9DED06
:103D2000020A9DED011AB4EE410AF1EE10FA03DA2F
:103D3000FFE7019803900FE09DED020A9DED001A48
:103D4000B4EE410AF1EE10FA03DDFFE700980390AC
:103D500002E002980390FFE79DED030A04B070476C
:103D600082B08DED000A9DED000ABAEE041AB4EEA1
:103D7000410AF1EE10FA05DAFFE70020CCF220103C
:103D8000019011E09DED000A9FED091AB4EE410A81
:103D9000F1EE10FA05DDFFE70020C4F26630019075
:103DA00002E000980190FFE79DED010A02B0704724
:103DB000000066430000000080B5052010F08CFB79
:103DC000062010F089FB80BD80B582B08DF8070019
:103DD00000208DF80600FFE79DF80600032816D89E
:103DE000FFE79DF807009DF80610C840C00738B1EE
:103DF000FFE79DF806000130C0B210F06DFBFFE751
:103E0000FFE79DF8060001308DF80600E4E702B0F8
:103E100080BD00000000000080B582B08DF8070072
:103E20009DF8070001280FD1FFE744F20451C2F2C8
:103E300000010120087040F20802C2F20042002195
:103E4000117016F089FE0EE040F20801C2F2004146
:103E50000120087044F20451C2F2000100200870F1
:103E600016F07AFEFFE702B080BD000000000000FF
:103E700080B584B0039041F288301FF09DF90FF0B7
:103E80008BFE45F69040C2F2000044F67D51C2F22E
:103E9000004101220CF0A4FF0FF0F2F945F2F020EE
:103EA000C2F2004040F24811C2F2000100919FEDC1
:103EB0002E0A8DED010A12F08BF800999DED010A92
:103EC00044F66C70C2F2000012F082F845F29020C5
:103ED000C2F2004011F008F944F60C70C2F2000082
:103EE00011F002F912F030FFFDF7D6FD16F0E0FDFB
:103EF00020F0EEFD46F29001C2F20041086045F26A
:103F00004850C2F200400BF0EBF8FFE701210846F1
:103F10001FF0FEFF0290029818B9FFE701200290FF
:103F2000FFE7FFE7029830B1FFE711F091FC02983C
:103F300001380290F6E746F61C30C2F20000011D7F
:103F400000F108020023FEF703FC16F0F1FD40F239
:103F50000800C2F200400078012803D1FFE7FEF715
:103F6000AFF9FFE7D2E700BF6F12833A000000000D
:103F700080B58AB08DF8270008910792002006903E
:103F800005900490039008980290089806300190DC
:103F9000042004909DF827005038014600910F2816
:103FA00042D80099DFE801F01A081D1122272A2DB6
:103FB000303336404040403934200690032004908E
:103FC00040200590012003902FE03D200690032023
:103FD00004902E2005900120039026E030200690CA
:103FE00023E037200690032007901EE03A20069039
:103FF0000320079019E04120069016E04520069026
:1040000013E04920069010E04D2006900DE051206D
:1040100006900AE05520069007E046F6C020C2F25E
:1040200000000068069000E038E00798032805D1FA
:10403000FFE70320049000200390FFE70498A8B155
:10404000FFE7069946F2DC70C2F2000000EB410087
:104050000299049A5200FCF75BFA45F6A400C2F2FA
:1040600000400268069804999047FFE70398A8B1BA
:10407000FFE7059946F2DC70C2F2000000EB410058
:104080000199039A5200FCF743FA45F6A400C2F2E4
:1040900000400268059803999047FFE70AB080BD89
:1040A00080B582B00190019820B1FFE70198407976
:1040B000009002E000200090FFE70098C0B202F0FC
:1040C0003FF802B080BD000080B582B00190019839
:1040D00020B1FFE701984079009002E000200090B5
:1040E000FFE70098C0B202F03FF802B080BD0000C8
:1040F00080B588B0069005910698007804900698DF
:10410000FFF7E2FF02900698FFF7CAFF01900498BC
:1041100028B1FFE704980199884204D9FFE70020FD
:104120008DF81F0036E00298049900EB411020380A
:1041300003900398007940B9FFE7069803994979FD
:104140000FF05EF88DF81F0024E003980079012835
:1041500006D1FFE7069801F087FB8DF81F0019E0F4
:1041600003980079022811D1FFE7059850B1FFE7C5
:10417000059811F019FF022804D1FFE701208DF8FE
:104180001F0007E000208DF81F0003E000208DF8DD
:104190001F00FFE79DF81F0008B080BD0000000071
:1041A00080B501F0E5FB01F03FFC01F079FC01F086
:1041B0007BFE80BD0000000080B545F2FC50C2F2DD
:1041C000000003F07DF880BD83B002900298016882
:1041D00001201022C4F202029142009000F0A3805C
:1041E000FFE70298016801202822C4F202029142EE
:1041F000009000F09880FFE70298016801204022BB
:10420000C4F202029142009000F08D80FFE7029814
:10421000016801205822C4F202029142009000F08D
:104220008280FFE70298016801207022C4F2020236
:104230009142009077D0FFE7029801680120882220
:10424000C4F20202914200906DD0FFE7029801682B
:104250000120A022C4F202029142009063D0FFE745
:10426000029801680120B822C4F202029142009033
:1042700059D0FFE702980168012040F21042C4F2D1
:104280000202914200904ED0FFE70298016801209F
:1042900040F22842C4F202029142009043D0FFE76C
:1042A00002980168012040F24042C4F202029142A9
:1042B000009038D0FFE702980168012040F2584290
:1042C000C4F20202914200902DD0FFE702980168EB
:1042D000012040F27042C4F202029142009022D0CA
:1042E000FFE702980168012040F28842C4F202020E
:1042F0009142009017D0FFE702980168012040F238
:10430000A042C4F20202914200900CD0FFE7029852
:1043100000684FF64831CBF6FD710844B0FA80F0E2
:1043200040090090FFE70098C00740B3FFE70298FC
:10433000007810384AF6AB21CAF6AA21A0FB01107A
:1043400000090190019800F0070145F6BC60C0F635
:104350000200405C0299C8650198042807D3FFE772
:1043600002990868042262F30900886506E0029950
:10437000086840F2FF3290438865FFE705E0029944
:10438000086820F0FF008865FFE70298806D03B0A1
:10439000704700000000000084B00390039800689C
:1043A000019003980168012045F20842C5F6020217
:1043B000914200904ED0FFE703980168012045F23A
:1043C0001C42C5F602029142009043D0FFE70398D9
:1043D0000168012045F23042C5F602029142009088
:1043E00038D0FFE703980168012045F24442C5F642
:1043F0000202914200902DD0FFE70398016801204E
:1044000045F25842C5F602029142009022D0FFE7E1
:1044100003980168012045F26C42C5F60202914200
:10442000009017D0FFE703980168012045F2804211
:10443000C5F60202914200900CD0FFE70398006895
:104440004AF66C31CAF2FD710844B0FA80F04009B6
:104450000090FFE70098C00710B3FFE703980078CB
:1044600008384CF6CD41CCF6CC41A0FB0110000938
:104470000290029945F60000C5F6020000EB8100AB
:1044800003990866039945F68000C5F60200486660
:10449000029800F01F01012088400399886635E0EA
:1044A0000398007810384AF6AB21CAF6AA21A0FB7F
:1044B000011000090290019840F2B841C4F20201D3
:1044C00088420CD8FFE7019840F21041C4F2020183
:1044D000884204D3FFE7029808300290FFE7029970
:1044E00040F60000C4F2020000EB81000399086668
:1044F000039940F68000C4F202004866029800F07A
:104500001F010120884003998866FFE704B07047C7
:1045100083B002900298007901900198002800F081
:104520008A80FFE70198082800F28580FFE702985B
:104530000168012045F20842C5F60202914200904E
:104540004ED0FFE702980168012045F21C42C5F6F3
:1045500002029142009043D0FFE7029801680120D7
:1045600045F23042C5F602029142009038D0FFE792
:1045700002980168012045F24442C5F602029142C8
:1045800000902DD0FFE702980168012045F25842C3
:10459000C5F602029142009022D0FFE7029801681E
:1045A000012045F26C42C5F602029142009017D0FC
:1045B000FFE702980168012045F28042C5F6020239
:1045C000914200900CD0FFE7029800684AF66C31E7
:1045D000CAF2FD710844B0FA80F040090090FFE78C
:1045E0000098C00780B1FFE7019945F6FC00C5F6C9
:1045F000020000EB81000299C866029945F640105E
:10460000C5F6020008670FE0019940F6FC00C4F20D
:10461000020000EB81000299C866029940F6401042
:10462000C4F202000867FFE70198411E012088409C
:1046300002994867FFE703B07047000000000000E0
:1046400085B0049000208DF80F000498806918BB95
:10465000FFE70498806A029003281BD80299DFE8DC
:1046600001F0020D0218049890F82F00C00720B145
:10467000FFE701208DF80F00FFE70CE00498C06A07
:10468000B0F1C07F04D1FFE701208DF80F00FFE7F4
:1046900001E000E0FFE747E004988069B0F5005FC3
:1046A00026D1FFE70498806A019003281ED801995B
:1046B000DFE801F00206021101208DF80F0016E07C
:1046C000049890F82F00C00720B1FFE701208DF873
:1046D0000F00FFE70BE00498C06AB0F1C07F04D17F
:1046E000FFE701208DF80F00FFE700E0FFE71AE089
:1046F0000498806A0090032804D3FFE700980328F9
:1047000004D00EE001208DF80F000BE0049890F823
:104710002F00C00720B1FFE701208DF80F00FFE751
:1047200000E0FFE7FFE7FFE79DF80F0005B07047E7
:1047300089B008900791069205930898806D0490BF
:104740000898806D03900898016801201022C4F237
:1047500002029142029000F00381FFE7089801688D
:1047600001202822C4F202029142029000F0F88057
:10477000FFE70898016801204022C4F2020291423A
:10478000029000F0ED80FFE70898016801205822B0
:10479000C4F202029142029000F0E280FFE7089822
:1047A000016801207022C4F202029142029000F0DE
:1047B000D780FFE70898016801208822C4F202022E
:1047C0009142029000F0CC80FFE708980168012038
:1047D000A022C4F202029142029000F0C180FFE7E1
:1047E000089801680120B822C4F2020291420290A6
:1047F00000F0B680FFE708980168012040F21042FF
:10480000C4F202029142029000F0AA80FFE70898E9
:104810000168012040F22842C4F202029142029053
:1048200000F09E80FFE708980168012040F24042B6
:10483000C4F202029142029000F09280FFE70898D1
:104840000168012040F25842C4F2020291420290F3
:1048500000F08680FFE708980168012040F270426E
:10486000C4F20202914202907AD0FFE708980168F0
:10487000012040F28842C4F20202914202906FD0BD
:10488000FFE708980168012040F2A042C4F202024A
:104890009142029064D0FFE708980168012040F23D
:1048A000B842C4F202029142029059D0FFE7089840
:1048B0000168012045F20842C5F6020291420290C9
:1048C0004ED0FFE708980168012045F21C42C5F66A
:1048D00002029142029043D0FFE70898016801204C
:1048E00045F23042C5F602029142029038D0FFE70D
:1048F00008980168012045F24442C5F6020291423F
:1049000002902DD0FFE708980168012045F2584237
:10491000C5F602029142029022D0FFE70898016892
:10492000012045F26C42C5F602029142029017D076
:10493000FFE708980168012045F28042C5F60202AF
:10494000914202900CD0FFE7089800684AF66C315B
:10495000CAF2FD710844B0FA80F040090290FFE706
:104960000298C00770B1FFE70898416E806E4860FA
:104970000898C06E28B1FFE70898016F406F486043
:10498000FFE7FFE70898016801201022C4F2020245
:104990009142019000F0A380FFE708980168012090
:1049A0002822C4F202029142019000F09880FFE7B1
:1049B0000898016801204022C4F20202914201904D
:1049C00000F08D80FFE70898016801205822C4F2AA
:1049D00002029142019000F08280FFE7089801688E
:1049E00001207022C4F202029142019077D0FFE7C9
:1049F0000898016801208822C4F2020291420190C5
:104A00006DD0FFE7089801680120A022C4F20202DD
:104A10009142019063D0FFE7089801680120B82215
:104A2000C4F202029142019059D0FFE70898016850
:104A3000012040F21042C4F20202914201904ED095
:104A4000FFE708980168012040F22842C4F2020200
:104A50009142019043D0FFE708980168012040F29D
:104A60004042C4F202029142019038D0FFE7089818
:104A70000168012040F25842C4F2020291420190C2
:104A80002DD0FFE708980168012040F27042C4F27F
:104A900002029142019022D0FFE7089801680120AC
:104AA00040F28842C4F202029142019017D0FFE71F
:104AB00008980168012040F2A042C4F2020291422B
:104AC00001900CD0FFE7089800684FF64831CBF60C
:104AD000FD710844B0FA80F040090190FFE70198A9
:104AE000C00750B3FFE70898C06D00F01F013F20DA
:104AF00088400499886008980168086820F480203C
:104B000008600598089909684860089880684028F6
:104B100009D1FFE7069808990968886007980899FD
:104B20000968C86008E007980899096888600698CD
:104B300008990968C860FFE782E0089801680120C9
:104B400045F20842C5F60202914200904ED0FFE7BE
:104B500008980168012045F21C42C5F60202914204
:104B6000009043D0FFE708980168012045F23042E9
:104B7000C5F602029142009038D0FFE7089801681C
:104B8000012045F24442C5F60202914200902DD028
:104B9000FFE708980168012045F25842C5F6020275
:104BA0009142009022D0FFE708980168012045F269
:104BB0006C42C5F602029142009017D0FFE70898B8
:104BC0000168012045F28042C5F602029142009040
:104BD0000CD0FFE7089800684AF66C31CAF2FD7104
:104BE0000844B0FA80F040090090FFE70098C00741
:104BF00020B3FFE70898C06D00F01F010120884036
:104C00000399486005980899096848600898806881
:104C1000402809D1FFE70698089909688860079835
:104C200008990968C86008E00798089909688860C9
:104C3000069808990968C860FFE700E0FFE7FFE70A
:104C400009B070470000000080B592B00BAB05932F
:104C50008DF8470010918DF83F2000200E900D90A8
:104C60000C900B909DF8470010999DF83F201BF089
:104C70003BFE9DF8470001460691592800F28385C6
:104C80000699DFE811F05A009700B1008005800511
:104C9000FA00EE008005800580058005800580050E
:104CA0008005800580052301410151018701030230
:104CB0004202580280058005800580058005800538
:104CC00080058005800562027502800583028005EB
:104CD000C702D40280058005800580058005800517
:104CE000800580058005DE02F50203033F03800591
:104CF000AF03C00380058005800580058005800521
:104D0000800580058005800580058005800580057B
:104D10008005CA03D4030C042204800580058005A5
:104D20008005800580052C044C046904B904D40472
:104D3000250576054505EF040A059DF83F001BF0A3
:104D4000DFFB10B9FFE700F01FBD1BF099FD1BF062
:104D5000FFFC1DF031FA1FF023FA12F05DF944F662
:104D60006C70C2F2000011F0D3FB44F60C70C2F27A
:104D7000000010F025FB1FF03FFA01200490FDF722
:104D800037FA1FF00DFA049815F066FE1FF034FA9A
:104D900040F2F021C2F200410020087040F2F81108
:104DA000C2F20001087044F25031C2F200410870B2
:104DB00000F0EABC9DF83F001BF0A2FB10B9FFE732
:104DC00000F0E2BC40F2F021C2F200410120087084
:104DD00040F2F811C2F20001087044F25031C2F200
:104DE0000041087000F0D0BC10989DF83F100BAA4D
:104DF0001CF0DEFE10B9FFE700F0C6BC059890ED90
:104E0000000ABCEEC00A10EE100A002818BF0120EC
:104E1000FFF702F8059890ED000ABCEEC00A10EE0C
:104E2000100AE0B9FFE71BF02BFD1BF091FC1DF011
:104E3000C3F91FF0B5F912F0EFF844F66C70C2F246
:104E4000000011F065FB44F60C70C2F2000010F097
:104E5000B7FA1FF0D1F90120FDF7CAF9FFE700F01A
:104E600093BC9DF83F001BF04BFB10B9FFE700F02F
:104E70008BBC0FF0BDFA00F087BC9DF83F001BF023
:104E80003FFB10B9FFE700F07FBC1BF0F9FC1BF003
:104E90005FFC1DF091F91FF083F912F0BDF844F6A4
:104EA0006C70C2F2000011F033FB44F60C70C2F2D9
:104EB000000010F085FA0120039015F08DFF1FF01F
:104EC0009BF90398FDF794F900F05EBC9DF83F0054
:104ED0001BF016FB10B9FFE700F056BC1BF0D0FC2E
:104EE0001FF05EF912F098F844F66C70C2F2000000
:104EF00011F00EFB1FF080F940F2F021C2F20041E8
:104F00000020087000F040BC9DF83F001BF0F8FA4C
:104F100010B9FFE700F038BC40F2F021C2F20041C6
:104F20000120087000F030BC10989DF83F100BAACB
:104F30001CF03EFE10B9FFE700F026BC059890ED8E
:104F4000000ABCEEC00A10EE100A8DF82B009DF886
:104F50002B0007281DD8FFE744F20450C2F20000DE
:104F60000078B0B1FFE740F2F020C2F200400078D4
:104F700078B1FFE71FF014F912F04EF89DF82B10EE
:104F800044F66C70C2F2000011F01EFA1FF034F902
:104F9000FFE7F9E310989DF83F100BAA1CF008FEFC
:104FA00008B9FFE7F0E3059890ED000ADFEDC30ACA
:104FB000CDED010A9FEDC21A8DED021AFEF7A8FE93
:104FC000DDED010A9DED021A059880ED000A90EDD5
:104FD000010AFEF79DFE059880ED010A90ED020A98
:104FE000DFEDB80A9FEDB81AFEF792FE059880ED46
:104FF000020A0B984AF2C411C2F2004108600C98F0
:1050000048600D98886044F20450C2F200000078B5
:10501000D8B3FFE740F2F020C2F200400078A0B31E
:10502000FFE71FF0BDF811F0F7FF44F66C70C2F215
:1050300000000078022808D0FFE744F66C70C2F246
:105040000000007806280ED1FFE7059890ED030ACE
:105050009FED9E1A20EE010A44F66C70C2F2000029
:1050600011F03EFAFFE7059890ED000AD0ED010A35
:1050700090ED021A44F66C70C2F2000011F0E0F9F3
:105080001FF0BAF81BF014FCFFE77DE310989DF8C1
:105090003F100BAA1CF08CFD08B9FFE774E30B98D6
:1050A0004AF2C411C2F2004108600C9848600D98A1
:1050B000886044F20450C2F20000007820B3FFE799
:1050C00040F2F020C2F200400078E8B1FFE71FF0A4
:1050D00067F811F0A1FF059890ED000AD0ED010AE4
:1050E00090ED021A44F66C70C2F2000011F068F8FC
:1050F0008DF82A001FF080F89DF92A0018B9FFE703
:105100001BF0BEFBFFE7FFE73EE39DF83F001BF00F
:10511000F7F908B9FFE737E31BF0B2FB1FF040F8DF
:1051200011F07AFF44F66C70C2F2000011F0F0F951
:105130001FF062F828E39DF83F001BF0E1F908B981
:10514000FFE721E30FF03CF91EE39DF83F001BF061
:10515000D7F908B9FFE717E31BF0FAFA0120FDF7CA
:1051600047F840F2F811C2F20001002008700BE38A
:105170009DF83F001BF0C4F908B9FFE704E340F2D3
:10518000F811C2F2000101200870FDE210989DF8AC
:105190003F100BAA1CF00CFD08B9FFE7F4E244F243
:1051A0000450C2F20000007868B3FFE740F2F81044
:1051B000C2F20000007830B3FFE7059890ED000AD6
:1051C000D0ED010A90ED021A00210846FCF768FFB5
:1051D00060B1FFE7059890ED000AD0ED010A90ED6F
:1051E000021AFDF771F91BF0CBFA0BE0059890ED70
:1051F000000AD0ED010A90ED021AFDF765F91BF0E7
:10520000A7FAFFE705E01BF0A3FA0120FCF7F0FF87
:10521000FFE7B9E29DF83F001BF072F908B9FFE71C
:10522000B2E21BF095FA0120FCF7E2FFACE29DF838
:105230003F001BF065F908B9FFE7A5E20FF0B8F8E9
:10524000A2E29DF83F001BF05BF908B9FFE79BE283
:105250001CF0B2FF1EF0A4FF012015F0FDFB1EF0B4
:10526000CBFF44F25031C2F20041002008708BE2C3
:105270009DF83F001BF044F908B9FFE784E244F2CF
:105280005031C2F20041012008707DE210989DF873
:105290003F100BAA1CF08CFC08B9FFE774E244F243
:1052A0000450C2F20000007838B1FFE744F25030F9
:1052B000C2F20040007858B9FFE765E27F946BC006
:1052C0007F946B407BD9A0BE7BD9A03E39FA8E3C3F
:1052D0001EF066FF059890ED000ABCEEC00A10EEC5
:1052E000101A0120009015F0C7FC009815F068FB1B
:1052F00046F60831C2F2000108701EF07DFF1CF076
:105300005BFF41E210989DF83F100BAA1CF050FC87
:1053100008B9FFE738E2059890ED000ABCEEC00A34
:1053200010EE100A8DF8290044F20450C2F2000079
:10533000007838B1FFE744F25030C2F20040007804
:1053400008B9FFE720E21EF02BFF012015F038FB23
:10535000012821D1FFE7012015F00AFB09909DF8F3
:10536000290048B9FFE70998007828B1FFE70998B4
:1053700000211EF045FDFFE79DF8290001280AD114
:10538000FFE709980078012805D0FFE70998012177
:105390001EF036FDFFE720E0012015F0FDFA089031
:1053A0009DF8290048B9FFE70898007828B1FFE781
:1053B000089800211EF068FDFFE79DF829000128EC
:1053C0000AD1FFE708980078012805D0FFE7089880
:1053D00001211EF059FDFFE7FFE71EF00DFF1CF055
:1053E00003FFD1E19DF83F001BF08AF808B9FFE701
:1053F000CAE11CF0E1FE1EF0D3FE012015F0ECFC2A
:105400001EF0FAFEC0E19DF83F001BF079F808B9E4
:10541000FFE7B9E10EF0F4FFB6E19DF83F001BF0A5
:105420006FF808B9FFE7AFE10EF0DAFFACE19DF8E5
:105430003F001BF065F808B9FFE7A5E19DF83F00C4
:10544000102805D1FFE710980BA91CF05DFBFFE7C2
:1054500044F20450C2F200000078F8B1FFE740F2D5
:10546000F020C2F200400078C0B1FFE7059890ED4F
:10547000000ABCEEC00A10EE100A8DF81F001BF0E7
:10548000FFF91EF08DFE9DF81F1044F66C70C2F2FD
:10549000000011F06DFC1EF0AFFEFFE774E19DF817
:1054A0003F001BF02DF808B9FFE76DE11BF0E8F9AC
:1054B0001EF076FE11F0B0FD44F66C70C2F20000F2
:1054C00011F026F81EF098FE5EE19DF83F001BF0FB
:1054D00017F808B9FFE757E10EF09AFF54E19DF87D
:1054E0003F001BF00DF808B9FFE74DE11EF058FE34
:1054F00044F60C70C2F20000407B38B1FFE744F67E
:105500006C70C2F2000011F003F8FFE744F60C7073
:10551000C2F200000FF054FF1EF06EFE34E19DF861
:105520003F001AF0EDFF08B9FFE72DE144F2045007
:10553000C2F20000007870B1FFE71EF031FE44F6C1
:105540000C70C2F20000012100231A460FF0CCFEBD
:105550001EF052FEFFE717E110989DF83F100BAACE
:105560001CF026FB08B9FFE70EE144F20450C2F23A
:105570000000007800283ED0FFE71EF011FE0598DD
:1055800090ED000ABCEEC00A10EE100A70B9FFE7F9
:1055900044F60C70C2F20000407B38B1FFE744F6DD
:1055A0006C70C2F2000010F0B3FFFFE7059890EDB9
:1055B000002A90ED011A90ED020ABCEEC22A12EE0A
:1055C000101A002918BF0121BCEEC11A11EE102AD1
:1055D000002A18BF0122BCEEC00A10EE103A002BC0
:1055E00018BF012344F60C70C2F200000FF07CFEDD
:1055F0001EF002FEFFE7C7E09DF83F001AF080FFB3
:1056000008B9FFE7C0E044F20450C2F2000000789D
:1056100060B1FFE71EF0C4FD44F60C70C2F200005A
:1056200000210FF0CDFD1EF0E7FDFFE7ACE09DF897
:105630003F001AF065FF08B9FFE7A5E044F2045007
:10564000C2F20000007860B1FFE71EF0A9FD44F649
:105650000C70C2F2000000210FF0A2FD1EF0CCFD84
:10566000FFE791E09DF83F001AF04AFF08B9FFE715
:105670008AE044F20450C2F20000007860B1FFE713
:105680001EF08EFD44F60C70C2F2000001210FF0F6
:1056900097FD1EF0B1FDFFE776E09DF83F001AF0A0
:1056A0002FFF08B9FFE76FE044F20450C2F2000098
:1056B000007860B1FFE71EF073FD44F60C70C2F293
:1056C000000001210FF06CFD1EF096FDFFE75BE08E
:1056D0009DF83F001AF014FF08B9FFE754E01EF0F0
:1056E0005FFD44F60C70C2F20000407B38B1FFE76A
:1056F00044F66C70C2F2000010F00AFFFFE744F6B7
:105700000C70C2F200000FF05BFE1EF075FD3BE076
:1057100010989DF83F100BAA1CF04AFA08B9FFE751
:1057200032E044F20450C2F20000007800B3FFE718
:105730001EF036FD44F60C70C2F20000407B38B11A
:10574000FFE744F66C70C2F2000010F0E1FEFFE7E4
:10575000059890ED000ABCEEC00A10EE101A44F64F
:105760000C70C2F200000FF047FD1EF045FDFFE790
:105770000AE09DF83F001AF0C3FE08B9FFE703E016
:105780000EF026FE00E0FFE712B080BD0000000032
:10579000704700000000000080B582B0019005F065
:1057A000CFFA0090FFE705F0CBFA0099401A019973
:1057B000884201D2FFE7F6E702B080BD000000009A
:1057C00080B586B004908DF80F109DF80F00029000
:1057D000029802280ED3FFE7029801900498FEF782
:1057E0005FFC01460198884204D8FFE701208DF84C
:1057F000170003E000208DF81700FFE79DF8170061
:1058000006B080BD0000000080B584B003908DF824
:105810000B109FED140A13F08BF98DED010A03981C
:105820009DF80B1000EB810090ED0A0A90ED102A14
:10583000B8EEC00A46F2CC20C0F6020000EB8100B0
:1058400090ED001A21EE021A9DED012AA1EE020A46
:105850008DED000A9DED000ABDEEC00A10EE100AA3
:1058600004B080BDB458B74480B582B000900098B1
:1058700090ED101A90ED160A30EE410AFAF770FF1B
:10588000B1EE041AB4EE410AF1EE10FA04DDFFE7BE
:1058900000208DF8070018E0009890ED111A90EDA7
:1058A000170A30EE410AFAF75BFFB1EE041AB4EEC4
:1058B000410AF1EE10FA04DDFFE700208DF8070041
:1058C00003E001208DF80700FFE79DF8070002B014
:1058D00080BD00000000000081B000909DED000A36
:1058E000B8EEC00A9FED021A20EE010A01B070471F
:1058F000400749360000000081B0EFF3108072B617
:105900000090FFE7FEE7000044F60C01C5F6020137
:10591000086840F002000860FFE744F60400C5F69E
:10592000020000688004002801D4FFE7F5E7704713
:1059300080B584B0ADF80E00ADF80C10ADF80A20BB
:10594000ADF80830BDF90E20BDF90C30BDF90A00E4
:10595000BDF908C06946C1F804C0086045F20840B6
:10596000C2F200404FF4007100F006FB04B080BDAD
:1059700080B545F20840C2F20040012100F06CFA07
:1059800080BD00000000000080B545F20840C2F272
:10599000004004F0FDF880BD80B545F20840C2F239
:1059A000004004F0F5F880BD80B584B0ADF80E007D
:1059B000ADF80C10ADF80A20ADF80830BDF90E2096
:1059C000BDF90C30BDF90A00BDF908C06946C1F83F
:1059D00004C0086045F27460C2F200004FF4007128
:1059E00000F0CAFA04B080BD80B584B0ADF80E00F6
:1059F000ADF80C10ADF80A20ADF80830BDF90E2056
:105A0000BDF90C30BDF90A00BDF908C06946C1F8FE
:105A100004C0086045F27460C2F2000040F2FF1159
:105A200000F0AAFA04B080BD80B545F27460C2F2FD
:105A30000000022100F010FA80BD0000000000000C
:105A400080B545F27460C2F2000004F0A1F880BD98
:105A500080B545F27460C2F2000004F099F880BD90
:105A600080B584B0ADF80E00ADF80C10ADF80A208A
:105A7000ADF80830BDF90E20BDF90C30BDF90A00B3
:105A8000BDF908C06946C1F804C0086045F2A840E5
:105A9000C2F200404FF4007100F06EFA04B080BD15
:105AA00080B545F2A840C2F20040022100F0D4F9CE
:105AB00080BD00000000000080B545F2A840C2F2A1
:105AC000004004F065F880BD80B545F2A840C2F200
:105AD000004004F05DF880BD84B002900298406BF5
