:020000040800F2
:1000000080A50024D90300088114010811F5000817
:100010001914010819220008A1D0010800000000ED
:1000200000000000000000000000000081470108FF
:10003000B942000800000000712301089959010825
:10004000F7030008F7030008F7030008F7030008A8
:10005000F7030008F7030008F7030008F703000898
:10006000F7030008F7030008F7030008212F000832
:10007000F7030008F7030008F7030008F703000878
:10008000F7030008F7030008F70300089944000885
:1000900051450008A944000861450008F70300081D
:1000A000F7030008F7030008F7030008F703000848
:1000B000115C0108215C0108F7030008F703000840
:1000C000F7030008F7030008F7030008F703000828
:1000D000F7030008F7030008F7030008F703000818
:1000E000F7030008F703000800000000F70300080A
:1000F000F7030008F7030008F7030008F7030008F8
:10010000F7030008F7030008F7030008F7030008E7
:10011000F7030008F7030008F7030008F7030008D7
:10012000F7030008F7030008F7030008F7030008C7
:10013000F7030008F7030008F7030008F7030008B7
:1001400000000000000000000000000000000000AF
:10015000F7030008F7030008F7030008F703000897
:10016000F7030008F7030008F7030008F703000887
:10017000F703000859150108F70300080000000004
:10018000F7030008F7030008116B0108F7030008E4
:10019000F7030008F7030008F7030008F703000857
:1001A000F7030008F7030008F70300080000000049
:1001B000F7030008F7030008F7030008F703000837
:1001C000F7030008F703000800000000000000002B
:1001D0000000000000000000F7030008000000001D
:1001E000000000000000000000000000000000000F
:1001F0000000000000000000F7030008F7030008FB
:10020000F7030008F703000800000000F7030008E8
:10021000F7030008F7030008F7030008F7030008D6
:10022000F703000800000000F703000800000000CA
:10023000F7030008F703000800000000F7030008B8
:10024000F7030008F7030008F7030008F7030008A6
:10025000F7030008F7030008F7030008F703000896
:10026000F7030008F7030008F7030008F703000886
:10027000F7030008F7030008F70300080000000078
:10028000F7030008F7030008F7030008F703000866
:1002900000000000F7030008F7030008000000005A
:1002A00000000000F7030008F7030008F703000848
:1002B000E18B0108F7030008F7030008C9450008AF
:1002C000D9450008F7030008F703000800F002F81A
:1002D00000F072F814A696E8000CB244B344DA4574
:1002E00001D100F069F8BAE80F000FA696E83000D7
:1002F000A5EB040504EB0607AAEB0704A7F1010729
:100300004FEA15154FEA3414A4F10104AC4201D3AD
:1003100000F052F813F0010F18BFFB1A43F001036D
:1003200000F001F8DBE71847B40A0200F40A020003
:100330000A444FF0000C10F8013B13F0070408BF0B
:1003400010F8014B1D1108BF10F8015B641E05D0A9
:1003500010F8016B641E01F8016BF9D113F0080F5E
:100360001EBF10F8014BAD1C0C1B09D16D1E58BFF0
:1003700001F801CBFAD505E014F8016B01F8016B27
:100380006D1EF9D59142D6D370470000704700002A
:100390000023002400250026103A28BF78C1FBD88E
:1003A000520728BF30C148BF0B6070471FB520F00F
:1003B00027FA1FBD10B510BD00F080F91146FFF7F8
:1003C000F5FF1DF0B9FC00F09EF903B4FFF7F2FF52
:1003D00003BC00F0A1F900000A4880470A488047A2
:1003E0000A480047FEE7FEE7FEE7FEE7FEE7FEE716
:1003F000FEE7FEE7FEE7FEE705480649064A074B2B
:100400007047000019440008A95A0108CD020008ED
:10041000809F002480A5002480A1002480A10024C6
:1004200053EA020C00F069802DE9F04B4FF0000612
:10043000002B1FBFB3FA83F503FA05F424FA05F67F
:100440005E4012BF1643B2FA82F502FA05F4C5F116
:1004500020051EBF22FA05FC44EA0C04203556EAAA
:10046000044C4FEA144418BF641C4FF000084FF0CE
:100470000009904271EB030C39D3002919BFB1FA7E
:1004800081F701FA07F6B0FA80F700FA07F6C7F12C
:1004900020071EBF20FA07FC46EA0C062037B6FBF1
:1004A000F4FCA7EB0507103F07F01F0BCBF120066C
:1004B0002CFA06F60CFA0BFB44BFB3460026202F9D
:1004C000A4BF5E464FF0000B5BEA060C08BF4FF07E
:1004D000010B19EB0B0948EB0608ABFB027C06FB92
:1004E00002CC0BFB03CCC01B71EB0C01C1E70B462C
:1004F000024641464846BDE8F08B13B5084318BF95
:100500004FF0FF300146AFF30080BDE81C4070475C
:10051000032A40F2308010F0030C00F0158011F82F
:10052000013BBCF1020F624498BF11F801CB00F807
:10053000013B38BF11F8013BA2F1040298BF00F85B
:1005400001CB38BF00F8013B11F0030300F0258018
:10055000083AC0F0088051F8043B083A51F804CB3F
:10056000A0E80810F5E7121D5CBF51F8043B40F805
:10057000043BAFF30080D20724BF11F8013B11F810
:1005800001CB48BF11F8012B24BF00F8013B00F854
:1005900001CB48BF00F8012B704710B5203AC0F0DE
:1005A0000B80B1E81850A0E81850B1E81850A0E846
:1005B0001850203ABFF4F5AF5FEA027C24BFB1E8DF
:1005C0001850A0E8185044BF18C918C0BDE8104022
:1005D0005FEA827C24BF51F8043B40F8043B08BF2B
:1005E0007047D20728BF31F8023B48BF11F8012BF2
:1005F00028BF20F8023B48BF00F8012B70474FF09E
:1006000000020429C0F0128010F0030C00F01B80DF
:10061000CCF1040CBCF1020F18BF00F8012BA8BFED
:1006200020F8022BA1EB0C0100F00DB85FEAC17CB1
:1006300024BF00F8012B00F8012B48BF00F8012B64
:1006400070474FF0000200B5134694469646203995
:1006500022BFA0E80C50A0E80C50B1F12001BFF47B
:10066000F7AF090728BFA0E80C5048BF0CC05DF8E1
:1006700004EB890028BF40F8042B08BF704748BF2F
:1006800020F8022B11F0804F18BF00F8012B7047A3
:1006900070477047704710B500F008F8006810BD4B
:1006A00010B5044600F002F8046010BD0048704721
:1006B0003001002400487047300100247546FFF7E0
:1006C000F9FFAE4605006946534620F0070085460F
:1006D00018B020B5FFF790FEBDE820404FF00006AF
:1006E0004FF000074FF000084FF0000BAC46ACE8AD
:1006F000C009ACE8C009ACE8C009ACE8C00921F009
:1007000007018D46704710B50446AFF300802046C0
:10071000BDE81040FFF759BE01491820ABBEFEE707
:10072000260002007047000082B08DED010A9DEDA9
:10073000010AB5EE400AF1EE10FA07DAFFE79DED87
:10074000010AB1EE400A8DED000A04E09DED010AB8
:100750008DED000AFFE79DED000A02B07047000032
:1007600082B08DED010A9DED010AB5EE400AF1EE71
:1007700010FA07DAFFE79DED010AB1EE400A8DEDB0
:10078000000A04E09DED010A8DED000AFFE79DEDF2
:10079000000A02B07047000082B08DED000A9DEDA6
:1007A000000A9FED111AB4EE410AF1EE10FA05DDD0
:1007B000FFE70020C4F27020019011E09DED000AD7
:1007C0009FED0A1AB4EE410AF1EE10FA05DAFFE7DE
:1007D0000020CCF27020019002E000980190FFE729
:1007E0009DED010A02B0704700007042000070C227
:1007F00080B586B08DED040ACDED030A0290029813
:1008000020B1FFE7029900200870FFE79DED040A80
:1008100001A8694600F098F858B9FFE7029820B19E
:10082000FFE7029901200870FFE700208DF817000C
:100830002AE09DED030A9DED011A9FED152A31EE88
:10084000021AB4EE410AF1EE10FA0EDBFFE79DED5D
:10085000030A9DED001A9FED0F2A31EE021AB4EE45
:10086000410AF1EE10FA0BDDFFE7029820B1FFE735
:10087000029902200870FFE700208DF8170003E0BE
:1008800001208DF81700FFE79DF8170006B080BD26
:10089000BD3786B5BD37863581B08DED000A9DED3B
:1008A000000A9FED051A20EE010A9FED041A80EE62
:1008B000010A01B0704700BFDB0F4940000034431C
:1008C00083B0029001910092029830B1FFE7019845
:1008D00018B1FFE7009808B9FFE731E0019890F9F7
:1008E000100000EE100AB8EEC00A029890ED001A4F
:1008F00020EE010A009880ED000A019890F9180096
:1009000000EE100AB8EEC00A029890ED011A20EE2F
:10091000010A009880ED010A019890F9200000EE8C
:10092000100AB8EEC00A029890ED021A20EE010AF1
:10093000009880ED020A0298007B00990873FFE797
:1009400003B070470000000080B586B08DED040A4A
:1009500003900291039818B1FFE7029820B9FFE7CE
:1009600000208DF817005FE09DED040A00F03CF9CF
:100970008DED010A9DED010A9FED2D1AB4EE410A9D
:10098000F1EE10FA0ADBFFE79DED010A9FED291A4F
:10099000B4EE410AF1EE10FA04DDFFE700208DF815
:1009A000170041E09DED010AB5EE400AF1EE10FAA4
:1009B0000FDDFFE79FED220AFFF76EFF039880ED42
:1009C000000A9FED1E0AFFF767FF029880ED000AFC
:1009D00026E09DED010AB5EE400AF1EE10FA0FDABD
:1009E000FFE79FED150AFFF757FF039880ED000A18
:1009F0009FED130AFFF750FF029880ED000A0EE00A
:100A00009FED0D0AFFF748FF039880ED000A9FED68
:100A10000B0AFFF741FF029880ED000AFFE7FFE7AE
:100A200001208DF81700FFE79DF8170006B080BD84
:100A3000000078C200008C42817592C274C42442C6
:100A4000000000000000000082B00090009818B97B
:100A5000FFE70020019003E0009824300190FFE7B9
:100A6000019802B070470000B0B584B003900291C5
:100A7000039818B1FFE7029808B9FFE726E003984A
:100A80005C21FFF7DEFD03990091029B019318683A
:100A90005A68D3F808C0D3F80CE01C695D694D6151
:100AA0000C61C1F80CE0C1F808C04A6008609869A0
:100AB000DA691B6A0B62CA6188610398243000F00E
:100AC000A7F80399012081F85800FFE704B0B0BDF2
:100AD00080B588B0DDF82CC0DDF828C08DED070AA0
:100AE000CDED060A8DED051A049003910292019353
:100AF000049878B1FFE7039860B1FFE7029848B126
:100B0000FFE7019830B1FFE70A9818B1FFE70B98AB
:100B100008B9FFE72DE09DED070A049890ED001A53
:100B200030EE410A00F028F8019880ED000A9DEDB2
:100B3000060A039890ED001A30EE410A00F01CF806
:100B40000A9880ED000A9DED060A9DED051A30EE2B
:100B5000010A039890ED001A029890ED002A31EEF8
:100B6000021A30EE410A00F007F80B9880ED000AF7
:100B7000FFE708B080BD000081B08DED000AFFE7FF
:100B80009DED000A9FED141AB4EE410AF1EE10FA41
:100B900009DBFFE79DED000A9FED121A30EE010A16
:100BA0008DED000AECE7FFE79DED000A9FED0B1AC3
:100BB000B4EE410AF1EE10FA09DAFFE79DED000A02
:100BC0009FED071A30EE010A8DED000AECE79DED6E
:100BD000000A01B0704700BFDB0F4940DB0F49C07E
:100BE000DB0FC940DB0FC9C081B08DED000A9DED60
:100BF000000A9FED051A20EE010A9FED041A80EE0F
:100C0000010A01B0704700BF00003443DB0F4940C8
:100C100080B582B00190019808B9FFE70AE0019819
:100C20003421FFF70EFD0199FE2008700199002084
:100C30004870FFE702B080BD10B59AB018908DEDF6
:100C4000170ACDED160A8DED151ACDED141A189868
:100C500020B9FFE7FF208DF867008EE1189890F823
:100C6000580058B9FFE718982430FFF7D1FF1899BA
:100C7000FB2081F824008DF867007EE1189824306D
:100C8000FFF7C6FF17981899C86216981899086355
:100C9000159818994863189890ED010A9FEDB91AB4
:100CA000B4EE410AF1EE10FA0BDDFFE7189890ED73
:100CB000020A9FEDB41AB4EE410AF1EE10FA07DC15
:100CC000FFE71899FE2081F824008DF8670054E1B1
:100CD0009DED170AB0EEC00A9FEDAA1AB4EE410AC4
:100CE000F1EE10FA13DAFFE79DED160AB0EEC00A36
:100CF0009FEDA41AB4EE410AF1EE10FA07DAFFE70D
:100D0000149813901899012081F8280008E09DEDAF
:100D1000160ADDED170A1EF08BFE8DED130AFFE7B4
:100D20009DED130AFFF728FF8DED130A9DED130AC1
:100D30001EF0D4FF8DED090A9DED170A8DED080A0E
:100D40009DED130A1FF0A4FB9DED082A9DED091AE5
:100D50009DED163A20EE030AA1EE020A8DED100A6F
:100D60009DED100AB1EE400A8DED0F0A9DED150ABA
:100D7000189890ED001A30EE410A8DED0E0A9DEDA7
:100D80000F1A9DED0E0A20EE000AA1EE010A189836
:100D900090ED011A90ED022AA1EE410AA2EE420A5C
:100DA00031EE011A21EE021A80EE010A8DED0D0AD4
:100DB0009DED0D0A9FED741AB4EE410AF1EE10FAA2
:100DC0000ADBFFE79DED0D0A9FED701AB4EE410AB4
:100DD000F1EE10FA0BDDFFE71899FD2081F82400F1
:100DE000189A002182F826108DF86700C5E09DED65
:100DF0000D0AFFEE000ACDED020AB7EE001A1CF054
:100E00007FFDB0EE401A9DED020A8DED0D1A9DEDAD
:100E10000D1A91EE410A9FED5E1A80FE010A1FF045
:100E2000FFFB8DED0C0A9DED0C0AB1EE400ADDEDE5
:100E30000D0A1EF0FDFD8DED110A189890ED010AC6
:100E40008DED040A90ED020A8DED030A9DED110A65
:100E50001EF044FF9DED031AB0EE402A9DED040AFA
:100E6000A1EE020A8DED0B0A189890ED020A8DEDA5
:100E7000050A9DED110A1FF00BFBB0EE401A9DED27
:100E8000050A20EE010A8DED0A0A9DED0F0ADDED3F
:100E90000E0A1EF0CDFD8DED060A9DED0A0ADDED70
:100EA0000B0A1EF0C5FDB0EE401A9DED060A30EEAD
:100EB000410A8DED120A9DED130AFFF75DFE8DEDDF
:100EC000130A9DED120AFFF757FE8DED120A9DEDF4
:100ED000110AFFF751FE8DED110A189901200790B4
:100EE00081F826001399189A91631299189AD16380
:100EF0001199189A1164189981F844009DED130A0C
:100F0000DDED120A9DED111ADDF860E00EF10C0026
:100F10000EF114010EF11C020EF148030EF14C0CFF
:100F20000EF15004EE46CEF80440CEF800C0FFF7B4
:100F3000CFFD0798189981F854009DED120A189872
:100F4000D0ED140A2530FFF753FC58B9FFE7189984
:100F5000FC2081F82400189A002182F827108DF8CF
:100F600067000AE01899002081F82400189A0121EE
:100F700082F827108DF86700FFE79DF967001AB027
:100F800010BD00BFBD378635540080BF5400803F80
:100F9000000000000000000080B5AEB02A90ADF85F
:100FA000A6102A9828B1FFE7BDF8A600382804D873
:100FB000FFE70020ADF8AE003BE1EFF310802C908E
:100FC0002C980390EFF3108072B62D9000F0C8FAC1
:100FD000014609A87C22FFF7E0FA44F64453C2F226
:100FE0000003986BD96B1A6C5B6C0893079206919F
:100FF000059045F63450C2F2004081788DF8121009
:101000000088ADF81000039810B9FFE762B6FFE75B
:101010009DED050AFFF7E8FD8DED020A9DED060A3C
:10102000FFF7E2FD8DED010A9DED070AFFF7DCFDFC
:101030008DED000A0020ADF8A4002A99BDF8A42087
:10104000501CADF8A400A5208854BDF8A400ADF84C
:10105000A2002A99BDF8A420501CADF8A400E120FC
:1010600088549DF810002A99BDF8A420531CADF8AF
:10107000A43088549DF811002A99BDF8A420531C6F
:10108000ADF8A43088549DF812002A99BDF8A42028
:10109000531CADF8A43088549DF89C002A99BDF8E3
:1010A000A420531CADF8A43088549DF898002A99C8
:1010B000BDF8A420531CADF8A43088542A98BDF87C
:1010C000A41008449DED090A00F0FAF8BDF8A40048
:1010D0000430ADF8A4002A98BDF8A41008449DED92
:1010E0000A0A00F0EDF8BDF8A4000430ADF8A40041
:1010F0002A98BDF8A41008449DED0B0A00F0E0F812
:10110000BDF8A4000430ADF8A4002A98BDF8A410DE
:1011100008449DED0C0A00F0D3F8BDF8A40004309B
:10112000ADF8A4002A98BDF8A41008449DED0D0A5E
:1011300000F0C6F8BDF8A4000430ADF8A4002A9869
:10114000BDF8A41008449DED0E0A00F0B9F8BDF8F2
:10115000A4000430ADF8A4002A98BDF8A4100844F7
:101160009DED230A00F0ACF8BDF8A4000430ADF802
:10117000A4002A98BDF8A41008449DED240A00F0AC
:101180009FF8BDF8A4000430ADF8A4002A98BDF87B
:10119000A41008449DED250A00F092F8BDF8A400C3
:1011A0000430ADF8A4002A98BDF8A41008449DEDC1
:1011B000020A00F085F8BDF8A4000430ADF8A400E0
:1011C0002A98BDF8A41008449DED010A00F078F8B3
:1011D000BDF8A4000430ADF8A4002A98BDF8A4100E
:1011E00008449DED000A00F06BF8BDF8A40004303F
:1011F000ADF8A4002A98BDF8A2100844362100F0EA
:101200001FF88DF8A1009DF8A1002A99BDF8A4202F
:10121000531CADF8A43088542A99BDF8A420501C62
:10122000ADF8A4005A208854BDF8A400ADF8AE0073
:10123000FFE7BDF8AE002EB080BD0000000000004A
:1012400085B00390ADF80A1000200190039820B9F2
:10125000FFE700208DF813001CE00020ADF802002D
:10126000FFE7BDF80200BDF80A1088420EDAFFE77A
:101270000398BDF80210415C019808440190FFE713
:10128000BDF802000130ADF80200EAE701988DF8E0
:101290001300FFE79DF8130005B070470000000041
:1012A00045F63751C2F20041002008707047000037
:1012B00045F63750C2F20040007870470000000049
:1012C00082B001908DED000A019808B9FFE703E0B4
:1012D000019900980860FFE702B070470000000025
:1012E00080B582B045F63750C2F20040007820B198
:1012F000FFE700208DF8070035E046F22850C2F2E3
:1013000000003921FFF748FEADF80400BDF80400E5
:1013100020B9FFE700208DF8070024E045F637519B
:10132000C2F2004101200870BDF8042045F21C20E3
:10133000C2F2004046F22851C2F200010EF03CF821
:101340008DF803009DF8030048B1FFE745F63751DB
:10135000C2F20041002008708DF8070003E0012070
:101360008DF80700FFE79DF8070002B080BD000080
:1013700045F63751C2F20041002008707047000066
:1013800080B58AB0002001900020C4F2A030029005
:1013900003909FED120AFFF77FFA8DED040A9FED8F
:1013A000100AFFF779FA8DED060A9FED0E0AFFF796
:1013B00073FA8DED080A01208DF81400FF218DF8D5
:1013C0001C108DF8240044F64450C2F2000001A91C
:1013D000FFF74AFB00F028F90AB080BD00000000CA
:1013E00000008C42000011C380B592B00FA802909B
:1013F00080ED020AC0ED010A80ED001A119944F651
:10140000A052C2F200021160109951600F999160D0
:1014100090ED020AD0ED010A90ED001A44F6445016
:10142000C2F200000390DFED4D1AFFF705FC014604
:1014300003988DF83B10FFF707FB0D909DF93B00DB
:1014400078BBFFE70D98243044F64451C2F2000106
:1014500009AA0092FFF734FA009805A9019100F05B
:10146000B7F802980099019A90ED020AD0ED010AAE
:1014700090ED001A0D9800F0E3F800218DF813109C
:1014800044F6A052C2F2000282F879109DF81300CF
:1014900082F87A009DF813200D9B084600F050F961
:1014A00059E09DF93B000330B0B9FFE700F060F868
:1014B0008DF8130044F6A052C2F20002012082F817
:1014C00079009DF8131082F87A109DF813200D9B77
:1014D000002100F035F93DE09DF93B00043010BBE0
:1014E000FFE700208DF812000D9828B1FFE70D9856
:1014F00040788DF81200FFE700F03AF88DF81300FD
:1015000044F6A052C2F20002022082F879009DF84F
:10151000131082F87A109DF812109DF813200D9B7D
:1015200000F00EF915E000F023F88DF8130044F6F2
:10153000A052C2F20002032082F879009DF8131035
:1015400082F87A109DF813200D9B002100F0F8F826
:10155000FFE7FFE7FFE712B080BD00BF000000001B
:1015600044F6A050C2F200007047000000000000E6
:1015700082B044F6A050C2F2000090F87800E8B1C2
:10158000FFE744F6A051C2F2000100918869CA69E0
:101590000B6AD1F824C0C1F834C00B63CA628862F8
:1015A000886DCA6D0B6ED1F864C0C1F874C00B674A
:1015B000CA66886601208DF8070003E002208DF8D6
:1015C0000700FFE79DF8070002B070470000000029
:1015D00080B582B001900091019818B1FFE70098A2
:1015E00008B9FFE71CE0019890ED000AFFF7FCFA4C
:1015F000009880ED000A019890ED010AFFF7F4FAD7
:10160000009880ED010A019890ED020AFFF7ECFACC
:10161000009880ED020A0198007B00990873FFE7AB
:1016200002B080BD0000000080B544F6A050C2F2B8
:1016300000007C21FFF705F880BD000000000000DD
:1016400087B08DED060ACDED050A8DED041A0390E5
:1016500002910192039830B1FFE7029818B1FFE7B9
:10166000019808B9FFE768E0069844F6A051C2F275
:1016700000010091C8600598086104984861DDF890
:101680000CC0DCF81400DCF81820DCF81C30DCF8A6
:1016900020C0C1F824C00B62CA618861DDF80CC0AB
:1016A000DCF82400DCF82820DCF82C30DCF830C032
:1016B000C1F844C00B64CA638863DDF808C0DCF875
:1016C0000000DCF80420DCF80830DCF80CC0C1F8BD
:1016D00054C00B65CA648864DDF804C0DCF80000FF
:1016E000DCF80420DCF80830DCF80CC0C1F864C079
:1016F0000B66CA658865DDF80CC0DCF81400DCF800
:101700001820DCF81C30DCF820C0C1F834C00B63B2
:10171000CA628862DDF804C0DCF80000DCF804204E
:10172000DCF80830DCF80CC0C1F874C00B67CA667E
:101730008866012081F87800FFE707B07047000055
:1017400080B588B08DF81F008DF81E108DF81D2013
:1017500006939DF81F008DF812009DF81E008DF86D
:1017600013009DF81D008DF81400069848B1FFE79E
:10177000069880788DF815000698C0788DF81600C8
:1017800005E000208DF815008DF81600FFE744F6FF
:10179000A050C2F2000090F878008DF81700902059
:1017A00001900DF1120102910622039200F010F84F
:1017B00001980299039A00F003F808B080BD000078
:1017C00083B08DF80B000191ADF8022003B0704793
:1017D00080B584B08DF80F000291ADF806209DF819
:1017E0000F0002999DF8062013F03AFF04B080BD67
:1017F00080B586B08DF8170045F66440C2F200004F
:1018000090ED030AB8EEC00A9FED1A1A20EE010A05
:101810008DED040A90ED0A0AB8EEC00A9FED161A83
:1018200020EE010A8DED030A90ED110AB8EEC00A10
:1018300020EE010A8DED020A9DF8172044F6305182
:10184000C2F2000144F60C50C2F20040012A08BF67
:10185000084601901DF090FA0498019908600398D9
:10186000019948600298019988601DF0B1FA06B0AC
:1018700080BD00BF402F81B974F7EF390000000030
:1018800080B582B049F68460C2F2004090ED000A53
:1018900044F6D040C2F2000090ED001AB4EE410AC6
:1018A000F1EE10FA44D1FFE746F2F450C2F2000024
:1018B00090ED000A44F6A040C2F2004090ED001AFC
:1018C000B4EE410AF1EE10FA32D1FFE749F68C602E
:1018D000C2F2004090ED000A44F6D440C2F200008B
:1018E00090ED001AB4EE410AF1EE10FA20D1FFE7B4
:1018F00045F67C31C2F200010020086045F2C421A7
:10190000C2F20041086045F68031C2F20001086071
:1019100044F61C51C2F20041086044F64051C2F244
:101920000001086044F62051C2F20041086058E00E
:1019300044F6D040C2F2000090ED000A44F6A04008
:10194000C2F20040D0ED000A44F6D440C2F20000DA
:1019500090ED001AFFF748FDFFF702FE0190019895
:1019600090F87800E0B3FFE744F6D840C2F20000F8
:1019700090F9000001281BD1FFE70198806A45F229
:10198000B421C2F2004108600198C06A4860019821
:10199000006B88600198806E44F60C51C2F20041E1
:1019A00008600198C06E48600198006F88600FE081
:1019B00045F2B421C2F2004100200860486088600E
:1019C00044F60C51C2F20041086048608860FFE7AD
:1019D000FFF76EFC18B9FFE7FFF782FCFFE7FFE7B0
:1019E000FFE702B080BD000080B584B08DED030A32
:1019F000CDED020A8DED011A46F2F050C2F2000060
:101A000090ED000A9DED031AB4EE410AF1EE10FAD2
:101A100030D1FFE749F68860C2F2004090ED000A3D
:101A20009DED021AB4EE410AF1EE10FA22D1FFE761
:101A300046F2F850C2F2000090ED000A9DED011A46
:101A4000B4EE410AF1EE10FA14D1FFE71DF094F95B
:101A500045F66C31C2F200010020086048608860E1
:101A600044F63051C2F200010860486088601DF001
:101A7000AFF92FE09DED030ADDED020A9DED011A9D
:101A8000FFF7B2FCFFF76CFD0090009890F878002B
:101A9000F8B1FFE71DF070F90098806A45F66C31E7
:101AA000C2F2000108600098C06A48600098006BAC
:101AB00088600098806E44F63051C2F200010860E0
:101AC0000098C06E48600098006F88601DF080F933
:101AD000FFE7FFE704B080BD70B5A4B0229021916C
:101AE00020921F9344F6CB40C2F20040007808B920
:101AF000FFE7B1E1EFF3108072B6239044F6A44102
:101B0000C2F200410DF155002722FEF701FD44F617
:101B1000CB41C2F200410020087062B6FF218DF86F
:101B200054108DF83B00FFE79DF83B00072814D8C0
:101B3000FFE79DF83B100DF15500405C012805D1F1
:101B4000FFE79DF83B008DF8540006E0FFE79DF8A5
:101B50003B0001308DF83B00E6E79DF85D0044F660
:101B6000D845C2F200050B9528709DF85E0044F23E
:101B70009D44C2F2004420709DF85F0049F69161D7
:101B8000C2F20041049108709DF8600046F2FE51D7
:101B9000C2F20001039108709DF8610044F60951FA
:101BA000C2F20041069108709DF8620044F6F041CF
:101BB000C2F20001079108709DF8630044F60851D5
:101BC000C2F20041089108700DF1550002900F30EB
:101BD0001CF03EFE02988DED140A13301CF038FE06
:101BE00002988DED130A17301CF032FE02988DED2D
:101BF000120A1B301CF02CFE02988DED110A1F30CA
:101C00001CF026FE02988DED100A23301CF020FEF9
:101C1000DDF80CC0069B079A0898DDF810E08DED02
:101C20000F0A9DF8546044F6F441C2F20001059198
:101C30000E70149E4E60139E8E60129ECE60119E9A
:101C40000E61109E4E610F9E8E612D780D77247867
:101C50004C779EF800E081F81EE09CF800C081F807
:101C60001FC01B7881F82030127881F8212000787D
:101C700081F82200486A0130486207F089FD059921
:101C8000C862012081F82800002081F8380046F25F
:101C90007C51C2F2000108709DF854109DED140AA9
:101CA000DDED130A9DED121A45F26400C2F2000048
:101CB00010F092FB0699079A089809781278037831
:101CC00045F20800C2F2000010F062FD9DED110A1D
:101CD000DFED620ACDED090A9FED611A8DED0A1A5A
:101CE0001BF09AFEDDED090A9DED0A1A8DED110A31
:101CF0009DED100A1BF090FE9DED0A1A8DED100A65
:101D00009DED0F0ADFED570A1BF086FE0B988DED57
:101D10000F0A90F90000012813D1FFE7119844F64B
:101D2000D041C2F200010860109844F6A041C2F20E
:101D3000004108600F9844F6D441C2F200010860E7
:101D400010E044F6D041C2F200010020086044F6E1
:101D5000A041C2F20041086044F6D441C2F2000141
:101D60000860FFE744F29D40C2F20040007801386D
:101D7000B0FA80F0400900F047FF40F20800C2F2DC
:101D800000000078012867D1FFE749F69160C2F2B0
:101D9000004001900178002014F06EFD0198007859
:101DA00040BBFFE7002014F04BFC0D9046F2FE50C4
:101DB000C2F20000007848B9FFE70D98007828B11A
:101DC000FFE70D9800211CF01FFE12E046F2FE50C6
:101DD000C2F20000007801280AD1FFE70D980078D0
:101DE000012805D0FFE70D9801211CF00DFEFFE74B
:101DF000FFE730E049F69160C2F200400078012828
:101E000028D1FFE7002014F02FFC0C9046F2FE5082
:101E1000C2F20000007848B9FFE70C98007828B1BA
:101E2000FFE70C9800211CF027FE12E046F2FE505E
:101E3000C2F20000007801280AD1FFE70C98007870
:101E4000012805D0FFE70C9801211CF015FEFFE7E3
:101E5000FFE7FFE7FFE7FFE724B070BD0000FAC32C
:101E60000000FA430000484280B586B005908DF826
:101E700013100392059808B9FFE778E09DF8130066
:101E80000599087005990020C87003980599C860E5
:101E90009DF81300013801460291062862D8029984
:101EA000DFE801F00415232934474D00059800F0C0
:101EB000DFFD059800F0CCFD05989FED310A13F089
:101EC00063FC05989FED2B0A13F07EFC4BE0059810
:101ED00000F0BEFD05989FED2A0A13F055FC059809
:101EE0009FED280A13F070FC3DE005989FED220A53
:101EF00013F04AFC37E005989FED1E0A13F070FCC2
:101F000005989FED1D0A13F077FC2CE0059800F072
:101F10009FFD05989FED170A13F062FC05989FED51
:101F2000160A13F069FC05989FED140A13F04CFC97
:101F300019E005989FED0F0A13F026FC13E00599B0
:101F40000020887005990120C87005989FED090A46
:101F50008DED010A13F018FC9DED010A059813F0B0
:101F600033FC00E0FFE705981BF022F8FFE706B01E
:101F700080BD00BF000000000000484300007A431D
:101F800000005C430000344380B586B005908DF8B6
:101F9000131003920293029808B9FFE739E10298FF
:101FA0009021FEF74EFB9DF8130002990870002067
:101FB000009013F02DFC0299886110F0D1F90146D0
:101FC0000098029A5172029A4FF24911C4F2E74105
:101FD000D164029A45F6B401C4F2B74111658DF897
:101FE0000700FFE79DF80700032813D8FFE79DF8D7
:101FF000072040F6CC40C0F6020050F822000299BB
:1020000001EB82014865FFE79DF8070001308DF87C
:102010000700E7E700208DF80700FFE79DF80700BD
:10202000012813D8FFE79DF8072040F6C440C0F60A
:10203000020050F82200029901EB82014866FFE796
:102040009DF8070001308DF80700E7E70398E8B333
:10205000FFE700208DF80700FFE79DF80700032841
:1020600015D8FFE703989DF8071000EB4100B0F882
:10207000840002999DF8072001EB4201A1F8840039
:10208000FFE79DF8070001308DF80700E5E7002025
:102090008DF80700FFE79DF80700012815D8FFE736
:1020A00003989DF8071000EB4100B0F88C000299EE
:1020B0009DF8072001EB4201A1F88C00FFE79DF895
:1020C000070001308DF80700E5E7FFE7059808B93C
:1020D000FFE79EE0059800780299487005984078DF
:1020E00002998870059880780299C8700598C07820
:1020F000029908710598007902994871059840790C
:102100000299C87105988079029908720598C0688B
:102110000299C860059800690299086105980078DD
:1021200013F076FB02998861059810F081FA029904
:1021300088710598007828B1FFE70598007807288E
:1021400004D1FFE702990020486106E00598C168C4
:102150000069401A02994861FFE700208DF80700E6
:10216000FFE79DF80700032825D8FFE705989DF8AD
:10217000072000EB8200406C029901EB8201C861EC
:1021800005989DF8072000EB8200C06A029901EBD8
:102190008201C86205989DF8072000EB8200406923
:1021A000029901EB8201C866FFE79DF80700013044
:1021B0008DF80700D5E700208DF80700FFE79DF8B0
:1021C0000700012825D8FFE705989DF8072000EBB8
:1021D0008200406D029901EB8201C86305989DF869
:1021E000072000EB8200C06B029901EB820148647A
:1021F00005989DF8072000EB8200406A029901EBE8
:102200008201C867FFE79DF8070001308DF80700DD
:10221000D5E706B080BD0000FFE7FEE70000000044
:1022200080B5B2B026A90991319041F288301BF0F7
:10223000DBFD4FF2BB50C3F6EF10309045F69940EE
:10224000C3F681102F9046F62260C3F6D6102E906A
:10225000FFE7002008902D902C902B902A90299039
:102260002890279026908DF82B008DF82A000220C8
:102270008DF829001CF080FD40F20800C2F2000039
:10228000007801282BD1FFE745F26403C2F2000376
:10229000D3F8F400D3F8F810D3F8FC20D3F80031C9
:1022A0002D932C922B912A9045F20801C2F2000145
:1022B0000FA85C22FEF771F944F60C50C2F2004000
:1022C00001682791416828918068299001208DF844
:1022D0002B008DF82A0000208DF8290032E044F20E
:1022E0009C40C2F20040007801282AD1FFE744F662
:1022F000C863C2F20043D3F8F400D3F8F810D3F85F
:10230000FC20D3F800312D932C922B912A9044F687
:102310006C61C2F200410FA85C22FEF73EF944F660
:102320003050C2F20000016827914168289180680E
:10233000299001208DF82B008DF82A008DF82900B6
:10234000FFE7FFE714F068F9099880ED000A1CF038
:102350003FFD9DF82B00002845D0FFE7099890ED40
:10236000050AB1EE400A90ED081A80EE010A01203C
:102370000FF026FF0998BDEEC00A10EE101A059165
:1023800090ED070AB1EE400A90ED081A80EE010ABE
:1023900002200FF015FF0998BDEEC00A10EE101ACA
:1023A000069190ED060A90ED081A80EE010A0320CE
:1023B0000FF006FF0998BDEEC00A10EE101A079143
:1023C00090ED040A90ED081A80EE010A04200FF047
:1023D000F7FE05980699079ABDEEC00A10EE103A6E
:1023E00002F02EF806E00023184619461A4602F0BD
:1023F00027F8FFE79DF82A0028B1FFE70FA80BA9EF
:1024000010F02AF853E09FED580A8DED040A0120E0
:102410000FF002FFB0EE401A9DED040ABDEEC11AA6
:1024200011EE100AADF82C0002200FF0F5FEB0EE10
:10243000401A9DED040ABDEEC11A11EE100AADF866
:102440002E0003200FF0E8FEB0EE401A9DED040AC6
:10245000BDEEC11A11EE100AADF8300004200FF0E5
:10246000DBFEB0EE401A9DED040ABDEEC11A11EE7E
:10247000100AADF8320005200FF0CEFEB0EE401A83
:102480009DED040ABDEEC11A11EE100AADF834003C
:1024900006200FF0C1FEBDEEC00A10EE100AADF826
:1024A00036000020ADF83800ADF83A00FFE79DF89F
:1024B00029000BA910F00CF9BDF92C00BDF92E1064
:1024C000BDF93020BDF9323001F0F6FFBDF934001E
:1024D000BDF9361000231A4602F00EF8099890ED67
:1024E000010AFEF759F90998B1EE400A90ED091A70
:1024F00080EE010A012003901BF0FAFC0998BDEE62
:10250000C00A10EE101A009190ED020A90ED0A1A1E
:1025100080EE010A02201BF0EBFC0998BDEEC00A18
:1025200010EE101A019190ED030A90ED0A1A80EE58
:10253000010A03201BF0DCFC0998BDEEC00A10EE76
:10254000101A029190ED000A04201BF0D1FC0098B3
:102550000199029ABDEEC00A10EE103A02F008F896
:1025600003981BF041FC74E600000000000000002E
:1025700080B586B00490039100200290049818B1B1
:10258000FFE7039818B9FFE70020059027E0FFE771
:102590000298039988421FD2FFE769460DF10700B0
:1025A000086046F26C50C2F2000045F63851C2F2A3
:1025B000004145F63C52C2F200424FF4805311F004
:1025C000A3FB08B9FFE707E09DF807000499029A0A
:1025D000531C02938854DBE702980590FFE70598A7
:1025E00006B080BD0000000080B546F27450C2F213
:1025F0000000006846F65C51C2F2004109684FF4E1
:10260000805211F071FB80BD80B584B045F280101E
:10261000C2F20000D0F8BC0208B9FFE77AE045F248
:102620008010C2F20000D0F8BC02039046F6585069
:10263000C2F20040006808B1FFE76BE00398D0F8F1
:10264000140208B1FFE765E046F27450C2F20000E0
:10265000006846F65C51C2F2004109684FF48052AE
:1026600011F0C2FB0290029808B9FFE752E046F26F
:102670007450C2F20000006846F65C51C2F200419C
:10268000096888420DD9FFE746F27450C2F2000093
:10269000006846F65C51C2F200410968401A019098
:1026A00008E046F65C50C2F200400068C0F5805079
:1026B0000190FFE701980299884203D9FFE7029849
:1026C0000190FFE70198B0F5007F04D9FFE74FF4D0
:1026D00000700190FFE746F65C50C2F200400168CE
:1026E00046F66050C2F200400144BDF8042045F2B5
:1026F0008010C2F20000009016F07EFE009816F0E6
:1027000087FF38B9FFE7019846F65851C2F20041F9
:102710000860FFE704B080BD80B586B004900391E7
:10272000049818B1FFE7039820B9FFE701208DF85E
:1027300017003FE046F27450C2F20000006846F60F
:102740005C51C2F2004109684FF4805211F0CCFA9A
:10275000019003980199884204D9FFE700208DF881
:10276000170027E000200290FFE7029803998842B3
:102770001AD2FFE704980299405C6946086046F265
:102780007450C2F2000046F65C51C2F2004146F6B7
:102790006052C2F200424FF4805311F0F5FAFFE7A5
:1027A000029801300290E0E7FFF72EFF01208DF83C
:1027B0001700FFE79DF8170006B080BD000000007D
:1027C00084B08DF80F000291ADF80620FFE70120DC
:1027D00008B9FFE7FBE79DF80F00014600912328A9
:1027E0002FD80099DFE801F012131415162D2D2DA6
:1027F0002D2D2D2D2D2D2D2D2D2D2D2D2D2D2D2D09
:102800002D2D2D2D2D2D2D2D17182B2C1AE019E0E7
:1028100018E017E016E015E0029900200870029A0F
:10282000C2215170029A012191700299C8700299D7
:1028300008710299487102990820887102E001E04C
:1028400000E0FFE7002004B0704700000000000037
:10285000002070470000000080B582B045F2801073
:10286000C2F20000009044F29E41C2F200410022F8
:10287000019216F0C1FD009844F2D041C2F200016D
:1028800016F09AFD0199009846F26C52C2F20002CD
:10289000116045F63852C2F20042116046F274529D
:1028A000C2F20002116046F65C52C2F200421160B0
:1028B00046F65852C2F20042116046F26852C2F225
:1028C0000002116016F01CFD019802B080BD0000EE
:1028D00080B586B00590049100200390FFE703982F
:1028E00004990968884224D2FFE705980399405C5F
:1028F0006946086046F26C50C2F2000045F6385155
:10290000C2F2004145F63C52C2F200424FF48053FD
:1029100011F03AFA40B9FFE746F26851C2F20001FD
:10292000086801300860FFE7FFE703980130039073
:10293000D5E7059945F28010C2F20000029016F02A
:102940003BFD029816F0DCFC002006B080BD0000C4
:1029500080B584B0039002918DF8072000208DF897
:10296000060046F65C53C2F200431A6846F6585118
:10297000C2F20041D1F800C062446FF31F321A6006
:102980000860FFF741FE9DF9060004B080BD00001D
:1029900084B00290ADF806104FF6FF70ADF8040059
:1029A000029820B1FFE7BDF8060028B9FFE7BDF89F
:1029B0000400ADF80E0047E00020ADF80200FFE78C
:1029C000BDF80200BDF80610884238DAFFE7029829
:1029D000BDF80210415CBDF804004840ADF80400A9
:1029E00000208DF80100FFE79DF8010007281FD89F
:1029F000FFE7BDF80400C00768B1FFE7BDF80400B9
:102A00004008ADF80400BDF804004AF20101484056
:102A1000ADF8040005E0BDF804004008ADF804007E
:102A2000FFE7FFE79DF8010001308DF80100DBE7CB
:102A3000FFE7BDF802000130ADF80200C0E7BDF8C5
:102A40000400ADF80E00FFE7BDF80E0004B07047BB
:102A500081B0009045F2C820C2F20040C16F009AD8
:102A60005162D0F898000099886201B07047000068
:102A700082B0019000208DF80300FFE79DF803006D
:102A8000032816D8FFE79DF80320C2EBC20145F2E8
:102A9000C820C2F2004000EB8100C068019901EB40
:102AA00082014861FFE79DF8030001308DF80300C3
:102AB000E4E702B07047000080B545F63030C2F25E
:102AC00000400FF041F946F2D040C2F200000FF092
:102AD0003BF980BD0000000080B596B08DED150A71
:102AE00068460DF075FB9DED0D0AB1EE400ADDED77
:102AF000150A46F2D040C2F200000EF0F1FF16B007
:102B000080BD00000000000080B598B08DED170A70
:102B100002A80DF05DFB9DED170A9DED0B1A30EE3E
:102B2000410A8DED010A9DED010A02F061F88DED7B
:102B3000010ADDED010A45F63030C2F200409FED9A
:102B40000A0A0EF0CDFF8DED000A9DED0F0AB1EEE1
:102B5000400ADDED000A46F2D040C2F200000EF05D
:102B6000BFFF18B080BD00BF0000000000000000E3
:102B700082B0ADF80400ADF80210ADF80020BDF948
:102B80000400BDF9021088420BDBFFE7BDF9040029
:102B9000BDF90010884204DCFFE701208DF8070032
:102BA00003E000208DF80700FFE79DF8070002B062
:102BB000704700000000000084B08DED020ACDEDEA
:102BC000010A8DED001A9DED020A9DED011AB4EE89
:102BD000410AF1EE10FA03DAFFE7019803900FE0E3
:102BE0009DED020A9DED001AB4EE410AF1EE10FAD5
:102BF00003DDFFE70098039002E002980390FFE7EF
:102C00009DED030A04B0704780B582B08DF80700CF
:102C10009DF8070001280FD1FFE744F29C41C2F262
:102C200000410120087040F20802C2F200020021B7
:102C3000117013F0DDFD0EE040F20801C2F2000158
:102C40000120087044F29C41C2F20041002008704B
:102C500013F0CEFDFFE702B080BD000000000000D1
:102C600080B584B0039041F288301BF0BDF80EF0BF
:102C7000BFFA45F21C20C2F2004044F6D941C2F22C
:102C8000000101220CF084FA0DF0FEFE45F2640012
:102C9000C2F2000040F25C01C2F2000100919FED1F
:102CA0002D0A8DED010A10F0AFF900999DED010A92
:102CB00044F6C860C2F2004010F0A6F945F20800E0
:102CC000C2F200000FF0A0FC44F66C60C2F20040BB
:102CD0000FF09AFCFEF754FB13F052FD1CF0E4FCDD
:102CE00046F26451C2F20001086045F65820C2F273
:102CF00000000AF01DFFFFE7012108461BF0F4FE6B
:102D00000290029818B9FFE701200290FFE7FFE761
:102D1000029830B1FFE70FF0D3FE0298013802901D
:102D2000F6E749F6A460C2F20040011D00F1080276
:102D30000023FEF7D1FE13F04BFD40F20800C2F273
:102D400000000078012803D1FFE7FEF799FDFFE7B7
:102D5000D2E700BF6F12833A80B58AB08DF82700A2
:102D6000089107920020069005900490039008981F
:102D70000290089806300190042004909DF82700E6
:102D80005038014600910F2842D80099DFE801F041
:102D90001A081D1122272A2D303336404040403971
:102DA00034200690032004904020059001200390D9
:102DB0002FE03D200690032004902E200590012056
:102DC000039026E03020069023E037200690032071
:102DD00007901EE03A2006900320079019E041205A
:102DE000069016E04520069013E04920069010E07A
:102DF0004D2006900DE0512006900AE055200690E7
:102E000007E047F66060C2F200400068069000E00C
:102E100038E00798032805D1FFE70320049000203D
:102E20000390FFE70498A8B1FFE7069945F6144020
:102E3000C2F2004000EB41000299049A5200FDF7F3
:102E400067FB45F64C50C2F20000026806980499F0
:102E50009047FFE70398A8B1FFE7059945F61440AE
:102E6000C2F2004000EB41000199039A5200FDF7C5
:102E70004FFB45F64C50C2F20000026805980399DA
:102E80009047FFE70AB080BD80B584B002900298F9
:102E9000007801380146019105282DD80199DFE815
:102EA00001F0030A10171E2402980F210DF0ACFD4B
:102EB0008DF80F0024E0029801F05EFA8DF80F0003
:102EC0001EE002980F210DF09FFD8DF80F0017E016
:102ED000029809210DF098FD8DF80F0010E002987E
:102EE00001F04AFA8DF80F000AE0029806210DF071
:102EF0008BFD8DF80F0003E000208DF80F00FFE739
:102F00009DF80F0004B080BD80B501F0B9FA01F062
:102F100013FB01F04DFB01F04FFD80BD00000000F0
:102F200080B545F25C40C2F2000002F0F1FE80BDC7
:102F300083B002900298016801201022C4F20202BC
:102F40009142009000F0A380FFE702980168012001
:102F50002822C4F202029142009000F09880FFE71C
:102F60000298016801204022C4F2020291420090BE
:102F700000F08D80FFE70298016801205822C4F21A
:102F800002029142009000F08280FFE702980168FF
:102F900001207022C4F202029142009077D0FFE734
:102FA0000298016801208822C4F202029142009036
:102FB0006DD0FFE7029801680120A022C4F202024E
:102FC0009142009063D0FFE7029801680120B82287
:102FD000C4F202029142009059D0FFE702980168C2
:102FE000012040F21042C4F20202914200904ED001
:102FF000FFE702980168012040F22842C4F2020271
:103000009142009043D0FFE702980168012040F20E
:103010004042C4F202029142009038D0FFE7029889
:103020000168012040F25842C4F20202914200902D
:103030002DD0FFE702980168012040F27042C4F2EF
:1030400002029142009022D0FFE70298016801201D
:1030500040F28842C4F202029142009017D0FFE78A
:1030600002980168012040F2A042C4F2020291429B
:1030700000900CD0FFE7029800684FF64831CBF67D
:10308000FD710844B0FA80F040090090FFE7009815
:10309000C00740B3FFE70298007810384AF6AB212A
:1030A000CAF6AA21A0FB011000090190019800F0C6
:1030B000070140F67420C0F60200405C0299C86522
:1030C0000198042807D3FFE702990868042262F3F5
:1030D0000900886506E00299086840F2FF329043D3
:1030E0008865FFE705E00299086820F0FF00886521
:1030F000FFE70298806D03B07047000000000000F9
:1031000084B003900398006801900398016801203F
:1031100045F20842C5F60202914200904ED0FFE708
:1031200003980168012045F21C42C5F60202914253
:10313000009043D0FFE703980168012045F2304238
:10314000C5F602029142009038D0FFE7039801686B
:10315000012045F24442C5F60202914200902DD072
:10316000FFE703980168012045F25842C5F60202C4
:103170009142009022D0FFE703980168012045F2B8
:103180006C42C5F602029142009017D0FFE7039807
:103190000168012045F28042C5F60202914200908A
:1031A0000CD0FFE7039800684AF66C31CAF2FD7153
:1031B0000844B0FA80F040090090FFE70098C0078B
:1031C00010B3FFE70398007808384CF6CD41CCF6F1
:1031D000CC41A0FB011000090290029945F60000C5
:1031E000C5F6020000EB810003990866039945F6D5
:1031F0008000C5F602004866029800F01F01012019
:1032000088400399886635E00398007810384AF6BC
:10321000AB21CAF6AA21A0FB011000090290019877
:1032200040F2B841C4F2020188420CD8FFE701988D
:1032300040F21041C4F20201884204D3FFE7029831
:1032400008300290FFE7029940F60000C4F2020045
:1032500000EB810003990866039940F68000C4F2F0
:1032600002004866029800F01F010120884003997F
:103270008866FFE704B0704783B002900298007937
:1032800001900198002800F08A80FFE70198082843
:1032900000F28580FFE702980168012045F20842AC
:1032A000C5F60202914200904ED0FFE702980168F5
:1032B000012045F21C42C5F602029142009043D023
:1032C000FFE702980168012045F23042C5F602028C
:1032D0009142009038D0FFE702980168012045F242
:1032E0004442C5F60202914200902DD0FFE70298B9
:1032F0000168012045F25842C5F602029142009051
:1033000022D0FFE702980168012045F26C42C5F621
:1033100002029142009017D0FFE702980168012055
:1033200045F28042C5F60202914200900CD0FFE7C0
:10333000029800684AF66C31CAF2FD710844B0FA8E
:1033400080F040090090FFE70098C00780B1FFE7D8
:10335000019945F6FC00C5F6020000EB81000299D8
:10336000C866029945F64010C5F6020008670FE0EE
:10337000019940F6FC00C4F2020000EB81000299C2
:10338000C866029940F64010C4F202000867FFE7E1
:103390000198411E0120884002994867FFE703B069
:1033A000704700000000000085B0049000208DF8F8
:1033B0000F000498806918BBFFE70498806A0290A8
:1033C00003281BD80299DFE801F0020D02180498C7
:1033D00090F82F00C00720B1FFE701208DF80F0003
:1033E000FFE70CE00498C06AB0F1C07F04D1FFE7AA
:1033F00001208DF80F00FFE701E000E0FFE747E064
:1034000004988069B0F5005F26D1FFE70498806AD0
:10341000019003281ED80199DFE801F0020602118D
:1034200001208DF80F0016E0049890F82F00C007D7
:1034300020B1FFE701208DF80F00FFE70BE00498B3
:10344000C06AB0F1C07F04D1FFE701208DF80F0002
:10345000FFE700E0FFE71AE00498806A0090032885
:1034600004D3FFE70098032804D00EE001208DF874
:103470000F000BE0049890F82F00C00720B1FFE781
:1034800001208DF80F00FFE700E0FFE7FFE7FFE70F
:103490009DF80F0005B0704789B00890079106921B
:1034A00005930898806D04900898806D03900898A3
:1034B000016801201022C4F202029142029000F041
:1034C0000381FFE70898016801202822C4F2020264
:1034D0009142029000F0F880FFE70898016801200F
:1034E0004022C4F202029142029000F0ED80FFE718
:1034F0000898016801205822C4F202029142029009
:1035000000F0E280FFE70898016801207022C4F211
:1035100002029142029000F0D780FFE7089801680C
:1035200001208822C4F202029142029000F0CC8075
:10353000FFE7089801680120A022C4F2020291422C
:10354000029000F0C180FFE7089801680120B822CE
:10355000C4F202029142029000F0B680FFE70898A0
:103560000168012040F21042C4F20202914202902E
:1035700000F0AA80FFE708980168012040F2284285
:10358000C4F202029142029000F09E80FFE7089888
:103590000168012040F24042C4F2020291420290CE
:1035A00000F09280FFE708980168012040F258423D
:1035B000C4F202029142029000F08680FFE7089870
:1035C0000168012040F27042C4F20202914202906E
:1035D0007AD0FFE708980168012040F28842C4F2DF
:1035E0000202914202906FD0FFE708980168012023
:1035F00040F2A042C4F202029142029064D0FFE77E
:1036000008980168012040F2B842C4F202029142D7
:10361000029059D0FFE708980168012045F208425E
:10362000C5F60202914202904ED0FFE70898016869
:10363000012045F21C42C5F602029142029043D09D
:10364000FFE708980168012045F23042C5F6020202
:103650009142029038D0FFE708980168012045F2B6
:103660004442C5F60202914202902DD0FFE708982D
:103670000168012045F25842C5F6020291420290CB
:1036800022D0FFE708980168012045F26C42C5F698
:1036900002029142029017D0FFE7089801680120CA
:1036A00045F28042C5F60202914202900CD0FFE73B
:1036B000089800684AF66C31CAF2FD710844B0FA05
:1036C00080F040090290FFE70298C00770B1FFE761
:1036D0000898416E806E48600898C06E28B1FFE778
:1036E0000898016F406F4860FFE7FFE7089801689E
:1036F00001201022C4F202029142019000F0A38046
:10370000FFE70898016801202822C4F202029142D2
:10371000019000F09880FFE708980168012040229E
:10372000C4F202029142019000F08D80FFE70898F8
:10373000016801205822C4F202029142019000F077
:103740008280FFE70898016801207022C4F202021B
:103750009142019077D0FFE7089801680120882204
:10376000C4F20202914201906DD0FFE7089801680F
:103770000120A022C4F202029142019063D0FFE72F
:10378000089801680120B822C4F202029142019017
:1037900059D0FFE708980168012040F21042C4F2B6
:1037A0000202914201904ED0FFE708980168012083
:1037B00040F22842C4F202029142019043D0FFE756
:1037C00008980168012040F24042C4F2020291428E
:1037D000019038D0FFE708980168012040F2584274
:1037E000C4F20202914201902DD0FFE708980168CF
:1037F000012040F27042C4F202029142019022D0B4
:10380000FFE708980168012040F28842C4F20202F2
:103810009142019017D0FFE708980168012040F21B
:10382000A042C4F20202914201900CD0FFE7089836
:1038300000684FF64831CBF6FD710844B0FA80F0CD
:1038400040090190FFE70198C00750B3FFE70898CF
:10385000C06D00F01F013F208840049988600898DF
:103860000168086820F480200860059808990968B4
:10387000486008988068402809D1FFE706980899B1
:1038800009688860079808990968C86008E007987F
:10389000089909688860069808990968C860FFE770
:1038A00082E008980168012045F20842C5F602024C
:1038B000914200904ED0FFE708980168012045F240
:1038C0001C42C5F602029142009043D0FFE70898DF
:1038D0000168012045F23042C5F602029142009093
:1038E00038D0FFE708980168012045F24442C5F648
:1038F0000202914200902DD0FFE708980168012054
:1039000045F25842C5F602029142009022D0FFE7EC
:1039100008980168012045F26C42C5F60202914206
:10392000009017D0FFE708980168012045F2804217
:10393000C5F60202914200900CD0FFE7089800689B
:103940004AF66C31CAF2FD710844B0FA80F04009C1
:103950000090FFE70098C00720B3FFE70898C06D0C
:1039600000F01F01012088400399486005980899DC
:103970000968486008988068402809D1FFE70698E0
:10398000089909688860079808990968C86008E07C
:103990000798089909688860069808990968C860B6
:1039A000FFE700E0FFE7FFE709B070470000000015
:1039B00080B592B08DF8470010918DF83F2000201F
:1039C0000E900D900C900B909DF847009DF83F10C5
:1039D00017F0F2FE9DF8470001460791562800F2C5
:1039E00066840799DFE811F057009100A90063048D
:1039F0006304E400DA00630463046304630463049F
:103A00006304630463046304090123013101630156
:103A1000D70113022702630463046304630463048D
:103A200063046304630463043102440263045202C6
:103A300063049D02AA0263046304630463046304D1
:103A40006304630463046304B402CB02D9021A035F
:103A500063048803990363046304630463046304D5
:103A6000630463046304630463046304630463041E
:103A700063046304A30363046304630463046304CF
:103A80006304630463046304AD03BF03DC03130432
:103A90002D04470459049DF83F0017F099FC10B914
:103AA000FFE700F005BC17F053FE17F0B9FD19F061
:103AB00007FA1BF061F944F6C860C2F200400FF04B
:103AC0000BFD44F66C60C2F200400EF0CDFE1BF020
:103AD0007FF901200690FDF78BFE1BF04DF906984B
:103AE00012F022FE1BF074F940F29011C2F2004174
:103AF0000020087040F20021C2F20001087044F278
:103B00009821C2F200410870D2E39DF83F0017F0FF
:103B10005FFC08B9FFE7CBE340F29011C2F200412D
:103B20000120087040F20021C2F20001087044F246
:103B30009821C2F200410870BAE310989DF83F1036
:103B40000BAA18F0BDFE08B9FFE7B1E39DED0B0A23
:103B5000BCEEC00A10EE100A002818BF0120FFF7C3
:103B600053F89DED0B0ABCEEC00A10EE100AA0B986
:103B7000FFE717F0EDFD17F053FD19F0A1F91BF069
:103B8000FBF844F66C60C2F200400EF06DFE1BF0D4
:103B90001FF90120FDF72CFEFFE789E39DF83F00A8
:103BA00017F016FC08B9FFE782E30DF049FF7FE349
:103BB0009DF83F0017F00CFC08B9FFE778E317F019
:103BC000C7FD17F02DFD19F07BF91BF0D5F844F671
:103BD000C860C2F200400FF07FFC44F66C60C2F295
:103BE00000400EF041FE0120059012F08DFE1BF00A
:103BF000EFF80598FDF7FCFD5AE39DF83F0017F03C
:103C0000E7FB08B9FFE753E317F0A2FD1BF0B4F898
:103C100044F6C860C2F200400FF05EFC1BF0D8F81A
:103C200040F29011C2F200410020087040E39DF87C
:103C30003F0017F0CDFB08B9FFE739E340F29011E0
:103C4000C2F200410120087032E310989DF83F1045
:103C50000BAA18F035FE08B9FFE729E39DED0B0A22
:103C6000BCEEC00A10EE100A8DF82B009DF82B0058
:103C700007281BD8FFE744F29C40C2F200400078BE
:103C8000A0B1FFE740F29010C2F20040007868B1A6
:103C9000FFE71BF071F89DF82B1044F6C860C2F2E4
:103CA00000400FF075FB1BF093F8FFE700E310985E
:103CB0009DF83F100BAA18F003FE08B9FFE7F7E2E2
:103CC0009DED0B0ADFEDCD0ACDED030A9FEDCC1A79
:103CD0008DED041AFEF770FFDDED030A9DED041A69
:103CE0008DED0B0A9DED0C0AFEF766FF8DED0C0ABB
:103CF0009DED0D0ADFEDC30A9FEDC31AFEF75CFFD1
:103D00008DED0D0A0B9849F6B061C2F200410860D2
:103D10000C9848600D98886044F29C40C2F20040C4
:103D20000078B8B3FFE740F29010C2F2004000788C
:103D300080B3FFE71BF020F844F6C860C2F20040F1
:103D40000078022808D0FFE744F6C860C2F20040BD
:103D5000007806280DD1FFE79DED0E0A9FEDAB1A06
:103D600020EE010A44F6C860C2F200400FF09CFB4E
:103D7000FFE79DED0B0ADDED0C0A9DED0D1A44F6F3
:103D8000C860C2F200400FF03FFB1BF021F817F0B3
:103D9000F7FCFFE78CE210989DF83F100BAA18F093
:103DA0008FFD08B9FFE783E20B9849F6B061C2F2D4
:103DB000004108600C9848600D98886044F29C406F
:103DC000C2F20040007808B3FFE740F29010C2F260
:103DD00000400078D0B1FFE71AF0CEFF9DED0B0A4E
:103DE000DDED0C0A9DED0D1A44F6C860C2F20040EC
:103DF0000FF0CAF98DF82A001AF0EAFF9DF92A009F
:103E000018B9FFE717F0A4FCFFE7FFE750E29DF8C1
:103E10003F0017F0DDFA08B9FFE749E217F098FC18
:103E20001AF0AAFF44F6C860C2F200400FF054FB3B
:103E30001AF0CEFF3CE29DF83F0017F0C9FA08B92E
:103E4000FFE735E20DF0E4FD32E29DF83F0017F0A8
:103E5000BFFA08B9FFE72BE217F0E2FB0120FDF7FC
:103E6000C7FC40F20021C2F20001002008701FE2EE
:103E70009DF83F0017F0ACFA08B9FFE718E240F2EE
:103E80000021C2F200010120087011E210989DF893
:103E90003F100BAA18F014FD08B9FFE708E29DEDEA
:103EA0000B0ADFED5B0ACDED010A9FED5A1A8DED8D
:103EB000021AFEF781FEDDED010A9DED021A8DED7D
:103EC0000B0A9DED0C0AFEF777FE9DED021A8DEDB3
:103ED0000C0A9DED0D0ADFED500AFEF76DFE8DED2B
:103EE0000D0A44F29C40C2F20040007890B1FFE716
:103EF00040F20020C2F20000007858B1FFE79DEDCB
:103F00000B0ADDED0C0A9DED0D1AFDF76DFD17F0A6
:103F10009FFB05E017F084FB0120FDF769FCFFE73C
:103F2000C6E19DF83F0017F053FA08B9FFE7BFE17B
:103F300017F076FB0120FDF75BFCB9E19DF83F002F
:103F400017F046FA08B9FFE7B2E10DF059FDAFE10D
:103F50009DF83F0017F03CFA08B9FFE7A8E118F018
:103F6000AFFF1AF009FF012012F0DEFB1AF030FF5C
:103F700044F29821C2F200410020087098E19DF8B7
:103F80003F0017F025FA08B9FFE791E144F29821C4
:103F9000C2F20041012008708AE110989DF83F109C
:103FA0000BAA18F08DFC08B9FFE781E144F29C40B0
:103FB000C2F20040007838B1FFE744F29820C2F224
:103FC0000040007808B9FFE772E11AF0D5FE9DEDD8
:103FD0000B0ABCEEC00A10EE101A0120009012F07D
:103FE0004BFC009812F054FB46F2FC51C2F2000167
:103FF00008701AF0EDFE18F063FF59E17F946BC072
:104000007F946B407BD9A0BE7BD9A03E39FA8E3C11
:104010000000FAC30000FA430000484210989DF8DF
:104020003F100BAA18F04CFC08B9FFE740E19DEDEA
:104030000B0ABCEEC00A10EE100A8DF8290044F2FB
:104040009C40C2F20040007838B1FFE744F298206B
:10405000C2F20040007808B9FFE729E11AF08CFEAF
:10406000012012F015FB08BBFFE7012012F0E8FA6F
:1040700009909DF8290048B9FFE70998007828B110
:10408000FFE7099800211AF0BFFCFFE79DF829001F
:1040900001280AD1FFE709980078012805D0FFE739
:1040A000099801211AF0B0FCFFE720E0012012F08E
:1040B000DBFA08909DF8290048B9FFE708980078D6
:1040C00028B1FFE7089800211AF0D6FCFFE79DF819
:1040D000290001280AD1FFE708980078012805D0B7
:1040E000FFE7089801211AF0C7FCFFE7FFE71AF085
:1040F0006FFE18F0FDFEDBE09DF83F0017F068F959
:1041000008B9FFE7D4E018F0DBFE1AF035FE012015
:1041100012F0FAFB1AF05CFECAE09DF83F0017F0BF
:1041200057F908B9FFE7C3E00DF092FCC0E09DF835
:104130003F0017F04DF908B9FFE7B9E00DF078FC42
:10414000B6E09DF83F0017F043F908B9FFE7AFE08C
:104150001AF012FE44F66C60C2F200400EF084FBCE
:104160001AF036FEA4E09DF83F0017F031F908B9C7
:10417000FFE79DE044F29C40C2F20040007870B13D
:10418000FFE71AF0F9FD44F66C60C2F2004001212D
:1041900000231A460EF0FCFA1AF01AFEFFE787E039
:1041A00010989DF83F100BAA18F08AFB08B9FFE79A
:1041B0007EE044F29C40C2F20040007830B3FFE75A
:1041C0001AF0DAFD9DED0B2A9DED0C1A9DED0D0AFE
:1041D000BCEEC22A12EE101A002918BF0121BCEE53
:1041E000C11A11EE102A002A18BF0122BCEEC00A23
:1041F00010EE103A002B18BF012344F66C60C2F297
:1042000000400EF0C5FA1AF0E3FDFFE750E09DF81C
:104210003F0017F0DDF808B9FFE749E044F29C40A1
:10422000C2F20040007858B1FFE71AF0A5FD44F64D
:104230006C60C2F200400EF037FA1AF0C9FDFFE7D9
:1042400036E09DF83F0017F0C3F808B9FFE72FE00C
:1042500044F29C40C2F20040007858B1FFE71AF0E7
:104260008BFD44F66C60C2F200400EF009FA1AF0C1
:10427000AFFDFFE71CE09DF83F0017F0A9F808B973
:10428000FFE715E01AF078FD44F66C60C2F20040DA
:104290000EF0EAFA1AF09CFD0AE09DF83F0017F0D4
:1042A00097F808B9FFE703E00DF0BAFB00E0FFE77D
:1042B00012B080BD00000000704700000000000048
:1042C00080B582B0019005F063FA0090FFE705F039
:1042D0005FFA0099401A0199884201D2FFE7F6E798
:1042E00002B080BD0000000081B08DF802009DF892
:1042F00002000238032804D8FFE701208DF80300EC
:1043000003E000208DF80300FFE79DF8030001B0F3
:10431000704700000000000080B584B003908DF865
:104320000B109FED140A10F05BFA8DED010A039853
:104330009DF80B1000EB810090ED090A90ED0F2A1B
:10434000B8EEC00A40F6C440C0F6020000EB81009F
:1043500090ED001A21EE021A9DED012AA1EE020A4B
:104360008DED000A9DED000ABDEEC00A10EE100AA8
:1043700004B080BDB458B74480B582B000900098B6
:1043800090ED0F1A90ED150A30EE410AFCF7E8F9AE
:10439000B1EE041AB4EE410AF1EE10FA04DDFFE7C3
:1043A00000208DF8070018E0009890ED101A90EDAD
:1043B000160A30EE410AFCF7D3F9B1EE041AB4EE56
:1043C000410AF1EE10FA04DDFFE700208DF8070046
:1043D00003E001208DF80700FFE79DF8070002B019
:1043E00080BD00000000000081B000909DED000A3B
:1043F000B8EEC00A9FED021A20EE010A01B0704724
:10440000400749360000000081B0EFF3108072B61B
:104410000090FFE7FEE7000044F60C01C5F602013C
:10442000086840F002000860FFE744F60400C5F6A3
:10443000020000688004002801D4FFE7F5E7704718
:1044400080B584B0ADF80E00ADF80C10ADF80A20C0
:10445000ADF80830BDF90E20BDF90C30BDF90A00E9
:10446000BDF908C06946C1F804C0086045F24400BF
:10447000C2F200404FF4007100F006FB04B080BDB2
:1044800080B545F24400C2F20040012100F06CFA10
:1044900080BD00000000000080B545F24400C2F27B
:1044A000004004F09DF880BD80B545F24400C2F2A2
:1044B000004004F095F880BD80B584B0ADF80E00E2
:1044C000ADF80C10ADF80A20ADF80830BDF90E209B
:1044D000BDF90C30BDF90A00BDF908C06946C1F844
:1044E00004C0086045F2D440C2F200004FF40071ED
:1044F00000F0CAFA04B080BD80B584B0ADF80E00FB
:10450000ADF80C10ADF80A20ADF80830BDF90E205A
:10451000BDF90C30BDF90A00BDF908C06946C1F803
:1045200004C0086045F2D440C2F2000040F2FF111E
:1045300000F0AAFA04B080BD80B545F2D440C2F2C2
:104540000000022100F010FA80BD00000000000011
:1045500080B545F2D440C2F2000004F041F880BDBD
:1045600080B545F2D440C2F2000004F039F880BDB5
:1045700080B584B0ADF80E00ADF80C10ADF80A208F
:10458000ADF80830BDF90E20BDF90C30BDF90A00B8
:10459000BDF908C06946C1F804C0086045F2E400EE
:1045A000C2F200404FF4007100F06EFA04B080BD1A
:1045B00080B545F2E400C2F20040022100F0D4F9D7
:1045C00080BD00000000000080B545F2E400C2F2AA
:1045D000004004F005F880BD80B545F2E400C2F269
:1045E000004003F0FDFF80BD84B002900298406B54
:1045F000009002980068D0F884004FF6FC71884360
:10460000009940EA810002990968C1F88400029883
:104610000068D0F8840020F47F00029A1168926B41
:1046200040EA0240C1F884000298816B0098084477
:10463000009002980068D0F888006FF38F0000990E
:1046400040EA810002990968C1F888000298006870
:10465000D0F8880020F4FE00029A1168D26B40EA7C
:104660000240C1F888000298C16B009800EB41003D
:10467000009002980068D0F8A0006FF38F000099B6
:1046800040EA810002990968C1F8A0000298006818
:10469000D0F8A00020F4FE00029A1168126C40EAE3
:1046A0000240C1F8A0000299086C496C009A00FB16
:1046B0000120009002980068D0F8B0006FF38F00DE
:1046C000009940EA810002990968C1F8B000029897
:1046D0000068D0F8B00020F4FE00029A1168926CD5
:1046E00040EA0240C1F8B0000299886CC96C009A97
:1046F00000FB0120009002980068D0F8AC006FF336
:104700008F00009940EA810002990968C1F8AC0065
:104710000299086D496D009A00FB012000900298F3
:104720000068D0F8F0006FF38F00009940EA810034
:1047300002990968C1F8F00002980068D0F8F0000A
:1047400020F47C10029A1168926D40EA0240C1F890
:10475000F0000298816D009800EB410000900298F3
:104760000068D0F8C0006FF38F00009940EA810024
:1047700002990968C1F8C00002980068D0F8C0002A
:1047800020F47C10029A1168D26D40EA0240C1F810
:10479000C00002980068D0F8C00020F07C50029A57
:1047A0001168126E40EA0260C1F8C00002994A6BBB
:1047B0004AF60040C4F2000000EB8200C86602998D
:1047C0008A6BC86E00EB820008670299CA6B086F9B
:1047D00000EBC200486702990A6C4B6C486F5A4361
:1047E00000EB8200886702998A6CCB6C886F5A4311
:1047F00000EB8200C86702990A6D4B6DC86F5A437F
:1048000000EB8200C1F8800002998A6DD1F8800027
:1048100000EBC200C1F884000299CA6D8B6ED1F81A
:1048200084005A4300EB8200C1F8880002990A6EA6
:104830008B6ED1F888005A4300EB8200C1F89000DB
:104840000298D0F890004DF2FD31C4F20001884288
:104850000FD3FFE70299D1F89C0040F02000C1F887
:104860009C000299032081F8980001208DF80F0028
:1048700017E00298C06E0190FFE701980299D1F805
:104880009010884208D2FFE7019900200860FFE7F6
:10489000019804300190F0E7FFE700208DF80F0049
:1048A000FFE79DF80F0004B0704700000000000013
:1048B00088B007900691059204930698406848B91D
:1048C000FFE70698016882680069104340EA81406A
:1048D000039009E006980168826800691043084364
:1048E00040F080400390FFE70698D0F820C0C168F0
:1048F00042698369C06940EA0C601843104340EA8A
:10490000014002900798826ED0F8840004995143C8
:1049100000EB810001900398019908600198043030
:1049200001900298019908600198043001900020DC
:104930000090FFE700980699CA6840F66421C0F627
:104940000201895C88420DD2FFE705980099405822
:1049500001990860019804300190FFE70098043045
:104960000090E7E708B0704780B58CB00B900A91D3
:1049700000200190099008900790069005900490FF
:104980000390029002900390022004900A980590F0
:104990004FF4007006904FF4FE6007900B9802A948
:1049A00003F0DEFB18B1FFE7FFF72EFDFFE70CB0C9
:1049B00080BD00000000000080B545F24400C2F256
:1049C000004000F0D5F845F2D440C2F2000000F0FB
:1049D000CFF845F2E400C2F2004000F0C9F880BD13
:1049E00080B590B00F900E910D92FFE70F980E9941
:1049F00003F04EFC002843D0FFE70F980E9903AA5E
:104A000001AB03F061FC08B1FFE739E0049850B94D
:104A1000FFE70398B0F5007F05D9FFE70398B0F5ED
:104A2000027F01D9FFE7E1E70398A0F2012000909F
:104A30000D980099C1EBC10100EB8101886901303B
:104A400088610D980099C1EBC10100EB810080697C
:104A500032280AD8FFE70D980099C1EBC10100EB9D
:104A6000810001A919F048F909E00D980099C1EBFE
:104A7000C10100EB810001A919F0F2F8FFE7B5E7E9
:104A800010B080BD0000000010B592B08C46864684
:104A900015981499CDF840E0ADF83EC0ADF83C2033
:104AA000ADF83A30ADF83810ADF83600109820B9AE
:104AB000FFE700208DF8470054E0109803F080FDD8
:104AC00020B9FFE700208DF847004BE0BDF83E001D
:104AD0000490002005900690082107910890099005
:104AE0000A900B900C90BDF83C00ADF80600BDF8A4
:104AF0003A00ADF80400BDF83800ADF80200BDF88A
:104B00003600ADF800009DF807008DF80800BDF8EC
:104B100006008DF809009DF805008DF80A00BDF823
:104B200004008DF80B009DF803008DF80C00BDF813
:104B300002008DF80D009DF801008DF80E00BDF803
:104B400000008DF80F00109804A902AA03F098FA4B
:104B500020B1FFE700208DF8470003E001208DF829
:104B60004700FFE79DF8470012B010BD00000000AD
:104B700080B582B0019000200090019808B9FFE74D
:104B800031E0019804F0ACFB18B1FFE7FFF73CFC03
:104B9000FFE7019845F24401C2F20041884203D187
:104BA000FFE70120009014E0019845F2D441C2F2E1
:104BB0000001884208D0FFE7019845F2E401C2F203
:104BC0000041884203D1FFE71020009000E00AE096
:104BD000FFE701980099002203F0D2F918B1FFE72E
:104BE000FFF712FCFFE702B080BD000000000000EC
:104BF00081B08DED000AFFE79DED000A9FED141ACC
:104C0000B4EE410AF1EE10FA09DDFFE79DED000A6E
:104C10009FED121A30EE010A8DED000AECE7FFE776
:104C20009DED000A9FED0B1AB4EE410AF1EE10FA69
:104C300009DAFFE79DED000A9FED071A30EE010A41
:104C40008DED000AECE79DED000A01B0704700BF52
:104C500000003443000034C30000B4430000B4C378
:104C600080B584B04EF60000C1F6F1700068039084
:104C70004EF60400C1F6F170006802904EF608008E
:104C8000C1F6F170006801900199039808440390FF
:104C9000039888B1FFE7039840F24001C2F2000197
:104CA0000091023108220BF03FFE00990298123168
:104CB00004220BF039FEFFE704B080BD00000000C5
:104CC00080B540F60000C5F602004FF460410122B5
:104CD00004F046FD80BD000080B58AB0089004F065
:104CE00057FD0490089828B9FFE701208DF82700A8
:104CF00000F0AABC089890F8350002280ED0FFE713
:104D0000089980204865FFE70899002081F8340061
:104D1000FFE701208DF8270000F096BC0898016895
:104D200001201022C4F202029142039000F0A380FD
:104D3000FFE70898016801202822C4F2020291428C
:104D4000039000F09880FFE7089801680120402256
:104D5000C4F202029142039000F08D80FFE70898B0
:104D6000016801205822C4F202029142039000F02F
:104D70008280FFE70898016801207022C4F20202D5
:104D80009142039077D0FFE70898016801208822BC
:104D9000C4F20202914203906DD0FFE708980168C7
:104DA0000120A022C4F202029142039063D0FFE7E7
:104DB000089801680120B822C4F2020291420390CF
:104DC00059D0FFE708980168012040F21042C4F270
:104DD0000202914203904ED0FFE70898016801203B
:104DE00040F22842C4F202029142039043D0FFE70E
:104DF00008980168012040F24042C4F20202914248
:104E0000039038D0FFE708980168012040F258422B
:104E1000C4F20202914203902DD0FFE70898016886
:104E2000012040F27042C4F202029142039022D06B
:104E3000FFE708980168012040F28842C4F20202AC
:104E40009142039017D0FFE708980168012040F2D3
:104E5000A042C4F20202914203900CD0FFE70898EE
:104E600000684FF64831CBF6FD710844B0FA80F087
:104E700040090390FFE70398C00780B1FFE7089857
:104E80000168086820F01E000860089801684869F9
:104E900020F08000486108980068059009E00898B3
:104EA0000168086820F00E00086008980068059006
:104EB000FFE70898016801201022C4F20202914223
:104EC000029000F00381FFE7089801680120282282
:104ED000C4F202029142029000F0F880FFE70898C5
:104EE000016801204022C4F202029142029000F0C7
:104EF000ED80FFE70898016801205822C4F2020201
:104F00009142029000F0E280FFE7089801680120DA
:104F10007022C4F202029142029000F0D780FFE7B3
:104F20000898016801208822C4F20202914202908E
:104F300000F0CC80FFE7089801680120A022C4F2AD
:104F400002029142029000F0C180FFE708980168D8
:104F50000120B822C4F202029142029000F0B68011
:104F6000FFE708980168012040F21042C4F20202F3
:104F70009142029000F0AA80FFE7089801680120A2
:104F800040F22842C4F202029142029000F09E8058
:104F9000FFE708980168012040F24042C4F2020293
:104FA0009142029000F09280FFE70898016801208A
:104FB00040F25842C4F202029142029000F0868010
:104FC000FFE708980168012040F27042C4F2020233
:104FD000914202907AD0FFE708980168012040F2E0
:104FE0008842C4F20202914202906FD0FFE7089813
:104FF0000168012040F2A042C4F2020291420290F4
:1050000064D0FFE708980168012040F2B842C4F27A
:1050100002029142029059D0FFE7089801680120EE
:1050200045F20842C5F60202914202904ED0FFE7D7
:1050300008980168012045F21C42C5F6020291421F
:10504000029043D0FFE708980168012045F2304202
:10505000C5F602029142029038D0FFE70898016835
:10506000012045F24442C5F60202914202902DD041
:10507000FFE708980168012045F25842C5F6020290
:105080009142029022D0FFE708980168012045F282
:105090006C42C5F602029142029017D0FFE70898D1
:1050A0000168012045F28042C5F602029142029059
:1050B0000CD0FFE7089800684AF66C31CAF2FD711F
:1050C0000844B0FA80F040090290FFE70298C00758
:1050D00038B1FFE70898016E086820F48070086016
:1050E000FFE7089800681021C4F20201884200F02E
:1050F0008180FFE7089800682821C4F202018842F5
:1051000078D0FFE7089800684021C4F20201884285
:1051100070D0FFE7089800685821C4F20201884265
:1051200068D0FFE7089800687021C4F20201884245
:1051300060D0FFE7089800688821C4F20201884225
:1051400058D0FFE708980068A021C4F20201884205
:1051500050D0FFE708980068B821C4F202018842E5
:1051600048D0FFE70898006840F21041C4F20201FD
:1051700088423FD0FFE70898006840F22841C4F217
:105180000201884236D0FFE70898006840F24041AB
:10519000C4F2020188422DD0FFE70898006840F26F
:1051A0005841C4F20201884224D0FFE70898006801
:1051B00040F27041C4F2020188421BD0FFE7089818
:1051C000006840F28841C4F20201884212D0FFE731
:1051D0000898006840F2A041C4F20201884209D058
:1051E000FFE70898006840F2B841C4F20201884223
:1051F00007D1FFE708980168086820F001000860FF
:1052000006E008980168086820F001000860FFE7E0
:10521000FFE705980068C007C8B1FFE704F0B8FAD7
:105220000499401A062811D3FFE708992020486501
:105230000899032081F83500FFE70899002081F8DC
:105240003400FFE701208DF82700FDE1E1E7089831
:10525000016801201022C4F202029142019000F084
:10526000A380FFE70898016801202822C4F2020207
:105270009142019000F09880FFE7089801680120B2
:105280004022C4F202029142019000F08D80FFE7BB
:105290000898016801205822C4F20202914201904C
:1052A00000F08280FFE70898016801207022C4F2B4
:1052B00002029142019077D0FFE70898016801202F
:1052C0008822C4F20202914201906DD0FFE7089853
:1052D00001680120A022C4F202029142019063D031
:1052E000FFE7089801680120B822C4F20202914247
:1052F000019059D0FFE708980168012040F2104260
:10530000C4F20202914201904ED0FFE70898016872
:10531000012040F22842C4F202029142019043D09F
:10532000FFE708980168012040F24042C4F20202FF
:105330009142019038D0FFE708980168012040F2BF
:105340005842C4F20202914201902DD0FFE7089822
:105350000168012040F27042C4F2020291420190C1
:1053600022D0FFE708980168012040F28842C4F289
:1053700002029142019017D0FFE7089801680120CE
:1053800040F2A042C4F20202914201900CD0FFE729
:10539000089800684FF64831CBF6FD710844B0FA22
:1053A00080F040090190FFE70198C00760B1FFE776
:1053B0000898806D07900898C06D00F01F013F208D
:1053C0008840079988600BE00898806D06900898DF
:1053D000C06D00F01F010120884006994860FFE77A
:1053E0000898016801201022C4F202029142009044
:1053F00000F00381FFE70898016801202822C4F229
:1054000002029142009000F0F880FFE708980168DE
:1054100001204022C4F202029142009000F0ED808F
:10542000FFE70898016801205822C4F20202914265
:10543000009000F0E280FFE70898016801207022E8
:10544000C4F202029142009000F0D780FFE7089872
:10545000016801208822C4F202029142009000F00B
:10546000CC80FFE7089801680120A022C4F2020264
:105470009142009000F0C180FFE708980168012088
:10548000B822C4F202029142009000F0B680FFE719
:1054900008980168012040F21042C4F202029142D1
:1054A000009000F0AA80FFE708980168012040F210
:1054B0002842C4F202029142009000F09E80FFE771
:1054C00008980168012040F24042C4F20202914271
:1054D000009000F09280FFE708980168012040F2F8
:1054E0005842C4F202029142009000F08680FFE729
:1054F00008980168012040F27042C4F20202914211
:1055000000907AD0FFE708980168012040F28842B5
:10551000C4F20202914200906FD0FFE70898016840
:10552000012040F2A042C4F202029142009064D0F5
:10553000FFE708980168012040F2B842C4F2020275
:105540009142009059D0FFE708980168012045F288
:105550000842C5F60202914200904ED0FFE708983B
:105560000168012045F21C42C5F6020291420090FA
:1055700043D0FFE708980168012045F23042C5F6A4
:1055800002029142009038D0FFE70898016801209C
:1055900045F24442C5F60202914200902DD0FFE749
:1055A00008980168012045F25842C5F6020291426E
:1055B000009022D0FFE708980168012045F26C4274
:1055C000C5F602029142009017D0FFE708980168E3
:1055D000012045F28042C5F60202914200900CD0B3
:1055E000FFE7089800684AF66C31CAF2FD7108447A
:1055F000B0FA80F040090090FFE70098C007A0B122
:10560000FFE70898416E806E48600898C06E58B1F8
:10561000FFE70898C16E086820F480700860089859
:10562000016F406F4860FFE7FFE70899012081F8AC
:105630003500FFE70899002081F83400FFE7FFE715
:1056400000208DF82700FFE79DF827000AB080BDF5
:1056500080B586B00490049820B9FFE701208DF84A
:10566000170046E3049890F83500022807D0FFE7BA
:1056700004998020486501208DF8170039E30498CB
:10568000016801201022C4F202029142029000F04F
:10569000A380FFE70498016801202822C4F20202D7
:1056A0009142029000F09880FFE704980168012081
:1056B0004022C4F202029142029000F08D80FFE786
:1056C0000498016801205822C4F20202914202901B
:1056D00000F08280FFE70498016801207022C4F284
:1056E00002029142029077D0FFE7049801680120FE
:1056F0008822C4F20202914202906DD0FFE7049822
:1057000001680120A022C4F202029142029063D0FB
:10571000FFE7049801680120B822C4F20202914216
:10572000029059D0FFE704980168012040F210422E
:10573000C4F20202914202904ED0FFE70498016841
:10574000012040F22842C4F202029142029043D06A
:10575000FFE704980168012040F24042C4F20202CF
:105760009142029038D0FFE704980168012040F28E
:105770005842C4F20202914202902DD0FFE70498F1
:105780000168012040F27042C4F20202914202908C
:1057900022D0FFE704980168012040F28842C4F259
:1057A00002029142029017D0FFE70498016801209D
:1057B00040F2A042C4F20202914202900CD0FFE7F4
:1057C000049800684FF64831CBF6FD710844B0FAF2
:1057D00080F040090290FFE70298C007002800F01F
:1057E0009D80FFE70499042081F835000498006843
:1057F0001021C4F20201884200F08180FFE7049882
:1058000000682821C4F20201884278D0FFE704989A
:1058100000684021C4F20201884270D0FFE704987A
:1058200000685821C4F20201884268D0FFE704985A
:1058300000687021C4F20201884260D0FFE704983A
:1058400000688821C4F20201884258D0FFE704981A
:105850000068A021C4F20201884250D0FFE70498FA
:105860000068B821C4F20201884248D0FFE70498DA
:10587000006840F21041C4F2020188423FD0FFE7C5
:105880000498006840F22841C4F20201884236D0F0
:10589000FFE70498006840F24041C4F202018842E8
:1058A0002DD0FFE70498006840F25841C4F202018D
:1058B000884224D0FFE70498006840F27041C4F2A7
:1058C000020188421BD0FFE70498006840F288413B
:1058D000C4F20201884212D0FFE70498006840F247
:1058E000A041C4F20201884209D0FFE70498006891
:1058F00040F2B841C4F20201884207D1FFE70498A0
:105900000168086820F00100086006E0049801685A
:10591000086820F001000860FFE7E5E104980168ED
:10592000086820F00E000860049800681021C4F296
:105930000201884200F08180FFE704980068282176
:10594000C4F20201884278D0FFE704980068402141
:10595000C4F20201884270D0FFE704980068582121
:10596000C4F20201884268D0FFE704980068702101
:10597000C4F20201884260D0FFE7049800688821E1
:10598000C4F20201884258D0FFE704980068A021C1
:10599000C4F20201884250D0FFE704980068B821A1
:1059A000C4F20201884248D0FFE70498006840F240
:1059B0001041C4F2020188423FD0FFE7049800681A
:1059C00040F22841C4F20201884236D0FFE7049831
:1059D000006840F24041C4F2020188422DD0FFE746
:1059E0000498006840F25841C4F20201884224D071
:1059F000FFE70498006840F27041C4F20201884257
:105A00001BD0FFE70498006840F28841C4F202010D
:105A1000884212D0FFE70498006840F2A041C4F227
:105A20000201884209D0FFE70498006840F2B841BB
:105A3000C4F20201884207D1FFE7049801680868B0
:105A400020F00100086006E004980168086820F072
:105A500001000860FFE70498016801201022C4F2E9
:105A600002029142019000F00381FFE7049801686F
:105A700001202822C4F202029142019000F0F88035
:105A8000FFE70498016801204022C4F2020291421B
:105A9000019000F0ED80FFE7049801680120582292
:105AA000C4F202029142019000F0E280FFE7049804
:105AB000016801207022C4F202029142019000F0BC
:105AC000D780FFE70498016801208822C4F202020F
:105AD0009142019000F0CC80FFE70498016801201A
