:020000040800F2
:1000000010A80024DD030008E12D010881FF00088D
:10001000792D0108311A0008F11D020800000000C6
:10002000000000000000000000000000B18901088D
:100030006941000800000000613E0108619E01085E
:10004000FB030008FB030008FB030008FB03000898
:10005000FB030008FB030008FB030008FB03000888
:10006000FB030008FB030008FB030008D92B000872
:10007000FB030008FB030008FB030008FB03000868
:10008000FB030008FB030008FB030008F144000821
:10009000A945000801450008B9450008FB03000810
:1000A000FB030008FB030008FB030008FB03000838
:1000B000D9A00108E9A00108FB030008FB03000820
:1000C000FB030008FB030008FB030008FB03000818
:1000D000FB03000889D90108FB030008FB030008A3
:1000E000FB030008FB03000800000000FB030008FE
:1000F000FB030008FB030008FB030008FB030008E8
:10010000FB030008FB030008F9A00108FB0300083B
:10011000FB030008FB030008FB030008FB030008C7
:10012000FB030008FB030008FB030008FB030008B7
:10013000FB030008FB030008FB030008FB030008A7
:1001400000000000000000000000000000000000AF
:10015000FB030008FB030008FB030008FB03000887
:10016000FB030008FB030008FB030008FB03000877
:10017000FB030008C92F0108FB0300080000000072
:10018000FB030008FB03000849BB010859BB010839
:10019000FB030008FB030008FB030008FB03000847
:1001A000FB030008FB030008FB030008000000003D
:1001B000FB030008FB030008FB030008FB03000827
:1001C000FB030008FB030008000000000000000023
:1001D0000000000000000000FB0300080000000019
:1001E000000000000000000000000000000000000F
:1001F0000000000000000000FB030008FB030008F3
:10020000FB030008FB03000800000000FB030008DC
:10021000FB030008FB030008FB030008FB030008C6
:10022000FB03000800000000FB03000800000000C2
:10023000FB030008FB03000800000000FB030008AC
:10024000FB030008FB030008FB030008FB03000896
:10025000FB030008FB030008FB030008FB03000886
:10026000FB030008FB030008FB030008FB03000876
:10027000FB030008FB030008FB030008000000006C
:10028000FB030008FB030008FB030008FB03000856
:1002900000000000FB030008FB0300080000000052
:1002A00000000000FB030008FB03000869BB010815
:1002B00079D90108FB030008FB030008C9450008C1
:1002C000D9450008FB030008FB03000800F002F812
:1002D00000F074F814A696E8000CB244B344DA4572
:1002E00001D100F06BF8BAE80F000FA696E83000D5
:1002F000A5EB040504EB0607AAEB0704A7F1010729
:100300004FEA15154FEA3414A4F10104AC4201D3AD
:1003100000F054F813F0010F18BFFB1A43F001036B
:1003200000F001F8DBE71847DC6B02001C6C0200F0
:100330000A444FF0000C10F8013B13F0070408BF0B
:1003400010F8014B1D1108BF10F8015B641E05D0A9
:1003500010F8016B641E01F8016BF9D113F0080F5E
:100360001EBF10F8014BAD1C0C1B09D16D1E58BFF0
:1003700001F801CBFAD505E014F8016B01F8016B27
:100380006D1EF9D59142D6D370470000704700002A
:100390000023002400250026103A28BF78C1FBD88E
:1003A000520728BF30C148BF0B6070471FB525F00A
:1003B000ACFE00F073F91FBD10B510BD00F098F948
:1003C0001146FFF7F3FF23F047FA00F0B6F903B444
:1003D000FFF7F2FF03BC00F0B9F900000A488047BC
:1003E0000A4880470A480047FEE7FEE7FEE7FEE7C7
:1003F000FEE7FEE7FEE7FEE7FEE7FEE70548064903
:10040000064A074B7047000031440008719F0108FD
:10041000CD02000810A2002410A8002410A400247B
:1004200010A4002453EA020C00F069802DE9F04B7F
:100430004FF00006002B1FBFB3FA83F503FA05F453
:1004400024FA05F65E4012BF1643B2FA82F502FAAC
:1004500005F4C5F120051EBF22FA05FC44EA0C0490
:10046000203556EA044C4FEA144418BF641C4FF080
:1004700000084FF00009904271EB030C39D30029BA
:1004800019BFB1FA81F701FA07F6B0FA80F700FA5E
:1004900007F6C7F120071EBF20FA07FC46EA0C0644
:1004A0002037B6FBF4FCA7EB0507103F07F01F0B46
:1004B000CBF120062CFA06F60CFA0BFB44BFB34630
:1004C0000026202FA4BF5E464FF0000B5BEA060C0F
:1004D00008BF4FF0010B19EB0B0948EB0608ABFB0B
:1004E000027C06FB02CC0BFB03CCC01B71EB0C01A6
:1004F000C1E70B46024641464846BDE8F08B13B5BE
:10050000084318BF4FF0FF300146AFF30080BDE84D
:100510001C407047032A40F2308010F0030C00F0BA
:10052000158011F8013BBCF1020F624498BF11F82D
:1005300001CB00F8013B38BF11F8013BA2F10402E6
:1005400098BF00F801CB38BF00F8013B11F003035E
:1005500000F02580083AC0F0088051F8043B083AC2
:1005600051F804CBA0E80810F5E7121D5CBF51F864
:10057000043B40F8043BAFF30080D20724BF11F8DE
:10058000013B11F801CB48BF11F8012B24BF00F843
:10059000013B00F801CB48BF00F8012B704710B5B4
:1005A000203AC0F00B80B1E81850A0E81850B1E82C
:1005B0001850A0E81850203ABFF4F5AF5FEA027C6B
:1005C00024BFB1E81850A0E8185044BF18C918C09B
:1005D000BDE810405FEA827C24BF51F8043B40F83C
:1005E000043B08BF7047D20728BF31F8023B48BF21
:1005F00011F8012B28BF20F8023B48BF00F8012B5F
:1006000070474FF000020429C0F0128010F0030C74
:1006100000F01B80CCF1040CBCF1020F18BF00F8F5
:10062000012BA8BF20F8022BA1EB0C0100F00DB8A4
:100630005FEAC17C24BF00F8012B00F8012B48BF02
:1006400000F8012B70474FF0000200B513469446A6
:100650009646203922BFA0E80C50A0E80C50B1F11A
:100660002001BFF4F7AF090728BFA0E80C5048BF2E
:100670000CC05DF804EB890028BF40F8042B08BFCC
:10068000704748BF20F8022B11F0804F18BF00F8C8
:10069000012B7047704770477047000008487CB5D1
:1006A0007844009007487844009C0546019004E097
:1006B0002046016808448047241DAC42F8D17CBD27
:1006C000A06802009E68020010B500F009F80068FA
:1006D00010BD10B5044600F003F8046010BD000022
:1006E00000487047BC01002000487047BC01002052
:1006F0007546FFF7F9FFAE4605006946534620F000
:100700000700854618B020B5FFF778FEBDE8204009
:100710004FF000064FF000074FF000084FF0000BBD
:10072000AC46ACE8C009ACE8C009ACE8C009ACE82C
:10073000C00921F007018D46704710B50446AFF39C
:1007400000802046BDE81040FFF741BE0149182057
:10075000ABBEFEE72600020070470000000000006C
:1007600082B08DED010A9DED010AB5EE400AF1EE71
:1007700010FA07DAFFE79DED010AB1EE400A8DEDB0
:10078000000A04E09DED010A8DED000AFFE79DEDF2
:10079000000A02B07047000082B08DED010A9DEDA5
:1007A000010AB5EE400AF1EE10FA07DAFFE79DED17
:1007B000010AB1EE400A8DED000A04E09DED010A48
:1007C0008DED000AFFE79DED000A02B070470000C2
:1007D00080B582B00090009820B9FFE703208DF823
:1007E000070006E00098807C12F092FB8DF807006D
:1007F000FFE79DF8070002B080BD00000000000088
:1008000080B58AB08DED061ACDED050A8DED040A8E
:10081000CDED032A8DED022ACDED011A9DED040ADE
:100820009DED053A9DED061A9DED015A9DED024A9A
:100830009DED032A30EE050A73EE040A31EE021A2A
:1008400021F0DAFA8DED070ACDED080A8DED091ACF
:100850009DED070ADDED080A9DED091A0AB080BD7D
:1008600080B586B003AA01920246019805928DF8E0
:10087000131080ED000A00208DF80B00FFE79DF8B3
:100880000B00032825D8FFE79DF813009DF80B10F7
:10089000C840C00708B9FFE715E0019805999DF821
:1008A0000B2001EB820191ED170A90ED001A30EE5A
:1008B000010A01F0F5FD05989DF80B1000EB810091
:1008C00080ED110AFFE79DF80B0001308DF80B0059
:1008D000D5E706B080BD000083B002900191029878
:1008E00045F21451C2F2004188423DD1FFE7019820
:1008F000D0B3FFE70198006844F6B061C2F200414E
:10090000009108600198406848600198806888609C
:100910000198C068C8600198006908610198406941
:1009200048610198806988610198C069C86101982F
:10093000006A08620198406A48620198806A886289
:100940000198C06AC8620198006B08630198406B07
:100950004863019890F8380081F83800019890F8C1
:10096000390081F83900FFE703B07047000000004C
:1009700080B582B00190019800F04EF80090009888
:1009800008B9FFE70FE00099C8680130C860009817
:1009900000F09AF80198009900F072F80198009917
:1009A000FFF79AFFFFE702B080BD000000000000E3
:1009B00080B584B003908DF80B108DF80A20039851
:1009C00000F02AF80190019808B9FFE722E09DF8AD
:1009D0000B0028B1FFE701990868013008600DE0BD
:1009E00001994868013048609DF80A0028B1FFE786
:1009F0000199886801308860FFE7FFE7019800F0FF
:100A000063F80398019900F03BF803980199FFF708
:100A100063FFFFE704B080BD82B00090009845F20C
:100A20007441C2F20041884206D1FFE744F6EC600F
:100A3000C2F20040019020E0009845F64401C2F265
:100A40000001884207D1FFE744F6EC60C2F20040A3
:100A50003C30019011E0009845F21451C2F200417F
:100A6000884207D1FFE744F6EC60C2F200407830DC
:100A7000019002E000200190FFE7019802B070476A
:100A800080B58EB00D900C910D9818B1FFE70C98C1
:100A900008B9FFE713E00D9807F062FF0C9948636F
:100AA0000D9801A907F064FF48B9FFE701980C9978
:100AB00081F8380003980C9981F83900FFE70EB0EF
:100AC00080BD00000000000080B584B00390039852
:100AD00008B9FFE767E009F00FFA02900398006A8F
:100AE000A0B9FFE702980399086203980068039988
:100AF0004862039840680399886203988068039964
:100B0000C8620398C068039908634CE0029803998F
:100B1000096A401A01900198C0087C2801D8FFE7B3
:100B200041E0039800680399496A401A4FF47A71CA
:100B30004843019AB0FBF2F0039A106103984068B1
:100B4000039A926A801A4843019AB0FBF2F0039A22
:100B5000506103988068039AD26A801A4843019AC8
:100B6000B0FBF2F0039A90610398C068039A126B8D
:100B7000801A48430199B0FBF1F00399C8610298CB
:100B800003990862039800680399486203984068D3
:100B900003998862039880680399C8620398C068C3
:100BA00003990863FFE704B080BD00000000000067
:100BB00082B00090009820B9FFE7FF208DF8070071
:100BC0002AE00098006841F20001C4F20101884265
:100BD00004D1FFE700208DF807001DE000980068B1
:100BE00047F60041C4F20001884204D1FFE701202A
:100BF0008DF8070010E00098006841F60001C4F28B
:100C00000101884204D1FFE702208DF8070003E0CC
:100C1000FF208DF80700FFE79DF8070002B070473E
:100C200080B582B08DF803009DF8030000F014F841
:100C300018B9FFE70020019009E09DF8031045F680
:100C40003470C2F2004000EB41100190FFE70198C0
:100C500002B080BD0000000081B08DF803009DF857
:100C600003100020032938BF012001B070470000A5
:100C700080B584B08DF80E009DF80E00FFF7ECFFF4
:100C800020B9FFE701208DF80F0026E09DF80E1037
:100C900046F2D470C0F6020050F8210002909DF890
:100CA0000E0045F63471C2F2004101EB40124301DF
:100CB00000200190C850D061906150611061D060F7
:100CC0009060506002989DF80E2001EB42112022A6
:100CD0000DF0E6FF8DF80F00FFE79DF80F0004B060
:100CE00080BD00000000000080B584B08DF80E00CB
:100CF0000291ADF8062000939DF80E00FFF7ACFFBF
:100D000038B1FFE7029820B1FFE7BDF8060020B92F
:100D1000FFE701208DF80F0010E09DF80E1046F25D
:100D2000D470C0F6020050F821000299BDF80620E8
:100D3000009B0FF085F88DF80F00FFE79DF80F007E
:100D400004B080BD0000000080B59CB00DF1240C03
:100D5000CDF81CC01A9019911892179344F60C60A4
:100D6000C2F20000007808B9FFE7EAE0EFF3108074
:100D700072B61B9044F6E451C2F200010DA828227D
:100D8000FFF7C8FB44F60C61C2F2000100200870B6
:100D900062B6FF218DF833108DF82300FFE79DF830
:100DA0002300072813D8FFE79DF823100DA8405C07
:100DB000012805D1FFE79DF823008DF8330006E0F8
:100DC000FFE79DF8230001308DF82300E7E79DF849
:100DD0003D0044F28D51C2F20001069108709DF869
:100DE000410044F66E61C2F20041029108709DF824
:100DF000420044F60D61C2F20001039108709DF8B3
:100E0000430044F66D61C2F20041049108700DA8E0
:100E10000190103023F0C8FA0198079981ED020A79
:100E2000143023F0C1FA0198079981ED010A1830B6
:100E300023F0BAFA0799029B039A0498DDF818C0C8
:100E400081ED000A9DF833E044F67061C2F2004182
:100E5000059181F800E0DDF82CE0C1F804E0DDF850
:100E600028E0C1F808E0DDF824E0C1F80CE09CF8C7
:100E700000C081F810C01B784B7412788A74007817
:100E8000C8749DF83C0008759DF83E0048759DF8B3
:100E90003F0088759DF84000C875886901308861F9
:100EA00009F02AF8059A0146069811620121117786
:100EB000002182F82C1046F64C12C2F2000211708A
:100EC00000780138B0FA80F0400901F079FC40F276
:100ED0002800C2F200400078012825D1FFE70798DA
:100EE0009DF8331090ED020AD0ED010A90ED001A42
:100EF00045F2BC20C2F2004013F05AFA44F66E608C
:100F0000C2F20040017844F60D60C2F2000002789F
:100F100044F66D60C2F20040037845F2B410C2F2AC
:100F2000004013F075FD0CE045F2BC20C2F2004019
:100F300015F012F945F2B410C2F2004013F0D4FDDE
:100F4000FFE71CB080BD000080B584B003908DF831
:100F50000B109DF80B0019F047FE8DF80A009DF864
:100F60000A0001F0C9FA039801F03AF903980190D8
:100F70009DF80B0019F06CFE01989DF80A1018F00E
:100F800097FD04B080BD000080B588B00790069141
:100F90008DF817200493079808B9FFE720E2079817
:100FA000407B90B1FFE707989DF8171018F0C4FE3A
:100FB00058B9FFE7069820B1FFE7069815F0CCF87E
:100FC000FFE7079900204873FFE79DF8170007998E
:100FD0000870079900200290C8700499079A51611F
:100FE000079908730799C872079948730799087495
:100FF0000799C861079948740799086207980321FF
:1010000018F036FD9DF81700182814D1FFE70F20BF
:1010100001F09AFA0798BBEE0E0A18F005FD079842
:1010200001F0DEF807989FEDD30A18F035FD079818
:1010300020F0C6FDD4E19DF817001A2844D1FFE73F
:101040000798BBEE0E0A18F0EFFC079801F0C8F8FD
:1010500007989FEDC80A18F01FFD069820B1FFE71A
:10106000069815F079F8FFE720F026FD40BBFFE772
:10107000069860B9FFE70799087940F00400087105
:1010800007990020887007991720087017E00698C4
:1010900014F032FE0698002114F042FF0698DFEDAE
:1010A000D40A9FEDD01AB0EE410A14F0D5FF07998B
:1010B000012048730798049920F01EFDFFE7FFE721
:1010C000079820F07DFD8BE19DF817001B2844D187
:1010D000FFE70798BBEE0E0A18F0A6FC079801F090
:1010E0007FF807989FEDBF0A18F0D6FC069820B14C
:1010F000FFE7069815F030F8FFE703F0B1F840BBC2
:10110000FFE7069860B9FFE70799087940F0040007
:10111000087107990020887007991720087017E058
:10112000069814F0E9FD0698002114F0F9FE0698DF
:10113000DFEDAF0A9FEDAB1AB0EE410A14F08CFF61
:101140000799012048730798049903F025F8FFE7F1
:10115000FFE7079820F034FD42E19DF817001C28B6
:1011600046D1FFE70798BBEE0E0A18F05DFC079822
:1011700001F036F807989FED9B0A18F08DFC069851
:1011800060B9FFE70799087940F0040008710799F2
:101190000020887007991720087025E0069814F041
:1011A000DBFF069814F0A8FD0698042114F0B8FEA1
:1011B0000698DFED8E0A9FED8B1AB0EE410A14F00F
:1011C000ABFD20B9FFE70799012048730BE00799B1
:1011D000087940F004000871079900208870079989
:1011E00017200870FFE7FFE7079820F0E9FCF7E019
:1011F0009DF81700192846D1FFE70798BBEE0E0AA5
:1012000018F012FC079800F0EBFF07989FED750AA5
:1012100018F042FC069860B9FFE70799087940F09A
:10122000040008710799002088700799172008703A
:1012300025E0069814F090FF069814F05DFD0698DE
:10124000042114F06DFE0698DFED670A9FED651A24
:10125000B0EE410A14F060FD20B9FFE707990120C4
:1012600048730BE00799087940F00400087107996A
:1012700000208870079917200870FFE7FFE707989C
:1012800020F09EFCACE09DF81700002800F088805C
:10129000FFE79DF817000190079801F0C1FB014698
:1012A000019888427CD8FFE7079801F0CDFB9DF8B4
:1012B000171000EB411020380390079803998979A3
:1012C00018F0D6FB0798039991ED020AD1ED030AB5
:1012D00091ED041AD1ED051A18F016FC0398007967
:1012E00028B9FFE70398407901F02EF954E00398FC
:1012F000007901280FD1FFE70398807901F0FCF80D
:10130000079800F06DFF0798039991ED060A897917
:1013100018F0CEFB3FE00398007902283AD1FFE7AE
:10132000069860B9FFE70799087940F00400087152
:1013300007990020887007991720087029E00698FF
:1013400014F00AFF069814F0D7FC0698042114F054
:10135000E7FD06980399D1ED060A9FED221AB0EE3B
:10136000410A14F0D9FC38B9FFE707990120487306
:101370000EE000BF000000000799087940F004006B
:101380000871079900208870079917200870FFE7F7
:10139000FFE7FFE7FFE7FFE7079820F011FC1FE0FA
:1013A0009DF81700162817D1FFE7079900208870CD
:1013B00007990120C8700798BBEE0E0A18F034FB9D
:1013C000079800F00DFF07989FED060A18F064FBE0
:1013D000079820F0F5FB03E0079820F0F1FBFFE70A
:1013E00008B080BD000000008FC2F53C0AD7A33BC7
:1013F0000AD7A33D0000000080B58CB00B900A9185
:101400008DF8272008930B9808B9FFE781E10B9826
:1014100020F0D6FB0B98407B58B1FFE70A9820B12B
:10142000FFE70A9814F098FEFFE70B990020487335
:10143000FFE70B98012141700B9A002090700B9AE6
:10144000D0710B9A10720B9A10700B9AD070089A88
:101450000B9B5A619DF827200B9BDA720B9A117334
:101460000B9948730B9908719DF8270001380146C4
:101470000691252800F23B810699DFE811F026004D
:101480002F003A004500450045004B006600710002
:101490007C007C007C00FE00190124012F01450026
:1014A000450045007C007C007C0054005D00070185
:1014B0001001450045004500450045004500450038
:1014C000450045004500450045000F2001F03CF86F
:1014D0000B989FED920A18F0A7FA16E10F200590DD
:1014E00001F032F805990B98B2EE040AFFF7B8F94B
:1014F0000BE10F20049001F027F804990B98BAEE45
:10150000040AFFF7ADF900E10B989DF82710FFF7EB
:101510001BFDFAE0092001F017F80B989FED7E0AF9
:1015200018F0DEFAF1E0092001F00EF80B989FEDBB
:101530007B0A18F0D5FAE8E0092001F005F80B98CD
:10154000BBEE0E0A18F0CCFADFE00920039000F0A1
:10155000FBFF03990B98B2EE040AFFF781F9D4E080
:101560000920029000F0F0FF02990B98BAEE040AED
:10157000FFF776F9C9E0002007900A9860B9FFE705
:101580000B99087940F0040008710B99002008734A
:101590000B9917200870B8E00A9814F0DDFD0A983E
:1015A00014F0AAFB0A98042114F0BAFC9DF8270055
:1015B0000A2806D1FFE74CF6CD40C3F6CC50079081
:1015C0003BE09DF827000B2806D1FFE74CF6CD4005
:1015D000C3F64C5007902FE09DF827000C2806D149
:1015E000FFE74CF6CD40CBF64C50079023E09DF83A
:1015F0002700142806D1FFE74CF6CD40CBF6CC509F
:10160000079017E09DF82700152806D1FFE749F657
:101610009A10C3F6996007900BE09DF827001628F2
:1016200006D1FFE749F69A10CBF699600790FFE7DD
:10163000FFE7FFE7FFE7FFE7FFE70A98DDED070AAF
:101640009FED351AB0EE410A14F066FB20B9FFE7B2
:101650000B9901204873FFE70B98407B60B9FFE7C7
:101660000B99087940F0040008710B990020087369
:101670000B9917200870FFE747E0062000F064FF91
:101680000B989FED250A18F06BFA3EE0062000F05B
:101690005BFF0B989FED210A18F062FA35E00620F7
:1016A00000F052FF0B98BBEE0E0A18F059FA2CE02E
:1016B0000620019000F048FF01990B98B2EE040A51
:1016C000FFF7CEF821E00620009000F03DFF0099E2
:1016D0000B98BAEE040AFFF7C3F816E00F2000F0EB
:1016E00033FF0B989FED0C0A18F09EF90DE00B9953
:1016F000087940F0040008710B99002008730B99D9
:10170000C8720B9917200870FFE70B9820F058FA61
:10171000FFE70CB080BD00BF0000000000005C438C
:1017200080B586B005908DF813100392029302984D
:1017300008B9FFE779E10298AC21FEF784FF9DF834
:1017400013000299087002980021009181710846E7
:1017500018F01AFA0299886112F07EFB014600988F
:10176000029A9172029A4FF24911C4F2E741D1658F
:10177000029A45F6B401C4F2B74111668DF807002C
:10178000FFE79DF80700032813D8FFE79DF807201F
:1017900046F2E070C0F6020050F82200029901EB18
:1017A00082014866FFE79DF8070001308DF80700C9
:1017B000E7E700208DF80700FFE79DF80700012804
:1017C00013D8FFE79DF8072046F2CC70C0F6020060
:1017D00050F82200029901EB82014867FFE79DF86B
:1017E000070001308DF80700E7E7039800284BD089
:1017F000FFE700208DF80700FFE79DF807000328AA
:1018000015D8FFE703989DF8071000EB4100B0F8EA
:101810009C0002999DF8072001EB4201A1F89C0071
:10182000FFE79DF8070001308DF80700E5E700208D
:101830008DF80700FFE79DF80700012823D8FFE790
:1018400003989DF8071000EB4100B0F8A40002993E
:101850009DF8072001EB4201A1F8A40003989DF830
:10186000071000EB4100B0F8A80002999DF807208E
:1018700001EB4201A1F8A800FFE79DF80700013045
:101880008DF80700D7E7FFE7059808B9FFE7CCE038
:1018900005980078029948700598407802998870F8
:1018A000059880780299C8700598C07802990871E7
:1018B00005980079029948710598407902998871D4
:1018C0000598C079029908720598007A02994872C1
:1018D000059840690299C860059880690299086175
:1018E00005980178407918F04FF9029988610598B8
:1018F00012F0BAFF0299C8710598FEF769FF0299C4
:10190000C8720598007828B1FFE705980078162876
:1019100008D1FFE70598007B20B9FFE70299002076
:10192000486106E0059841698069401A029948615A
:10193000FFE700208DF80700FFE79DF80700032868
:1019400025D8FFE705989DF8072000EB8200C06DC1
:10195000029901EB8201C86105989DF8072000EB10
:101960008200406C029901EB8201C86205989DF8E3
:10197000072000EB8200406A029901EB8201C867F0
:10198000FFE79DF8070001308DF80700D5E700203C
:101990008DF80700FFE79DF80700012845D8FFE70D
:1019A00005989DF8072000EB8200C06E029901EBBC
:1019B0008201C86305989DF8072000EB8200406F04
:1019C000029901EB8201486405989DF8072000EB1D
:1019D0008200C06F029901EB8201C86405989DF8EE
:1019E000072000EB8200406D029901EB82014865FF
:1019F00005989DF8072000EB8200406B029901EBEF
:101A00008201C1F88C0005989DF8072000EB820048
:101A1000C06B029901EB8201C1F89400FFE79DF8C9
:101A2000070001308DF80700B5E706B080BD000063
:101A3000FFE7FEE70000000080B5B6B0359041F248
:101A4000883021F069FFFFE7002034903390329016
:101A500031908DF827008DF8260002208DF82500A2
:101A600046F62260C3F6D610089022F0A5FE40F29A
:101A70002800C2F200400078012821D1FFE745F29A
:101A8000BC23C2F20043D3F8FC00D3F80011D3F812
:101A90000421D3F80831349333923291319045F2D6
:101AA000B411C2F2004110A88422FEF778FD012093
:101AB0008DF827008DF8260000208DF8250028E0FD
:101AC00044F28C50C2F200000078012820D1FFE7D8
:101AD00045F2E403C2F20003D3F8FC00D3F800118E
:101AE000D3F80421D3F808313493339232913190F2
:101AF00045F23821C2F2004110A88422FEF74FFDC2
:101B000001208DF827008DF826008DF82500FFE7CD
:101B1000FFE722F07DFE9DF82700002841D0FFE777
:101B20009DED320AB1EE400A9DED081A80EE010AE1
:101B3000012012F0DDF8BDEEC00A10EE100A05908B
:101B40009DED340AB1EE400A9DED081A80EE010ABF
:101B5000022012F0CDF8BDEEC00A10EE100A069079
:101B60009DED330A9DED081A80EE010A032012F064
:101B7000BFF8BDEEC00A10EE100A07909DED310AC5
:101B80009DED081A80EE010A042012F0B1F80598C4
:101B90000699079ABDEEC00A10EE103A02F05CFCFE
:101BA00006E00023184619461A4602F055FCFFE7E6
:101BB0009DF8260028B1FFE710A80AA912F098FCAA
:101BC00075E09FED4D0A8DED030A012012F0BCF87F
:101BD000B0EE401A9DED030ABDEEC11A11EE100AD7
:101BE000ADF82800022012F0AFF8B0EE401A9DEDDB
:101BF000030ABDEEC11A11EE100AADF82A00032047
:101C000012F0A2F8B0EE401A9DED030ABDEEC11A23
:101C100011EE100AADF82C00042012F095F8B0EE89
:101C2000401A9DED030ABDEEC11A11EE100AADF87F
:101C30002E000520019012F05BF8B0EE401A9DEDE9
:101C4000030ABDEEC11A11EE100AADF830000620ED
:101C5000029012F04DF80198B0EE401A9DED030A83
:101C6000BDEEC11A11EE101AADF832100021049128
:101C7000ADF83410ADF8361012F066F80298B0EEF8
:101C8000401A9DED030ABDEEC11A11EE101AADF80F
:101C9000381012F059F80498BDEEC00A10EE101A70
:101CA000ADF83A10ADF83C00ADF83E00FFE79DF806
:101CB00025000AA912F048FEBDF93000BDF9321026
:101CC000002300931A4602F0E7FBBDF92800BDF996
:101CD0002A10BDF92C20BDF92E3002F019FC009B12
:101CE000BDF93800BDF93A101A4602F031FC012066
:101CF00021F012FEA8E600BF000000000000000076
:101D000080B586B00490039100200290049818B129
:101D1000FFE7039818B9FFE70020059027E0FFE7E9
:101D20000298039988421FD2FFE769460DF1070028
:101D3000086046F2B070C2F2000045F69471C2F23B
:101D4000004145F69872C2F200424FF4805314F0FD
:101D5000B7FF08B9FFE707E09DF807000499029A6A
:101D6000531C02938854DBE702980590FFE705981F
:101D700006B080BD0000000080B546F64400C2F207
:101D80000000006846F6A071C2F2004109684FF4F5
:101D9000805214F085FF80BD80B584B045F2F040DC
:101DA000C2F20000D0F8BC0208B9FFE77AE045F2C1
:101DB000F040C2F20000D0F8BC02039046F69C70DE
:101DC000C2F20040006808B1FFE76BE00398D0F86A
:101DD000140208B1FFE765E046F64400C2F20000D5
:101DE000006846F6A071C2F2004109684FF48052C3
:101DF00014F0D6FF0290029808B9FFE752E046F6C9
:101E00004400C2F20000006846F6A071C2F2004130
:101E1000096888420DD9FFE746F64400C2F2000087
:101E2000006846F6A071C2F200410968401A0190AC
:101E300008E046F6A070C2F200400068C0F580508D
:101E40000190FFE701980299884203D9FFE70298C1
:101E50000190FFE70198B0F5007F04D9FFE74FF448
:101E600000700190FFE746F6A070C2F200400168E2
:101E700046F6A470C2F200400144BDF8042045F2C9
:101E8000F040C2F2000000901CF082F900981CF0B3
:101E90008BFA38B9FFE7019846F69C71C2F200410F
:101EA0000860FFE704B080BD80B586B00490039160
:101EB000049818B1FFE7039820B9FFE701208DF8D7
:101EC00017003FE046F64400C2F20000006846F604
:101ED000A071C2F2004109684FF4805214F0E0FE94
:101EE000019003980199884204D9FFE700208DF8FA
:101EF000170027E000200290FFE70298039988422C
:101F00001AD2FFE704980299405C6946086046F6D9
:101F10004400C2F2000046F6A071C2F2004146F64B
:101F2000A472C2F200424FF4805314F009FFFFE79D
:101F3000029801300290E0E7FFF72EFF01208DF8B4
:101F40001700FFE79DF8170006B080BD00000000F5
:101F500084B08DF80F000291ADF80620FFE7012054
:101F600008B9FFE7FBE79DF80F0001460091232821
:101F70002FD80099DFE801F012131415162D2D2D1E
:101F80002D2D2D2D2D2D2D2D2D2D2D2D2D2D2D2D81
:101F90002D2D2D2D2D2D2D2D17182B2C1AE019E060
:101FA00018E017E016E015E0029900200870029A88
:101FB000C2215170029A012191700299C870029950
:101FC00008710299487102990820887102E001E0C5
:101FD00000E0FFE7002004B07047000000000000B0
:101FE000002070470000000080B582B045F2F0404C
:101FF000C2F20000009044F2AC41C2F20041002263
:1020000001921CF0C5F8009844F28E51C2F2000112
:102010001CF09EF80199009846F2B072C2F20002DC
:10202000116045F69472C2F20042116046F6440215
:10203000C2F20002116046F6A072C2F200421160C4
:1020400046F69C72C2F20042116046F2AC72C2F2D5
:10205000000211601CF020F8019802B080BD000061
:1020600080B586B00590049100200390FFE70398A7
:1020700004990968884224D2FFE705980399405CD7
:102080006946086046F2B070C2F2000045F69471ED
:10209000C2F2004145F69872C2F200424FF48053FA
:1020A00014F04EFE40B9FFE746F2AC71C2F20001F7
:1020B000086801300860FFE7FFE7039801300390EC
:1020C000D5E7059945F2F040C2F2000002901CF0FD
:1020D0003FF802981BF0E0FF002006B080BD000032
:1020E00080B584B0039002918DF8072000208DF810
:1020F000060046F6A073C2F200431A6846F69C71C9
:10210000C2F20041D1F800C062446FF31F321A607E
:102110000860FFF741FE9DF9060004B080BD000095
:1021200084B00290ADF806104FF6FF70ADF80400D1
:10213000029820B1FFE7BDF8060028B9FFE7BDF817
:102140000400ADF80E0047E00020ADF80200FFE704
:10215000BDF80200BDF80610884238DAFFE70298A1
:10216000BDF80210415CBDF804004840ADF8040021
:1021700000208DF80100FFE79DF8010007281FD817
:10218000FFE7BDF80400C00768B1FFE7BDF8040031
:102190004008ADF80400BDF804004AF201014840CF
:1021A000ADF8040005E0BDF804004008ADF80400F7
:1021B000FFE7FFE79DF8010001308DF80100DBE744
:1021C000FFE7BDF802000130ADF80200C0E7BDF83E
:1021D0000400ADF80E00FFE7BDF80E0004B0704734
:1021E00081B0009045F61000C2F20040C16F009A25
:1021F0005163D0F898000099886345F6B870C2F230
:102200000000C16F009AD163D0F89800009908646B
:1022100001B070470000000082B0019000208DF8EE
:102220000300FFE79DF80300032816D8FFE79DF899
:102230000320C2EBC20145F6B870C2F2000000EB09
:102240008100C068019901EB82014862FFE79DF8B7
:10225000030001308DF80300E4E702B0704700008E
:1022600081B00090009808B9FFE720E046F2A45042
:10227000C2F200004168009A11608168009A5160C2
:10228000C168009A916000690099C86045F6F850ED
:10229000C2F200404168009A11618168009A516160
:1022A000C168009A916100690099C861FFE701B0B7
:1022B000704700000000000080B546F2A450C2F252
:1022C000000011F0F5FA45F6F850C2F2004011F0A6
:1022D000EFFA80BD0000000080B596B08DED150AC4
:1022E00068460EF0ADFC9DED0D0ADDED150A45F6D4
:1022F000F850C2F2004011F0A7F916B080BD0000FE
:1023000080B582B00190019808B9FFE722E00198FA
:10231000006846F2A451C2F200014860019840688A
:10232000886001988068C8600198C0680861019859
:10233000006945F6F851C2F20041486001984069D1
:10234000886001988069C8600198C0690861FFF7DA
:10235000B3FFFFE702B080BD80B598B08DED170ADE
:1023600002A80EF06DFC9DED170A9DED0C1A30EEE3
:10237000410A8DED010A9DED010A02F041FF8DED4C
:10238000010ADDED010A46F2A450C2F200009FED01
:10239000090A11F059F98DED000A9DED0F0ADDEDE6
:1023A000000A45F6F850C2F2004011F04DF918B09D
:1023B00080BD00BF0000000082B0ADF80400ADF8A1
:1023C0000210ADF80020BDF90400BDF902108842EA
:1023D0000BDBFFE7BDF90400BDF90010884204DC07
:1023E000FFE701208DF8070003E000208DF80700CB
:1023F000FFE79DF8070002B07047000000000000F2
:1024000084B08DED020ACDED010A8DED001A9DED2F
:10241000020A9DED011AB4EE410AF1EE10FA03DA58
:10242000FFE7019803900FE09DED020A9DED001A71
:10243000B4EE410AF1EE10FA03DDFFE700980390D5
:1024400002E002980390FFE79DED030A04B0704795
:1024500084B08DED020ACDED010A8DED001A9DEDDF
:10246000020A9DED011AB4EE410AF1EE10FA03DA08
:10247000FFE7019803900FE09DED020A9DED001A21
:10248000B4EE410AF1EE10FA03DDFFE70098039085
:1024900002E002980390FFE79DED030A04B0704745
:1024A00082B08DED000A9DED000ABBEE0E1AB4EE6F
:1024B000410AF1EE10FA05DAFFE70020CCF2F01045
:1024C000019011E09DED000A9FED091AB4EE410A5A
:1024D000F1EE10FA05DDFFE70020C4F28230019032
:1024E00002E000980190FFE79DED010A02B07047FD
:1024F000000082430000000080B582B08DF8070024
:102500009DF8070010F004FD8DF807009DF8070006
:10251000C00738B1FFE7052011F03EF8062011F0A2
:102520003BF8FFE79DF807008007002807D5FFE785
:10253000052011F05DF8062011F05AF8FFE702B00F
:1025400080BD00000000000080B582B08DF807005B
:1025500000208DF80600FFE79DF80600032816D836
:10256000FFE79DF807009DF80610C840C00738B186
:10257000FFE79DF806000130C0B211F039F8FFE71F
:10258000FFE79DF8060001308DF80600E4E702B091
:1025900080BD00000000000080B584B002900020E3
:1025A0008DF80600029820B9FFE700208DF80F0093
:1025B00065E00298807C00F003008DF805009DF82E
:1025C000050020B9FFE703208DF80500FFE7002094
:1025D0008DF80700FFE79DF8070001284AD8FFE7BC
:1025E00001208DF804009DF80500C00798B1FFE7B1
:1025F00002989DF8071000EB8100D0ED150A90EDD0
:102600001B0AB1EE041A00F0AFF820B9FFE7002072
:102610008DF80400FFE79DF805008007002813D51A
:10262000FFE702989DF8071000EB8100D0ED150A36
:1026300090ED1D0AB1EE041A00F096F820B9FFE7FC
:1026400000208DF80400FFE79DF8040058B1FFE773
:102650009DF80710012000FA01F19DF806000843DB
:102660008DF80600FFE7FFE79DF8070001308DF8C1
:102670000700B0E79DF806008DF80F00FFE79DF812
:102680000F0004B080BD000080B584B0029000202F
:102690008DF80600029820B9FFE700208DF80F00A2
:1026A0002EE000208DF80700FFE79DF807000328C3
:1026B00021D8FFE702989DF8071000EB8100D0EDCC
:1026C000110A90ED170AB0EE081A00F04DF858B153
:1026D000FFE79DF80710012000FA01F19DF80600C0
:1026E00008438DF80600FFE7FFE79DF8070001307B
:1026F0008DF80700D9E79DF806008DF80F00FFE779
:102700009DF80F0004B080BD80B582B045F6B8706A
:10271000C2F20000062110F033FB8DF8070045F6E9
:102720001000C2F20040D0F88800332806D3FFE73B
:102730009DF8070001308DF80700FFE745F610000F
:10274000C2F20040D0F8A400332806D3FFE79DF87A
:10275000070001308DF80700FFE79DF8070002B081
:1027600080BD00000000000084B08DED030ACDEDB7
:10277000020A8DED011A9DED030A9DED021A30EE5D
:10278000410A8DED000A9DED000AB5EE400AF1EE1A
:1027900010FA07DAFFE79DED000AB1EE400A8DED71
:1027A000000AFFE79DED000A9DED011A0020B4EE3E
:1027B000410AF1EE10FAD8BF012004B070470000C2
:1027C00081B08DF803009DF8030001280DD1FFE7CB
:1027D00044F28C51C2F200010120087040F228013D
:1027E000C2F20041002008700CE040F22801C2F261
:1027F00000410120087044F28C51C2F20001002017
:102800000870FFE701B0704780B584B0039040F6D0
:10281000B83021F081F810F09FF945F24C60C2F217
:10282000004044F6B141C2F2004101220DF090FA9D
:102830000FF0C2FC45F2BC20C2F2004040F2A801F9
:10284000C2F2004100919FED280A8DED010A13F0BC
:102850007BF800999DED010A45F2E400C2F2000008
:1028600013F072F845F2B410C2F2004011F0C8FF44
:1028700045F23820C2F2004011F0C2FF44F6F06089
:10288000C2F2000011F0DCFB14F08EF822F02CFCF8
:1028900045F63071C2F20041086045F61460C2F29C
:1028A00000000BF01DFDFFE70121084621F064FE4A
:1028B0000290029818B9FFE701200290FFE7FFE7B6
:1028C000029830B1FFE712F0B7FB0298013802908E
:1028D000F6E746F68410C2F20000011D00F108027E
:1028E0000023FEF731FADFE76F12833A00000000A1
:1028F00080B58AB08DF827000891079200200690D5
:102900000590049003900898029008980630019072
:10291000042004909DF827005038014600910F28AC
:1029200042D80099DFE801F01A081D1122272A2D4C
:102930003033364040404039342006900320049024
:1029400040200590012003902FE03D2006900320B9
:1029500004902E2005900120039026E03020069060
:1029600023E037200690032007901EE03A200690CF
:102970000320079019E04120069016E045200690BC
:1029800013E04920069010E04D2006900DE0512004
:1029900006900AE05520069007E047F6A470C2F2C0
:1029A00000400068069000E038E00798032805D151
:1029B000FFE70320049000200390FFE70498A8B1EC
:1029C000FFE7069946F28860C2F2000000EB410082
:1029D0000299049A5200FDF79DFD46F2A000C2F252
:1029E00000000268069804999047FFE70398A8B191
:1029F000FFE7059946F28860C2F2000000EB410053
:102A00000199039A5200FDF785FD46F2A000C2F23B
:102A100000000268059803999047FFE70AB080BD5F
:102A200080B582B00190019820B1FFE7019840790C
:102A3000009002E000200090FFE70098C0B202F092
:102A4000AFFB02B080BD000080B582B0019001985C
:102A500020B1FFE701984079009002E0002000904B
:102A6000FFE70098C0B202F0AFFB02B080BD0000EB
:102A700080B588B006900591069800780490069875
:102A8000FFF7E2FF02900698FFF7CAFF0190069851
:102A90000078182807D1FFE706980F210FF04CFBAC
:102AA0008DF81F0082E0069800781A2805D1FFE70C
:102AB0001FF002F88DF81F0078E0069800781B28B8
:102AC00005D1FFE701F0CCFB8DF81F006EE0069802
:102AD00000781C2811D1FFE7059850B1FFE7059851
:102AE00012F01EFF022804D1FFE701208DF81F001D
:102AF0005CE000208DF81F0058E006980078192847
:102B000011D1FFE7059850B1FFE7059812F008FFD3
:102B1000022804D1FFE701208DF81F0046E00020C5
:102B20008DF81F0042E0049828B1FFE7049801994E
:102B3000884204D9FFE700208DF81F0036E0029894
:102B4000049900EB4110203803900398007940B9B4
:102B5000FFE70698039949790FF0EEFA8DF81F0008
:102B600024E003980079012806D1FFE7069801F0D8
:102B7000E7FB8DF81F0019E003980079022811D1B6
:102B8000FFE7059850B1FFE7059812F0C9FE02284B
:102B900004D1FFE701208DF81F0007E000208DF829
:102BA0001F0003E000208DF81F00FFE79DF81F00C5
:102BB00008B080BD0000000080B501F08DFC01F080
:102BC000E7FC45F21450C2F2004001F0A5FE01F00E
:102BD0006BFF80BD0000000080B545F2CC70C2F2F2
:102BE000000003F0CDFB80BD83B002900298016825
:102BF00001201022C4F202029142009000F0A38052
:102C0000FFE70298016801202822C4F202029142E3
:102C1000009000F09880FFE70298016801204022B0
:102C2000C4F202029142009000F08D80FFE702980A
:102C3000016801205822C4F202029142009000F083
:102C40008280FFE70298016801207022C4F202022C
:102C50009142009077D0FFE7029801680120882216
:102C6000C4F20202914200906DD0FFE70298016821
:102C70000120A022C4F202029142009063D0FFE73B
:102C8000029801680120B822C4F202029142009029
:102C900059D0FFE702980168012040F21042C4F2C7
:102CA0000202914200904ED0FFE702980168012095
:102CB00040F22842C4F202029142009043D0FFE762
:102CC00002980168012040F24042C4F2020291429F
:102CD000009038D0FFE702980168012040F2584286
:102CE000C4F20202914200902DD0FFE702980168E1
:102CF000012040F27042C4F202029142009022D0C0
:102D0000FFE702980168012040F28842C4F2020203
:102D10009142009017D0FFE702980168012040F22D
:102D2000A042C4F20202914200900CD0FFE7029848
:102D300000684FF64831CBF6FD710844B0FA80F0D8
:102D400040090090FFE70098C00740B3FFE70298F2
:102D5000007810384AF6AB21CAF6AA21A0FB011070
:102D600000090190019800F0070146F27C30C0F69E
:102D70000200405C0299C8650198042807D3FFE768
:102D800002990868042262F30900886506E0029946
:102D9000086840F2FF3290438865FFE705E002993A
:102DA000086820F0FF008865FFE70298806D03B097
:102DB000704700000000000084B003900398006892
:102DC000019003980168012045F20842C5F602020D
:102DD000914200904ED0FFE703980168012045F230
:102DE0001C42C5F602029142009043D0FFE70398CF
:102DF0000168012045F23042C5F60202914200907E
:102E000038D0FFE703980168012045F24442C5F637
:102E10000202914200902DD0FFE703980168012043
:102E200045F25842C5F602029142009022D0FFE7D7
:102E300003980168012045F26C42C5F602029142F6
:102E4000009017D0FFE703980168012045F2804207
:102E5000C5F60202914200900CD0FFE7039800688B
:102E60004AF66C31CAF2FD710844B0FA80F04009AC
:102E70000090FFE70098C00710B3FFE703980078C1
:102E800008384CF6CD41CCF6CC41A0FB011000092E
:102E90000290029945F60000C5F6020000EB8100A1
:102EA00003990866039945F68000C5F60200486656
:102EB000029800F01F01012088400399886635E0E0
:102EC0000398007810384AF6AB21CAF6AA21A0FB75
:102ED000011000090290019840F2B841C4F20201C9
:102EE00088420CD8FFE7019840F21041C4F2020179
:102EF000884204D3FFE7029808300290FFE7029966
:102F000040F60000C4F2020000EB8100039908665D
:102F1000039940F68000C4F202004866029800F06F
:102F20001F010120884003998866FFE704B07047BD
:102F300083B002900298007901900198002800F077
:102F40008A80FFE70198082800F28580FFE7029851
:102F50000168012045F20842C5F602029142009044
:102F60004ED0FFE702980168012045F21C42C5F6E9
:102F700002029142009043D0FFE7029801680120CD
:102F800045F23042C5F602029142009038D0FFE788
:102F900002980168012045F24442C5F602029142BE
:102FA00000902DD0FFE702980168012045F25842B9
:102FB000C5F602029142009022D0FFE70298016814
:102FC000012045F26C42C5F602029142009017D0F2
:102FD000FFE702980168012045F28042C5F602022F
:102FE000914200900CD0FFE7029800684AF66C31DD
:102FF000CAF2FD710844B0FA80F040090090FFE782
:103000000098C00780B1FFE7019945F6FC00C5F6BE
:10301000020000EB81000299C866029945F6401053
:10302000C5F6020008670FE0019940F6FC00C4F203
:10303000020000EB81000299C866029940F6401038
:10304000C4F202000867FFE70198411E0120884092
:1030500002994867FFE703B07047000000000000D6
:1030600085B0049000208DF80F000498806918BB8B
:10307000FFE70498806A029003281BD80299DFE8D2
:1030800001F0020D0218049890F82F00C00720B13B
:10309000FFE701208DF80F00FFE70CE00498C06AFD
:1030A000B0F1C07F04D1FFE701208DF80F00FFE7EA
:1030B00001E000E0FFE747E004988069B0F5005FB9
:1030C00026D1FFE70498806A019003281ED8019951
:1030D000DFE801F00206021101208DF80F0016E072
:1030E000049890F82F00C00720B1FFE701208DF869
:1030F0000F00FFE70BE00498C06AB0F1C07F04D175
:10310000FFE701208DF80F00FFE700E0FFE71AE07E
:103110000498806A0090032804D3FFE700980328EE
:1031200004D00EE001208DF80F000BE0049890F819
:103130002F00C00720B1FFE701208DF80F00FFE747
:1031400000E0FFE7FFE7FFE79DF80F0005B07047DD
:1031500089B008900791069205930898806D0490B5
:103160000898806D03900898016801201022C4F22D
:1031700002029142029000F00381FFE70898016883
:1031800001202822C4F202029142029000F0F8804D
:10319000FFE70898016801204022C4F20202914230
:1031A000029000F0ED80FFE70898016801205822A6
:1031B000C4F202029142029000F0E280FFE7089818
:1031C000016801207022C4F202029142029000F0D4
:1031D000D780FFE70898016801208822C4F2020224
:1031E0009142029000F0CC80FFE70898016801202E
:1031F000A022C4F202029142029000F0C180FFE7D7
:10320000089801680120B822C4F20202914202909B
:1032100000F0B680FFE708980168012040F21042F4
:10322000C4F202029142029000F0AA80FFE70898DF
:103230000168012040F22842C4F202029142029049
:1032400000F09E80FFE708980168012040F24042AC
:10325000C4F202029142029000F09280FFE70898C7
:103260000168012040F25842C4F2020291420290E9
:1032700000F08680FFE708980168012040F2704264
:10328000C4F20202914202907AD0FFE708980168E6
:10329000012040F28842C4F20202914202906FD0B3
:1032A000FFE708980168012040F2A042C4F2020240
:1032B0009142029064D0FFE708980168012040F233
:1032C000B842C4F202029142029059D0FFE7089836
:1032D0000168012045F20842C5F6020291420290BF
:1032E0004ED0FFE708980168012045F21C42C5F660
:1032F00002029142029043D0FFE708980168012042
:1033000045F23042C5F602029142029038D0FFE702
:1033100008980168012045F24442C5F60202914234
:1033200002902DD0FFE708980168012045F258422D
:10333000C5F602029142029022D0FFE70898016888
:10334000012045F26C42C5F602029142029017D06C
:10335000FFE708980168012045F28042C5F60202A5
:10336000914202900CD0FFE7089800684AF66C3151
:10337000CAF2FD710844B0FA80F040090290FFE7FC
:103380000298C00770B1FFE70898416E806E4860F0
:103390000898C06E28B1FFE70898016F406F486039
:1033A000FFE7FFE70898016801201022C4F202023B
:1033B0009142019000F0A380FFE708980168012086
:1033C0002822C4F202029142019000F09880FFE7A7
:1033D0000898016801204022C4F202029142019043
:1033E00000F08D80FFE70898016801205822C4F2A0
:1033F00002029142019000F08280FFE70898016884
:1034000001207022C4F202029142019077D0FFE7BE
:103410000898016801208822C4F2020291420190BA
:103420006DD0FFE7089801680120A022C4F20202D3
:103430009142019063D0FFE7089801680120B8220B
:10344000C4F202029142019059D0FFE70898016846
:10345000012040F21042C4F20202914201904ED08B
:10346000FFE708980168012040F22842C4F20202F6
:103470009142019043D0FFE708980168012040F293
:103480004042C4F202029142019038D0FFE708980E
:103490000168012040F25842C4F2020291420190B8
:1034A0002DD0FFE708980168012040F27042C4F275
:1034B00002029142019022D0FFE7089801680120A2
:1034C00040F28842C4F202029142019017D0FFE715
:1034D00008980168012040F2A042C4F20202914221
:1034E00001900CD0FFE7089800684FF64831CBF602
:1034F000FD710844B0FA80F040090190FFE701989F
:10350000C00750B3FFE70898C06D00F01F013F20CF
:1035100088400499886008980168086820F4802031
:1035200008600598089909684860089880684028EC
:1035300009D1FFE7069808990968886007980899F3
:103540000968C86008E007980899096888600698C3
:1035500008990968C860FFE782E0089801680120BF
:1035600045F20842C5F60202914200904ED0FFE7B4
:1035700008980168012045F21C42C5F602029142FA
:10358000009043D0FFE708980168012045F23042DF
:10359000C5F602029142009038D0FFE70898016812
:1035A000012045F24442C5F60202914200902DD01E
:1035B000FFE708980168012045F25842C5F602026B
:1035C0009142009022D0FFE708980168012045F25F
:1035D0006C42C5F602029142009017D0FFE70898AE
:1035E0000168012045F28042C5F602029142009036
:1035F0000CD0FFE7089800684AF66C31CAF2FD71FA
:103600000844B0FA80F040090090FFE70098C00736
:1036100020B3FFE70898C06D00F01F01012088402B
:103620000399486005980899096848600898806877
:10363000402809D1FFE7069808990968886007982B
:1036400008990968C86008E00798089909688860BF
:10365000069808990968C860FFE700E0FFE7FFE700
:1036600009B070470000000080B596B00BAB08931E
:103670008DF8570014918DF84F2000201290119072
:1036800010900F908DF83B009DF8570014999DF80D
:103690004F201CF019FE9DF857000146099159284A
:1036A00000F25C850999DFE811F05A0084009E0061
:1036B00059055905DA00FE005905590559055905FE
:1036C000590559055905590559050A0128013801B7
:1036D0006F012E02C902DF02590559055905590526
:1036E00059055905590559055905E902FB025905BE
:1036F0001503590559036B03590559055905590512
:1037000059055905590559055905E902FB021503E3
:1037100059055905590375035905590559055905A1
:1037200059055905590559055905590559055905A9
:103730005905590559057F038903CC03E20359054F
:1037400059055905590559055905EC030C04290477
:103750008E04A904FE044F051E05C604E1049DF86D
:103760004F001CF001FD10B9FFE700F0F8BC1CF0A1
:1037700077FD21F021F813F073FA45F2E400C2F26C
:10378000000012F0E9FC45F23820C2F2004011F0CE
:10379000ABF944F6F060C2F2000010F0D9FB21F062
:1037A00037F840F24821C2F200410020087000F0D2
:1037B000D6BC9DF84F001CF0D7FC10B9FFE700F015
:1037C000CEBC20F0F9FF44F6F060C2F2000010F029
:1037D000D3FB21F01DF840F24821C2F20041012044
:1037E000087000F0BCBC14989DF84F100FAA1DF093
:1037F000A7FE10B9FFE700F0B2BC089890ED040AEC
:10380000BCEEC00A10EE100A002818BF0120FEF717
:10381000D7FF089890ED040ABCEEC00A10EE100A1B
:10382000D8B9FFE71CF01CFD20F0C6FF13F018FA12
:1038300045F2E400C2F2000012F08EFC45F238209E
:10384000C2F2004011F050F944F6F060C2F20000FC
:1038500010F07EFB20F0DCFFFFE700F080BC9DF85D
:103860004F001CF081FC10B9FFE700F078BC1CF0A1
:10387000F7FC20F0A1FF13F0F3F945F2E400C2F2E7
:10388000000012F069FC45F23820C2F2004011F04D
:103890002BF944F6F060C2F2000010F0A9FC20F011
:1038A000B7FF00F05CBC9DF84F001CF05DFC10B948
:1038B000FFE700F054BC0FF0FBFD00F050BC9DF89A
:1038C0004F001CF051FC10B9FFE700F048BC1CF0A1
:1038D000C7FC20F071FF13F0C3F945F2E400C2F217
:1038E000000012F039FC20F093FF40F24821C2F2B0
:1038F00000410020087000F032BC9DF84F001CF021
:1039000033FC10B9FFE700F02ABC40F24821C2F2B4
:1039100000410120087000F022BC14989DF84F105F
:103920000FAA1DF00DFE10B9FFE700F018BC0898B3
:1039300090ED040ABCEEC00A10EE100A072822D847
:10394000FFE744F28C50C2F200000078D8B1FFE7E4
:1039500040F24820C2F200400078A0B1FFE720F01A
:103960002BFF13F07DF9089890ED040ABCEEC00A15
:1039700010EE101A45F2E400C2F2000012F0D0FA84
:1039800020F046FFFFE7EAE314989DF84F100FAAD6
:103990001DF0D6FD08B9FFE7E1E345F2E400C2F20D
:1039A0000000007812F050F8014608988DF83A109F
:1039B00011990D9190ED040AF8EE000ACDED060A7A
:1039C000B0EE001A8DED071AFEF71AFDDDED060ABE
:1039D0009DED071A089880ED040A90ED050AFEF7A0
:1039E0000FFD089880ED050A9DF83A0068B9FFE7D9
:1039F000089890ED060ADFEDBF0A9FEDBF1AFEF7AB
:103A0000FFFC089880ED060AFFE70F9846F6901134
:103A1000C2F200010860109848609DF83A0028B191
:103A2000FFE79FEDB60A8DED050A05E0089890EDD9
:103A3000060A8DED050AFFE79DED050A46F6901092
:103A4000C2F2000080ED020A44F28C50C2F2000083
:103A50000078002856D0FFE740F24820C2F200402C
:103A6000007800284ED0FFE720F0A6FE13F0F8F80B
:103A70009DF83A0098B3FFE745F2E400C2F2000077
:103A8000007812F0C5F870B1FFE7089890ED020ACF
:103A90009FED9B1A20EE010A45F2E400C2F20000FD
:103AA00012F03EFB0DE0089890ED020A9FED941A8B
:103AB00020EE010A45F2E400C2F2000012F09CFA86
:103AC000FFE7089890ED040AD0ED050A45F2E400FE
:103AD000C2F200009FED891A12F0BEFA0DE00898BC
:103AE00090ED040AD0ED050A90ED061A45F2E400C7
:103AF000C2F2000012F0B0FAFFE720F089FE1CF0DD
:103B0000C7FBFFE72BE314989DF84F100FAA1DF099
:103B100017FD08B9FFE722E345F2E400C2F2000016
:103B2000007811F091FF8DF8330011980B900F98E9
:103B300046F69011C2F200010860109848609DF8A6
:103B4000330028B1FFE79FED6D0A8DED040A05E013
:103B5000089890ED060A8DED040AFFE79DED040A32
:103B600046F69010C2F2000080ED020A44F28C503A
:103B7000C2F20000007800285FD0FFE740F2482042
:103B8000C2F200400078002857D0FFE720F014FE72
:103B900013F066F89DF83300A8B3FFE745F2E400A0
:103BA000C2F20000007812F033F870B1FFE7089815
:103BB00090ED000A9FED521A20EE010A45F2E40052
:103BC000C2F2000012F0ACFA0DE0089890ED000A85
:103BD0009FED4B1A20EE010A45F2E400C2F200000C
:103BE00012F00AFAFFE7089890ED040AD0ED050AF2
:103BF00045F2E400C2F200009FED401A12F08CF88A
:103C00008DF82B000FE0089890ED040AD0ED050A1E
:103C100090ED061A45F2E400C2F2000012F07CF8C2
:103C20008DF82B00FFE720F0F3FD9DF92B0018B96C
:103C3000FFE71CF015FBFFE7FFE790E29DF84F0060
:103C40001CF092FA08B9FFE789E21CF009FB20F0AA
:103C5000B3FD13F005F845F2E400C2F2000012F0E3
:103C60007BFA20F0D5FD7AE29DF84F001CF07CFA3B
:103C700008B9FFE773E20FF003FC70E29DF84F0014
:103C80001CF072FA08B9FFE769E220F095FD44F6EE
:103C9000F060C2F2000010F05BF920F0B9FD5EE2C6
:103CA0009DF84F001CF060FA08B9FFE757E244F2B4
:103CB0008C50C2F20000007858B1FFE720F07CFD84
:103CC00044F6F060C2F2000010F056F920F0A0FDBA
:103CD000FFE744E214989DF84F100FAA1DF030FC46
:103CE00008B9FFE73BE244F28C50C2F200000078D2
:103CF00098B307E07BD920BF7BD9203F00000000AC
:103D000039FA8E3C20F058FD089890ED041A90ED99
:103D1000050A90ED062A8DED022A90ED072A8DED19
:103D2000032ABCEEC11A11EE100A0090BCEEC00AC4
:103D300010EE100A019006F0DFF80099019A9DED4F
:103D4000020ADDED030A034644F6F060C2F2000009
:103D500010F0E2F920F05CFDFFE700E29DF84F0073
:103D60001CF002FA08B9FFE7F9E120F025FD44F65E
:103D7000F060C2F2000010F03BFA20F049FDEEE1E5
:103D80009DF84F001CF0F0F908B9FFE7E7E10FF0EC
:103D90006FFBE4E19DF84F001CF0E6F908B9FFE77E
:103DA000DDE10FF08DFBDAE19DF84F001CF0DCF94E
:103DB00008B9FFE7D3E10FF073FBD0E19DF84F00A6
:103DC0001CF0D2F908B9FFE7C9E19DF84F001028AF
:103DD00009D1FFE714989DF84F100FAA1DF0B0FB12
:103DE00008B9FFE7BBE144F28C50C2F20000007852
:103DF00030B3FFE740F24820C2F200400078F8B14B
:103E0000FFE7089890ED040ABCEEC00A10EE100A15
:103E10008DF82A0020F0D0FC9DF82A1045F2E4002D
:103E2000C2F2000012F0D4FD8DF8290020F0F0FC61
:103E30009DF8290018B1FFE71CF012FAFFE7FFE731
:103E40008DE19DF84F001CF08FF908B9FFE786E17E
:103E50001CF006FA20F0B0FC12F002FF45F2E4007C
:103E6000C2F2000012F078F920F0D2FC77E19DF860
:103E70004F001CF079F908B9FFE770E10FF028FB5B
:103E80006DE19DF84F001CF06FF908B9FFE766E19E
:103E900020F092FC45F23820C2F20040407B38B15D
:103EA000FFE745F2E400C2F2000012F055F9FFE727
:103EB00045F23820C2F2004010F016FE20F0A8FCB7
:103EC0004DE19DF84F001CF04FF908B9FFE746E1BE
:103ED00044F28C50C2F20000007870B1FFE720F08D
:103EE0006BFC45F23820C2F20040012100231A4643
:103EF00010F08EFD20F08CFCFFE730E114989DF867
:103F00004F100FAA1DF01CFB08B9FFE727E144F290
:103F10008C50C2F200000078002853D0FFE70898C8
:103F200090ED060ABCEEC00A10EE100A002818BF79
:103F300001208DF83B0020F03FFC089890ED040A2A
:103F4000BCEEC00A10EE100A70B9FFE745F2382047
:103F5000C2F20040407B38B1FFE745F2E400C2F214
:103F6000000012F0F9F8FFE7089890ED041A90EDC0
:103F7000050ABCEEC11A11EE101A002918BF012162
:103F8000BCEEC00A10EE102A002A18BF01229DF8CC
:103F90003B3045F23820C2F2004010F039FD08985D
:103FA00090ED040ABCEEC00A10EE100A38B1FFE72B
:103FB0009DF83B0018B1FFE71CF052F9FFE720F035
:103FC00027FCFFE7CBE09DF84F001CF0CDF808B9C7
:103FD000FFE7C4E044F28C50C2F20000007860B108
:103FE000FFE720F0E9FB45F23820C2F20040002153
:103FF00010F076FC20F00CFCFFE7B0E09DF84F00DD
:104000001CF0B2F808B9FFE7A9E044F28C50C2F204
:104010000000007870B1FFE720F0CEFB1CF020F923
:1040200045F23820C2F20040002110F049FC20F097
:10403000EFFBFFE793E09DF84F001CF095F808B9FF
:10404000FFE78CE044F28C50C2F20000007860B1CF
:10405000FFE720F0B1FB45F23820C2F20040012119
:1040600010F03EFC20F0D4FBFFE778E09DF84F0015
:104070001CF07AF808B9FFE771E044F28C50C2F204
:104080000000007870B1FFE720F096FB1CF0E8F824
:1040900045F23820C2F20040012110F011FC20F05E
:1040A000B7FBFFE75BE09DF84F001CF05DF808B937
:1040B000FFE754E020F080FB45F23820C2F20040D8
:1040C000407B38B1FFE745F2E400C2F2000012F095
:1040D00043F8FFE745F23820C2F2004010F004FD3B
:1040E00020F096FB3BE014989DF84F100FAA1DF0AE
:1040F00027FA08B9FFE732E044F28C50C2F2000020
:10410000007800B3FFE720F057FB45F23820C2F2F9
:104110000040407B38B1FFE745F2E400C2F2000006
:1041200012F01AF8FFE7089890ED040ABCEEC00AF6
:1041300010EE101A45F23820C2F2004010F0ECFBED
:1041400020F066FBFFE70AE09DF84F001CF00CF83A
:1041500008B9FFE703E00FF09BF900E0FFE716B0B6
:1041600080BD00000000000070470000000000005B
:1041700080B582B0019005F0BFFE0090FFE705F02A
:10418000BBFE0099401A0199884201D2FFE7F6E789
:1041900002B080BD0000000080B5BAB03890379101
:1041A000389820B9FFE701208DF8E7002AE001A840
:1041B000009011F005FA009800F02AF840B1FFE7EE
:1041C000389900204874389908628DF8E70019E0A2
:1041D0003898407C50B9FFE73899012048743798E7
:1041E0003899086200208DF8E7000BE0379838997D
:1041F000096A411A0020B1F57A7F88BF01208DF845
:10420000E700FFE79DF8E7003AB080BD000000003E
:1042100082B00090009820B9FFE700208DF80700D9
:1042200019E00098807E20B1FFE70098407F20B918
:10423000FFE700208DF807000DE000988068B0F1DE
:10424000FF3F04DCFFE700208DF8070003E00120BA
:104250008DF80700FFE79DF8070002B070470000E7
:1042600080B5B8B001A8009011F0AAF90098FFF746
:10427000CFFF20B9FFE700208DF8DF0007E00399AA
:1042800000204129C8BF01208DF8DF00FFE79DF81D
:10429000DF0038B080BD000080B586B004908DF896
:1042A0000F109DF80F000290029802280ED3FFE72E
:1042B000029801900498FEF7B3FB014601988842EA
:1042C00004D8FFE701208DF8170003E000208DF8E7
:1042D0001700FFE79DF8170006B080BD0000000042
:1042E00080B584B003908DF80B109FED140A14F084
:1042F0008FFB8DED010A03989DF80B1000EB8100F8
:1043000090ED0F0A90ED152AB8EEC00A46F2CC7077
:10431000C0F6020000EB810090ED001A21EE021AB7
:104320009DED012AA1EE020A8DED000A9DED000A25
:10433000BDEEC00A10EE100A04B080BDB458B744F8
:1043400080B584B002900298FCF742FA8DF806001E
:1043500000208DF80700FFE79DF80700012844D8EA
:10436000FFE79DF80600C007C8B1FFE702989DF877
:10437000071000EB810090ED151A90ED1B0A30EE4E
:10438000410AFCF709FAB1EE041AB4EE410AF1EE63
:1043900010FA04DDFFE700208DF80F0029E09DF8FA
:1043A00006008007002819D5FFE702989DF807103E
:1043B00000EB810090ED151A90ED1D0A30EE410AD8
:1043C000FCF7EAF9B1EE041AB4EE410AF1EE10FA84
:1043D00004DDFFE700208DF80F000AE0FFE79DF8FD
:1043E000070001308DF80700B6E701208DF80F00B7
:1043F000FFE79DF80F0004B080BD00000000000042
:1044000081B000909DED000AB8EEC00A9FED021A3F
:1044100020EE010A01B07047400749360000000055
:1044200081B0EFF3108072B60090FFE7FEE7000066
:1044300044F60C01C5F60201086840F0020008606D
:10444000FFE744F60400C5F6020000688004002877
:1044500001D4FFE7F5E7704780B584B0ADF80E00F2
:10446000ADF80C10ADF80A20ADF80830BDF90E20FB
:10447000BDF90C30BDF90A00BDF908C06946C1F8A4
:1044800004C0086045F27440C2F200404FF400716D
:1044900000F072FB04B080BD80B584B0ADF80E00B2
:1044A000ADF80C10ADF80A20ADF80830BDF90E20BB
:1044B000BDF90C30BDF90A00BDF908C06946C1F864
:1044C00004C0086045F27440C2F2004040F2FF119F
:1044D00000F052FB04B080BD80B545F27440C2F2DA
:1044E0000040012100F0B8FA80BD0000000000008B
:1044F00080B545F27440C2F2004004F025FC80BD56
:1045000080B545F27440C2F2004004F01DFC80BD4D
:1045100080B584B0ADF80E00ADF80C10ADF80A20EF
:10452000ADF80830BDF90E20BDF90C30BDF90A0018
:10453000BDF908C06946C1F804C0086045F64400EA
:10454000C2F200004FF4007100F016FB04B080BD11
:1045500080B584B0ADF80E00ADF80C10ADF80A20AF
:10456000ADF80830BDF90E20BDF90C30BDF90A00D8
:10457000BDF908C06946C1F804C0086045F64400AA
:10458000C2F2000040F2FF1100F0F6FA04B080BD64
:1045900080B545F64400C2F20000012100F05CFA4B
:1045A00080BD00000000000080B545F64400C2F266
:1045B000000004F0C9FB80BD80B545F64400C2F29E
:1045C000000004F0C1FB80BD80B545F21450C2F27A
:1045D000004004F0B9FB80BD80B545F21450C2F232
:1045E000004004F0B1FB80BD80B590B0FFE745F21C
:1045F0001450C2F20040412104F0FEF9B8B1FFE7C7
:1046000045F21450C2F20040412106AA6B4604F064
:104610000FFA08B1FFE70AE045F21450C2F2004079
:10462000FCF7A6F906A8694600F006F8DFE710B027
:1046300080BD00000000000080B582B001900091B4
:104640000198009913F050F902B080BD00000000FD
:1046500084B002900298406B009002980068D0F8F5
:1046600084004FF6FC718843009940EA810002996A
:104670000968C1F8840002980068D0F8840020F42A
:104680007F00029A1168926B40EA0240C1F88400F0
:104690000298816B00980844009002980068D0F856
:1046A00088006FF38F00009940EA81000299096841
:1046B000C1F8880002980068D0F8880020F4FE0055
:1046C000029A1168D26B40EA0240C1F88800029851
:1046D000C16B009800EB4100009002980068D0F890
:1046E000A0006FF38F00009940EA810002990968E9
:1046F000C1F8A00002980068D0F8A00020F4FE00E5
:10470000029A1168126C40EA0240C1F8A0000299B6
:10471000086C496C009A00FB012000900298006828
:10472000D0F8B0006FF38F00009940EA8100029941
:104730000968C1F8B00002980068D0F8B00020F411
:10474000FE00029A1168926C40EA0240C1F8B00083
:104750000299886CC96C009A00FB012000900298B5
:104760000068D0F8AC006FF38F00009940EA810038
:1047700002990968C1F8AC000299086D496D009A68
:1047800000FB0120009002980068D0F8F0006FF361
:104790008F00009940EA810002990968C1F8F00091
:1047A00002980068D0F8F00020F47C10029A11689A
:1047B000926D40EA0240C1F8F0000298816D0098C5
:1047C00000EB4100009002980068D0F8C0006FF341
:1047D0008F00009940EA810002990968C1F8C00081
:1047E00002980068D0F8C00020F47C10029A11688A
:1047F000D26D40EA0240C1F8C00002980068D0F8CB
:10480000C00020F07C50029A1168126E40EA0260EB
:10481000C1F8C00002994A6B4AF60040C4F2000099
:1048200000EB8200C86602998A6BC86E00EB8200BA
:1048300008670299CA6B086F00EBC20048670299CB
:104840000A6C4B6C486F5A4300EB820088670299F0
:104850008A6CCB6C886F5A4300EB8200C867029960
:104860000A6D4B6DC86F5A4300EB8200C1F880009F
:1048700002998A6DD1F8800000EBC200C1F8840073
:104880000299CA6D8B6ED1F884005A4300EB820006
:10489000C1F8880002990A6E8B6ED1F888005A43DD
:1048A00000EB8200C1F890000298D0F890004DF221
:1048B000FD31C4F2000188420FD3FFE70299D1F81D
:1048C0009C0040F02000C1F89C000299032081F870
:1048D000980001208DF80F0017E00298C06E01903B
:1048E000FFE701980299D1F89010884208D2FFE7BB
:1048F000019900200860FFE7019804300190F0E77B
:10490000FFE700208DF80F00FFE79DF80F0004B0CF
:10491000704700000000000080B58CB00B900020B4
:1049200002900A90099008900790069005900490D4
:1049300003900B9808B9FFE72FE000200390049044
:10494000022105910691079008900B9803A903F0A6
:104950003FFF18B1FFE7FFF763FDFFE70B986946DC
:1049600001230B600222194603F0BEFF18B1FFE7D6
:10497000FFF756FDFFE70B9805F066F818B1FFE763
:10498000FFF74EFDFFE70B981021002203F030FEE9
:1049900018B1FFE7FFF744FDFFE70CB080BD000052
:1049A00088B007900691059204930698406848B92C
:1049B000FFE70698016882680069104340EA814079
:1049C000039009E006980168826800691043084373
:1049D00040F080400390FFE70698D0F820C0C168FF
:1049E00042698369C06940EA0C601843104340EA99
:1049F000014002900798826ED0F8840004995143D8
:104A000000EB81000190039801990860019804303F
:104A100001900298019908600198043001900020EB
:104A20000090FFE700980699CA6846F26C31C0F61C
:104A30000201895C88420DD2FFE705980099405831
:104A400001990860019804300190FFE70098043054
:104A50000090E7E708B0704780B58CB00B900A91E2
:104A6000002001900990089007900690059004900E
:104A70000390029002900390022004900A980590FF
:104A80004FF4007006904FF4FE6007900B9802A957
:104A900003F09EFE18B1FFE7FFF7C2FCFFE70CB082
:104AA00080BD00000000000080B545F27440C2F2F5
:104AB000004000F0E5F845F64400C2F2000000F0C6
:104AC000DFF880BD0000000080B590B00F900E911F
:104AD0000D92FFE70F980E9903F08EFF002846D045
:104AE000FFE70F980E9903AA01AB03F0A1FF08B1ED
:104AF000FFE73CE00F98FBF73BFF049850B9FFE756
:104B00000398B0F5007F05D9FFE70398B0F5027F61
:104B100001D9FFE7DEE70398A0F2012000900D988D
:104B20000099C1EBC10100EB810188690130886106
:104B30000D980099C1EBC10100EB8100806932281A
:104B40000AD8FFE70D980099C1EBC10100EB810085
:104B500001A91EF055FE09E00D980099C1EBC101B5
:104B600000EB810001A91EF0FFFDFFE7B2E710B0E6
:104B700080BD00000000000010B596B08C4686464F
:104B800019981899CDF850E0ADF84EC0ADF84C200A
:104B9000ADF84A30ADF84810ADF84600149820B989
:104BA000FFE700208DF8570066E0149804F0BCF889
:104BB00050B9FFE71498002103910122FBF7F8FE9A
:104BC00003988DF8570057E0BDF84E00089000207C
:104BD00009900A9008210B910C900D900E900F9067
:104BE0001090BDF84C00ADF81600BDF84A00ADF8C5
:104BF0001400BDF84800ADF81200BDF84600ADF84D
:104C000010009DF817008DF81800BDF816008DF8FB
:104C100019009DF815008DF81A00BDF814008DF8E4
:104C20001B009DF813008DF81C00BDF812008DF8D4
:104C30001D009DF811008DF81E00BDF810008DF8C4
:104C40001F00149808A906AA03F052FD50B1FFE70F
:104C50001498002202921146FBF7AAFE02988DF8E2
:104C6000570009E01498012101910022FBF7A0FEF2
:104C700001988DF85700FFE79DF8570016B010BD5A
:104C800080B582B0019000200090019808B9FFE73C
:104C900025E0019845F27441C2F20041884208D0F3
:104CA000FFE7019845F64401C2F20001884203D1B2
:104CB000FFE70120009000E011E0019804F0C4FE3D
:104CC00018B1FFE7FFF7ACFBFFE70198009900225E
:104CD00003F08EFC18B1FFE7FFF7A2FBFFE702B07D
:104CE00080BD00000000000080B5D0B08DF83F010D
:104CF0008DF83E118DED4E0A4D924C939DF83F017B
:104D000012F0D6FB4B904D9800684A904D98406841
:104D100049904D98806848909DED490A9DED481A4C
:104D200030EE010A8DED470A9DED4A0A20F03CFC69
:104D30008DED460A9DED4A0A21F010F88DED450AE9
:104D40009DED490A20F030FC8DED440A9DED490AA5
:104D500021F004F88DED430A9DED470A20F024FC74
:104D60008DED420A9DED470A20F0F8FF8DED410AD6
:104D70009DED460ADDED450A9FEDEA1A8DED011A1B
:104D80001DF03AF8B0EE402AB0EE410A9DED011A4E
:104D90008DED3E2ACDED3F0A8DED400A9DED450A91
:104DA000B1EE400ADDED460A1DF026F8B0EE402ACD
:104DB000B0EE600ADDED010A8DED3B2A8DED3C0A77
:104DC0008DED3D1AB7EE001AB0EE600A1DF014F832
:104DD0008DED380ACDED390A8DED3A1ADDED421A26
:104DE0009DED3B0ADDED3C0A9DED3D1A13F030FED2
:104DF0008DED320ACDED330A8DED341ADDED411A19
:104E00009DED380ADDED390A9DED3A1A13F020FECA
:104E10008DED2F0ACDED300A8DED311A9DED320A60
:104E2000DDED330A9DED341ADDED2F1A9DED302AAC
:104E3000DDED312AFBF7E4FC8DED350ACDED360AC8
:104E40008DED371A9DED410AF1EE401A9DED3B0ABA
:104E5000DDED3C0A9DED3D1A13F0FAFD8DED290ABA
:104E6000CDED2A0A8DED2B1ADDED421A9DED380AA3
:104E7000DDED390A9DED3A1A13F0EAFD8DED260AB3
:104E8000CDED270A8DED281A9DED290ADDED2A0AC0
:104E90009DED2B1ADDED261A9DED272ADDED282A42
:104EA000FBF7AEFC8DED2C0ACDED2D0A8DED2E1A03
:104EB0009DED450A9FED9C1A20EE010A9DED461AD4
:104EC0009FED9A2A61EE020A9FED991A1CF094FF59
:104ED0008DED230ACDED240A8DED251A9DED430AB3
:104EE0009FED941A60EE011A9DED3B0ADDED3C0A40
:104EF0009DED3D1A13F0ACFD8DED1A0ACDED1B0AA8
:104F00008DED1C1A9DED440A9FED8B1A60EE011A7F
:104F10009DED380ADDED390A9DED3A1A13F098FD42
:104F20008DED170ACDED180A8DED191A9DED1A0AAF
:104F3000DDED1B0A9DED1C1ADDED171A9DED182AFB
:104F4000DDED192AFBF75CFC8DED1D0ACDED1E0A87
:104F50008DED1F1A9DED230ADDED240A9DED251A26
:104F6000DDED1D1A9DED1E2ADDED1F2AFBF748FC25
:104F70008DED200ACDED210A8DED221A2098219980
:104F8000229A1692159114904B98002800F0838075
:104F9000FFE74B98D0ED001A9DED3E0ADDED3F0A8C
:104FA0009DED401A13F054FD8DED0E0ACDED0F0A64
:104FB0008DED101A9DED140ADDED150A9DED161A02
:104FC000DDED0E1A9DED0F2ADDED102AFBF718FC22
:104FD0008DED110ACDED120A8DED131A119812996B
:104FE000139A1692159114904B98D0ED011A9DEDDD
:104FF000350ADDED360A9DED371A13F029FD8DEDEA
:10500000080ACDED090A8DED0A1A9DED140ADDEDB1
:10501000150A9DED161ADDED081A9DED092ADDED44
:105020000A2AFBF7EDFB8DED0B0ACDED0C0A8DED99
:105030000D1A0B980C990D9A1692159114904B9885
:10504000D0ED021A9DED2C0ADDED2D0A9DED2E1AF4
:1050500013F0FEFC8DED020ACDED030A8DED041A6E
:105060009DED140ADDED150A9DED161ADDED021A0F
:105070009DED032ADDED042AFBF7C2FB8DED050A49
:10508000CDED060A8DED071A05980699079A169236
:1050900015911490FFE79DF83F014C9988709DF899
:1050A0003E014C99C8704E984C9948604A984C996A
:1050B00088604D9800684C99C8604D9840684C993C
:1050C00008614D9880684C9948614C992398249ABE
:1050D000259B0B62CA6188614C992098219A229B7A
:1050E000CB628A6248624C991498159A169B8B631E
:1050F0004A6308634C993E983F9A409B4B640A640C
:10510000C8634C993598369A379B0B65CA64886496
:105110004C992C982D9A2E9BCB658A65486550B08A
:1051200080BD00BF000000005C8F2AC25C8F2A4255
:10513000295CC442F8F6BFC3F8F6BF430000000084
:1051400083B001908DF80310019820B9FFE700208B
:105150008DF80B0020E0019840799DF803108842FB
:1051600004D1FFE701208DF80B0015E001980078CD
:1051700050B1FFE701980078162805D0FFE70198A5
:105180000078172804D1FFE701208DF80B0003E019
:1051900000208DF80B00FFE79DF80B0003B070476F
:1051A00080B582B08DF803009DF803000DF0C8FEB5
:1051B000012803D1FFE70F20019002E00D200190AC
:1051C000FFE7019802B080BD80B582B08DF8030082
:1051D0009DF803000DF0B4FE012806D1FFE746F26A
:1051E000EC50C0F60200019005E046F2F070C0F607
:1051F00002000190FFE7019802B080BD00000000AE
:1052000081B08DED000AFFE79DED000A9FED141AB5
:10521000B4EE410AF1EE10FA09DDFFE79DED000A58
:105220009FED121A30EE010A8DED000AECE7FFE760
:105230009DED000A9FED0B1AB4EE410AF1EE10FA53
:1052400009DAFFE79DED000A9FED071A30EE010A2B
:105250008DED000AECE79DED000A01B0704700BF3C
:1052600000003443000034C30000B4430000B4C362
:1052700080B584B003908DF80B109FED140A13F0E5
:10528000C7FB8DED010A03989DF80B1000EB810020
:1052900090ED0D0A90ED152AB8EEC00A46F2CC70DA
:1052A000C0F6020000EB810090ED001A21EE021A18
:1052B0009DED012AA1EE020A8DED000A9DED000A86
:1052C000BDEEC00A10EE100A04B080BDB458B74459
:1052D00080B584B04EF60000C1F6F170006803900E
:1052E0004EF60400C1F6F170006802904EF6080018
:1052F000C1F6F17000680190019903980844039089
:10530000039888B1FFE7039840F24001C2F2000120
:105310000091023108220CF07BF8009902981231BA
:1053200004220CF075F8FFE704B080BD0000000017
:1053300080B540F60000C5F602004FF4604101223E
:1053400004F0C2FD80BD000080B58AB0089004F072
:10535000D3FD0490089828B9FFE701208DF82700B5
:1053600000F0AABC089890F8350002280ED0FFE79C
:10537000089980204865FFE70899002081F83400EB
:10538000FFE701208DF8270000F096BC089801681F
:1053900001201022C4F202029142039000F0A38087
:1053A000FFE70898016801202822C4F20202914216
:1053B000039000F09880FFE70898016801204022E0
:1053C000C4F202029142039000F08D80FFE708983A
:1053D000016801205822C4F202029142039000F0B9
:1053E0008280FFE70898016801207022C4F202025F
:1053F0009142039077D0FFE7089801680120882246
:10540000C4F20202914203906DD0FFE70898016850
:105410000120A022C4F202029142039063D0FFE770
:10542000089801680120B822C4F202029142039058
:1054300059D0FFE708980168012040F21042C4F2F9
:105440000202914203904ED0FFE7089801680120C4
:1054500040F22842C4F202029142039043D0FFE797
:1054600008980168012040F24042C4F202029142D1
:10547000039038D0FFE708980168012040F25842B5
:10548000C4F20202914203902DD0FFE70898016810
:10549000012040F27042C4F202029142039022D0F5
:1054A000FFE708980168012040F28842C4F2020236
:1054B0009142039017D0FFE708980168012040F25D
:1054C000A042C4F20202914203900CD0FFE7089878
:1054D00000684FF64831CBF6FD710844B0FA80F011
:1054E00040090390FFE70398C00780B1FFE70898E1
:1054F0000168086820F01E00086008980168486983
:1055000020F08000486108980068059009E008983C
:105510000168086820F00E0008600898006805908F
:10552000FFE70898016801201022C4F202029142AC
:10553000029000F00381FFE708980168012028220B
:10554000C4F202029142029000F0F880FFE708984E
:10555000016801204022C4F202029142029000F050
:10556000ED80FFE70898016801205822C4F202028A
:105570009142029000F0E280FFE708980168012064
:105580007022C4F202029142029000F0D780FFE73D
:105590000898016801208822C4F202029142029018
:1055A00000F0CC80FFE7089801680120A022C4F237
:1055B00002029142029000F0C180FFE70898016862
:1055C0000120B822C4F202029142029000F0B6809B
:1055D000FFE708980168012040F21042C4F202027D
:1055E0009142029000F0AA80FFE70898016801202C
:1055F00040F22842C4F202029142029000F09E80E2
:10560000FFE708980168012040F24042C4F202021C
:105610009142029000F09280FFE708980168012013
:1056200040F25842C4F202029142029000F0868099
:10563000FFE708980168012040F27042C4F20202BC
:10564000914202907AD0FFE708980168012040F269
:105650008842C4F20202914202906FD0FFE708989C
:105660000168012040F2A042C4F20202914202907D
:1056700064D0FFE708980168012040F2B842C4F204
:1056800002029142029059D0FFE708980168012078
:1056900045F20842C5F60202914202904ED0FFE761
:1056A00008980168012045F21C42C5F602029142A9
:1056B000029043D0FFE708980168012045F230428C
:1056C000C5F602029142029038D0FFE708980168BF
:1056D000012045F24442C5F60202914202902DD0CB
:1056E000FFE708980168012045F25842C5F602021A
:1056F0009142029022D0FFE708980168012045F20C
:105700006C42C5F602029142029017D0FFE708985A
:105710000168012045F28042C5F6020291420290E2
:105720000CD0FFE7089800684AF66C31CAF2FD71A8
:105730000844B0FA80F040090290FFE70298C007E1
:1057400038B1FFE70898016E086820F4807008609F
:10575000FFE7089800681021C4F20201884200F0B7
:105760008180FFE7089800682821C4F2020188427E
:1057700078D0FFE7089800684021C4F2020188420F
:1057800070D0FFE7089800685821C4F202018842EF
:1057900068D0FFE7089800687021C4F202018842CF
:1057A00060D0FFE7089800688821C4F202018842AF
:1057B00058D0FFE708980068A021C4F2020188428F
:1057C00050D0FFE708980068B821C4F2020188426F
:1057D00048D0FFE70898006840F21041C4F2020187
:1057E00088423FD0FFE70898006840F22841C4F2A1
:1057F0000201884236D0FFE70898006840F2404135
:10580000C4F2020188422DD0FFE70898006840F2F8
:105810005841C4F20201884224D0FFE7089800688A
:1058200040F27041C4F2020188421BD0FFE70898A1
:10583000006840F28841C4F20201884212D0FFE7BA
:105840000898006840F2A041C4F20201884209D0E1
:10585000FFE70898006840F2B841C4F202018842AC
:1058600007D1FFE708980168086820F00100086088
:1058700006E008980168086820F001000860FFE76A
:10588000FFE705980068C007C8B1FFE704F034FBE4
:105890000499401A062811D3FFE70899202048658B
:1058A0000899032081F83500FFE70899002081F866
:1058B0003400FFE701208DF82700FDE1E1E70898BB
:1058C000016801201022C4F202029142019000F00E
:1058D000A380FFE70898016801202822C4F2020291
:1058E0009142019000F09880FFE70898016801203C
:1058F0004022C4F202029142019000F08D80FFE745
:105900000898016801205822C4F2020291420190D5
:1059100000F08280FFE70898016801207022C4F23D
:1059200002029142019077D0FFE7089801680120B8
:105930008822C4F20202914201906DD0FFE70898DC
:1059400001680120A022C4F202029142019063D0BA
:10595000FFE7089801680120B822C4F202029142D0
:10596000019059D0FFE708980168012040F21042E9
:10597000C4F20202914201904ED0FFE708980168FC
:10598000012040F22842C4F202029142019043D029
:10599000FFE708980168012040F24042C4F2020289
:1059A0009142019038D0FFE708980168012040F249
:1059B0005842C4F20202914201902DD0FFE70898AC
:1059C0000168012040F27042C4F20202914201904B
:1059D00022D0FFE708980168012040F28842C4F213
:1059E00002029142019017D0FFE708980168012058
:1059F00040F2A042C4F20202914201900CD0FFE7B3
:105A0000089800684FF64831CBF6FD710844B0FAAB
:105A100080F040090190FFE70198C00760B1FFE7FF
:105A20000898806D07900898C06D00F01F013F2016
:105A30008840079988600BE00898806D0690089868
:105A4000C06D00F01F010120884006994860FFE703
:105A50000898016801201022C4F2020291420090CD
:105A600000F00381FFE70898016801202822C4F2B2
:105A700002029142009000F0F880FFE70898016868
:105A800001204022C4F202029142009000F0ED8019
:105A9000FFE70898016801205822C4F202029142EF
:105AA000009000F0E280FFE7089801680120702272
:105AB000C4F202029142009000F0D780FFE70898FC
:105AC000016801208822C4F202029142009000F095
:105AD000CC80FFE7089801680120A022C4F20202EE
