:020000040800F2
:1000000090A80024DD030008F93C0108E10D010877
:10001000493C0108D11A0008716A0208000000007A
:1000200000000000000000000000000081D1010875
:10003000A94A000800000000714E010819EA0108F1
:10004000FB030008FB030008FB030008FB03000898
:10005000FB030008FB030008FB030008FB03000888
:10006000FB030008FB030008FB030008712D0008D8
:10007000FB030008FB030008FB030008FB03000868
:10008000FB030008FB030008FB030008514F0008B6
:1000900009500008614F000819500008FB030008D0
:1000A000FB030008FB030008FB030008FB03000838
:1000B00091EC0108A1EC0108FB030008FB03000818
:1000C000FB030008FB030008FB030008FB03000818
:1000D000FB03000879250208FB030008FB03000866
:1000E000FB030008FB03000800000000FB030008FE
:1000F000FB030008FB030008FB030008FB030008E8
:10010000FB030008FB030008B1EC0108FB03000837
:10011000FB030008FB030008FB030008FB030008C7
:10012000FB030008FB030008FB030008FB030008B7
:10013000FB030008FB030008FB030008FB030008A7
:1001400000000000000000000000000000000000AF
:10015000FB030008FB030008FB030008FB03000887
:10016000FB030008FB030008FB030008FB03000877
:10017000FB030008093F0108FB0300080000000022
:10018000FB030008FB0300083907020849070208BF
:10019000FB030008FB030008FB030008FB03000847
:1001A000FB030008FB030008FB030008000000003D
:1001B000FB030008FB030008FB030008FB03000827
:1001C000FB030008FB030008000000000000000023
:1001D0000000000000000000FB0300080000000019
:1001E000000000000000000000000000000000000F
:1001F0000000000000000000FB030008FB030008F3
:10020000FB030008FB03000800000000FB030008DC
:10021000FB030008FB030008FB030008FB030008C6
:10022000FB03000800000000FB03000800000000C2
:10023000FB030008FB03000800000000FB030008AC
:10024000FB030008FB030008FB030008FB03000896
:10025000FB030008FB030008FB030008FB03000886
:10026000FB030008FB030008FB030008FB03000876
:10027000FB030008FB030008FB030008000000006C
:10028000FB030008FB030008FB030008FB03000856
:1002900000000000FB030008FB0300080000000052
:1002A00000000000FB030008FB03000859070208D8
:1002B00069250208FB030008FB0300082950000819
:1002C00039500008FB030008FB03000800F002F8A7
:1002D00000F074F814A696E8000CB244B344DA4572
:1002E00001D100F06BF8BAE80F000FA696E83000D5
:1002F000A5EB040504EB0607AAEB0704A7F1010729
:100300004FEA15154FEA3414A4F10104AC4201D3AD
:1003100000F054F813F0010F18BFFB1A43F001036B
:1003200000F001F8DBE7184794C30200D4C30200D1
:100330000A444FF0000C10F8013B13F0070408BF0B
:1003400010F8014B1D1108BF10F8015B641E05D0A9
:1003500010F8016B641E01F8016BF9D113F0080F5E
:100360001EBF10F8014BAD1C0C1B09D16D1E58BFF0
:1003700001F801CBFAD505E014F8016B01F8016B27
:100380006D1EF9D59142D6D370470000704700002A
:100390000023002400250026103A28BF78C1FBD88E
:1003A000520728BF30C148BF0B6070471FB52AF005
:1003B000E7FF00F073F91FBD10B510BD00F098F90C
:1003C0001146FFF7F3FF28F0D3FA00F0B6F903B4B3
:1003D000FFF7F2FF03BC00F0B9F900000A488047BC
:1003E0000A4880470A480047FEE7FEE7FEE7FEE7C7
:1003F000FEE7FEE7FEE7FEE7FEE7FEE70548064903
:10040000064A074B70470000914E000829EB01088F
:10041000CD02000898A6002090A8002498A80020EB
:1004200090A4002453EA020C00F069802DE9F04BFF
:100430004FF00006002B1FBFB3FA83F503FA05F453
:1004400024FA05F65E4012BF1643B2FA82F502FAAC
:1004500005F4C5F120051EBF22FA05FC44EA0C0490
:10046000203556EA044C4FEA144418BF641C4FF080
:1004700000084FF00009904271EB030C39D30029BA
:1004800019BFB1FA81F701FA07F6B0FA80F700FA5E
:1004900007F6C7F120071EBF20FA07FC46EA0C0644
:1004A0002037B6FBF4FCA7EB0507103F07F01F0B46
:1004B000CBF120062CFA06F60CFA0BFB44BFB34630
:1004C0000026202FA4BF5E464FF0000B5BEA060C0F
:1004D00008BF4FF0010B19EB0B0948EB0608ABFB0B
:1004E000027C06FB02CC0BFB03CCC01B71EB0C01A6
:1004F000C1E70B46024641464846BDE8F08B13B5BE
:10050000084318BF4FF0FF300146AFF30080BDE84D
:100510001C407047032A40F2308010F0030C00F0BA
:10052000158011F8013BBCF1020F624498BF11F82D
:1005300001CB00F8013B38BF11F8013BA2F10402E6
:1005400098BF00F801CB38BF00F8013B11F003035E
:1005500000F02580083AC0F0088051F8043B083AC2
:1005600051F804CBA0E80810F5E7121D5CBF51F864
:10057000043B40F8043BAFF30080D20724BF11F8DE
:10058000013B11F801CB48BF11F8012B24BF00F843
:10059000013B00F801CB48BF00F8012B704710B5B4
:1005A000203AC0F00B80B1E81850A0E81850B1E82C
:1005B0001850A0E81850203ABFF4F5AF5FEA027C6B
:1005C00024BFB1E81850A0E8185044BF18C918C09B
:1005D000BDE810405FEA827C24BF51F8043B40F83C
:1005E000043B08BF7047D20728BF31F8023B48BF21
:1005F00011F8012B28BF20F8023B48BF00F8012B5F
:1006000070474FF000020429C0F0128010F0030C74
:1006100000F01B80CCF1040CBCF1020F18BF00F8F5
:10062000012BA8BF20F8022BA1EB0C0100F00DB8A4
:100630005FEAC17C24BF00F8012B00F8012B48BF02
:1006400000F8012B70474FF0000200B513469446A6
:100650009646203922BFA0E80C50A0E80C50B1F11A
:100660002001BFF4F7AF090728BFA0E80C5048BF2E
:100670000CC05DF804EB890028BF40F8042B08BFCC
:10068000704748BF20F8022B11F0804F18BF00F8C8
:10069000012B7047704770477047000008487CB5D1
:1006A0007844009007487844009C0546019004E097
:1006B0002046016808448047241DAC42F8D17CBD27
:1006C00058C0020056C0020010B500F009F80068DA
:1006D00010BD10B5044600F003F8046010BD000022
:1006E00000487047000200200048704700020020C8
:1006F0007546FFF7F9FFAE4605006946534620F000
:100700000700854618B020B5FFF778FEBDE8204009
:100710004FF000064FF000074FF000084FF0000BBD
:10072000AC46ACE8C009ACE8C009ACE8C009ACE82C
:10073000C00921F007018D46704710B50446AFF39C
:1007400000802046BDE81040FFF741BE0149182057
:10075000ABBEFEE72600020070470000000000006C
:1007600082B08DED010A9DED010AB5EE400AF1EE71
:1007700010FA07DAFFE79DED010AB1EE400A8DEDB0
:10078000000A04E09DED010A8DED000AFFE79DEDF2
:10079000000A02B07047000082B08DED010A9DEDA5
:1007A000010AB5EE400AF1EE10FA07DAFFE79DED17
:1007B000010AB1EE400A8DED000A04E09DED010A48
:1007C0008DED000AFFE79DED000A02B070470000C2
:1007D00080B582B00090009820B9FFE703208DF823
:1007E000070006E00098407E13F032FB8DF807000A
:1007F000FFE79DF8070002B080BD00000000000088
:1008000080B58AB08DED061ACDED050A8DED040A8E
:10081000CDED032A8DED022ACDED011A9DED040ADE
:100820009DED053A9DED061A9DED015A9DED024A9A
:100830009DED032A30EE050A73EE040A31EE021A2A
:1008400026F01AF98DED070ACDED080A8DED091A8B
:100850009DED070ADDED080A9DED091A0AB080BD7D
:1008600080B586B003AA01920246019805928DF8E0
:10087000131080ED000A00208DF80B00FFE79DF8B3
:100880000B00032825D8FFE79DF813009DF80B10F7
:10089000C840C00708B9FFE715E0019805999DF821
:1008A0000B2001EB820191ED1A0A90ED001A30EE57
:1008B000010A01F01DFE05989DF80B1000EB810068
:1008C00080ED140AFFE79DF80B0001308DF80B0056
:1008D000D5E706B080BD000083B002900191029878
:1008E00045F68411C2F2000188423DD1FFE701982C
:1008F000D0B3FFE70198006844F69861C2F2004166
:10090000009108600198406848600198806888609C
:100910000198C068C8600198006908610198406941
:1009200048610198806988610198C069C86101982F
:10093000006A08620198406A48620198806A886289
:100940000198C06AC8620198006B08630198406B07
:100950004863019890F8380081F83800019890F8C1
:10096000390081F83900FFE703B07047000000004C
:1009700080B582B00190019800F04EF80090009888
:1009800008B9FFE70FE00099C8680130C860009817
:1009900000F09AF80198009900F072F80198009917
:1009A000FFF79AFFFFE702B080BD000000000000E3
:1009B00080B584B003908DF80B108DF80A20039851
:1009C00000F02AF80190019808B9FFE722E09DF8AD
:1009D0000B0028B1FFE701990868013008600DE0BD
:1009E00001994868013048609DF80A0028B1FFE786
:1009F0000199886801308860FFE7FFE7019800F0FF
:100A000063F80398019900F03BF803980199FFF708
:100A100063FFFFE704B080BD82B00090009845F608
:100A2000E401C2F20001884206D1FFE744F64860C3
:100A3000C2F20000019020E0009845F2D841C2F2D5
:100A40000041884207D1FFE744F64860C2F2000047
:100A50003C30019011E0009845F68411C2F200018B
:100A6000884207D1FFE744F64860C2F200007830C0
:100A7000019002E000200190FFE7019802B070476A
:100A800080B58EB00D900C910D9818B1FFE70C98C1
:100A900008B9FFE713E00D9808F03EFD0C99486394
:100AA0000D9801A908F040FD48B9FFE701980C999D
:100AB00081F8380003980C9981F83900FFE70EB0EF
:100AC00080BD00000000000080B584B00390039852
:100AD00008B9FFE767E009F0EBFF02900398006AAE
:100AE000A0B9FFE702980399086203980068039988
:100AF0004862039840680399886203988068039964
:100B0000C8620398C068039908634CE0029803998F
:100B1000096A401A01900198C0087C2801D8FFE7B3
:100B200041E0039800680399496A401A4FF47A71CA
:100B30004843019AB0FBF2F0039A106103984068B1
:100B4000039A926A801A4843019AB0FBF2F0039A22
:100B5000506103988068039AD26A801A4843019AC8
:100B6000B0FBF2F0039A90610398C068039A126B8D
:100B7000801A48430199B0FBF1F00399C8610298CB
:100B800003990862039800680399486203984068D3
:100B900003998862039880680399C8620398C068C3
:100BA00003990863FFE704B080BD00000000000067
:100BB00082B00090009820B9FFE7FF208DF8070071
:100BC0002AE00098006841F20001C4F20101884265
:100BD00004D1FFE700208DF807001DE000980068B1
:100BE00047F60041C4F20001884204D1FFE701202A
:100BF0008DF8070010E00098006841F60001C4F28B
:100C00000101884204D1FFE702208DF8070003E0CC
:100C1000FF208DF80700FFE79DF8070002B070473E
:100C200080B582B08DF803009DF8030000F014F841
:100C300018B9FFE70020019009E09DF8031045F680
:100C40001560C2F2004000EB41100190FFE70198EF
:100C500002B080BD0000000081B08DF803009DF857
:100C600003100020032938BF012001B070470000A5
:100C700080B584B08DF80E009DF80E00FFF7ECFFF4
:100C800020B9FFE701208DF80F0026E09DF80E1037
:100C90004BF65020C0F6020050F8210002909DF85B
:100CA0000E0045F61561C2F2004101EB401243010E
:100CB00000200190C850D061906150611061D060F7
:100CC0009060506002989DF80E2001EB42112022A6
:100CD0000EF016FF8DF80F00FFE79DF80F0004B02F
:100CE00080BD00000000000080B584B08DF80E00CB
:100CF0000291ADF8062000939DF80E00FFF7ACFFBF
:100D000038B1FFE7029820B1FFE7BDF8060020B92F
:100D1000FFE701208DF80F0010E09DF80E104BF654
:100D20005020C0F6020050F821000299BDF80620BC
:100D3000009B0FF0B5FF8DF80F00FFE79DF80F0047
:100D400004B080BD0000000080B59CB00DF1240C03
:100D5000CDF81CC01A9019911892179344F695403B
:100D6000C2F20040007808B9FFE7EAE0EFF3108034
:100D700072B61B9044F60561C2F200010DA828224C
:100D8000FFF7C8FB44F69541C2F20041002008700D
:100D900062B6FF218DF833108DF82300FFE79DF830
:100DA0002300072813D8FFE79DF823100DA8405C07
:100DB000012805D1FFE79DF823008DF8330006E0F8
:100DC000FFE79DF8230001308DF82300E7E79DF849
:100DD0003D0044F28941C2F20041069108709DF83D
:100DE000410044F62F61C2F20001029108709DF8A3
:100DF000420044F65061C2F20041039108709DF830
:100E0000430044F62E61C2F20001049108700DA85F
:100E10000190103028F058FB0198079981ED020AE3
:100E2000143028F051FB0198079981ED010A183020
:100E300028F04AFB0799029B039A0498DDF818C032
:100E400081ED000A9DF833E044F65461C2F200419E
:100E5000059181F800E0DDF82CE0C1F804E0DDF850
:100E600028E0C1F808E0DDF824E0C1F80CE09CF8C7
:100E700000C081F810C01B784B7412788A74007817
:100E8000C8749DF83C0008759DF83E0048759DF8B3
:100E90003F0088759DF84000C875886901308861F9
:100EA00009F006FE059A01460698116201211177A4
:100EB000002182F82C1048F21802C2F20042117090
:100EC00000780138B0FA80F0400901F021FD40F2CD
:100ED0002800C2F200000078012825D1FFE707981A
:100EE0009DF8331090ED020AD0ED010A90ED001A42
:100EF00045F24410C2F2000016F0EAFC44F62F60FE
:100F0000C2F20000017844F65060C2F2004002785C
:100F100044F62E60C2F20000037845F22400C2F2CB
:100F2000000017F0C5F80CE045F24410C2F20000D2
:100F300018F00AFD45F22400C2F2000017F024F96F
:100F4000FFE71CB080BD000080B584B003908DF831
:100F50000B109DF80B001EF03FFC8DF80A009DF869
:100F60000A0001F005FB039801F08AF9039801904B
:100F70009DF80B001EF064FC01989DF80A101DF00E
:100F800077FA04B080BD000080B588B00790069164
:100F90008DF817200493079808B9FFE74AE20798ED
:100FA000007D90B1FFE707989DF817101DF07CFCBD
:100FB00058B9FFE7069820B1FFE7069818F0C4FC7F
:100FC000FFE7079900200875FFE79DF817000799CC
:100FD000087007990020029008710499079A11621D
:100FE0000799C87407998874079908750799C8758F
:100FF00007998862079908760799C86207980321BC
:101000001DF016FA9DF81700182805D0FFE79DF887
:1010100017001D2814D1FFE70F2001F0D1FA07981F
:10102000BBEE0E0A1DF0E0F9079801F029F90798C8
:101030009FEDD10A1DF010FA079825F001FCF9E1A7
:101040009DF817001E283CD1FFE70798BBEE0E0A5B
:101050001DF0CAF9079801F013F907989FEDC60A29
:101060001DF0FAF9069838B9FFE707980699049A2F
:1010700004231AF035FB20E0069818F065FC06986A
:1010800018F032FA0698042118F042FB0698DFEDBA
:10109000BB0A9FEDB91AB0EE410A18F035FA20B933
:1010A000FFE707990120087506E007980699049A5A
:1010B00004231AF015FBFFE7FFE7079825F0C0FBB4
:1010C000B8E19DF817001A283FD1FFE70798BBEE5B
:1010D0000E0A1DF089F9079801F0D2F807989FEDE4
:1010E000A60A1DF0B9F9069820B1FFE7069818F096
:1010F0002BFCFFE725F020FB18BBFFE7069838B96B
:10110000FFE707980699049A04231AF0E9FA17E012
:10111000069818F0E9F90698002118F0F9FA0698EF
:10112000DFEDC80A9FEDC41AB0EE410A18F08CFB3F
:101130000799012008750798049925F01DFBFFE722
:10114000FFE7079825F07CFB74E19DF817001B284A
:101150003FD1FFE70798BBEE0E0A1DF045F907984F
:1011600001F08EF807989FEDB40A1DF075F9069806
:1011700020B1FFE7069818F0E7FBFFE703F05CFDFE
:1011800018BBFFE7069838B9FFE707980699049A55
:1011900004231AF0A5FA17E0069818F0A5F90698A6
:1011A000002118F0B5FA0698DFEDA60A9FEDA21A05
:1011B000B0EE410A18F048FB07990120087507981E
:1011C000049903F0D5FCFFE7FFE7079825F038FB0B
:1011D00030E19DF817001C283CD1FFE70798BBEED3
:1011E0000E0A1DF001F9079801F04AF807989FEDE3
:1011F000920A1DF031F9069838B9FFE70798069969
:10120000049A04231AF06CFA20E0069818F09CFB6C
:10121000069818F069F90698042118F079FA0698EA
:10122000DFED870A9FED841AB0EE410A18F06CF9E1
:1012300020B9FFE707990120087506E0079806998D
:10124000049A04231AF04CFAFFE7FFE7079825F009
:10125000F7FAEFE09DF8170019283CD1FFE707984F
:10126000BBEE0E0A1DF0C0F8079801F009F80798C8
:101270009FED710A1DF0F0F8069838B9FFE707985E
:101280000699049A04231AF02BFA20E0069818F025
:101290005BFB069818F028F90698042118F038FA34
:1012A0000698DFED660A9FED641AB0EE410A18F069
:1012B0002BF920B9FFE707990120087506E0079888
:1012C0000699049A04231AF00BFAFFE7FFE7079840
:1012D00025F0B6FAAEE09DF81700002800F08080F7
:1012E000FFE79DF817000190079801F045FC0146C3
:1012F0000198884274D8FFE7079801F051FC9DF8E7
:10130000171000EB41102038039007980399897952
:101310001DF08EF80798039991ED020AD1ED030AAA
:1013200091ED041AD1ED051A1DF0CEF8039800795D
:1013300028B9FFE70398407901F042F94CE003989F
:10134000007901280FD1FFE70398807901F010F9A7
:10135000079800F095FF0798039991ED060A89799F
:101360001DF086F837E003980079022832D1FFE7B4
:10137000069860B904E000BF00000000CDCC4CBE70
:1013800007980699049A04231AF0AAF921E006980E
:1013900018F0DAFA069818F0A7F80698042118F061
:1013A000B7F906980399D1ED060A9FED231AB0EE1E
:1013B000410A18F0A9F820B9FFE70799012008753C
:1013C00006E007980699049A04231AF089F9FFE7C2
:1013D000FFE7FFE7FFE7FFE7079825F031FA29E08D
:1013E0009DF81700162821D1FFE7069828B1FFE7DE
:1013F0000698012118F08CF9FFE707990020C870C2
:10140000079988760799012008710798BBEE0E0AA4
:101410001CF0EAFF079800F033FF07989FED060ADB
:101420001DF01AF8079825F00BFA03E0079825F04D
:1014300007FAFFE708B080BD000000008FC2F53C4E
:101440000AD7A33B0AD7A33D80B58CB00B900A9175
:101450008DF8272008930B9808B9FFE79FE10B98B8
:1014600025F0EEF90B98007D58B1FFE70A9820B1FE
:10147000FFE70A9818F068FAFFE70B990020087553
:10148000FFE70B99012088700B990020C8700B9919
:1014900008730B9908720B9948720B9988720B9814
:1014A000807B30B1FFE70B990020C8720B9948731D
:1014B00003E00B9801F048F8FFE70B990020087053
:1014C0000B99087108990B9A11629DF827100B9AD5
:1014D00091740B9A0121D1740B9908750B9948717D
:1014E0009DF82700013801460691262800F2458123
:1014F0000699DFE811F02700390044004F004F0043
:101500004F00550070007B008600860086000801B1
:1015100023012E0139014F004F004F008600860045
:1015200086005E00670011011A014F004F004F0056
:101530004F004F004F004F004F004F004F004F0033
:101540004F0030000F2001F03BF80B989FED960AFA
:101550001CF04AFF1FE10F2001F032F80B989FEDBD
:10156000930A1CF041FF16E10F20059001F028F8C6
:1015700005990B98B2EE040AFFF772F90BE10F2000
:10158000049001F01DF804990B98BAEE040AFFF7D5
:1015900067F900E10B989DF82710FFF7D5FCFAE0FA
:1015A000092001F00DF80B989FED7E0A1CF078FFE2
:1015B000F1E0092001F004F80B989FED7B0A1CF084
:1015C0006FFFE8E0092000F0FBFF0B98BBEE0E0A6E
:1015D0001CF066FFDFE00920039000F0F1FF0399A3
:1015E0000B98B2EE040AFFF73BF9D4E00920029011
:1015F00000F0E6FF02990B98BAEE040AFFF730F903
:10160000C9E0002007900A9860B9FFE70B99487974
:1016100040F0040048710B990020C8740B99172002
:101620000870B8E00A9818F08FF90A9817F05CFF74
:101630000A98042118F06CF89DF827000A2806D1B2
:10164000FFE74CF6CD40C3F6CC5007903BE09DF849
:1016500027000B2806D1FFE74CF6CD40C3F64C50CF
:1016600007902FE09DF827000C2806D1FFE74CF6E5
:10167000CD40CBF64C50079023E09DF8270014286E
:1016800006D1FFE74CF6CD40CBF6CC50079017E0E3
:101690009DF82700152806D1FFE749F69A10C3F6F2
:1016A000996007900BE09DF82700162806D1FFE708
:1016B00049F69A10CBF699600790FFE7FFE7FFE73E
:1016C000FFE7FFE7FFE70A98DDED070A9FED351A10
:1016D000B0EE410A17F018FF20B9FFE70B9901207F
:1016E0000875FFE70B98007D60B9FFE70B99487913
:1016F00040F0040048710B990020C8740B99172022
:101700000870FFE747E0062000F05AFF0B989FEDB6
:10171000250A1CF005FF3EE0062000F051FF0B9863
:101720009FED210A1CF0FCFE35E0062000F048FF8A
:101730000B98BBEE0E0A1CF0F3FE2CE00620019085
:1017400000F03EFF01990B98B2EE040AFFF788F80B
:1017500021E00620009000F033FF00990B98BAEECC
:10176000040AFFF77DF816E00F2000F029FF0B9820
:101770009FED0C0A1CF038FE0DE00B99487940F003
:10178000040048710B990020C8740B9988740B9958
:1017900017200870FFE70B9825F052F8FFE70CB010
:1017A00080BD00BF0000000000005C4300009643C5
:1017B00080B586B005908DF81310039202930298BD
:1017C00008B9FFE780E10298B021FEF73CFF9DF8E1
:1017D0001300029908700298002100918171084657
:1017E0001CF05EFF0299C86113F03AFB01460098B5
:1017F000029AD172029A4FF24911C4F2E74111667E
:10180000029A45F6B401C4F2B74151668DF807005B
:10181000FFE79DF80700032813D8FFE79DF807208E
:101820004BF65C20C0F6020050F82200029901EB52
:1018300082018866FFE79DF8070001308DF80700F8
:10184000E7E700208DF80700FFE79DF80700012873
:1018500013D8FFE79DF807204BF64820C0F602009A
:1018600050F82200029901EB82018867FFE79DF89A
:10187000070001308DF80700E7E7039800284BD0F8
:10188000FFE700208DF80700FFE79DF80700032819
:1018900015D8FFE703989DF8071000EB4100B0F85A
:1018A000A00002999DF8072001EB4201A1F8A000D9
:1018B000FFE79DF8070001308DF80700E5E70020FD
:1018C0008DF80700FFE79DF80700012823D8FFE700
:1018D00003989DF8071000EB4100B0F8A8000299AA
:1018E0009DF8072001EB4201A1F8A80003989DF89C
:1018F000071000EB4100B0F8AC0002999DF80720FA
:1019000001EB4201A1F8AC00FFE79DF807000130B0
:101910008DF80700D7E7FFE7059808B9FFE7D3E0A0
:101920000598007802994870059880780299887027
:101930000598C0780299C8700598007902990871D5
:1019400005984079029948710598807902998871C3
:101950000598007A029908720598407A02994872AF
:101960000598807B029988720598006A029908613F
:101970000598406A029948610598017880791CF0C1
:101980008FFE0299C861059816F0FEF90299C87198
:101990000598FEF71DFF029908730598007828B195
:1019A000FFE705980078162808D1FFE70598C07C66
:1019B00020B9FFE702990020886106E00598016AD6
:1019C000406A401A02998861FFE700208DF80700FD
:1019D000FFE79DF80700032826D8FFE705989DF844
:1019E000072000EB8200806E029901EB8201086201
:1019F00005989DF8072000EB8200006D029901EB2D
:101A00008201086305989DF8072000EB8200006BB7
:101A1000029901EB8201C1F88000FFE79DF8070001
:101A200001308DF80700D4E700208DF80700FFE7AC
:101A30009DF80700012847D8FFE705989DF8072083
:101A400000EB8200806F029901EB82010864059827
:101A50009DF8072000EB8200D0F88000029901EB8E
:101A60008201886405989DF8072000EB8200D0F879
:101A70008800029901EB8201086505989DF807200E
:101A800000EB8200006E029901EB820188650598E7
:101A90009DF8072000EB8200006C029901EB8201A7
:101AA000C1F8900005989DF8072000EB8200806C3B
:101AB000029901EB8201C1F89800FFE79DF8070049
:101AC00001308DF80700B3E706B080BD00000000CC
:101AD000FFE7FEE70000000080B5BAB0399041F2A0
:101AE000883026F0A9FFFFE7002038903790369025
:101AF00035908DF82B008DF82A0002208DF82900F2
:101B000046F62260C3F6D610099027F0E5FE40F2B3
:101B10002800C2F200000078012821D1FFE745F239
:101B20004413C2F20003D3F8FC00D3F80011D3F839
:101B30000421D3F80831389337923691359045F225
:101B40002401C2F2000111A89022FEF728FD012015
:101B50008DF82B008DF82A0000208DF8290028E050
:101B600044F28840C2F200400078012820D1FFE70B
:101B700045F25423C2F20003D3F8FC00D3F800115D
:101B8000D3F80421D3F80831389337923691359041
:101B900045F2B401C2F2000111A89022FEF7FFFC49
:101BA00001208DF82B008DF82A008DF82900FFE721
:101BB000FFE727F0BDFE9DF82B00002841D0FFE78E
:101BC0009DED360AB1EE400A9DED091A80EE010A3C
:101BD000012013F03DF8BDEEC00A10EE100A069089
:101BE0009DED380AB1EE400A9DED091A80EE010A1A
:101BF000022013F02DF8BDEEC00A10EE100A079077
:101C00009DED370A9DED091A80EE010A032013F0BD
:101C10001FF8BDEEC00A10EE100A08909DED350ABF
:101C20009DED091A80EE010A042013F011F80698C0
:101C30000799089ABDEEC00A10EE103A03F03CF97D
:101C400006E00023184619461A4603F035F9FFE767
:101C50009DF82A0028B1FFE711A80BA915F0D8FEBE
:101C600075E09FED4D0A8DED040A012013F01CF87C
:101C7000B0EE401A9DED040ABDEEC11A11EE100A35
:101C8000ADF82C00022013F00FF8B0EE401A9DEDD5
:101C9000040ABDEEC11A11EE100AADF82E000320A1
:101CA00013F002F8B0EE401A9DED040ABDEEC11A21
:101CB00011EE100AADF83000042012F0F5FFB0EE7E
:101CC000401A9DED040ABDEEC11A11EE100AADF8DE
:101CD00032000520029012F0BBFFB0EE401A9DEDDD
:101CE000040ABDEEC11A11EE100AADF83400062048
:101CF000039012F0ADFF0298B0EE401A9DED040A79
:101D0000BDEEC11A11EE101AADF836100021059182
:101D1000ADF83810ADF83A1012F0C6FF0398B0EEE7
:101D2000401A9DED040ABDEEC11A11EE101AADF86D
:101D30003C1012F0B9FF0598BDEEC00A10EE101A63
:101D4000ADF83E10ADF84000ADF84200FFE79DF859
:101D500029000BA916F048F9BDF93400BDF9361079
:101D6000002301931A4603F0C7F8BDF92C00BDF912
:101D70002E10BDF93020BDF9323003F0F9F8019B87
:101D8000BDF93C00BDF93E101A4603F011F90120DF
:101D900026F052FEA8E600BF000000000000000090
:101DA00080B586B00490039100200290049818B189
:101DB000FFE7039818B9FFE70020059027E0FFE749
:101DC0000298039988421FD2FFE769460DF1070088
:101DD000086046F68460C2F2004046F6D011C2F2B6
:101DE000000145F68462C2F200424FF4805319F0BC
:101DF00003F908B9FFE707E09DF807000499029A84
:101E0000531C02938854DBE702980590FFE705987E
:101E100006B080BD0000000080B547F61070C2F229
:101E20000040006846F6E411C2F2000109684FF470
:101E3000805219F0D1F880BD80B584B045F20860B9
:101E4000C2F20000D0F8BC0208B9FFE77AE045F220
:101E50000860C2F20000D0F8BC02039046F6E01021
:101E6000C2F20000006808B1FFE76BE00398D0F809
:101E7000140208B1FFE765E047F61070C2F20040B7
:101E8000006846F6E411C2F2000109684FF480527E
:101E900019F022F90290029808B9FFE752E047F6DC
:101EA0001070C2F20040006846F6E411C2F2000170
:101EB000096888420DD9FFE747F61070C2F200406A
:101EC000006846F6E411C2F200010968401A019068
:101ED00008E046F6E410C2F200000068C0F5805049
:101EE0000190FFE701980299884203D9FFE7029821
:101EF0000190FFE70198B0F5007F04D9FFE74FF4A8
:101F000000700190FFE746F6E410C2F2000001689D
:101F100046F61070C2F200400144BDF8042045F2BC
:101F20000860C2F20000009020F02AFF009821F023
:101F300033F838B9FFE7019846F6E011C2F2000124
:101F40000860FFE704B080BD80B586B004900391BF
:101F5000049818B1FFE7039820B9FFE701208DF836
:101F600017003FE047F61070C2F20040006846F6E6
:101F7000E411C2F2000109684FF4805219F02CF804
:101F8000019003980199884204D9FFE700208DF859
:101F9000170027E000200290FFE70298039988428B
:101FA0001AD2FFE704980299405C6946086047F638
:101FB0001070C2F2004046F6E411C2F2000146F68B
:101FC0001072C2F200424FF4805319F055F8FFE747
:101FD000029801300290E0E7FFF72EFF01208DF814
:101FE0001700FFE79DF8170006B080BD0000000055
:101FF00084B08DF80F000291ADF80620FFE70120B4
:1020000008B9FFE7FBE79DF80F0001460091232880
:102010002FD80099DFE801F012131415162D2D2D7D
:102020002D2D2D2D2D2D2D2D2D2D2D2D2D2D2D2DE0
:102030002D2D2D2D2D2D2D2D17182B2C1AE019E0BF
:1020400018E017E016E015E0029900200870029AE7
:10205000C2215170029A012191700299C8700299AF
:1020600008710299487102990820887102E001E024
:1020700000E0FFE7002004B070470000000000000F
:10208000002070470000000080B582B045F2086073
:10209000C2F20000009044F28A41C2F200410022E4
:1020A000019220F06DFE009844F2B451C2F200019A
:1020B00020F046FE0199009846F68462C2F2004282
:1020C000116046F6D012C2F20002116047F610729B
:1020D000C2F20042116046F6E412C2F20002116040
:1020E00046F6E012C2F20002116045F68062C2F2CA
:1020F0000042116020F0C8FD019802B080BD0000D0
:1021000080B586B00590049100200390FFE7039806
:1021100004990968884224D2FFE705980399405C36
:102120006946086046F68460C2F2004046F6D01167
:10213000C2F2000145F68462C2F200424FF48053BD
:1021400018F09AFF40B9FFE745F68061C2F20041FE
:10215000086801300860FFE7FFE70398013003904B
:10216000D5E7059945F20860C2F20000029020F020
:10217000E7FD029820F088FD002006B080BD000039
:1021800080B584B0039002918DF8072000208DF86F
:10219000060046F6E413C2F200031A6846F6E011A0
:1021A000C2F20001D1F800C062446FF31F321A601E
:1021B0000860FFF741FE9DF9060004B080BD0000F5
:1021C00084B00290ADF806104FF6FF70ADF8040031
:1021D000029820B1FFE7BDF8060028B9FFE7BDF877
:1021E0000400ADF80E0047E00020ADF80200FFE764
:1021F000BDF80200BDF80610884238DAFFE7029801
:10220000BDF80210415CBDF804004840ADF8040080
:1022100000208DF80100FFE79DF8010007281FD876
:10222000FFE7BDF80400C00768B1FFE7BDF8040090
:102230004008ADF80400BDF804004AF2010148402E
:10224000ADF8040005E0BDF804004008ADF8040056
:10225000FFE7FFE79DF8010001308DF80100DBE7A3
:10226000FFE7BDF802000130ADF80200C0E7BDF89D
:102270000400ADF80E00FFE7BDF80E0004B0704793
:1022800081B0009046F2B000C2F20000C16F009A27
:102290001164D0F898000099486446F29010C2F298
:1022A0000000C16F009A9164D0F898000099C8644A
:1022B00001B070470000000082B0019000208DF84E
:1022C0000300FFE79DF80300032816D8FFE79DF8F9
:1022D0000320C2EBC20146F29010C2F2000000EBF4
:1022E0008100C068019901EB82010863FFE79DF856
:1022F000030001308DF80300E4E702B070470000EE
:1023000081B00090009808B9FFE720E046F27870AD
:10231000C2F200004168009A11608168009A516021
:10232000C168009A916000690099C86046F2C8705F
:10233000C2F200004168009A11618168009A5161FF
:10234000C168009A916100690099C861FFE701B016
:10235000704700000000000080B546F27870C2F2BD
:10236000000012F055FA46F2C870C2F2000012F0F6
:102370004FFA80BD0000000080B596B08DED150AC3
:1023800068460FF08DFB9DED0D0ADDED150A46F256
:10239000C870C2F2000012F007F916B080BD00004C
:1023A00080B582B00190019808B9FFE722E001985A
:1023B000006846F27871C2F20001486001984068F6
:1023C000886001988068C8600198C06808610198B9
:1023D000006946F2C871C2F2000148600198406984
:1023E000886001988069C8600198C0690861FFF73A
:1023F000B3FFFFE702B080BD80B598B08DED170A3E
:1024000002A80FF04DFB9DED170A9DED0C1A30EE62
:10241000410A8DED010A9DED010A03F0CDFC8DED21
:10242000010ADDED010A46F27870C2F200009FED6C
:10243000090A12F0B9F88DED000A9DED0F0ADDEDE5
:10244000000A46F2C870C2F2000012F0ADF818B0EF
:1024500080BD00BF0000000082B0ADF80400ADF800
:102460000210ADF80020BDF90400BDF90210884249
:102470000BDBFFE7BDF90400BDF90010884204DC66
:10248000FFE701208DF8070003E000208DF807002A
:10249000FFE79DF8070002B0704700000000000051
:1024A00084B08DED020ACDED010A8DED001A9DED8F
:1024B000020A9DED011AB4EE410AF1EE10FA03DAB8
:1024C000FFE7019803900FE09DED020A9DED001AD1
:1024D000B4EE410AF1EE10FA03DDFFE70098039035
:1024E00002E002980390FFE79DED030A04B07047F5
:1024F00082B08DED000A9DED000ABBEE0E1AB4EE1F
:10250000410AF1EE10FA05DAFFE70020CCF2F010F4
:10251000019011E09DED000A9FED091AB4EE410A09
:10252000F1EE10FA05DDFFE70020C4F2A0300190C3
:1025300002E000980190FFE79DED010A02B07047AC
:102540000000A0430000000081B00090009808B98E
:10255000FFE70BE000990020C872009948730099CA
:1025600088730099C87300994870FFE701B07047FD
:1025700080B582B08DF807009DF8070011F068FC67
:102580008DF807009DF80700C00738B1FFE7052068
:1025900011F0B2FF062011F0AFFFFFE79DF8070032
:1025A0008007002807D5FFE7052011F0D1FF06209E
:1025B00011F0CEFFFFE702B080BD00000000000078
:1025C00080B582B08DF8070000208DF80600FFE787
:1025D0009DF80600032816D8FFE79DF807009DF830
:1025E0000610C840C00738B1FFE79DF8060001306B
:1025F000C0B211F0ADFFFFE7FFE79DF80600013024
:102600008DF80600E4E702B080BD00000000000085
:1026100080B584B0029000208DF80600029820B9A1
:10262000FFE700208DF80F0065E00298407E00F083
:1026300003008DF805009DF8050020B9FFE7032091
:102640008DF80500FFE700208DF80700FFE79DF8F3
:10265000070001284AD8FFE701208DF804009DF803
:102660000500C00798B1FFE702989DF8071000EB3E
:102670008100D0ED180A90ED1E0AB1EE041A00F0A8
:102680001BF920B9FFE700208DF80400FFE79DF853
:1026900005008007002813D5FFE702989DF8071072
:1026A00000EB8100D0ED180A90ED200AB1EE041A7B
:1026B00000F002F920B9FFE700208DF80400FFE7E1
:1026C0009DF8040058B1FFE79DF80710012000FABB
:1026D00001F19DF8060008438DF80600FFE7FFE7CB
:1026E0009DF8070001308DF80700B0E79DF806005F
:1026F0008DF80F00FFE79DF80F0004B080BD0000CB
:1027000080B584B0029000208DF80600029820B9B0
:10271000FFE700208DF80F002EE000208DF8070065
:10272000FFE79DF80700032821D8FFE702989DF8EE
:10273000071000EB8100D0ED140A90ED1A0AB0EEFC
:10274000081A00F0B9F858B1FFE79DF8071001200A
:1027500000FA01F19DF8060008438DF80600FFE736
:10276000FFE79DF8070001308DF80700D9E79DF8D5
:1027700006008DF80F00FFE79DF80F0004B080BD44
:1027800080B582B046F29010C2F20000062111F02E
:1027900083FA8DF8070046F2B000C2F20000D0F8CC
:1027A0008800332806D3FFE79DF8070001308DF835
:1027B0000700FFE746F2B000C2F20000D0F8A40024
:1027C000332806D3FFE79DF8070001308DF8070096
:1027D000FFE79DF8070002B080BD00000000000088
:1027E00083B001908DF80310019820B9FFE7002015
:1027F0008DF80B0059E00198407928B9FFE701985E
:102800000078172804D1FFE704208DF80B004CE076
:1028100001980078162804D1FFE703208DF80B00FB
:1028200043E00198807B20B1FFE705208DF80B0085
:102830003BE00198C07840BBFFE70198C07C20BB1B
:10284000FFE70198007D00BBFFE70198007AE0B93F
:10285000FFE70198407AC0B9FFE70198807AA0B9F4
:10286000FFE70198C07A80B9FFE70198407C60B922
:10287000FFE70198007B40B9FFE70198007840B17D
:10288000FFE70198007920B9FFE702208DF80B00DF
:102890000BE09DF8030020B1FFE701208DF80B004D
:1028A00003E000208DF80B00FFE79DF80B0003B05C
:1028B000704700000000000084B08DED030ACDEDEC
:1028C000020A8DED011A9DED030A9DED021A30EE0C
:1028D000410A8DED000A9DED000AB5EE400AF1EEC9
:1028E00010FA07DAFFE79DED000AB1EE400A8DED20
:1028F000000AFFE79DED000A9DED011A0020B4EEED
:10290000410AF1EE10FAD8BF012004B07047000070
:1029100081B08DF803009DF8030001280DD1FFE779
:1029200044F28841C2F200410120087040F22801BF
:10293000C2F20001002008700CE040F22801C2F24F
:1029400000010120087044F28841C2F200410020D9
:102950000870FFE701B0704780B584B0039040F67F
:10296000B83026F069F811F05FF845F25C60C2F209
:10297000004044F60461C2F2000101220EF018F991
:1029800010F082FB45F24410C2F2000040F26811E0
:10299000C2F2000100919FED2B0A8DED010A16F0A5
:1029A000CBFB00999DED010A45F25420C2F20000D4
:1029B00016F0C2FB45F22400C2F2000015F0B0F997
:1029C00045F2B400C2F2000015F0AAF945F29000F9
:1029D000C2F2004012F020FF45F28C30C2F20040FB
:1029E00017F056FC18F07CF927F00EFC45F6106144
:1029F000C2F20041086045F60870C2F200000CF017
:102A00004BFAFFE70121084626F046FE02900298A5
:102A100018B9FFE701200290FFE7FFE7029830B105
:102A2000FFE715F0F9FE029801380290F6E746F646
:102A30002C20C2F20000011D00F108020023FEF765
:102A400083F9DFE76F12833A80B58AB08DF82700EB
:102A50000891079200200690059004900390089832
:102A60000290089806300190042004909DF82700F9
:102A70005038014600910F2842D80099DFE801F054
:102A80001A081D1122272A2D303336404040403984
:102A900034200690032004904020059001200390EC
:102AA0002FE03D200690032004902E200590012069
:102AB000039026E03020069023E037200690032084
:102AC00007901EE03A2006900320079019E041206D
:102AD000069016E04520069013E04920069010E08D
:102AE0004D2006900DE0512006900AE055200690FA
:102AF00007E046F6E810C2F200000068069000E029
:102B000038E00798032805D1FFE703200490002050
:102B10000390FFE70498A8B1FFE7069946F6AC00DA
:102B2000C2F2000000EB41000299049A5200FDF746
:102B3000F1FC45F62400C2F20040026806980499B0
:102B40009047FFE70398A8B1FFE7059946F6AC0068
:102B5000C2F2000000EB41000199039A5200FDF718
:102B6000D9FC45F62400C2F200400268059803999A
:102B70009047FFE70AB080BD80B582B00190019810
:102B800020B1FFE701988079009002E000200090DA
:102B9000FFE70098C0B203F0DFF802B080BD00008C
:102BA00080B582B00190019820B1FFE7019880794B
:102BB000009002E000200090FFE70098C0B203F010
:102BC000DFF802B080BD000080B588B006900591A6
:102BD0000698007804900698FFF7E2FF02900698A6
:102BE000FFF7CAFF019006980078182807D1FFE781
:102BF00006980F2110F0DCF98DF81F00A4E006986C
:102C000000781D2807D1FFE706980F2110F0D0F9B2
:102C10008DF81F0098E0069800781E2811D1FFE774
:102C2000059850B1FFE7059816F072FA022804D112
:102C3000FFE701208DF81F0086E000208DF81F00BF
:102C400082E0069800781A2805D1FFE723F074FD8A
:102C50008DF81F0078E0069800781B2805D1FFE763
:102C600001F0EAFF8DF81F006EE0069800781C283E
:102C700011D1FFE7059850B1FFE7059816F048FA23
:102C8000022804D1FFE701208DF81F005CE000203E
:102C90008DF81F0058E006980078192811D1FFE739
:102CA000059850B1FFE7059816F032FA022804D1D2
:102CB000FFE701208DF81F0046E000208DF81F007F
:102CC00042E0049828B1FFE704980199884204D9AA
:102CD000FFE700208DF81F0036E00298049900EB12
:102CE0004110203803900398007940B9FFE7069817
:102CF0000399497910F05CF98DF81F0024E00398DE
:102D00000079012806D1FFE7069802F005F88DF852
:102D10001F0019E003980079022811D1FFE70598F8
:102D200050B1FFE7059816F0F3F9022804D1FFE748
:102D300001208DF81F0007E000208DF81F0003E040
:102D400000208DF81F00FFE79DF81F0008B080BD30
:102D500080B502F0F1F802F04BF945F68410C2F2AA
:102D6000000002F009FB02F0CFFB80BD0000000074
:102D700080B545F26040C2F2004004F0DDF880BD4D
:102D800083B002900298016801201022C4F202026E
:102D90009142009000F0A380FFE7029801680120B3
:102DA0002822C4F202029142009000F09880FFE7CE
:102DB0000298016801204022C4F202029142009070
:102DC00000F08D80FFE70298016801205822C4F2CC
:102DD00002029142009000F08280FFE702980168B1
:102DE00001207022C4F202029142009077D0FFE7E6
:102DF0000298016801208822C4F2020291420090E8
:102E00006DD0FFE7029801680120A022C4F20202FF
:102E10009142009063D0FFE7029801680120B82238
:102E2000C4F202029142009059D0FFE70298016873
:102E3000012040F21042C4F20202914200904ED0B2
:102E4000FFE702980168012040F22842C4F2020222
:102E50009142009043D0FFE702980168012040F2C0
:102E60004042C4F202029142009038D0FFE702983B
:102E70000168012040F25842C4F2020291420090DF
:102E80002DD0FFE702980168012040F27042C4F2A1
:102E900002029142009022D0FFE7029801680120CF
:102EA00040F28842C4F202029142009017D0FFE73C
:102EB00002980168012040F2A042C4F2020291424D
:102EC00000900CD0FFE7029800684FF64831CBF62F
:102ED000FD710844B0FA80F040090090FFE70098C7
:102EE000C00740B3FFE70298007810384AF6AB21DC
:102EF000CAF6AA21A0FB011000090190019800F078
:102F000007014BF2F450C0F60200405C0299C8651C
:102F10000198042807D3FFE702990868042262F3A6
:102F20000900886506E00299086840F2FF32904384
:102F30008865FFE705E00299086820F0FF008865D2
:102F4000FFE70298806D03B07047000000000000AA
:102F500084B00390039800680190039801680120F1
:102F600045F20842C5F60202914200904ED0FFE7BA
:102F700003980168012045F21C42C5F60202914205
:102F8000009043D0FFE703980168012045F23042EA
:102F9000C5F602029142009038D0FFE7039801681D
:102FA000012045F24442C5F60202914200902DD024
:102FB000FFE703980168012045F25842C5F6020276
:102FC0009142009022D0FFE703980168012045F26A
:102FD0006C42C5F602029142009017D0FFE70398B9
:102FE0000168012045F28042C5F60202914200903C
:102FF0000CD0FFE7039800684AF66C31CAF2FD7105
:103000000844B0FA80F040090090FFE70098C0073C
:1030100010B3FFE70398007808384CF6CD41CCF6A2
:10302000CC41A0FB011000090290029945F6000076
:10303000C5F6020000EB810003990866039945F686
:103040008000C5F602004866029800F01F010120CA
:1030500088400399886635E00398007810384AF66E
:10306000AB21CAF6AA21A0FB011000090290019829
:1030700040F2B841C4F2020188420CD8FFE701983F
:1030800040F21041C4F20201884204D3FFE70298E3
:1030900008300290FFE7029940F60000C4F20200F7
:1030A00000EB810003990866039940F68000C4F2A2
:1030B00002004866029800F01F0101208840039931
:1030C0008866FFE704B0704783B0029002980079E9
:1030D00001900198002800F08A80FFE701980828F5
:1030E00000F28580FFE702980168012045F208425E
:1030F000C5F60202914200904ED0FFE702980168A7
:10310000012045F21C42C5F602029142009043D0D4
:10311000FFE702980168012045F23042C5F602023D
:103120009142009038D0FFE702980168012045F2F3
:103130004442C5F60202914200902DD0FFE702986A
:103140000168012045F25842C5F602029142009002
:1031500022D0FFE702980168012045F26C42C5F6D3
:1031600002029142009017D0FFE702980168012007
:1031700045F28042C5F60202914200900CD0FFE772
:10318000029800684AF66C31CAF2FD710844B0FA40
:1031900080F040090090FFE70098C00780B1FFE78A
:1031A000019945F6FC00C5F6020000EB810002998A
:1031B000C866029945F64010C5F6020008670FE0A0
:1031C000019940F6FC00C4F2020000EB8100029974
:1031D000C866029940F64010C4F202000867FFE793
:1031E0000198411E0120884002994867FFE703B01B
:1031F000704700000000000085B0049000208DF8AA
:103200000F000498806918BBFFE70498806A029059
:1032100003281BD80299DFE801F0020D0218049878
:1032200090F82F00C00720B1FFE701208DF80F00B4
:10323000FFE70CE00498C06AB0F1C07F04D1FFE75B
:1032400001208DF80F00FFE701E000E0FFE747E015
:1032500004988069B0F5005F26D1FFE70498806A82
:10326000019003281ED80199DFE801F0020602113F
:1032700001208DF80F0016E0049890F82F00C00789
:1032800020B1FFE701208DF80F00FFE70BE0049865
:10329000C06AB0F1C07F04D1FFE701208DF80F00B4
:1032A000FFE700E0FFE71AE00498806A0090032837
:1032B00004D3FFE70098032804D00EE001208DF826
:1032C0000F000BE0049890F82F00C00720B1FFE733
:1032D00001208DF80F00FFE700E0FFE7FFE7FFE7C1
:1032E0009DF80F0005B0704789B0089007910692CD
:1032F00005930898806D04900898806D0390089855
:10330000016801201022C4F202029142029000F0F2
:103310000381FFE70898016801202822C4F2020215
:103320009142029000F0F880FFE7089801680120C0
:103330004022C4F202029142029000F0ED80FFE7C9
:103340000898016801205822C4F2020291420290BA
:1033500000F0E280FFE70898016801207022C4F2C3
:1033600002029142029000F0D780FFE708980168BE
:1033700001208822C4F202029142029000F0CC8027
:10338000FFE7089801680120A022C4F202029142DE
:10339000029000F0C180FFE7089801680120B82280
:1033A000C4F202029142029000F0B680FFE7089852
:1033B0000168012040F21042C4F2020291420290E0
:1033C00000F0AA80FFE708980168012040F2284237
:1033D000C4F202029142029000F09E80FFE708983A
:1033E0000168012040F24042C4F202029142029080
:1033F00000F09280FFE708980168012040F25842EF
:10340000C4F202029142029000F08680FFE7089821
:103410000168012040F27042C4F20202914202901F
:103420007AD0FFE708980168012040F28842C4F290
:103430000202914202906FD0FFE7089801680120D4
:1034400040F2A042C4F202029142029064D0FFE72F
:1034500008980168012040F2B842C4F20202914289
:10346000029059D0FFE708980168012045F2084210
:10347000C5F60202914202904ED0FFE7089801681B
:10348000012045F21C42C5F602029142029043D04F
:10349000FFE708980168012045F23042C5F60202B4
:1034A0009142029038D0FFE708980168012045F268
:1034B0004442C5F60202914202902DD0FFE70898DF
:1034C0000168012045F25842C5F60202914202907D
:1034D00022D0FFE708980168012045F26C42C5F64A
:1034E00002029142029017D0FFE70898016801207C
:1034F00045F28042C5F60202914202900CD0FFE7ED
:10350000089800684AF66C31CAF2FD710844B0FAB6
:1035100080F040090290FFE70298C00770B1FFE712
:103520000898416E806E48600898C06E28B1FFE729
:103530000898016F406F4860FFE7FFE7089801684F
:1035400001201022C4F202029142019000F0A380F7
:10355000FFE70898016801202822C4F20202914284
:10356000019000F09880FFE7089801680120402250
:10357000C4F202029142019000F08D80FFE70898AA
:10358000016801205822C4F202029142019000F029
:103590008280FFE70898016801207022C4F20202CD
:1035A0009142019077D0FFE70898016801208822B6
:1035B000C4F20202914201906DD0FFE708980168C1
:1035C0000120A022C4F202029142019063D0FFE7E1
:1035D000089801680120B822C4F2020291420190C9
:1035E00059D0FFE708980168012040F21042C4F268
:1035F0000202914201904ED0FFE708980168012035
:1036000040F22842C4F202029142019043D0FFE707
:1036100008980168012040F24042C4F2020291423F
:10362000019038D0FFE708980168012040F2584225
:10363000C4F20202914201902DD0FFE70898016880
:10364000012040F27042C4F202029142019022D065
:10365000FFE708980168012040F28842C4F20202A4
:103660009142019017D0FFE708980168012040F2CD
:10367000A042C4F20202914201900CD0FFE70898E8
:1036800000684FF64831CBF6FD710844B0FA80F07F
:1036900040090190FFE70198C00750B3FFE7089881
:1036A000C06D00F01F013F20884004998860089891
:1036B0000168086820F48020086005980899096866
:1036C000486008988068402809D1FFE70698089963
:1036D00009688860079808990968C86008E0079831
:1036E000089909688860069808990968C860FFE722
:1036F00082E008980168012045F20842C5F60202FE
:10370000914200904ED0FFE708980168012045F2F1
:103710001C42C5F602029142009043D0FFE7089890
:103720000168012045F23042C5F602029142009044
:1037300038D0FFE708980168012045F24442C5F6F9
:103740000202914200902DD0FFE708980168012005
:1037500045F25842C5F602029142009022D0FFE79E
:1037600008980168012045F26C42C5F602029142B8
:10377000009017D0FFE708980168012045F28042C9
:10378000C5F60202914200900CD0FFE7089800684D
:103790004AF66C31CAF2FD710844B0FA80F0400973
:1037A0000090FFE70098C00720B3FFE70898C06DBE
:1037B00000F01F010120884003994860059808998E
:1037C0000968486008988068402809D1FFE7069892
:1037D000089909688860079808990968C86008E02E
:1037E0000798089909688860069808990968C86068
:1037F000FFE700E0FFE7FFE709B0704700000000C7
:1038000080B5A8B018AB15938DF89F0026918DF860
:103810009720002024902390229021908DF88300FF
:103820009DF89F0026999DF8972021F045FB9DF873
:103830009F00014616916B2801F231811699DFE84D
:1038400011F06C009C00B6002E092E09F800220130
:103850002E092E092E092E092E092E092E092E09B0
:103860002E092E01520162019A015B02F802160331
:103870002E092E092E092E092E092E092E092E0990
:103880002E0922038B03A9031C045C04AD05C705A4
:103890009304F3041D054B057D052E092E092E0901
:1038A0002E093E03D5031C042E092E09AD05D105B2
:1038B0002E092E092E092E092E092E092E092E0950
:1038C0002E092E092E092E092E092E092E09DB0597
:1038D000E50528063E062E092E092E092E092E0979
:1038E0002E0948066E068B06F0060B07F007470800
:1038F00016082807430760077D079A07B707D4070C
:103900002E0951085E082E096B08780885082409DD
:103910009208D6089F08AC08C1089DF8970021F0CE
:103920001BFA10B9FFE701F0BBB821F091FA25F0BE
:10393000D3FF17F031FB45F28C30C2F2004016F095
:10394000E7FE45F25420C2F2000015F0FDFF45F2FB
:10395000B400C2F2000014F017FC45F29000C2F26D
:10396000004011F065FC25F0E3FF40F2AC21C2F20B
:1039700000010020087001F093B89DF8970021F035
:10398000EBF910B9FFE701F08BB825F0A5FF45F280
:103990009000C2F2004011F06FFC25F0C9FF40F228
:1039A000AC21C2F200010120087001F079B826981C
:1039B0009DF8971021AA22F0BBFB10B9FFE701F098
:1039C0006FB8159890ED090ABCEEC00A10EE100A07
:1039D000002818BF0120FEF79BFF159890ED090AFB
:1039E000BCEEC00A10EE100A08BBFFE721F030FA67
:1039F00025F072FF17F0D0FA45F28C30C2F2004089
:103A000016F086FE45F25420C2F2000015F09CFF2D
:103A100045F2B400C2F2000014F0B6FB45F290008B
:103A2000C2F2004011F004FC25F082FFFFE701F034
:103A300037B89DF8970021F08FF910B9FFE701F032
:103A40002FB821F005FA25F047FF17F0A5FA45F247
:103A50008C30C2F2004016F05BFE45F25420C2F2F8
:103A6000000015F071FF45F2B400C2F2000014F03E
:103A70008BFB45F29000C2F2004013F029FA25F0CA
:103A800057FF01F00DB89DF8970021F065F910B9C6
:103A9000FFE701F005B810F0ABFC01F001B89DF8AC
:103AA000970021F059F910B9FFE700F0F9BF21F0B4
:103AB000CFF925F011FF17F06FFA45F28C30C2F202
:103AC000004016F025FE45F25420C2F2000015F029
:103AD0003BFF25F02DFF40F2AC21C2F20001002097
:103AE000087000F0DDBF9DF8970021F035F910B99E
:103AF000FFE700F0D5BF40F2AC21C2F20001012087
:103B0000087000F0CDBF26989DF8971021AA22F0EA
:103B10000FFB10B9FFE700F0C3BF159890ED090A3D
:103B2000BCEEC00A10EE100A072822D8FFE744F2C4
:103B30008840C2F200400078D8B1FFE740F2AC20E4
:103B4000C2F200000078A0B1FFE725F0C5FE17F033
:103B500023FA159890ED090ABCEEC00A10EE101A6F
:103B600045F25420C2F2000015F0D2FD25F0E0FE2F
:103B7000FFE700F095BF26989DF8971021AA22F044
:103B8000D7FA10B9FFE700F08BBF45F25420C2F21C
:103B90000000007815F050FB014615988DF8821052
:103BA00023991F9190ED090AF8EE000ACDED130A52
:103BB000B0EE001A8DED141AFEF772FCDDED130A5B
:103BC0009DED141A159880ED090A90ED0A0AFEF78A
:103BD00067FC159880ED0A0A9DF8820068B9FFE736
:103BE000159890ED0B0ADFEDD80A9FEDD81AFEF775
:103BF00057FC159880ED0B0AFFE721984AF2A401C3
:103C0000C2F200410860229848609DF8820028B105
:103C1000FFE79FEDCF0A8DED120A05E0159890EDB4
:103C20000B0A8DED120AFFE79DED120A4AF2A4007D
:103C3000C2F2004080ED020A44F28840C2F2004025
:103C40000078002856D0FFE740F2AC20C2F2000016
:103C5000007800284ED0FFE725F03EFE17F09CF9D3
:103C60009DF8820098B3FFE745F25420C2F20000AD
:103C7000007815F0C5FB70B1FFE7159890ED070AC5
:103C80009FEDB41A20EE010A45F25420C2F2000062
:103C900015F03EFE0DE0159890ED070A9FEDAD1A68
:103CA00020EE010A45F25420C2F2000015F09CFDFE
:103CB000FFE7159890ED090AD0ED0A0A45F2542065
:103CC000C2F200009FEDA21A15F0BEFD0DE015989E
:103CD00090ED090AD0ED0A0A90ED0B1A45F2542036
:103CE000C2F2000015F0B0FDFFE725F021FE21F043
:103CF000C7F8FFE700F0D4BE26989DF8971021AAD8
:103D000022F016FA10B9FFE700F0CABE45F25420BF
:103D1000C2F20000007815F08FFA8DF87B0023982E
:103D20001D9021984AF2A401C2F200410860229835
:103D300048609DF87B0028B1FFE79FED850A8DED77
:103D4000110A05E0159890ED0B0A8DED110AFFE7B9
:103D50009DED110A4AF2A400C2F2004080ED020A71
:103D600044F28840C2F20040007800285FD0FFE7AC
:103D700040F2AC20C2F200000078002857D0FFE7E4
:103D800025F0AAFD17F008F99DF87B00A8B3FFE71E
:103D900045F25420C2F20000007815F031FB70B1FA
:103DA000FFE7159890ED050A9FED6A1A20EE010ACB
:103DB00045F25420C2F2000015F0AAFD0DE015985E
:103DC00090ED050A9FED631A20EE010A45F254209A
:103DD000C2F2000015F008FDFFE7159890ED090A02
:103DE000D0ED0A0A45F25420C2F200009FED581AA5
:103DF00015F08AFB8DF873000FE0159890ED090A15
:103E0000D0ED0A0A90ED0B1A45F25420C2F20000E0
:103E100015F07AFB8DF87300FFE725F089FD9DF919
:103E2000730018B9FFE721F013F8FFE7FFE700F090
:103E300037BE9DF8970020F08FFF10B9FFE700F024
:103E40002FBE21F005F825F047FD17F0A5F845F243
:103E50008C30C2F2004016F05BFC45F25420C2F2F6
:103E6000000015F071FD25F063FD00F019BE9DF80E
:103E7000970020F071FF10B9FFE700F011BE10F0BD
:103E80009FFA00F00DBE9DF8970020F065FF10B975
:103E9000FFE700F005BE25F01FFD45F28C30C2F2B1
:103EA000004016F035FC45F29000C2F2004011F0DF
:103EB000BFF925F03DFD10F07BFA00F0F1BD9DF853
:103EC000970020F049FF10B9FFE700F0E9BD9DF829
:103ED000970010280AD1FFE726989DF8971021AA8D
:103EE00022F026F910B9FFE700F0DABD25F0F4FC66
:103EF00045F28C30C2F2004016F00AFC9DF89700A3
:103F000010280BD1FFE7159890ED090ABCEEC00A06
:103F100010EE100A002112F057FC06E045F2900066
:103F2000C2F2004011F084F9FFE725F001FD9DF891
:103F30009700102803D1FFE710F06AFA02E010F0B2
:103F400037FAFFE700F0ACBD7BD920BF7BD9203F1B
:103F50000000000039FA8E3C9DF8970020F0FCFE2E
:103F600010B9FFE700F09CBD44F28840C2F2004067
:103F7000007868B1FFE725F0AFFC45F29000C2F28F
:103F8000004011F079F925F0D3FC10F011FAFFE7A9
:103F900000F086BD26989DF8971021AA22F0C8F857
:103FA00010B9FFE700F07CBD44F28840C2F2004047
:103FB0000078C8B1FFE725F08FFC159890ED090A4D
:103FC000BCEEC00A10EE100A109006F071FD1099B8
:103FD000024645F29000C2F2004012F0ADFC25F01E
:103FE000A7FC10F0E5F9FFE700F05ABD9DF8970037
:103FF00020F0B2FE10B9FFE700F052BD9DF8970027
:1040000010280AD1FFE726989DF8971021AA22F0E0
:104010008FF810B9FFE700F043BD44F28840C2F2C8
:104020000040007838B3FFE725F056FC9DF8970074
:1040300010280BD1FFE7159890ED090ABCEEC00AD5
:1040400010EE100A012112F0BFFB06E045F29000CD
:10405000C2F2004011F010F9FFE725F069FC9DF86D
:104060009700102803D1FFE710F0D2F902E010F01A
:104070009FF9FFE7FFE700F013BD26989DF8971022
:1040800021AA22F055F810B9FFE700F009BD44F26B
:104090008840C2F20040007868B3FFE725F01CFCBE
:1040A000159890ED091A90ED0A0A90ED0B2A8DED06
:1040B0000E2A90ED0C2A8DED0F2ABCEEC11A11EEDE
:1040C000100A0C90BCEEC00A10EE100A0D9006F01B
:1040D000EFFC0C990D9A9DED0E0ADDED0F0A0346DB
:1040E00045F29000C2F2004012F0AAFB25F020FC3D
:1040F00010F05EF9FFE700F0D3BC26989DF897100A
:1041000021AA22F015F810B9FFE700F0C9BC44F26B
:104110008840C2F20040007820B3FFE72198199050
:1041200022981A9023981B9025F0D6FB45F2900018
:10413000C2F200400B9090F84C10099190F84D009D
:104140000A9006F0B5FC09990A9A03460B98EC46CA
:10415000CCF8003019AB12F093FB25F0E9FB10F01E
:1041600027F9FFE700F09CBC9DF8970020F0F4FDD4
:1041700010B9FFE700F094BC9DF8970010280AD111
:10418000FFE726989DF8971021AA21F0D1FF10B9DA
:10419000FFE700F085BC44F28840C2F2004000789E
:1041A00000283FD0FFE7002018909DF897001028C6
:1041B00011D1FFE7159890ED0A0AB5EE400AF1EE2D
:1041C00010FA08DDFFE7159890ED0A0ABCEEC00A68
:1041D00080ED000AFFE725F07FFB9DF8970010288F
:1041E00010D1FFE7159890ED090ABCEEC00A10EE59
:1041F000100A38B9FFE745F29000C2F2004012F011
:1042000087FE0AE006F054FC0146189A45F2900039
:10421000C2F2004012F050FDFFE725F089FB10F0DC
:10422000C7F8FFE700F03CBC26989DF8971021AA3C
:1042300021F07EFF10B9FFE700F032BC44F2884065
:10424000C2F200400078B8B1FFE725F045FB1598B1
:1042500090ED090A8DED080A06F02AFC9DED080A8A
:10426000014645F29000C2F2004011F04DFE25F0EB
:104270005FFB10F09DF8FFE700F012BC26989DF858
:10428000971021AA21F054FF10B9FFE700F008BCF5
:1042900044F28840C2F200400078E0B1FFE725F028
:1042A0001BFB159890ED090ABCEEC00A10EE100A2F
:1042B000002818BF0120079006F0FAFB0799024674
:1042C00045F29000C2F2004011F002FF25F030FBF1
:1042D00010F06EF8FFE7E3E326989DF8971021AA07
:1042E00021F026FF08B9FFE7DAE344F28840C2F282
:1042F0000040007808B3FFE725F0EEFA159890ED3E
:10430000091A90ED0A0ABCEEC11A11EE100A0590C6
:10431000BCEEC00A10EE100A069006F0C9FB059923
:10432000069A034645F29000C2F2004012F06CFA81
:1043300025F0FEFA10F03CF8FFE7B1E326989DF86F
:10434000971021AA21F0F4FE08B9FFE7A8E344F290
:104350008840C2F200400078F8B1FFE725F0BCFACF
:10436000159890ED090A90ED0A1A8DED041ABCEE2D
:10437000C00A10EE100A039006F09AFB03999DED17
:10438000040A024645F29000C2F2004011F0B0FB70
:1043900025F0CEFA10F00CF8FFE781E39DF89700C6
:1043A00020F0DAFC08B9FFE77AE325F095FA45F248
:1043B0008C30C2F2004016F0ABF945F29000C2F228
:1043C000004012F085FD25F0B3FA0FF0F1FF67E32E
:1043D0009DF8970020F0C0FC08B9FFE760E30FF0FC
:1043E000E7FF5DE39DF8970020F0B6FC08B9FFE712
:1043F00056E310F00DF853E39DF8970020F0ACFC65
:1044000008B9FFE74CE30FF0EBFF49E39DF8970095
:1044100020F0A2FC08B9FFE742E39DF897001028BE
:1044200009D1FFE726989DF8971021AA21F080FE78
:1044300008B9FFE734E344F28840C2F20040007854
:1044400030B3FFE740F2AC20C2F200000078F8B1D0
:10445000FFE7159890ED090ABCEEC00A10EE100AAD
:104460008DF85F0025F038FA9DF85F1045F2542072
:10447000C2F2000016F048FC8DF85E0025F058FAF4
:104480009DF85E0018B1FFE720F0E2FCFFE7FFE7D0
:1044900006E39DF8970020F05FFC08B9FFE7FFE214
:1044A00020F0D6FC25F018FA16F076FD45F25420DF
:1044B000C2F2000015F048FA25F03AFAF0E29DF851
:1044C000970020F049FC08B9FFE7E9E20FF0A8FFE8
:1044D000E6E29DF8970020F03FFC08B9FFE7DFE235
:1044E00025F0FAF945F28C30C2F2004016F010F9CE
:1044F00045F2B400C2F20000007D38B1FFE745F29A
:104500005420C2F2000015F01FFAFFE745F2B40094
:10451000C2F2000013F038FE25F00AFAC0E29DF85E
:10452000970020F019FC08B9FFE7B9E244F288408F
:10453000C2F20040007870B1FFE725F0CDF945F2F6
:10454000B400C2F20000012100231A4613F0B0FDAE
:1045500025F0EEF9FFE7A3E226989DF8971021AA2F
:1045600021F0E6FD08B9FFE79AE244F28840C2F282
:1045700000400078002853D0FFE7159890ED0B0A13
:10458000BCEEC00A10EE100A002818BF01208DF8FA
:10459000830025F0A1F9159890ED090ABCEEC00A38
:1045A00010EE100A70B9FFE745F2B400C2F2000045
:1045B000007D38B1FFE745F25420C2F2000015F04B
:1045C000C3F9FFE7159890ED091A90ED0A0ABCEEC1
:1045D000C11A11EE101A002918BF0121BCEEC00A41
:1045E00010EE102A002A18BF01229DF8833045F2F0
:1045F000B400C2F2000013F05BFD159890ED090ABB
:10460000BCEEC00A10EE100A38B1FFE79DF8830037
:1046100018B1FFE720F01CFCFFE725F089F9FFE760
:104620003EE29DF8970020F097FB08B9FFE737E2DC
:1046300044F28840C2F20040007860B1FFE725F004
:104640004BF945F2B400C2F20000002113F098FCCF
:1046500025F06EF9FFE723E29DF8970020F07CFB40
:1046600008B9FFE71CE244F28840C2F2004000783B
:1046700070B1FFE725F030F920F0EAFB45F2B40015
:10468000C2F20000002113F0BFFB25F051F9FFE753
:1046900006E29DF8970020F05FFB08B9FFE7FFE115
:1046A00044F28840C2F20040007860B1FFE725F094
:1046B00013F945F2B400C2F20000012113F060FCCE
:1046C00025F036F9FFE7EBE19DF8970020F044FB79
:1046D00008B9FFE7E4E144F28840C2F20040007804
:1046E00070B1FFE725F0F8F820F0B2FB45F2B40016
:1046F000C2F20000012113F087FB25F019F9FFE752
:10470000CEE19DF8970020F027FB08B9FFE7C7E14D
:1047100044F28840C2F20040007870B1FFE725F013
:10472000DBF820F095FB45F2B400C2F20000002156
:1047300013F0AAFB25F0FCF8FFE7B1E19DF8970024
:1047400020F00AFB08B9FFE7AAE144F28840C2F270
:104750000040007870B1FFE725F0BEF820F078FB4C
:1047600045F2B400C2F20000012113F08DFB25F0E8
:10477000DFF8FFE794E19DF8970020F0EDFA08B923
:10478000FFE78DE144F28840C2F20040007870B14A
:10479000FFE725F0A1F820F05BFB45F2B400C2F280
:1047A0000000002113F040FB25F0C2F8FFE777E19D
:1047B0009DF8970020F0D0FA08B9FFE770E144F2C5
:1047C0008840C2F20040007870B1FFE725F084F81D
:1047D00020F03EFB45F2B400C2F20000012113F0CC
:1047E00023FB25F0A5F8FFE75AE19DF8970020F09C
:1047F000B3FA08B9FFE753E144F28840C2F200403F
:10480000007868B1FFE725F067F820F021FB45F25A
:10481000B400C2F2000013F0E3FA25F089F8FFE7D4
:104820003EE19DF8970020F097FA08B9FFE737E1DD
:1048300025F052F845F28C30C2F2004015F068FFC6
:1048400045F2B400C2F20000007D38B1FFE745F246
:104850005420C2F2000015F077F8FFE745F2B400EB
:10486000C2F2000013F090FC25F062F818E12698DF
:104870009DF8971021AA21F05BFC08B9FFE70FE132
:1048800044F28840C2F20040007800B3FFE725F010
:1048900023F845F2B400C2F20000007D38B1FFE712
:1048A00045F25420C2F2000015F04EF8FFE71598CB
:1048B00090ED090ABCEEC00A10EE101A45F2B400E1
:1048C000C2F2000013F078FB25F032F8FFE7E7E0D2
:1048D0009DF8970020F040FA08B9FFE7E0E00FF0FC
:1048E00077FDDDE09DF8970020F036FA08B9FFE784
:1048F000D6E0012021F0ACFE0FF082FDD0E09DF863
:10490000970020F029FA08B9FFE7C9E0022021F05A
:104910009FFE0FF075FDC3E09DF8970020F01CFA94
:1049200008B9FFE7BCE0042021F092FE0FF068FD1B
:10493000B6E09DF8970020F00FFA08B9FFE7AFE066
:10494000052021F085FE0FF05BFDA9E09DF89700A2
:1049500020F002FA08B9FFE7A2E0062021F078FE75
:104960000FF04EFD9CE09DF8970020F0F5F908B996
:10497000FFE795E0072021F053FE0FF041FD8FE0A7
:104980009DF8970020F0E8F908B9FFE788E00920D2
:1049900021F046FE0FF034FD82E09DF8970020F0F4
:1049A000DBF908B9FFE77BE024F096FF45F28C3095
:1049B000C2F20040012115F0DBFB24F0B9FF0FF03B
:1049C0001FFD6DE09DF8970020F0C6F908B9FFE7DC
:1049D00066E024F081FF45F28C30C2F200400221F3
:1049E00015F0C6FB24F0A4FF0FF00AFD58E026984E
:1049F0009DF8971021AA21F09BFB08B9FFE74FE033
:104A00001598FF218DF85D1090ED090AB7EE001A98
:104A1000B4EE410AF1EE10FA04D1FFE701208DF85F
:104A20005D000FE0159890ED090AB0EE001AB4EEA3
:104A3000410AF1EE10FA04D1FFE702208DF85D0083
:104A4000FFE7FFE720F004FA24F046FF0120019081
:104A5000FDF75EFF019840F2AC21C2F20001087040
:104A600016F09AFA9DF85D00029006F021F8029A7D
:104A7000034645F28C30C2F20040082115F048FD93
:104A800024F056FF0FF0BCFC0AE09DF8970020F0E0
:104A900063F908B9FFE703E00FF0B2FC00E0FFE7BD
:104AA00028B080BD0000000070470000000000003A
:104AB00080B582B0019005F0FBFF0090FFE705F0A4
:104AC000F7FF0099401A0199884201D2FFE7F6E703
:104AD00002B080BD0000000080B584B08DED020AF8
:104AE0009DED020A0FF0D8F98DED010A9DED010A46
:104AF0009FED1A1AB4EE410AF1EE10FA0EDDFFE74F
:104B00009DED010A9FED161AB4EE410AF1EE10FA7E
:104B100004DCFFE702208DF80F001BE09DED010A89
:104B20009FED101AB4EE410AF1EE10FA0EDAFFE72B
:104B30009DED010A9FED0C1AB4EE410AF1EE10FA58
:104B400004DBFFE701208DF80F0003E000208DF863
:104B50000F00FFE79DF80F0004B080BDDB0F493F59
:104B6000E4CB1640DB0F49BFE4CB16C000000000C9
:104B700080B5BAB038903791389820B9FFE7012056
:104B80008DF8E7002AE001A8009014F011F90098D0
:104B900000F02AF840B1FFE73899002008763899EC
:104BA000C8628DF8E70019E03898007E50B9FFE739
:104BB00038990120087637983899C86200208DF816
:104BC000E7000BE037983899C96A411A0020B1F51F
:104BD0007A7F88BF01208DF8E700FFE79DF8E700A6
:104BE0003AB080BD0000000082B00090009820B96B
:104BF000FFE700208DF8070019E00098807E20B1C3
:104C0000FFE70098407F20B9FFE700208DF80700FC
:104C10000DE000988068B0F1FF3F04DCFFE7002062
:104C20008DF8070003E001208DF80700FFE79DF8ED
:104C3000070002B07047000080B5B8B001A800902E
:104C400014F0B6F80098FFF7CFFF20B9FFE7002077
:104C50008DF8DF0007E0039900204129C8BF01203B
:104C60008DF8DF00FFE79DF8DF0038B080BD000061
:104C700080B586B004908DF80F109DF80F0002905B
:104C8000029802280ED3FFE7029801900498FDF7DE
:104C900073FF01460198884204D8FFE701208DF890
:104CA000170003E000208DF81700FFE79DF81700BC
:104CB00006B080BD0000000080B584B003908DF880
:104CC0000B109FED140A18F08BFA8DED010A039872
:104CD0009DF80B1000EB810090ED120A90ED182A60
:104CE000B8EEC00A4BF64820C0F6020000EB810087
:104CF00090ED001A21EE021A9DED012AA1EE020AA2
:104D00008DED000A9DED000ABDEEC00A10EE100AFE
:104D100004B080BDB458B74480B584B00290029806
:104D2000FBF756FD8DF8060000208DF80700FFE721
:104D30009DF80700012844D8FFE79DF80600C0074A
:104D4000C8B1FFE702989DF8071000EB810090EDD5
:104D5000181A90ED1E0A30EE410AFBF71DFDB1EE68
:104D6000041AB4EE410AF1EE10FA04DDFFE7002068
:104D70008DF80F0029E09DF806008007002819D55E
:104D8000FFE702989DF8071000EB810090ED181ADC
:104D900090ED200A30EE410AFBF7FEFCB1EE041A5A
:104DA000B4EE410AF1EE10FA04DDFFE700208DF8C1
:104DB0000F000AE0FFE79DF8070001308DF80700BB
:104DC000B6E701208DF80F00FFE79DF80F0004B053
:104DD00080BD00000000000081B000909DED000A41
:104DE000B8EEC00A9FED021A20EE010A01B070472A
:104DF000400749360000000080B584B0039002915E
:104E00008DF80720039808B9FFE736E00398029968
:104E100019F096FD9DF807200399487910434871D1
:104E20000398807E20B9FFE70398C07E30B1FFE78A
:104E30000399487940F010004871FFE7039900207A
:104E40000090C87003990873039908720399487217
:104E5000039988720399C872039948740399C874B6
:104E60000399887403990871039988760398FDF76C
:104E70006BFB039917200870FFE704B080BD0000AA
:104E800081B0EFF3108072B60090FFE7FEE70000FC
:104E900044F60C01C5F60201086840F00200086003
:104EA000FFE744F60400C5F602000068800400280D
:104EB00001D4FFE7F5E7704780B584B0ADF80E0088
:104EC000ADF80C10ADF80A20ADF80830BDF90E2091
:104ED000BDF90C30BDF90A00BDF908C06946C1F83A
:104EE00004C0086045F6E400C2F200004FF400710F
:104EF00000F072FB04B080BD80B584B0ADF80E0048
:104F0000ADF80C10ADF80A20ADF80830BDF90E2050
:104F1000BDF90C30BDF90A00BDF908C06946C1F8F9
:104F200004C0086045F6E400C2F2000040F2FF1140
:104F300000F052FB04B080BD80B545F6E400C2F23B
:104F40000000012100F0B8FA80BD00000000000060
:104F500080B545F6E400C2F2000004F0D1FC80BD4B
:104F600080B545F6E400C2F2000004F0C9FC80BD43
:104F700080B584B0ADF80E00ADF80C10ADF80A2085
:104F8000ADF80830BDF90E20BDF90C30BDF90A00AE
:104F9000BDF908C06946C1F804C0086045F2D840B0
:104FA000C2F200404FF4007100F016FB04B080BD67
:104FB00080B584B0ADF80E00ADF80C10ADF80A2045
:104FC000ADF80830BDF90E20BDF90C30BDF90A006E
:104FD000BDF908C06946C1F804C0086045F2D84070
:104FE000C2F2004040F2FF1100F0F6FA04B080BDBA
:104FF00080B545F2D840C2F20040012100F05CFAD1
:1050000080BD00000000000080B545F2D840C2F22B
:10501000004004F075FC80BD80B545F2D840C2F276
:10502000004004F06DFC80BD80B545F68410C2F2EE
:10503000000004F065FC80BD80B545F68410C2F226
:10504000000004F05DFC80BD80B590B0FFE745F640
:105050008410C2F20000412104F0AAFAB8B1FFE7BF
:1050600045F68410C2F20000412106AA6B4604F006
:10507000BBFA08B1FFE70AE045F68410C2F200006F
:10508000FBF776FC06A8694600F006F8DFE710B0EB
:1050900080BD00000000000080B582B0019000914A
:1050A0000198009916F04CFE02B080BD000000008F
:1050B00084B002900298406B009002980068D0F88B
:1050C00084004FF6FC718843009940EA8100029900
:1050D0000968C1F8840002980068D0F8840020F4C0
:1050E0007F00029A1168926B40EA0240C1F8840086
:1050F0000298816B00980844009002980068D0F8EC
:1051000088006FF38F00009940EA810002990968D6
:10511000C1F8880002980068D0F8880020F4FE00EA
:10512000029A1168D26B40EA0240C1F888000298E6
:10513000C16B009800EB4100009002980068D0F825
:10514000A0006FF38F00009940EA8100029909687E
:10515000C1F8A00002980068D0F8A00020F4FE007A
:10516000029A1168126C40EA0240C1F8A00002994C
:10517000086C496C009A00FB0120009002980068BE
:10518000D0F8B0006FF38F00009940EA81000299D7
:105190000968C1F8B00002980068D0F8B00020F4A7
:1051A000FE00029A1168926C40EA0240C1F8B00019
:1051B0000299886CC96C009A00FB0120009002984B
:1051C0000068D0F8AC006FF38F00009940EA8100CE
:1051D00002990968C1F8AC000299086D496D009AFE
:1051E00000FB0120009002980068D0F8F0006FF3F7
:1051F0008F00009940EA810002990968C1F8F00027
:1052000002980068D0F8F00020F47C10029A11682F
:10521000926D40EA0240C1F8F0000298816D00985A
:1052200000EB4100009002980068D0F8C0006FF3D6
:105230008F00009940EA810002990968C1F8C00016
:1052400002980068D0F8C00020F47C10029A11681F
:10525000D26D40EA0240C1F8C00002980068D0F860
:10526000C00020F07C50029A1168126E40EA026081
:10527000C1F8C00002994A6B4AF60040C4F200002F
:1052800000EB8200C86602998A6BC86E00EB820050
:1052900008670299CA6B086F00EBC2004867029961
:1052A0000A6C4B6C486F5A4300EB82008867029986
:1052B0008A6CCB6C886F5A4300EB8200C8670299F6
:1052C0000A6D4B6DC86F5A4300EB8200C1F8800035
:1052D00002998A6DD1F8800000EBC200C1F8840009
:1052E0000299CA6D8B6ED1F884005A4300EB82009C
:1052F000C1F8880002990A6E8B6ED1F888005A4373
:1053000000EB8200C1F890000298D0F890004DF2B6
:10531000FD31C4F2000188420FD3FFE70299D1F8B2
:105320009C0040F02000C1F89C000299032081F805
:10533000980001208DF80F0017E00298C06E0190D0
:10534000FFE701980299D1F89010884208D2FFE750
:10535000019900200860FFE7019804300190F0E710
:10536000FFE700208DF80F00FFE79DF80F0004B065
:10537000704700000000000080B58CB00B9000204A
:1053800002900A900990089007900690059004906A
:1053900003900B9808B9FFE72FE0002003900490DA
:1053A000022105910691079008900B9803A903F03C
:1053B000EBFF18B1FFE7FFF763FDFFE70B986946C6
:1053C00001230B600222194604F06AF818B1FFE7C6
:1053D000FFF756FDFFE70B9805F012F918B1FFE74C
:1053E000FFF74EFDFFE70B981021002203F0DCFED3
:1053F00018B1FFE7FFF744FDFFE70CB080BD0000E8
:1054000088B007900691059204930698406848B9C1
:10541000FFE70698016882680069104340EA81400E
:10542000039009E006980168826800691043084308
:1054300040F080400390FFE70698D0F820C0C16894
:1054400042698369C06940EA0C601843104340EA2E
:10545000014002900798826ED0F88400049951436D
:1054600000EB8100019003980199086001980430D5
:105470000190029801990860019804300190002081
:105480000090FFE700980699CA684BF2E451C0F615
:105490000201895C88420DD2FFE7059800994058C7
:1054A00001990860019804300190FFE700980430EA
:1054B0000090E7E708B0704780B58CB00B900A9178
:1054C00000200190099008900790069005900490A4
:1054D0000390029002900390022004900A98059095
:1054E0004FF4007006904FF4FE6007900B9802A9ED
:1054F00003F04AFF18B1FFE7FFF7C2FCFFE70CB06B
:1055000080BD00000000000080B545F6E400C2F256
:10551000000000F0E5F845F2D840C2F2004000F08B
:10552000DFF880BD0000000080B590B00F900E91B4
:105530000D92FFE70F980E9904F03AF8002846D034
:10554000FFE70F980E9903AA01AB04F04DF808B1DC
:10555000FFE73CE00F98FBF70BFA049850B9FFE720
:105560000398B0F5007F05D9FFE70398B0F5027FF7
:1055700001D9FFE7DEE70398A0F2012000900D9823
:105580000099C1EBC10100EB81018869013088619C
:105590000D980099C1EBC10100EB810080693228B0
:1055A0000AD8FFE70D980099C1EBC10100EB81001B
:1055B00001A923F0B1F909E00D980099C1EBC101EF
:1055C00000EB810001A923F05BF9FFE7B2E710B01F
:1055D00080BD00000000000010B596B08C468646E5
:1055E00019981899CDF850E0ADF84EC0ADF84C20A0
:1055F000ADF84A30ADF84810ADF84600149820B91F
:10560000FFE700208DF8570066E0149804F068F971
:1056100050B9FFE71498002103910122FBF7C8F964
:1056200003988DF8570057E0BDF84E000890002011
:1056300009900A9008210B910C900D900E900F90FC
:105640001090BDF84C00ADF81600BDF84A00ADF85A
:105650001400BDF84800ADF81200BDF84600ADF8E2
:1056600010009DF817008DF81800BDF816008DF891
:1056700019009DF815008DF81A00BDF814008DF87A
:105680001B009DF813008DF81C00BDF812008DF86A
:105690001D009DF811008DF81E00BDF810008DF85A
:1056A0001F00149808A906AA03F0FEFD50B1FFE7F9
:1056B0001498002202921146FBF77AF902988DF8AD
:1056C000570009E01498012101910022FBF770F9BD
:1056D00001988DF85700FFE79DF8570016B010BDF0
:1056E00080B582B0019000200090019808B9FFE7D2
:1056F00025E0019845F6E401C2F20001884208D095
:10570000FFE7019845F2D841C2F20041884203D137
:10571000FFE70120009000E011E0019804F070FF25
:1057200018B1FFE7FFF7ACFBFFE7019800990022F3
:1057300003F03AFD18B1FFE7FFF7A2FBFFE702B065
:1057400080BD00000000000080B5E6B0DDF8A0C11B
:105750008DF897018DF8961164928DED630A62932E
:1057600064986190629800686090629840685F9069
:10577000629880685E909DED5F0A9DED5E1A30EE46
:10578000010A8DED5D0A9DED5F0A9FEDA41A30EED2
:10579000010A8DED5C0A9DED5C0A8DED010A0DF0AC
:1057A00047FCB0EE401A9DED010A30EE010A8DED86
:1057B0005B0A9DED5C0A25F051F89FED991A8DED7D
:1057C000021A20EE010A8DED5A0A9DED5C0A25F0C1
:1057D0001FFC9DED021A20EE010A8DED590A9DED88
:1057E000600A25F03BF88DED580A9DED600A25F022
:1057F0000FFC8DED570A9DED5D0A25F02FF88DED1C
:10580000560A9DED5D0A25F003FC8DED550A9DEDD0
:10581000580ADDED570A9FED831A8DED031A21F02A
:105820002BF9B0EE402AB0EE410A9DED031A8DED42
:10583000522ACDED530A8DED540A9DED570AB1EE73
:10584000400ADDED580A21F017F9B0EE402AB0EE1B
:10585000600ADDED030A8DED4F2A8DED500A8DEDC6
:10586000511AB7EE001AB0EE600A21F005F98DED7D
:105870004C0ACDED4D0A8DED4E1ADDED561A9DED1B
:105880004F0ADDED500A9DED511A17F0C9FC8DED60
:10589000460ACDED470A8DED481ADDED551A9DED0E
:1058A0004C0ADDED4D0A9DED4E1A17F0B9FC8DED59
:1058B000430ACDED440A8DED451A9DED460ADDED16
:1058C000470A9DED481ADDED431A9DED442ADDEDB2
:1058D000452AFAF795FF8DED490ACDED4A0A8DED7F
:1058E0004B1A9DED550AF1EE401A9DED4F0ADDED84
:1058F000500A9DED511A17F093FC8DED3D0ACDED48
:105900003E0A8DED3F1ADDED561A9DED4C0ADDED98
:105910004D0A9DED4E1A17F083FC8DED3A0ACDED40
:105920003B0A8DED3C1A9DED3D0ADDED3E0A9DEDF5
:105930003F1ADDED3A1A9DED3B2ADDED3C2AFAF7E0
:105940005FFF8DED400ACDED410A8DED421A9DEDD0
:10595000570A9FEDE51A20EE010A9DED581A9FEDBA
:10596000E32A61EE020A9FEDE21A21F085F88DED3F
:10597000370ACDED380A8DED391ADDED5A1A9DED55
:105980004F0ADDED500A9DED511A17F049FC8DEDDF
:105990002E0ACDED2F0A8DED301ADDED591A9DED51
:1059A0004C0ADDED4D0A9DED4E1A17F039FC8DEDD8
:1059B0002B0ACDED2C0A8DED2D1A9DED2E0ADDED75
:1059C0002F0A9DED301ADDED2B1A9DED2C2ADDED11
:1059D0002D2AFAF715FF8DED310ACDED320A8DED46
:1059E000331A9DED370ADDED380A9DED391ADDEDEC
:1059F000311A9DED322ADDED332AFAF701FF8DEDE4
:105A0000340ACDED350A8DED361A34983599369A2B
:105A10002A92299128906198B8B905E0DB0FC93F17
:105A20008922DD43000000009DF897014CF2FC0242
:105A3000C0F60202642110FB01209DF8961101EBD3
:105A4000810100EB81006190FFE76198D0ED001AC1
:105A50009DED520ADDED530A9DED541A17F0E0FB5F
:105A60008DED220ACDED230A8DED241A9DED280A35
:105A7000DDED290A9DED2A1ADDED221A9DED232A7E
:105A8000DDED242AFAF7BCFE8DED250ACDED260AC0
:105A90008DED271A25982699279A2A9229912890E0
:105AA0006198D0ED011A9DED490ADDED4A0A9DEDA0
:105AB0004B1A17F0B5FB8DED1C0ACDED1D0A8DEDCF
:105AC0001E1A9DED280ADDED290A9DED2A1ADDED4D
:105AD0001C1A9DED1D2ADDED1E2AFAF791FE8DEDB3
