:020000040800F2
:10000000F8820024F503000881CD000801BD000836
:1000100079CD0008E91E0008E94B01080000000046
:10002000000000000000000000000000C1E0000827
:100030002130000800000000E1D70008C1E20008FC
:100040001304000813040008130400081304000834
:100050001304000813040008130400081304000824
:100060001304000813040008130400081304000814
:100070001304000813040008130400081304000804
:100080001304000813040008130400088930000852
:10009000293100089930000839310008130400089C
:1000A00013040008130400081304000813040008D4
:1000B00039E5000849E5000859E50008130400087F
:1000C00013040008130400081304000813040008B4
:1000D00013040008130400081304000813040008A4
:1000E00013040008130400080000000013040008B3
:1000F0001304000813040008130400081304000884
:100100001304000813040008130400081304000873
:100110001304000813040008130400081304000863
:100120001304000813040008130400081304000853
:100130001304000813040008130400081304000843
:1001400000000000000000000000000000000000AF
:100150001304000813040008130400081304000823
:100160001304000813040008130400081304000813
:1001700013040008F9CD0008130400080000000073
:10018000130400081304000889E900081304000898
:1001900013040008130400081304000813040008E3
:1001A00013040008130400081304000800000000F2
:1001B00013040008130400081304000813040008C3
:1001C00013040008130400080000000000000000F1
:1001D0000000000000000000130400080000000000
:1001E000000000000000000000000000000000000F
:1001F00000000000000000001304000813040008C1
:100200001304000813040008000000001304000891
:100210001304000813040008130400081304000862
:100220001304000800000000130400080000000090
:100230001304000813040008000000001304000861
:100240001304000813040008130400081304000832
:100250001304000813040008130400081304000822
:100260001304000813040008130400081304000812
:100270001304000813040008130400080000000021
:1002800013040008130400081304000813040008F2
:100290000000000013040008130400080000000020
:1002A00000000000130400081304000813040008F1
:1002B000190701081304000813040008C9310008D5
:1002C000D9310008130400081304000800F002F8F4
:1002D00000F080F814A696E8000CB244B344DA4566
:1002E00001D100F077F8BAE80F000FA696E83000C9
:1002F000A5EB040504EB0607AAEB0704A7F1010729
:100300004FEA15154FEA3414A4F10104AC4201D3AD
:1003100000F060F813F0010F18BFFB1A43F001035F
:1003200000F001F8DBE71847208B0100608B01002B
:100330000A444FF0000C10F8013B13F0070408BF0B
:1003400010F8014B1D1108BF10F8015B641E05D0A9
:1003500010F8016B641E01F8016BF9D113F0080F5E
:100360001EBF10F8014BAD1C0C1B09D16D1E58BFF0
:1003700001F801CBFAD505E014F8016B01F8016B27
:100380006D1EF9D59142D6D370470000103A24BFB4
:1003900078C878C1FAD8520724BF30C830C144BFEA
:1003A00004680C60704700007047000000230024C0
:1003B00000250026103A28BF78C1FBD8520728BF75
:1003C00030C148BF0B6070471FB518F060FB1FBD00
:1003D00010B510BD00F05EF91146FFF7F5FF15F0FE
:1003E000C3FE00F07CF903B4FFF7F2FF03BC00F09A
:1003F0007FF900000A4880470A4880470A480047BA
:10040000FEE7FEE7FEE7FEE7FEE7FEE7FEE7FEE7C4
:10041000FEE7FEE705480649064A074B704700001D
:1004200061300008D1E30008CD020008F880002008
:10043000F8820024F8820020F87E002453EA020C9F
:1004400000F069802DE9F04B4FF00006002B1FBF34
:10045000B3FA83F503FA05F424FA05F65E4012BFF9
:100460001643B2FA82F502FA05F4C5F120051EBF63
:1004700022FA05FC44EA0C04203556EA044C4FEA03
:10048000144418BF641C4FF000084FF0000990425C
:1004900071EB030C39D3002919BFB1FA81F701FAC6
:1004A00007F6B0FA80F700FA07F6C7F120071EBF7B
:1004B00020FA07FC46EA0C062037B6FBF4FCA7EB53
:1004C0000507103F07F01F0BCBF120062CFA06F6AC
:1004D0000CFA0BFB44BFB3460026202FA4BF5E4698
:1004E0004FF0000B5BEA060C08BF4FF0010B19EB55
:1004F0000B0948EB0608ABFB027C06FB02CC0BFBAE
:1005000003CCC01B71EB0C01C1E70B460246414610
:100510004846BDE8F08B13B5084318BF4FF0FF30D5
:100520000146AFF30080BDE81C407047032A40F24B
:10053000308010F0030C00F0158011F8013BBCF185
:10054000020F624498BF11F801CB00F8013B38BF9D
:1005500011F8013BA2F1040298BF00F801CB38BFAB
:1005600000F8013B11F0030300F02580083AC0F0C9
:10057000088051F8043B083A51F804CBA0E8081071
:10058000F5E7121D5CBF51F8043B40F8043BAFF3A4
:100590000080D20724BF11F8013B11F801CB48BFFE
:1005A00011F8012B24BF00F8013B00F801CB48BF34
:1005B00000F8012B704710B5203AC0F00B80B1E86D
:1005C0001850A0E81850B1E81850A0E81850203A88
:1005D000BFF4F5AF5FEA027C24BFB1E81850A0E891
:1005E000185044BF18C918C0BDE810405FEA827CAB
:1005F00024BF51F8043B40F8043B08BF7047D207C2
:1006000028BF31F8023B48BF11F8012B28BF20F862
:10061000023B48BF00F8012B70474FF0000200B5C5
:10062000134694469646203922BFA0E80C50A0E815
:100630000C50B1F12001BFF4F7AF090728BFA0E8C3
:100640000C5048BF0CC05DF804EB890028BF40F88F
:10065000042B08BF704748BF20F8022B11F0804FD1
:1006600018BF00F8012B704770477047704710B5EE
:1006700000F008F8006810BD10B5044600F002F85C
:10068000046010BD00487047E0000020004870473B
:10069000E00000207546FFF7F9FFAE460500694609
:1006A000534620F00700854618B020B5FFF7B2FE8C
:1006B000BDE820404FF000064FF000074FF0000863
:1006C0004FF0000BAC46ACE8C009ACE8C009ACE8A0
:1006D000C009ACE8C00921F007018D46704710B58C
:1006E0000446AFF300802046BDE81040FFF77BBE14
:1006F00001491820ABBEFEE726000200704700004B
:1007000082B08DED000A9DED000A9FED111AB4EE46
:10071000410AF1EE10FA05DDFFE70020C4F2702077
:10072000019011E09DED000A9FED0A1AB4EE410A16
:10073000F1EE10FA05DAFFE70020CCF2702001900C
:1007400002E000980190FFE79DED010A02B07047BA
:1007500000007042000070C280B586B08DED040AC2
:10076000CDED030A0290029820B1FFE70299002024
:100770000870FFE79DED040A01A8694600F098F8AB
:1007800058B9FFE7029820B1FFE7029901200870ED
:10079000FFE700208DF817002AE09DED030A9DED8C
:1007A000011A9FED152A31EE021AB4EE410AF1EE5C
:1007B00010FA0EDBFFE79DED030A9DED001A9FED99
:1007C0000F2A31EE021AB4EE410AF1EE10FA0BDDF7
:1007D000FFE7029820B1FFE7029902200870FFE7C7
:1007E00000208DF8170003E001208DF81700FFE7C7
:1007F0009DF8170006B080BDBD3786B5BD3786357C
:1008000081B08DED000A9DED000A9FED051A20EEE6
:10081000010A9FED041A80EE010A01B0704700BF83
:10082000DB0F49400000344383B0029001910092F5
:10083000029830B1FFE7019818B1FFE7009808B9B6
:10084000FFE731E0019890F9100000EE100AB8EED1
:10085000C00A029890ED001A20EE010A009880ED7F
:10086000000A019890F9180000EE100AB8EEC00ACC
:10087000029890ED011A20EE010A009880ED010A1D
:10088000019890F9200000EE100AB8EEC00A029814
:1008900090ED021A20EE010A009880ED020A0298FB
:1008A000007B00990873FFE703B070470000000069
:1008B00080B586B08DED040A03900291039818B1BB
:1008C000FFE7029820B9FFE700208DF817005FE0EE
:1008D0009DED040A00F03CF98DED010A9DED010A41
:1008E0009FED2D1AB4EE410AF1EE10FA0ADBFFE794
:1008F0009DED010A9FED291AB4EE410AF1EE10FABE
:1009000004DDFFE700208DF8170041E09DED010AAE
:10091000B5EE400AF1EE10FA0FDDFFE79FED220A77
:10092000FFF76EFF039880ED000A9FED1E0AFFF7A8
:1009300067FF029880ED000A26E09DED010AB5EE02
:10094000400AF1EE10FA0FDAFFE79FED150AFFF704
:1009500057FF039880ED000A9FED130AFFF750FF41
:10096000029880ED000A0EE09FED0D0AFFF748FFA8
:10097000039880ED000A9FED0B0AFFF741FF0298F4
:1009800080ED000AFFE7FFE701208DF81700FFE781
:100990009DF8170006B080BD000078C200008C42B0
:1009A000817592C274C4244200000000000000005F
:1009B00082B00090009818B9FFE70020019003E092
:1009C000009824300190FFE7019802B070470000C2
:1009D000B0B584B003900291039818B1FFE7029874
:1009E00008B9FFE726E003985C21FFF716FE03999C
:1009F0000091029B019318685A68D3F808C0D3F895
:100A00000CE01C695D694D610C61C1F80CE0C1F836
:100A100008C04A6008609869DA691B6A0B62CA619B
:100A200088610398243000F0A7F80399012081F829
:100A30005800FFE704B0B0BD80B588B0DDF82CC029
:100A4000DDF828C08DED070ACDED060A8DED051AFB
:100A50000490039102920193049878B1FFE7039800
:100A600060B1FFE7029848B1FFE7019830B1FFE7B6
:100A70000A9818B1FFE70B9808B9FFE72DE09DED44
:100A8000070A049890ED001A30EE410A00F028F8A9
:100A9000019880ED000A9DED060A039890ED001A7A
:100AA00030EE410A00F01CF80A9880ED000A9DED36
:100AB000060A9DED051A30EE010A039890ED001A22
:100AC000029890ED002A31EE021A30EE410A00F051
:100AD00007F80B9880ED000AFFE708B080BD000022
:100AE00081B08DED000AFFE79DED000A9FED141A1D
:100AF000B4EE410AF1EE10FA09DBFFE79DED000AC2
:100B00009FED121A30EE010A8DED000AECE7FFE7C7
:100B10009DED000A9FED0B1AB4EE410AF1EE10FABA
:100B200009DAFFE79DED000A9FED071A30EE010A92
:100B30008DED000AECE79DED000A01B0704700BFA3
:100B4000DB0F4940DB0F49C0DB0FC940DB0FC9C0D9
:100B500081B08DED000A9DED000A9FED051A20EE93
:100B6000010A9FED041A80EE010A01B0704700BF30
:100B700000003443DB0F494080B582B001900198FA
:100B800008B9FFE70AE001983421FFF746FD019913
:100B9000FE200870019900204870FFE702B080BD78
:100BA00010B59AB018908DED170ACDED160A8DED9F
:100BB000151ACDED141A189820B9FFE7FF208DF80B
:100BC00067008EE1189890F8580058B9FFE7189818
:100BD0002430FFF7D1FF1899FB2081F824008DF80D
:100BE00067007EE118982430FFF7C6FF1798189920
:100BF000C862169818990863159818994863189848
:100C000090ED010A9FEDB91AB4EE410AF1EE10FA27
:100C10000BDDFFE7189890ED020A9FEDB41AB4EED1
:100C2000410AF1EE10FA07DCFFE71899FE2081F87F
:100C300024008DF8670054E19DED170AB0EEC00A5C
:100C40009FEDAA1AB4EE410AF1EE10FA13DAFFE7AB
:100C50009DED160AB0EEC00A9FEDA41AB4EE410A4B
:100C6000F1EE10FA07DAFFE71498139018990120B3
:100C700081F8280008E09DED160ADDED170A17F04F
:100C800043FB8DED130AFFE79DED130AFFF728FFE5
:100C90008DED130A9DED130A17F08CFC8DED090AFA
:100CA0009DED170A8DED080A9DED130A17F02AFD38
:100CB0009DED082A9DED091A9DED163A20EE030AD6
:100CC000A1EE020A8DED100A9DED100AB1EE400A68
:100CD0008DED0F0A9DED150A189890ED001A30EE73
:100CE000410A8DED0E0A9DED0F1A9DED0E0A20EEC4
:100CF000000AA1EE010A189890ED011A90ED022A5F
:100D0000A1EE410AA2EE420A31EE011A21EE021AC8
:100D100080EE010A8DED0D0A9DED0D0A9FED741A0E
:100D2000B4EE410AF1EE10FA0ADBFFE79DED0D0A81
:100D30009FED701AB4EE410AF1EE10FA0BDDFFE7F9
:100D40001899FD2081F82400189A002182F82610B5
:100D50008DF86700C5E09DED0D0AFFEE000ACDEDB0
:100D6000020AB7EE001A14F0D7FBB0EE401A9DED60
:100D7000020A8DED0D1A9DED0D1A91EE410A9FEDBF
:100D80005E1A80FE010A17F085FD8DED0C0A9DEDBF
:100D90000C0AB1EE400ADDED0D0A17F0B5FA8DED43
:100DA000110A189890ED010A8DED040A90ED020ADF
:100DB0008DED030A9DED110A17F0FCFB9DED031A62
:100DC000B0EE402A9DED040AA1EE020A8DED0B0A59
:100DD000189890ED020A8DED050A9DED110A17F0A5
:100DE00091FCB0EE401A9DED050A20EE010A8DED52
:100DF0000A0A9DED0F0ADDED0E0A17F085FA8DED5A
:100E0000060A9DED0A0ADDED0B0A17F07DFAB0EE39
:100E1000401A9DED060A30EE410A8DED120A9DED55
:100E2000130AFFF75DFE8DED130A9DED120AFFF721
:100E300057FE8DED120A9DED110AFFF751FE8DED63
:100E4000110A18990120079081F826001399189A21
:100E500091631299189AD1631199189A116418998B
:100E600081F844009DED130ADDED120A9DED111A83
:100E7000DDF860E00EF10C000EF114010EF11C0221
:100E80000EF148030EF14C0C0EF15004EE46CEF874
:100E90000440CEF800C0FFF7CFFD0798189981F8FD
:100EA00054009DED120A1898D0ED140A2530FFF772
:100EB00053FC58B9FFE71899FC2081F82400189AD0
:100EC000002182F827108DF867000AE018990020A9
:100ED00081F82400189A012182F827108DF8670004
:100EE000FFE79DF967001AB010BD00BFBD3786351A
:100EF000540080BF5400803F00000000000000004C
:100F000080B5AEB02A90ADF8A6102A9828B1FFE7B8
:100F1000BDF8A600382804D8FFE70020ADF8AE00E1
:100F20003BE1EFF310802C902C980390EFF31080AE
:100F300072B62D9000F0A0FA014609A87C22FFF7B6
:100F40003AFB44F60043C2F20043986BD96B1A6C2B
:100F50005B6C089307920691059045F6EC10C2F27F
:100F6000004081788DF812100088ADF810000398C9
:100F700010B9FFE762B6FFE79DED050AFFF7E8FD50
:100F80008DED020A9DED060AFFF7E2FD8DED010AE7
:100F90009DED070AFFF7DCFD8DED000A0020ADF89E
:100FA000A4002A99BDF8A420501CADF8A400A520E7
:100FB0008854BDF8A400ADF8A2002A99BDF8A42079
:100FC000501CADF8A400E12088549DF810002A9927
:100FD000BDF8A420531CADF8A43088549DF811002E
:100FE0002A99BDF8A420531CADF8A43088549DF86C
:100FF00012002A99BDF8A420531CADF8A4308854DF
:101000009DF89C002A99BDF8A420531CADF8A4308B
:1010100088549DF898002A99BDF8A420531CADF877
:10102000A43088542A98BDF8A41008449DED090AFC
:1010300000F0FAF8BDF8A4000430ADF8A4002A9836
:10104000BDF8A41008449DED0A0A00F0EDF8BDF8C3
:10105000A4000430ADF8A4002A98BDF8A4100844F8
:101060009DED0B0A00F0E0F8BDF8A4000430ADF8E7
:10107000A4002A98BDF8A41008449DED0C0A00F0C5
:10108000D3F8BDF8A4000430ADF8A4002A98BDF848
:10109000A41008449DED0D0A00F0C6F8BDF8A400A8
:1010A0000430ADF8A4002A98BDF8A41008449DEDC2
:1010B0000E0A00F0B9F8BDF8A4000430ADF8A400A1
:1010C0002A98BDF8A41008449DED230A00F0ACF85E
:1010D000BDF8A4000430ADF8A4002A98BDF8A4100F
:1010E00008449DED240A00F09FF8BDF8A4000430E8
:1010F000ADF8A4002A98BDF8A41008449DED250A77
:1011000000F092F8BDF8A4000430ADF8A4002A98CD
:10111000BDF8A41008449DED020A00F085F8BDF862
:10112000A4000430ADF8A4002A98BDF8A410084427
:101130009DED010A00F078F8BDF8A4000430ADF888
:10114000A4002A98BDF8A41008449DED000A00F000
:101150006BF8BDF8A4000430ADF8A4002A98BDF8DF
:10116000A2100844362100F01FF88DF8A1009DF868
:10117000A1002A99BDF8A420531CADF8A4308854CE
:101180002A99BDF8A420501CADF8A4005A20885418
:10119000BDF8A400ADF8AE00FFE7BDF8AE002EB07C
:1011A00080BD00000000000085B00390ADF80A107B
:1011B00000200190039820B9FFE700208DF813006C
:1011C0001CE00020ADF80200FFE7BDF80200BDF80A
:1011D0000A1088420EDAFFE70398BDF80210415C5E
:1011E000019808440190FFE7BDF802000130ADF816
:1011F0000200EAE701988DF81300FFE79DF813005D
:1012000005B070470000000045F62821C2F20041F9
:10121000002008707047000045F62820C2F2004008
:10122000007870470000000082B001908DED000A48
:10123000019808B9FFE703E0019900980860FFE70B
:1012400002B070470000000080B582B045F628204B
:10125000C2F20040007820B1FFE700208DF80700BF
:1012600035E045F6EF10C2F200403921FFF748FEA5
:10127000ADF80400BDF8040020B9FFE700208DF8A8
:10128000070024E045F62821C2F200410120087041
:10129000BDF8042043F21C10C2F2000045F6EF1125
:1012A000C2F200410AF080FC8DF803009DF80300B3
:1012B00048B1FFE745F62821C2F20041002008703E
:1012C0008DF8070003E001208DF80700FFE79DF887
:1012D000070002B080BD000045F62821C2F200419F
:1012E000002008707047000080B58AB0002001908F
:1012F0000020C4F2A030029003909FED120AFFF785
:101300007FFA8DED040A9FED100AFFF779FA8DED53
:10131000060A9FED0E0AFFF773FA8DED080A012009
:101320008DF81400FF218DF81C108DF8240044F670
:101330000040C2F2004001A9FFF74AFB00F000F9AB
:101340000AB080BD0000000000008C42000011C304
:1013500080B592B00FA8029080ED020AC0ED010A9C
:1013600080ED001A119942F6EC32C2F200021160CF
:10137000109951600F99916090ED020AD0ED010A29
:1013800090ED001A44F60040C2F200400390DFEDF9
:10139000391AFFF705FC014603988DF83B10FFF75B
:1013A00007FB0D909DF93B0028BBFFE70D9824300B
:1013B00044F60041C2F2004109AA0092FFF734FA54
:1013C000009805A9019100F08FF802980099019A00
:1013D00090ED020AD0ED010A90ED001A0D9800F090
:1013E000BBF800218DF813109DF813200D9B0846C3
:1013F00000F032F93BE09DF93B00033060B9FFE7B4
:1014000000F042F88DF813009DF813200D9B012089
:10141000002100F021F929E09DF93B000430C0B91A
:10142000FFE700208DF812000D9828B1FFE70D9816
:1014300040788DF81200FFE700F026F88DF81300D1
:101440009DF812109DF813200D9B022000F004F966
:101450000BE000F019F88DF813009DF813200D9B98
:101460000320002100F0F8F8FFE7FFE7FFE712B0E4
:1014700080BD00BF0000000042F6EC30C2F2000068
:10148000704700000000000082B042F6EC30C2F26B
:10149000000090F87800E8B1FFE742F6EC31C2F2C4
:1014A000000100918869CA690B6AD1F824C0C1F8AB
:1014B00034C00B63CA628862886DCA6D0B6ED1F846
:1014C00064C0C1F874C00B67CA66886601208DF8D5
:1014D000070003E002208DF80700FFE79DF80700F2
:1014E00002B070470000000080B582B0019000910A
:1014F000019818B1FFE7009808B9FFE71CE00198D0
:1015000090ED000AFFF724FB009880ED000A019897
:1015100090ED010AFFF71CFB009880ED010A01988D
:1015200090ED020AFFF714FB009880ED020A019883
:10153000007B00990873FFE702B080BD0000000047
:1015400080B542F6EC30C2F200007C21FFF765F86E
:1015500080BD00000000000087B08DED060ACDEDD3
:10156000050A8DED041A039002910192039830B19F
:10157000FFE7029818B1FFE7019808B9FFE768E0B4
:10158000069842F6EC31C2F200010091C86005985D
:10159000086104984861DDF80CC0DCF81400DCF840
:1015A0001820DCF81C30DCF820C0C1F824C00B6225
:1015B000CA618861DDF80CC0DCF82400DCF8282062
:1015C000DCF82C30DCF830C0C1F844C00B64CA63CE
:1015D0008863DDF808C0DCF80000DCF80420DCF8E3
:1015E0000830DCF80CC0C1F854C00B65CA648864CC
:1015F000DDF804C0DCF80000DCF80420DCF808307A
:10160000DCF80CC0C1F864C00B66CA658865DDF8FB
:101610000CC0DCF81400DCF81820DCF81C30DCF816
:1016200020C0C1F834C00B63CA628862DDF804C010
:10163000DCF80000DCF80420DCF80830DCF80CC032
:10164000C1F874C00B67CA668866012081F878000B
:10165000FFE707B07047000080B588B08DF81F0025
:101660008DF81E108DF81D2006939DF81F008DF833
:1016700012009DF81E008DF813009DF81D008DF8D6
:101680001400069848B1FFE7069880788DF8150099
:101690000698C0788DF8160005E000208DF815003A
:1016A0008DF81600FFE742F6EC30C2F2000090F829
:1016B00078008DF81700902001900DF11201029131
:1016C0000622039200F010F801980299039A00F0A4
:1016D00003F808B080BD000083B08DF80B000191C5
:1016E000ADF8022003B0704780B584B08DF80F00CC
:1016F0000291ADF806209DF80F0002999DF8062092
:101700000CF04AFD04B080BD80B582B047F64C3085
:10171000C2F2004090ED000A42F6B430C2F200007E
:1017200090ED001AB4EE410AF1EE10FA44D1FFE751
:1017300044F21440C2F2000090ED000A44F6BC30BE
:10174000C2F2004090ED001AB4EE410AF1EE10FA38
:1017500032D1FFE747F65430C2F2004090ED000A64
:1017600042F6B830C2F2000090ED001AB4EE410A21
:10177000F1EE10FA20D1FFE743F2E011C2F20001CE
:101780000020086045F21031C2F20041086043F2C7
:10179000E411C2F20001086044F6F831C2F20041DF
:1017A000086042F6E431C2F20001086044F6FC3100
:1017B000C2F20041086058E042F6B430C2F20000C4
:1017C00090ED000A44F6BC30C2F20040D0ED000AB1
:1017D00042F6B830C2F2000090ED001AFFF7B8FDF3
:1017E000FFF74AFE0190019890F87800E0B3FFE718
:1017F00042F6BC30C2F2000090F9000001281BD173
:10180000FFE70198806A43F2C011C2F2000108604C
:101810000198C06A48600198006B88600198806EEA
:1018200044F6E831C2F2004108600198C06E486099
:101830000198006F88600FE043F2C011C2F200010E
:10184000002008604860886044F6E831C2F2004138
:10185000086048608860FFE7FFF7DEFC18B9FFE723
:10186000FFF7F2FCFFE7FFE7FFE702B080BD0000F3
:1018700080B584B08DED030ACDED020A8DED011A1D
:1018800044F21040C2F2000090ED000A9DED031AF0
:10189000B4EE410AF1EE10FA2CD1FFE747F65030D2
:1018A000C2F2004090ED000A9DED021AB4EE410A2A
:1018B000F1EE10FA1ED1FFE744F21840C2F2000028
:1018C00090ED000A9DED011AB4EE410AF1EE10FA16
:1018D00010D1FFE743F2D011C2F2000100200860EE
:1018E0004860886042F6D431C2F200010860486066
:1018F00088602BE09DED030ADDED020A9DED011AE3
:10190000FFF726FDFFF7B8FD0090009890F87800EB
:10191000D8B1FFE70098806A43F2D011C2F200010B
:1019200008600098C06A48600098006B8860009862
:10193000806E42F6D431C2F2000108600098C06E99
:1019400048600098006F8860FFE7FFE704B080BD43
:1019500080B598B01690159114921393169830B1E3
:10196000FFE7159818B1FFE7149808B9FFE7A1E25F
:1019700042F6BD30C2F20000007808B9FFE799E2F4
:10198000EFF3108072B6179044F6C133C2F20043F1
:10199000186859689A68DB681293119210910F9039
:1019A00042F6BD31C2F200010020087062B69DF916
:1019B0003C0000EE100AB8EEC00A9FEDE22A80EE6D
:1019C000020A9FEDE11A20EE010A169880ED000A46
:1019D0009DF93D0000EE100AB8EEC00A80EE020A42
:1019E00020EE010A159880ED000A9DF93E0000EEF8
:1019F000100AB8EEC00A80EE020A20EE010A14981E
:101A000080ED000A9DF93F0000EE100AB8EEC00A12
:101A100080EE020A9FEDCD1A20EE010A45F2F82071
:101A2000C2F2004080ED000A9DF9401000EE101A4D
:101A3000B8EEC00A80EE020A20EE010A43F2B411A9
:101A4000C2F2000181ED000A9DF9411000EE101A6A
:101A5000B8EEC00A80EE020A9FEDBD2A20EE020A0F
:101A600045F2F021C2F2004181ED000A90ED000A3A
:101A7000B0EEC00AB4EE410AF1EE10FA12DBFFE755
:101A800045F2F821C2F2004191ED000A0FF22C401C
:101A9000021DB5EE400AF1EE10FAC8BF104600680C
:101AA0000860FFE743F2B410C2F2000090ED000AB4
:101AB000B0EEC00A9FEDA51AB4EE410AF1EE10FA9D
:101AC00012DBFFE743F2B411C2F2000191ED000A0C
:101AD0000FF2E830021DB5EE400AF1EE10FAC8BF71
:101AE000104600680860FFE745F2F020C2F20040AF
:101AF00090ED000AB0EEC00A9FED951AB4EE410ACF
:101B0000F1EE10FA12DBFFE745F2F021C2F20041DC
:101B100091ED000A0FF2AC30021DB5EE400AF1EE75
:101B200010FAC8BF104600680860FFE79DF8420041
:101B300045F2EC21C2F2004108709DF8430042F6E4
:101B4000BC31C2F200010D9108709DF844008DF87F
:101B50003B009DF845008DF83A009DF846008DF851
:101B600039009DF93B006FF07E0103917F220492C2
:101B70000CF016FA0399049A8DF83B009DF93A008F
:101B80000CF00EFA8DF83A009DF9390032217822D6
:101B90000CF006FA8DF839009DF93B0000EE100AB2
:101BA000B8EEC00ADFEDC90ACDED050A9FEDC81AEF
:101BB0008DED061ADFEDC71ACDED081A9FEDC62A86
:101BC0008DED0B2A0CF014FADDED050A9DED061AD9
:101BD000DDED081A9DED0B2A45F20830C2F20040F7
:101BE000079080ED000A9DF93A0000EE100AB8EE69
:101BF000C00A0CF0FDF99DED0B2A43F2BC10C2F2B5
:101C00000000099080ED000A9DF9390000EE100AED
:101C1000B8EEC00A9FEDB11ADFEDB11ACDED0A1A88
:101C2000F0EE610A0CF0E4F90798DDED080A9DED8D
:101C30000B1A45F20C31C2F200410C9181ED000A01
:101C400090ED000A0CF084F90799DDED080A099877
:101C50009DED0B1A81ED000A90ED000A0CF078F969
:101C60000999DDED0A0A9DED0B1A0C9881ED000A29
:101C700090ED000A0CF06CF90C990D9881ED000ABA
:101C800090F9000001281FD1FFE745F20830C2F2A9
:101C90000040006842F6B431C2F20001086043F22D
:101CA000BC10C2F20000006844F6BC31C2F2004130
:101CB000086045F20C30C2F20040006842F6B831CC
:101CC000C2F20001086010E042F6B431C2F2000135
:101CD0000020086044F6BC31C2F20041086042F6C0
:101CE000B831C2F200010860FFE79DF8471042F2E8
:101CF000B130C2F2000001700078D8B9FFE744F2B9
:101D00009811C2F200410120087042F2B030C2F2D4
:101D1000000000210291017044F6D430C2F200406C
:101D200015F05AFB029942F6C030C2F2000015F0DD
:101D300027FBFFE742F2B130C2F200000078012831
:101D400023D107E0000000431F856B4000003443AF
:101D500000005C4242F2B030C2F200000121019169
:101D6000017044F29812C2F200420020107044F652
:101D7000D430C2F2004015F02FFB019942F6C0307A
:101D8000C2F2000015F0FCFAFFE79DF8480045F6A6
:101D90004C11C2F2004108709DF9490000EE100A92
:101DA000B8EEC00A9FED441A80EE010A9FED4D1A6D
:101DB00020EE010A44F2C420C2F2000080ED000AC5
:101DC0009DF84A1044F21C40C2F2000001709DF8D8
:101DD0004B1047F65832C2F200421170007880BBB7
:101DE000FFE747F65830C2F20040007878B9FFE7C5
:101DF00042F6C030C2F20000007840B1FFE742F680
:101E0000C030C2F20000002115F03AFB18E047F69E
:101E10005830C2F200400078012810D1FFE742F6A6
:101E2000C030C2F200000078012808D0FFE742F677
:101E3000C030C2F20000012115F022FBFFE7FFE7EE
:101E400038E044F21C40C2F200000078012830D192
:101E5000FFE747F65830C2F20040007878B9FFE754
:101E600044F6D430C2F20040007840B1FFE744F6B7
:101E7000D430C2F20040002115F036FB18E047F6DE
:101E80005830C2F200400078012810D1FFE744F634
:101E9000D430C2F200400078012808D0FFE744F6B1
:101EA000D430C2F20040012115F01EFBFFE7FFE72E
:101EB000FFE7FFE718B080BD00000043000034C317
:101EC0000000344300005CC200005C420000FEC21F
:101ED0000000FE420000FAC30000FA430000F04296
:101EE0000000484200000045FFE7FEE70000000058
:101EF00080B5A4B0239041F2883001F095F84FF2FC
:101F0000BB50C3F6EF10229045F69940C3F68110FE
:101F1000219046F62260C3F6D6102090FFE744F2E7
:101F20009810C2F200400078012840F0E380FFE7FB
:101F300045F64C10C2F2004090F90000002849D14B
:101F4000FFE744F22040C2F200001C9090ED000A2E
:101F50009DED201A80EE010A01200BF0E9FB1C9890
:101F6000BDEEC00A10EE101A1D9190ED010AB1EEFF
:101F7000400A9DED201A80EE010A02200BF0D8FBEA
:101F80001C98BDEEC00A10EE101A1E9190ED020AC8
:101F90009DED201A80EE010A03200BF0C9FB1C986E
:101FA000BDEEC00A10EE101A1F9190ED030AB1EEBB
:101FB000400A9DED201A80EE010A04200BF0B8FBC8
:101FC0001D981E991F9ABDEEC00A10EE103A01F03E
:101FD0006BF8FFE745F64C10C2F2004090F90000A4
:101FE00001284DD1FFE744F2C420C2F2000017904F
:101FF00090ED000A9DED201A80EE010A01200BF001
:1020000097FB1798BDEEC00A10EE101A199190EDCB
:10201000000AB1EE400A9DED201A80EE010A02206E
:102020000BF086FBBDEEC00A10EE100A1A9044F2C7
:102030002040C2F20000189090ED020A9DED201A97
:1020400080EE010A03200BF073FB1898BDEEC00A66
:1020500010EE101A1B9190ED030AB1EE400A9DEDAF
:10206000201A80EE010A04200BF062FB19981A99DD
:102070001B9ABDEEC00A10EE103A01F015F8FFE70A
:1020800044F6E830C2F20040149090ED000AFEF7EA
:1020900037FBB1EE400A9DED211A80EE010A0120C6
:1020A00014F0B6F91498BDEEC00A10EE101A15918E
:1020B00090ED010A9DED221A80EE010A022014F033
:1020C000A7F91498BDEEC00A10EE101A169190ED03
:1020D000020A9DED221A80EE010A032014F098F9FD
:1020E00015981699BDEEC00A10EE102A002301F0D3
:1020F0002BF8FFE742F2B030C2F20000007801286E
:1021000040F0E780FFE745F64C10C2F2004090F93E
:102110000000002849D1FFE747F65C30C2F20040DA
:10212000109090ED000A9DED201A80EE010A01202A
:102130000BF0FEFA1098BDEEC00A10EE101A1191C5
:1021400090ED010AB1EE400A9DED201A80EE010AE1
:1021500002200BF0EDFA1098BDEEC00A10EE101A36
:10216000129190ED020A9DED201A80EE010A0320E3
:102170000BF0DEFA1098BDEEC00A10EE101A1391A3
:1021800090ED030AB1EE400A9DED201A80EE010A9F
:1021900004200BF0CDFA11981299139ABDEEC00AE3
:1021A00010EE103A00F080FFFFE745F64C10C2F247
:1021B000004090F9000001284DD1FFE744F2C4200F
:1021C000C2F200000B9090ED000A9DED201A80EE07
:1021D000010A01200BF0ACFA0B98BDEEC00A10EE1C
:1021E000101A0D9190ED000AB1EE400A9DED201AF3
:1021F00080EE010A02200BF09BFABDEEC00A10EE41
:10220000100A0E9047F65C30C2F200400C9090ED40
:10221000020A9DED201A80EE010A03200BF088FAD5
:102220000C98BDEEC00A10EE101A0F9190ED030A43
:10223000B1EE400A9DED201A80EE010A04200BF059
:1022400077FA0D980E990F9ABDEEC00A10EE103A6B
:1022500000F02AFFFFE742F6D430C2F200000790F8
:1022600090ED000AFEF74CFAB1EE400A9DED211AFE
:1022700080EE010A01200A9014F0CAF80798BDEE1A
:10228000C00A10EE101A089190ED010A9DED221A75
:1022900080EE010A022014F0BBF80798BDEEC00AD8
:1022A00010EE101A099190ED020A9DED221A80EEAF
:1022B000010A032014F0ACF808980999BDEEC00A91
:1022C00010EE102A002300F03FFF0A9800F0ACFE49
:1022D000FFE743F2E810C2F200000490018845F2E3
:1022E0000030C2F20040019090ED000A42F64470C6
:1022F000C2F200000590F6EE000ACDED030A14F0DC
:1023000097F8019ADDED030A04990598B1F81011C8
:1023100092ED010A14F08CF8DDED030A049905989A
:10232000B1F8201245F6E412C2F20042029292ED98
:10233000000A14F07DF8029ADDED030A049905986D
:10234000B1F8301392ED010A14F072F8049905986F
:10235000B1F8401445F2E822C2F2004292ED000AC0
:10236000F0EE000ACDED060A14F062F80499059823
:10237000DDED060AB1F8501544F2D022C2F2000297
:1023800092ED000A14F054F8012013F0CDFFC6E5D9
:1023900080B586B00490039100200290049818B193
:1023A000FFE7039818B9FFE70020059027E0FFE753
:1023B0000298039988421FD2FFE769460DF1070092
:1023C000086044F2F830C2F2000045F62C21C2F257
:1023D000004145F63022C2F200424FF480530BF028
:1023E00043FA08B9FFE707E09DF807000499029A4D
:1023F000531C02938854DBE702980590FFE7059889
:1024000006B080BD0000000080B544F2FC30C2F28E
:102410000000006846F63421C2F2004109684FF41A
:1024200080520BF011FA80BD80B584B042F668404E
:10243000C2F20000D0F8BC0208B9FFE77AE042F629
:102440006840C2F20000D0F8BC02039046F630208B
:10245000C2F20040006808B1FFE76BE00398D0F8D3
:10246000140208B1FFE765E044F2FC30C2F200005C
:10247000006846F63421C2F2004109684FF48052E8
:102480000BF062FA0290029808B9FFE752E044F2BA
:10249000FC30C2F20000006846F63421C2F200416E
:1024A000096888420DD9FFE744F2FC30C2F200000F
:1024B000006846F63421C2F200410968401A0190D2
:1024C00008E046F63420C2F200400068C0F58050B3
:1024D0000190FFE701980299884203D9FFE702982B
:1024E0000190FFE70198B0F5007F04D9FFE74FF4B2
:1024F00000700190FFE746F63420C2F20040016808
:1025000046F63820C2F200400144BDF8042042F6ED
:102510006840C2F2000000900EF0AEFC00980EF091
:10252000B7FD38B9FFE7019846F63021C2F2004105
:102530000860FFE704B080BD80B586B004900391C9
:10254000049818B1FFE7039820B9FFE701208DF840
:1025500017003FE044F2FC30C2F20000006846F68B
:102560003421C2F2004109684FF480520BF06CF93B
:10257000019003980199884204D9FFE700208DF863
:10258000170027E000200290FFE702980399884295
:102590001AD2FFE704980299405C6946086044F249
:1025A000FC30C2F2000046F63421C2F2004146F689
:1025B0003822C2F200424FF480530BF095F9FFE746
:1025C000029801300290E0E7FFF72EFF01208DF81E
:1025D0001700FFE79DF8170006B080BD000000005F
:1025E00084B08DF80F000291ADF80620FFE70120BE
:1025F00008B9FFE7FBE79DF80F000146009123288B
:102600002FD80099DFE801F012131415162D2D2D87
:102610002D2D2D2D2D2D2D2D2D2D2D2D2D2D2D2DEA
:102620002D2D2D2D2D2D2D2D17182B2C1AE019E0C9
:1026300018E017E016E015E0029900200870029AF1
:10264000C2215170029A012191700299C8700299B9
:1026500008710299487102990820887102E001E02E
:1026600000E0FFE7002004B0704700000000000019
:10267000002070470000000080B582B042F668403C
:10268000C2F20000009042F2B231C2F20001002218
:1026900001920EF0F1FB009844F2BC31C2F200410D
:1026A0000EF0CAFB0199009844F2F832C2F200021F
:1026B000116045F62C22C2F20042116044F2FC3255
:1026C000C2F20002116046F63422C2F200421160EA
:1026D00046F63022C2F20042116044F2F432C2F2F5
:1026E000000211600EF04CFB019802B080BD0000AA
:1026F00080B586B00590049100200390FFE7039811
:1027000004990968884224D2FFE705980399405C40
:102710006946086044F2F830C2F2000045F62C2108
:10272000C2F2004145F63022C2F200424FF480531B
:102730000BF0DAF840B9FFE744F2F431C2F20001DD
:10274000086801300860FFE7FFE703980130039055
:10275000D5E7059942F66840C2F2000002900EF0FB
:102760006BFB02980EF00CFB002006B080BD000051
:1027700083B0029001918DF8032000208DF80200B3
:102780009DF9020003B0704784B00290ADF80610C6
:102790004FF6FF70ADF80400029820B1FFE7BDF8D6
:1027A000060028B9FFE7BDF80400ADF80E0047E0C9
:1027B0000020ADF80200FFE7BDF80200BDF80610EA
:1027C000884238DAFFE70298BDF80210415CBDF894
:1027D00004004840ADF8040000208DF80100FFE738
:1027E0009DF8010007281FD8FFE7BDF80400C007C7
:1027F00068B1FFE7BDF804004008ADF80400BDF87B
:1028000004004AF201014840ADF8040005E0BDF8BB
:1028100004004008ADF80400FFE7FFE79DF8010061
:1028200001308DF80100DBE7FFE7BDF80200013061
:10283000ADF80200C0E7BDF80400ADF80E00FFE7F8
:10284000BDF80E0004B0704780B544F27420C2F2A7
:1028500000000AF001FE45F6FC00C2F200400AF05A
:10286000FBFD80BD0000000080B582B08DED010A47
:1028700045F2C020C2F2004090ED050ADDED010AEC
:1028800045F6FC00C2F200400AF0B2FC02B080BD86
:1028900080B584B08DED030A9DED030A45F2C0209A
:1028A000C2F20040009090ED081A30EE410A8DED22
:1028B000020A9DED020A00F0BBFE8DED020ADDED7D
:1028C000020A44F27420C2F200009FED090A0AF0E5
:1028D0008FFC00988DED010A90ED050ADDED010AEF
:1028E00045F6FC00C2F200400AF082FC04B080BD54
:1028F000000000000000000082B0ADF80400ADF858
:102900000210ADF80020BDF90400BDF902108842A4
:102910000BDBFFE7BDF90400BDF90010884204DCC1
:10292000FFE701208DF8070003E000208DF8070085
:10293000FFE79DF8070002B07047000000000000AC
:1029400080B582B001904FF47A7013F0EDFC0AF07C
:10295000BBF843F21C10C2F2000044F6C031C2F2D0
:102960000041012209F08CF809F0BEFDFEF7BCFC25
:1029700044F6D430C2F2004012F042FF42F6C030BA
:10298000C2F2000012F0E8FEFFE711F015FE44F27B
:102990003040C2F20000011D00F1080240F2501365
:1029A000C2F20003FEF7D4FF44F29810C2F20040D6
:1029B000007801281DD1FFE742F6C030C2F20000C6
:1029C00012F0E6FE44F6D430C2F2004012F034FFBA
:1029D0000AF0B6F90120009013F0A6FC09F020FCE3
:1029E000009813F0A1FCFEF78FFE009813F09CFCFA
:1029F000FFE7012013F098FCC7E70000000000008B
:102A000080B58AB08DF827000891079200200690C3
:102A10000590049003900898029008980630019061
:102A2000042004909DF827005038014600910F289B
:102A300042D80099DFE801F01A081D1122272A2D3B
:102A40003033364040404039342006900320049013
:102A500040200590012003902FE03D2006900320A8
:102A600004902E2005900120039026E0302006904F
:102A700023E037200690032007901EE03A200690BE
:102A80000320079019E04120069016E045200690AB
:102A900013E04920069010E04D2006900DE05120F3
:102AA00006900AE05520069007E047F63830C2F25B
:102AB00000400068069000E038E00798032805D140
:102AC000FFE70320049000200390FFE70498A8B1DB
:102AD000FFE7069944F2D420C2F2000000EB410067
:102AE0000299049A5200FDF721FD43F67050C2F29C
:102AF00000000268069804999047FFE70398A8B180
:102B0000FFE7059944F2D420C2F2000000EB410037
:102B10000199039A5200FDF709FD43F67050C2F285
:102B200000000268059803999047FFE70AB080BD4E
:102B300080B500F0D9FA44F65C40C2F2004003F0E0
:102B400057F900F021FB42F6E470C2F2000003F0F6
:102B50004FF90AF0A5FC80BD80B588B007900798B2
:102B600043F2E811C2F20001069181F83C006420B2
:102B7000049000F059FA069800889DF81C206946D8
:102B800000234B600B600A21039114F0CDFF0498E1
:102B900000F04AFA06980088232114F085F9069976
:102BA00042F64470C2F20000059012F001FF049852
:102BB00000F03AFA03990698008814F0B5FB0498DF
:102BC00000F032FA0598069912F02AFF08B080BD8D
:102BD00080B588B00790079943F2E810C2F2000070
:102BE000029080F84C1100F58870069064200490E3
:102BF00000F01AFA0298B0F810019DF81C206946FE
:102C000000234B600B600A21039114F08DFF0498A0
:102C100000F00AFA0298B0F81001232114F044F9E8
:102C2000069942F64470C2F20000059012F0C0FE10
:102C3000049800F0F9F902980399B0F8100114F023
:102C400073FB049800F0F0F90598069912F0E8FE7D
:102C500008B080BD0000000080B588B007900799DB
:102C600043F2E810C2F20000029080F85C1200F516
:102C7000087006906420049000F0D6F90298B0F82D
:102C800020029DF81C20694600234B600B600A213E
:102C9000039114F049FF049800F0C6F90298B0F8C7
:102CA0002002232114F000F9069942F64470C2F282
:102CB0000000059012F07CFE049800F0B5F902982F
:102CC0000399B0F8200214F02FFB049800F0ACF93F
:102CD0000598069912F0A4FE08B080BD000000001F
:102CE00080B588B00790079943F2E810C2F200005F
:102CF000029080F86C1300F54C70069064200490EC
:102D000000F092F90298B0F830039DF81C20694653
:102D100000234B600B600A21039114F005FF049817
:102D200000F082F90298B0F83003232114F0BCF8C7
:102D3000069942F64470C2F20000059012F038FE87
:102D4000049800F071F902980399B0F8300314F078
:102D5000EBFA049800F068F90598069912F060FE05
:102D600008B080BD0000000080B588B007900799CA
:102D700043F2E810C2F20000029080F87C1400F5E3
:102D8000886006906420049000F04EF90298B0F834
:102D900040049DF81C20694600234B600B600A210B
:102DA000039114F0C1FE049800F03EF90298B0F8C7
:102DB0004004232114F078F8069942F64470C2F2D8
:102DC0000000059012F0F4FD049800F02DF902982F
:102DD0000399B0F8400414F0A7FA049800F024F91D
:102DE0000598069912F01CFE08B080BD0000000096
:102DF00080B588B00790079943F2E810C2F200004E
:102E0000029080F88C1500F5AA600690642004906A
:102E100000F00AF90298B0F850059DF81C206946A8
:102E200000234B600B600A21039114F07DFE04988F
:102E300000F0FAF80298B0F85005232114F034F8A5
:102E4000069942F64470C2F20000059012F0B0FDFF
:102E5000049800F0E9F802980399B0F8500514F0CE
:102E600063FA049800F0E0F80598069912F0D8FD8E
:102E700008B080BD0000000080B582B042F644700A
:102E8000C2F200000021042212F086FB12F06CFB5B
:102E900012F05AFE02200190FFF75EFE0198FFF744
:102EA00097FE0198FFF7D8FE0198FFF719FF0198E8
:102EB000FFF75AFF0198FFF79BFF02B080BD0000AB
:102EC00080B584B08DF80F0002918DF807209DF831
:102ED0000F0001460091342800F29C800099DFE841
:102EE00001F0211B272D33999999999999999999CD
:102EF00099993F399951579999999999454B999928
:102F00009999635D696F7599999999999999999921
:102F10009999817B878D930002989DF807100FF097
:102F200037FF78E002989DF807100FF009FF72E074
:102F300002989DF807100FF05BFF6CE002989DF877
:102F400007100FF069FF66E002989DF807100FF078
:102F500047FF60E002989DF8071011F09DF95AE0D4
:102F600002989DF8071011F08BF954E002989DF833
:102F7000071011F0A5F94EE002989DF8071011F026
:102F800023FA48E002989DF8071011F0A1FA42E0F8
:102F900002989DF8071011F08BF93CE002989DF81B
:102FA000071011F05DF836E002989DF8071011F057
:102FB0001FF830E002989DF8071011F091F82AE010
:102FC00002989DF8071011F027F924E002989DF867
:102FD000071011F07DF81EE002989DF807100FF021
:102FE0003FFF18E002989DF807100FF02DFF12E048
:102FF00002989DF807100FF047FF0CE002989DF82B
:1030000007100FF0C9FF06E002989DF807100FF0B7
:1030100033FF00E0FFE704B080BD000000000000C7
:10302000704700000000000080B582B0019003F0FE
:10303000C7FA0090FFE703F0C3FA0099401A01991C
:10304000884201D2FFE7F6E702B080BD0000000031
:1030500081B0EFF3108072B60090FFE7FEE700004A
:1030600044F60C01C5F60201086840F00200086051
:10307000FFE744F60400C5F602000068800400285B
:1030800001D4FFE7F5E7704780B542F64470C2F21D
:10309000000001F03DFF80BD80B542F64470C2F2F1
:1030A000000001F035FF80BD80B584B0ADF80E00A2
:1030B000ADF80C10ADF80A20ADF80830BDF90E20BF
:1030C000BDF90C30BDF90A00BDF908C06946C1F868
:1030D00004C0086044F65C40C2F200404FF4007146
:1030E00000F042FA04B080BD80B588B000200090A6
:1030F00002210191029103910490059044F65C40F5
:10310000C2F20040694601F083FC18B1FFE7FFF707
:103110009FFFFFE744F65C40C2F2004000F070FA07
:1031200008B080BD0000000080B544F65C40C2F2EB
:10313000004001F0EDFE80BD80B544F65C40C2F277
:10314000004001F0E5FE80BD80B584B0ADF80E0012
:10315000ADF80C10ADF80A20ADF80830BDF90E201E
:10316000BDF90C30BDF90A00BDF908C06946C1F8C7
:1031700004C0086042F6E470C2F200004FF400712F
:1031800000F0F2F904B080BD80B588B00020009056
:10319000032101910221029103910490059042F6CE
:1031A000E470C2F20000694601F032FC18B1FFE79A
:1031B000FFF74EFFFFE742F6E470C2F2000000F0B6
:1031C0001FFA08B080BD000080B542F6E470C2F27C
:1031D000000001F09DFE80BD80B542F6E470C2F2B1
:1031E000000001F095FE80BD84B002900298406B13
:1031F000009002980068D0F884004FF6FC71884374
:10320000009940EA810002990968C1F88400029897
:103210000068D0F8840020F47F00029A1168926B55
:1032200040EA0240C1F884000298816B009808448B
:10323000009002980068D0F888006FF38F00009922
:1032400040EA810002990968C1F888000298006884
:10325000D0F8880020F4FE00029A1168D26B40EA90
:103260000240C1F888000298C16B009800EB410051
:10327000009002980068D0F8A0006FF38F000099CA
:1032800040EA810002990968C1F8A000029800682C
:10329000D0F8A00020F4FE00029A1168126C40EAF7
:1032A0000240C1F8A0000299086C496C009A00FB2A
:1032B0000120009002980068D0F8B0006FF38F00F2
:1032C000009940EA810002990968C1F8B0000298AB
:1032D0000068D0F8B00020F4FE00029A1168926CE9
:1032E00040EA0240C1F8B0000299886CC96C009AAB
:1032F00000FB0120009002980068D0F8AC006FF34A
:103300008F00009940EA810002990968C1F8AC0079
:103310000299086D496D009A00FB01200090029807
:103320000068D0F8F0006FF38F00009940EA810048
:1033300002990968C1F8F00002980068D0F8F0001E
:1033400020F47C10029A1168926D40EA0240C1F8A4
:10335000F0000298816D009800EB41000090029807
:103360000068D0F8C0006FF38F00009940EA810038
:1033700002990968C1F8C00002980068D0F8C0003E
:1033800020F47C10029A1168D26D40EA0240C1F824
:10339000C00002980068D0F8C00020F07C50029A6B
:1033A0001168126E40EA0260C1F8C00002994A6BCF
:1033B0004AF60040C4F2000000EB8200C8660299A1
:1033C0008A6BC86E00EB820008670299CA6B086FAF
:1033D00000EBC200486702990A6C4B6C486F5A4375
:1033E00000EB8200886702998A6CCB6C886F5A4325
:1033F00000EB8200C86702990A6D4B6DC86F5A4393
:1034000000EB8200C1F8800002998A6DD1F880003B
:1034100000EBC200C1F884000299CA6D8B6ED1F82E
:1034200084005A4300EB8200C1F8880002990A6EBA
:103430008B6ED1F888005A4300EB8200C1F89000EF
:103440000298D0F890004DF2FD31C4F2000188429C
:103450000FD3FFE70299D1F89C0040F02000C1F89B
:103460009C000299032081F8980001208DF80F003C
:1034700017E00298C06E0190FFE701980299D1F819
:103480009010884208D2FFE7019900200860FFE70A
:10349000019804300190F0E7FFE700208DF80F005D
:1034A000FFE79DF80F0004B0704700000000000027
:1034B00088B007900691059204930698406848B931
:1034C000FFE70698016882680069104340EA81407E
:1034D000039009E006980168826800691043084378
:1034E00040F080400390FFE70698D0F820C0C16804
:1034F00042698369C06940EA0C601843104340EA9E
:10350000014002900798826ED0F8840004995143DC
:1035100000EB810001900398019908600198043044
:1035200001900298019908600198043001900020F0
:103530000090FFE700980699CA6848F67831C0F60F
:103540000101895C88420DD2FFE705980099405837
:1035500001990860019804300190FFE70098043059
:103560000090E7E708B0704710B590B08C468646EB
:1035700013981299CDF83CE0ADF83AC0ADF8382078
:10358000ADF83630ADF83410ADF83200BDF83A0081
:103590000390002004900590082106910790089060
:1035A00009900A900B909DF839008DF80400BDF841
:1035B00038008DF805009DF837008DF80600BDF83D
:1035C00036008DF807009DF835008DF80800BDF82D
:1035D00034008DF809009DF833008DF80A00BDF81D
:1035E00032008DF80B000F9803A901AA01F04CF9E5
:1035F00008B1FFE7FFE710B010BD000000000000B9
:1036000080B582B00190019802F0F2FB18B1FFE79B
:10361000FFF71EFDFFE701981021002201F0B4F82A
:1036200018B1FFE7FFF714FDFFE702B080BD00000F
:1036300081B08DED000AFFE79DED000A9FED141AA1
:10364000B4EE410AF1EE10FA09DDFFE79DED000A44
:103650009FED121A30EE010A8DED000AECE7FFE74C
:103660009DED000A9FED0B1AB4EE410AF1EE10FA3F
:1036700009DAFFE79DED000A9FED071A30EE010A17
:103680008DED000AECE79DED000A01B0704700BF28
:1036900000003443000034C30000B4430000B4C34E
:1036A00080B584B04EF60000C1F6F170006803905A
:1036B0004EF60400C1F6F170006802904EF6080064
:1036C000C1F6F170006801900199039808440390D5
:1036D000039888B1FFE7039840F25001C2F200015D
:1036E00000910231082208F027FC0099029812315B
:1036F000042208F021FCFFE704B080BD00000000B8
:1037000080B540F60000C5F602004FF4604101228A
:1037100002F03EFF80BD000080B58AB0089002F044
:103720004FFF0490089828B9FFE701208DF8270083
:1037300000F0AABC089890F8350002280ED0FFE7E8
:10374000089980204865FFE70899002081F8340037
:10375000FFE701208DF8270000F096BC089801686B
:1037600001201022C4F202029142039000F0A380D3
:10377000FFE70898016801202822C4F20202914262
:10378000039000F09880FFE708980168012040222C
:10379000C4F202029142039000F08D80FFE7089886
:1037A000016801205822C4F202029142039000F005
:1037B0008280FFE70898016801207022C4F20202AB
:1037C0009142039077D0FFE7089801680120882292
:1037D000C4F20202914203906DD0FFE7089801689D
:1037E0000120A022C4F202029142039063D0FFE7BD
:1037F000089801680120B822C4F2020291420390A5
:1038000059D0FFE708980168012040F21042C4F245
:103810000202914203904ED0FFE708980168012010
:1038200040F22842C4F202029142039043D0FFE7E3
:1038300008980168012040F24042C4F2020291421D
:10384000039038D0FFE708980168012040F2584201
:10385000C4F20202914203902DD0FFE7089801685C
:10386000012040F27042C4F202029142039022D041
:10387000FFE708980168012040F28842C4F2020282
:103880009142039017D0FFE708980168012040F2A9
:10389000A042C4F20202914203900CD0FFE70898C4
:1038A00000684FF64831CBF6FD710844B0FA80F05D
:1038B00040090390FFE70398C00780B1FFE708982D
:1038C0000168086820F01E000860089801684869CF
:1038D00020F08000486108980068059009E0089889
:1038E0000168086820F00E000860089800680590DC
:1038F000FFE70898016801201022C4F202029142F9
:10390000029000F00381FFE7089801680120282257
:10391000C4F202029142029000F0F880FFE708989A
:10392000016801204022C4F202029142029000F09C
:10393000ED80FFE70898016801205822C4F20202D6
:103940009142029000F0E280FFE7089801680120B0
:103950007022C4F202029142029000F0D780FFE789
:103960000898016801208822C4F202029142029064
:1039700000F0CC80FFE7089801680120A022C4F283
:1039800002029142029000F0C180FFE708980168AE
:103990000120B822C4F202029142029000F0B680E7
:1039A000FFE708980168012040F21042C4F20202C9
:1039B0009142029000F0AA80FFE708980168012078
:1039C00040F22842C4F202029142029000F09E802E
:1039D000FFE708980168012040F24042C4F2020269
:1039E0009142029000F09280FFE708980168012060
:1039F00040F25842C4F202029142029000F08680E6
:103A0000FFE708980168012040F27042C4F2020208
:103A1000914202907AD0FFE708980168012040F2B5
:103A20008842C4F20202914202906FD0FFE70898E8
:103A30000168012040F2A042C4F2020291420290C9
:103A400064D0FFE708980168012040F2B842C4F250
:103A500002029142029059D0FFE7089801680120C4
:103A600045F20842C5F60202914202904ED0FFE7AD
:103A700008980168012045F21C42C5F602029142F5
:103A8000029043D0FFE708980168012045F23042D8
:103A9000C5F602029142029038D0FFE7089801680B
:103AA000012045F24442C5F60202914202902DD017
:103AB000FFE708980168012045F25842C5F6020266
:103AC0009142029022D0FFE708980168012045F258
:103AD0006C42C5F602029142029017D0FFE70898A7
:103AE0000168012045F28042C5F60202914202902F
:103AF0000CD0FFE7089800684AF66C31CAF2FD71F5
:103B00000844B0FA80F040090290FFE70298C0072D
:103B100038B1FFE70898016E086820F480700860EB
:103B2000FFE7089800681021C4F20201884200F003
:103B30008180FFE7089800682821C4F202018842CA
:103B400078D0FFE7089800684021C4F2020188425B
:103B500070D0FFE7089800685821C4F2020188423B
:103B600068D0FFE7089800687021C4F2020188421B
:103B700060D0FFE7089800688821C4F202018842FB
:103B800058D0FFE708980068A021C4F202018842DB
:103B900050D0FFE708980068B821C4F202018842BB
:103BA00048D0FFE70898006840F21041C4F20201D3
:103BB00088423FD0FFE70898006840F22841C4F2ED
:103BC0000201884236D0FFE70898006840F2404181
:103BD000C4F2020188422DD0FFE70898006840F245
:103BE0005841C4F20201884224D0FFE708980068D7
:103BF00040F27041C4F2020188421BD0FFE70898EE
:103C0000006840F28841C4F20201884212D0FFE706
:103C10000898006840F2A041C4F20201884209D02D
:103C2000FFE70898006840F2B841C4F202018842F8
:103C300007D1FFE708980168086820F001000860D4
:103C400006E008980168086820F001000860FFE7B6
:103C5000FFE705980068C007C8B1FFE702F0B0FCB5
:103C60000499401A062811D3FFE7089920204865D7
:103C70000899032081F83500FFE70899002081F8B2
:103C80003400FFE701208DF82700FDE1E1E7089807
:103C9000016801201022C4F202029142019000F05A
:103CA000A380FFE70898016801202822C4F20202DD
:103CB0009142019000F09880FFE708980168012088
:103CC0004022C4F202029142019000F08D80FFE791
:103CD0000898016801205822C4F202029142019022
:103CE00000F08280FFE70898016801207022C4F28A
:103CF00002029142019077D0FFE708980168012005
:103D00008822C4F20202914201906DD0FFE7089828
:103D100001680120A022C4F202029142019063D006
:103D2000FFE7089801680120B822C4F2020291421C
:103D3000019059D0FFE708980168012040F2104235
:103D4000C4F20202914201904ED0FFE70898016848
:103D5000012040F22842C4F202029142019043D075
:103D6000FFE708980168012040F24042C4F20202D5
:103D70009142019038D0FFE708980168012040F295
:103D80005842C4F20202914201902DD0FFE70898F8
:103D90000168012040F27042C4F202029142019097
:103DA00022D0FFE708980168012040F28842C4F25F
:103DB00002029142019017D0FFE7089801680120A4
:103DC00040F2A042C4F20202914201900CD0FFE7FF
:103DD000089800684FF64831CBF6FD710844B0FAF8
:103DE00080F040090190FFE70198C00760B1FFE74C
:103DF0000898806D07900898C06D00F01F013F2063
:103E00008840079988600BE00898806D06900898B4
:103E1000C06D00F01F010120884006994860FFE74F
:103E20000898016801201022C4F202029142009019
:103E300000F00381FFE70898016801202822C4F2FE
:103E400002029142009000F0F880FFE708980168B4
:103E500001204022C4F202029142009000F0ED8065
:103E6000FFE70898016801205822C4F2020291423B
:103E7000009000F0E280FFE70898016801207022BE
:103E8000C4F202029142009000F0D780FFE7089848
:103E9000016801208822C4F202029142009000F0E1
:103EA000CC80FFE7089801680120A022C4F202023A
:103EB0009142009000F0C180FFE70898016801205E
:103EC000B822C4F202029142009000F0B680FFE7EF
:103ED00008980168012040F21042C4F202029142A7
:103EE000009000F0AA80FFE708980168012040F2E6
:103EF0002842C4F202029142009000F09E80FFE747
:103F000008980168012040F24042C4F20202914246
:103F1000009000F09280FFE708980168012040F2CD
:103F20005842C4F202029142009000F08680FFE7FE
:103F300008980168012040F27042C4F202029142E6
:103F400000907AD0FFE708980168012040F288428B
:103F5000C4F20202914200906FD0FFE70898016816
:103F6000012040F2A042C4F202029142009064D0CB
:103F7000FFE708980168012040F2B842C4F202024B
:103F80009142009059D0FFE708980168012045F25E
:103F90000842C5F60202914200904ED0FFE7089811
:103FA0000168012045F21C42C5F6020291420090D0
:103FB00043D0FFE708980168012045F23042C5F67A
:103FC00002029142009038D0FFE708980168012072
:103FD00045F24442C5F60202914200902DD0FFE71F
:103FE00008980168012045F25842C5F60202914244
:103FF000009022D0FFE708980168012045F26C424A
:10400000C5F602029142009017D0FFE708980168B8
:10401000012045F28042C5F60202914200900CD088
:10402000FFE7089800684AF66C31CAF2FD7108444F
:10403000B0FA80F040090090FFE70098C007A0B1F7
:10404000FFE70898416E806E48600898C06E58B1CE
:10405000FFE70898C16E086820F48070086008982F
:10406000016F406F4860FFE7FFE70899012081F882
:104070003500FFE70899002081F83400FFE7FFE7EB
:1040800000208DF82700FFE79DF827000AB080BDCB
:1040900080B586B00490049820B9FFE701208DF820
:1040A000170046E3049890F83500022807D0FFE790
:1040B00004998020486501208DF8170039E30498A1
:1040C000016801201022C4F202029142029000F025
:1040D000A380FFE70498016801202822C4F20202AD
:1040E0009142029000F09880FFE704980168012057
:1040F0004022C4F202029142029000F08D80FFE75C
:104100000498016801205822C4F2020291420290F0
:1041100000F08280FFE70498016801207022C4F259
:1041200002029142029077D0FFE7049801680120D3
:104130008822C4F20202914202906DD0FFE70498F7
:1041400001680120A022C4F202029142029063D0D1
:10415000FFE7049801680120B822C4F202029142EC
:10416000029059D0FFE704980168012040F2104204
:10417000C4F20202914202904ED0FFE70498016817
:10418000012040F22842C4F202029142029043D040
:10419000FFE704980168012040F24042C4F20202A5
:1041A0009142029038D0FFE704980168012040F264
:1041B0005842C4F20202914202902DD0FFE70498C7
:1041C0000168012040F27042C4F202029142029062
:1041D00022D0FFE704980168012040F28842C4F22F
:1041E00002029142029017D0FFE704980168012073
:1041F00040F2A042C4F20202914202900CD0FFE7CA
:10420000049800684FF64831CBF6FD710844B0FAC7
:1042100080F040090290FFE70298C007002800F0F4
:104220009D80FFE70499042081F835000498006818
:104230001021C4F20201884200F08180FFE7049857
:1042400000682821C4F20201884278D0FFE7049870
:1042500000684021C4F20201884270D0FFE7049850
:1042600000685821C4F20201884268D0FFE7049830
:1042700000687021C4F20201884260D0FFE7049810
:1042800000688821C4F20201884258D0FFE70498F0
:104290000068A021C4F20201884250D0FFE70498D0
:1042A0000068B821C4F20201884248D0FFE70498B0
:1042B000006840F21041C4F2020188423FD0FFE79B
:1042C0000498006840F22841C4F20201884236D0C6
:1042D000FFE70498006840F24041C4F202018842BE
:1042E0002DD0FFE70498006840F25841C4F2020163
:1042F000884224D0FFE70498006840F27041C4F27D
:10430000020188421BD0FFE70498006840F2884110
:10431000C4F20201884212D0FFE70498006840F21C
:10432000A041C4F20201884209D0FFE70498006866
:1043300040F2B841C4F20201884207D1FFE7049875
:104340000168086820F00100086006E00498016830
:10435000086820F001000860FFE7E5E104980168C3
:10436000086820F00E000860049800681021C4F26C
:104370000201884200F08180FFE70498006828214C
:10438000C4F20201884278D0FFE704980068402117
:10439000C4F20201884270D0FFE7049800685821F7
:1043A000C4F20201884268D0FFE7049800687021D7
:1043B000C4F20201884260D0FFE7049800688821B7
:1043C000C4F20201884258D0FFE704980068A02197
:1043D000C4F20201884250D0FFE704980068B82177
:1043E000C4F20201884248D0FFE70498006840F216
:1043F0001041C4F2020188423FD0FFE704980068F0
:1044000040F22841C4F20201884236D0FFE7049806
:10441000006840F24041C4F2020188422DD0FFE71B
:104420000498006840F25841C4F20201884224D046
:10443000FFE70498006840F27041C4F2020188422C
:104440001BD0FFE70498006840F28841C4F20201E3
:10445000884212D0FFE70498006840F2A041C4F2FD
:104460000201884209D0FFE70498006840F2B84191
:10447000C4F20201884207D1FFE704980168086886
:1044800020F00100086006E004980168086820F048
:1044900001000860FFE70498016801201022C4F2BF
:1044A00002029142019000F00381FFE70498016845
:1044B00001202822C4F202029142019000F0F8800B
:1044C000FFE70498016801204022C4F202029142F1
:1044D000019000F0ED80FFE7049801680120582268
:1044E000C4F202029142019000F0E280FFE70498DA
:1044F000016801207022C4F202029142019000F092
:10450000D780FFE70498016801208822C4F20202E4
:104510009142019000F0CC80FFE7049801680120EF
:10452000A022C4F202029142019000F0C180FFE794
:10453000049801680120B822C4F20202914201905D
:1045400000F0B680FFE704980168012040F21042B5
:10455000C4F202029142019000F0AA80FFE70498A1
:104560000168012040F22842C4F202029142019007
:1045700000F09E80FFE704980168012040F240426D
:10458000C4F202029142019000F09280FFE7049889
:104590000168012040F25842C4F2020291420190A7
:1045A00000F08680FFE704980168012040F2704225
:1045B000C4F20202914201907AD0FFE704980168A8
:1045C000012040F28842C4F20202914201906FD071
:1045D000FFE704980168012040F2A042C4F2020201
:1045E0009142019064D0FFE704980168012040F2F5
:1045F000B842C4F202029142019059D0FFE70498F8
:104600000168012045F20842C5F60202914201907C
:104610004ED0FFE704980168012045F21C42C5F620
:1046200002029142019043D0FFE704980168012003
:1046300045F23042C5F602029142019038D0FFE7C0
:1046400004980168012045F24442C5F602029142F5
:1046500001902DD0FFE704980168012045F25842EF
:10466000C5F602029142019022D0FFE7049801684A
:10467000012045F26C42C5F602029142019017D02A
:10468000FFE704980168012045F28042C5F6020266
:10469000914201900CD0FFE7049800684AF66C3113
:1046A000CAF2FD710844B0FA80F040090190FFE7BA
:1046B0000198C00728B3FFE70498016E086820F44A
:1046C000807008600498806D03900498C06D00F0BD
:1046D0001F0101208840039948600498416E806E54
:1046E00048600498C06E58B1FFE70498C16E08682E
:1046F00020F4807008600498016F406F4860FFE705
:10470000FFE70499012081F83500FFE704990020B4
:1047100081F83400FFE70498006D20B1FFE70498AA
:10472000016D8847FFE7FFE7FFE700208DF81700DE
:10473000FFE79DF8170006B080BD000000000000F4
:1047400080B584B0039001F03BFF02900398019084
:104750000198013048B1FFE740F2D500C2F20000F5
:104760000178019808440190FFE7FFE701F028FF76
:104770000299401A0199884201D2FFE7F6E704B096
:1047800080BD00000000000085B0039002910192FE
:10479000039890F898008DF803009DF80300012815
:1047A00005D0FFE79DF8030002285DD1FFE70298DE
:1047B00003990968896D084207D1FFE703980168EA
:1047C000C86D40F00100C86515E0029803990968BA
:1047D000896D08400299884207D1FFE70398016874
:1047E000C86D40F00200C86504E00398016803202A
:1047F000C865FFE7FFE79DF809008007002809D595
:10480000FFE7019A03980168D1F8E0001043C1F86E
:10481000E000FFE79DF809004007002809D5FFE701
:10482000019A03980168D1F8E4001043C1F8E4004C
:10483000FFE7FFE702984FF6FF71C3F6CF7100EA7A
:10484000010203980168486D10434865029A4AF6D0
:104850001401C4F20001086840EA92700860FFE7A2
:1048600000208DF813000AE00399D1F89C0040F075
:104870000200C1F89C0001208DF81300FFE79DF8AD
:10488000130005B07047000080B586B00490039116
:1048900002920398406808B9FFE700E0FFE7049838
:1048A00090F89800022845D1FFE704980068D0F8F6
:1048B000C00010F07C5F0BD1FFE70499D1F89C0099
:1048C00040F02000C1F89C0001208DF817003CE06A
:1048D00004980068D0F8C400800200280BD5FFE7D8
:1048E0000499D1F89C0040F40070C1F89C000120AC
:1048F0008DF8170029E004980068D0F8C400C0F3D0
:104900000440019004980399029A019BFEF7D0FDA0
:104910000199012000FA01F1049A1268C2F8D0103E
:10492000019988400499C1F89400FFE700208DF8B0
:1049300017000AE00499D1F89C0040F00800C1F883
:104940009C0001208DF81700FFE79DF8170006B0C6
:1049500080BD00000000000082B00190009102B014
:10496000704700000000000084B0029001910092A6
:10497000019808B9FFE700E0FFE7029890F8980077
:10498000012836D1FFE7019870B9FFE70298006867
:10499000D0F8F00020F07C50009940EA01600299C4
:1049A0000968C1F8F00020E0019801280ED1FFE766
:1049B00002980068D0F8A00020F0FE40009940EA7C
:1049C000016002990968C1F8A0000DE00298006832
:1049D000D0F8B00020F0FE40009940EA0160029952
:1049E0000968C1F8B000FFE7FFE700208DF80F006D
:1049F0000AE00299D1F89C0040F00400C1F89C0044
:104A000001208DF80F00FFE79DF80F0004B07047FC
:104A100087B005900491059890F898008DF80300F0
:104A20009DF80300012805D0FFE79DF80300022848
:104A30006AD1FFE70498C068072801D1FFE7FFE7C4
:104A40000498006878BBFFE70498C068072801D085
:104A5000FFE7FFE70498C06807280CD1FFE7049A36
:104A600010699169D269000440EA0220084340F0CD
:104A7000605003900CE004998868CB680A69496922
:104A8000800740EAC36040EA024008430390FFE722
:104A90000598C06E0499496800EB81000190039865
:104AA000019908602CE00498C068072801D0FFE74E
:104AB000FFE70498C168006940EA417003900498D8
:104AC000C068072804D1FFE704988069029006E0D7
:104AD00004988168406940EA81700290FFE7059878
:104AE000006F0499496800EBC10001900398019997
:104AF0000860019804300190029801990860FFE76E
:104B000000208DF81B000AE00599D1F89C0040F0C8
:104B10000200C1F89C0001208DF81B00FFE79DF802
:104B20001B0007B07047000085B0DDF814C003908B
:104B3000029101920093039890F89800012812D1F5
:104B4000FFE702980001019940EA8100009940EADC
:104B500041000599084303990968C1F880000020C5
:104B60008DF813000AE00399D1F89C0040F004008E
:104B7000C1F89C0001208DF81300FFE79DF8130099
:104B800005B070470000000080B582B0009000982A
:104B900020B9FFE701208DF8070015E0009801F02B
:104BA0004FF900980168C86D20F00300C8650098AF
:104BB00000F092FE00990020C1F89C00009981F855
:104BC00098008DF80700FFE79DF8070002B080BD50
:104BD00081B0009001B0704782B0019000919DF8C3
:104BE00003008007002807D5FFE70198016888695E
:104BF00020F001008861FFE79DF802000006002810
:104C000001D5FFE7FFE702B0704700000000000099
:104C10008AB00890079106920593002001900898A9
:104C200090F898008DF803009DF80300022840F0EA
:104C30005C81FFE70798402851D1FFE7089800689A
:104C4000D0F8A00010F4FE0F0BD1FFE70899D1F8BF
:104C50009C0040F02000C1F89C0001208DF8270046
:104C60004EE108980068D0F8A400400658B9FFE764
:104C70000899D1F89C0040F48070C1F89C00012094
:104C80008DF827003CE108980068D0F8A40000F0F7
:104C900080710120B0EB116F0DD1FFE7089800681B
:104CA000D0F8A0100120B0EBD17F03D1FFE70120A5
:104CB0000190FFE7FFE708980068D0F8A40000F42F
:104CC0007C51019800EB112001900898426C406FD4
:104CD0000199514300EB81000490FFE770E00798D1
:104CE000412851D1FFE708980068D0F8B00010F4CF
:104CF000FE0F0BD1FFE70899D1F89C0040F020008F
:104D0000C1F89C0001208DF82700F9E008980068A0
:104D1000D0F8B400400658B9FFE70899D1F89C00D4
:104D200040F48070C1F89C0001208DF82700E7E076
:104D300008980068D0F8B40000F080710120B0EB52
:104D4000116F0DD1FFE708980068D0F8B01001206E
:104D5000B0EBD17F03D1FFE701200190FFE7FFE730
:104D600008980068D0F8B40000F47C51019800EB7A
:104D7000112001900898C26C806F0199514300EB9B
:104D800081000490FFE71AE007980899096D8842AE
:104D90000BD3FFE70899D1F89C0040F02000C1F840
:104DA0009C0001208DF82700AAE00898426DC06F92
:104DB0000799514300EB81000490FFE7FFE7FFE70D
:104DC0000498006800F080400699486006984068A2
:104DD00038B9FFE704980068C0F38A400699086074
:104DE00006E00498006820F0604006990860FFE73C
:104DF0000498006800F000500699886004980068E4
:104E000000F000400699086104980430049004986A
:104E100000880699C86104980068C0F303400699A9
:104E2000C8600498006800F48010069948610498EE
:104E3000006800F400100699886104980068C0F3C7
:104E400006600699086204980068C00F06994862D7
:104E50000498043004900498039000200290FFE727
:104E600002980699CA6848F67831C0F60101895C53
:104E700088420AD2FFE70398029A805C0599885419
:104E8000FFE7029801300290EAE70798402806D130
:104E9000FFE7019808990968C1F8A80021E0079880
:104EA000412806D1FFE7019808990968C1F8B800C0
:104EB00016E007981F2808D8FFE7079901208840C7
:104EC00008990968C1F8980009E0079800F01F01E7
:104ED0000120884008990968C1F89C00FFE7FFE7B6
:104EE000FFE700208DF827000AE00899D1F89C0020
:104EF00040F00800C1F89C0001208DF82700FFE772
:104F00009DF827000AB0704781B0009001B070474B
:104F100080B594B013904AF61000C4F20000006807
:104F2000800712904AF61400C4F20000016812983B
:104F300000EA8170129013980068006D00F47040D0
:104F4000119013980068416D1198084011901398C2
:104F50000068006D00F00F00109013980068416D1C
:104F600010980840109013980068006D00F0F00051
:104F70000F9013980068416D0F9808400F90139898
:104F80000068006D00F071500E9013980068416D3C
:104F90000E9808400E9013980068006D00F0607045
:104FA0000D9013980068416D0D9808400D9013986E
:104FB0000068406D039013980068006D01909DF8A3
:104FC0000D00C007B8B1FFE79DF80500C00788B124
:104FD000FFE7FFE7139801684FF4807008654AF611
:104FE0001001C4F2000100200860FFE71398FFF7EA
:104FF0008BFFFFE7FFE79DF80D0000F004010020A4
:10500000B0EB910F28D0FFE79DF8050000F00401F8
:105010000020B0EB910F1ED0FFE713980068D0F886
:10502000DC000B9013980068D0F8E4100B9808404F
:105030000B90FFE7139801684FF4806008654AF60B
:105040001001C4F2000100200860FFE713980B99DB
:1050500000F096FFFFE7FFE71298B8B1FFE7FFE720
:1050600012984FF6FF71C3F6CF7108401399096883
:1050700008651298800F4AF61001C4F2000108601A
:10508000FFE713981299FFF767FCFFE71198B8B193
:10509000FFE7FFE711984FF6FF71C3F6CF710840A5
:1050A0001399096808651198800F4AF61001C4F237
:1050B00000010860FFE71398119900F071FFFFE706
:1050C0001098B8B1FFE7FFE710984FF6FF71C3F6ED
:1050D000CF7108401399096808651098800F4AF647
:1050E0001001C4F200010860FFE71398109900F066
:1050F000CBFDFFE70F98B8B1FFE7FFE70F984FF63A
:10510000FF71C3F6CF7108401399096808650F98BD
:10511000800F4AF61001C4F200010860FFE71398FF
:105120000F9900F0C5FDFFE79DF80D0000F00801A4
:105130000020B0EBD10F1BD0FFE79DF8050000F079
:1051400008010020B0EBD10F11D0FFE7FFE7139863
:1051500001684FF4006008654AF61001C4F20001CE
:1051600000200860FFE7139800F022FFFFE7FFE749
:105170009DF80D0000F002010020B0EB510F28D087
:10518000FFE79DF8050000F002010020B0EB510F91
:105190001ED0FFE713980068D0F8D8000C90139841
:1051A0000068D0F8E0100C9808400C90FFE71398C6
:1051B00001684FF4007008654AF61001C4F200015E
:1051C00000200860FFE713980C9900F0E1FEFFE76C
:1051D000FFE79DF80E0000F008010020B0EBD10FB2
:1051E0001BD0FFE79DF8060000F008010020B0EB9F
:1051F000D10F11D0FFE7FFE7139801684FF40020AB
:1052000008654AF61001C4F2000100200860FFE7BB
:10521000139800F035FDFFE7FFE79DF80E00C0078B
:10522000B8B1FFE79DF80600C00788B1FFE7FFE7C8
:10523000139801684FF4803008654AF61001C4F2F3
:10524000000100200860FFE7139800F095FEFFE7DB
:10525000FFE79DF80E0000F004010020B0EB910F75
:105260001BD0FFE79DF8060000F004010020B0EB22
:10527000910F11D0FFE7FFE7139801684FF48020EA
:1052800008654AF61001C4F2000100200860FFE73B
:10529000139800F06DFEFFE7FFE79DF80E0000F0A9
:1052A00002010020B0EB510F1FD0FFE79DF8060070
:1052B00000F002010020B0EB510F15D0FFE7FFE72F
:1052C000139801684FF4003008654AF61001C4F2E3
:1052D000000100200860FFE71399D1F89C0040F01E
:1052E0008000C1F89C00FFE7FFE70D98B8B1FFE729
:1052F000FFE70D984FF6FF71C3F6CF710840139981
:10530000096808650D98800F4AF61001C4F2000183
:105310000860FFE713980D99FFF75EFCFFE70E9812
:10532000D0B1FFE7FFE70E984FF6FF71C3F6CF71DC
:1053300008401399096808650E98800F4AF6100115
:10534000C4F200010860FFE70E9A1399D1F89C009F
:105350001043C1F89C00FFE7139800684AF200016F
:10536000C4F20001884240F0B980FFE7139840681A
:1053700080688007002800F0B080FFE7139840683D
:10538000006A00F00F000A9013984068416A0A987A
:1053900008400A9013984068006A00F030000990B5
:1053A00013984068416A099808400990139840682A
:1053B000006A00F4C070089013984068416A089829
:1053C0000840089013984068006A00F4FC40079079
:1053D00013984068416A07980840079013984068FE
:1053E000006A00F4F020069013984068416A06981D
:1053F0000840069013984068406A029013984068ED
:10540000006A00900A9848B1FFE70A981399496822
:10541000086213980A9900F093FDFFE7099848B1D4
:10542000FFE709981399496808621398099900F0F1
:1054300097FDFFE79DF8080000F040010020B0EB69
:10544000911F1FD0FFE79DF8000000F040010020F1
:10545000B0EB911F15D0FFE713984068C06B000CAC
:10546000059013984068C06B00F03F0004901398BB
:1054700041684020086213980599049A00F068FD7D
:10548000FFE7FFE7089848B1FFE7089813994968D4
:1054900008621398089900F04BFDFFE7079860B188
:1054A000FFE70798139949680862079A1399D1F89A
:1054B0009C001043C1F89C00FFE7069860B1FFE72D
:1054C0000698139949680862069A1399D1F89C00C6
:1054D0001043C1F89C00FFE7FFE7FFE71398D0F8FF
:1054E0009C0020B1FFE71398FFF772FBFFE714B0B1
:1054F00080BD00000000000080B598B0169048F60E
:10550000C821C0F6010101A84C22FBF754F81698F7
:1055100020B9FFE701208DF85F00D9E116980068F7
:105520004AF20001C4F20001884206D1FFE7169951
:10553000086800F580704860FFE716988068B0F54D
:10554000407F01D1FFE7FFE71698006C08B1FFE745
:10555000FFE71698806C08B1FFE7FFE71698006D2B
:1055600008B1FFE7FFE71698006E08B1FFE7FFE715
:105570001699C86D096E084408B1FFE7FFE7169851
:1055800090F8980040B9FFE71699002081F899003B
:10559000169800F029FAFFE716980168886920F04C
:1055A0001000886101F00CF81590FFE7169800686C
:1055B00080690007002817D5FFE701F001F8159969
:1055C000401A0B280FD3FFE71699D1F89C0040F042
:1055D0000100C1F89C001699032081F89800012071
:1055E0008DF85F0074E1E1E716980168886940F082
:1055F0000100886100F0E4FF1590FFE7169800684D
:105600008069C007B8B9FFE700F0DAFF1599401AC2
:105610000B280FD3FFE71699D1F89C0040F001004A
:10562000C1F89C001699032081F8980001208DF89C
:105630005F004DE1E2E716980168886940F00200DA
:1056400088611698007C012807D1FFE71698016849
:10565000886920F04000886106E016980168886932
:1056600040F040008861FFE71698407C012807D190
:10567000FFE716980168886940F48040886106E079
:1056800016980168886920F480408861FFE71698C1
:10569000807C012807D1FFE716980168886920F40B
:1056A0008050886106E016980168886940F480504F
:1056B0008861FFE716980068806920F44070169AA8
:1056C000116892681043886116980168886920F013
:1056D000A400886116980168086920F0100008612C
:1056E0001698C068012807D1FFE7169801688869F5
:1056F00040F0040088612BE01698C06830B3FFE7E3
:105700001698C068022819D0FFE7169801688869C2
:1057100040F08000886116980168086940F0100028
:1057200008611698C068032807D1FFE7169801683A
:10573000886940F020008861FFE706E0169801685C
:10574000886940F020008861FFE700E0FFE7FFE79D
:10575000169A116853699069D2F81CE0A0F1010C07
:105760006FF0FF0000EB0E2040EA4C60126A013A35
:1057700010430022CFF6FF7202EB03421043C861D0
:1057800016988068B0F5407F1CD1FFE7169A116823
:10579000536A906AD2F82CE001386FF0FF0C0CEBE2
:1057A0000E2C40EA0C00D2F830C06FF00F0202EB72
:1057B0000C1210430022CFF6FF7202EB034210439B
:1057C000C860FFE71698006E48B1FFE716980168B9
:1057D000426ED1F8C0001043C1F8C000FFE716992F
:1057E000C86D096E084480B1FFE716980068D0F8CC
:1057F000C80020F00700169A1168936E01AA52F8AB
:1058000023201043C1F8C800FFE71698006C80B150
:10581000FFE716980068D0F8BC0020F00700169A41
:105820001168536C01AA52F823201043C1F8BC0040
:10583000FFE71698806C88B1FFE716980068D0F8EB
:10584000BC0020F07000169A1168D36C01AA52F8BF
:10585000232040EA0210C1F8BC00FFE71698006D53
:1058600088B1FFE716980068D0F8BC0020F4E0602B
:10587000169A1168536D01AA52F8232040EA0220BB
:10588000C1F8BC00FFE7169800684AF20001C4F2B4
:105890000001884207D1FFE716984168886820F028
:1058A00003008860FFE716990020C1F8940016995C
:1058B000C1F89C001699012081F898001698FDF710
:1058C00093FC8DF853009DF853008DF85F00FFE7BF
:1058D0009DF85F0018B080BD80B582B0019001983E
:1058E00000684AF20001C4F20001884221D1FFE7BA
:1058F00040F24C10C2F200000168013901600068FA
:1059000048B9FFE744F2EC41C5F60201086820F40B
:1059100080700860FFE740F60040C5F602000321F2
:1059200000F04AFB132000F097FF152000F094FFD1
:1059300056E0019800684AF20041C4F20001884232
:1059400021D1FFE740F24C10C2F20000016801399A
:105950000160006848B9FFE744F2EC41C5F6020176
:10596000086820F480700860FFE740F20040C5F648
:105970000200602100F020FB142000F06DFF1620D3
:1059800000F06AFF2BE0019800684DF20041C4F27C
:105990000001884222D1FFE740F24C10C2F2000021
:1059A000016801390160006848B9FFE744F2EC4141
:1059B000C5F60201086820F480700860FFE740F631
:1059C0000040C5F602004FF4405100F0F5FA9F2068
:1059D00000F042FFA02000F03FFFFFE7FFE7FFE7F6
:1059E00002B080BD0000000080B5C6B04590002028
:1059F0004490439042904190409012A8B821FAF709
:105A00000CFE459800684AF20001C4F20001884289
:105A10005FD1FFE7002013904FF4004012904FF049
:105A200080502D9012A802F03BFC18B1FFE7FDF763
:105A30000FFBFFE740F24C10C2F200000168013199
:105A400001600068012810D1FFE7FFE744F2EC4055
:105A5000C5F60200016841F480710160006800F43D
:105A6000807011901198FFE7FFE7FFE744F2E040F4
:105A7000C5F60200016841F008010160006800F00D
:105A8000080010901098FFE70320409002204190FA
:105A900000200A90429043900920449040F6004034
:105AA000C5F6020040A900F09FFB0A9A1320089057
:105AB0000521099100F0E8FE089800F0D9FE099947
:105AC0000A9A15200B9000F0DFFE0B9800F0D0FE34
:105AD000D2E0459800684AF20041C4F200018842D1
