:020000040800F2
:10000000A8820024F503000839990008F98800083F
:10001000319900088918000871EC00080000000000
:10002000000000000000000000000000B1A3000874
:10003000C927000800000000019E000889A50008EB
:100040001304000813040008130400081304000834
:100050001304000813040008130400081304000824
:100060001304000813040008130400081304000814
:100070001304000813040008130400081304000804
:1000800013040008130400081304000829280008BA
:100090000929000839280008192900081304000854
:1000A00013040008130400081304000813040008D4
:1000B00061A7000871A7000881A7000813040008C1
:1000C00013040008130400081304000813040008B4
:1000D00013040008130400081304000813040008A4
:1000E00013040008130400080000000013040008B3
:1000F0001304000813040008130400081304000884
:100100001304000813040008130400081304000873
:100110001304000813040008130400081304000863
:100120001304000813040008130400081304000853
:100130001304000813040008130400081304000843
:1001400000000000000000000000000000000000AF
:100150001304000813040008130400081304000823
:100160001304000813040008130400081304000813
:10017000130400084199000813040008000000005F
:100180001304000813040008D1A900081304000890
:1001900013040008130400081304000813040008E3
:1001A00013040008130400081304000800000000F2
:1001B00013040008130400081304000813040008C3
:1001C00013040008130400080000000000000000F1
:1001D0000000000000000000130400080000000000
:1001E000000000000000000000000000000000000F
:1001F00000000000000000001304000813040008C1
:100200001304000813040008000000001304000891
:100210001304000813040008130400081304000862
:100220001304000800000000130400080000000090
:100230001304000813040008000000001304000861
:100240001304000813040008130400081304000832
:100250001304000813040008130400081304000822
:100260001304000813040008130400081304000812
:100270001304000813040008130400080000000021
:1002800013040008130400081304000813040008F2
:100290000000000013040008130400080000000020
:1002A00000000000130400081304000813040008F1
:1002B00041C400081304000813040008E9290008D9
:1002C000F9290008130400081304000800F002F8DC
:1002D00000F080F814A696E8000CB244B344DA4566
:1002E00001D100F077F8BAE80F000FA696E83000C9
:1002F000A5EB040504EB0607AAEB0704A7F1010729
:100300004FEA15154FEA3414A4F10104AC4201D3AD
:1003100000F060F813F0010F18BFFB1A43F001035F
:1003200000F001F8DBE71847DC1701001C1801009A
:100330000A444FF0000C10F8013B13F0070408BF0B
:1003400010F8014B1D1108BF10F8015B641E05D0A9
:1003500010F8016B641E01F8016BF9D113F0080F5E
:100360001EBF10F8014BAD1C0C1B09D16D1E58BFF0
:1003700001F801CBFAD505E014F8016B01F8016B27
:100380006D1EF9D59142D6D370470000103A24BFB4
:1003900078C878C1FAD8520724BF30C830C144BFEA
:1003A00004680C60704700007047000000230024C0
:1003B00000250026103A28BF78C1FBD8520728BF75
:1003C00030C148BF0B6070471FB511F016FA1FBD52
:1003D00010B510BD00F05EF91146FFF7F5FF0FF004
:1003E0002BFC00F07CF903B4FFF7F2FF03BC00F034
:1003F0007FF900000A4880470A4880470A480047BA
:10040000FEE7FEE7FEE7FEE7FEE7FEE7FEE7FEE7C4
:10041000FEE7FEE705480649064A074B704700001D
:10042000F927000889A60008CD020008988000205E
:10043000A882002498820020A87E002453EA020C9F
:1004400000F069802DE9F04B4FF00006002B1FBF34
:10045000B3FA83F503FA05F424FA05F65E4012BFF9
:100460001643B2FA82F502FA05F4C5F120051EBF63
:1004700022FA05FC44EA0C04203556EA044C4FEA03
:10048000144418BF641C4FF000084FF0000990425C
:1004900071EB030C39D3002919BFB1FA81F701FAC6
:1004A00007F6B0FA80F700FA07F6C7F120071EBF7B
:1004B00020FA07FC46EA0C062037B6FBF4FCA7EB53
:1004C0000507103F07F01F0BCBF120062CFA06F6AC
:1004D0000CFA0BFB44BFB3460026202FA4BF5E4698
:1004E0004FF0000B5BEA060C08BF4FF0010B19EB55
:1004F0000B0948EB0608ABFB027C06FB02CC0BFBAE
:1005000003CCC01B71EB0C01C1E70B460246414610
:100510004846BDE8F08B13B5084318BF4FF0FF30D5
:100520000146AFF30080BDE81C407047032A40F24B
:10053000308010F0030C00F0158011F8013BBCF185
:10054000020F624498BF11F801CB00F8013B38BF9D
:1005500011F8013BA2F1040298BF00F801CB38BFAB
:1005600000F8013B11F0030300F05A80083AC0F094
:10057000088051F8043B083A51F804CBA0E8081071
:10058000F5E7121D5CBF51F8043B40F8043BAFF3A4
:100590000080D20724BF11F8013B11F801CB48BFFE
:1005A00011F8012B24BF00F8013B00F801CB48BF34
:1005B00000F8012B70474FF0000200B51346944637
:1005C0009646203922BFA0E80C50A0E80C50B1F1AB
:1005D0002001BFF4F7AF090728BFA0E80C5048BFBF
:1005E0000CC05DF804EB890028BF40F8042B08BF5D
:1005F000704748BF20F8022B11F0804F18BF00F859
:10060000012B704770477047704710B500F03AF8FB
:10061000006810BD10B5044600F034F8046010BD49
:1006200010B5203AC0F00B80B1E81850A0E818507F
:10063000B1E81850A0E81850203ABFF4F5AF5FEACF
:10064000027C24BFB1E81850A0E8185044BF18C974
:1006500018C0BDE810405FEA827C24BF51F8043B1B
:1006600040F8043B08BF7047D20728BF31F8023B6F
:1006700048BF11F8012B28BF20F8023B48BF00F803
:10068000012B704700487047A800002000487047C1
:10069000A80000207546FFF7F9FFAE460500694641
:1006A000534620F00700854618B020B5FFF7B2FE8C
:1006B000BDE820404FF000064FF000074FF0000863
:1006C0004FF0000BAC46ACE8C009ACE8C009ACE8A0
:1006D000C009ACE8C00921F007018D46704710B58C
:1006E0000446AFF300802046BDE81040FFF77BBE14
:1006F00001491820ABBEFEE726000200704700004B
:100700009FED041A20EE010A9FED031A80EE010A04
:10071000704700BFDB0F4940000034430000000079
:1007200018B1002918BF002A00D1704791F9103084
:1007300090ED001A90ED013A00EE103A91F9183060
:1007400091F92010B8EEC00A02EE101A21EE000A4C
:1007500001EE103AB8EEC22A82ED000A90ED020ACC
:10076000007BB8EEC11A107320EE020A82ED020A75
:1007700023EE011A82ED011A70470000000000000C
:10078000002818BF2430704728B3B0B50D4601B318
:100790005C210446FFF70FFFD5E900CED5E902231F
:1007A000D5E90401C4E9022305F1180204F1180394
:1007B000C4E90401C4E900CE07CA07C304F1240058
:1007C0003421FFF7F8FEFE2084F82400012084F88D
:1007D0005800BDE8B04070479FED041A20EE010AB2
:1007E0009FED031A80EE010A704700BF00003443FA
:1007F000DB0F494000000000002845D070B52DED0A
:10080000108B00F12405044690F8586034212846E6
:10081000B0EE618AB0EE419AB0EE60BAB0EE40AA96
:10082000FFF7C9FE002E3FD094ED011A9FED190A83
:10083000B4EE401A84ED0BAAF1EE10FA84ED0CBA76
:1008400084ED0D9A24DD94ED021AB4EE401AF1EE17
:1008500010FA1DDDB0EECA1AB4EE401AF1EE10FA2D
:100860002ADAB0EECB1AB4EE401AF1EE10FA23DA1F
:10087000012084F828009FED08EAB4EE4E8AF1EEDC
:1008800010FA28DA46E000BFFF2148B2704700BFE7
:10089000FE210AE0BD378635DB0F4940DB0FC9C0BA
:1008A000DB0F49C0DB0FC940FB212970BDEC108B69
:1008B000BDE8704048B27047B0EE4B0AF0EE4A0A0D
:1008C00010F0F6FBB0EE408A1FED0DEAB4EE4E8A52
:1008D000F1EE10FA1EDB1FED0F0A00BF38EE008AA2
:1008E000B4EE4E8AF1EE10FAA1BF38EE008AB4EEF3
:1008F0004E8AF1EE10FA38EE008AA4BFB4EE4E8AAA
:10090000F1EE10FA06DB38EE008AB4EE4E8AF1EE14
:1009100010FAE3DA1FED1EFAB4EE4F8AF1EE10FA88
:100920001DDA1FED200A38EE008AB4EE4F8AF1EE90
:1009300010FA14DA38EE008AB4EE4F8AF1EE10FAAB
:10094000BEBF38EE008AB4EE4F8AF1EE10FA06DA36
:1009500038EE008AB4EE4F8AF1EE10FAE3DBB0EE27
:10096000480A10F0FBFCB0EE40CAB0EE480A10F0A6
:100970009DFD20EE0B0A94ED001A39EE41BA94ED7C
:10098000012A94ED023AACEE0A0A2BEE0B1AA0EE05
:10099000001AA2EE421A32EE022AA3EE431A22EE07
:1009A000032A81EE021A9FEDE62AB4EE421AF1EE16
:1009B00010FAC0F299819FEDE32AB4EE421AF1EEEB
:1009C00010FA00F39181B7EE002AB1EE40AA81FE41
:1009D000421ABFEE002AC1FE020A9FEDEC1A90EE09
:1009E000E02A82FE011AB1EEC11AB1EE410A10F0FE
:1009F0005FFBB0EE409A94ED01CA94ED02DA10F07C
:100A0000ADFCADEE00CAB0EE490A94ED02DA10F08A
:100A10004DFD2DEE00DAB0EE4A0AF0EE4B0A10F072
:100A200047FBB0EE40AAB0EE4D0AF0EE4C0A10F0D3
:100A30003FFBB4EE4E8AF1EE10FA80F261813AEE9D
:100A4000400AB4EE4F8AF1EE10FA1DDA1FED6B1A70
:100A500038EE018AB4EE4F8AF1EE10FA14DA38EE6D
:100A6000018AB4EE4F8AF1EE10FABEBF38EE018A69
:100A7000B4EE4F8AF1EE10FA06DA38EE018AB4EEDF
:100A80004F8AF1EE10FAE3DBB4EE4E0AF1EE10FA03
:100A900080F25A81B4EE4F0AF1EE10FA1DDA1FED22
:100AA0007F1A30EE010AB4EE4F0AF1EE10FA14DAB2
:100AB00030EE010AB4EE4F0AF1EE10FABEBF30EE8E
:100AC000010AB4EE4F0AF1EE10FA06DA30EE010A2E
:100AD000B4EE4F0AF1EE10FAE3DBB4EE4E9AF1EE0B
:100AE00010FA80F25581B4EE4F9AF1EE10FA1DDA49
:100AF0001FED941A39EE019AB4EE4F9AF1EE10FA06
:100B000014DA39EE019AB4EE4F9AF1EE10FABEBF44
:100B100039EE019AB4EE4F9AF1EE10FA06DA39EE98
:100B2000019AB4EE4F9AF1EE10FAE3DB94ED031A5A
:100B3000012038EE411A84F8260084ED0E8A84EDF7
:100B40000F0AB4EE4E1A84ED109AF1EE10FA84F802
:100B5000440080F23D81B4EE4F1AF1EE10FA1DDA36
:100B60009FEDD52A31EE021AB4EE4F1AF1EE10FACB
:100B700014DA31EE021AB4EE4F1AF1EE10FABEBFDB
:100B800031EE021AB4EE4F1AF1EE10FA06DA31EE37
:100B9000021AB4EE4F1AF1EE10FAE3DB94ED053AC7
:100BA00084ED121A30EE432AB4EE4E2AF1EE10FA1A
:100BB00080F23081B4EE4F2AF1EE10FA1DDA9FED8B
:100BC000BE1A32EE012AB4EE4F2AF1EE10FA14DA10
:100BD00032EE012AB4EE4F2AF1EE10FABEBF32EE29
:100BE000012AB4EE4F2AF1EE10FA06DA32EE012AAB
:100BF000B4EE4F2AF1EE10FAE3DB94ED074A30EE43
:100C0000091A33EE043A84ED132A31EE431AB4EE96
:100C10004E1AF1EE10FA80F21D81B4EE4F1AF1EE89
:100C200010FA1DDA9FEDA42A31EE021AB4EE4F1A23
:100C3000F1EE10FA14DA31EE021AB4EE4F1AF1EEB8
:100C400010FABEBF31EE021AB4EE4F1AF1EE10FAEE
:100C500006DA31EE021AB4EE4F1AF1EE10FAE3DBC7
:100C60009FED962A012120EE020A9FED952A002091
:100C700084ED141A84F8541080EE0E0A84F82500CE
:100C8000B4EE420AF1EE10FAC0F207819FED8D2A10
:100C9000B4EE420AF1EE10FA00F3FF808AA1B5EE3D
:100CA000400AF1EE10FAC8BF043191ED002AB4EE0B
:100CB000412AF1EE10FA00F3EF8085A1B5EE400A6B
:100CC000F1EE10FAB8BF04319FED832A91ED000ACE
:100CD00032FE000AB4EE410AF1EE10FAC0F2DC80F6
:100CE00000210120DCE000BFFD2184F82410002059
:100CF00084F82600BDEC108BBDE8704048B2704708
:100D00009FED6C1A38EE018AB4EE4E8AF1EE10FABD
:100D1000A1BF38EE018AB4EE4E8AF1EE10FA38EE39
:100D2000018AA4BFB4EE4E8AF1EE10FAFFF687AE48
:100D300038EE018AB4EE4E8AF1EE10FAE2DA7EE67F
:100D4000540080BF5400803F9FED5A1A30EE010AD4
:100D5000B4EE4E0AF1EE10FAFFF69CAE30EE010A48
:100D6000B4EE4E0AF1EE10FAA2BF30EE010AB4EE74
:100D70004E0AF1EE10FAFFF68DAE30EE010AB4EE37
:100D80004E0AF1EE10FAE1DA84E600BF000000003E
:100D90009FED481A39EE019AB4EE4E9AF1EE10FA30
:100DA000A1BF39EE019AB4EE4E9AF1EE10FA39EE87
:100DB000019AA4BFB4EE4E9AF1EE10FAFFF693AE8C
:100DC00039EE019AB4EE4E9AF1EE10FAE2DA8AE6C2
:100DD0009FED382A31EE021AB4EE4E1AF1EE10FAF7
:100DE000FFF6B9AE31EE021AB4EE4E1AF1EE10FA79
:100DF000A2BF31EE021AB4EE4E1AF1EE10FAFFF66F
:100E0000AAAE31EE021AB4EE4E1AF1EE10FAE1DAA1
:100E1000A1E600BF9FED271A32EE012AB4EE4E2A5A
:100E2000F1EE10FAA1BF32EE012AB4EE4E2AF1EE35
:100E300010FA32EE012AA4BFB4EE4E2AF1EE10FAF7
:100E4000FFF6B8AE32EE012AB4EE4E2AF1EE10FAF9
:100E5000E2DAAFE69FED172A31EE021AB4EE4E1A2F
:100E6000F1EE10FAFFF6D9AE31EE021AB4EE4E1AD8
:100E7000F1EE10FAA2BF31EE021AB4EE4E1AF1EE04
:100E800010FAFFF6CAAE31EE021AB4EE4E1AF1EEC7
:100E900010FAE1DAC1E600BF022184F82510FC2136
:100EA00084F8241084F82700BDEC108BBDE8704056
:100EB00048B27047DB0FC9C0DB0FC94000003443A4
:100EC000000078C200008C42AE98A3BFBD3786B543
:100ED000170C383FBD378635170C383F000000002F
:100EE0002DE9F0472DED108B044600284FF000004F
:100EF00000F0F3803929C0F0F080E51DEFF3108693
:100F0000EFF3108072B600F097FA40F2F011D0EDD6
:100F100000BA90ED01EA90ED02FAD0ED038AD0ED2F
:100F2000049AD0ED05AA90ED1ACA90ED1BDA90ED67
:100F30001CBA90F8748090F8789044F6E840C2F2B9
:100F40000041C2F20040002E91F801A08E7890ED91
:100F50000E0ACF7890ED0F9A90ED108A00D162B60C
:100F6000FFF73AFCB0EE40AAB0EE490AFFF734FCB6
:100F7000B0EE409AB0EE480AFFF72EFC0AEB0601ED
:100F80001BEE903ACA19277102EB09074EF2A51021
:100F9000474420801F441EEE10CA1AEE900A07EB49
:100FA000132707EB13471FEE101A686107EB136056
:100FB000604418EE902A00EB1C202B6000EB1C40D4
:100FC0001CEE103A00EB1C601DEE107A0844AB6179
:100FD00000EB11201BEE103A00EB1140E67000EB25
:100FE000116019EE906A1044EF611AEE107A00EB6E
:100FF00012202B6219EE103A00EB12402E616F6244
:1010000010EE107A00EB1260AB623044637EEF6248
:1010100000EB1620A77E1844E37E667F3844277FC6
:101020001844A37F3844E77F304494F82160184483
:1010300094F82030384494F82270184494F82330FF
:10104000304494F82560384494F82470184494F897
:101050002630384494F82770304494F829601844B6
:1010600094F82830384494F82A70184494F82B30B7
:10107000304494F82D60384494F82C70184494F857
:101080002E30384494F82F70304494F8316018446E
:1010900094F83030384494F83270184494F833306F
:1010A000304494F83560384494F83470184494F817
:1010B0003630384484F802A0304484F8059018444F
:1010C00084F806801F3884F837005A2084F83800E6
:1010D0003920C5F804C0A960EA60BDEC108BBDE8FA
:1010E000F08700000000000040F2F0100021C2F282
:1010F000004001707047000040F2F010C2F2004062
:101100000078704700000000B0B540F2F015C2F260
:101110000045287810B10020B0BD00BF281D39213E
:10112000FFF7DEFE0028F6D00246294643F2BC1047
:101130000124C2F2000001F8044B07F039FB00283B
:101140001CBF00242C702046B0BD00000000000031
:1011500040F2F0100021C2F2004001707047000020
:1011600080B58AB00020019000209FED170AC4F2DC
:10117000A030CDE90200FFF7C3FA8DED040A9FED20
:10118000130AFFF7BDFA8DED060A9FED110AFFF76E
:10119000B7FA01208DF814008DF8240044F6E840D9
:1011A000FF218DF81C10C2F2004001A98DED080A44
:1011B000FFF7EAFA42F6D8407C21C2F20000FFF7BE
:1011C000FAF90AB080BD00BF0000000000008C42A8
:1011D000000011C30000000070B52DED0A8B86B031
:1011E00042F6D84644F6E844C2F20006C2F2004491
:1011F000DFED8F1A2046B0EE409A86ED000AB0EE81
:10120000608AC6ED010AB0EE41AA86ED021AFFF728
:10121000F3FA05462046FFF7B3FAE91C044661D00D
:10122000E8B2FC2874D0002840F08C8004F124053A
:1012300044F6E841C2F200416A462846FFF770FAD8
:101240009DED000AFFF7C8FAB0EE40BA9DED010A25
:10125000FFF7C2FAB0EE40CA9DED020AFFF7BCFAF2
:10126000002C00F0858004F1140386ED05AA06F138
:10127000180C86ED039A0FCB8CE80F002A1D06F19F
:101280003C0306F1280C86ED048A07CA07C32868C8
:10129000B06303987065029830650198F064009817
:1012A000B0649DF80C0004F1140586ED16BA86EDC5
:1012B00017CA86ED180A86F864002ECD8CE82E0039
:1012C00086ED1ABA002186ED1BCA86ED1C0A86F847
:1012D0007400012086F878008DF81410E278A17867
:1012E0004CE000BF96F87800002853D0D6E90612EB
:1012F000B162316AF262726AC6E90C12D6E916125C
:10130000B166316EF266726EC6E91C12012142E0CE
:10131000002C49D096F8780061780222002869D024
:10132000D6E90635B362336AF562756AC6E90C35EB
:10133000D6E91635B366336EF566756EC6E91C35AB
:10134000012358E096F87800002843D0D6E9061229
:10135000B162316AF262726AC6E90C12D6E91612FB
:10136000B166316EF266726EC6E91C12012132E07E
:1013700096F8780000218DF8141000220023ADF8B3
:1013800012308DF815100DF112018DF816208DF820
:10139000170044E002210122ADF800208DF8021070
:1013A00004BB002100221FE096F87800022158B308
:1013B000D6E90623B262326AF362736AC6E90C2385
:1013C000D6E91623B266326EF366736EC6E91C2345
:1013D00001221AE002210322002CADF800208DF832
:1013E0000210DED0A178E2788DF803108DF8042089
:1013F00012E000BF02238DF802308DF801106188E1
:101400008DF8002006E000BF0222ADF80010002198
:101410008DF80220ADF8031069468DF80500902084
:10142000062208F0D9FF06B0BDEC0A8B70BD00BFE4
:10143000000000000000000042F6D840C2F20000A8
:10144000704700000000000010B540F21814C2F20E
:10145000004494ED032AB4EE402AF1EE10FA02BFE4
:1014600094ED042AB4EE602AF1EE10FA18D0FFF7DA
:10147000B3FEFFF7E1FF90F87810002908BF10BD18
:10148000816A2163C16A616390ED1C0A016BA163EB
:10149000D0E91A23C4E9102384ED120A10BD00BF5D
:1014A00094ED052AB4EE412AF1EE10FADFD10020C6
:1014B000A063C4E90C00C4E910009FED020A84EDAA
:1014C000120A10BD000000002DE9F04F81B02DED93
:1014D000028B84B018B1002918BF002A06D104B0CD
:1014E000BDEC028B01B0BDE8F08F00BF40F2AC1440
:1014F000C2F20044E378002BF1D0EFF3108372B610
:1015000094F9347094F935509FEDCC8A94F93630C3
:1015100000EE107A01EE105A94F9376003EE103A9B
:1015200094F93880B8EEC00A04EE106AB8EEC11A19
:1015300094F939A0B8EEC33A9FEDC12A20EE080A0B
:1015400005EE10AA21EE081A94F83A7023EE083A34
:101550000197B8EEC44A94F8407020EE020A94F85D
:10156000436021EE021A94F83BC023EE023A02EEE9
:10157000108A24EE084A94F83C90B8EEC55A94F8C4
:101580003DE0B8EEC26A9FEDAF2A24EE024A94F81D
:101590003E5094F83F30029794F84170039694F8C7
:1015A00042B00026E67062B680ED000A26EE080A18
:1015B00025EE085A81ED001AB0EEC46A9FEDA21A1A
:1015C00082ED003A20EE023A25EE010A84ED034A4C
:1015D000B4EE426A84ED043AF1EE10FA84ED050AA5
:1015E00080F2D480B0EEC34AB4EE424AF1EE10FA73
:1015F00080F2DD80B0EEC02AB4EE412AF1EE10FA9E
:1016000008DB94A0B5EE400AF1EE10FAC8BF043032
:10161000006860614FFA89F06FF07E014FFA8EF238
:1016200010F17F0F6EB29FED8D2AD8BF084612F1E0
:101630007F0F9FED8C4AC8BF1146782E00EE100A2E
:10164000A8BF782601EE101A9FED8B5A322EB8EE05
:10165000C00AD8BF3226B8EEC11ABCF1010FA6F1FC
:10166000320030EE020A40B284F808C003EE100ADD
:1016700031EE021A9FED7A2A019820EE020AE071FB
:10168000B8EEC33AA37121EE021A9FED782A80EEDC
:10169000040A23EE022A9FED763A81EE041A9FEDAA
:1016A000724A30EE040A82EE032A9FED723A31EE5E
:1016B000041A80FE450A32EE032A81FE451A80FE96
:1016C000040A82FE452A84ED090A81FE041A84ED8B
:1016D0000A1A82FE032A9FED693A00FE034A84ED4E
:1016E0000B2A01FE035A84ED064A02FE033A84EDFA
:1016F000075A84ED083A8BB94FF48070A08042F607
:10170000C4400021C2F200000EF05AFF44F6D4405B
:101710000021C2F200400EF047FFA379012B0FD148
:101720000120A08042F6C4400121C2F200000EF068
:1017300047FF44F6D4400121C2F200400EF034FFCE
:1017400078B29FED4F1A00EE100ABBF1010F03991A
:1017500002986072B8EEC00A84F80AB0E17220EE16
:10176000080A20EE010A84ED0C0A33D0BBF1000F09
:101770007FF4B5AE44F6D440C2F200400078A9BB75
:10178000A0B344F6D440002139E000BF2FA0B5EE4D
:10179000404AF1EE10FAC8BF04300068E060B0EED5
:1017A000C34AB4EE424AF1EE10FAFFF623AF27A087
:1017B000B5EE403AF1EE10FAC8BF0430006820617F
:1017C000B0EEC02AB4EE412AF1EE10FABFF619AF1E
:1017D00020E700BF42F6C440C2F200000078C9B959
:1017E000C0B142F6C44000211DE000BF01297FF4D2
:1017F00076AE01283FF473AE44F6D4400121C2F224
:10180000004004B0BDEC028B01B0BDE8F04F0EF01B
:10181000E3BE00BF01297FF462AE01283FF45FAE52
:1018200042F6C4400121C2F2000004B0BDEC028BBC
:1018300001B0BDE8F04F0EF0E3BE00BF0000003C79
:10184000000080430000344300005C42000034C3C9
:101850000000344300005CC200005C420000FE4215
:1018600000007A4400007E430000FAC30000E14318
:1018700000008C42000048420000FA4300000000D3
:101880000000004500000000FEE70000000000002E
:1018900041F2883000F09CFFB6EE008AB0EE009A6C
:1018A00040F2581A43F2842B43F27C2943F230046D
:1018B00044F204389FEDDCAA9FEDDCBAC2F2004A84
:1018C0009FEDDBCAC2F2000B9FEDDADAC2F200092B
:1018D000C2F20004C2F2000872E000BF9AED000AF2
:1018E000012080FE0A0A80FE4B0A80EE0C0A0EF0F0
:1018F00013FA9AED011ABDEEC00A81EE0D1A02200C
:1019000010EE105AB0EE410A0EF006FA9AED021AE5
:10191000BDEEC00A81EE0D1A032010EE106AB0EE83
:10192000410A0EF0F9F9BDEEC00A002328463146FF
:1019300010EE102A00F0F8FF012000F049FFF0EE51
:10194000480ABBF8001099ED000A20460EF018FA7C
:10195000F0EE480ABBF8101199ED010A20460EF08E
:101960000FFAF0EE480ABBF8201298ED000A204664
:101970000EF006FAF0EE480ABBF8301398ED010AB3
:1019800020460EF0FDF943F27820F0EE490AC2F24B
:101990000000BBF8401490ED000A20460EF0F0F96C
:1019A00045F66420F0EE490AC2F20040BBF850153B
:1019B00090ED000A20460EF0E3F901200EF06CF9DC
:1019C00040F2B110C2F20040007801286FD140F21D
:1019D000B510C2F20040007800287BD0012834D135
:1019E00040F2DC150120C2F2004595ED000A08F036
:1019F000E3F9BDEEC01A95ED000AB1EE400A0220EF
:101A000011EE105A08F0D8F9BDEEC00A44F2304782
:101A1000C2F20007032010EE106A97ED020A08F0E8
:101A2000CBF9BDEEC01A97ED030AB1EE400A0420CF
:101A300011EE107A08F0C0F9BDEEC00A2846314612
:101A40003A4610EE103A00F0FFFE40F26816012010
:101A5000C2F2004696ED000A80FE0A0A80FE4B0A9A
:101A600080EE0C0A0EF058F996ED011ABDEEC00A90
:101A700081EE0D1A022010EE105AB0EE410A0EF05F
:101A80004BF996ED021ABDEEC00A81EE0D1A032045
:101A900010EE106AB0EE410A0EF03EF9BDEEC00A3B
:101AA00000232846314610EE102A00F03DFF40F298
:101AB000B010C2F20040007801287FF440AF40F23D
:101AC000B510C2F20040007800283DD001287FF414
:101AD00005AF72E044F230470120C2F2000797EDF3
:101AE000000A08F069F9BDEEC01A97ED010AB1EEDF
:101AF000400A022011EE105A08F05EF9BDEEC00A4D
:101B0000032010EE106A97ED020A08F055F9BDEEB9
:101B1000C01A97ED030AB1EE400A042011EE107AC4
:101B200008F04AF9BDEEC00A284631463A4610EEA2
:101B3000103A00F089FE40F2B510C2F20040007881
:101B400001283FF44DAF80E740F234170120C2F284
:101B5000000797ED000A08F02FF9BDEEC01A97EDC7
:101B6000010AB1EE400A022011EE105A08F024F9E1
:101B7000BDEEC00A032010EE106A97ED020A08F0CD
:101B80001BF9BDEEC01A97ED030AB1EE400A04201E
:101B900011EE107A08F010F9BDEEC00A2846314661
:101BA0003A4610EE103A00F04FFE40F2B510C2F285
:101BB0000040007801287FF491AE40F2DC1501204E
:101BC000C2F2004595ED000A08F0F6F8BDEEC01A25
:101BD00095ED000AB1EE400A022011EE105A08F00D
:101BE000EBF8BDEEC00A40F23417C2F20007032042
:101BF00010EE106A97ED020A08F0DEF8BDEEC01A8A
:101C000097ED030AB1EE400A042011EE107A08F0B5
:101C1000D3F8BDEEC00A284631463A4610EE103AD7
:101C200000F012FE5AE600BF000070C200007042D1
:101C3000995C81B9BBF5EF39B0B5864600284FF005
:101C4000000018BF002901D1B0BD00BF40F23C2305
:101C500045F6682CC2F20043C2F2004CDA689C6878
:101C6000A242F1D0DA68451CA9421CF80220DC68C7
:101C700004F101046FF31F34DC600EF800202846E5
:101C8000ECD10846B0BD000040F23C20C2F200405A
:101C900001684068081A40F6FF7138BF00F58050AF
:101CA000081A7047000000000122002818BF002910
:101CB00002D11046704700BFF0B581B040F23C261B
:101CC000C2F2004632687368D21A40F6FF7338BF1A
:101CD00002F580529A1A8A4206D2002201B0BDE86B
:101CE000F0401046704700BF4A1E01F0030C032A63
:101CF00054D20021BCF1000F33D0435C3268013272
:101D000077686FF31F32BA4206D0376846F6682507
:101D1000C2F20045EB553260BCF1010F21D00844FE
:101D200041783268013273686FF31F329A4206D0ED
:101D3000336846F66827C2F20047F9543260BCF1B6
:101D4000020F0ED080783168013172686FF31F3155
:101D5000914206D0326846F66823C2F20043985496
:101D6000316042F65450C2F20000D0F8BC020028A4
:101D70006ED0716900296BD1D0F81402002867D1A8
:101D800030687168441A38BF04F58054002C5FD065
:101D90003068716888423BD930683BE046F6682578
:101DA00021F0030E0021C2F2004502E004318E450D
:101DB000A0D0445C3268013273686FF31F329A42DC
:101DC00002D03368EC5432604418627833680133CF
:101DD00077686FF31F33BB4202D03768EA55336030
:101DE000A2783368013377686FF31F33BB4202D0A8
:101DF0003768EA553360E2783368013374686FF30B
:101E00001F33A342D2D034682A553360CEE700BFD7
:101E10004FF48050716842F65455401A46F66821D6
:101E2000A042C2F2004138BF04467068C2F2000509
:101E3000B4F5007F014428BF4FF4007428462246C1
:101E40000AF0D6FC28460AF05BFD002808BF746142
:101E5000012201B0BDE8F0401046704700000000CC
:101E6000212806D14FF4E130086000208880082046
:101E700088710020704700000020704700000000BB
:101E8000B0B542F6545442F2C441C2F20004C2F268
:101E900000010022204600250AF0AAFC44F2D041AD
:101EA0002046C2F200410AF093FC40F23C20C2F20C
:101EB00000408560C560056045604561056120465C
:101EC0000AF062FC0020B0BD70B50B68864603B313
:101ED00040F23C2445F6682C0020C2F20044C2F2D5
:101EE000004C05E02269013222610130984210D293
:101EF0001EF80020A5680135E6686FF31F35B5426E
:101F0000F0D0A3680CF80320A5600B68013098425C
:101F1000EED342F654547146C2F2000420460AF051
:101F200057FC20460AF030FC002070BD0000000085
:101F3000002070470000000082B04FF47A700DF06E
:101F4000ABFE07F055FC43F2BC1044F6D041C2F2A0
:101F50000000C2F20041012206F09AFB07F0A0F84F
:101F6000FFF7FEF842F6C440C2F200000DF0F0FAAE
:101F700044F6D440C2F200400DF0A2FA47F66830B1
:101F8000B9EE009AB1EE00CAC2F2004047F67437CB
:101F900040F2081540F2181440F2B819C2F2004796
:101FA00000F1040B00F1080AC2F200459FEDB68A69
:101FB000C2F200449FEDB2AAC2F200499FEDB1BA4D
:101FC000CDE900AB0DE000BF0020C4E90600C4E984
:101FD0000800C4E90A0001200DF05EFE01200DF0AA
:101FE0005BFE4FF496713846FFF726FE48B18046F7
:101FF0007E1E00BF16F8010F08F05EF8B8F1010868
:10200000F8D147F6683040F25823C2F200405946F2
:102010005246C2F20043FFF757FA40F2B110C2F243
:10202000004000780128D9D144F6D440C2F20040E3
:102030000DF056FA42F6C440C2F200000DF098FAD4
:1020400047F6683040F2640144F23042C2F2004088
:10205000C2F20001C2F2000207F002FC01200DF002
:102060001BFE40F2B310C2F20040007800286FD08F
:1020700040F2BC1840F2041BBA46C2F20048C2F259
:10208000004B43F27C27C2F2000799ED000AD8ED1D
:10209000000A9BED001AD5ED001A391D384606F0EE
:1020A000E7FC064640F29C00C2F2000099ED000AEF
:1020B000D8ED000A90ED001A40F20C10C2F2004078
:1020C000D0ED001A44F20430C2F20000011D06F007
:1020D000CFFC4EB197ED000A8BED000AB1EE400A3D
:1020E0007968296087ED000AA8B144F2043140F212
:1020F0009C02C2F20001C2F200020868106040F2C5
:102100000C1091ED010AC2F2004080ED000AB1EE20
:10211000400A81ED010A40F2C0105746C2F2004069
:10212000DDE900AB90ED001A43F2782021EE0C0AB5
:10213000C2F2000021EE091A20EE0A0A21EE0A1A64
:1021400080EE0B0A81EE0B1A80ED001A24E000BF2E
:1021500043F27C200021C2F200002960B0EE480A60
:10216000C0E9001144F20430C2F20000C0E90011DD
:1021700040F20410C2F20040016040F29C00C2F242
:102180000000016040F20C10C2F20040016043F216
:102190007820C2F20000016045F66420C2F20040DF
:1021A00080ED000A01200DF077FD40F2C41094ED9F
:1021B000001AC2F2004090ED000A40F2C810C2F2CC
:1021C0000040B4EE401AF1EE10FAD0ED000A15D13D
:1021D00040F2CC1094ED011AC2F20040B4EE601A45
:1021E000F1EE10FA90ED001A0ED194ED022AB4EE41
:1021F000412AF1EE10FA3FF4E7AE05E040F2CC10D0
:10220000C2F2004090ED001AFEF7E6FFFFF714F966
:1022100090F8781000293FF4DEAE40F2B411B0EE31
:10222000480AC2F20041B0EE481AB0EE482AB0EEB9
:10223000483A0978B0EE484AB0EE485A01290BD125
:1022400090ED0A0A90ED0B1A90ED0C2A90ED1B4AC6
:1022500090ED1A3A90ED1C5A84ED180A84ED191A83
:1022600084ED1A2A84ED143A84ED154A84ED165A49
:10227000FEF742FF00287FF4AEAEFEF745FFAAE668
:10228000D00F49400000344300000000000000006F
:10229000F0B581B0332800F2F581DFE810F03500A9
:1022A00065009700A500F301F301F301F301F301C9
:1022B000F301F301F301F301F301F301F301F5017C
:1022C000DB00E3002901F301F301F301F301F30162
:1022D000F301F301F301F301F301F301F301FD0154
:1022E0002B0235017301F301F301F301F301F30153
:1022F000F301F301F301F301F301F301F301A10190
:10230000A901B101EB0100BF40F2081643F230040D
:1023100043F28425C2F20006C2F20004C2F20005B4
:10232000204629460027B77037800DF031FA05F5B1
:10233000887120460DF02CFA05F5087120460DF045
:1023400027FA05F54C7120460DF022FA05F5886153
:1023500020460DF01DFA05F5AA6120460DF018FA89
:10236000B77001B0F0BD00BF40F2081643F2300470
:10237000C2F2000643F28425C2F20004C2F2000554
:1023800040F201103080204629460127B7700DF039
:102390003BFA05F5887120460DF036FA05F508710F
:1023A00020460DF031FA05F54C7120460DF02CFA5F
:1023B00005F5886120460DF027FA05F5AA6120464B
:1023C0000DF022FAB77001B0F0BD00BF40F2B010BE
:1023D0000121C2F20040017040F2B110C2F200408F
:1023E0000021017001B0F0BD40F208100021C2F2DE
:1023F0000000C0E90B11C0E90D1143F27C20C2F2CC
:102400000000C0E9001144F20430C2F20000C0E94B
:10241000001140F20410C2F20040016040F20810C6
:10242000C2F20040016040F29C00C2F20000016074
:1024300040F20C10C2F20040016043F27820C2F278
:102440000000016045F66420C2F20040016040F2E5
:10245000581012E140F208100121C2F20000017090
:1024600001B0F0BD002900F00D810C2A40F00A8176
:1024700008684A6800EE100A01EE102A9FEDCE2A85
:1024800088689FEDCE3A40F2081180FE420AC2F2FF
:10249000000181FE421A02EE100A40F2B01080FEE6
:1024A000030AC2F2004081FE031A9FEDC53A82FE84
:1024B000432A00789FEDC33A81ED080A012881ED97
:1024C000091A82FE032A81ED0A2A40F0DB8008788F
:1024D000012840F0498101F1200001F12C0240F275
:1024E0006401C2F2000101B0BDE8F04007F01CBA7F
:1024F00040F208100021C2F20000C0E90B11C0E94F
:102500000D1101B0F0BD00BF002900F0BB800C2A06
:1025100040F0B8804A68086801EE102A00EE100A00
:102520009FED9E2A88689FED9E3A40F2B01181FE91
:10253000421AC2F2004180FE420A02EE100A40F244
:1025400008100978C1FE030A9FED961A82FE411A0F
:102550009FED952A80FE030AC2F20000012981FE48
:10256000021A80ED010AC0ED020A80ED031A40F064
:1025700089804078012805D101B0BDE8F04006F01F
:1025800017BD00BF43F27C200021C2F20000C0E969
:10259000001144F20430C2F20000C0E9001140F220
:1025A0000410C2F20040016040F20810C2F2004084
:1025B000016040F29C00C2F20000016040F20C1089
:1025C000C2F20040016043F27820C2F200000160D4
:1025D00045F66420C2F20040016001B0F0BD00BFCA
:1025E00040F208100021C2F20000817001B0F0BD7D
:1025F00040F208100121C2F20000817001B0F0BD6C
:10260000002900F0A5800C2A40F0A2804A680868E2
:1026100001EE102A00EE100A9FED642A886803EE8E
:10262000100A9FED634A81FE421A40F2B01080FE0C
:10263000420AC2F2004040F20814C1FE040A0078C7
:1026400083FE421A9FED5B2A80FE040AC2F2000458
:10265000012881FE021A84ED040AC4ED050A84ED06
:10266000061A0FD1A078012840F08680FEF7ECFE14
:10267000A07889E040F258100021C2F20040C0E981
:102680000011816001B0F0BD40F20810C2F20000FC
:102690000021017001B0F0BD40F2081043F2300497
:1026A000C2F2000043F28425C2F20004C2F2000527
:1026B00000214170204629460DF06AF805F5887121
:1026C00020460DF065F805F5087120460DF060F81C
:1026D00005F54C7120460DF05BF805F58861204644
:1026E0000DF056F805F5AA61204601B0BDE8F040AE
:1026F0000DF04EB840F2081043F23004C2F2000070
:1027000043F28425C2F20004C2F2000501214170A7
:10271000204629460DF078F805F5887120460DF021
:1027200073F805F5087120460DF06EF805F54C714B
:1027300020460DF069F805F5886120460DF064F833
:1027400005F5AA61204601B0BDE8F0400DF05CB887
:102750000320ADF802000DF102019020022207F0E3
:102760003BFE01B0F0BD00BF0020C1E90B00C1E994
:102770000D0001B0F0BD00BF40F258110022C2F2BE
:102780000041C1E900228A60E17881423FF47AAFDA
:10279000E070E0690130E06101B0F0BD0000344359
:1027A000000034C300005C4200005CC20000FA4339
:1027B0000000FAC30000484200A00C4600A00CC66E
:1027C0000040C4430040C4C3704700000000000044
:1027D000B0B5044602F060F8054600BF02F05CF8B0
:1027E000401BA042FAD3B0BDEFF3108072B600BF19
:1027F000FEE700000000000044F60400C5F60200F9
:10280000816841F0020181600168890409D401688E
:1028100089045CBF01685FEA814102D401688904D0
:10282000F2D570470000000043F23000C2F2000011
:1028300000F06EBF0000000043F23000C2F2000062
:1028400000F066BF0000000080B58CB04FF4007C43
:10285000CDF80CC04FF0000C4FF0080ECDE904CCC1
:10286000CDE906ECCDE908CCCDE90ACC4FEA102C35
:102870008DF80500080A8DF80600100A8DF808008A
:10288000180A8DF80A0044F644508DF807108DF8A8
:102890000920C2F2004003A901AA8DF804C08DF8F6
:1028A0000B3000F001FD0CB080BD00000000000006
:1028B00080B588B00020009002210590CDE903107A
:1028C00044F64450CDE90111C2F20040694600F0DF
:1028D0009BFD08B1FFF788FF44F64450C2F2004068
:1028E00001F06EFC08B1FFF77FFF44F64450102161
:1028F000C2F20040002200F08FFC08B1FFF774FF25
:1029000008B080BD0000000044F64450C2F2004010
:1029100000F0FEBE0000000044F64450C2F2004049
:1029200000F0F6BE0000000080B58CB04FF4007CD3
:10293000CDF80CC04FF0000C4FF0080ECDE904CCE0
:10294000CDE906ECCDE908CCCDE90ACC4FEA102C54
:102950008DF80500080A8DF80600100A8DF80800A9
:10296000180A8DF80A0043F2D0008DF807108DF890
:102970000920C2F2000003A901AA8DF804C08DF855
:102980000B3000F091FC0CB080BD00000000000096
:1029900080B588B000200090CDE9040043F2D0005B
:1029A000032101910221CDE90211C2F20000694622
:1029B00000F02AFD08B1FFF717FF43F2D000C2F282
:1029C000000001F0FDFB08B1FFF70EFF43F2D0005D
:1029D0001021C2F20000002200F01EFC08B1FFF737
:1029E00003FF08B080BD000043F2D000C2F2000037
:1029F00000F08EBE0000000043F2D000C2F20000E2
:102A000000F086BE000000002DE9F041044601F010
:102A100043FF1CB3054694F83500022822D140F24A
:102A20000F462768C4F2020640F26F48B7426FF0C3
:102A30000E00C4F202081DDC6F21C4F202018F42B5
:102A40002ADC3F21C4F202018F4241DC1021C4F292
:102A500002018F4263D028215CE000BF0120BDE865
:102A6000F08100BF802060650120002184F83410CF
:102A7000BDE8F08147451BDC40F23F41C4F2020152
:102A80008F422DDC40F21041C4F202018F4246D049
:102A900040F228413EE000BF9F21C4F202018F4274
:102AA00028DC7021C4F202018F4238D0882131E045
:102AB00040F29F41C4F202018F4223DC40F2704198
:102AC000C4F202018F422AD040F2884122E000BFC6
:102AD0004021C4F202018F4221D058211AE000BFE8
:102AE00040F24041C4F202018F4218D040F25841F6
:102AF00010E000BFA021C4F202018F420FD0B82124
:102B000008E000BF40F2B841C4F202018F4206D093
:102B100040F2A041C4F202018F42394607D1394642
:102B2000386820F01E0041F8140B6FF080000A682E
:102B3000474500EA020008601ADC9F20C4F2020048
:102B4000874233DC5720C4F2020087425ADC10204F
:102B5000C4F20200874200F097802820C4F20200ED
:102B6000874200F091804020C4F202008AE000BF5A
:102B700045F22F40C5F6020087422DDC40F2B740F7
:102B8000C4F2020087424BDC40F27040C4F2020003
:102B9000874279D040F28840C4F20200874273D065
:102BA00040F2A040C4F202006CE000BF40F22740B7
:102BB000C4F20200874243DCA020C4F20200874234
:102BC00062D0B820C4F2020087425DD040F21040CB
:102BD000C4F2020056E000BF45F26B40C5F60200A9
:102BE00087423FDC45F23040C5F6020087424BD0B9
:102BF00045F24440C5F60200874245D045F25840B0
:102C00003EE000BF5820C4F2020087423CD0702052
:102C1000C4F20200874237D08820C4F2020031E0BB
:102C200040F2B840C4F2020087422DD045F208407D
:102C3000C5F60200874227D045F21C4020E000BFC5
:102C400040F22840C4F2020087421DD040F24040CA
:102C5000C4F20200874217D040F25840C4F202008A
:102C600010E000BF45F26C40C5F6020087420BD071
:102C700045F29440C5F60200874205D045F28040F7
:102C8000C5F60200874204D1206E016821F48071EC
:102C90000160386820F00100386000BF3868C00764
:102CA00010D001F0F9FD401B0628F7D32020606505
:102CB000032084F835000120002184F83410BDE899
:102CC000F08100BF2068B04210DC6F21C4F2020125
:102CD00088421DDC3F21C4F20201884234DC10210D
:102CE000C4F20201884255D028214FE040451BDC48
:102CF00040F23F41C4F2020188422DDC40F2104113
:102D0000C4F20201884245D040F228413EE000BFB3
:102D10009F21C4F20201884228DC7021C4F2020122
:102D2000884237D0882131E040F29F41C4F202014D
:102D3000884223DC40F27041C4F20201884229D06B
:102D400040F2884122E000BF4021C4F202018842E3
:102D500020D058211AE000BF40F24041C4F20201E5
:102D6000884217D040F2584110E000BFA021C4F2C1
:102D7000020188420ED0B82108E000BF40F2B841FD
:102D8000C4F20201884205D040F2A041C4F202011F
:102D900088425BD1D4E9161202F01F023F2303FAE6
:102DA00002F28A6040455BDC9F21C4F20201884246
:102DB00014DC5721C4F20201884227DC1021C4F23E
:102DC0000201884200F0A2802821C4F20201884258
:102DD00000F09C804021C4F2020195E040F22741BE
:102DE000C4F2020188421FDCA021C4F20201884221
:102DF00000F08C80B821C4F20201884200F0868085
:102E000040F21041C4F202017EE000BF5821C4F23A
:102E1000020188427AD07021C4F20201884275D042
:102E20008821C4F202016FE040F22841C4F202019D
:102E300088426BD040F24041C4F20201884265D022
:102E400040F25841C4F202015EE000BFD4E916121C
:102E500002F01F02012303FA02F24A604045A3DD9B
:102E600045F22F41C5F60201884217DC40F2B74116
:102E7000C4F20201884227DC40F27041C4F2020130
:102E8000884243D040F28841C4F2020188423DD0DA
:102E900040F2A041C4F2020136E000BF45F26B41AE
:102EA000C5F6020188421FDC45F23041C5F6020139
:102EB00088422BD045F24441C5F60201884225D014
:102EC00045F258411EE000BF40F2B841C4F2020191
:102ED00088421BD045F20841C5F60201884215D050
:102EE00045F21C410EE000BF45F26C41C5F60201FF
:102EF00088420BD045F29441C5F60201884205D0C4
:102F000045F28041C5F6020188420BD1616EA26E86
:102F1000E06E4A6030B1016821F480710160D4E94B
:102F20001C014160012084F835000020002184F854
:102F30003410BDE8F0810000F0B190F8351002299E
:102F400018D180B540F20F420168C4F202029142EA
:102F500014DC6F23C4F20203994225DC3F23C4F240
:102F6000020399423CDC1023C4F2020399425DD073
:102F7000282357E0802141650120704740F26F43CC
:102F8000C4F2020399421BDC40F23F43C4F2020345
:102F900099422DDC40F21043C4F20203994245D01D
:102FA00040F228433EE000BF9F23C4F2020399424F
:102FB00028DC7023C4F20203994237D0882331E021
:102FC00040F29F43C4F20203994223DC40F2704373
:102FD000C4F20203994229D040F2884322E000BFA4
:102FE0004023C4F20203994220D058231AE000BFC4
:102FF00040F24043C4F20203994217D040F25843D2
:1030000010E000BFA023C4F2020399420ED0B823FF
:1030100008E000BF40F2B843C4F20203994205D071
:1030200040F2A043C4F20203994277D191424FF09B
:10303000040280F8352011DC6F20C4F202008142C6
:1030400022DC3F20C4F20200814239DC1020C4F2AD
:103050000200814259D0282054E000BF40F26F4066
:10306000C4F2020081421BDC40F23F40C4F2020085
:1030700081422DDC40F21040C4F20200814244D073
:1030800040F228403EE000BF9F20C4F2020081428F
:1030900028DC7020C4F20200814236D0882031E062
:1030A00040F29F40C4F20200814223DC40F27040B3
:1030B000C4F20200814228D040F2884022E000BFE2
:1030C0004020C4F2020081421FD058201AE000BF05
:1030D00040F24040C4F20200814216D040F2584013
:1030E00010E000BFA020C4F2020081420DD0B82041
:1030F00008E000BF40F2B840C4F20200814204D0B0
:1031000040F2A040C4F202008142086820F00100B1
:1031100008600021BDE88040084670470A6822F038
:103120000E020A6045F25742C5F6020291420A6851
:1031300022F001020A600FDC45F22F42C5F60202BE
:10314000914219DC45F20842C5F60202914229D0AB
:1031500045F21C4222E000BF45F27F42C5F6020262
:10316000914213DC45F25842C5F60202914219D051
:1031700045F26C4212E000BF45F23042C5F6020251
:1031800091420FD045F2444208E000BF45F294421C
:10319000C5F60202914205D045F28042C5F6020210
:1031A00091421AD1D0E9181CD0E916E30A6822F43A
:1031B00080720A6003F01F01012202FA01F1CEF8C9
:1031C0000410816ECCF80410C16E31B10A6822F48B
:1031D00080720A60D0E91C124A60012180F8351023
:1031E000026D0021002A80F8341093D0904790E7B8
:1031F000B0B5044601F050FB40F200010546C2F2B2
:103200000001621C097818BF0C4400BF01F044FBA8
:10321000401BA042FAD3B0BD90F89830013B012B7F
:103220000ED80068836D0B4212D0836D0B408B4229
:1032300016D1C36D43F00203C3658B0514D418E0A7
:1032400000F19C01012002220B681A430A607047BA
:10325000C36D43F00103C3658B0505D409E000BFCE
:103260000323C3658B0504D5D0F8E0301343C0F8C1
:10327000E0304B0504D5D0F8E4301A43C0F8E42020
:103280004FF6FF72436DC3F6CF720A401A43426590
:103290008A0F4AF614010020C4F200010B681A4399
:1032A0000A6070470000000090F89830022B1BD194
:1032B0002DE9F0430668D6F8C03013F07C5F1BD0D0
:1032C000D6F8C4309B0221D4D6F8C4300C69C3F3BD
:1032D000044CD1E90035002D8D6821D023432B43C8
:1032E00043F0804E20E000BFD0F89C1041F0080170
:1032F000C0F89C1001207047D0F89C1041F02001CC
:10330000C0F89C100120BDE8F08300BFD0F89C10ED
:1033100041F40071C0F89C100120BDE8F08300BFAB
:1033200044EA834343EA050E836ED0F88450D1E922
:1033300007970CFB03F48B6949EA0767D1F81480FF
:10334000D1F80C901F4305EB840347EA080745F8C2
:1033500024E047EA09475F60CF6887B141F6B425AA
:10336000083303320024C0F6010500BF171957F8CF
:10337000037C1F51CF680434EF5DBC42F6D30121BA
:1033800001FA0CF1C6F8D010C0F894100020BDE886
:10339000F083000000000000704700000000000003
:1033A00090F89830012B0DD1012913D0F1B90068A4
:1033B000D0F8F01021F07C5141EA0261C0F8F01021
:1033C00000207047D0F89C1041F00401C0F89C1018
:1033D000012070470068D0F8A01021F0FE4141EABA
:1033E0000261C0F8A0100020704700BF0068D0F84C
:1033F000B01021F0FE4141EA0261C0F8B010002097
:10340000704700000000000090F89820013A012A5F
:103410000CD880B50A68002ACA680FD00B69072A41
:1034200043EA427E18D18B691BE000BFD0F89C10A4
:1034300041F00201C0F89C1001207047072A19D101
:103440000A69D1E906C3120442EA032242EA0C02E5
:1034500042F0605218E000BFD1F808C04B6943EA5F
:103460008C73006F496800EBC10240F831E0536093
:10347000002080BD8B68D1E904CE9B0743EAC2627D
:1034800042EA0C4242EA0E024968C06E40F821202E
:10349000002080BD0000000090F898C0BCF1010F32
:1034A0000ED19200006842EA0111DDF800C041EA45
:1034B000430141EA0C01C0F880100020704700BFB2
:1034C000D0F89C1041F00401C0F89C100120704716
:1034D00090B110B5044600F08FFE2068C16D21F058
:1034E0000301C165204600F0A7FC0020C4F89C0041
:1034F00084F8980010BD00BF012070470000000054
:103500007047000000000000890158BF7047006844
:10351000816921F001018161704700000000000015
:103520002DE9F04390F89870022F11D1402919D15C
:103530000668D6F8A07017F4FE0F2FD0D6F8A47046
:103540007F0635D0D6F8A470FF013BD400273CE0BD
:10355000D0F89C1041F00801C0F89C100120BDE893
:10356000F08300BF41290FD10668D6F8B07017F478
:10357000FE0F13D0D6F8B4707F0619D0D6F8B47009
:10358000FF012BD400272CE0076D8F4206D900F1F4
:103590007C04456D4FF0000C0E462BE0D0F89C10DB
:1035A00041F02001C0F89C100120BDE8F08300BF6D
:1035B000D0F89C1041F48071C0F89C100120BDE847
:1035C000F08300BFD6F8A070FF0FD6F8A46000F11A
:1035D0007404C6F30526F519466C0AE0D6F8B070F7
:1035E000FF0FD6F8B46000F17804C6F30526F5198C
:1035F000C66CAC467543246804EB850E54F8257000
:1036000017F08047576054F8257027F0604608BFD0
:10361000C7F38A46166054F8257007F00057976084
:1036200054F8254004F000441461BEF80440D4610D
:10363000BEF8064014F00F04D460DEF8044004F431
:1036400080145461DEF8044004F4001494619EF880
:10365000074004F07F041462DEF804404FEAD4749B
:10366000546228D041F6B4280024C0F601080EEBBD
:103670000406651C377A1F55D76818F80770BD42D5
:1036800019D21F19757A7D70D56818F80590A51C98
:103690004D453FBFB57ABD70D56818F805903CBF61
:1036A000E51C4D4507D2F57A0434FD70D56818F84D
:1036B0000550AC42DBD3402906D10068C0F8A8C051
:1036C0000020BDE8F08300BF412905D10068C0F8A3
:1036D000B8C00020BDE8F0831F2909D80068012286
:1036E00002FA01F1C0F898100020BDE8F08300BF95
:1036F000006801F01F01012202FA01F1C0F89C10DC
:103700000020BDE8F08300007047000000000000CA
:103710002DE9F04F89B004464AF61000C4F20000CB
:1037200001684AF61400C4F200000268206802EA48
:103730000108056DD0F85490036D0893436D07930D
:10374000036D0293436D0193076D436D0593036D04
:103750000493436D0393D0F854A0D0F850B05FEABF
:10376000CA5306970FD51BF480710CD04FF48071AB
:1037700001654AF610010020C4F2000108602046ED
:10378000FFF7C2FF20685FEA4A5105EA09064FEADF
:10379000887717D54AF610091BF48061C4F2000936
:1037A00014D0D0F8DC10D0F8E42011404FF480623F
:1037B00002650020C9F80000204600F0F9FE2068EC
:1037C00004E000BF4AF61009C4F20009DDE9072150
:1037D00001EA020506F4704657B10021016508F0C0
:1037E0000300C9F8000020463946FFF7D5FD2068E0
:1037F000DDE90121DDF80C8001EA020705F00F0583
:1038000046B106650020C9F800002046314600F0A8
:10381000D7FE206807F0F00645B105650020C9F81D
:1038200000002046294600F06BFC2068DDE90457C3
:1038300046B106650020C9F800002046314600F078
:103840006BFC2068069E5FEA0A510CD51BF40061F0
:1038500009D04FF4006101650020C9F8000020463E
:1038600000F0B2FE20685FEA8A5111D51BF40071A6
:103870000ED0D0F8D810D0F8E02011404FF40072EC
:1038800002650020C9F80000204600F095FE20687F
:103890005FEA0A310CD51BF4002109D04FF4002156
:1038A00001650020C9F80000204600F025FC2068D2
:1038B0005FEACA310CD51BF4803109D04FF4803156
:1038C00001650020C9F80000204600F06DFE206868
:1038D0005FEA4A3105EA08050CD51BF4802109D0BE
:1038E0004FF4802101650020C9F80000204600F057
:1038F00057FE20685FEA8A3106EA070205F0607128
:103900000ED51BF400330BD04FF4003303650023B6
:10391000C9F80030D4F89C3043F08003C4F89C30E0
:1039200002F0715539B101650020C9F80000204648
:10393000FFF7EAFD206845B105650021C9F80010D0
:10394000D4F89C102943C4F89C10A9F50161884261
:103950000AD0D4F89C00002868D0204609B0BDE801
:10396000F04FFFF7CDBD00BF606881688907F0D0D8
:10397000016A426A036A476A114003EA070202F0D9
:103980003005D0F82080D0F82490D0F820B0D0F8BE
:1039900024A0026A089211F00F01426A0792466A57
:1039A000026A069203D00162204600F0EDFD08EAAB
:1039B00009072DB1606829460562204600F0ECFD3C
:1039C00070060BEA0A0607F4C0750ED5069810F0CB
:1039D00040000AD060684023C16BC26B090C02F042
:1039E0003F020362204600F0D3FDDDE9071000EA44
:1039F000010706F4FC462DB16068294605622046A1
:103A000000F0BEFD07F4F02036B161680E62D4F814
:103A10009C103143C4F89C1000289AD06168086259
:103A2000D4F89C100843C4F89C0092E709B0BDE8A4
:103A3000F08F000000000000F0B12DE9F04F83B0DE
:103A40004AF200080446C4F200080068404533D03A
:103A500094F89810B9B3816921F01001816100F0E8
:103A60001BFF054620688169090707D500F014FF90
:103A7000401B0B28F6D312E001207047816941F00A
:103A80000101816100F008FF054600BF20688169DF
:103A9000C90721D100F000FF401B0B28F6D30120FD
:103AA000D4F89C100843C4F89C00032084F89800C4
:103AB000012003B0BDE8F08F08F58071616094F8D3
:103AC00098100029C7D1002084F89900204600F002
:103AD0002FFA2068BFE700BF816941F002018161D0
:103AE000217C826922F04002012918BF40328261A4
:103AF000617C826922F48042012908BF02F580427C
:103B00008261A17C826922F48052012918BF02F5EA
:103B100080528261816921F44073D4E902120B431F
:103B20008361836923F0A4038361036923F0100395
:103B300003619AB1012A0DD0022A09D08369032AB0
:103B400043F080038361036943F01002026105D1F1
:103B5000202200E0042283691A438261D4E90572BD
:103B6000E369561E6FF0FF02256A02EB0323B1F5ED
:103B7000407F43EA4663A5F1010646EA030640F2A8
:103B80000003CFF6FF7303EB074746EA0701C16165
:103B900010D1D4E90B65D4E90917013F02EB0622E5
:103BA0006FF00F063A4306EB05173A4303EB01416A
:103BB0001143C160236E2BB1616ED0F8C020114358
:103BC000C0F8C010E16DCDE90113D94241F63401CE
:103BD000C0F6010109D0D0F8C820A36E22F0070278
:103BE00051F823301A43C0F8C820D4F840A0BAF1E5
:103BF000000F09D0D0F8BC20636C22F0070251F806
:103C000023301A43C0F8BC20D4F848C0BCF1000FE0
:103C10000AD0D0F8BC20E36C22F0700251F82330B7
:103C200042EA0312C0F8BC20D4F850B0BBF1000F38
:103C30000AD0D0F8BC20636D22F4E06251F8231062
:103C400042EA0121C0F8BC10404504D161688A688D
:103C500022F003028A600021C4F89410C4F89C107A
:103C6000012184F8981004F13409D0F884104FF63B
:103C7000FC729143656C99E80C02009541EA82015F
:103C8000C0F88410D0F8841021F47F0141EA034188
:103C9000C0F884109918D0F888306FF38F0343EA86
:103CA0008103C0F88830D0F8883023F4FE0343EA5B
:103CB0000943C0F8883001EB4903D0F8A0606FF3E6
:103CC0008F0646EA8306C0F8A060D0F8A06026F40C
:103CD000FE0646EA0A46C0F8A06005FB0A36D0F8A0
:103CE000B0306FF38F0343EA8603C0F8B030D0F8EA
:103CF000B03023F4FE0343EA0C43C0F8B030E36C69
:103D0000D0F8AC506FF38F0503FB0C6645EA8605CF
:103D1000C0F8AC50D4F8548008FB0B65D0F8F060C4
:103D20006FF38F0646EA8506C0F8F060D0F8F0E041
:103D3000A66D2EF47C1747EA0647C0F8F070F7002E
:103D400007EB8507D0F8C0506FF38F052F43C0F8FD
:103D5000C070D0F8C070009D27F47C1705FB0AF5F1
:103D6000DDF804A003FB0C5347EA0A47C0F8C07013
:103D70004AF20007D0F8C0E0C4F20007DDF808C03E
:103D800007F5406707EB820207EB81012EF07C57B5
:103D900047EA0C67C0F8C07001EBC90008FB0B379D
:103DA0002167A16E00EB8505606700EB8303E26687
:103DB000C4E91E530AFB01F300EB87000CFB01F181
:103DC000C4F8800000EBC600C4F8840000EB830058
:103DD000C4F8880000EB81004DF2FC31C4F2000110
:103DE000C4F89000884201D9202059E682421FD2AF
:103DF0001146002041F8040BD4F890309942BFF4EA
:103E000058AE506002F10801D4F8903099423FBF9B
:103E1000906002F10C01D4F890309942BFF449AEA1
:103E2000D0601032D4F890108A42E1D341E600BF4E
:103E3000002003B0BDE8F08F10B54DF200410068DE
:103E4000C4F2000188422DD04AF20041C4F20001C0
:103E5000884249D04AF20001C4F20001884218BFEA
:103E600010BD40F25420C2F20040016801390160E7
:103E700007D144F2EC40C5F60200016821F48071DC
:103E8000016040F600400321C5F6020000F0A0FBEF
:103E90001524132000F008FE2046BDE8104000F075
:103EA00003BE00BF40F25420C2F200400168013955
:103EB000016007D144F2EC40C5F60200016821F42C
:103EC0008071016040F600404FF44051C5F6020099
:103ED00000F07EFBA0249F2000F0E6FD2046BDE818
:103EE000104000F0E1BD00BF40F25420C2F200409B
:103EF00001680139016007D144F2EC40C5F60200C7
:103F0000016821F48071016040F600406021C5F62F
:103F10000200A0F5006000F05BFB1624142000F006
:103F2000C3FD2046BDE8104000F0BEBD000000000B
:103F3000B0B5B6B0044602A8B8210025CDE9345585
:103F4000CDE932553195FCF736FB4DF20041206842
:103F5000C4F20001884241D04AF20041C4F200019B
:103F6000884273D04AF20001C4F20001884240F056
:103F7000BF80002003904FF4004002904FF080502B
:103F80001D9002A802F02CF808B1FEF72DFC40F2BB
:103F9000542144F2E040C2F20041C5F602000A6832
:103FA000002A02F101020A6008D1C16841F480715F
:103FB000C160C16801F48071019101990168152403
:103FC00041F0080101600068132500F0080001902D
:103FD000019803203190092133E000BF4FF40040E5
:103FE00002904FF080501D9002A8039501F0F8FF59
:103FF00008B1FEF7F9FB40F2542144F2E040C2F26E
:104000000041C5F602000A68002A02F101020A60B6
:1040100008D1C16841F48071C160C16801F4807148
:10402000019101990168A02441F008010160006834
:104030009F2500F008000190052101984FF44050A1
:10404000319040F60040C5F6020038E000200390B1
:104050004FF4004002904FF080501D9002A801F0F4
:10406000BFFF08B1FEF7C0FB40F2542144F2E0402C
:10407000C2F20041C5F602000A68002A02F10102FC
:104080000A6008D1C16841F48071C160C16801F45F
:104090008071019101990168162441F002010160CB
:1040A0000068142500F00200019001986020319012
:1040B00040F60040C5F602000921A0F500603591E8
:1040C00031A9022232920022CDE9332200F008FB0E
:1040D00005210022284600F013FD284600F0FCFCD4
:1040E00005210022204600F00BFD204600F0F4FCE4
:1040F00036B0B0BD000000007047000000000000B6
:1041000043F23001C2F20001884218BF70470BF041
:10411000BFBC00000000000080B58CB044F64452E3
:1041200001F01001C2F20042904217D1B1B144F641
:10413000445002AAC2F200406B464121FFF7F0F959
:10414000B0BB0298A0F20121062931D8013843F60C
:104150002451C0B2C2F200011CE000BF43F2D00201
:10416000C2F20002904223D111B343F2D00002AA5E
:10417000C2F200006B464121FFF7D2F9C0B90298A4
:10418000A0F20121062913D8013845F2F831C0B256
:10419000C2F20041C0EBC00001EB80008169013137
:1041A00081613229694605D80BF03EFD0CB080BD17
:1041B0000CB080BD0BF00CFD0CB080BD0000000009
:1041C00090F8981001290DD1022180F8981001680B
:1041D0008A6922F001028A610021C0F89C10084619
:1041E000704700BFD0F89C1041F00401C0F89C104B
:1041F000012070470000000090F89810022927D194
:10420000016851F8182F42F001020A600A68D207CB
:1042100004BF0A685FEAC27222D00A6822F0100264
:104220000A600A68120707D50A68120744BF0A68BD
:104230005FEA027200F1D2800A6842F002020A606C
:104240000021C0F89410012280F898200846704799
:10425000D0F89C1041F00801C0F89C100120704774
:104260000A68D20704BF0A685FEAC272D5D10A6839
:10427000D20704BF0A685FEAC272CED10A68D207C9
:1042800004BF0A685FEAC272C7D10A68D20704BFD6
:104290000A685FEAC272C0D10A68D20704BF0A681E
:1042A0005FEAC272B9D10A68D20704BF0A685FEA3E
:1042B000C272B2D10A68D20704BF0A685FEAC2724A
:1042C000ABD10A68D20704BF0A685FEAC272A4D100
:1042D0000A68D20704BF0A685FEAC2729DD10A6801
:1042E000D20704BF0A685FEAC27296D10A68D20791
:1042F00004BF0A685FEAC2728FD10A68D20704BF9E
:104300000A685FEAC2727FF488AF0A68D20704BF06
:104310000A685FEAC2727FF480AF0A68D20704BFFE
:104320000A685FEAC2727FF478AF0A68D20704BFF6
:104330000A685FEAC2727FF470AF0A68D20704BFEE
:104340000A685FEAC2727FF468AF0A68D20704BFE6
:104350000A685FEAC2727FF460AF0A68D20704BFDE
:104360000A685FEAC2727FF458AF0A68D20704BFD6
:104370000A685FEAC2727FF450AF0A68D20704BFCE
:104380000A685FEAC2727FF448AF0A68D20704BFC6
:104390000A685FEAC2727FF440AF0A68D20704BFBE
:1043A0000A685FEAC2727FF438AF0A68D20704BFB6
:1043B0000A685FEAC2727FF430AF0A68D20704BFAE
:1043C0000A685FEAC2727FF428AF0A68D20704BFA6
:1043D0000A685FEAC2727FF420AFC3E00A6812077E
:1043E00044BF0A685FEA02727FF526AF0A681207C7
:1043F00044BF0A685FEA02727FF51EAF0A681207BF
:1044000044BF0A685FEA02727FF516AF0A681207B6
:1044100044BF0A685FEA02727FF50EAF0A681207AE
:1044200044BF0A685FEA02727FF506AF0A681207A6
:1044300044BF0A685FEA02727FF5FEAE0A6812079F
:1044400044BF0A685FEA02727FF5F6AE0A68120797
:1044500044BF0A685FEA02727FF5EEAE0A6812078F
:1044600044BF0A685FEA02727FF5E6AE0A68120787
:1044700044BF0A685FEA02727FF5DEAE0A6812077F
:1044800044BF0A685FEA02727FF5D6AE0A68120777
:1044900044BF0A685FEA02727FF5CEAE0A6812076F
:1044A00044BF0A685FEA02727FF5C6AE0A68120767
:1044B00044BF0A685FEA02727FF5BEAE0A6812075F
:1044C00044BF0A685FEA02727FF5B6AE0A68120757
:1044D00044BF0A685FEA02727FF5AEAE0A6812074F
:1044E00044BF0A685FEA02727FF5A6AE0A68120747
:1044F00044BF0A685FEA02727FF59EAE0A6812073F
:1045000044BF0A685FEA02727FF596AE0A68120736
:1045100044BF0A685FEA02727FF58EAE0A6812072E
:1045200044BF0A685FEA02727FF586AE0A68120726
:1045300044BF0A685FEA02727FF57EAE0A6812071E
:1045400044BF0A685FEA02727FF576AE0A68120716
:1045500044BF0A685FEA02727FF56EAE0A6812070E
:104560007FF56AAED0F89C1041F00101C0F89C10B4
:10457000032180F89810012070470000000000001F
:1045800070470000000000007047000000000000BD
:1045900070470000000000007047000000000000AD
:1045A000704700000000000070470000000000009D
:1045B000704700000000000070470000000000008D
:1045C000704700000000000070470000000000007D
:1045D000002908BF70472DE9F04F81B000F1264255
:1045E00042F2004702F1FF728305C5F602070A2670
:1045F000B84243EA922208BF0926082A40F2040B77
:1046000038BF1646C5F6000B00220096002700268C
:104610004FF00F0C24E000BF6FF00304032304EA03
:1046200056040568934004441D43056007F01C05CB
:104630000CFA05FE256A25EA0E052562C5689D432C
:10464000C560456825EA0A054560856825EA0303D3
:1046500083600136043731FA06F302F102023BD0DF
:10466000012303FA06FA1AEA0108F2D040F20843DD
:1046700026F00305C5F6000307F00C0E0CFA0EF940
:10468000ED58009B05EA090503FA0EF39D42C3D1DC
:10469000DBF87C304FF0B04423EA0803CBF87C30E1
:1046A000DBF8803023EA0803CBF88030DBF80030F9
:1046B00023EA0803CBF800302568B30825EA08058B
:1046C000256040F20844C5F6000454F8235025EA5A
:1046D000090544F823509FE701B0BDE8F04F70474B
:1046E0002DE9F04F82B00D68002D00F0C78000F179
:1046F000264242F2004402F1FF728305C5F602042D
:104700000A27A04243EA922208BF0927082A40F25A
:10471000040C38BF1746C5F6000C4FF0000E00978A
:10472000002700260AE000BF01360D6835FA06F2C0
:1047300007F102070EF1040E00F0A080012202FA38
:1047400006FB15EA0B08EFD0D1F804A003220AF00B
:10475000030502FA07F36C1E6FEA0309012C0FD858
:104760008368CC6803EA0903BC4023438360CAF32F
:104770000014436823EA0B03B4402343436003E07F
:10478000032D01D1032520E0C3688C6803EA0903E7
:10479000BC40022D43EA0403C36016D16FF003024C
:1047A0000EF01C0502EA56030F22034402FA05FB31
:1047B000D3F820A00C692AEA0B0AAC4044EA0A04A8
:1047C0001C62D1F804A00AF00305036805FA07F497
:1047D00003EA09031AF4403F43EA04030360A3D049
:1047E00044F2F44240F2084AC5F60202C5F6000A55
:1047F000136843F00203136013680F2203F00203EF
:10480000019326F00303019C0EF00C0453F80A9068
:1048100002FA04F5009A29EA050502FA04F44FF0B9
:10482000B0492C4343F80A40D9F800304C6843EAB9
:104830000805E20258BF23EA0805C9F80050A5029E
:10484000DCF8002042EA080358BF22EA0803A50367
:10485000CCF80030DCF8802042EA080358BF22EA96
:104860000803E403CCF88030DCF87C2042EA08033B
:1048700058BF22EA0803CCF87C3055E702B0BDE807
:10488000F08F000000000000002A08BF09048161C9
:10489000704700000000000047F6A040C2F2004050
:1048A000006870470000000040F2000047F6A04199
:1048B000C2F20000C2F2004100780A6810440860A9
:1048C000704700000000000080B5032000F048F9A8
:1048D00002F0C2FA44F2184141F68C03C5F6020117
:1048E000C0F601030A68C2F303229A5C096801F06A
:1048F0000F0102F01F02595CD04040F26C02C2F27C
:10490000004201F01F0120FA01F1116040F268013C
:10491000C2F2004108600F2000F00AF800281CBF16
:10492000012080BD00F0A8F8002080BD000000003C
:104930000F2845D8B0B58AB004461C200022214675
:10494000002500F0DDF81C2000F0C6F840F204005D
:10495000C2F20000046044F2E840C5F602000168BB
:1049600041F001010160006801A900F0010002901E
:10497000029802A802F0BCF9079C002C18BF012481
:1049800002F00AFA4DF68361A040C4F21B314FF0E9
:10499000FF32A0FB010143F27010C2F200004FF0A1
:1049A0008043036002EB9141C0E9011540F2E73119
:1049B000C0E9031502F0F0FD20B101200AB0B0BD3E
:1049C0000120704743F27010C2F2000002F050FE66
:1049D0000AB0B0BD0000000010B54EF6A05E4178F0
:1049E000CEF2000E90F800C04EF8081CDEF8001061
:1049F00021F00101CEF8001041684EF8041C017B43
:104A0000C37A827A447B1B0643EA0171837B41EAC5
:104A1000C241C27B41EA8441447A41EA4341007A7F
:104A200041EA024141EA042141EA400040EA0C0027
:104A3000CEF8000010BD00004EF62450CEF200006B
:104A4000BFF35F8F016821F48031016000210167AD
:104A500070470000000000004EF6245140F00100B5
:104A6000CEF200010867086840F480300860BFF3A8
:104A70004F8FBFF36F8F704781B044F2F440002234
:104A8000C5F60200016841F00201016000680F21D3
:104A900000F0020000906FF00100009B01B000F0F8
:104AA0002FB8000000000000002848BF70474EF2F9
:104AB000801300F01F01C0F34A10CEF20003012260
:104AC00002FA01F143F82010BFF34F8FBFF36F8F4D
:104AD0007047000000000000002848BF704700F049
:104AE0001F01012202FA01F14EF20012C0F34A1036
:104AF000CEF2000242F820107047000000000000D3
:104B000070B54EF60C5C4FF0FF36CEF2000C00F1A3
:104B1000604505F56445DCF80030C3F3022E8EF0E5
:104B20000703042B28BF0423BEF1030406FA03F392
:104B300021EA030100F00F0338BF0024043B0028E2
:104B4000634406FA04F048BF03F10C05A14022EAD1
:104B5000000008430001287070BD00000000000044
:104B60004EF60C514FF6FF03CEF200010A681A40D0
:104B700060F30A2242F0806040F0FD7008607047E8
:104B800001680122C0F8D824002280F8CC2488696A
:104B900040F000608861486D40F08052002042F093
:104BA00003024A65704700007047000000000000E3
:104BB00002680020516270472DE9F043D0F8008070
:104BC000D8F8243081B1D8F82870B1F1010E03EB88
:104BD000174355D05FFA8EF10EF0030C04290BD267
:104BE000002700212DE000BF002043EA0241C8F861
:104BF0002810BDE8F08300BF0EF0FC0908F1F405B1
:104C0000002108F5827600BF55F8107F41F00100C1
:104C1000C0B241F00304E4B203EB174341F00207D2
:104C200056F82000FFB2043103EB104056F827304D
:104C300056F82440CFB200EB13404F4500EB14432D
:104C4000E2D1BCF1000F1BD008EB8700BCF1010FD3
:104C5000D0F8040103EB104312D0481CBCF1020F42
:104C6000C0B208EB8000D0F8040103EB104307D07A
:104C7000881CC0B208EB8000D0F8040103EB10439D
:104C800008EB8E0043EA0241C0F804110020BDE8A1
:104C9000F083000000000000D0F8E00408F078B9CC
:104CA00001EBC10200EB8202D0F8E004126A08F0C6
:104CB000D3B800000000000001EBC10200EB82024B
:104CC000D0F8E004D2F8602208F026B90000000015
:104CD000D0F8E00408F060B910B54AB2044601F01B
:104CE0000F00B2F1FF3F00EBC00104EB81020BDDCE
:104CF00002F51571002382F8553294F89424087057
:104D0000012A0AD1022010BD02F1140101235375BA
:104D100094F894240870012AF4D0012084F89404B3
:104D2000206808F039FF002084F8940410BD0000CA
:104D3000B0B50279044601F00F00904202D901207B
:104D4000B0BD00BF49B2B1F1FF3F09DD00EBC001CA
:104D5000002304EB810202F5157182F8553207E059
:104D600000EBC001012304EB810202F11401537531
:104D700094F8942400258D70012A087002D1022035
:104D8000B0BD00BF012084F89404206809F0F0F958
:104D9000284684F89454B0BD01F00F0101EBC10125
:104DA00000EB8100D0F868027047000000000000AE
:104DB00070B54CB2064601F00F00B4F1FF3F00EBB6
:104DC000C00107DD06EB8104002504F5157184F8A8
:104DD000555206E006EB810C01240CF114018CF80D
:104DE00015404D7808706FF3DF228A60002D0B713B
:104DF00018BF4883022B01D10020487196F8940413
:104E0000012801D1022070BD012086F89404306889
:104E100008F052FD002086F8940470BD00000000E8
:104E200080B501F00F0E0EEBCE0100EB810C0021DE
:104E3000CCE998238379CCF868128CF855120CF5DC
:104E40001571012B8CF854E208BFCCF87022006871
:104E50001A4609F0D9F9002080BD000000000000CA
:104E6000B0B50446007901F00F05854202D9012052
:104E7000B0BD00BF48B2B0F1FF3F09DD01EBC1009A
:104E8000002204EB800000F5157180F8552207E040
:104E900005EBC500012204EB800000F1140142750E
:104EA00094F8942401208870012A0D7002D1022008
:104EB000B0BD00BF84F89404206809F085F91DB1E5
:104EC000002084F89404B0BDA179206804F29C42CB
:104ED00009F01EF9002084F89404B0BD0000000021
:104EE00010B501F00F0C01240CEBCC0100EB810E8E
:104EF000714601F814CF4FF0000CC1F814C090F8BF
:104F000006C04C70CA60BCF1010F0B6108BFCEF83F
:104F100030200068624609F077F9002010BD0000DB
:104F20002DE9F04F89B005688246284609F084FBD8
:104F300010B109B0BDE8F08FDAF8000009F0ACFB61
:104F40000028F6D0D5F80808C0F30D20CAF8D4041C
:104F5000DAF8000009F0A0FB8007DAF8000003D5BA
:104F6000416901F00201416105F50061049109F018
:104F700093FBC006DAF8000007953BD5816921F064
:104F8000100181612C6A04F00F05C4F34340062828
:104F900018D0022827D147F6F07014EA000622D074
:104FA00005EBC50034090AEB800707982246D7F8BD
:104FB000601209F075FBD7F8600200EB1610C7F815
:104FC000600207E00AF29C410822079809F068FB9A
:104FD000C4F30A1405EBC5000AEB8000D0F8681290
:104FE0002144C0F86812DAF80000816941F010012C
:104FF0008161079D09F050FB000340F10181DAF85F
:10500000000009F025FB002800F0FA8006460AF5AA
:105010001D784FF430644FF0000B0AF29C4008906A
:1050200009E000BF0BF1010B760804F1200408F140
:10503000240800F0E580F007F4D05FFA8BF9DAF885
:105040000000494609F020FB0746C00771D0281927
:1050500001218160DAF8000004EB000C036CDCF83D
:1050600008209AF80650012D28D115073AD4950644
:1050700058D412F0280F079D5BD143F20B01C4F600
:1050800054718B4202D312F4004235D1D8F800207B
:10509000DCF810106FF3DF41BBF1000FA2EB010150
:1050A00048F80C1C19D1DAF86422002A00F0A2801A
:1050B000DAF860020844CAF860020EE043F20B0519
:1050C000C4F65475FF35AB421CD110042CD49006A5
:1050D000079D02D52020CCF8080050464946FFF72E
:1050E000EBFD26E043F20B00079DC4F654708342AB
:1050F0001FD312F400401CD04FF40040CCF808003D
:1051000017E000BFBBF1000F06D1DAF8641219B93D
:105110000021089A08F0FCFF50464946FFF7CCFDF5
:1051200006E000BF202001E04FF40040CCF808006A
:10513000079D38072CD528190821816043F20B01FF
:10514000DAF80000C4F65471056C20448D42816881
:105150000AD311F4004107D04FF40041816050465A
:1051600000F082FD079D09E0504600F07DFD43F20E
:105170000B00C4F654708542079D09D39AF80600C7
:10518000012805D1DAF800000121089A08F0C0FFD3
:10519000F80607D4B8070AD4B80620D4B8047FF5B7
:1051A00041AF22E0281910218160B807F4D5686961
:1051B000000604D50499486840F48060486018F8F7
:1051C0001D0C012806D1002008F81D0C5046494648
:1051D00000F086FB281902218160B806DED5281967
:1051E00020218160B8047FF51DAF28194FF40051CC
:1051F000816017E70121089A08F08AFF6DE700BF78
:10520000DAF8000009F048FA4003DDF810B040F188
:10521000E180DAF8000009F013FA002800F0DA80E3
:105220000646079800F5106700250AF29C40029098
:10523000CDF814A0039704E0760805F1010500F00D
:10524000C980F007F8D0E9B2DAF80000089109F057
:1052500007FA0446C0070BD1200733D4E00637D441
:1052600060063BD4A0073FD42006E5D555E000BF3B
:1052700005F00F00012307EB4512DBF8341003FAA9
:1052800000F021EA0000CBF8340093609AF80600A1
:10529000012811D105EBC5000AEB8000D0E9071207
:1052A0001144016245B9DAF8240028B9DAF800009F
:1052B0000121029A08F02CFF50460899FFF7F0FCF4
:1052C0002007CBD507EB451008218160E006C7D544
:1052D00007EB4510102181606006C3D507EB451030
:1052E00040218160A007BFD50798294609F034F90D
:1052F00005EBC5000AEB800010F8171F012905D146
:10530000002101705046089900F0E6FA07EB4510BD
:105310000221816020067FF58FAF05EBC5000AEB07
:105320008002914659F8241FC84658F8040F81425C
:10533000FFF482AF9346DAF800400B1A5BF81C7F4B
:10534000BB4238BF1F4604EB4513069407F1030C1C
:10535000D3F81879BFB2B7EB9C0F29D303F5106AC5
:1053600002F12007D9F8001081421FD9081A0599C7
:10537000DBF80040A0428A7938BF044639680092C1
:10538000A3B20698089A09F037FC3868E11C20445B
:105390003860D8F800002044C8F80000DAF8182077
:1053A00092B2B2EB910FDDD2D9F80010DDF814A063
:1053B000DDE9037B81423FF63FAF069A05F00F001F
:1053C000012101FA00F0D2F8341821EA0000C2F8F5
:1053D000340831E7DAF8000009F05EF900281BD440
:1053E000DAF8000009F058F9000534D4DAF80000C2
:1053F00009F052F900013FD4DAF8000009F04CF945
:10540000C0044BD4DAF8000009F046F98004DAF859
:10541000000000F15C8175E1DBF8040020F0010080
:10542000CBF804009AF8CC04012807D100208AF8B0
:10543000CC0400215046FFF7B7FB02E0504600F0D5
:10544000F7FBDAF80000416901F00041416109F021
:1054500023F90005CAD5DBF80800C00702D0504682
:1054600000F02AFCDAF80000416901F400614161B2
:1054700009F012F90001BFD5DAF80000416901F026
:10548000006141619AF8CC1401B3504600F014FC5D
:10549000DAF8000009F000F9C004B3D5DBF8040025
:1054A000102120F00100CBF80400DAF8000009F028
:1054B00053F89AF80400010600F0CF80C1B200F062
:1054C0000300042916D200217CE000BF01218AF8E4
:1054D000CC14406DC0F38300CAF8D0045046FFF7E7
:1054E00063FBDAF8000009F0D7F8C0047FF58AAF53
:1054F000D4E700BF6FF06002002302EA41124FF6CA
:105500007F370021079C00BFE61880339A4201F1E3
:105510000401C6F80879D6F8005925F40015C6F834
:105520000059C6F8087BD6F8005B25F40015C6F8CC
:10553000005BD6F8005B45F00065C6F8005BC6F876
:105540002879D6F8205925F40015C6F82059C6F850
:10555000287BD6F8205B25F40015C6F8205BD6F82A
:10556000205B45F00065C6F8205BC6F84879D6F8A0
:10557000405925F40015C6F84059C6F8487BD6F8BE
:10558000405B25F40015C6F8405BD6F8405B45F05B
:105590000065C6F8405BC6F86879D6F8605925F40E
:1055A0000015C6F86059C6F8687BD6F8605B25F42C
:1055B0000015C6F8605BD6F8605B45F00065C6F87C
:1055C000605BA1D1002848D0079A4D0102F5106315
:1055D00002F5306203EB41164FF67F3702EB4114C0
:1055E0000128B7605E5926F400165E51A76056592F
:1055F00026F400165651565946F0006656512CD0E6
:105600004E1C02284FEA461403EB461502EB4616E1
:10561000AF601D5925F400151D51B760175927F4C7
:1056200000171751175947F00060105115D0881C0A
:105630004FF67F36470103EB401102EB40108E60BE
:10564000D95921F40011D9518660D05920F40010A5
:10565000D051D05940F00060D051DBF81C0040F030
:105660000110CBF81C009AF80F0048B1DBF8840059
:1056700040F00B00CBF884000BF1440009E000BFC0
:10568000DBF8140042F22B010843CBF814000BF1B5
:10569000100001680AF29C4241F00B010160DBF846
:1056A000000020F4FE60CBF800009AF80610DAF84B
:1056B000000008F02DFDDAF80000416901F4805186
:1056C000416108F0E9FF8004DAF800001AD508F01B
:1056D0003BF9DAF8000008F09FFF8AF80700DAF8D3
:1056E000004001F031FB9AF807200146204609F0FE
:1056F000F7F9504600F084FADAF80000416901F445
:105700000051416108F0C8FF000707D4DAF8000033
:1057100008F0C2FF00060ED436E000BF504600F08D
:105720008BFADAF80000416901F00801416108F0E4
:10573000B3FF000628D50799886920F080008861AA
:105740009AF8040002281FD3012440F27B2503E0CD
:1057500001342435844217D21AF805100129F7D1F3
:1057600004F00F00220600EBC0000AEB800000F1FD
:10577000140158BF00F51571DAF8000008F05CFE5E
:105780009AF80400E4E700BFDAF8000008F084FFAC
:10579000C0024FD4DAF8000008F07EFF800240F12A
:1057A0007E809AF8041002292BD30798013900F55E
:1057B00032600AF51F72012304E000BF013900F1D5
:1057C00020001ED01746066812F8245B012DF5D183
:1057D000B6F1FF3FF2DCDAF8D45485EA1646F60754
:1057E000ECD1079E07F8013CB76947F08007B76125
:1057F00077693F06E2D4DBF8040040F40070CBF890
:105800000400DAF80000416901F40011416108F078
:1058100043FF400049D55046FFF73EFADAF8000052
:10582000416901F08041416108F036FF400743D4EF
:10583000FFF77FBB9AF80400022825D307990AF1E5
:105840003C0501F512640126012703E001372034ED
:10585000874219D22946226815F8243B012BF5D13D
:10586000B2F1FF3FF2DC07F00F0001F8016C00EB32
:10587000C0000AEB800000F11401DAF8000008F023
:10588000DBFD9AF80400E1E7DAF80000416901F471
:105890008011416108F000FF80023FF582AFDAF825
:1058A000000008F0F9FE4000B5D4DAF8000008F076
:1058B000F3FE40077FF53DABDAF80000446861076E
:1058C00004D55046FFF704FADAF800004168214396
:1058D000416009B0BDE8F08FD0F8E00407F0C0BB2C
:1058E000D0F8E00407F0D4BB002800F02B81F0B51D
:1058F00081B0044690F8950428B9002084F89404F7
:10590000204600F035F9032084F89504206808F05B
:10591000F7FBD4E90001267CD4E90223009608F0C5
:1059200023F8002840F008812068002108F010FFCB
:10593000002840F0018194F804E0BEF1000F00F06F
:10594000F280BEF1040F0EF0030C4FF0000241D3C1
:105950000EF0FC03A4F1900003210125CE1E80F877
:10596000A460A0F8BE608E1E80F8C8604F1CA0F82E
:10597000E2604E1E80F8EC609F42A0F8066101F1E3
:10598000040680F8A55080F8A820C0E92B22C0F8B2
:10599000B42080F8C95080F8CC20C0E93422C0F887
:1059A000D82080F8ED5080F8F020C0E93D22C0F802
:1059B000FC2080F8115180F81011A0F82A1131460E
:1059C00080F81421C0E94622C0F8202100F190009F
:1059D000C4D1F21EBCF1000F2DD002EBC200012198
:1059E000BCF1010F04EB80034FF0000059751A75EC
:1059F000DA851876C3E9070058621CD0531CBCF145
:105A0000020F03EBC30504EB850569752B75EB8568
:105A10002876C5E9070068620DD0901C012200EBD2
:105A2000C00104EB81014A750875C885002008761D
:105A3000C1E907004862BEF1000F74D0BEF1040F47
:105A40004FF0000237D30EF0FC000321234600BFC5
:105A5000CF1E83F854728F1E83F878724F1E83F81E
:105A60009C724F1C0D1D83F85522874283F85822E3
:105A7000C3E99722C3F8642283F8792283F87C2251
:105A8000C3E9A022C3F8882283F89D2283F8A022CC
:105A9000C3E9A922C3F8AC2283F8C12283F8C0125B
:105AA000294683F8C422C3E9B222C3F8D02203F105
:105AB0009003CDD1EA1EBCF1000F34D002EBC2003E
:105AC000BCF1010F04EB80014FF0000081F855029A
:105AD00081F8542281F85802C1E99700C1F86402A4
