:020000040800F2
:10000000400A002471030008812C0008D92A000846
:10001000792C0008A9040008D9330008000000006A
:10002000000000000000000000000000B9300008DF
:10003000B104000800000000B92C0008F1300008ED
:100040008F0300088F0300088F0300088F03000848
:100050008F0300088F0300088F0300088F03000838
:100060008F0300088F0300088F0300088F03000828
:100070008F0300088F0300088F0300088F03000818
:100080008F0300088F0300088F0300088F03000808
:100090008F0300088F0300088F0300088F030008F8
:1000A0008F0300088F0300088F0300088F030008E8
:1000B0008F0300088F0300088F0300088F030008D8
:1000C0008F0300088F0300088F0300088F030008C8
:1000D0008F0300088F0300088F0300088F030008B8
:1000E0008F0300088F030008000000008F03000842
:1000F0008F0300088F0300088F0300088F03000898
:100100008F0300088F0300088F0300088F03000887
:100110008F0300088F0300088F0300088F03000877
:100120008F0300088F0300088F0300088F03000867
:100130008F0300088F0300088F0300088F03000857
:1001400000000000000000000000000000000000AF
:100150008F0300088F0300088F0300088F03000837
:100160008F0300088F0300088F0300088F03000827
:100170008F0300088F0300088F03000800000000B1
:100180008F0300088F0300088F0300088F03000807
:100190008F0300088F0300088F0300088F030008F7
:1001A0008F0300088F0300088F0300080000000081
:1001B0008F0300088F0300088F0300088F030008D7
:1001C0008F0300088F0300080000000000000000FB
:1001D00000000000000000008F0300080000000085
:1001E000000000000000000000000000000000000F
:1001F00000000000000000008F0300088F030008CB
:100200008F0300088F030008000000008F03000820
:100210008F0300088F0300088F0300088F03000876
:100220008F030008000000008F030008000000009A
:100230008F0300088F030008000000008F030008F0
:100240008F0300088F0300088F0300088F03000846
:100250008F0300088F0300088F0300088F03000836
:100260008F0300088F0300088F0300088F03000826
:100270008F0300088F0300088F03000800000000B0
:100280008F0300088F0300088F0300088F03000806
:10029000000000008F0300088F030008000000002A
:1002A000000000008F0300088F0300088F03000880
:1002B0008F0300088F0300088F030008E90400087B
:1002C000F90400088F0300088F03000800F002F80B
:1002D00000F03EF80AA090E8000C82448344AAF1A2
:1002E0000107DA4501D100F033F8AFF2090EBAE8A0
:1002F0000F0013F0010F18BFFB1A43F0010318475A
:10030000703A0000903A0000103A24BF78C878C1D3
:10031000FAD8520724BF30C830C144BF04680C600B
:10032000704700000023002400250026103A28BF53
:1003300078C1FBD8520728BF30C148BF0B60704757
:100340001FB503F0C2FC00F061F81FBD10B510BD71
:1003500000F06EF81146FFF7F3FF03F031FC00F0F8
:100360008CF803B4FFF7F2FF03BC00F095F800002F
:100370000A4880470A4880470A480047FEE7FEE7E8
:10038000FEE7FEE7FEE7FEE7FEE7FEE7FEE7FEE745
:1003900005480649064A074B70470000C904000893
:1003A000A1310008CD02000840040024400A0024C6
:1003B00040060024400600244FF0000200B513461A
:1003C00094469646203922BFA0E80C50A0E80C5075
:1003D000B1F12001BFF4F7AF090728BFA0E80C5026
:1003E00048BF0CC05DF804EB890028BF40F8042B1F
:1003F00008BF704748BF20F8022B11F0804F18BF8C
:1004000000F8012B704770477047704770B5064C75
:100410007C44064D7D4404E0204601680844804742
:10042000241DAC42F8D170BD7C3900007C3900003D
:10043000754600F02BF8AE4605006946534620F09D
:100440000700854618B020B5FFF7A2FFBDE82040A1
:100450004FF000064FF000074FF000084FF0000B80
:10046000AC46ACE8C009ACE8C009ACE8C009ACE8EF
:10047000C00921F007018D46704710B50446AFF35F
:1004800000802046BDE81040FFF76BBF0048704772
:10049000100000247047000001491820ABBEFEE7A1
:1004A0002600020000000000FEE70000000000003F
:1004B0007047000000000000EFF3108072B600BF2C
:1004C000FEE700000000000044F60C00C5F6020044
:1004D000016841F00201016050F8081C8904FBD555
:1004E000704700000000000080B540F26420C2F2B6
:1004F000004000F05DFB80BD80B540F26420C2F298
:10050000004000F055FB80BD80B502F05DFD80BD70
:100510002DE9F04F82B00168C76BD0E90DA2D1F888
:1005200084304FF6FC74A34343EA8A03C1F8843055
:10053000D1F88430019223F47F0343EA0243C1F8E7
:10054000843002EB0A03D1F888406FF38F0444EA49
:100550008304C1F88840D1F88840009724F4FE0451
:1005600044EA0744C1F8884003EB4704D1F8A030BF
:100570006FF38F0343EA8403C1F8A030D1F8A05091
:10058000D0F840B025F4FE0545EA0B45C1F8A0506F
:10059000D0F84480D1F8B0506FF38F0508FB0B44BE
:1005A00008FB0BF845EA8405C1F8B050D1F8B060FB
:1005B000856C26F4FE0646EA0546C1F8B060D0F820
:1005C0004C9009FB0547D1F8AC406FF38F0409FB51
:1005D00005F944EA8704C1F8AC40D0E9144606FBAB
:1005E0000472D1F8F0706FF38F0747EA8207C1F801
:1005F000F070D1F8F030876D23F47C1343EA0743A1
:10060000C1F8F03002EB4702D1F8C0306FF38F032E
:1006100043EA8202C1F8C020D1F8C020C36D22F4A1
:100620007C1242EA0342C1F8C0204AF60042D1F8E7
:10063000C0C0D0F860E0C4F20002019D02EB8A0263
:100640002CF07C5C06FB04FA009C4CEA0E6C02EB7E
:100650008505C1F8C0C005EBC406846E06EB8801B1
:10066000056701EB890C63430CEB8A05C266C0E9A0
:100670001E1C0EFB04F105EBC70707EB8303C0F854
:1006800084704DF2FC37466703EB8101C4F200072A
:10069000B942C0F88050C0F88830C0F890100AD92C
:1006A000D0F89C1041F02001C0F89C10032180F884
:1006B000981001210CE0D0F890108A4207D2002156
:1006C00042F8041BD0F890309A42F9D300E00021A0
:1006D000084602B0BDE8F08FB0B58AB004460021EC
:1006E00009910220CDE90211CDE90711069102A975
:1006F000049020460125059500F0EAF808B1FFF7BF
:10070000DBFE0021022201232046009500F024F99F
:1007100008B1FFF7D1FE204600F06AFD08B1FFF7EF
:10072000CBFE01210022204600F05EF808B1FFF761
:10073000C3FE0AB0B0BD0000F0B5D1F804C0D1F8D6
:1007400010E0BCF1000FD1F808C006D00C684EEAEA
:100750000C05254345F0804C04E00D684CEA0E047E
:1007600044EA854C856ED0F88470D1E907466B4326
:100770008D6944EA0660D1F814E0CC68054307EBC4
:10078000830045EA0E0647F823C046EA0443436067
:10079000CB68002B08BFF0BD43F65E5C0830013229
:1007A0000023C0F6000C00BFD71857F8017CC750D3
:1007B000CF6804331CF80770BB42F5D3F0BD0000CE
:1007C000B0B5044600F030FE40F208010546C2F222
:1007D0000041621C097818BF0C4400BF00F024FEE1
:1007E000401BA042FAD3B0BD90F89830013B012BDA
:1007F0000BD80068836D0B420CD0836D0B408B428D
:100800000CD1C36D43F0020309E000F19C0101200B
:10081000022221E0C36D43F0010300E00323C3651E
:100820008B0504D5D0F8E0301343C0F8E0304B0519
:1008300004D5D0F8E4301A43C0F8E4204FF6FF7234
:10084000436DC3F6CF720A401A4342658A0F4AF6D7
:1008500014010020C4F200010B681A430A607047BB
:10086000B0B5044690F8980002281AD12068D0F854
:10087000C03013F07C5F19D0D0F8C4309B021AD47A
:10088000D0F8C400C0F3044520462B46FFF754FFC0
:1008900020680121A940C0F8D0100020C4F89410AD
:1008A000B0BDD4F89C0040F0080008E0D4F89C00EB
:1008B00040F0200003E0D4F89C0040F40070C4F83D
:1008C0009C000120B0BD0000704700000000000047
:1008D00080B590F89820013A012A0AD80A68002ABF
:1008E000CA680ED00B69072A43EA427E16D18B698B
:1008F00019E0D0F89C1041F00201C0F89C100120D2
:1009000080BD072A18D10A69D1F81CC012048B696E
:1009100042EA0C221A4342F0605217E0D1F808C0B4
:100920004B6943EA8C73006F496800EBC10240F8E1
:1009300031E00020536080BD8B68D1F810C09B0768
:1009400043EAC2624B6942EA0C421A434968C06EEC
:1009500040F82120002080BD90F898C0BCF1010F24
:100960000DD19200006842EA0111DDF800C041EAB1
:10097000430141EA0C01C0F8801000207047D0F814
:100980009C1041F00401C0F89C1001207047000049
:1009900070470000000000007047000000000000E9
:1009A000D0F89C00704700000068426C02F007001D
:1009B0000860C2F302204860C2F3803302F01800DE
:1009C0008860C2F34010C860C2F380100861C2F3AF
:1009D000C0104861C2F3C0208861C2F30030C86112
:1009E000C2F34030C1E90803C2F3064200208A6224
:1009F0007047000000000000B422402908BFA42274
:100A00000068805800F07F00704700000000000080
:100A100070B590F89850022D11D1402914D1046876
:100A2000D4F8A05015F4FE0F2BD0D4F8A4506D06C6
:100A30002CD0D4F8A450ED0130D4002531E0D0F80A
:100A40009C1041F0080125E041290FD10468D4F839
:100A5000B05015F4FE0F14D0D4F8B4506D0615D074
:100A6000D4F8B450ED0126D4002527E0056D8D4261
:100A700007D900F17C04D0F854E04FF0000C0D468B
:100A800026E0D0F89C1041F0200103E0D0F89C1043
:100A900041F48071C0F89C10012070BDD4F8A050C2
:100AA000ED0FD4F8A440C4F3052404EB050E00F1C7
:100AB0007404456C0BE0D4F8B050ED0FD4F8B4409A
:100AC000C4F3052404EB050E00F17804C56CF4466C
:100AD00005FB0EF6246854F8265015F08045556045
:100AE00054F826E02EF0604508BFCEF38A4504EBAB
:100AF000860E156054F8265005F00055956054F8A0
:100B0000264004F000441461BEF80440D461BEF8ED
:100B1000064014F00F04D460DEF8044004F480149E
:100B20005461DEF8044004F4001494619EF8074018
:100B300004F07F041462DEF804404FEAD474546277
:100B40000ED00EF1080543F65E5E0024C0F6000EDE
:100B50002E5D1E550134D6681EF80660B442F7D3E8
:100B6000402904D10068C0F8A8C0002070BD412908
:100B700004D10068C0F8B8C0002070BD1F2907D894
:100B80000068012202FA01F1C0F89810002070BD3F
:100B9000006801F01F01012202FA01F1C0F89C1067
:100BA000002070BD00000000704700000000000041
:100BB0002DE9F04F87B004464AF61000C4F2000059
:100BC00001684AF61400C4F200000268206802EAD4
:100BD000010A056DD0F85490076DD0F85480036D6C
:100BE0000293436D0193036D0693436D0593036D6B
:100BF0000493436D0393436D066D06EA030B5FEAAE
:100C0000CB530BD54FF4807101654AF610010020DB
:100C1000C4F2000108602046FFF7C6FF05EA090696
:100C20004AF610095FEA4B50C4F200094FEA8A7590
:100C30000ED52068D0F8DC10D0F8E42011404FF435
:100C4000806202650020C9F80000204600F004FB25
:100C500008EA070806F4704655B1206800210165CE
:100C60000AF00300C9F8000020462946FFF72CFED1
:100C7000DDE9011000EA010708F00F0546B1206820
:100C8000314606650020C9F80000204600F0ECFA65
:100C900007F0F00645B12068294605650020C9F82F
:100CA0000000204600F078FA46B12068314606651B
:100CB0000020C9F80000204600F096FA5FEA0B50C9
:100CC00000F1BF805FEA8B5000F1C9805FEA0B3012
:100CD00000F1D8805FEACB3009D520684FF480312D
:100CE00001650020C9F80000204600F0B1FA5FEA73
:100CF0004B30DDE9031000EA010509D520684FF407
:100D0000802101650020C9F80000204600F09CFA0F
:100D10005FEA8B30DDE9051000EA010005F0607143
:100D20000CD522684FF4003313650022C9F8002067
:100D3000D4F89C2042F08002C4F89C2000F0715549
:100D400039B1206801650020C9F800002046FFF78E
:100D500023FE4DB1206805650020C9F80000D4F8D5
:100D60009C002843C4F89C002068A9F501618842D2
:100D70005ED16068816889075AD0016A426A036A55
:100D8000476A114003EA070202F03005D0F82080DC
:100D9000D0F82490026A049211F00F01D0F824B028
:100DA000026A0692426A0592466AD0F820A003D0F1
:100DB0000162204600F03CFA08EA09072DB160689C
:100DC00029460562204600F03BFA06EA0A0007F4CD
:100DD000C0754006049800EA0B060AD560684023F7
:100DE000C16BC26B090C02F03F020362204600F0A7
:100DF00023FADDE9051000EA010706F4FC462DB1EF
:100E0000606829460562204600F00EFA07F4F020DB
:100E100036B161680E62D4F89C103143C4F89C105E
:100E200030B161680862D4F89C100843C4F89C0093
:100E3000D4F89C0010B12046FFF7AAFD07B0BDE82A
:100E4000F08F20684FF4006101650020C9F80000B0
:100E5000204600F00DFA5FEA8B507FF537AF20682F
:100E6000D0F8D810D0F8E02011404FF4007202659D
:100E70000020C9F80000204600F0F2F95FEA0B30CC
:100E80007FF528AF20684FF4002101650020C9F8E4
:100E90000000204600F07CF95FEACB303FF51DAF43
:100EA00025E70000000000002DE9F04130B34AF2D0
:100EB00000080446C4F200080068404502D108F565
:100EC0008070606094F8980028B9002084F8990038
:100ED000204600F0F5F82068816921F01001816159
:100EE00000F0A2FA054600BF20688169090708D50D
:100EF00000F09AFA401B0B28F6D312E00120BDE85F
:100F0000F081816941F00101816100F08DFA0546AF
:100F100020688169C90710D100F086FA401B0B28B0
:100F2000F6D3D4F89C0040F00100C4F89C000320E4
:100F300084F898000120BDE8F081816941F0020148
:100F40008161217C826922F04002012918BF403270
:100F50008261617C826922F48042012908BF02F526
:100F600080428261A17C826922F48052012918BFEB
:100F700002F580528261816921F44073D4E9021242
:100F80000B438361836923F0A4038361036923F026
:100F900010030361AAB1022A0FD0012A03D182698A
:100FA00042F004020CE08369032A43F0800383616A
:100FB000036943F01002026103D1826942F020020A
:100FC0008261D4E90552E369561E6FF0FF02276A79
:100FD00002EB0323013F43EA4663B1F5407F47EA52
:100FE000030740F20003CFF6FF7303EB054647EA21
:100FF0000601C16110D1D4E90B65D4E90917013F9D
:1010000002EB06226FF00F063A4306EB05173A4350
:1010100003EB01411143C160216E29B1626ED0F82A
:10102000C0301A43C0F8C020E26DCA4243F6E44122
:10103000C0F6000109D0D0F8C820A36E22F0070244
:1010400051F823301A43C0F8C820226C4AB1D0F8B6
:10105000BC20636C22F0070251F823301A43C0F819
:10106000BC20A26C52B1D0F8BC20E36C22F070021C
:1010700051F8233042EA0312C0F8BC20226D52B16D
:10108000D0F8BC20636D22F4E06251F8231042EAEC
:101090000121C0F8BC10404504D16068816821F08E
:1010A000030181600020C4F89400C4F89C00012072
:1010B00084F898002046FFF72BFABDE8F081000085
:1010C000B0B5B6B0044602A8B8210025CDE9345524
:1010D000CDE932553195FFF76FF94DF200412068A7
:1010E000C4F20001884201D036B0B0BD4FF40040D8
:1010F000029018200490C820059020200395CDE987
:101100000A054FF000501D9002A80224CDE90644C4
:10111000CDE9084500F09CFA08B1FFF7CDF944F29B
:10112000E040C5F60200C16841F48071C160C16849
:1011300001F4807101910199016841F00801016099
:10114000006831A900F00800019001984FF4405068
:10115000CDE931040020CDE933000520359040F67B
:101160000040C5F6020000F087F89F200021002211
:1011700000F036FA9F2000F02FFAA0200021002274
:1011800000F02EFAA02000F027FA36B0B0BD000023
:10119000704700000000000070B590B0C90721D072
:1011A0004DF2004104460068C4F20001884219D1A2
:1011B00040212046FFF720FCA0B106AD6E4604E0BA
:1011C00040212046FFF718FC60B1402120462A4606
:1011D0003346FFF71DFC0028F2D128463146FFF7C1
:1011E00093F9EDE710B070BD7047000000000000FB
:1011F00090F8981001290CD1022180F8981001680C
:101200008A6922F001028A610021C0F89C10084618
:101210007047D0F89C1041F00401C0F89C100120E8
:101220007047000000000000704700000000000050
:101230007047000000000000704700000000000040
:101240007047000000000000704700000000000030
:101250007047000000000000704700000000000020
:101260007047000000000000704700000000000010
:1012700070470000000000002DE9F04F83B00C68BB
:10128000002C00F0C68000F1264242F2004702F135
:10129000FF72C5F602074FEAB22201920A22B84253
:1012A00008BF0922002500274FF0010A009209E03B
:1012B0000C68043734FA0AF20AF1010A05F1020552
:1012C00000F0A780AAF10109012202FA09FE14EA3E
:1012D0000E08EDD0D1F804B00BF00304A4F1010C1A
:1012E000BCF1010F11D803228668AA40CB6826EA18
:1012F0000202AB401A438260CBF30013426822EA39
:101300000E0203FA09F31A434260032C1ED0032392
:10131000C268AB40022C22EA03028B6803FA05F391
:1013200042EA0302C26011D16FF0030207F01C060B
:1013300002EA59020F23024403FA06F4D2F820C04D
:101340000B692CEA0404B3402343136203230268AD
:10135000AB404E689A4306F00303AB4016F4403F9F
:1013600042EA03020260A3D044F2F44340F2084E82
:10137000C5F60203C5F6000E1A6842F002021A60B2
:101380001A6807F00C0302F002020292029A29F096
:101390000302019C009E082C38BF26460F2452F8F9
:1013A0000EC09C402CEA040406FA03F34FF0B04C44
:1013B000234342F80E30DCF800204B6842EA08066E
:1013C000DC0258BF22EA08069C02CCF8006040F21A
:1013D000040CC5F6000CDCF8002042EA080658BFF1
:1013E00022EA08069C03CCF80060DCF8802042EA80
:1013F000080658BF22EA0806DB03CCF88060DCF858
:101400007C2042EA080658BF22EA0806CCF87C6035
:101410004EE703B0BDE8F08F002A08BF09048161E0
:10142000704700000000000040F23840C2F2004067
:10143000006870470000000040F2080040F23841A8
:10144000C2F20040C2F2004100780A68104408600D
:10145000704700000000000080B5032000F0D0F8C5
:1014600000F0E6FE44F2184143F63053C5F602019F
:10147000C0F600030A68096801F00F01C2F30322F5
:10148000595C9A5C01F01F0102F01F02D04040F24B
:101490000402C2F2004220FA01F1116040F20001A0
:1014A000C2F2004108600F2000F00AF800281CBFBB
:1014B000012080BD00F080F8002080BD0000000009
:1014C000B0B540F20801C2F20041097801B3044608
:1014D00040F20000C2F200404FF47A72B2FBF1F128
:1014E0000068B0FBF1F001F037FA0F2C4FF0010566
:1014F0000CD858B94FF0FF3000222146002500F0EB
:101500006FF840F20C00C2F2004004602846B0BD03
:101510000120B0BD0000000010B54EF6A05E41787D
:10152000CEF2000E90F800C04EF8081CDEF8001055
:1015300021F00101CEF8001041684EF8041C017B37
:10154000C37A827A447B1B0643EA0171837B41EABA
:10155000C241C27B41EA8441447A41EA4341007A74
:1015600041EA024141EA042141EA400040EA0C001C
:10157000CEF8000010BD00004EF62450CEF2000060
:10158000BFF35F8F016821F48031016000210167A2
:1015900070470000000000004EF6245140F00100AA
:1015A000CEF200010867086840F480300860BFF39D
:1015B0004F8FBFF36F8F704781B044F2F440C5F690
:1015C0000200016841F002010160006800F00200C1
:1015D0000090009801B0704780B502F0F5F880BD2A
:1015E00070B514460D46064602F0FEF8294622461E
:1015F00001F04AFB0146304602F0FEF870BD0000E3
:1016000080B502F00DF980BDB0B544F60C05C5F605
:10161000020529684907296805D401F00701081A5D
:1016200018BF0120B0BD21F0070108432860FFF773
:10163000FBFE044655F8080C800407D4FFF7F4FEBF
:10164000001BB0F57A7FF5D90120B0BD0020B0BDF8
:101650002DE9F04381B00446C07844F22C490007DC
:10166000C5F6020901D400252EE0606E4FEA305025
:1016700003280DD80025DFE800F0020E1714D9F872
:101680000000002540F40030C9F8000055B913E00F
:1016900001253DB910E004F10800022101F010FB22
:1016A00005464DB1A84611E004F12800022101F0E1
:1016B00097FB0546002DF5D1D9F82400616E20F482
:1016C00040100843C9F824004FF000086078C007B4
:1016D00030D0A06D042807D8DFE800F00A131C03FF
:1016E0000300FDB1A84625E00125002DFAD119E03F
:1016F000D9F8000040F40030C9F80000002DF1D105
:1017000010E004F10800002101F0DAFA0546002D8E
:10171000E8D107E004F12800002101F061FB054653
:10172000002DDFD1D9F82400A16D20F00700084377
:10173000C9F824006078400734D5D4F8A4004FEAF3
:101740007050052807D8DFE800F00A131C030303D4
:10175000FDB1A84626E00125002DFAD119E0D9F8FF
:10176000000040F40030C9F80000002DF1D110E075
:1017700004F10800002101F0A3FA0546002DE8D18C
:1017800007E004F12800002101F02AFB0546002DA6
:10179000DFD1D9F82C00D4F8A41020F4600008435D
:1017A000C9F82C006078000734D5D4F8A8004FEAB7
:1017B0003060052807D8DFE800F00A131C03030394
:1017C000FDB1A84626E00125002DFAD119E0D9F88F
:1017D000000040F40030C9F80000002DF1D110E005
:1017E00004F10800002101F06BFA0546002DE8D154
:1017F00007E004F12800002101F0F2FA0546002D6F
:10180000DFD1D9F82C00D4F8A81020F0E06008430C
:10181000C9F82C00E078800728D5E06C4FEA30103A
:10182000032806D8DFE800F002091202B5B1A84685
:101830001CE00125002DFAD110E0D9F8000040F499
:101840000030C9F80000002DF1D107E004F10800D4
:10185000022101F035FA0546002DE8D1D9F8200023
:10186000E16C20F030000843C9F820006078C00621
:1018700032D5E06D4FEA3030042807D8DFE800F0B9
:101880000A131C030300FDB1A84625E00125002D25
:10189000FAD119E0D9F8000040F40030C9F800008E
:1018A000002DF1D110E004F10800002101F008FA48
:1018B0000546002DE8D107E004F12800002101F0E1
:1018C0008FFA0546002DDFD1D9F82400E16D20F410
:1018D000E0400843C9F824006078800626D5206ED1
:1018E0004FEA3040052807D8DFE800F0030A10036C
:1018F00003039DB1A84619E00125002DFAD10DE0A2
:1019000004F10800012101F0DBF904E004F12800F2
:10191000012101F065FA0546002DEBD1D9F824002C
:10192000216E20F4E0200843C9F8240060784006C6
:1019300028D5D4F8AC004FEA3070052807D8DFE886
:1019400000F0030A100303039DB1A8461AE0012525
:10195000002DFAD10DE004F10800012101F0B0F9E9
:1019600004E004F12800012101F03AFA0546002DB7
:10197000EBD1D9F82C00D4F8AC1020F0E0400843AB
:10198000C9F82C006078000620D5E06ED8B1B0F11F
:10199000005F12D0B0F1805F25D1D9F8000040F48B
:1019A0000030C9F8000085B9D9F82400E16E20F0B4
:1019B00040500843C9F8240008E004F10800012160
:1019C00001F07EF90546002DEED0A846E078C0076C
:1019D0002AD0A06C03280AD8DFE800F0020D160216
:1019E000D5B1A84620E00125002DEED1DCE7012588
:1019F000002DF6D110E0D9F8000040F40030C9F80D
:101A00000000002DEDD107E004F10800022101F0F3
:101A100057F90546002DE4D1D9F82000A16C20F03B
:101A200003000843C9F82000A078400642D5D9F841
:101A3000D40340F48070C9F8D403FFF7F5FC0646E0
:101A4000D9F8D403C00505D4FFF7EEFC801B652848
:101A5000F6D303256DBBD9F84410D4F8B00041404B
:101A600011F4407F11D0D9F84410D9F8442042F441
:101A70008032C9F84420D9F8442021F4407122F47E
:101A80008032C9F84420C9F84410B0F5807F0FD1E6
:101A9000FFF7CAFC064641F2893700BFD9F8440077
:101AA000800705D4FFF7C0FC801BB842F6D303259E
:101AB00085B1A8462078C00742D0A06F4FEAF00059
:101AC000052823D8DFE800F003262C0303037DB3A9
:101AD000A84635E04FF6CF73D4F8B00059F81C2C67
:101AE000C0F2FF0300F4407122F47C5203EA1013A9
:101AF000B1F5407F08BF1A436FF31F3049F81C2C23
:101B0000D9F844100843C9F84400D3E70125002D53
:101B1000DED10DE004F10800012101F0D1F804E06C
:101B200004F12800012101F05BF90546002DCFD119
:101B3000D9F82800A16F20F038000843C9F8280020
:101B40002078800724D5606F052807D8DFE800F0EB
:101B5000030A100303039DB1A84619E00125002DD7
:101B6000FAD10DE004F10800012101F0A9F804E028
:101B700004F12800012101F033F90546002DEBD1D5
:101B8000D9F82800616F20F007000843C9F8280041
:101B90002078400726D5D4F89000052807D8DFE83C
:101BA00000F0030A100303039DB1A8461AE00125C3
:101BB000002DFAD10DE004F10800012101F080F8B8
:101BC00004E004F12800012101F00AF90546002D86
:101BD000EBD1D9F82C00D4F8901020F0070008437E
:101BE000C9F82C002078800628D5D4F88C004FEA5C
:101BF0003070052807D8DFE800F0030A100303035C
:101C00009DB1A8461AE00125002DFAD10DE004F19E
:101C10000800002101F054F804E004F1280002213A
:101C200001F0DEF80546002DEBD1D9F82800D4F8F4
:101C30008C1020F0E0400843C9F8280020784006C6
:101C400028D5D4F898004FEAB020052807D8DFE857
:101C500000F0030A100303039DB1A8461AE0012512
:101C6000002DFAD10DE004F10800002101F028F860
:101C700004E004F12800022101F0B2F80546002D2D
:101C8000EBD1D9F82C00D4F8981020F4E050084398
:101C9000C9F82C002078000628D5D4F89C004FEA1B
:101CA0007030052807D8DFE800F0030A10030303AB
:101CB0009DB1A8461AE00125002DFAD10DE004F1EE
:101CC0000800002100F0FCFF04E004F128000221DC
:101CD00001F086F80546002DEBD1D9F82C00D4F898
:101CE0009C1020F460400843C9F82C0020780007BD
:101CF00016D5D4F88000B0F5805F08D104F1280033
:101D0000022101F06DF8002818BF4FF00108D9F842
:101D10002800D4F8801020F440500843C9F8280067
:101D20002078C00616D5D4F89400B0F5807F08D18D
:101D300004F12800022101F053F8002818BF4FF0E9
:101D40000108D9F82C00D4F8941020F4407008430E
:101D5000C9F82C00A078000722D5D4F8A000B0F56F
:101D6000003F1AD0B0F5803F11D0C8BB04F1080085
:101D7000002100F0A5FF05468DB9D9F82C00D4F854
:101D8000A01020F440300843C9F82C0008E004F10A
:101D90002800022101F024F80546002DEDD0A846C8
:101DA000A078400729D5D4F88400B0F5401F21D091
:101DB000B0F5001F18D0B0F5801F40F0BB80D9F8F7
:101DC000000040F40030C9F80000ADB9D9F828008F
:101DD000D4F8841020F440100843C9F828000CE01F
:101DE0000125002DDBD1C8E704F12800012100F016
:101DF000F7FF0546002DE9D0A846A078C00720D0FF
:101E0000206DB0F5803F10D0B8B9D9F8000040F48B
:101E10000030C9F800009DB9D9F82000216D20F4E8
:101E200080300843C9F820000BE004F108000221CB
:101E300000F046FF05461DB9EEE70125002DEBD069
:101E4000A846E078800608D504F12800022100F0B9
:101E5000C7FF002818BF4FF00108D4E900108A031B
:101E600077D5E26F6FF0010303EB3223022B0AD325
:101E70004FEA32233BB1012B61D1D9F8003043F452
:101E80000033C9F80030002D5CD0CA0264D48A0245
:101E90006CD44A0075D4B1F1FF3F40F3838009024E
:101EA00000F18B80C00707D004F10800002100F08A
:101EB00007FF002818BF05462079800707D504F1E1
:101EC0000800012100F0FCFE002818BF054620791B
:101ED000400707D504F10800022100F0F1FE0028B8
:101EE00018BF05462079000707D504F12800002116
:101EF00000F076FF002818BF05462079C00607D5F8
:101F000004F12800012100F06BFF002818BF0546EE
:101F10002079800607D504F12800022100F060FF37
:101F2000002818BF0125002D18BF0125284601B043
:101F3000BDE8F0830125002D7FF45EAF46E7012563
:101F4000002DA2D1D9F8283023F440731A43C9F8E0
:101F500028204546CA029AD5D9F82420236F22F0BA
:101F600000421A43C9F824208A0292D5D9F82420C5
:101F7000A36E22F080721A43C9F824204A007FF52C
:101F80008AAF59F81C2C22F4004249F81C2CD4F8D2
:101F9000B42059F81C3C1A4349F81C2CB1F1FF3FFE
:101FA0003FF77DAFD9F82020636D22F040521A43ED
:101FB000C9F8202009027FF575AFD9F82810D4F8A8
:101FC000882021F440011143C9F82810C0077FF48C
:101FD0006BAF71E7000000002DE9F04381B00028ED
:101FE00000F0F48042F200080446C5F20028894659
:101FF000D8F8000000F00F0088420ED2D8F8000098
:1020000020F00F0040EA0900C8F80000D8F80000EE
:1020100000F00F00484540F0D980206844F218478E
:102020004107C5F602070AD521693A6802F0700235
:10203000914204D93A6822F07002114339600107D5
:102040000AD561697A6802F07002914204D97A680F
:1020500022F0700211437960C1060AD5A1697A683D
:1020600002F4E062914204D97A6822F4E0621143FA
:10207000796081060AD5E169BA6802F0700291427E
:1020800004D9BA6822F070021143B96081070AD5F9
:10209000E1683A6802F00F02914204D93A6822F0EE
:1020A0000F0211433960C0077ED1206881070AD52D
:1020B000E1683A6802F00F02914204D23A6822F0D5
:1020C0000F0211433960D8F8001001F00F014945A3
:1020D0000DD9D8F8001021F00F0141EA0901C8F824
:1020E0000010D8F8001001F00F0149456ED14107EA
:1020F0000AD521693A6802F07002914204D23A6826
:1021000022F070021143396001070AD561697A68CB
:1021100002F07002914204D27A6822F070021143F8
:102120007960C1060AD5A1697A6802F4E062914239
:1021300004D27A6822F4E0621143796080060AD5FD
:10214000E069B96801F07001884204D2B96821F0F1
:1021500070010843B86000F06BF8396843F63052FC
:10216000C0F600023B68C1F3032103F00F03515C8A
:10217000D25C01F01F01C84002F01F0140F20402CE
:1021800020FA01F1C2F20042116040F2000140F277
:102190000C02C2F20041C2F2004208601068FFF770
:1021A0008FF901B0BDE8F083386820F47061D4E99C
:1021B0000102012841EA020139600BD003282BD02B
:1021C00002282ED157F8181C890307D4012001B02A
:1021D000BDE8F08357F8181CC905F7D557F8081C57
:1021E00021F00701084347F8080CFFF71DF90646E0
:1021F00041F2883557F8080C616800F03800B0EB00
:10220000C10F3FF452AFFFF70FF9801BA842F1D97D
:10221000032001B0BDE8F08357F8181C8901D5D51B
:10222000DCE757F8181C4907D0D5D7E700000000B5
:1022300044F20041C5F602010869C0F3C200032858
:102240000FD002282AD070BB0868800649F200002F
:10225000C0F2D03058BF70470968C1F3C101C8400F
:1022600070478A6A886AC0F3051CC86ABCF1000F0F
:102270004B6B1DD0C3F3CC0300F00100584302F0B8
:102280000302022A00EE100AB8EE400A12D0A2B9E8
:102290000868800614D49FED261A1EE043F2006001
:1022A000C0F26E10704740F60010C0F23D0070475B
:1022B000002070479FED1D1A0FE09FED1B1A0CE0E8
:1022C000086849F20002C0F2D032C0F3C10022FA1D
:1022D00000F001EE100AB8EE411A086B9FED153AB6
:1022E0006FF35F2002EE100A086BC0F34620B8EED1
:1022F000422A013000EE032A00EE10CAB7EE003A7F
:10230000B8EE400A81EE000A32EE031A20EE010A0E
:1023100001EE100AB8EE411A80EE010ABCEEC00AC6
:1023200010EE100A704700BF0024744A001BB74B20
:102330000024744C000000392DE9F04381B0F8B15D
:102340008046007844F20049C007C5F602095CD017
:10235000D9F8100000F03801D9F82800102905D06C
:1023600018290FD100F0030002280BD1D9F8000082
:10237000800346D5D8F80400002842D1012731E077
:102380000127E2E2D8F804502DB1B5F5A02F0DD009
:10239000B5F5803F10D0D9F8000020F48030C9F89E
:1023A0000000D9F8000020F4802009E0D9F80000EE
:1023B00040F48020C9F80000D9F8000040F48030D3
:1023C000C9F80000FFF730F8002D054615D000BF12
:1023D000D9F80000800314D4FFF726F8401B6428C6
:1023E000F6D903270020002800F0AF820DE000BFDF
:1023F000FFF71AF8401B6428F3D8D9F800008003CF
:10240000F6D40120002800F0A08298F80000800790
:102410006AD5D9F8100010F03801D9F828001DD07D
:10242000182908BF5FEA807018D0D8F80C00D9F8D6
:102430000010002840D021F019010843C9F800001D
:10244000FEF7F2FF054600BFD9F80000400727D489
:10245000FEF7EAFF401B0228F6D91EE0D9F800007B
:10246000400704D5D8F80C00002800F05E81D9F8A8
:102470000000D8F80C1020F019000843C9F800003B
:10248000FEF7D2FF054600BFD9F80000400707D489
:10249000FEF7CAFF401B0228F6D90327002420E0DC
:1024A000D9F80400D8F8101020F0FE40012440EACA
:1024B0000160C9F8040014E021F00100C9F800002F
:1024C000FEF7B2FF05460126D9F8000010F004001F
:1024D00086EA900405D0FEF7A7FF401B0328F3D33C
:1024E0000327002C00F0318298F80000C00656D572
:1024F000D9F8100000F03801D9F82800082905D0D3
:10250000182917D100F00300012813D1D9F80000D1
:10251000C00503D5D8F81C0080283BD1D9F80C00A1
:10252000D8F8201020F07C50012440EA0160C9F85E
:102530000C0031E0D8F81C000028D9F8000012D0B7
:1025400040F08000C9F80000FEF76EFF054600BFAE
:10255000D9F80000C005E1D4FEF766FF401B022851
:10256000F6D9032717E020F08000C9F80000FEF735
:102570005BFF0546012600BFD9F8000010F480700B
:1025800086EA102408D0FEF74FFF401B0328F3D340
:10259000032701E001270024002C00F0D68198F8E1
:1025A000000000071CD498F80000800631D498F889
:1025B0000000400745D4D8F82440002C00F091805A
:1025C000D9F8100000F03800182840F08C80012C59
:1025D000D9F82810D9F8300040F0A9800127B4E1DB
:1025E000D8F814000028D9F874003ED040F001005B
:1025F000C9F87400FEF718FF054600BFD9F874004B
:102600008007D0D4FEF710FF401B0228F6D903271D
:102610009BE1D8F818000028D9F800004DD040F40C
:102620008050C9F80000FEF7FFFE0546D9F800000B
:102630008004BCD4FEF7F8FE401B0228F6D903271D
:1026400083E1D9F8000440F48070C9F80004FEF773
:10265000EBFE0546D9F80004C0051AD4FEF7E4FEE7
:10266000401B6428F6D903276FE120F00100C9F868
:102670007400FEF7D9FE0546032700BFD9F87400A1
:1026800080077FF590AFFEF7CFFE401B0228F5D9FB
:102690005BE1D8F808502DB1052D00F08280012DA6
:1026A00000F08580D9F8700020F00100C9F87000B2
:1026B000D9F8700020F004007DE020F48050C9F8C3
:1026C0000000FEF7B1FE0546032700BFD9F8000061
:1026D00080047FF56CAFFEF7A7FE401B0228F5D9FA
:1026E00033E1002731E1D9F8000020F08070C9F80B
:1026F0000000FEF799FE022C05464FF0030709D1B2
:10270000D9F80000800178D5FEF78EFE401B022824
:10271000F6D91AE1D9F80000800140F1E780FEF710
:1027200083FE401B0228F5D90FE10127B6E601F030
:102730000302D8F828309A4240F0DA80C1F305113C
:10274000D8F82C20914240F0D7800146D8F83020AC
:102750006FF35F21013A914240F0D080C0F34622EE
:10276000D8F8341001398A4240F0CA80C0F30642DA
:10277000D8F8381001398A4240F0C480C0F30660AE
:10278000D8F83C100139884240F0BE80D9F83400B6
:10279000D8F84810C0F3CC00814240F0B780002741
:1027A000D3E0D9F8700040F00400C9F87000D9F8FF
:1027B000700040F00100C9F87000FEF735FE002DF2
:1027C000054641F288344FF0030711D0D9F8700064
:1027D00080073FF5F0AEFEF727FE401BA042F5D97B
:1027E000B3E000BFFEF720FE401BA04200F2AD8028
:1027F000D9F870008007F5D4DDE608F12807D9F88C
:10280000280040F2F33188438ECF0843591E40EA36
:1028100002104FF47E426FF35F21C9F8280002EBEB
:1028200047204FF4FE0280B2D8F83C300844D8F874
:10283000381002EB01414FF0FE4201F4FE0102EBC1
:102840000362084402F0FE410844C9F83000D9F898
:102850002C004FF6F87120F00100C9F82C00D9F8CF
:102860003400D8F84820884340EAC200C9F8340050
:10287000D9F82C00D8F8401020F00C000843C9F813
:102880002C00D9F82C00D8F8441020F0020008439E
:10289000C9F82C00D9F82C0040F48030C9F82C007D
:1028A000D9F82C0040F40030C9F82C00D9F82C00DD
:1028B00040F48020C9F82C00D9F82C0040F0010029
:1028C000C9F82C00D9F8000040F08070C9F8000069
:1028D000FEF7AAFD04460327D9F80000800109D4B9
:1028E000FEF7A2FD001B0228F6D92EE000272CE0FF
:1028F00001272AE0002728E0012726E0012724E01D
:10290000012722E0012720E001271EE0D9F82C0052
:1029100020F00100C9F82C00FEF786FD0546FEF701
:1029200083FDA842FBD0D9F834004FF6F871D8F8EF
:1029300048208843002740EAC200C9F83400D9F88B
:102940002C0040F00100C9F82C00F8B201B0BDE83D
:10295000F08300000000000080B500F0B1FB80BDF6
:10296000B0B590F83C20012A4FF0020266D0012356
:1029700080F83C3080F83D2040F2004C0268C4F200
:10298000010C42F4806363455368D2F808E002BF4B
:1029900023F470034C6823434DF6FF740D68C4F2B2
:1029A000000423F07003A24243EA0503536014DCE1
:1029B00040F2FF73C4F200039A4222DD40F60003A6
:1029C000C4F200039A422ED040F60043C4F2000342
:1029D0009A4228D041F6000321E04FF6FF73C4F27B
:1029E00000039A4213DD0023C4F201039A421AD075
:1029F00044F20003C4F201039A4214D0624512D09B
:102A000016E0B2F1804F0ED040F2004307E04EF2E4
:102A10000003C4F200039A4205D04EF20043C4F210
:102A200000039A4204D12EF0800389681943916013
:102A30000022012180F83D1080F83C201046B0BDF6
:102A400060B310B5044690F83D0028B9002084F822
:102A50003C00204600F024F8022084F83D00206865
:102A6000211D00F009FC012084F8480084F83E0094
:102A700084F83F0084F8400084F8410084F8420064
:102A800084F8430084F8440084F8450084F8460044
:102A900084F8470084F83D00002010BD01207047F5
:102AA00081B041F200010068C4F20001884201D007
:102AB00001B0704744F2E840C5F60200016841F0F9
:102AC00010010160006800F010000090009801B053
:102AD0007047000000000000FEE70000000000005A
:102AE00010B584B00024CDE90244CDE90044FEF7DE
:102AF00043FD0120ADF8000048F21F70029040F243
:102B00000110039068460194FEF706FD0420FEF7CD
:102B100043FD04B010BD000080B540F264204DF2CA
:102B20000041C2F20040052200F12007C4F200017A
:102B300001600021C0E902114FF0010EA0F810E081
:102B400081740423C0E9053E4FF0130CC0F81CC08B
:102B500087E80C40C0E90BC2C0E90D12C0E90F13B1
:102B60000822C0E91121C0E91321C0E91531C0E9EB
:102B70001712C0E91912FEF797F908B1FDF79CFC8E
:102B800040F26420C2F20040FDF7A6FD80BD0000C7
:102B900070B586B044F2E0400025C5F60200059508
:102BA000CDE90355CDE90155016840F6000441F037
:102BB000040101600168C5F6020401F004010091FE
:102BC0000099016841F0800101600168002201F074
:102BD000800100910099016841F0080101600168DD
:102BE0004FF4604601F0080100910099016841F03E
:102BF0000101016000684FF4604100F001000090A5
:102C000000982046FEF708FC012001A9CDE9020545
:102C1000204601960495FEF72FFB06B070BD00001C
:102C200010B584B040F2043041F20001C2F200401D
:102C300000240394C4F20001CDE90144016040F294
:102C4000CF71C0E90114EF21C1608461FFF7F8FE84
:102C500008B1FDF731FC40F2043001A9C2F2004096
:102C600001940394FFF77CFE08B1FDF725FC04B046
:102C700010BD000000000000FEE7000000000000A2
:102C8000FEE700000000000000F007004FF0FF3CEE
:102C900080F00703042B28BF0423033838BF00202B
:102CA0000CFA03F399430CFA00F301FA00F022EA5C
:102CB0000301084370470000704700000000000057
:102CC000F0B581B044F22C47C5F6020757F8042C42
:102CD00002F00302032A02D1012001B0F0BD054633
:102CE00057F82C0C0C4620F0806047F82C0CFEF7AF
:102CF0009BFB064657F82C0C000105D5FEF794FB0C
:102D0000801B0228F6D964E057F8040CEE6895E8B9
:102D10000E0020F47C30012C40EA0130A2F10101C8
:102D20006FF35F214FF47E4202EB432247F8040C1D
:102D300092B24FF0FE4302EB01004FF4FE012A690C
:102D400001EB064101F4FE0103EB0262084402F0CC
:102D5000FE410844F8603868696920F0C00040EA24
:102D6000010038603868A96920F0200040EA0100BD
:102D7000386038684FF6F87120F010003860386914
:102D8000EA6920EA01004FF4001140EAC20038610C
:102D9000386808BF4FF4801140F01000002C3860F4
:102DA00008BF4FF4002138680843386057F82C0CEE
:102DB00040F0806047F82C0CFEF736FB044600BF5D
:102DC00057F82C0C000107D4FEF72EFB001B03283C
:102DD000F6D3032001B0F0BD002001B0F0BD00002B
:102DE000F0B581B044F22C47C5F6020757F8042C21
:102DF00002F00302032A02D1012001B0F0BD054612
:102E000057F82C0C0C4620F0805047F82C0CFEF79D
:102E10000BFB064657F82C0C800005D5FEF704FB8B
:102E2000801B0228F6D964E057F8040CEE6895E898
:102E30000E0020F07C70012C40EA0150A2F101014B
:102E40006FF35F214FF47E4202EB432247F8040CFC
:102E500092B24FF0FE4302EB01004FF4FE012A69EB
:102E600001EB064101F4FE0103EB0262084402F0AB
:102E7000FE41084478613868696920F4406040EA9E
:102E8000010038603868A96920F4007040EA010048
:102E9000386038684FF6F87120F480703860B8698F
:102EA000EA6920EA01004FF0807140EAC200B8618F
:102EB000386808BF4FF4000140F48070002C38607F
:102EC00008BF4FF4800138680843386057F82C0C6D
:102ED00040F0805047F82C0CFEF7A6FA044600BFDD
:102EE00057F82C0C800007D4FEF79EFA001B03282D
:102EF000F6D3032001B0F0BD002001B0F0BD00000A
:102F000080B5014640F25830C2F2004000F0F4FBB8
:102F100080BD00000000000080B50220FFF7F0FF38
:102F200080BD000000000000B0B500B3044640F2D0
:102F30007000C2F200400078012818BFB0BD40F216
:102F400064250121C2F2004594EC050A284600F0F0
:102F50004FFD04F11400022190EC050A284600F010
:102F600047FD04F1280090EC050A00F001FBB0BD1C
:102F7000F0B581B040F2642440F230270025C2F25F
:102F800000440126C2F200470121204600F0CCFC9B
:102F90000220FDF715FC0221204600F0C5FC0220AE
:102FA000FDF70EFC00F04CFA05203E70FDF708FC22
:102FB000022D05F10105E7D340F270000121C2F2B4
:102FC0000040017001B0F0BD10B550B10C4641B1E8
:102FD00040F25021C2F200418A6801328A604168A1
:102FE00001B110BD016802290ADC012916D00229AD
:102FF000F7D1C26840F27400C2F20040383012E0EB
:10300000032901D0FD29ECD1C06800F025FC082877
:1030100038BF10BD204600F01BFB10BDC26840F257
:103020007400C2F20040214600F08EFC10BD00008A
:1030300010B540F274044FF4DC71C2F20044204633
:10304000FDF7BAF940F230210020C2F2004140F20F
:103050004022C2F20042087040F23121C2F2004127
:10306000087040F23421C2F20041086040F22C2185
:10307000C2F20041086040F23821C2F2004108600B
:1030800040F23C21C2F20041086040F24821C2F205
:103090000041086040F24C21C2F2004108704FF03C
:1030A000FF3100BF5318013107295870FAD10020B1
:1030B0002080208710BD0000704700000000000045
:1030C000B0B501380024B4EB106F01D00120B0BDC1
:1030D0004EF210050F21CEF2000568604FF0FF3070
:1030E00000F08AFBAC60072028602046B0BD0000DD
:1030F00080B5FEF7A1F980BDB0B59CB044F61804C8
:1031000009A84C21C5F60204FDF756F90220002556
:10311000CDE90755CDE90555CDE90355CDE9015573
:10312000FEF772FA0095206820F440402060206885
:1031300000F440400090009820688004FCD50120F5
:10314000099028224FF48031CDE915200C201990E8
:1031500009A80A9102211491CDE91211CDE91711A4
:103160000024CDE91A44FFF7E7F8A8B93F20019001
:1031700003204FF48061CDE9020408200490402030
:10318000CDE90500CDE9071001A80321FEF724FFD2
:10319000002804BF1CB0B0BDFDF78EF90000000090
:1031A0004EF6885042F2000CCEF20000C5F2002C20
:1031B000026842F470020260DCF8000000F00F00C8
:1031C000062806D8DCF80000072262F30300CCF8DA
:1031D000000044F200404EF67F51C5F60200CEF6E4
:1031E000F621026842F001020260002202610368D7
:1031F00019400160DCF80010090706D5DCF8001062
:10320000072363F30301CCF8001040F20021826130
:10321000C261C0F20221026281620021C0F2FF118C
:10322000C16240F28021C0F20111016342638163F7
:10323000C26301644264016821F480210160026676
:10324000D0F8D410C90448BF7047D0F8D41043F266
:10325000D20241F48051C0F8D41044F20001C5F20A
:1032600000210A60D0F8D41021F48051C0F8D410A5
:10327000704700000000000010B540F6FF32D0F8A3
:1032800000E0C4F2000290420FDCB0F1804F1DD08C
:1032900040F20043C4F20003984217D040F6000306
:1032A000C4F20003984211D015E040F60043C4F286
:1032B000000398420AD040F20043C4F2010398424E
:1032C00004D00023C4F20103984204D12EF070020E
:1032D0004B6843EA020E4EF2FF3343F6FF7CC4F222
:1032E0000003C4F2010C98420FDD604522DC4EF26F
:1032F0000043C4F20003984238D00023C4F2010313
:10330000984233D040F2004322E040F2FF73C4F20F
:103310000003984221DD40F60003C4F20003984206
:1033200024D040F60043C4F2000398421ED04EF26F
:10333000000317E044F20003C4F20103984215D0E1
:1033400044F60003C4F2010398420FD044F2004354
:10335000C4F20103984209D00DE0B0F1804F05D0CE
:1033600040F20043C4F20003984204D12EF44072AC
:10337000CB6843EA020E4B6960450A688C68C462F8
:1033800082620EDD44F20002C4F20102904213D0C8
:1033900044F60002C4F2010290420DD044F2004211
:1033A00006E00022C4F20102904205D040F2004241
:1033B000C4F20102904201D109690163016841F040
:1033C00004010160012141612EF080011943016077
:1033D00010BD000000000000FEE70000000000003B
:1033E00080B500F02DFA80BD082828BF082070475E
:1033F00080B5024640F24820C2F2004040F2402C24
:103400000321C2F2004C01604FF0FF3013180CEBA7
:10341000000101305B7807284B70F7D140F264203F
:103420000321C2F20040082300F03AFA40F24C2196
:10343000C2F200410870087880BD00000000000062
:1034400080B582B06FF0407001904FF0FF30009077
:103450006846FFF7CDFF02B080BD0000000000000D
:10346000B4EE600AF1EE10FA1CDD4FF0FF31B4EE5D
:10347000410A01FA00F0F1EE10FA6FEA00000FDAEB
:1034800002EE100A30EE600A31EE601AB8EE422AFF
:1034900020EE020A80EE010ABCEEC00A10EE100A0D
:1034A00080B27047002080B270470000000000002A
:1034B00002EE100A30EEC01A4FF0FF308840B8EE2E
:1034C000422AC04321EE021A02EE100AB8EE422A46
:1034D00081EE021A31EE000A704700000000000081
:1034E00070B594B00BAD0C46064624212846FCF777
:1034F00063FFB168B1F1804F01F14041B1FA81F150
:10350000306908BF0436490932680B9289070C916B
:1035100000260D96FFF768FFCDE90E06CDE910668F
:10352000CDE9126640F264262946C2F200462246E0
:103530003046FDF795F940F250240028C2F20044CD
:10354000204618BF04300168013101603046FDF7A4
:1035500027FAE06069463046FDF726FA08B114B054
:1035600070BD009802992074617414B070BD0000A1
:10357000F0B581B02DED088B82B000200190B0EE47
:1035800041AAB0EE60BA0090DFED2A0A9FED2A1A38
:103590001020B0EE428AB0EE619AFFF761FFB0EE04
:1035A0004B0A0446DFED250A0C209FED251AFFF794
:1035B00057FF9FED24BAB0EE4A0AF0EE4B0A0546DB
:1035C0009FED211A0C20FFF74BFFB1EE041AB0EE6D
:1035D000490AF0EE4B0A06460C20FFF741FFF9EED0
:1035E000080AB1EE081AB0EE480A07460C20FFF7A9
:1035F00037FF210A8DF8001029098DF802102901E2
:103600008DF8070041EA16218DF8031039098DF86D
:10361000051039018DF8014041EA102168468DF806
:1036200004608DF80610FFF7E3FE02B0BDEC088BD6
:1036300001B0F0BDB81E49C1B81E4941000048C2E2
:1036400000004842000000000000FA4300000000B3
:10365000B0B50178032918BFB0BDB0F801100379E7
:10366000C278447940F23120012509BAC2F2004003
:103670009FED1C0A0570080C110103F00F0241EACE
:10368000131540F23421C2F2004144EA0224DFED76
:10369000160A0A6801320A601021FFF709FF40F29A
:1036A0002C20DFED130AC2F200400C2180ED000A4D
:1036B0009FED0E0A2846FFF7FBFE40F23820F1EEA0
:1036C000080AC2F200400C2180ED000AB9EE080A97
:1036D0002046FFF7EDFE40F23C20C2F2004080EDB4
:1036E000000AB0BDB81E49C1B81E4941000048C219
:1036F000000048420000000080B588B04FF08043D1
:103700000393038A002200780792069240EA03207E
:103710008DF81E1000F1C850029040F2012006A959
:10372000C0F20340069040F20560ADF81C0001A80D
:103730000492082205928DF81F20FFF7D1FE08B0F1
:1037400080BD00000000000070B50D4643F64051FA
:1037500006466430C0F60001144600F00DF8FD2066
:1037600030820020B06186F846003046357086F819
:10377000454070BD000000000A8802804A8802812E
:103780008A880282CA8802830A8902844A89028559
:103790008A890286CA8902870A8AA0F840204A8A52
:1037A000A0F848208A8AA0F85020CA8AA0F8582099
:1037B0000A8BA0F860204A8BA0F86820898BA0F8BB
:1037C0007010704700000000002848BF704700F0EC
:1037D0001F01012202FA01F14EF200124009CEF25D
:1037E000000242F8201070474EF60C50CEF2000056
:1037F0000068C0F3022070474EF6145300F00F0229
:10380000CEF20003B0F1FF3F1A4400F16043C8BF9D
:1038100003F56442080110707047000000000000CA
:103820004EF60C514FF6FF03CEF200010A681A4023
:1038300060F30A2242F0806040F0FD70086070473B
:1038400080B540F258300321C2F200400122FFF758
:103850007BFF80BD0000000008280AD80146002038
:10386000DFE801F00805090B0D0F11131500012009
:1038700070470820704702207047032070470420DB
:1038800070470520704706207047072070470820C2
:103890007047000000000000082828BF082070477B
:1038A00070B594B0044618460B9100260C96154648
:1038B0000D96FFF7F1FFCDE90E060BA920462A462B
:1038C000CDE91066CDE91266FCF7CAFF40F250253B
:1038D000C2F2004590B16868013068602046FDF78B
:1038E0005FF8E86069462046FDF75EF818B9009871
:1038F000029928746974012014B070BD28680130E1
:1039000028602046FDF74CF8E86069462046FDF740
:103910004BF818B90098029928746974002014B003
:1039200070BD00000000000080B582B06FF04072F2
:1039300001924FF0FF3200926A460823FFF7B0FF72
:1039400002B080BD00000000082A18BF7047F0B523
:1039500081B0044608780D46BAEE090A00F00F005F
:10396000A0800878F2EE090A0009E080B1F80100B1
:10397000000400BAA060C9782A79090141EA121747
:10398000E76029796A7901F00F0142EA01261021E6
:10399000266100F085F984ED070A9FED130ADFED3B
:1039A000130A0C21384600F07BF984ED080ABBEEBF
:1039B000040AF3EE040A0C21304600F071F984ED9C
:1039C000090AA87900EE100AB8EE400A84ED0C0A44
:1039D000E87900EE100AB8EE400A84ED0D0A01B055
:1039E000BDE8F040704700BF000034C20000344220
:1039F0002DE9F04381B02DED088B82B0B0EE41AAE5
:103A0000B0EE60BAFAEE090AB2EE091A8146102049
:103A1000B0EE428AB0EE619A884600F059F8B0EEF6
:103A20004B0A0646DFED250A0C209FED251A00F013
:103A30004FF89FED24BAB0EE4A0AF0EE4B0A074663
:103A40009FED211A0C2000F043F8B1EE041AB0EEFD
:103A5000490AF0EE4B0A04460C2000F039F8FBEE60
:103A6000040AB3EE041AB0EE480A05460C2000F032
:103A70002FF8310A8DF8001039098DF80210210A4B
:103A80008DF8070041EA07118DF8031029098DF818
:103A90000510010A6A4641EA05118DF8061008234F
:103AA000484641468DF801608DF80440FFF7F8FE66
:103AB00002B0BDEC088B01B0BDE8F083000034C259
:103AC00000003442000000000000FA430000000043
:103AD00031EE602AB4EE600AF1EE10FA02DA9FEDE0
:103AE0000F0A09E0B4EE410AF1EE10FA02DDB0EE81
:103AF000420A01E030EE600A4FF0FF3101FA00F0B7
:103B0000C04301EE100AB8EEC11A20EE010A80EEA1
:103B1000020ABCEEC00A10EE100A70470000000056
:103B200080B5032836D8DFE800F00207122440F2FF
:103B300064209FED220A03E040F264209FED1D0AFD
:103B4000C2F20040F6EE000A9FED1B1A09E040F2B7
:103B500064209FED160AC2F20040DFED100A9FEDCF
:103B6000141ADFED101A01219FED0F2AFFF740FF15
:103B700080BD40F264209FED080AC2F20040DFEDF4
:103B8000070A9FED071A0121DFED061A9FED062AAD
:103B9000FFF72EFF80BD00BF713DB6C0CDCCCC3D40
:103BA0006666E63F9A99993E00000000B81E05C07F
:103BB00033337340B81E853F3333334000000080F9
:103BC00090B0FEF78DFFFDF747FCFFF795FAFEF783
:103BD000DFFFFEF7A1FFFFF723F840F600044FF4E4
:103BE0000051C5F6020401222046FDF715FC4FF4F2
:103BF000804101222046FDF70FFC4FF400410122D5
:103C00002046FDF709FCFFF713FA4FF4FA70FCF7B2
:103C1000D7FDFFF781F96420FCF7D2FDFFF7A8F983
:103C20003220FCF7CDFDFDF7FFFB40F2503640F2AD
:103C300000094CF6CD4B49F69A18C2F2004601AC89
:103C40000027C4F240094FF07C5AC3F64C7BC3F600
:103C5000996800BFFDF7E8FB3168401A6428F9D382
:103C6000FDF7E2FB05463C212046FCF7A5FB0220C0
:103C70003560FFF755FF40F271002821C2F2004085
:103C800007702046FCF798FB0BA8CDE90E8780E86B
:103C9000000E2046FFF748F9DCE7000000000000B6
:103CA00002EE100A30EEC01A4FF0FF308840B8EE36
:103CB000C22AC04321EE021A02EE100AB8EEC22A4E
:103CC00081EE021A31EE000A7047F1EE100A4FF64B
:103CD000FF71C0F2C03120EA010040F04070E1EE17
:103CE000100A704700000000000000000000000003
:103CF00000000000000000000100000002000000C1
:103D000003000000040000000000000005000000A7
:103D1000000000000000000000000000060000009D
:103D2000000000000000000000000000070000008C
:103D30000000000001020304010203040607080951
:103D4000057006700A700B70107011701470167088
:103D50001770187019701A701B701C701D7000019C
:103D6000020304050607080C101418203040000058
:103D7000983D00080000002410000000080300081F
:103D8000A83D000810000024300A000024030008A9
:103D900051F6FFFF000000000090D0030090D00318
:083DA00001000000100000000A
:04000005080002CD20
:00000001FF
