:020000040800F2
:10000000687E0120FD030008F13301080113010897
:10001000E93301087117000819CC0108000000003D
:100020000000000000000000000000000163010863
:10003000A12B000800000000613C01086164010878
:100040001704000817040008170400081704000824
:100050001704000817040008170400081704000814
:10006000170400081704000817040008E91C00081A
:10007000F91C0008091D0008191D0008291D0008A9
:10008000391D0008491D000817040008292C000824
:10009000912C0008392C0008A12C00081704000836
:1000A00017040008170400081704000817040008C4
:1000B000C1660108170400081704000817040008A7
:1000C00017040008170400081704000817040008A4
:1000D00011610108C1800108D1800108E180010897
:1000E00017040008170400080000000017040008A7
:1000F000170400081704000817040008591D000819
:100100001704000817040008170400081704000863
:1001100017040008916F010817040008170400086D
:10012000691D0008791D0008891D0008991D000837
:10013000A91D000817040008170400081704000888
:1001400000000000000000000000000000000000AF
:10015000B91D0008C91D000817040008170400088D
:100160001704000817040008170400081704000803
:100170001704000869340108170400080000000093
:100180001704000817040008A16F010817040008ED
:1001900017040008170400081704000817040008D3
:1001A00017040008170400081704000800000000E6
:1001B00017040008170400081704000817040008B3
:1001C00017040008170400080000000000000000E9
:1001D00000000000000000001704000800000000FC
:1001E000000000000000000000000000000000000F
:1001F00000000000000000001704000817040008B9
:100200001704000817040008000000001704000885
:100210001704000817040008170400081704000852
:100220001704000800000000170400080000000088
:100230001704000817040008000000001704000855
:1002400017040008A90E0008170400081704000886
:100250001704000817040008170400081704000812
:100260001704000817040008170400081704000802
:100270001704000817040008170400080000000015
:1002800017040008170400081704000817040008E2
:100290000000000017040008170400080000000018
:1002A00000000000170400081704000817040008E5
:1002B000B18001081704000817040008F92C000891
:1002C000092D0008170400081704000800F002F8C0
:1002D00000F084F814A696E8000CB244B344DA4562
:1002E00001D100F07BF8BAE80F000FA696E83000C5
:1002F000A5EB040504EB0607AAEB0704A7F1010729
:100300004FEA15154FEA3414A4F10104AC4201D3AD
:1003100000F064F813F0010F18BFFB1A43F001035B
:1003200000F001F8DBE7184740FF010070FF010013
:100330000A444FF0000C10F8013B13F0070408BF0B
:1003400010F8014B1D1108BF10F8015B641E05D0A9
:1003500010F8016B641E01F8016BF9D113F0080F5E
:100360001EBF10F8014BAD1C0C1B09D16D1E58BFF0
:1003700001F801CBFAD505E014F8016B01F8016B27
:100380006D1EF9D59142D6D370470000103A24BFB4
:1003900078C878C1FAD8520724BF30C830C144BFEA
:1003A00004680C60704700007047000000230024C0
:1003B00000250026103A28BF78C1FBD8520728BF75
:1003C00030C148BF0B6070471FB51FF08EFC9DE821
:1003D000030000F0CBF91FBD10B510BD00F058FAB6
:1003E0001146FFF7F1FF1DF077FC00F076FA03B439
:1003F000FFF7F2FF03BC00F0A7FA000009488047AE
:1004000009480047FEE7FEE7FEE7FEE7FEE7FEE7F6
:10041000FEE7FEE7FEE7FEE704480549054A064B0E
:100420007047000081650108CD020008681E0120A8
:10043000687E0120683E0120683E012070B50646B6
:1004400000F078F9056806F10B0020F00704B442CB
:100450009CBF002070BD2B466A68BAB11068A042EC
:1004600010D304F1080188423CBF5068586007D39C
:100470005168101941601168091B016058601460CF
:10048000101D70BD13465268002AE7D12146284648
:1004900000F058F90028DED170BD53EA020C00F0DC
:1004A00069802DE9F04B4FF00006002B1FBFB3FA17
:1004B00083F503FA05F424FA05F65E4012BF1643ED
:1004C000B2FA82F502FA05F4C5F120051EBF22FA40
:1004D00005FC44EA0C04203556EA044C4FEA144467
:1004E00018BF641C4FF000084FF00009904271EBF8
:1004F000030C39D3002919BFB1FA81F701FA07F6C5
:10050000B0FA80F700FA07F6C7F120071EBF20FAFD
:1005100007FC46EA0C062037B6FBF4FCA7EB050700
:10052000103F07F01F0BCBF120062CFA06F60CFA51
:100530000BFB44BFB3460026202FA4BF5E464FF0FE
:10054000000B5BEA060C08BF4FF0010B19EB0B091F
:1005500048EB0608ABFB027C06FB02CC0BFB03CC92
:10056000C01B71EB0C01C1E70B46024641464846F1
:10057000BDE8F08B13B5084318BF4FF0FF300146BC
:10058000AFF30080BDE81C40704740EA010310B59E
:100590009B070FD1042A0DD310C808C9121F9C4213
:1005A000F8D020BA19BA884201D9012010BD4FF005
:1005B000FF3010BD1AB1D30703D0521C07E0002052
:1005C00010BD10F8013B11F8014B1B1B07D110F8AF
:1005D000013B11F8014B1B1B01D1921EF1D11846B2
:1005E00010BD032A40F2308010F0030C00F015809B
:1005F00011F8013BBCF1020F624498BF11F801CB26
:1006000000F8013B38BF11F8013BA2F1040298BF8A
:1006100000F801CB38BF00F8013B11F0030300F0F4
:100620002580083AC0F0088051F8043B083A51F898
:1006300004CBA0E80810F5E7121D5CBF51F8043B9D
:1006400040F8043BAFF30080D20724BF11F8013B10
:1006500011F801CB48BF11F8012B24BF00F8013B72
:1006600000F801CB48BF00F8012B704710B5203AC5
:10067000C0F00B80B1E81850A0E81850B1E818504D
:10068000A0E81850203ABFF4F5AF5FEA027C24BF1F
:10069000B1E81850A0E8185044BF18C918C0BDE808
:1006A00010405FEA827C24BF51F8043B40F8043BD1
:1006B00008BF7047D20728BF31F8023B48BF11F886
:1006C000012B28BF20F8023B48BF00F8012B7047E0
:1006D00002F0FF0343EA032242EA024200F002B8BA
:1006E0004FF0000200B5134694469646203922BFCB
:1006F000A0E80C50A0E80C50B1F12001BFF4F7AF16
:10070000090728BFA0E80C5048BF0CC05DF804EBF7
:10071000890028BF40F8042B08BF704748BF20F865
:10072000022B11F0804F18BF00F8012B7047704763
:100730007047704700487047780400207047704742
:100740007047704738B504460A4600206946AFF343
:100750000080002808BF38BD02460099204600F0FE
:1007600075F8012038BD012000F08AB8F8B5AFF364
:100770000080054600200C460C2000BF0646A81944
:10078000A0420DD9324669460020AFF30080070031
:1007900008BF00F075F80098A04218BF0546C419BC
:1007A000FFF7C8FF05600746F01D20F00700461957
:1007B000284600F00AF8B44208BFF8BDA21B314633
:1007C0003868BDE8F84000F041B8002101604160A0
:1007D00070470C20704770B50446051FFFF7AAFF4D
:1007E0000068002C14BF446870BD002C18BFAC42D8
:1007F0003CBF20466468F8D301680A18AA4218BFB3
:10080000456003D12A6805461144016028684119F2
:10081000A1421CBF6C6070BD6168696021680844BA
:10082000286070BD10B500F00DF8006810BD10B55F
:10083000044600F007F8046010BD0000004870474F
:100840007004002000487047700400200346406890
:100850008C46002818BF88423CBF03464068F8D346
:1008600018681844884207D00CF1030020F00700F4
:10087000001D411A521A0146081D0A60FFF7ABBF5E
:1008800010B500F039F8BDE8104000F02FB87047FF
:100890007546FFF7D3FFAE4605006946534620F084
:1008A0000700854618B020B5FFF7B6FDBDE820402B
:1008B0004FF000064FF000074FF000084FF0000B1C
:1008C000AC46ACE8C009ACE8C009ACE8C009ACE88B
:1008D000C00921F007018D46704710B50446AFF3FB
:1008E00000802046BDE81040FFF781BD002801D000
:1008F00000F02AB87047000010B5012805D000218B
:1009000003A000F027F8012010BD09A1F8E70000BE
:1009100053494752544D454D3A204F7574206F66E8
:100920002068656170206D656D6F72790000000050
:100930003A2048656170206D656D6F727920636F34
:10094000727275707465640001491820ABBEFEE7D1
:100950002600020070B505460C460A2000E06D1C1A
:1009600000F011F835B128780028F8D102E0641CB5
:1009700000F009F814B120780028F8D1BDE87040E3
:100980000A20AFF3008008B569468DF80000032007
:10099000ABBE08BD0000000080B584B00390039892
:1009A000006842F20001C4F20201884209D0FFE768
:1009B0000398006842F20011C4F20201884209D192
:1009C000FFE742F20830C4F20200006810F4403F32
:1009D00009D129E046F20830C5F60200006810F49B
:1009E000403F21D0FFE70CF087FD0290039840685C
:1009F0000190B0F5803F0AD0FFE70198B0F5003FC5
:100A000005D0FFE70198B0F5403F07D00AE0039812
:100A1000C1880298B0FBF1F0029004E002988008CF
:100A2000029000E0FFE75FE04FF4002000210AF0B1
:100A30006FFD0290039840680090B0F5802F32D08F
:100A4000FFE70098B0F5002F2DD0FFE70098B0F534
:100A5000402F28D0FFE70098B0F5801F23D0FFE794
:100A60000098B0F5A01F1ED0FFE70098B0F5C01F9A
:100A700019D0FFE70098B0F5E01F1FD0FFE70098FE
:100A8000B0F5001F1ED0FFE70098B0F5101F1DD075
:100A9000FFE70098B0F5201F1CD0FFE70098B0F5E5
:100AA000301F1BD01EE0039841686FF0010000EA80
:100AB00051410298B0FBF1F0029014E00298000955
:100AC000029010E00298400902900CE00298800920
:100AD000029008E00298C009029004E00298000A1F
:100AE000029000E0FFE7FFE70298400802900298BA
:100AF00045F61061C0F25F01884209D8FFE703980C
:100B00000068806820F440700399096888602EE0CE
:100B100002984BF62041C0F2BE0188420AD8FFE796
:100B2000039800688068012161F30920039909682E
:100B300088601BE0029847F64001C0F27D118842B0
:100B40000AD8FFE7039800688068022161F3092052
:100B500003990968886008E003980068806840F499
:100B60004070039909688860FFE7FFE7FFE704B07A
:100B700080BD00000000000080B582B001900198A7
:100B8000806B00900098006E10F0500F4AD1FFE784
:100B90000099086E40F400700866009800680068CC
:100BA0000007002821D5FFE70098006811F078FBC6
:100BB000D0B1FFE700980068C0688004002812D414
:100BC000FFE70099086E20F4807008660098006EB8
:100BD000C004002806D4FFE70099086E40F0010029
:100BE0000866FFE7FFE7FFE718E000980068C068C5
:100BF000800790B9FFE70099086E20F480700866BE
:100C00000098006EC004002806D4FFE70099086E23
:100C100040F001000866FFE7FFE7FFE7009803F0F8
:100C2000EBFA10E00098006EC006002804D5FFE73C
:100C3000009803F0E9FA05E00098806DC16C019816
:100C40008847FFE7FFE702B080BD0000000000001A
:100C500080B582B001900198806B00900099086E79
:100C600040F0400008660099486E40F00400486675
:100C7000009803F0C9FA02B080BD00000000000037
:100C800080B582B001900198806B0090009803F0CD
:100C9000B7FA02B080BD000080B584B0029002981F
:100CA000006811F0CDFA00900298006811F0D0FAB7
:100CB00000284BD0FFE70098002847D1FFE70298B3
:100CC0000068806800F00D00012809D1FFE7029854
:100CD000006811F035FA02980168032008600DE001
:100CE0000299086E40F0100008660299486E40F0C4
:100CF0000100486601208DF80F002BE008F060FC31
:100D00000190FFE7029800688068C007E8B1FFE73C
:100D100008F056FC0199401A032815D3FFE7029802
:100D200000688068C00770B1FFE70299086E40F064
:100D3000100008660299486E40F0010048660120E4
:100D40008DF80F0006E0FFE7DCE7FFE700208DF8F5
:100D50000F00FFE79DF80F0004B080BD0000000009
:100D600080B586B004900498006811F071FA0028EC
:100D700040F09280FFE70498006880683F21C8F245
:100D8000000108420ED0FFE70499086E40F0100001
:100D900008660499486E40F00100486601208DF80D
:100DA00017007DE00498006811F0E6F908F008FCEF
:100DB000039004980168012042F20002C4F202028A
:100DC000914201900CD0FFE7049800684DF6007145
:100DD000CBF6FD710844B0FA80F040090190FFE7BE
:100DE0000198C10746F20030C5F6020000291CBF79
:100DF00042F20030C4F2020011F0F2F902900498BD
:100E0000006842F20011C4F20201884206D1FFE7F5
:100E100042F20000C4F20200009003E0049800686F
:100E20000090FFE7009804990968884203D0FFE723
:100E3000029880BBFFE7FFE7049800680068C007DE
:100E400040BBFFE70498006811F002FA28B9FFE7F9
:100E50000498006811F090F9FFE708F0B1FB0399DE
:100E6000401A032815D3FFE7049800680068C007FC
:100E700070B9FFE70499086E40F010000866049905
:100E8000486E40F00100486601208DF8170007E029
:100E9000FFE7D1E7FFE7FFE700208DF81700FFE746
:100EA0009DF8170006B080BD80B54AF62060C2F2FA
:100EB000000004F029FE80BD80B540F60000C5F6B4
:100EC00002000122114608F063FB80BD0000000013
:100ED00080B540F60000C5F602000121002208F0AE
:100EE00057FB80BD0000000080B588B000208DF861
:100EF0001E00FFF7EDFF8020049000F0D9FA552086
:100F0000059000F0D5FA059800F0D2FA8DF81E0091
:100F1000FFF7D2FF9620069001F05AFEFFF7D8FFA8
:100F2000049800F0C5FA059800F0C2FA059800F0A0
:100F3000BFFA8DF81E00FFF7BFFF069801F048FECC
:100F4000FFF7C6FF7E20B62100F022FBFFF7B4FFBB
:100F5000502001F029FEFFF7BBFF049800F0A8FA2B
:100F6000059800F0A5FA059800F0A2FA8DF81E0089
:100F7000FFF7A2FF069801F02BFEFFF7A9FF0498E8
:100F800000F096FA059800F093FA059800F090FAB0
:100F90008DF81E00FFF790FF069801F019FE9DF8EE
:100FA0001E001E2804D0FFE7FF208DF81F005CE024
:100FB00000208DF81D00FFE79DF81D00052850DC7E
:100FC000FFE7FFF785FF9DF81D0000EB400240F2B0
:100FD0000000C2F2000003908118805C497800F0A4
:100FE000D7FAFFF769FF9620029001F0F1FDFFF7B5
:100FF0006FFF03989DF81D1001EB4101405C40F02C
:10100000800000F055FA5520019000F051FA019847
:1010100000F04EFA8DF81E00FFF74EFF029801F027
:10102000D7FD03999DF81E009DF81D2002EB42029A
:101030001144497888420DD0FFE79DF81D0000EB70
:10104000400140F20000C2F20000084480788DF8B0
:101050001F000AE0FFE79DF81D0001308DF81D001C
:10106000AAE700208DF81F00FFE79DF81F0008B0D9
:1010700080BD00000000000080B540F60000C5F60D
:1010800002000821012208F083FA80BD0000000060
:1010900080B540F60000C5F602000821002208F0E5
:1010A00077FA80BD0000000080B586B00020029075
:1010B0008DF81600FFF7ECFF02980DF11601039171
:1010C00000F0E2F9FFF7D8FF9620049001F080FDD0
:1010D000FFF7DEFF0298039900F0D6F9FFF7CCFF87
:1010E000049801F075FDFFF7D3FF1420B62100F03E
:1010F0004FFAFFF7C1FF502001F056FDFFF7C8FF80
:101100000298039900F0C0F9FFF7B6FF049801F0C8
:101110005FFDFFF7BDFF0298039900F0B5F9FFF7F7
:10112000ABFF049801F054FD9DF816000F2804D081
:10113000FFE7FF208DF8170053E000208DF8150021
:10114000FFE79DF81500052847DCFFE7FFF7A0FF44
:101150009DF8150000EB400240F2FC10C2F20000C6
:1011600001908118805C497800F012FAFFF784FF43
:101170009620009001F02CFDFFF78AFF01989DF862
:10118000151001EB4101405C0DF1160100F07CF9F6
:10119000FFF772FF009801F01BFD01999DF8160002
:1011A0009DF8152002EB42021144497888420DD087
:1011B000FFE79DF8150000EB400140F2FC10C2F281
:1011C0000000084480788DF817000AE0FFE79DF8DA
:1011D000150001308DF81500B3E700208DF81700D9
:1011E000FFE79DF8170006B080BD0000000000007A
:1011F00080B584B00390002002900190FFF768FE54
:10120000922000F055F9122001A90091062200F069
:1012100017F9FFF751FE9DF804009DF8051040EA0C
:101220000120039908849DF806009DF8071040EA04
:101230000120039948849DF808009DF8091040EAB0
:1012400001200399888440F21400C2F2000090ED5E
:10125000000A0399B1F9202001EE102AB8EEC11A54
:1012600020EE010A81ED010A90ED000A0399B1F91F
:10127000222001EE102AB8EEC11A20EE010A81EDFB
:10128000020A90ED000A0398B0F9241001EE101A3A
:10129000B8EEC11A20EE010A80ED030AFFF718FE2E
:1012A000A22000F005F900992220022200F0C8F8DF
:1012B000FFF702FE9DF804009DF80510C00040EA0B
:1012C0005110039988850398B0F92C00B0F5806F10
:1012D00006DBFFE70399888DA0F500608885FFE7AE
:1012E0000398B0F92C1000EE101AB8EEC01AB4EE44
:1012F000002AB3EE070AA1EE020A80ED070AFFF703
:10130000C7FE002001A9082200F09AF8FFF7B4FEFA
:101310009DF804000F2819D1FFE79DF806009DF8FD
:10132000071040EA01200399C8849DF808009DF841
:10133000091040EA0120039908859DF80A009DF8EC
:101340000B1040EA012003994885FFE740F218009E
:10135000C2F2000090ED001A0399B1F9262000EEC8
:10136000102AB8EEC02A91ED0C0A91EE020A81ED26
:10137000040A90ED001A0399B1F9282000EE102A12
:10138000B8EEC02A91ED0D0A91EE020A81ED050A30
:1013900090ED001A0398B0F92A1000EE101AB8EE7A
:1013A000C02A90ED0E0A91EE020A80ED060A04B002
:1013B00080BD00000000000080B582B000208DF8E4
:1013C0000700FFE7FFF790FD01469DF8070008437F
:1013D0008DF80700FFF768FE01469DF807000843F7
:1013E0008DF80700022001F0DFFBFFE79DF8070002
:1013F0000028E7D1FFE740F2D040C2F2000000F041
:1014000003F802B080BD000081B0009000994EF258
:10141000D150C3F67830086300994FF68F40CBF671
:1014200064304863009949F2B020C3F6C000886375
:1014300000990120087001B0704700000000000012
:1014400080B584B08DF80F0002918DF807209DF8CB
:101450000F0040F0800000F02BF8FFE79DF8070038
:1014600070B1FFE7552000F023F802990870029848
:10147000013002909DF8070001388DF80700EDE774
:1014800004B080BD0000000080B582B08DF8070078
:1014900000919DF8070040F0800000F009F8552009
:1014A00000F006F80099087002B080BD000000004E
:1014B00080B582B08DF8070000208DF806006946DF
:1014C000642008604BF6EC30C2F200000DF1070119
:1014D0000DF1060201230DF06FFB9DF8060002B02E
:1014E00080BD00000000000080B582B08DED010AD3
:1014F000DDED010A48F6D020C2F200009FED220A7D
:1015000012F096F9FFE748F6D020C2F2000090ED05
:101510000A0A90ED151AB4EE410AF1EE10FA07DD51
:10152000FFE748F6D021C2F20001486D88621BE057
:1015300048F6D020C2F2000090ED0A0A90ED151A8C
:10154000B1EE411AB4EE410AF1EE10FA0BDAFFE700
:1015500048F6D020C2F2000090ED150AB1EE400A24
:1015600080ED0A0AFFE7FFE7FFE748F6D020C2F266
:10157000000090ED0A0ABCEEC00A10EE100A0FF04F
:10158000C3FE02B080BD00BF00002042000000008A
:1015900080B582B08DF807008DF806109DF8070021
:1015A000FFF786FF9DF80600FFF782FF02B080BDBF
:1015B00080B582B04AF6C840C2F200000190002116
:1015C00040F2FF7201F088FE019840F28201C2F2FF
:1015D0000041022203F07CF902B080BD000000004F
:1015E00080B5A0B0002006901890199002210491B7
:1015F0001A91012105911B911C901D904BF22850CE
:10160000C2F20000029018A906F0A6FC049A069BFC
:10161000029869460B60114606F02AFD0599069A64
:10162000029806F0A9FB029807F072FD049906984B
:101630001090119012911391149015904BF2C85084
:10164000C2F20000039010A906F086FC049A069BE3
:10165000039869460B60114606F00AFD069A039846
:10166000102106F089FB039806F056FD03980E2220
:10167000114606F02DFD039807F04AFD049A0599DE
:101680000698089009900A920B910C900D904BF2DD
:101690006860C2F20000079008A906F05DFC049A99
:1016A000069B079869460B60114606F0E1FC059918
:1016B000069A079806F060FB079807F029FD20B00E
:1016C00080BD000000000000704700000000000026
:1016D00080B54BF6C040C2F200000C210EF064FA57
:1016E00080BD00000000000080B582B040F2E060E4
:1016F000C2F20000009009F05BFC00984068019085
:1017000041F20001C4F20101086820F00100086004
:1017100001984BF2C532C9F2A212A0FB0220C00C04
:1017200041F20C02C4F201021060086840F00100AE
:10173000086040F22401C2F2004101F127024BF699
:101740000C50C2F20000272316F0D2FC40F2000138
:10175000C2F2004101F112024BF65C70C2F20000CD
:10176000122316F0C5FC02B080BD0000000000008E
:10177000FFE7FEE70000000080B58AB00990002274
:101780000592089240F2CC10C2F20000069040F29E
:10179000BC01C2F20001049101F05AF91E20079029
:1017A0001CF052FB0499059A0698383101F050F963
:1017B00007981CF049FB0499059A0698703101F0CE
:1017C00047F907981CF040FB0499059A0698E03108
:1017D00001F03EF907981CF037FBFFE71CF068FBAF
:1017E000089040F2CC10C2F20000019040F2BC011F
:1017F000C2F2000100919FED2D2A8DED032AB0EE7B
:10180000420AF0EE420AB0EE421AF0EE421A01F03D
:1018100023F8009901989DED032A3831B0EE420A71
:10182000F0EE420AB0EE421AF0EE421A01F014F85D
:10183000009901989DED032A70310291B0EE420AA1
:10184000F0EE420AB0EE421AF0EE421A01F004F84D
:10185000019802999DED032AB0EE420AF0EE420A89
:10186000B0EE421AF0EE421A00F0F6FF40F270516C
:10187000C2F200014A7A40F29C10C2F2000080F8E5
:1018800028200A7A80F82920CA7A80F82A20897AC2
:1018900080F82B101AF024FB9DF82000C00708B92F
:1018A000FFE7FFE701201CF0CFFA97E700000000F8
:1018B00084B08DF80F000291ADF806209DF80F005E
:1018C0000146009123281DD80099DFE801F012138A
:1018D0001415161B1B1B1B1B1B1B1B1B1B1B1B1B6A
:1018E0001B1B1B1B1B1B1B1B1B1B1B1B1B1B17184F
:1018F000191A08E007E006E005E004E003E002E072
:1019000001E000E0FFE7002004B0704700000000A5
:10191000002070470000000080B582B04AF6EC104D
:10192000C2F20000009049F25871C2F20001002298
:10193000019217F091F9009848F65871C2F200012F
:1019400017F06AF9019802B080BD000000000000A5
:1019500080B584B00390029103994AF6EC10C2F26C
:101960000000019017F058F9019817F0F9F80020DD
:1019700004B080BD0000000083B0029001918DF89A
:10198000032000208DF802009DF9020003B070478B
:1019900080B582B00190019890ED000AD0ED010A67
:1019A00040F20C50C2F20000009011F041FF00988C
:1019B00090ED0A0ABDEEC00A10EE100A01990881E6
:1019C00002B080BD0000000080B582B0019040F2FE
:1019D0000C50C2F2000040F2A002C2F2000201214B
:1019E00012F0C6F802B080BD81B0009040F2200035
:1019F000C2F20000B0F9100000EE100AB8EEC00A02
:101A0000009880ED010A01B070470000000000005E
:101A100081B0009040F24E40C2F20000B0F90600E2
:101A200000EE100AB8EEC00AB1EE041A20EE010A68
:101A3000009880ED000A01B070470000000000002F
:101A400080B584B003900020029040F27050C2F242
:101A50000000FFF7B9FFFFE71CF02AFA029040F2FE
:101A60007050C2F200000190FFF7BEFF0198FFF72F
:101A7000CFFF0198FFF78CFF019890ED010A9FEDD1
:101A8000051AF0EE410A16F0F7FC01201CF0DCF913
:101A9000E2E700BF0000000080B584B003908DED48
:101AA000020AADF80610002000900398007800F0BC
:101AB0000100012820D0FFE70399C8880881039816
:101AC000B0F9061000EE101AB8EEC00ABDF8061004
:101AD00001EE101AB8EEC11A9DED022A21EE021A8B
:101AE00080EE010A9FED4D1A20EE010A80ED030AF7
:101AF000039901200870FFE70399B1F90600B1F9D5
:101B00000810401A00EE100AB8EEC00A8DED000A67
:101B10009DED000ABDF8060001EE100AB8EEC11AEC
:101B2000B6EE002A21EE021AB4EE410AF1EE10FAE6
:101B30001ADDFFE79DED000ABDF8060001EE100A70
:101B4000B8EEC11A30EE410A9DED022A21EE021ACA
:101B500080EE011A039890ED030A9FED302AA1EE62
:101B6000020A80ED030A45E09DED000ABDF806007B
:101B7000404201EE100AB8EEC11AB6EE002A21EE7C
:101B8000021AB4EE410AF1EE10FA1ADAFFE79DEDFF
:101B9000000ABDF8060001EE100AB8EEC11A30EED8
:101BA000010A9DED022A21EE021A80EE011A039825
:101BB00090ED030A9FED192AA1EE020A80ED030AB7
:101BC00017E09DED000ABDF8060001EE100AB8EE20
:101BD000C11A9DED022A21EE021A80EE011A039825
:101BE00090ED030A9FED0D2AA1EE020A80ED030A93
:101BF000FFE7FFE70399C8880881039890ED030A7F
:101C0000DFED070A9FED071A01F04EFA039880ED09
:101C1000030A039890ED030A04B080BD0000B443AA
:101C2000000034C30000344380B584B003900291B7
:101C300001920398006801998968884201D0FFE702
:101C40004BE00298807901990877029801784078F2
:101C500040EA01200199488202988178C07840EAE0
:101C600001200199088202980179407940EA012017
:101C70000199C881019800780146009140B1FFE7C1
:101C80000098012810D0FFE70098022818D023E020
:101C900001980C30B7EE000A4FF40051FFF7FCFE3C
:101CA000019880ED060A18E001980C309FED0D0AAE
:101CB0004FF40051FFF7F0FE019880ED060A0CE0AA
:101CC00001980C309FED060A4FF40051FFF7E4FE37
:101CD000019880ED060A00E0FFE704B080BD00BF78
:101CE000000010422CA0994180B54AF69860C2F2DB
:101CF000000003F009FF80BD80B54AF61070C2F203
:101D0000000003F001FF80BD80B54AF68870C2F282
:101D1000000003F0F9FE80BD80B54BF27800C2F2FE
:101D2000000003F0F1FE80BD80B54BF2F000C2F27E
:101D3000000003F0E9FE80BD80B54BF25820C2F2EE
:101D4000000003F0E1FE80BD80B54BF2D020C2F26E
:101D5000000003F0D9FE80BD80B54BF24830C2F2DE
:101D6000000003F0D1FE80BD80B54BF2C030C2F25E
:101D7000000003F0C9FE80BD80B54BF23840C2F2CE
:101D8000000003F0C1FE80BD80B54BF2B040C2F24E
:101D9000000003F0B9FE80BD80B54BF20000C2F236
:101DA000000003F0B1FE80BD80B54BF26810C2F2B6
:101DB000000003F0A9FE80BD80B54BF2E010C2F236
:101DC000000003F0A1FE80BD80B54AF6A850C2F223
:101DD000000003F099FE80BD83B002900298016874
:101DE00001201022C4F202029142009000F0A38070
:101DF000FFE70298016801202822C4F20202914202
:101E0000009000F09880FFE70298016801204022CE
:101E1000C4F202029142009000F08D80FFE7029828
:101E2000016801205822C4F202029142009000F0A1
:101E30008280FFE70298016801207022C4F202024A
:101E40009142009077D0FFE7029801680120882234
:101E5000C4F20202914200906DD0FFE7029801683F
:101E60000120A022C4F202029142009063D0FFE759
:101E7000029801680120B822C4F202029142009047
:101E800059D0FFE702980168012040F21042C4F2E5
:101E90000202914200904ED0FFE7029801680120B3
:101EA00040F22842C4F202029142009043D0FFE780
:101EB00002980168012040F24042C4F202029142BD
:101EC000009038D0FFE702980168012040F25842A4
:101ED000C4F20202914200902DD0FFE702980168FF
:101EE000012040F27042C4F202029142009022D0DE
:101EF000FFE702980168012040F28842C4F2020222
:101F00009142009017D0FFE702980168012040F24B
:101F1000A042C4F20202914200900CD0FFE7029866
:101F200000684FF64831CBF6FD710844B0FA80F0F6
:101F300040090090FFE70098C00740B3FFE7029810
:101F4000007810384AF6AB21CAF6AA21A0FB01108E
:101F500000090190019800F007014FF6E060C0F61B
:101F60000100405C0299C8650198042807D3FFE787
:101F700002990868042262F30900886506E0029964
:101F8000086840F2FF3290438865FFE705E0029958
:101F9000086820F0FF008865FFE70298806D03B0B5
:101FA000704700000000000084B0039003980068B0
:101FB000019003980168012045F20842C5F602022B
:101FC000914200904ED0FFE703980168012045F24E
:101FD0001C42C5F602029142009043D0FFE70398ED
:101FE0000168012045F23042C5F60202914200909C
:101FF00038D0FFE703980168012045F24442C5F656
:102000000202914200902DD0FFE703980168012061
:1020100045F25842C5F602029142009022D0FFE7F5
:1020200003980168012045F26C42C5F60202914214
:10203000009017D0FFE703980168012045F2804225
:10204000C5F60202914200900CD0FFE703980068A9
:102050004AF66C31CAF2FD710844B0FA80F04009CA
:102060000090FFE70098C00710B3FFE703980078DF
:1020700008384CF6CD41CCF6CC41A0FB011000094C
:102080000290029945F60000C5F6020000EB8100BF
:1020900003990866039945F68000C5F60200486674
:1020A000029800F01F01012088400399886635E0FE
:1020B0000398007810384AF6AB21CAF6AA21A0FB93
:1020C000011000090290019840F2B841C4F20201E7
:1020D00088420CD8FFE7019840F21041C4F2020197
:1020E000884204D3FFE7029808300290FFE7029984
:1020F00040F60000C4F2020000EB8100039908667C
:10210000039940F68000C4F202004866029800F08D
:102110001F010120884003998866FFE704B07047DB
:1021200083B002900298007901900198002800F095
:102130008A80FFE70198082800F28580FFE702986F
:102140000168012045F20842C5F602029142009062
:102150004ED0FFE702980168012045F21C42C5F607
:1021600002029142009043D0FFE7029801680120EB
:1021700045F23042C5F602029142009038D0FFE7A6
:1021800002980168012045F24442C5F602029142DC
:1021900000902DD0FFE702980168012045F25842D7
:1021A000C5F602029142009022D0FFE70298016832
:1021B000012045F26C42C5F602029142009017D010
:1021C000FFE702980168012045F28042C5F602024D
:1021D000914200900CD0FFE7029800684AF66C31FB
:1021E000CAF2FD710844B0FA80F040090090FFE7A0
:1021F0000098C00780B1FFE7019945F6FC00C5F6DD
:10220000020000EB81000299C866029945F6401071
:10221000C5F6020008670FE0019940F6FC00C4F221
:10222000020000EB81000299C866029940F6401056
:10223000C4F202000867FFE70198411E01208840B0
:1022400002994867FFE703B07047000000000000F4
:1022500085B0049000208DF80F000498806918BBA9
:10226000FFE70498806A029003281BD80299DFE8F0
:1022700001F0020D0218049890F82F00C00720B159
:10228000FFE701208DF80F00FFE70CE00498C06A1B
:10229000B0F1C07F04D1FFE701208DF80F00FFE708
:1022A00001E000E0FFE747E004988069B0F5005FD7
:1022B00026D1FFE70498806A019003281ED801996F
:1022C000DFE801F00206021101208DF80F0016E090
:1022D000049890F82F00C00720B1FFE701208DF887
:1022E0000F00FFE70BE00498C06AB0F1C07F04D193
:1022F000FFE701208DF80F00FFE700E0FFE71AE09D
:102300000498806A0090032804D3FFE7009803280C
:1023100004D00EE001208DF80F000BE0049890F837
:102320002F00C00720B1FFE701208DF80F00FFE765
:1023300000E0FFE7FFE7FFE79DF80F0005B07047FB
:1023400089B008900791069205930898806D0490D3
:102350000898806D03900898016801201022C4F24B
:1023600002029142029000F00381FFE708980168A1
:1023700001202822C4F202029142029000F0F8806B
:10238000FFE70898016801204022C4F2020291424E
:10239000029000F0ED80FFE70898016801205822C4
:1023A000C4F202029142029000F0E280FFE7089836
:1023B000016801207022C4F202029142029000F0F2
:1023C000D780FFE70898016801208822C4F2020242
:1023D0009142029000F0CC80FFE70898016801204C
:1023E000A022C4F202029142029000F0C180FFE7F5
:1023F000089801680120B822C4F2020291420290BA
:1024000000F0B680FFE708980168012040F2104212
:10241000C4F202029142029000F0AA80FFE70898FD
:102420000168012040F22842C4F202029142029067
:1024300000F09E80FFE708980168012040F24042CA
:10244000C4F202029142029000F09280FFE70898E5
:102450000168012040F25842C4F202029142029007
:1024600000F08680FFE708980168012040F2704282
:10247000C4F20202914202907AD0FFE70898016804
:10248000012040F28842C4F20202914202906FD0D1
:10249000FFE708980168012040F2A042C4F202025E
:1024A0009142029064D0FFE708980168012040F251
:1024B000B842C4F202029142029059D0FFE7089854
:1024C0000168012045F20842C5F6020291420290DD
:1024D0004ED0FFE708980168012045F21C42C5F67E
:1024E00002029142029043D0FFE708980168012060
:1024F00045F23042C5F602029142029038D0FFE721
:1025000008980168012045F24442C5F60202914252
:1025100002902DD0FFE708980168012045F258424B
:10252000C5F602029142029022D0FFE708980168A6
:10253000012045F26C42C5F602029142029017D08A
:10254000FFE708980168012045F28042C5F60202C3
:10255000914202900CD0FFE7089800684AF66C316F
:10256000CAF2FD710844B0FA80F040090290FFE71A
:102570000298C00770B1FFE70898416E806E48600E
:102580000898C06E28B1FFE70898016F406F486057
:10259000FFE7FFE70898016801201022C4F2020259
:1025A0009142019000F0A380FFE7089801680120A4
:1025B0002822C4F202029142019000F09880FFE7C5
:1025C0000898016801204022C4F202029142019061
:1025D00000F08D80FFE70898016801205822C4F2BE
:1025E00002029142019000F08280FFE708980168A2
:1025F00001207022C4F202029142019077D0FFE7DD
:102600000898016801208822C4F2020291420190D8
:102610006DD0FFE7089801680120A022C4F20202F1
:102620009142019063D0FFE7089801680120B82229
:10263000C4F202029142019059D0FFE70898016864
:10264000012040F21042C4F20202914201904ED0A9
:10265000FFE708980168012040F22842C4F2020214
:102660009142019043D0FFE708980168012040F2B1
:102670004042C4F202029142019038D0FFE708982C
:102680000168012040F25842C4F2020291420190D6
:102690002DD0FFE708980168012040F27042C4F293
:1026A00002029142019022D0FFE7089801680120C0
:1026B00040F28842C4F202029142019017D0FFE733
:1026C00008980168012040F2A042C4F2020291423F
:1026D00001900CD0FFE7089800684FF64831CBF620
:1026E000FD710844B0FA80F040090190FFE70198BD
:1026F000C00750B3FFE70898C06D00F01F013F20EE
:1027000088400499886008980168086820F480204F
:10271000086005980899096848600898806840280A
:1027200009D1FFE706980899096888600798089911
:102730000968C86008E007980899096888600698E1
:1027400008990968C860FFE782E0089801680120DD
:1027500045F20842C5F60202914200904ED0FFE7D2
:1027600008980168012045F21C42C5F60202914218
:10277000009043D0FFE708980168012045F23042FD
:10278000C5F602029142009038D0FFE70898016830
:10279000012045F24442C5F60202914200902DD03C
:1027A000FFE708980168012045F25842C5F6020289
:1027B0009142009022D0FFE708980168012045F27D
:1027C0006C42C5F602029142009017D0FFE70898CC
:1027D0000168012045F28042C5F602029142009054
:1027E0000CD0FFE7089800684AF66C31CAF2FD7118
:1027F0000844B0FA80F040090090FFE70098C00755
:1028000020B3FFE70898C06D00F01F010120884049
:102810000399486005980899096848600898806895
:10282000402809D1FFE70698089909688860079849
:1028300008990968C86008E00798089909688860DD
:10284000069808990968C860FFE700E0FFE7FFE71E
:1028500009B070470000000080B590B00F900E9155
:102860008DED0D0ACDED0C0A8DED0B1ACDED0A1A8A
:102870008DED092A0E980078002877D1FFE79DEDAD
:102880000D0A0E9890ED031AF1EE410A10201BF08C
:10289000EBF9ADF822009DED0C0A0E9890ED041AAC
:1028A000F1EE410A0C2002901BF0DEF9014602987D
:1028B000ADF820109DED090A0E9991ED051AF1EE83
:1028C000410A1BF0D1F901460298ADF81E109DEDAA
:1028D0000B0ADFED5D0ACDED010A9FED5C1A1BF0DE
:1028E000C3F9DDED010A01460298ADF81C109DED1B
:1028F0000A0AB1EE041A1BF0B7F9ADF81A000E98E7
:1029000040680F9948609DF823000F9981F82800CE
:102910009DF822000F9981F82900BDF820000009D8
:102920000F9981F82A00BDF820109DF81D0040EA9B
:1029300001100F9981F82B009DF81C000F9981F868
:102940002C00BDF81A0000090F9981F82D00BDF880
:102950001A109DF81F0040EA01100F9981F82E000F
:102960009DF81E000F9981F82F0068E00E980078FE
:10297000012833D1FFE70DA805900CA804900E980C
:10298000406800F580700F994860059800780F99AD
:1029900081F82800059840780F9981F8290005985A
:1029A00080780F9981F82A000598C0780F9981F8EE
:1029B0002B00049800780F9981F82C000498407837
:1029C0000F9981F82D00049880780F9981F82E00D6
:1029D0000498C0780F9981F82F002FE00E980078A6
:1029E00002282AD1FFE70CA803900E98406800F552
:1029F00000700F994860039800780F9981F82800BB
:102A0000039840780F9981F82900039880780F99EE
:102A100081F82A000398C0780F9981F82B000F994C
:102A2000002081F82C000F9981F82D000F9981F872
:102A30002E000F9981F82F00FFE7FFE7FFE70F98BF
:102A400019F04EFA10B080BD000000000000FA43FB
:102A500080B584B0039002918DF8072002988068B9
:102A6000039948600399FF2081F82800039981F8B1
:102A70002900039981F82A00039981F82B00039912
:102A800081F82C00039981F82D00039981F82E001C
:102A90009DF807000146009140B1FFE7009801282A
:102AA00009D0FFE7009802280AD00EE00399FC2025
:102AB00081F82F000AE00399FD2081F82F0005E03E
:102AC0000399FE2081F82F0000E0FFE7039819F03A
:102AD00007FA04B080BD000080B584B00390029175
:102AE00001920398006801998968884201D0FFE744
:102AF00054E00298007800090199487602984178DC
:102B0000807840EA0120019948830299C8780979C0
:102B1000000140EA111001998883029801794079F7
:102B200001F00F0140EA01200199C8830199C88B87
:102B3000D1ED050AB1EE600A0C2100911BF000FFF7
:102B4000019880ED0A0A0199488BD1ED030AB1EE94
:102B5000600A10211BF0F4FE0099019880ED080A2C
:102B6000019A908BD2ED040AB1EE600A1BF0E8FEE8
:102B7000019880ED090A0298807900EE100AB8EEFB
:102B8000400A019880ED0B0A0298C07900EE100A05
:102B9000B8EE400A019880ED0C0AFFE704B080BD52
:102BA000704700000000000080B582B0019006F080
:102BB00007FD0090FFE706F003FD0099401A019918
:102BC000884201D2FFE7F6E702B080BD00000000B6
:102BD00080B582B001900EF07BFB0090FFE70EF015
:102BE00077FB0099401A0199884201D2FFE7F6E786
:102BF00002B080BD0000000080B582B00190FFE708
:102C000040F24E40C2F2000012F0B2F901201BF077
:102C10001BF9F5E70000000081B0EFF3108072B6F9
:102C20000090FFE7FEE7000080B54BF22850C2F2AB
:102C3000000005F021FC80BD80B54BF22850C2F2A7
:102C4000000005F019FC80BD80B584B003900291AE
:102C50000398029940F22002C2F200020192FEF7AC
:102C6000E3FF019A039802992032FEF7DDFF019AF3
:102C7000039802994032FEF7D7FF019A0398029910
:102C80006032FEF7D1FF04B080BD000000000000FC
:102C900080B54BF2C850C2F2000005F0EDFB80BDDC
:102CA00080B54BF2C850C2F2000005F0E5FB80BDD4
:102CB00080B584B0039002910398029940F2BC025F
:102CC000C2F200020192FFF707FF019A03980299EE
:102CD0003832FFF701FF019A039802997032FFF72B
:102CE000FBFE019A03980299A832FFF7F5FE04B0A3
:102CF00080BD00000000000080B54BF26860C2F2A9
:102D0000000005F0B9FB80BD80B54BF26860C2F2EF
:102D1000000005F0B1FB80BD82B00190009102B0CF
:102D2000704700000000000084B002900298406BE1
:102D3000009002980068D0F884004FF6FC71884338
:102D4000009940EA810002990968C1F8840002985C
:102D50000068D0F8840020F47F00029A1168926B1A
:102D600040EA0240C1F884000298816B0098084450
:102D7000009002980068D0F888006FF38F000099E7
:102D800040EA810002990968C1F888000298006849
:102D9000D0F8880020F4FE00029A1168D26B40EA55
:102DA0000240C1F888000298C16B009800EB410016
:102DB000009002980068D0F8A0006FF38F0000998F
:102DC00040EA810002990968C1F8A00002980068F1
:102DD000D0F8A00020F4FE00029A1168126C40EABC
:102DE0000240C1F8A0000299086C496C009A00FBEF
:102DF0000120009002980068D0F8B0006FF38F00B7
:102E0000009940EA810002990968C1F8B00002986F
:102E10000068D0F8B00020F4FE00029A1168926CAD
:102E200040EA0240C1F8B0000299886CC96C009A6F
:102E300000FB0120009002980068D0F8AC006FF30E
:102E40008F00009940EA810002990968C1F8AC003E
:102E50000299086D496D009A00FB012000900298CC
:102E60000068D0F8F0006FF38F00009940EA81000D
:102E700002990968C1F8F00002980068D0F8F000E3
:102E800020F47C10029A1168926D40EA0240C1F869
:102E9000F0000298816D009800EB410000900298CC
:102EA0000068D0F8C0006FF38F00009940EA8100FD
:102EB00002990968C1F8C00002980068D0F8C00003
:102EC00020F47C10029A1168D26D40EA0240C1F8E9
:102ED000C00002980068D0F8C00020F07C50029A30
:102EE0001168126E40EA0260C1F8C00002994A6B94
:102EF0004AF60040C4F2000000EB8200C866029966
:102F00008A6BC86E00EB820008670299CA6B086F73
:102F100000EBC200486702990A6C4B6C486F5A4339
:102F200000EB8200886702998A6CCB6C886F5A43E9
:102F300000EB8200C86702990A6D4B6DC86F5A4357
:102F400000EB8200C1F8800002998A6DD1F8800000
:102F500000EBC200C1F884000299CA6D8B6ED1F8F3
:102F600084005A4300EB8200C1F8880002990A6E7F
:102F70008B6ED1F888005A4300EB8200C1F89000B4
:102F80000298D0F890004DF2FD31C4F20001884261
:102F90000FD3FFE70299D1F89C0040F02000C1F860
:102FA0009C000299032081F8980001208DF80F0001
:102FB00017E00298C06E0190FFE701980299D1F8DE
:102FC0009010884208D2FFE7019900200860FFE7CF
:102FD000019804300190F0E7FFE700208DF80F0022
:102FE000FFE79DF80F0004B07047000000000000EC
:102FF00088B007900691059204930698406848B9F6
:10300000FFE70698016882680069104340EA814042
:10301000039009E00698016882680069104308433C
:1030200040F080400390FFE70698D0F820C0C168C8
:1030300042698369C06940EA0C601843104340EA62
:10304000014002900798826ED0F8840004995143A1
:1030500000EB810001900398019908600198043009
:1030600001900298019908600198043001900020B5
:103070000090FFE700980699CA684FF6D061C0F645
:103080000101895C88420DD2FFE7059800994058FC
:1030900001990860019804300190FFE7009804301E
:1030A0000090E7E708B0704785B08DED030ACDEDDD
:1030B000020A8DED011A9DED010A9DED021AB4EE92
:1030C000410AF1EE10FA03DAFFE70398049049E0B1
:1030D0009DED010A9DED021A30EE410A8DED000AC8
:1030E0009DED030A9DED011AB4EE410AF1EE10FACE
:1030F00015DDFFE7FFE79DED001A9DED030A30EEB9
:10310000410A8DED030AFFE79DED030A9DED011ACB
:10311000B4EE410AF1EE10FAEDDCFFE71FE09DEDA1
:10312000030A9DED021AB4EE410AF1EE10FA15DA27
:10313000FFE7FFE79DED001A9DED030A30EE010A5F
:103140008DED030AFFE79DED030A9DED021AB4EE33
:10315000410AF1EE10FAEDDBFFE7FFE7FFE7039826
:103160000490FFE79DED040A05B0704700000000E1
:1031700084B08DED030A9DED030AB6EE001A20EE31
:10318000010A8DED020A03980190019800900099C0
:1031900045F68620C5F63770A0EB610000900098D8
:1031A00001909DED011A9DED020A20EE012ABFEE6D
:1031B000080AA2EE010A20EE410A8DED010A9DEDFA
:1031C000010A04B07047000084B002900191ADF88C
:1031D0000220029828B9FFE74FF6FF70ADF80E0005
:1031E00021E0FFE70198411E0191B8B1FFE7029885
:1031F000411C029100788DF80100BDF802109DF885
:1032000001004840C2B240F26600C0F6020030F849
:10321000120080EA1120ADF80200E3E7BDF80200D9
:10322000ADF80E00FFE7BDF80E0004B070470000D7
:1032300083B0029001918DF80320FFE70198411EB1
:10324000019198B1FFE79DF8030002994A1C029290
:10325000097848408DF802009DF802104FF6C050E2
:10326000C0F60100405C8DF80300E7E79DF803001D
:1032700003B070470000000080B584B04EF6000037
:10328000C1F6F170006803904EF60400C1F6F170CB
:10329000006802904EF60800C1F6F17000680190D7
:1032A0000199039808440390039888B1FFE70398B5
:1032B00040F23441C2F200010091023108220EF0C6
:1032C00013FA00990298123104220EF00DFAFFE76A
:1032D00004B080BD0000000080B586B0049003916A
:1032E000029200200090FFE7049890F85C0001280B
:1032F00004D1FFE702208DF817005BE0049901205C
:1033000081F85C00FFE7FFE70498FDF7C5FC8DF846
:1033100007009DF80700E0BBFFE70498006E40F04F
:10332000020020F488500499086604980068039904
:10333000029A0FF059F9FFE7049800680EF070FF49
:10334000F0B1FFE700980130009000984FF60001BF
:10335000C2F2C351884212D3FFE70498006E40F0D6
:10336000100020F0020004990866FFE7049900208D
:1033700081F85C00FFE701208DF817001AE0DBE719
:103380000498006E40F0010020F0020004990866E5
:1033900005E00499086E40F010000866FFE7FFE7BB
:1033A0000499002081F85C00FFE79DF807008DF884
:1033B0001700FFE79DF8170006B080BD0000000071
:1033C00080B5AAB02890279100208DF89B002798FF
:1033D000006808B1FFE7FFE7FFE7289890F85C0076
:1033E000012804D1FFE702208DF8A7002DE12899DC
:1033F000012081F85C00FFE7FFE700202190229088
:103400002898006842F20001C4F20201884206D105
:10341000FFE742F20010C4F20200099002E000202F
:103420000990FFE7099878B9FFE72899086E40F0FE
:1034300020000866FFE72899002081F85C00FFE77C
:1034400001208DF8A70000E109980EF021FF0890F7
:10345000289800680EF01CFF002840F0E280FFE78B
:103460000898002840F0DD80FFE7289801680120D7
:1034700042F20002C4F20202914207900CD0FFE730
:10348000289800684DF60071CBF6FD710844B0FA3B
:1034900080F040090790FFE70798C10746F2003027
:1034A000C5F6020000291CBF42F20030C4F202003F
:1034B00025902798006800285ED0FFE7259880684F
:1034C00020F4404027994968084325998860289846
:1034D0000168012042F20002C4F202029142069009
:1034E0000CD0FFE7289800684DF60071CBF6FD710F
:1034F0000844B0FA80F040090690FFE70698C1073B
:1035000046F20030C5F6020000291CBF42F200302E
:10351000C4F2020042F20031C4F20201884212D128
:10352000FFE742F20000C4F202000EF099FE0490A0
:1035300042F20010C4F202000EF092FE014604981E
:103540000843059007E046F20000C5F602000EF0C1
:1035500087FE0590FFE7059868B9FFE72598806822
:1035600040F61F718843279A1168926811430843F7
:1035700025998860FFE753E02599886820F440404A
:10358000886028980168012042F20002C4F2020219
:10359000914203900CD0FFE7289800684DF6007127
:1035A000CBF6FD710844B0FA80F040090390FFE7C4
:1035B0000398C10746F20030C5F6020000291CBF7F
:1035C00042F20030C4F2020042F20031C4F20201C1
:1035D000884212D1FFE742F20000C4F202000EF06E
:1035E0003FFE019042F20010C4F202000EF038FEDD
:1035F000014601980843029007E046F20000C5F634
:1036000002000EF02DFE0290FFE7029838B9FFE7A6
:103610002599886840F61F7290438860FFE7FFE7AE
:1036200008E02899086E40F02000086601208DF817
:103630009B00FFE7FFE72899002081F85C00FFE787
:103640009DF89B008DF8A700FFE79DF8A7002AB022
:1036500080BD00000000000080B5CCB02A90299108
:1036600000208DF8A30025902A9890F844000128A6
:1036700001D1FFE70BE02A98006846F20001C5F689
:103680000201884201D1FFE700E0FFE7FFE7299848
:10369000C0680021C4F2FF71884201D0FFE71EE03C
:1036A0002A98006842F20001C4F20201884201D166
:1036B000FFE7FFE72A98006842F20011C4F2020116
:1036C000884201D1FFE7FFE72A98006846F200012F
:1036D000C5F60201884201D1FFE7FFE7FFE7FFE7F8
:1036E0002A9890F85C00012805D1FFE702208DF8A8
:1036F000AF0000F07DBD2A99012081F85C00FFE752
:10370000FFE72A9800680EF0BBFD002840F05C85BA
:10371000FFE72998C0780006002837D4FFE72A98E9
:10372000006846F20001C5F6020188422DD0FFE78D
:1037300029980068000330B9FFE729980068C0F3B2
:103740008460229015E02998006890FAA0F04A90D1
:103750004A9820B9FFE720208DF82F0105E04A980C
:10376000B0FA80F08DF82F01FFE79DF82F0122902D
:10377000FFE7229800F01F01012000FA01F22A98C9
:103780000168C8691043C861FFE7FFE72A9800682D
:1037900029990A6849680EF0B7FD2A9800680EF06A
:1037A0006FFD24902A9800680EF032FD2390249833
:1037B000002840F05A82FFE72398002840F0558205
:1037C000FFE72A980068299A116892680EF0CCFDEC
:1037D0002A98006846F20001C5F6020188420BD122
:1037E000FFE7299840692A990968C96801F018011A
:1037F00089088840279038E041F20000C5F6004073
:10380000006800F07040B0F1805F0BD1FFE72998AD
:1038100040692A990968C96801F01C014908884073
:1038200021901FE02A980068C068C00600280BD4C9
:10383000FFE7299840692A990968C96801F01C01C5
:103840004908884020900AE0299840692A99096827
:10385000C96801F01001490888402090FFE72098CE
:103860002190FFE721982790FFE729980069042815
:1038700041D0FFE72A98006829990A680969279BBF
:103880000EF0FAFD2A98006846F20001C5F6020122
:10389000884215D1FFE72A980068299A1169D269F0
:1038A0000EF03AFE2A980068299A116992F82020B1
:1038B000013AB2FA82F2520952060EF00DFE19E0F8
:1038C0002A980068299A116992F82120013AB2FADF
:1038D00082F25209D2070EF03FFE2A980068299A18
:1038E0001169127E013AB2FA82F25209D2020EF046
:1038F000AFFDFFE7B8E12A98006846F20001C5F67F
:103900000201884240F06681FFE72A9800680021A2
:103910000EF06EFC000348B9FFE72A98006800210A
:103920000EF066FCC0F384601F9018E02A980068CF
:1039300000210EF05DFC90FAA0F04890489820B964
:10394000FFE720208DF8270105E04898B0FA80F0C5
:103950008DF82701FFE79DF827011F90FFE71F98CB
:103960001E9029980068000330B9FFE72998006885
:10397000C0F384601D9015E02998006890FAA0F0CB
:103980004690469820B9FFE720208DF81F0105E0FA
:103990004698B0FA80F08DF81F01FFE79DF81F01EF
:1039A0001D90FFE71E981D99884207D1FFE72A98CE
:1039B0000068002211460EF0EFFDFFE72A9800682C
:1039C00001210EF015FC000348B9FFE72A980068B2
:1039D00001210EF00DFCC0F384601C9018E02A98C1
:1039E000006801210EF004FC90FAA0F04490449885
:1039F00020B9FFE720208DF8170105E04498B0FAC0
:103A000080F08DF81701FFE79DF817011C90FFE784
:103A10001C981B9029980068000330B9FFE729988B
:103A20000068C0F384601A9015E02998006890FA45
:103A3000A0F04290429820B9FFE720208DF80F01B6
:103A400005E04298B0FA80F08DF80F01FFE79DF88D
:103A50000F011A90FFE71B981A99884207D1FFE7D8
:103A60002A980068012100220EF096FDFFE72A98AF
:103A7000006802210EF0BCFB000348B9FFE72A985A
:103A8000006802210EF0B4FBC0F38460199018E0C6
:103A90002A98006802210EF0ABFB90FAA0F040904B
:103AA000409820B9FFE720208DF8070105E04098F5
:103AB000B0FA80F08DF80701FFE79DF80701199033
:103AC000FFE71998189029980068000330B9FFE7BC
:103AD00029980068C0F38460179015E02998006861
:103AE00090FAA0F03E903E9820B9FFE720208DF894
:103AF000FF0005E03E98B0FA80F08DF8FF00FFE788
:103B00009DF8FF001790FFE718981799884207D192
:103B1000FFE72A980068022100220EF03DFDFFE732
:103B20002A98006803210EF063FB000348B9FFE701
:103B30002A98006803210EF05BFBC0F384601690A6
:103B400018E02A98006803210EF052FB90FAA0F0CA
:103B50003C903C9820B9FFE720208DF8F70005E065
:103B60003C98B0FA80F08DF8F700FFE79DF8F70079
:103B70001690FFE71698159029980068000330B951
:103B8000FFE729980068C0F38460149015E0299835
:103B9000006890FAA0F03A903A9820B9FFE7202008
:103BA0008DF8EF0005E03A98B0FA80F08DF8EF005C
:103BB000FFE79DF8EF001490FFE7159814998842ED
:103BC00007D1FFE72A980068032100220EF0E4FCE9
:103BD000FFE748E02A980068006E00F0F840299955
:103BE0000968B0EB816F07D1FFE72A980168086E7A
:103BF00020F000400866FFE72A980068406E00F059
:103C0000F84029990968B0EB816F07D1FFE72A983E
:103C10000168486E20F000404866FFE72A98006877
:103C2000806E00F0F84029990968B0EB816F07D1E8
:103C3000FFE72A980168886E20F000408866FFE759
:103C40002A980068C06E00F0F84029990968B0EB26
:103C5000816F07D1FFE72A980168C86E20F0004005
:103C6000C866FFE7FFE7FFE7FFE72A9800680EF066
:103C7000EFFA002840F0A782FFE72A980068299A07
:103C80001168D2680EF08CFB2998C0680021C4F23C
:103C9000FF71884240F03381FFE72A980068139053
:103CA00029980068000330B9FFE729980068C0F33D
:103CB0008460129015E02998006890FAA0F038907E
:103CC000389820B9FFE720208DF8E70005E0389804
:103CD000B0FA80F08DF8E700FFE79DF8E70012905A
:103CE000FFE71298013000F01F0009287DD8FFE798
:103CF00029980068000330B9FFE729980068C0F3ED
:103D00008460119015E02998006890FAA0F0369030
:103D1000369820B9FFE720208DF8DF0005E03698BF
:103D2000B0FA80F08DF8DF00FFE79DF8DF0011901A
:103D3000FFE71198013000F01F00800610902998CD
:103D40000068000330B9FFE729980068C0F3846079
:103D50000F9015E02998006890FAA0F034903498FC
:103D600020B9FFE720208DF8D70005E03498B0FA9D
:103D700080F08DF8D700FFE79DF8D7000F90FFE7A0
:103D800010980F99013101F01F0201219140084361
:103D90000E9029980068000330B9FFE72998006861
:103DA000C0F384600D9015E02998006890FAA0F0A7
:103DB0003290329820B9FFE720208DF8CF0005E03F
:103DC0003298B0FA80F08DF8CF00FFE79DF8CF0071
:103DD0000D90FFE70E980D99013101F01F0101EBE5
:103DE000410140EA01500C9082E0299800680003EC
:103DF00030B9FFE729980068C0F384600B9015E0A4
:103E00002998006890FAA0F03090309820B9FFE728
:103E100020208DF8C70005E03098B0FA80F08DF8CA
:103E2000C700FFE79DF8C7000B90FFE70B98013034
:103E300000F01F0080060A9029980068000330B93E
:103E4000FFE729980068C0F38460099015E029987D
:103E5000006890FAA0F02E902E9820B9FFE720205D
:103E60008DF8BF0005E02E98B0FA80F08DF8BF0005
:103E7000FFE79DF8BF000990FFE70A980999013113
:103E800001F01F0201219140084308902998006821
:103E9000000330B9FFE729980068C0F384600790F9
:103EA00015E02998006890FAA0F02C902C9820B981
:103EB000FFE720208DF8B70005E02C98B0FA80F0DD
:103EC0008DF8B700FFE79DF8B7000790FFE7089966
:103ED0000798013000F01F0000EB40020020CFF6F1
:103EE000206000EB0250084340F000700C90FFE7A8
:103EF00013980C99299A92680EF036FAFFE72998E0
:103F0000C0780006002840F15D81FFE72A9801682B
:103F1000012042F20002C4F20202914206900CD04B
:103F2000FFE72A9800684DF60071CBF6FD71084452
:103F3000B0FA80F040090690FFE70698C10746F204
:103F40000030C5F6020000291CBF42F20030C4F266
:103F500002000EF03DF926902A9801684FF001000A
:103F600042F20002C4F20202914205900CD0FFE737
:103F70002A9800684DF60071CBF6FD710844B0FA3E
:103F800080F040090590FFE70598C10746F2003030
:103F9000C5F6020000291CBF42F20030C4F2020044
:103FA00042F20031C4F20201884212D1FFE742F22C
:103FB0000000C4F202000EF04BF9039042F2001030
:103FC000C4F202000EF044F901460398084304903D
:103FD00007E046F20000C5F602000EF039F9049041
:103FE000FFE70498002840F0E380FFE72998006885
:103FF0000021CCF25271884255D1FFE79DF89A001A
:10400000000600284FD4FFE72A98006846F2000116
:10401000C5F60201884245D1FFE72A9801680120D0
:1040200042F20002C4F20202914202900CD0FFE779
:104030002A9800684DF60071CBF6FD710844B0FA7D
:1040400080F040090290FFE70298C10746F2003075
:10405000C5F6020000291CBF42F20030C4F2020083
:10406000269941F400010EF0E3F940F25C30C2F20F
:10407000000000684FEA901042F66351C0F23E51D2
:10408000A0FB01104FEA90114FF0020000EB41003D
:104090002590FFE7259820B1FFE725980138259066
:1040A000F8E7FFE783E0299800680021CCF221318E
:1040B000884238D1FFE79DF89B00C00798BBFFE717
:1040C0002A98006846F20001C5F60201884229D10B
:1040D000FFE72A980168012042F20002C4F20202BE
:1040E000914201900CD0FFE72A9800684DF60071CC
:1040F000CBF6FD710844B0FA80F040090190FFE76B
:104100000198C10746F20030C5F6020000291CBF25
:1041100042F20030C4F20200269941F080710EF0A4
:1041200087F9FFE742E0299800680021CCF6843146
:10413000884239D1FFE79DF89A004006002833D421
:10414000FFE72A98006846F20001C5F6020188429E
:1041500029D1FFE72A980168012042F20002C4F247
:104160000202914200900CD0FFE72A9800684DF6B9
:104170000071CBF6FD710844B0FA80F04009009060
:10418000FFE70098C10746F20030C5F6020000299B
:104190001CBF42F20030C4F20200269941F48001B3
:1041A0000EF046F9FFE700E0FFE7FFE7FFE708E072
:1041B0002A99086E40F02000086601208DF8A300BF
:1041C000FFE7FFE7FFE708E02A99086E40F02000CC
:1041D000086601208DF8A300FFE7FFE72A99002079
:1041E00081F85C00FFE79DF8A3008DF8AF00FFE7C2
:1041F0009DF8AF004CB080BD81B0009001B0704719
:1042000081B0009001B0704781B0009001B070475C
:1042100010B590B00E9000208DF837000A900E98DF
:1042200020B9FFE701208DF83F006EE20E9800698B
:1042300040B1FFE70E9890F82000012801D1FFE778
:10424000FFE7FFE70E98006E50B9FFE70E9800F009
:1042500063FA0E99002048660E9981F85C00FFE72A
:104260000E9800680DF0E4FF28B1FFE70E98006893
:104270000DF076FFFFE70E9800680DF0F9FFE8B942
:10428000FFE70E9800680DF093FF40F25C30C2F239
:1042900000000068800942F66351C0F23E51A0FB65
:1042A0000101012000EB91100A90FFE70A9820B16C
:1042B000FFE70A9801380A90F8E7FFE70E980068D0
:1042C0000DF0D6FF70B9FFE70E99086E40F01000B0
:1042D00008660E99486E40F00100486601208DF88E
:1042E0003700FFE70E9800680DF0CAFF0B900E989C
:1042F000006EC006002800F1FA81FFE70B98002845
:1043000040F0F581FFE70E98006E40F0020020F4C7
:1043100080700E9908660E9800680DF099FF0028CD
:1043200070D1FFE70E980168012042F20002C4F24A
:104330000202914207900CD0FFE70E9800684DF6FC
:104340000071CBF6FD710844B0FA80F04009079087
:10435000FFE70798C10746F20030C5F602000029C2
:104360001CBF42F20030C4F2020042F20031C4F23B
:104370000201884212D1FFE742F20000C4F20200BB
:104380000DF066FF059042F20010C4F202000DF03D
:104390005FFF014605980843069007E046F20000DB
:1043A000C5F602000DF054FF0690FFE7069840BBEB
:1043B000FFE70E980168012042F20002C4F20202F7
:1043C000914204900CD0FFE70E9800684DF6007102
:1043D000CBF6FD710844B0FA80F040090490FFE785
:1043E0000498C10746F20030C5F6020000291CBF40
:1043F00042F20030C4F202000E9949680EF008F84B
:10440000FFE7FFE70E98006846F20001C5F60201DB
:1044100088423AD1FFE70E9A517ED06B40EA413193
:104420009068D26811430391082803D1FFE7002068
:1044300002901DE00E9880680C2803D1FFE704204D
:10444000019012E00E9880681C2803D1FFE7082035
:10445000009007E00E9881680020182908BF1C20F2
:104460000090FFE700980190FFE701980290FFE7B6
:104470000398029901F00C0140EA41000E9991F86D
:10448000201040EA01400C900CE00E994A7EC86B67
:1044900040EA42308A68104391F8201040EA014017
:1044A0000C90FFE70E9890F8200001280BD1FFE751
:1044B0000E98416A0020CFF6FE7000EB41410C9847
:1044C00008430C90FFE70E98806A50B1FFE70E9901
:1044D000886AC96A00F4787001430C9808430C900C
:1044E000FFE70E98006846F20001C5F60201884217
:1044F00018D1FFE70E980068C06844F20701CFF6B4
:10450000F07108400C9908430E990968C8600E982C
:104510000068006920F040600E9A1168526B1043E9
:1045200008610DE00E980068C0684CF20301CFF6F8
:10453000F07108400C9908430E990968C860FFE7BC
:104540000E9800680DF09CFE09900E9800680DF022
:104550005FFE08900998002840F0A880FFE70898BF
:10456000002840F0A380FFE70E98006846F20001A3
:10457000C5F60201884209D1FFE70E99087E91F83D
:104580003810800340EA41000C9006E00E98017E4E
:10459000006B40EA81300C90FFE70E980068C0681D
:1045A00044F2030188430C9908430E990968C860D6
:1045B0000E9890F84400012859D1FFE70E98006842
:1045C00046F20001C5F60201884201D1FFE700E092
:1045D000FFE70E98806A20B1FFE70E98C06A08B91D
:1045E000FFE7FFE70E98006846F20001C5F60201FA
:1045F00088421BD1FFE70E98006800694FF61E0144
:10460000CFF6004100EA01020E9B1968986CD3F8BE
:104610004CE0D3F850C040EA0E0040EA0C005B6D5D
:104620001843104340F0010008611FE00E98006835
:1046300000694FF61E01CFF6004100EA01020E9B11
:1046400019689C6CD3F84CE0D3F850C00020CFF62A
:10465000FF7000EB044040EA0E0040EA0C005B6D86
:104660001843104340F001000861FFE706E00E9890
:104670000168086920F001000861FFE70E980068F2
:10468000006920F070400E9A1168126C10430861A6
:104690000E98006846F20001C5F60201884204D077
:1046A000FFE70E98FCF778F9FFE7FFE70E9800693F
:1046B00001280CD1FFE70E980068006B20F00F0076
:1046C0000E9A1168D269013A1043086306E00E9809
:1046D0000168086B20F00F000863FFE70E98006E7A
:1046E00040F0010020F002000E99086608E00E99E3
:1046F000086E40F01000086601208DF83700FFE7D3
:104700009DF837008DF83F00FFE79DF83F0010B09F
:1047100010BD00000000000080B5BAB03990002044
:104720003890379036903590349006A8B821FBF732
:10473000D7FF3998006842F20001C4F202018842B2
:104740006BD1FFE7002007904FF4002006904FF454
:1047500000302E9006A807F047FC18B1FFE7FEF7DF
:104760005BFAFFE7FFE744F2D840C5F602000168B4
:1047700041F020010160006800F0200005900598DC
:10478000FFE7FFE744F2E040C5F60200016841F0B0
:1047900004010160006800F0040004900498FFE741
:1047A000102034900320359000200190369040F680
:1047B0000000C5F6020034A904F016FD01994AF67E
:1047C000A850C2F20000029040F2A042C4F20202DD
:1047D0000260092242608160C1604FF48062026120
:1047E0004FF4006242614FF4005282614FF48072D4
:1047F000C2610162416202F067FA18B1FFE7FEF799
:104800000BFAFFE7FFE739984AF6A851C2F2000118
:10481000816539988863FFE756E03998006846F269
:104820000001C5F6020188424DD1FFE70020079044
:104830004FF4002006904FF400302E9006A807F0A9
:10484000D3FB18B1FFE7FEF7E7F9FFE7FFE744F214
:10485000E040C5F60200016841F080710160006827
:1048600000F0807003900398FFE74AF62060C2F2E0
:104870000000009045F20841C5F6020101601121D7
:10488000416000218160C1604FF4806202614FF499
:10489000006242614FF4005282614FF48072C26143
:1048A000016202F011FA18B1FFE7FEF7B5F9FFE770
:1048B000FFE739984AF62061C2F200018165399814
:1048C0008863FFE7FFE7FFE73AB080BD0000000024
:1048D00080B588B006900591049206980168012081
:1048E00042F20002C4F20202914201900CD0FFE7B2
:1048F000069800684DF60071CBF6FD710844B0FAD9
:1049000080F040090190FFE70198C10746F20030AE
:10491000C5F6020000291CBF42F20030C4F20200BA
:104920000DF05EFC0290069800680DF0A9FC0028CE
:1049300040F0C680FFE7FFE7069890F85C0001288A
:1049400004D1FFE702208DF81F00C2E00699012084
:1049500081F85C00FFE7FFE7029848B1FFE70298A3
:10496000052805D0FFE70298092840F09E80FFE760
:104970000698FCF7F5F98DF80F009DF80F00002858
:1049800040F08B80FFE70698006E40F4807040F6A0
:1049900001618843069908660698006842F2001192
:1049A000C4F20201884206D1FFE742F20000C4F2DD
:1049B0000200009003E0069800680090FFE700986E
:1049C00006990968884203D0FFE7029830B9FFE7EB
:1049D0000699086E20F480100866FFE70698006EBE
:1049E000C004002806D5FFE70699486E20F00600AF
:1049F000486603E0069900204866FFE70698816D47
:104A000040F67930C0F60000C8630698816D40F624
:104A10008140C0F6000008640698816D40F6514060
:104A2000C0F60000C864069801681C200860FFE713
:104A30000699002081F85C00FFE706980168486845
:104A400040F0100048600698006846F20001C5F684
:104A5000020188420CD1FFE70699086891F83810E6
:104A600049000DF029FC069800680DF095FB05E063
:104A700006990868096B0DF037FCFFE70698016896
:104A8000806D4031059A049B02F0CEFD8DF80F0039
:104A9000069800680DF058FC06E0FFE70699002034
:104AA00081F85C00FFE7FFE709E001208DF80F00C7
:104AB000FFE70699002081F85C00FFE7FFE703E0CD
:104AC00002208DF80F00FFE79DF80F008DF81F0002
:104AD000FFE79DF81F0008B080BD00000000000047
:104AE00080B58AB0089004F06BFD0490089828B94E
:104AF000FFE701208DF8270000F0AABC089890F885
:104B0000350002280ED0FFE7089980204865FFE7AE
:104B10000899002081F83400FFE701208DF8270074
:104B200000F096BC0898016801201022C4F202022D
:104B30009142039000F0A380FFE7089801680120EC
:104B40002822C4F202029142039000F09880FFE70D
:104B50000898016801204022C4F2020291420390A9
:104B600000F08D80FFE70898016801205822C4F208
:104B700002029142039000F08280FFE708980168EA
:104B800001207022C4F202029142039077D0FFE725
:104B90000898016801208822C4F202029142039021
:104BA0006DD0FFE7089801680120A022C4F202023C
:104BB0009142039063D0FFE7089801680120B82272
:104BC000C4F202029142039059D0FFE708980168AD
:104BD000012040F21042C4F20202914203904ED0F2
:104BE000FFE708980168012040F22842C4F202025F
:104BF0009142039043D0FFE708980168012040F2FA
:104C00004042C4F202029142039038D0FFE7089874
:104C10000168012040F25842C4F20202914203901E
:104C20002DD0FFE708980168012040F27042C4F2DD
:104C300002029142039022D0FFE708980168012008
:104C400040F28842C4F202029142039017D0FFE77B
:104C500008980168012040F2A042C4F20202914289
:104C600003900CD0FFE7089800684FF64831CBF668
:104C7000FD710844B0FA80F040090390FFE7039803
:104C8000C00780B1FFE708980168086820F01E009F
:104C9000086008980168486920F080004861089819
:104CA0000068059009E008980168086820F00E0087
:104CB0000860089800680590FFE7089801680120DF
:104CC0001022C4F202029142029000F00381FFE739
:104CD0000898016801202822C4F202029142029041
:104CE00000F0F880FFE70898016801204022C4F234
:104CF00002029142029000F0ED80FFE708980168FF
:104D000001205822C4F202029142029000F0E28097
:104D1000FFE70898016801207022C4F20202914264
:104D2000029000F0D780FFE70898016801208822F0
:104D3000C4F202029142029000F0CC80FFE7089892
:104D400001680120A022C4F202029142029000F008
:104D5000C180FFE7089801680120B822C4F202026E
:104D60009142029000F0B680FFE7089801680120A8
:104D700040F21042C4F202029142029000F0AA8076
:104D8000FFE708980168012040F22842C4F20202BD
:104D90009142029000F09E80FFE708980168012090
:104DA00040F24042C4F202029142029000F092802E
:104DB000FFE708980168012040F25842C4F202025D
:104DC0009142029000F08680FFE708980168012078
:104DD00040F27042C4F20202914202907AD0FFE7A0
:104DE00008980168012040F28842C4F20202914210
:104DF00002906FD0FFE708980168012040F2A042BE
:104E0000C4F202029142029064D0FFE70898016860
:104E1000012040F2B842C4F202029142029059D0FD
:104E2000FFE708980168012045F20842C5F6020232
:104E3000914202904ED0FFE708980168012045F2A8
:104E40001C42C5F602029142029043D0FFE7089847
:104E50000168012045F23042C5F6020291420290FB
:104E600038D0FFE708980168012045F24442C5F6B2
:104E70000202914202902DD0FFE7089801680120BC
:104E800045F25842C5F602029142029022D0FFE755
:104E900008980168012045F26C42C5F60202914271
:104EA000029017D0FFE708980168012045F2804280
:104EB000C5F60202914202900CD0FFE70898006804
:104EC0004AF66C31CAF2FD710844B0FA80F040092C
:104ED0000290FFE70298C00738B1FFE70898016E1B
:104EE000086820F480700860FFE7089800681021C7
:104EF000C4F20201884200F08180FFE70898006850
:104F00002821C4F20201884278D0FFE7089800689F
:104F10004021C4F20201884270D0FFE7089800687F
:104F20005821C4F20201884268D0FFE7089800685F
:104F30007021C4F20201884260D0FFE7089800683F
:104F40008821C4F20201884258D0FFE7089800681F
:104F5000A021C4F20201884250D0FFE708980068FF
:104F6000B821C4F20201884248D0FFE708980068DF
:104F700040F21041C4F2020188423FD0FFE7089896
:104F8000006840F22841C4F20201884236D0FFE7AF
:104F90000898006840F24041C4F2020188422DD0D6
:104FA000FFE70898006840F25841C4F202018842C5
:104FB00024D0FFE70898006840F27041C4F2020173
:104FC00088421BD0FFE70898006840F28841C4F28D
:104FD0000201884212D0FFE70898006840F2A04121
:104FE000C4F20201884209D0FFE70898006840F245
:104FF000B841C4F20201884207D1FFE7089801686E
:10500000086820F00100086006E008980168086858
:1050100020F001000860FFE7FFE705980068C0077F
:10502000C8B1FFE704F0CCFA0499401A062811D35E
:10503000FFE70899202048650899032081F835008A
:10504000FFE70899002081F83400FFE701208DF880
:105050002700FDE1E1E70898016801201022C4F271
:1050600002029142019000F0A380FFE708980168D6
:1050700001202822C4F202029142019000F098809F
:10508000FFE70898016801204022C4F20202914221
:10509000019000F08D80FFE70898016801205822F8
:1050A000C4F202029142019000F08280FFE708986A
:1050B000016801207022C4F202029142019077D06F
:1050C000FFE70898016801208822C4F20202914299
:1050D00001906DD0FFE7089801680120A022C4F27A
:1050E00002029142019063D0FFE708980168012015
:1050F000B822C4F202029142019059D0FFE7089809
:105100000168012040F21042C4F202029142019073
:105110004ED0FFE708980168012040F22842C4F20F
:1051200002029142019043D0FFE7089801680120F4
:1051300040F24042C4F202029142019038D0FFE7AF
:1051400008980168012040F25842C4F202029142DC
:1051500001902DD0FFE708980168012040F27042CD
:10516000C4F202029142019022D0FFE70898016840
:10517000012040F28842C4F202029142019017D00D
:10518000FFE708980168012040F2A042C4F2020241
:10519000914201900CD0FFE7089800684FF6483123
:1051A000CBF6FD710844B0FA80F040090190FFE7AA
:1051B0000198C00760B1FFE70898806D07900898D4
:1051C000C06D00F01F013F208840079988600BE008
:1051D0000898806D06900898C06D00F01F010120AE
:1051E000884006994860FFE708980168012010226E
:1051F000C4F202029142009000F00381FFE7089898
:10520000016801202822C4F202029142009000F0BD
:10521000F880FFE70898016801204022C4F20202EA
:105220009142009000F0ED80FFE7089801680120AE
:105230005822C4F202029142009000F0E280FFE79F
:105240000898016801207022C4F202029142009085
:1052500000F0D780FFE70898016801208822C4F297
:1052600002029142009000F0CC80FFE708980168AC
:105270000120A022C4F202029142009000F0C180FD
:10528000FFE7089801680120B822C4F202029142A7
:10529000009000F0B680FFE708980168012040F216
:1052A0001042C4F202029142009000F0AA80FFE78F
:1052B00008980168012040F22842C4F2020291429B
:1052C000009000F09E80FFE708980168012040F2FE
:1052D0004042C4F202029142009000F09280FFE747
:1052E00008980168012040F25842C4F2020291423B
:1052F000009000F08680FFE708980168012040F2E6
:105300007042C4F20202914200907AD0FFE70898FE
:105310000168012040F28842C4F2020291420090EA
:105320006FD0FFE708980168012040F2A042C4F264
:1053300002029142009064D0FFE7089801680120C2
:1053400040F2B842C4F202029142009059D0FFE705
:1053500008980168012045F20842C5F60202914210
:1053600000904ED0FFE708980168012045F21C42EA
:10537000C5F602029142009043D0FFE70898016809
:10538000012045F23042C5F602029142009038D029
:10539000FFE708980168012045F24442C5F6020281
:1053A000914200902DD0FFE708980168012045F256
:1053B0005842C5F602029142009022D0FFE70898B9
:1053C0000168012045F26C42C5F60202914200904C
:1053D00017D0FFE708980168012045F28042C5F622
:1053E0000202914200900CD0FFE7089800684AF64C
:1053F0006C31CAF2FD710844B0FA80F040090090A7
:10540000FFE70098C007A0B1FFE70898416E806EE3
:1054100048600898C06E58B1FFE70898C16E0868E8
:1054200020F4807008600898016F406F4860FFE7C3
:10543000FFE70899012081F83500FFE7089900206F
:1054400081F83400FFE7FFE700208DF82700FFE731
:105450009DF827000AB080BD80B586B004900498FE
:1054600020B9FFE701208DF8170046E3049890F873
:105470003500022807D0FFE7049980204865012005
:105480008DF8170039E30498016801201022C4F256
:1054900002029142029000F0A380FFE704980168A5
:1054A00001202822C4F202029142029000F098806A
:1054B000FFE70498016801204022C4F202029142F1
:1054C000029000F08D80FFE70498016801205822C7
:1054D000C4F202029142029000F08280FFE7049839
:1054E000016801207022C4F202029142029077D03A
:1054F000FFE70498016801208822C4F20202914269
:1055000002906DD0FFE7049801680120A022C4F248
:1055100002029142029063D0FFE7049801680120E3
:10552000B822C4F202029142029059D0FFE70498D7
:105530000168012040F21042C4F20202914202903E
:105540004ED0FFE704980168012040F22842C4F2DF
:1055500002029142029043D0FFE7049801680120C3
:1055600040F24042C4F202029142029038D0FFE77A
:1055700004980168012040F25842C4F202029142AC
:1055800002902DD0FFE704980168012040F270429C
:10559000C4F202029142029022D0FFE7049801680F
:1055A000012040F28842C4F202029142029017D0D8
:1055B000FFE704980168012040F2A042C4F2020211
:1055C000914202900CD0FFE7049800684FF64831F2
:1055D000CBF6FD710844B0FA80F040090290FFE775
:1055E0000298C007002800F09D80FFE7049904207E
:1055F00081F83500049800681021C4F20201884245
:1056000000F08180FFE7049800682821C4F20201BD
:10561000884278D0FFE7049800684021C4F2020174
:10562000884270D0FFE7049800685821C4F2020154
:10563000884268D0FFE7049800687021C4F2020134
:10564000884260D0FFE7049800688821C4F2020114
:10565000884258D0FFE704980068A021C4F20201F4
:10566000884250D0FFE704980068B821C4F20201D4
:10567000884248D0FFE70498006840F21041C4F225
:10568000020188423FD0FFE70498006840F22841B9
:10569000C4F20201884236D0FFE70498006840F265
:1056A0004041C4F2020188422DD0FFE7049800680F
:1056B00040F25841C4F20201884224D0FFE7049826
:1056C000006840F27041C4F2020188421BD0FFE73B
:1056D0000498006840F28841C4F20201884212D066
:1056E000FFE70498006840F2A041C4F2020188423A
:1056F00009D0FFE70498006840F2B841C4F2020103
:10570000884207D1FFE704980168086820F001008B
:10571000086006E004980168086820F0010008604D
:10572000FFE7E5E104980168086820F00E000860D2
:10573000049800681021C4F20201884200F08180C0
:10574000FFE7049800682821C4F20201884278D05B
:10575000FFE7049800684021C4F20201884270D03B
:10576000FFE7049800685821C4F20201884268D01B
:10577000FFE7049800687021C4F20201884260D0FB
:10578000FFE7049800688821C4F20201884258D0DB
:10579000FFE704980068A021C4F20201884250D0BB
:1057A000FFE704980068B821C4F20201884248D09B
:1057B000FFE70498006840F21041C4F202018842F9
:1057C0003FD0FFE70498006840F22841C4F202018C
:1057D000884236D0FFE70498006840F24041C4F2A6
:1057E000020188422DD0FFE70498006840F258413A
:1057F000C4F20201884224D0FFE70498006840F216
:105800007041C4F2020188421BD0FFE7049800688F
:1058100040F28841C4F20201884212D0FFE70498A6
:10582000006840F2A041C4F20201884209D0FFE7BB
:105830000498006840F2B841C4F20201884207D1DE
:10584000FFE704980168086820F00100086006E09E
:1058500004980168086820F001000860FFE70498D8
:10586000016801201022C4F202029142019000F06E
:105870000381FFE70498016801202822C4F2020294
:105880009142019000F0F880FFE704980168012040
:105890004022C4F202029142019000F0ED80FFE745
:1058A0000498016801205822C4F20202914201903A
:1058B00000F0E280FFE70498016801207022C4F242
:1058C00002029142019000F0D780FFE7049801683E
:1058D00001208822C4F202029142019000F0CC80A3
:1058E000FFE7049801680120A022C4F2020291425D
:1058F000019000F0C180FFE7049801680120B82200
:10590000C4F202029142019000F0B680FFE70498D1
:105910000168012040F21042C4F20202914201905B
:1059200000F0AA80FFE704980168012040F22842B5
:10593000C4F202029142019000F09E80FFE70498B9
:105940000168012040F24042C4F2020291420190FB
:1059500000F09280FFE704980168012040F258426D
:10596000C4F202029142019000F08680FFE70498A1
:105970000168012040F27042C4F20202914201909B
:105980007AD0FFE704980168012040F28842C4F20F
:105990000202914201906FD0FFE704980168012054
:1059A00040F2A042C4F202029142019064D0FFE7AB
:1059B00004980168012040F2B842C4F20202914208
:1059C000019059D0FFE704980168012045F2084290
:1059D000C5F60202914201904ED0FFE7049801689B
:1059E000012045F21C42C5F602029142019043D0CB
:1059F000FFE704980168012045F23042C5F6020233
:105A00009142019038D0FFE704980168012045F2E7
:105A10004442C5F60202914201902DD0FFE704985E
:105A20000168012045F25842C5F6020291420190F8
:105A300022D0FFE704980168012045F26C42C5F6C8
:105A400002029142019017D0FFE7049801680120FB
:105A500045F28042C5F60202914201900CD0FFE768
:105A6000049800684AF66C31CAF2FD710844B0FA35
:105A700080F040090190FFE70198C00728B3FFE7D5
:105A80000498016E086820F4807008600498806DA6
:105A900003900498C06D00F01F0101208840039915
:105AA00048600498416E806E48600498C06E58B19A
:105AB000FFE70498C16E086820F4807008600498BD
:105AC000016F406F4860FFE7FFE70499012081F80C
:105AD0003500FFE70499002081F83400FFE70498BF
